{
  "contractName": "Manager",
  "abi": [
    {
      "inputs": [],
      "stateMutability": "nonpayable",
      "type": "constructor"
    },
    {
      "anonymous": false,
      "inputs": [
        {
          "indexed": true,
          "internalType": "bytes32",
          "name": "role",
          "type": "bytes32"
        },
        {
          "indexed": true,
          "internalType": "bytes32",
          "name": "previousAdminRole",
          "type": "bytes32"
        },
        {
          "indexed": true,
          "internalType": "bytes32",
          "name": "newAdminRole",
          "type": "bytes32"
        }
      ],
      "name": "RoleAdminChanged",
      "type": "event"
    },
    {
      "anonymous": false,
      "inputs": [
        {
          "indexed": true,
          "internalType": "bytes32",
          "name": "role",
          "type": "bytes32"
        },
        {
          "indexed": true,
          "internalType": "address",
          "name": "account",
          "type": "address"
        },
        {
          "indexed": true,
          "internalType": "address",
          "name": "sender",
          "type": "address"
        }
      ],
      "name": "RoleGranted",
      "type": "event"
    },
    {
      "anonymous": false,
      "inputs": [
        {
          "indexed": true,
          "internalType": "bytes32",
          "name": "role",
          "type": "bytes32"
        },
        {
          "indexed": true,
          "internalType": "address",
          "name": "account",
          "type": "address"
        },
        {
          "indexed": true,
          "internalType": "address",
          "name": "sender",
          "type": "address"
        }
      ],
      "name": "RoleRevoked",
      "type": "event"
    },
    {
      "inputs": [],
      "name": "ADMINISTRATOR_ROLE",
      "outputs": [
        {
          "internalType": "bytes32",
          "name": "",
          "type": "bytes32"
        }
      ],
      "stateMutability": "view",
      "type": "function"
    },
    {
      "inputs": [],
      "name": "APPLICATION_ROLE",
      "outputs": [
        {
          "internalType": "bytes32",
          "name": "",
          "type": "bytes32"
        }
      ],
      "stateMutability": "view",
      "type": "function"
    },
    {
      "inputs": [],
      "name": "DEFAULT_ADMIN_ROLE",
      "outputs": [
        {
          "internalType": "bytes32",
          "name": "",
          "type": "bytes32"
        }
      ],
      "stateMutability": "view",
      "type": "function"
    },
    {
      "inputs": [
        {
          "internalType": "bytes32",
          "name": "role",
          "type": "bytes32"
        }
      ],
      "name": "getRoleAdmin",
      "outputs": [
        {
          "internalType": "bytes32",
          "name": "",
          "type": "bytes32"
        }
      ],
      "stateMutability": "view",
      "type": "function"
    },
    {
      "inputs": [
        {
          "internalType": "bytes32",
          "name": "role",
          "type": "bytes32"
        },
        {
          "internalType": "address",
          "name": "account",
          "type": "address"
        }
      ],
      "name": "grantRole",
      "outputs": [],
      "stateMutability": "nonpayable",
      "type": "function"
    },
    {
      "inputs": [
        {
          "internalType": "bytes32",
          "name": "role",
          "type": "bytes32"
        },
        {
          "internalType": "address",
          "name": "account",
          "type": "address"
        }
      ],
      "name": "hasRole",
      "outputs": [
        {
          "internalType": "bool",
          "name": "",
          "type": "bool"
        }
      ],
      "stateMutability": "view",
      "type": "function"
    },
    {
      "inputs": [
        {
          "internalType": "bytes32",
          "name": "role",
          "type": "bytes32"
        },
        {
          "internalType": "address",
          "name": "account",
          "type": "address"
        }
      ],
      "name": "renounceRole",
      "outputs": [],
      "stateMutability": "nonpayable",
      "type": "function"
    },
    {
      "inputs": [
        {
          "internalType": "bytes32",
          "name": "role",
          "type": "bytes32"
        },
        {
          "internalType": "address",
          "name": "account",
          "type": "address"
        }
      ],
      "name": "revokeRole",
      "outputs": [],
      "stateMutability": "nonpayable",
      "type": "function"
    },
    {
      "inputs": [
        {
          "internalType": "bytes4",
          "name": "interfaceId",
          "type": "bytes4"
        }
      ],
      "name": "supportsInterface",
      "outputs": [
        {
          "internalType": "bool",
          "name": "",
          "type": "bool"
        }
      ],
      "stateMutability": "view",
      "type": "function"
    },
    {
      "inputs": [
        {
          "internalType": "address",
          "name": "owner_",
          "type": "address"
        }
      ],
      "name": "getPatient",
      "outputs": [
        {
          "internalType": "address",
          "name": "patient",
          "type": "address"
        }
      ],
      "stateMutability": "view",
      "type": "function"
    },
    {
      "inputs": [
        {
          "internalType": "address",
          "name": "owner_",
          "type": "address"
        }
      ],
      "name": "getDoctor",
      "outputs": [
        {
          "internalType": "address",
          "name": "doctor",
          "type": "address"
        }
      ],
      "stateMutability": "view",
      "type": "function"
    },
    {
      "inputs": [
        {
          "internalType": "address",
          "name": "owner_",
          "type": "address"
        },
        {
          "internalType": "bytes32",
          "name": "name_",
          "type": "bytes32"
        },
        {
          "internalType": "bytes32",
          "name": "affiliate_",
          "type": "bytes32"
        },
        {
          "internalType": "bool",
          "name": "fromApp_",
          "type": "bool"
        }
      ],
      "name": "addDoctor",
      "outputs": [],
      "stateMutability": "nonpayable",
      "type": "function"
    },
    {
      "inputs": [
        {
          "components": [
            {
              "internalType": "bytes32",
              "name": "value1",
              "type": "bytes32"
            },
            {
              "internalType": "bytes32",
              "name": "value2",
              "type": "bytes32"
            }
          ],
          "internalType": "struct Bytes32Pair",
          "name": "nameGender_",
          "type": "tuple"
        },
        {
          "internalType": "uint256",
          "name": "dob_",
          "type": "uint256"
        },
        {
          "components": [
            {
              "internalType": "uint16",
              "name": "value1",
              "type": "uint16"
            },
            {
              "internalType": "uint16",
              "name": "value2",
              "type": "uint16"
            }
          ],
          "internalType": "struct SmallUintPair",
          "name": "physique_",
          "type": "tuple"
        },
        {
          "internalType": "string[]",
          "name": "allergy_",
          "type": "string[]"
        },
        {
          "components": [
            {
              "internalType": "bool",
              "name": "value1",
              "type": "bool"
            },
            {
              "internalType": "bool",
              "name": "value2",
              "type": "bool"
            },
            {
              "internalType": "bool",
              "name": "value3",
              "type": "bool"
            }
          ],
          "internalType": "struct BoolTriple",
          "name": "habits_",
          "type": "tuple"
        },
        {
          "components": [
            {
              "internalType": "bool",
              "name": "fromApp",
              "type": "bool"
            },
            {
              "internalType": "address",
              "name": "addr",
              "type": "address"
            }
          ],
          "internalType": "struct FromAppOption",
          "name": "option_",
          "type": "tuple"
        }
      ],
      "name": "addPatient",
      "outputs": [],
      "stateMutability": "nonpayable",
      "type": "function"
    },
    {
      "inputs": [
        {
          "internalType": "address",
          "name": "patient_",
          "type": "address"
        }
      ],
      "name": "doctorRequest",
      "outputs": [],
      "stateMutability": "nonpayable",
      "type": "function"
    },
    {
      "inputs": [
        {
          "internalType": "address[]",
          "name": "doctors_",
          "type": "address[]"
        }
      ],
      "name": "getDoctorInfo",
      "outputs": [
        {
          "components": [
            {
              "internalType": "bytes32",
              "name": "name",
              "type": "bytes32"
            },
            {
              "internalType": "bytes32",
              "name": "affiliate",
              "type": "bytes32"
            }
          ],
          "internalType": "struct DoctorStruct[]",
          "name": "docInfo",
          "type": "tuple[]"
        }
      ],
      "stateMutability": "view",
      "type": "function"
    },
    {
      "inputs": [
        {
          "internalType": "address",
          "name": "patient_",
          "type": "address"
        }
      ],
      "name": "applicationRequest",
      "outputs": [],
      "stateMutability": "nonpayable",
      "type": "function"
    }
  ],
  "bytecode": "0x6080604052604051620000129062000201565b604051809103906000f0801580156200002f573d6000803e3d6000fd5b50600380546001600160a01b0319166001600160a01b03929092169190911790556040516200005e906200020f565b604051809103906000f0801580156200007b573d6000803e3d6000fd5b50600480546001600160a01b0319166001600160a01b0392909216919091179055348015620000a957600080fd5b50620000c5600080516020620072b98339815191523362000106565b620001007faf31c50b4aab7af0193b792816047837f36c88a23bbb4d0e3581c88cb4bf86ab600080516020620072b983398151915262000116565b6200021d565b62000112828262000161565b5050565b600082815260208190526040808220600101805490849055905190918391839186917fbd79b86ffe0ab8e8776151514217cd7cacd52c909f66475c3af44e129f0b00ff9190a4505050565b6000828152602081815260408083206001600160a01b038516845290915290205460ff1662000112576000828152602081815260408083206001600160a01b03851684529091529020805460ff19166001179055620001bd3390565b6001600160a01b0316816001600160a01b0316837f2f8788117e7eff1d82e926ec794901d17c78024a50270940304540a733656f0d60405160405180910390a45050565b6117d08062001f8483390190565b613b65806200375483390190565b611d57806200022d6000396000f3fe608060405234801561001057600080fd5b50600436106101005760003560e01c806391d1485411610097578063b5368e2011610066578063b5368e20146102a3578063d547741f146102dc578063f45edb5f146102ef578063f804d8361461031657600080fd5b806391d1485414610231578063a217fddf14610275578063a4cbaf311461027d578063b32752161461029057600080fd5b80632f04e064116100d35780632f04e0641461019a5780632f2ff15d146101f857806336568abe1461020b578063832ff2101461021e57600080fd5b806301ffc9a714610105578063080121da1461012d57806315bf3c0914610162578063248a9ca314610177575b600080fd5b61011861011336600461177f565b610336565b60405190151581526020015b60405180910390f35b6101547faf31c50b4aab7af0193b792816047837f36c88a23bbb4d0e3581c88cb4bf86ab81565b604051908152602001610124565b610175610170366004611632565b6103cf565b005b610154610185366004611715565b60009081526020819052604090206001015490565b6101d36101a83660046115fa565b73ffffffffffffffffffffffffffffffffffffffff9081166000908152600160205260409020541690565b60405173ffffffffffffffffffffffffffffffffffffffff9091168152602001610124565b61017561020636600461172d565b610665565b61017561021936600461172d565b61068f565b61017561022c3660046115fa565b610742565b61011861023f36600461172d565b60009182526020828152604080842073ffffffffffffffffffffffffffffffffffffffff93909316845291905290205460ff1690565b610154600081565b61017561028b3660046115fa565b61089b565b61017561029e3660046117bf565b610990565b6101d36102b13660046115fa565b73ffffffffffffffffffffffffffffffffffffffff9081166000908152600260205260409020541690565b6101756102ea36600461172d565b610b4f565b6101547fe5a0b4d50f56047f84728557fedbda92f956391bc9d5c762e8461996dd8e7ad781565b610329610324366004611679565b610b74565b6040516101249190611aa8565b60007fffffffff0000000000000000000000000000000000000000000000000000000082167f7965db0b0000000000000000000000000000000000000000000000000000000014806103c957507f01ffc9a7000000000000000000000000000000000000000000000000000000007fffffffff000000000000000000000000000000000000000000000000000000008316145b92915050565b3360009081527f39a32fa53afbddd10dece87247480e70bb49e4faf8d837ff5229bd5b9d1f37a5602052604090205460ff168061043a57503360009081527f41c90bc1e97eee4405eb05513a260f423542caa5209bb2fbb701e6c3dd7921cd602052604090205460ff165b6104a5576040517f08c379a000000000000000000000000000000000000000000000000000000000815260206004820152600d60248201527f4163636573732064656e6965640000000000000000000000000000000000000060448201526064015b60405180910390fd5b73ffffffffffffffffffffffffffffffffffffffff8481166000908152600160205260409020541615610534576040517f08c379a000000000000000000000000000000000000000000000000000000000815260206004820152600f60248201527f50726f66696c6520657869737465640000000000000000000000000000000000604482015260640161049c565b6003546040805180820182528315158152336020820190815291517ff13e486900000000000000000000000000000000000000000000000000000000815273ffffffffffffffffffffffffffffffffffffffff888116600483015260248201889052604482018790529151151560648201529151811660848301529091169063f13e48699060a401602060405180830381600087803b1580156105d657600080fd5b505af11580156105ea573d6000803e3d6000fd5b505050506040513d601f19601f8201168201806040525081019061060e9190611616565b73ffffffffffffffffffffffffffffffffffffffff948516600090815260016020526040902080547fffffffffffffffffffffffff0000000000000000000000000000000000000000169190951617909355505050565b60008281526020819052604090206001015461068081610e91565b61068a8383610e9e565b505050565b73ffffffffffffffffffffffffffffffffffffffff81163314610734576040517f08c379a000000000000000000000000000000000000000000000000000000000815260206004820152602f60248201527f416363657373436f6e74726f6c3a2063616e206f6e6c792072656e6f756e636560448201527f20726f6c657320666f722073656c660000000000000000000000000000000000606482015260840161049c565b61073e8282610f8e565b5050565b3360009081526001602052604090205473ffffffffffffffffffffffffffffffffffffffff161580159061079c575073ffffffffffffffffffffffffffffffffffffffff8181166000908152600260205260409020541615155b610802576040517f08c379a000000000000000000000000000000000000000000000000000000000815260206004820152601f60248201527f446f63746f72206f722070617469656e74206973206e6f742061207573657200604482015260640161049c565b73ffffffffffffffffffffffffffffffffffffffff818116600090815260026020526040908190205490517f9aca66f80000000000000000000000000000000000000000000000000000000081523360048201529116908190639aca66f8906024015b600060405180830381600087803b15801561087f57600080fd5b505af1158015610893573d6000803e3d6000fd5b505050505050565b73ffffffffffffffffffffffffffffffffffffffff81811660009081526002602052604090205416610929576040517f08c379a000000000000000000000000000000000000000000000000000000000815260206004820152601560248201527f50617469656e74206973206e6f74206120757365720000000000000000000000604482015260640161049c565b73ffffffffffffffffffffffffffffffffffffffff818116600090815260026020526040908190205490517fe3a5a4de000000000000000000000000000000000000000000000000000000008152336004820152911690819063e3a5a4de90602401610865565b60208082015173ffffffffffffffffffffffffffffffffffffffff908116600090815260029092526040909120541615610a26576040517f08c379a000000000000000000000000000000000000000000000000000000000815260206004820152600f60248201527f50726f66696c6520657869737465640000000000000000000000000000000000604482015260640161049c565b600480546020808401516040805180820182528651151581523393810193909352517fb4a9ebf300000000000000000000000000000000000000000000000000000000815273ffffffffffffffffffffffffffffffffffffffff9093169363b4a9ebf393610a9e938c928c928c928c928c9201611979565b602060405180830381600087803b158015610ab857600080fd5b505af1158015610acc573d6000803e3d6000fd5b505050506040513d601f19601f82011682018060405250810190610af09190611616565b60209182015173ffffffffffffffffffffffffffffffffffffffff90811660009081526002909352604090922080547fffffffffffffffffffffffff000000000000000000000000000000000000000016919092161790555050505050565b600082815260208190526040902060010154610b6a81610e91565b61068a8383610f8e565b6060815167ffffffffffffffff811115610bb7577f4e487b7100000000000000000000000000000000000000000000000000000000600052604160045260246000fd5b604051908082528060200260200182016040528015610bfc57816020015b6040805180820190915260008082526020820152815260200190600190039081610bd55790505b50905060005b8251811015610e8b57600073ffffffffffffffffffffffffffffffffffffffff1660016000858481518110610c60577f4e487b7100000000000000000000000000000000000000000000000000000000600052603260045260246000fd5b60209081029190910181015173ffffffffffffffffffffffffffffffffffffffff90811683529082019290925260400160002054161415610cfa5760408051808201909152600080825260208201528251839083908110610cea577f4e487b7100000000000000000000000000000000000000000000000000000000600052603260045260246000fd5b6020026020010181905250610e79565b60008060016000868581518110610d3a577f4e487b7100000000000000000000000000000000000000000000000000000000600052603260045260246000fd5b602002602001015173ffffffffffffffffffffffffffffffffffffffff1673ffffffffffffffffffffffffffffffffffffffff16815260200190815260200160002060009054906101000a900473ffffffffffffffffffffffffffffffffffffffff1673ffffffffffffffffffffffffffffffffffffffff16635a9b0b896040518163ffffffff1660e01b8152600401604080518083038186803b158015610de157600080fd5b505afa158015610df5573d6000803e3d6000fd5b505050506040513d601f19601f82011682018060405250810190610e19919061175c565b91509150604051806040016040528083815260200182815250848481518110610e6b577f4e487b7100000000000000000000000000000000000000000000000000000000600052603260045260246000fd5b602002602001018190525050505b80610e8381611c68565b915050610c02565b50919050565b610e9b8133611045565b50565b60008281526020818152604080832073ffffffffffffffffffffffffffffffffffffffff8516845290915290205460ff1661073e5760008281526020818152604080832073ffffffffffffffffffffffffffffffffffffffff85168452909152902080547fffffffffffffffffffffffffffffffffffffffffffffffffffffffffffffff00166001179055610f303390565b73ffffffffffffffffffffffffffffffffffffffff168173ffffffffffffffffffffffffffffffffffffffff16837f2f8788117e7eff1d82e926ec794901d17c78024a50270940304540a733656f0d60405160405180910390a45050565b60008281526020818152604080832073ffffffffffffffffffffffffffffffffffffffff8516845290915290205460ff161561073e5760008281526020818152604080832073ffffffffffffffffffffffffffffffffffffffff8516808552925280832080547fffffffffffffffffffffffffffffffffffffffffffffffffffffffffffffff0016905551339285917ff6391f5c32d9c69d2a47ea670b442974b53935d1edc7fd64eb21e047a839171b9190a45050565b60008281526020818152604080832073ffffffffffffffffffffffffffffffffffffffff8516845290915290205460ff1661073e5761109b8173ffffffffffffffffffffffffffffffffffffffff166014611115565b6110a6836020611115565b6040516020016110b79291906118f8565b604080517fffffffffffffffffffffffffffffffffffffffffffffffffffffffffffffffe0818403018152908290527f08c379a000000000000000000000000000000000000000000000000000000000825261049c91600401611aff565b60606000611124836002611bc6565b61112f906002611bae565b67ffffffffffffffff81111561116e577f4e487b7100000000000000000000000000000000000000000000000000000000600052604160045260246000fd5b6040519080825280601f01601f191660200182016040528015611198576020820181803683370190505b5090507f3000000000000000000000000000000000000000000000000000000000000000816000815181106111f6577f4e487b7100000000000000000000000000000000000000000000000000000000600052603260045260246000fd5b60200101907effffffffffffffffffffffffffffffffffffffffffffffffffffffffffffff1916908160001a9053507f780000000000000000000000000000000000000000000000000000000000000081600181518110611280577f4e487b7100000000000000000000000000000000000000000000000000000000600052603260045260246000fd5b60200101907effffffffffffffffffffffffffffffffffffffffffffffffffffffffffffff1916908160001a90535060006112bc846002611bc6565b6112c7906001611bae565b90505b60018111156113b2577f303132333435363738396162636465660000000000000000000000000000000085600f166010811061132f577f4e487b7100000000000000000000000000000000000000000000000000000000600052603260045260246000fd5b1a60f81b82828151811061136c577f4e487b7100000000000000000000000000000000000000000000000000000000600052603260045260246000fd5b60200101907effffffffffffffffffffffffffffffffffffffffffffffffffffffffffffff1916908160001a90535060049490941c936113ab81611c33565b90506112ca565b50831561141b576040517f08c379a000000000000000000000000000000000000000000000000000000000815260206004820181905260248201527f537472696e67733a20686578206c656e67746820696e73756666696369656e74604482015260640161049c565b9392505050565b6000601f8381840112611433578182fd5b8235602061144861144383611b8a565b611b3b565b80838252828201915082870188848660051b8a01011115611467578687fd5b865b8581101561151857813567ffffffffffffffff8082111561148857898afd5b818b0191508b603f83011261149b57898afd5b868201356040828211156114b1576114b1611cd0565b6114e0897fffffffffffffffffffffffffffffffffffffffffffffffffffffffffffffffe08d85011601611b3b565b92508183528d818386010111156114f5578b8cfd5b818185018a85013750810187018a90528552509284019290840190600101611469565b509098975050505050505050565b8035801515811461153657600080fd5b919050565b60006060828403121561154c578081fd5b6040516060810181811067ffffffffffffffff8211171561156f5761156f611cd0565b60405290508061157e83611526565b815261158c60208401611526565b602082015261159d60408401611526565b60408201525092915050565b6000604082840312156115ba578081fd5b6115c2611b12565b90506115cd82611526565b815260208201356115dd81611cff565b602082015292915050565b803561ffff8116811461153657600080fd5b60006020828403121561160b578081fd5b813561141b81611cff565b600060208284031215611627578081fd5b815161141b81611cff565b60008060008060808587031215611647578283fd5b843561165281611cff565b9350602085013592506040850135915061166e60608601611526565b905092959194509250565b6000602080838503121561168b578182fd5b823567ffffffffffffffff8111156116a1578283fd5b8301601f810185136116b1578283fd5b80356116bf61144382611b8a565b80828252848201915084840188868560051b87010111156116de578687fd5b8694505b838510156117095780356116f581611cff565b8352600194909401939185019185016116e2565b50979650505050505050565b600060208284031215611726578081fd5b5035919050565b6000806040838503121561173f578182fd5b82359150602083013561175181611cff565b809150509250929050565b6000806040838503121561176e578182fd5b505080516020909101519092909150565b600060208284031215611790578081fd5b81357fffffffff000000000000000000000000000000000000000000000000000000008116811461141b578182fd5b6000806000806000808688036101608112156117d9578485fd5b60408112156117e6578485fd5b6117ee611b12565b883581526020808a013590820152965060408089013596507fffffffffffffffffffffffffffffffffffffffffffffffffffffffffffffffa082011215611833578485fd5b5061183c611b12565b611848606089016115e8565b8152611856608089016115e8565b6020820152935060a087013567ffffffffffffffff811115611876578283fd5b61188289828a01611422565b9350506118928860c0890161153b565b91506118a28861012089016115a9565b90509295509295509295565b600081518084526118c6816020860160208601611c03565b601f017fffffffffffffffffffffffffffffffffffffffffffffffffffffffffffffffe0169290920160200192915050565b7f416363657373436f6e74726f6c3a206163636f756e7420000000000000000000815260008351611930816017850160208801611c03565b7f206973206d697373696e6720726f6c6520000000000000000000000000000000601791840191820152835161196d816028840160208801611c03565b01602801949350505050565b600061018080830173ffffffffffffffffffffffffffffffffffffffff8b16845260206119b28186018c80518252602090810151910152565b606085018a9052885161ffff9081166080870152818a01511660a086015260c08501929092528651908190526101a080850192600583901b860190910191888201855b82811015611a41577ffffffffffffffffffffffffffffffffffffffffffffffffffffffffffffffe60888603018652611a2f8583516118ae565b958401959450908301906001016119f5565b50508751151560e0870152505060208601511515610100850152604086015115156101208501529150611a719050565b82511515610140830152602083015173ffffffffffffffffffffffffffffffffffffffff1661016083015298975050505050505050565b602080825282518282018190526000919060409081850190868401855b82811015611af257611ae284835180518252602090810151910152565b9284019290850190600101611ac5565b5091979650505050505050565b60208152600061141b60208301846118ae565b6040805190810167ffffffffffffffff81118282101715611b3557611b35611cd0565b60405290565b604051601f82017fffffffffffffffffffffffffffffffffffffffffffffffffffffffffffffffe016810167ffffffffffffffff81118282101715611b8257611b82611cd0565b604052919050565b600067ffffffffffffffff821115611ba457611ba4611cd0565b5060051b60200190565b60008219821115611bc157611bc1611ca1565b500190565b6000817fffffffffffffffffffffffffffffffffffffffffffffffffffffffffffffffff0483118215151615611bfe57611bfe611ca1565b500290565b60005b83811015611c1e578181015183820152602001611c06565b83811115611c2d576000848401525b50505050565b600081611c4257611c42611ca1565b507fffffffffffffffffffffffffffffffffffffffffffffffffffffffffffffffff0190565b60007fffffffffffffffffffffffffffffffffffffffffffffffffffffffffffffffff821415611c9a57611c9a611ca1565b5060010190565b7f4e487b7100000000000000000000000000000000000000000000000000000000600052601160045260246000fd5b7f4e487b7100000000000000000000000000000000000000000000000000000000600052604160045260246000fd5b73ffffffffffffffffffffffffffffffffffffffff81168114610e9b57600080fdfea26469706673582212201a57fa16ce7f7c0ec3c64e5fcca57a07f7a1e97332ef7db22763c42b632fa75764736f6c6343000804003360a060405234801561001057600080fd5b5061001a33610058565b604051610026906100a8565b604051809103906000f080158015610042573d6000803e3d6000fd5b5060601b6001600160601b0319166080526100b5565b600080546001600160a01b038381166001600160a01b0319831681178455604051919092169283917f8be0079c531659141344cd1fd0a4f28419497f9722a3daafe3b4186f6b6457e09190a35050565b6110b38061071d83390190565b60805160601c61064b6100d2600039600060e7015261064b6000f3fe608060405234801561001057600080fd5b506004361061004c5760003560e01c8063715018a6146100515780638da5cb5b1461005b578063f13e48691461009e578063f2fde38b146100b1575b600080fd5b6100596100c4565b005b60005473ffffffffffffffffffffffffffffffffffffffff165b60405173ffffffffffffffffffffffffffffffffffffffff909116815260200160405180910390f35b6100756100ac36600461053b565b6100d8565b6100596100bf36600461051a565b610262565b6100cc61031e565b6100d6600061039f565b565b60006100e261031e565b61010b7f0000000000000000000000000000000000000000000000000000000000000000610414565b8251909150156101bd5760208201516040517f0716c97000000000000000000000000000000000000000000000000000000000815273ffffffffffffffffffffffffffffffffffffffff87811660048301529182166024820152336044820152606481018690526084810185905290821690630716c9709060a401600060405180830381600087803b1580156101a057600080fd5b505af11580156101b4573d6000803e3d6000fd5b5050505061025a565b6040517f0716c97000000000000000000000000000000000000000000000000000000000815273ffffffffffffffffffffffffffffffffffffffff8681166004830152600060248301523360448301526064820186905260848201859052821690630716c9709060a401600060405180830381600087803b15801561024157600080fd5b505af1158015610255573d6000803e3d6000fd5b505050505b949350505050565b61026a61031e565b73ffffffffffffffffffffffffffffffffffffffff8116610312576040517f08c379a000000000000000000000000000000000000000000000000000000000815260206004820152602660248201527f4f776e61626c653a206e6577206f776e657220697320746865207a65726f206160448201527f646472657373000000000000000000000000000000000000000000000000000060648201526084015b60405180910390fd5b61031b8161039f565b50565b60005473ffffffffffffffffffffffffffffffffffffffff1633146100d6576040517f08c379a000000000000000000000000000000000000000000000000000000000815260206004820181905260248201527f4f776e61626c653a2063616c6c6572206973206e6f7420746865206f776e65726044820152606401610309565b6000805473ffffffffffffffffffffffffffffffffffffffff8381167fffffffffffffffffffffffff0000000000000000000000000000000000000000831681178455604051919092169283917f8be0079c531659141344cd1fd0a4f28419497f9722a3daafe3b4186f6b6457e09190a35050565b60006040517f3d602d80600a3d3981f3363d3d373d3d3d363d7300000000000000000000000081528260601b60148201527f5af43d82803e903d91602b57fd5bf3000000000000000000000000000000000060288201526037816000f091505073ffffffffffffffffffffffffffffffffffffffff81166104f1576040517f08c379a000000000000000000000000000000000000000000000000000000000815260206004820152601660248201527f455243313136373a20637265617465206661696c6564000000000000000000006044820152606401610309565b919050565b803573ffffffffffffffffffffffffffffffffffffffff811681146104f157600080fd5b60006020828403121561052b578081fd5b610534826104f6565b9392505050565b60008060008084860360a0811215610551578384fd5b61055a866104f6565b9450602086013593506040860135925060407fffffffffffffffffffffffffffffffffffffffffffffffffffffffffffffffa082011215610599578182fd5b506040516040810181811067ffffffffffffffff821117156105e2577f4e487b710000000000000000000000000000000000000000000000000000000083526041600452602483fd5b604052606086013580151581146105f7578283fd5b8152610605608087016104f6565b602082015293969295509093505056fea26469706673582212209cae713e6e71d5146b1d79db56af9ef9c14d35d825af049556910139223e676d64736f6c63430008040033608060405234801561001057600080fd5b5061003c7f241ecf16d79d0f8dbfb92cbc07fe17840425976cf0667f022fe9877caa831b086000610041565b61008c565b600082815260208190526040808220600101805490849055905190918391839186917fbd79b86ffe0ab8e8776151514217cd7cacd52c909f66475c3af44e129f0b00ff9190a4505050565b6110188061009b6000396000f3fe608060405234801561001057600080fd5b50600436106100df5760003560e01c80638bb254191161008c578063d294ffe011610066578063d294ffe0146101f4578063d547741f14610207578063ec87621c1461021a578063fec331f21461024157600080fd5b80638bb254191461019357806391d14854146101a8578063a217fddf146101ec57600080fd5b80632f2ff15d116100bd5780632f2ff15d1461015257806336568abe146101655780635a9b0b891461017857600080fd5b806301ffc9a7146100e45780630716c9701461010c578063248a9ca314610121575b600080fd5b6100f76100f2366004610d8d565b610268565b60405190151581526020015b60405180910390f35b61011f61011a366004610cf6565b610301565b005b61014461012f366004610d4a565b60009081526020819052604090206001015490565b604051908152602001610103565b61011f610160366004610d62565b61048f565b61011f610173366004610d62565b6104b9565b60015460025460408051928352602083019190915201610103565b61019b61056c565b6040516101039190610e4e565b6100f76101b6366004610d62565b60009182526020828152604080842073ffffffffffffffffffffffffffffffffffffffff93909316845291905290205460ff1690565b610144600081565b61011f610202366004610cdc565b610606565b61011f610215366004610d62565b6106a8565b6101447f241ecf16d79d0f8dbfb92cbc07fe17840425976cf0667f022fe9877caa831b0881565b6101447f0af1dac7dea2fd7f7738119cec7df099dfad49aa9d2e7d17ba6b60f63ae7411f81565b60007fffffffff0000000000000000000000000000000000000000000000000000000082167f7965db0b0000000000000000000000000000000000000000000000000000000014806102fb57507f01ffc9a7000000000000000000000000000000000000000000000000000000007fffffffff000000000000000000000000000000000000000000000000000000008316145b92915050565b60045460ff1615610373576040517f08c379a000000000000000000000000000000000000000000000000000000000815260206004820152601360248201527f416c726561647920696e697469616c697a65640000000000000000000000000060448201526064015b60405180910390fd5b61039d7f0af1dac7dea2fd7f7738119cec7df099dfad49aa9d2e7d17ba6b60f63ae7411f866106cd565b6103c77f241ecf16d79d0f8dbfb92cbc07fe17840425976cf0667f022fe9877caa831b08846106cd565b6104117f241ecf16d79d0f8dbfb92cbc07fe17840425976cf0667f022fe9877caa831b087f0af1dac7dea2fd7f7738119cec7df099dfad49aa9d2e7d17ba6b60f63ae7411f6106d7565b73ffffffffffffffffffffffffffffffffffffffff841615610457576104577f241ecf16d79d0f8dbfb92cbc07fe17840425976cf0667f022fe9877caa831b08856106cd565b6001918255600255600480547fffffffffffffffffffffffffffffffffffffffffffffffffffffffffffffff00169091179055505050565b6000828152602081905260409020600101546104aa81610722565b6104b4838361072f565b505050565b73ffffffffffffffffffffffffffffffffffffffff8116331461055e576040517f08c379a000000000000000000000000000000000000000000000000000000000815260206004820152602f60248201527f416363657373436f6e74726f6c3a2063616e206f6e6c792072656e6f756e636560448201527f20726f6c657320666f722073656c660000000000000000000000000000000000606482015260840161036a565b610568828261081f565b5050565b60607f0af1dac7dea2fd7f7738119cec7df099dfad49aa9d2e7d17ba6b60f63ae7411f61059881610722565b60038054806020026020016040519081016040528092919081815260200182805480156105fb57602002820191906000526020600020905b815473ffffffffffffffffffffffffffffffffffffffff1681526001909101906020018083116105d0575b505050505091505090565b7f241ecf16d79d0f8dbfb92cbc07fe17840425976cf0667f022fe9877caa831b0861063081610722565b50600380546001810182556000919091527fc2575a0e9e593c00f959f8c92f12db2869c3395a3b0502d05e2516446f71f85b0180547fffffffffffffffffffffffff00000000000000000000000000000000000000001673ffffffffffffffffffffffffffffffffffffffff92909216919091179055565b6000828152602081905260409020600101546106c381610722565b6104b4838361081f565b610568828261072f565b600082815260208190526040808220600101805490849055905190918391839186917fbd79b86ffe0ab8e8776151514217cd7cacd52c909f66475c3af44e129f0b00ff9190a4505050565b61072c81336108d6565b50565b60008281526020818152604080832073ffffffffffffffffffffffffffffffffffffffff8516845290915290205460ff166105685760008281526020818152604080832073ffffffffffffffffffffffffffffffffffffffff85168452909152902080547fffffffffffffffffffffffffffffffffffffffffffffffffffffffffffffff001660011790556107c13390565b73ffffffffffffffffffffffffffffffffffffffff168173ffffffffffffffffffffffffffffffffffffffff16837f2f8788117e7eff1d82e926ec794901d17c78024a50270940304540a733656f0d60405160405180910390a45050565b60008281526020818152604080832073ffffffffffffffffffffffffffffffffffffffff8516845290915290205460ff16156105685760008281526020818152604080832073ffffffffffffffffffffffffffffffffffffffff8516808552925280832080547fffffffffffffffffffffffffffffffffffffffffffffffffffffffffffffff0016905551339285917ff6391f5c32d9c69d2a47ea670b442974b53935d1edc7fd64eb21e047a839171b9190a45050565b60008281526020818152604080832073ffffffffffffffffffffffffffffffffffffffff8516845290915290205460ff166105685761092c8173ffffffffffffffffffffffffffffffffffffffff1660146109a6565b6109378360206109a6565b604051602001610948929190610dcd565b604080517fffffffffffffffffffffffffffffffffffffffffffffffffffffffffffffffe0818403018152908290527f08c379a000000000000000000000000000000000000000000000000000000000825261036a91600401610ea8565b606060006109b5836002610f11565b6109c0906002610ef9565b67ffffffffffffffff8111156109ff577f4e487b7100000000000000000000000000000000000000000000000000000000600052604160045260246000fd5b6040519080825280601f01601f191660200182016040528015610a29576020820181803683370190505b5090507f300000000000000000000000000000000000000000000000000000000000000081600081518110610a87577f4e487b7100000000000000000000000000000000000000000000000000000000600052603260045260246000fd5b60200101907effffffffffffffffffffffffffffffffffffffffffffffffffffffffffffff1916908160001a9053507f780000000000000000000000000000000000000000000000000000000000000081600181518110610b11577f4e487b7100000000000000000000000000000000000000000000000000000000600052603260045260246000fd5b60200101907effffffffffffffffffffffffffffffffffffffffffffffffffffffffffffff1916908160001a9053506000610b4d846002610f11565b610b58906001610ef9565b90505b6001811115610c43577f303132333435363738396162636465660000000000000000000000000000000085600f1660108110610bc0577f4e487b7100000000000000000000000000000000000000000000000000000000600052603260045260246000fd5b1a60f81b828281518110610bfd577f4e487b7100000000000000000000000000000000000000000000000000000000600052603260045260246000fd5b60200101907effffffffffffffffffffffffffffffffffffffffffffffffffffffffffffff1916908160001a90535060049490941c93610c3c81610f7e565b9050610b5b565b508315610cac576040517f08c379a000000000000000000000000000000000000000000000000000000000815260206004820181905260248201527f537472696e67733a20686578206c656e67746820696e73756666696369656e74604482015260640161036a565b9392505050565b803573ffffffffffffffffffffffffffffffffffffffff81168114610cd757600080fd5b919050565b600060208284031215610ced578081fd5b610cac82610cb3565b600080600080600060a08688031215610d0d578081fd5b610d1686610cb3565b9450610d2460208701610cb3565b9350610d3260408701610cb3565b94979396509394606081013594506080013592915050565b600060208284031215610d5b578081fd5b5035919050565b60008060408385031215610d74578182fd5b82359150610d8460208401610cb3565b90509250929050565b600060208284031215610d9e578081fd5b81357fffffffff0000000000000000000000000000000000000000000000000000000081168114610cac578182fd5b7f416363657373436f6e74726f6c3a206163636f756e7420000000000000000000815260008351610e05816017850160208801610f4e565b7f206973206d697373696e6720726f6c65200000000000000000000000000000006017918401918201528351610e42816028840160208801610f4e565b01602801949350505050565b6020808252825182820181905260009190848201906040850190845b81811015610e9c57835173ffffffffffffffffffffffffffffffffffffffff1683529284019291840191600101610e6a565b50909695505050505050565b6020815260008251806020840152610ec7816040850160208701610f4e565b601f017fffffffffffffffffffffffffffffffffffffffffffffffffffffffffffffffe0169190910160400192915050565b60008219821115610f0c57610f0c610fb3565b500190565b6000817fffffffffffffffffffffffffffffffffffffffffffffffffffffffffffffffff0483118215151615610f4957610f49610fb3565b500290565b60005b83811015610f69578181015183820152602001610f51565b83811115610f78576000848401525b50505050565b600081610f8d57610f8d610fb3565b507fffffffffffffffffffffffffffffffffffffffffffffffffffffffffffffffff0190565b7f4e487b7100000000000000000000000000000000000000000000000000000000600052601160045260246000fdfea264697066735822122009ec8b15e3f884316906bc7d3d7e46d4229af2b88626a3110d39246eae2a670764736f6c6343000804003360a060405234801561001057600080fd5b5061001a33610058565b604051610026906100a8565b604051809103906000f080158015610042573d6000803e3d6000fd5b5060601b6001600160601b0319166080526100b5565b600080546001600160a01b038381166001600160a01b0319831681178455604051919092169283917f8be0079c531659141344cd1fd0a4f28419497f9722a3daafe3b4186f6b6457e09190a35050565b61300a80610b5b83390190565b60805160601c610a896100d2600039600060e70152610a896000f3fe608060405234801561001057600080fd5b506004361061004c5760003560e01c8063715018a6146100515780638da5cb5b1461005b578063b4a9ebf31461009e578063f2fde38b146100b1575b600080fd5b6100596100c4565b005b60005473ffffffffffffffffffffffffffffffffffffffff165b60405173ffffffffffffffffffffffffffffffffffffffff909116815260200160405180910390f35b6100756100ac36600461071e565b6100d8565b6100596100bf3660046106fd565b61024f565b6100cc61030b565b6100d6600061038c565b565b60006100e261030b565b61010b7f0000000000000000000000000000000000000000000000000000000000000000610401565b8251909150156101b05760208201516040517f16fac09c00000000000000000000000000000000000000000000000000000000815273ffffffffffffffffffffffffffffffffffffffff8316916316fac09c916101799133918d91908d908d908d908d908d90600401610844565b600060405180830381600087803b15801561019357600080fd5b505af11580156101a7573d6000803e3d6000fd5b50505050610244565b6040517f16fac09c00000000000000000000000000000000000000000000000000000000815273ffffffffffffffffffffffffffffffffffffffff8216906316fac09c906102119033908c906000908d908d908d908d908d90600401610844565b600060405180830381600087803b15801561022b57600080fd5b505af115801561023f573d6000803e3d6000fd5b505050505b979650505050505050565b61025761030b565b73ffffffffffffffffffffffffffffffffffffffff81166102ff576040517f08c379a000000000000000000000000000000000000000000000000000000000815260206004820152602660248201527f4f776e61626c653a206e6577206f776e657220697320746865207a65726f206160448201527f646472657373000000000000000000000000000000000000000000000000000060648201526084015b60405180910390fd5b6103088161038c565b50565b60005473ffffffffffffffffffffffffffffffffffffffff1633146100d6576040517f08c379a000000000000000000000000000000000000000000000000000000000815260206004820181905260248201527f4f776e61626c653a2063616c6c6572206973206e6f7420746865206f776e657260448201526064016102f6565b6000805473ffffffffffffffffffffffffffffffffffffffff8381167fffffffffffffffffffffffff0000000000000000000000000000000000000000831681178455604051919092169283917f8be0079c531659141344cd1fd0a4f28419497f9722a3daafe3b4186f6b6457e09190a35050565b60006040517f3d602d80600a3d3981f3363d3d373d3d3d363d7300000000000000000000000081528260601b60148201527f5af43d82803e903d91602b57fd5bf3000000000000000000000000000000000060288201526037816000f091505073ffffffffffffffffffffffffffffffffffffffff81166104de576040517f08c379a000000000000000000000000000000000000000000000000000000000815260206004820152601660248201527f455243313136373a20637265617465206661696c65640000000000000000000060448201526064016102f6565b919050565b803573ffffffffffffffffffffffffffffffffffffffff811681146104de57600080fd5b600082601f830112610517578081fd5b8135602067ffffffffffffffff8083111561053457610534610a24565b8260051b6105438382016109d5565b8481528381019087850183890186018a101561055d578788fd5b8793505b8684101561059a57803585811115610577578889fd5b6105858b88838d01016105b7565b84525060019390930192918501918501610561565b5098975050505050505050565b803580151581146104de57600080fd5b600082601f8301126105c7578081fd5b813567ffffffffffffffff8111156105e1576105e1610a24565b61061260207fffffffffffffffffffffffffffffffffffffffffffffffffffffffffffffffe0601f840116016109d5565b818152846020838601011115610626578283fd5b816020850160208301379081016020019190915292915050565b600060608284031215610651578081fd5b6040516060810181811067ffffffffffffffff8211171561067457610674610a24565b604052905080610683836105a7565b8152610691602084016105a7565b60208201526106a2604084016105a7565b60408201525092915050565b6000604082840312156106bf578081fd5b6106c76109ac565b90506106d2826105a7565b81526106e0602083016104e3565b602082015292915050565b803561ffff811681146104de57600080fd5b60006020828403121561070e578081fd5b610717826104e3565b9392505050565b600080600080600080600087890361018081121561073a578384fd5b610743896104e3565b975060407fffffffffffffffffffffffffffffffffffffffffffffffffffffffffffffffe082011215610774578384fd5b61077c6109ac565b60208a0135815260408a01356020820152809750506060890135955060407fffffffffffffffffffffffffffffffffffffffffffffffffffffffffffffff80820112156107c7578384fd5b506107d06109ac565b6107dc60808a016106eb565b81526107ea60a08a016106eb565b6020820152935060c088013567ffffffffffffffff81111561080a578384fd5b6108168a828b01610507565b9350506108268960e08a01610640565b9150610836896101408a016106ae565b905092959891949750929550565b73ffffffffffffffffffffffffffffffffffffffff898116825288811660208084019190915290881660408301528651606083015286810151608083015260a08201869052845161ffff90811660c0840152858201511660e0830152610180610100830181905284519083018190526000916101a080850192600581901b860190910191878101855b8381101561096e577ffffffffffffffffffffffffffffffffffffffffffffffffffffffffffffffe6088860301865281518051808752885b81811015610920578281018601518882018701528501610905565b81811115610930578986838a0101525b5096840196601f017fffffffffffffffffffffffffffffffffffffffffffffffffffffffffffffffe0169590950183019450908201906001016108cd565b50508651151561012087015250506020850151151561014085015260408501511515610160850152915061099f9050565b9998505050505050505050565b6040805190810167ffffffffffffffff811182821017156109cf576109cf610a24565b60405290565b604051601f82017fffffffffffffffffffffffffffffffffffffffffffffffffffffffffffffffe016810167ffffffffffffffff81118282101715610a1c57610a1c610a24565b604052919050565b7f4e487b7100000000000000000000000000000000000000000000000000000000600052604160045260246000fdfea2646970667358221220ec902ba26643e93c34a6b2a37767814e6d2a1467fa6d42d727804307e3982e6364736f6c6343000804003360806040523480156200001157600080fd5b506200002e60008051602062002fea8339815191526000620000e5565b620000697f241ecf16d79d0f8dbfb92cbc07fe17840425976cf0667f022fe9877caa831b0860008051602062002fea833981519152620000e5565b620000a47f0af1dac7dea2fd7f7738119cec7df099dfad49aa9d2e7d17ba6b60f63ae7411f60008051602062002fea833981519152620000e5565b620000df7faf31c50b4aab7af0193b792816047837f36c88a23bbb4d0e3581c88cb4bf86ab60008051602062002fea833981519152620000e5565b62000130565b600082815260208190526040808220600101805490849055905190918391839186917fbd79b86ffe0ab8e8776151514217cd7cacd52c909f66475c3af44e129f0b00ff9190a4505050565b612eaa80620001406000396000f3fe608060405234801561001057600080fd5b50600436106101e55760003560e01c8063689aa6551161010f578063a217fddf116100a2578063d547741f11610071578063d547741f14610487578063e3a5a4de1461049a578063ec87621c146104ad578063fec331f2146104d457600080fd5b8063a217fddf14610432578063ac5cb97d1461043a578063ca15c87314610461578063d294ffe01461047457600080fd5b80639010d07c116100de5780639010d07c1461038e57806391d14854146103c65780639aca66f81461040a5780639f0a5c151461041d57600080fd5b8063689aa655146103425780636dd902d214610355578063793de5f01461036857806385e685311461037b57600080fd5b80632b8cc3461161018757806351e66efb1161015657806351e66efb146102f95780635a9b0b891461030c5780635ac801fe14610327578063602792b01461033a57600080fd5b80632b8cc346146102ad5780632f2ff15d146102c057806336568abe146102d357806338a6a738146102e657600080fd5b8063101d6416116101c3578063101d64161461025157806316fac09c1461026457806323fcceed14610277578063248a9ca31461028a57600080fd5b806301ffc9a7146101ea578063080121da146102125780630c9a8ecf14610247575b600080fd5b6101fd6101f8366004612987565b6104fb565b60405190151581526020015b60405180910390f35b6102397faf31c50b4aab7af0193b792816047837f36c88a23bbb4d0e3581c88cb4bf86ab81565b604051908152602001610209565b61024f610557565b005b61024f61025f3660046129e2565b61062f565b61024f6102723660046127fd565b610680565b61024f6102853660046128e8565b6109f1565b610239610298366004612923565b60009081526020819052604090206001015490565b61024f6102bb3660046127e3565b610a10565b61024f6102ce36600461293b565b610cda565b61024f6102e136600461293b565b610d04565b61024f6102f43660046129c7565b610db3565b61024f6103073660046127e3565b610e67565b610314610fcf565b6040516102099796959493929190612b3e565b61024f610335366004612923565b61134e565b61024f61135b565b61024f610350366004612923565b61149e565b61024f610363366004612923565b6114ab565b6101fd6103763660046127e3565b6114b8565b61024f6103893660046127e3565b611514565b6103a161039c366004612966565b611621565b60405173ffffffffffffffffffffffffffffffffffffffff9091168152602001610209565b6101fd6103d436600461293b565b60009182526020828152604080842073ffffffffffffffffffffffffffffffffffffffff93909316845291905290205460ff1690565b61024f6104183660046127e3565b611640565b61042561177a565b6040516102099190612b18565b610239600081565b6102397f72606200fac42b7dc86b75901d61ecfab2a4a1a6eded478b97a428094891abed81565b61023961046f366004612923565b6117f1565b61024f6104823660046127e3565b611808565b61024f61049536600461293b565b6118aa565b61024f6104a83660046127e3565b6118cf565b6102397f241ecf16d79d0f8dbfb92cbc07fe17840425976cf0667f022fe9877caa831b0881565b6102397f0af1dac7dea2fd7f7738119cec7df099dfad49aa9d2e7d17ba6b60f63ae7411f81565b60007fffffffff0000000000000000000000000000000000000000000000000000000082167f5a05180f000000000000000000000000000000000000000000000000000000001480610551575061055182611a09565b92915050565b3360009081527fdf1cb6f79b8687a60e91aced08290a53cb47a179b80c0c7c836d1c923c9a5647602052604090205460ff16806105c257503360009081527f01269c68c28a67305f4a2d47532888d6c961251cfcb06c9cdb6066d32b24b320602052604090205460ff165b61062d576040517f08c379a000000000000000000000000000000000000000000000000000000000815260206004820152601060248201527f4e6565642072656164206163636573730000000000000000000000000000000060448201526064015b60405180910390fd5b565b61063761135b565b80516005805460209093015161ffff90811662010000027fffffffffffffffffffffffffffffffffffffffffffffffffffffffff00000000909416921691909117919091179055565b600554670100000000000000900460ff16156106f8576040517f08c379a000000000000000000000000000000000000000000000000000000000815260206004820152601360248201527f416c726561647920696e697469616c697a6564000000000000000000000000006044820152606401610624565b6107237f72606200fac42b7dc86b75901d61ecfab2a4a1a6eded478b97a428094891abed6000611aa0565b61076d7f241ecf16d79d0f8dbfb92cbc07fe17840425976cf0667f022fe9877caa831b087f72606200fac42b7dc86b75901d61ecfab2a4a1a6eded478b97a428094891abed611aa0565b6107b77f0af1dac7dea2fd7f7738119cec7df099dfad49aa9d2e7d17ba6b60f63ae7411f7f72606200fac42b7dc86b75901d61ecfab2a4a1a6eded478b97a428094891abed611aa0565b6108017faf31c50b4aab7af0193b792816047837f36c88a23bbb4d0e3581c88cb4bf86ab7f72606200fac42b7dc86b75901d61ecfab2a4a1a6eded478b97a428094891abed611aa0565b61080c600088611aeb565b6108367f72606200fac42b7dc86b75901d61ecfab2a4a1a6eded478b97a428094891abed88611aeb565b6108607f241ecf16d79d0f8dbfb92cbc07fe17840425976cf0667f022fe9877caa831b0889611aeb565b73ffffffffffffffffffffffffffffffffffffffff8616156108a6576108a67faf31c50b4aab7af0193b792816047837f36c88a23bbb4d0e3581c88cb4bf86ab87611aeb565b845160025560208086015160035560048590558351600580548684015161ffff90811662010000027fffffffffffffffffffffffffffffffffffffffffffffffffffffffff0000000090921693169290921791909117905582516109109160069190850190612460565b5080516005805460208401516040909401517fffffffffffffffffffffffffffffffffffffffffffffffff00ffffffffffffff901515660100000000000002167fffffffffffffffffffffffffffffffffffffffffffffffff0000ffffffffffff94151565010000000000027fffffffffffffffffffffffffffffffffffffffffffffffffffff00ffffffffff94151564010000000002949094167fffffffffffffffffffffffffffffffffffffffffffffffffffff0000ffffffff9092169190911792909217929092161767010000000000000017905550505050505050565b6109f961135b565b8051610a0c906006906020840190612460565b5050565b610a18611af5565b60008060005b600854811015610abf578373ffffffffffffffffffffffffffffffffffffffff1660088281548110610a79577f4e487b7100000000000000000000000000000000000000000000000000000000600052603260045260246000fd5b60009182526020909120015473ffffffffffffffffffffffffffffffffffffffff161415610aad5760019250809150610abf565b80610ab781612ddd565b915050610a1e565b50600182151514610b2c576040517f08c379a000000000000000000000000000000000000000000000000000000000815260206004820152601260248201527f4e6f207265717565737473207265636f726400000000000000000000000000006044820152606401610624565b610b567f0af1dac7dea2fd7f7738119cec7df099dfad49aa9d2e7d17ba6b60f63ae7411f84610cda565b60088054610b6690600190612d0d565b81548110610b9d577f4e487b7100000000000000000000000000000000000000000000000000000000600052603260045260246000fd5b6000918252602090912001546008805473ffffffffffffffffffffffffffffffffffffffff9092169183908110610bfd577f4e487b7100000000000000000000000000000000000000000000000000000000600052603260045260246000fd5b9060005260206000200160006101000a81548173ffffffffffffffffffffffffffffffffffffffff021916908373ffffffffffffffffffffffffffffffffffffffff1602179055506008805480610c7d577f4e487b7100000000000000000000000000000000000000000000000000000000600052603160045260246000fd5b60008281526020902081017fffffffffffffffffffffffffffffffffffffffffffffffffffffffffffffffff90810180547fffffffffffffffffffffffff0000000000000000000000000000000000000000169055019055505050565b600082815260208190526040902060010154610cf581611b8d565b610cff8383611b9a565b505050565b73ffffffffffffffffffffffffffffffffffffffff81163314610da9576040517f08c379a000000000000000000000000000000000000000000000000000000000815260206004820152602f60248201527f416363657373436f6e74726f6c3a2063616e206f6e6c792072656e6f756e636560448201527f20726f6c657320666f722073656c6600000000000000000000000000000000006064820152608401610624565b610a0c8282611bbc565b610dbb61135b565b805160058054602084015160409094015115156601000000000000027fffffffffffffffffffffffffffffffffffffffffffffffffff00ffffffffffff94151565010000000000027fffffffffffffffffffffffffffffffffffffffffffffffffffff00ffffffffff94151564010000000002949094167fffffffffffffffffffffffffffffffffffffffffffffffffffff0000ffffffff909216919091179290921792909216179055565b7faf31c50b4aab7af0193b792816047837f36c88a23bbb4d0e3581c88cb4bf86ab610e9181611b8d565b6000610e9c83611bde565b6007549091508114610cff5760078054610eb890600190612d0d565b81548110610eef577f4e487b7100000000000000000000000000000000000000000000000000000000600052603260045260246000fd5b6000918252602090912001546007805473ffffffffffffffffffffffffffffffffffffffff9092169183908110610f4f577f4e487b7100000000000000000000000000000000000000000000000000000000600052603260045260246000fd5b9060005260206000200160006101000a81548173ffffffffffffffffffffffffffffffffffffffff021916908373ffffffffffffffffffffffffffffffffffffffff1602179055506007805480610c7d577f4e487b7100000000000000000000000000000000000000000000000000000000600052603160045260246000fd5b60408051808201909152600080825260208201526040805180820190915260008082526020820181905290604080516060818101835260008083526020830181905292820192909252606080611023610557565b60006006805480602002602001604051908101604052809291908181526020016000905b828210156110f357838290600052602060002001805461106690612d89565b80601f016020809104026020016040519081016040528092919081815260200182805461109290612d89565b80156110df5780601f106110b4576101008083540402835291602001916110df565b820191906000526020600020905b8154815290600101906020018083116110c257829003601f168201915b505050505081526020019060010190611047565b505050509050600060078054905067ffffffffffffffff811115611140577f4e487b7100000000000000000000000000000000000000000000000000000000600052604160045260246000fd5b604051908082528060200260200182016040528015611169578160200160208202803683370190505b50905060005b815181101561124d57600781815481106111b2577f4e487b7100000000000000000000000000000000000000000000000000000000600052603260045260246000fd5b9060005260206000200160009054906101000a900473ffffffffffffffffffffffffffffffffffffffff16828281518110611216577f4e487b7100000000000000000000000000000000000000000000000000000000600052603260045260246000fd5b73ffffffffffffffffffffffffffffffffffffffff909216602092830291909101909101528061124581612ddd565b91505061116f565b5060408051808201825260025481526003546020808301919091526004548351808501855260055461ffff80821683526201000082041682850152855160608101875260ff640100000000830481161515825265010000000000830481161515828701526601000000000000909204909116151581870152600880548751818702810187019098528088529596939592948994929389939183919083018282801561132e57602002820191906000526020600020905b815473ffffffffffffffffffffffffffffffffffffffff168152600190910190602001808311611303575b505050505090509850985098509850985098509850505090919293949596565b611356611af5565b600255565b3360009081527fdf1cb6f79b8687a60e91aced08290a53cb47a179b80c0c7c836d1c923c9a5647602052604090205460ff16806113c657503360009081527f01269c68c28a67305f4a2d47532888d6c961251cfcb06c9cdb6066d32b24b320602052604090205460ff165b806113ff57503360009081527fe84508f2c7fa9c351146748b3025cb78b45df37d868e48c6a75102fecdeee645602052604090205460ff165b8061143857503360009081527f41c90bc1e97eee4405eb05513a260f423542caa5209bb2fbb701e6c3dd7921cd602052604090205460ff165b61062d576040517f08c379a000000000000000000000000000000000000000000000000000000000815260206004820152601160248201527f4e656564207772697465206163636573730000000000000000000000000000006044820152606401610624565b6114a6611af5565b600355565b6114b3611af5565b600455565b60006114c261135b565b73ffffffffffffffffffffffffffffffffffffffff821660009081527fdf1cb6f79b8687a60e91aced08290a53cb47a179b80c0c7c836d1c923c9a5647602052604090205460ff16610551565b919050565b61151c611af5565b73ffffffffffffffffffffffffffffffffffffffff811660009081526009602052604090205460ff166115ab576040517f08c379a000000000000000000000000000000000000000000000000000000000815260206004820152601060248201527f416363657373206e6f74206578697374000000000000000000000000000000006044820152606401610624565b6115d57f0af1dac7dea2fd7f7738119cec7df099dfad49aa9d2e7d17ba6b60f63ae7411f826118aa565b73ffffffffffffffffffffffffffffffffffffffff16600090815260096020526040902080547fffffffffffffffffffffffffffffffffffffffffffffffffffffffffffffff00169055565b60008281526001602052604081206116399083611c81565b9392505050565b73ffffffffffffffffffffffffffffffffffffffff811660009081526009602052604090205460ff16156116d0576040517f08c379a000000000000000000000000000000000000000000000000000000000815260206004820152601c60248201527f596f7520616c72656164792072657175657374656420616363657373000000006044820152606401610624565b6008805460018181019092557ff3f7a9fe364faab93b216da50a3214154f22a0a2b415b23a84c8169e8b636ee301805473ffffffffffffffffffffffffffffffffffffffff9093167fffffffffffffffffffffffff00000000000000000000000000000000000000009093168317905560009182526009602052604090912080547fffffffffffffffffffffffffffffffffffffffffffffffffffffffffffffff00169091179055565b6060611784611af5565b60088054806020026020016040519081016040528092919081815260200182805480156117e757602002820191906000526020600020905b815473ffffffffffffffffffffffffffffffffffffffff1681526001909101906020018083116117bc575b5050505050905090565b600081815260016020526040812061055190611c8d565b7faf31c50b4aab7af0193b792816047837f36c88a23bbb4d0e3581c88cb4bf86ab61183281611b8d565b50600780546001810182556000919091527fa66cc928b5edb82af9bd49922954155ab7b0942694bea4ce44661d9a8736c6880180547fffffffffffffffffffffffff00000000000000000000000000000000000000001673ffffffffffffffffffffffffffffffffffffffff92909216919091179055565b6000828152602081905260409020600101546118c581611b8d565b610cff8383611bbc565b73ffffffffffffffffffffffffffffffffffffffff81166000908152600a602052604090205460ff161561195f576040517f08c379a000000000000000000000000000000000000000000000000000000000815260206004820152601c60248201527f596f7520616c72656164792072657175657374656420616363657373000000006044820152606401610624565b6008805460018181019092557ff3f7a9fe364faab93b216da50a3214154f22a0a2b415b23a84c8169e8b636ee301805473ffffffffffffffffffffffffffffffffffffffff9093167fffffffffffffffffffffffff0000000000000000000000000000000000000000909316831790556000918252600a602052604090912080547fffffffffffffffffffffffffffffffffffffffffffffffffffffffffffffff00169091179055565b60007fffffffff0000000000000000000000000000000000000000000000000000000082167f7965db0b00000000000000000000000000000000000000000000000000000000148061055157507f01ffc9a7000000000000000000000000000000000000000000000000000000007fffffffff00000000000000000000000000000000000000000000000000000000831614610551565b600082815260208190526040808220600101805490849055905190918391839186917fbd79b86ffe0ab8e8776151514217cd7cacd52c909f66475c3af44e129f0b00ff9190a4505050565b610a0c8282611b9a565b3360009081527f01269c68c28a67305f4a2d47532888d6c961251cfcb06c9cdb6066d32b24b320602052604090205460ff1661062d576040517f08c379a000000000000000000000000000000000000000000000000000000000815260206004820152600b60248201527f4e6f742070617469656e740000000000000000000000000000000000000000006044820152606401610624565b611b978133611c97565b50565b611ba48282611d67565b6000828152600160205260409020610cff9082611e57565b611bc68282611e79565b6000828152600160205260409020610cff9082611f30565b600754600090815b81811015611c76578373ffffffffffffffffffffffffffffffffffffffff1660078281548110611c3f577f4e487b7100000000000000000000000000000000000000000000000000000000600052603260045260246000fd5b60009182526020909120015473ffffffffffffffffffffffffffffffffffffffff161415611c6e579392505050565b600101611be6565b505060075492915050565b60006116398383611f52565b6000610551825490565b60008281526020818152604080832073ffffffffffffffffffffffffffffffffffffffff8516845290915290205460ff16610a0c57611ced8173ffffffffffffffffffffffffffffffffffffffff166014611fa3565b611cf8836020611fa3565b604051602001611d09929190612a97565b604080517fffffffffffffffffffffffffffffffffffffffffffffffffffffffffffffffe0818403018152908290527f08c379a000000000000000000000000000000000000000000000000000000000825261062491600401612b2b565b60008281526020818152604080832073ffffffffffffffffffffffffffffffffffffffff8516845290915290205460ff16610a0c5760008281526020818152604080832073ffffffffffffffffffffffffffffffffffffffff85168452909152902080547fffffffffffffffffffffffffffffffffffffffffffffffffffffffffffffff00166001179055611df93390565b73ffffffffffffffffffffffffffffffffffffffff168173ffffffffffffffffffffffffffffffffffffffff16837f2f8788117e7eff1d82e926ec794901d17c78024a50270940304540a733656f0d60405160405180910390a45050565b60006116398373ffffffffffffffffffffffffffffffffffffffff84166122a9565b60008281526020818152604080832073ffffffffffffffffffffffffffffffffffffffff8516845290915290205460ff1615610a0c5760008281526020818152604080832073ffffffffffffffffffffffffffffffffffffffff8516808552925280832080547fffffffffffffffffffffffffffffffffffffffffffffffffffffffffffffff0016905551339285917ff6391f5c32d9c69d2a47ea670b442974b53935d1edc7fd64eb21e047a839171b9190a45050565b60006116398373ffffffffffffffffffffffffffffffffffffffff84166122f8565b6000826000018281548110611f90577f4e487b7100000000000000000000000000000000000000000000000000000000600052603260045260246000fd5b9060005260206000200154905092915050565b60606000611fb2836002612cd0565b611fbd906002612cb8565b67ffffffffffffffff811115611ffc577f4e487b7100000000000000000000000000000000000000000000000000000000600052604160045260246000fd5b6040519080825280601f01601f191660200182016040528015612026576020820181803683370190505b5090507f300000000000000000000000000000000000000000000000000000000000000081600081518110612084577f4e487b7100000000000000000000000000000000000000000000000000000000600052603260045260246000fd5b60200101907effffffffffffffffffffffffffffffffffffffffffffffffffffffffffffff1916908160001a9053507f78000000000000000000000000000000000000000000000000000000000000008160018151811061210e577f4e487b7100000000000000000000000000000000000000000000000000000000600052603260045260246000fd5b60200101907effffffffffffffffffffffffffffffffffffffffffffffffffffffffffffff1916908160001a905350600061214a846002612cd0565b612155906001612cb8565b90505b6001811115612240577f303132333435363738396162636465660000000000000000000000000000000085600f16601081106121bd577f4e487b7100000000000000000000000000000000000000000000000000000000600052603260045260246000fd5b1a60f81b8282815181106121fa577f4e487b7100000000000000000000000000000000000000000000000000000000600052603260045260246000fd5b60200101907effffffffffffffffffffffffffffffffffffffffffffffffffffffffffffff1916908160001a90535060049490941c9361223981612d54565b9050612158565b508315611639576040517f08c379a000000000000000000000000000000000000000000000000000000000815260206004820181905260248201527f537472696e67733a20686578206c656e67746820696e73756666696369656e746044820152606401610624565b60008181526001830160205260408120546122f057508154600181810184556000848152602080822090930184905584548482528286019093526040902091909155610551565b506000610551565b6000818152600183016020526040812054801561245657600061231c600183612d0d565b855490915060009061233090600190612d0d565b90508181146123e3576000866000018281548110612377577f4e487b7100000000000000000000000000000000000000000000000000000000600052603260045260246000fd5b90600052602060002001549050808760000184815481106123c1577f4e487b7100000000000000000000000000000000000000000000000000000000600052603260045260246000fd5b6000918252602080832090910192909255918252600188019052604090208390555b855486908061241b577f4e487b7100000000000000000000000000000000000000000000000000000000600052603160045260246000fd5b600190038181906000526020600020016000905590558560010160008681526020019081526020016000206000905560019350505050610551565b6000915050610551565b8280548282559060005260206000209081019282156124ad579160200282015b828111156124ad578251805161249d9184916020909101906124bd565b5091602001919060010190612480565b506124b992915061253d565b5090565b8280546124c990612d89565b90600052602060002090601f0160209004810192826124eb5760008555612531565b82601f1061250457805160ff1916838001178555612531565b82800160010185558215612531579182015b82811115612531578251825591602001919060010190612516565b506124b992915061255a565b808211156124b9576000612551828261256f565b5060010161253d565b5b808211156124b9576000815560010161255b565b50805461257b90612d89565b6000825580601f1061258b575050565b601f016020900490600052602060002090810190611b97919061255a565b803573ffffffffffffffffffffffffffffffffffffffff8116811461150f57600080fd5b600082601f8301126125dd578081fd5b8135602067ffffffffffffffff808311156125fa576125fa612e45565b8260051b612609838201612c69565b8481528381019087850183890186018a1015612623578788fd5b8793505b868410156126605780358581111561263d578889fd5b61264b8b88838d010161267d565b84525060019390930192918501918501612627565b5098975050505050505050565b8035801515811461150f57600080fd5b600082601f83011261268d578081fd5b813567ffffffffffffffff8111156126a7576126a7612e45565b6126d860207fffffffffffffffffffffffffffffffffffffffffffffffffffffffffffffffe0601f84011601612c69565b8181528460208386010111156126ec578283fd5b816020850160208301379081016020019190915292915050565b600060608284031215612717578081fd5b6040516060810181811067ffffffffffffffff8211171561273a5761273a612e45565b6040529050806127498361266d565b81526127576020840161266d565b60208201526127686040840161266d565b60408201525092915050565b600060408284031215612785578081fd5b6040516040810181811067ffffffffffffffff821117156127a8576127a8612e45565b6040529050806127b7836127d1565b81526127c5602084016127d1565b60208201525092915050565b803561ffff8116811461150f57600080fd5b6000602082840312156127f4578081fd5b611639826125a9565b600080600080600080600080888a0361018081121561281a578485fd5b6128238a6125a9565b985061283160208b016125a9565b975061283f60408b016125a9565b965060407fffffffffffffffffffffffffffffffffffffffffffffffffffffffffffffffa082011215612870578485fd5b50612879612c40565b60608a0135815260808a01356020820152945060a089013593506128a08a60c08b01612774565b925061010089013567ffffffffffffffff8111156128bc578283fd5b6128c88b828c016125cd565b9250506128d98a6101208b01612706565b90509295985092959890939650565b6000602082840312156128f9578081fd5b813567ffffffffffffffff81111561290f578182fd5b61291b848285016125cd565b949350505050565b600060208284031215612934578081fd5b5035919050565b6000806040838503121561294d578182fd5b8235915061295d602084016125a9565b90509250929050565b60008060408385031215612978578182fd5b50508035926020909101359150565b600060208284031215612998578081fd5b81357fffffffff0000000000000000000000000000000000000000000000000000000081168114611639578182fd5b6000606082840312156129d8578081fd5b6116398383612706565b6000604082840312156129f3578081fd5b6116398383612774565b6000815180845260208085019450808401835b83811015612a4257815173ffffffffffffffffffffffffffffffffffffffff1687529582019590820190600101612a10565b509495945050505050565b60008151808452612a65816020860160208601612d24565b601f017fffffffffffffffffffffffffffffffffffffffffffffffffffffffffffffffe0169290920160200192915050565b7f416363657373436f6e74726f6c3a206163636f756e7420000000000000000000815260008351612acf816017850160208801612d24565b7f206973206d697373696e6720726f6c65200000000000000000000000000000006017918401918201528351612b0c816028840160208801612d24565b01602801949350505050565b60208152600061163960208301846129fd565b6020815260006116396020830184612a4d565b875181526020808901518183015260408201889052865161ffff90811660608401528782015116608083015261016060a08301819052865190830181905260009161018080850192600581901b86019091019190898201855b82811015612be3577ffffffffffffffffffffffffffffffffffffffffffffffffffffffffffffffe80888603018652612bd1858351612a4d565b95840195945090830190600101612b97565b50508851151560c087015250506020870151151560e085015260408701511515610100850152838103610120850152612c1c81876129fd565b915050828103610140840152612c3281856129fd565b9a9950505050505050505050565b6040805190810167ffffffffffffffff81118282101715612c6357612c63612e45565b60405290565b604051601f82017fffffffffffffffffffffffffffffffffffffffffffffffffffffffffffffffe016810167ffffffffffffffff81118282101715612cb057612cb0612e45565b604052919050565b60008219821115612ccb57612ccb612e16565b500190565b6000817fffffffffffffffffffffffffffffffffffffffffffffffffffffffffffffffff0483118215151615612d0857612d08612e16565b500290565b600082821015612d1f57612d1f612e16565b500390565b60005b83811015612d3f578181015183820152602001612d27565b83811115612d4e576000848401525b50505050565b600081612d6357612d63612e16565b507fffffffffffffffffffffffffffffffffffffffffffffffffffffffffffffffff0190565b600181811c90821680612d9d57607f821691505b60208210811415612dd7577f4e487b7100000000000000000000000000000000000000000000000000000000600052602260045260246000fd5b50919050565b60007fffffffffffffffffffffffffffffffffffffffffffffffffffffffffffffffff821415612e0f57612e0f612e16565b5060010190565b7f4e487b7100000000000000000000000000000000000000000000000000000000600052601160045260246000fd5b7f4e487b7100000000000000000000000000000000000000000000000000000000600052604160045260246000fdfea26469706673582212202281abaa3dbcbc63cf8a910a489195beb60ebf354774ef69fbbb26c07482adf164736f6c6343000804003372606200fac42b7dc86b75901d61ecfab2a4a1a6eded478b97a428094891abede5a0b4d50f56047f84728557fedbda92f956391bc9d5c762e8461996dd8e7ad7",
  "immutableReferences": {},
  "source": "// SPDX-License-Identifier: MIT\npragma solidity ^0.8.4;\n\nimport \"@openzeppelin/contracts/access/AccessControl.sol\";\nimport \"@openzeppelin/contracts/proxy/Clones.sol\";\nimport \"@openzeppelin/contracts/access/Ownable.sol\";\nimport \"./DoctorFactory.sol\";\nimport \"./PatientFactory.sol\";\n\ncontract Manager is AccessControl {\n    bytes32 public constant ADMINISTRATOR_ROLE =\n        keccak256(\"ADMINISTRATOR_ROLE\");\n    bytes32 public constant APPLICATION_ROLE = keccak256(\"APPLICATION_ROLE\");\n    mapping(address => address) private doctors;\n    mapping(address => address) private patients;\n    DoctorFactory private doctorFactory = new DoctorFactory();\n    PatientFactory private patientFactory = new PatientFactory();\n\n    constructor() {\n        _setupRole(ADMINISTRATOR_ROLE, msg.sender);\n        _setRoleAdmin(APPLICATION_ROLE, ADMINISTRATOR_ROLE);\n    }\n\n    function getPatient(address owner_) public view returns (address patient) {\n        patient = patients[owner_];\n    }\n\n    function getDoctor(address owner_) public view returns (address doctor) {\n        doctor = doctors[owner_];\n    }\n\n    function addDoctor(\n        address owner_,\n        bytes32 name_,\n        bytes32 affiliate_,\n        bool fromApp_\n    ) public {\n        require(\n            hasRole(ADMINISTRATOR_ROLE, msg.sender) ||\n                hasRole(APPLICATION_ROLE, msg.sender),\n            \"Access denied\"\n        );\n        require(doctors[owner_] == address(0), \"Profile existed\");\n        doctors[owner_] = doctorFactory.createDoctor(\n            owner_,\n            name_,\n            affiliate_,\n            FromAppOption(fromApp_, msg.sender)\n        );\n    }\n\n    function addPatient(\n        Bytes32Pair memory nameGender_,\n        uint256 dob_,\n        SmallUintPair memory physique_,\n        string[] memory allergy_,\n        BoolTriple memory habits_,\n        FromAppOption memory option_\n    ) external {\n        require(patients[option_.addr] == address(0), \"Profile existed\");\n        patients[option_.addr] = patientFactory.createPatient(\n            option_.addr,\n            nameGender_,\n            dob_,\n            physique_,\n            allergy_,\n            habits_,\n            FromAppOption(option_.fromApp, msg.sender)\n        );\n    }\n\n    function doctorRequest(address patient_) external {\n        require(\n            doctors[msg.sender] != address(0) &&\n                patients[patient_] != address(0),\n            \"Doctor or patient is not a user\"\n        );\n        Patient patient = Patient(patients[patient_]);\n        patient.doctorRequestAccess(msg.sender);\n    }\n\n    function getDoctorInfo(\n        address[] memory doctors_\n    ) external view returns (DoctorStruct[] memory docInfo) {\n        docInfo = new DoctorStruct[](doctors_.length);\n        for (uint256 i = 0; i < doctors_.length; i++) {\n            if (doctors[doctors_[i]] == address(0)) {\n                docInfo[i] = DoctorStruct(bytes32(0), bytes32(0));\n            } else {\n                (bytes32 name, bytes32 affiliate) = Doctor(doctors[doctors_[i]])\n                    .getInfo();\n                docInfo[i] = DoctorStruct(name, affiliate);\n            }\n        }\n    }\n\n    function applicationRequest(address patient_) external {\n        require(patients[patient_] != address(0), \"Patient is not a user\");\n        Patient patient = Patient(patients[patient_]);\n        patient.appRequestAccess(msg.sender);\n    }\n}\n",
  "sourcePath": "/home/leslie/Documents/GitHub/svelte-blockchain-template-sveltekit/contracts/Manager.sol",
  "compiler": {
    "name": "solc",
    "version": "0.8.4+commit.c7e474f2.Emscripten.clang"
  },
  "schemaVersion": "3.4.9",
  "updatedAt": "2023-06-23T09:17:57.500Z",
  "devdoc": {
    "kind": "dev",
    "methods": {
      "getRoleAdmin(bytes32)": {
        "details": "Returns the admin role that controls `role`. See {grantRole} and {revokeRole}. To change a role's admin, use {_setRoleAdmin}."
      },
      "grantRole(bytes32,address)": {
        "details": "Grants `role` to `account`. If `account` had not been already granted `role`, emits a {RoleGranted} event. Requirements: - the caller must have ``role``'s admin role. May emit a {RoleGranted} event."
      },
      "hasRole(bytes32,address)": {
        "details": "Returns `true` if `account` has been granted `role`."
      },
      "renounceRole(bytes32,address)": {
        "details": "Revokes `role` from the calling account. Roles are often managed via {grantRole} and {revokeRole}: this function's purpose is to provide a mechanism for accounts to lose their privileges if they are compromised (such as when a trusted device is misplaced). If the calling account had been revoked `role`, emits a {RoleRevoked} event. Requirements: - the caller must be `account`. May emit a {RoleRevoked} event."
      },
      "revokeRole(bytes32,address)": {
        "details": "Revokes `role` from `account`. If `account` had been granted `role`, emits a {RoleRevoked} event. Requirements: - the caller must have ``role``'s admin role. May emit a {RoleRevoked} event."
      },
      "supportsInterface(bytes4)": {
        "details": "See {IERC165-supportsInterface}."
      }
    },
    "version": 1
  },
  "userdoc": {
    "kind": "user",
    "methods": {},
    "version": 1
  }
}