{
  "contractName": "TreatmentFactory",
  "abi": [
    {
      "inputs": [],
      "stateMutability": "nonpayable",
      "type": "constructor"
    },
    {
      "anonymous": false,
      "inputs": [
        {
          "indexed": true,
          "internalType": "address",
          "name": "previousOwner",
          "type": "address"
        },
        {
          "indexed": true,
          "internalType": "address",
          "name": "newOwner",
          "type": "address"
        }
      ],
      "name": "OwnershipTransferred",
      "type": "event"
    },
    {
      "inputs": [],
      "name": "owner",
      "outputs": [
        {
          "internalType": "address",
          "name": "",
          "type": "address"
        }
      ],
      "stateMutability": "view",
      "type": "function"
    },
    {
      "inputs": [],
      "name": "renounceOwnership",
      "outputs": [],
      "stateMutability": "nonpayable",
      "type": "function"
    },
    {
      "inputs": [
        {
          "internalType": "address",
          "name": "newOwner",
          "type": "address"
        }
      ],
      "name": "transferOwnership",
      "outputs": [],
      "stateMutability": "nonpayable",
      "type": "function"
    },
    {
      "inputs": [
        {
          "internalType": "address",
          "name": "doctor_",
          "type": "address"
        },
        {
          "internalType": "address",
          "name": "patient_",
          "type": "address"
        },
        {
          "internalType": "string",
          "name": "medicine_",
          "type": "string"
        },
        {
          "internalType": "bytes32",
          "name": "form_",
          "type": "bytes32"
        },
        {
          "components": [
            {
              "internalType": "uint16",
              "name": "strength",
              "type": "uint16"
            },
            {
              "internalType": "bytes32",
              "name": "unit",
              "type": "bytes32"
            }
          ],
          "internalType": "struct Dosage",
          "name": "dosage_",
          "type": "tuple"
        },
        {
          "components": [
            {
              "internalType": "uint256",
              "name": "startDate",
              "type": "uint256"
            },
            {
              "internalType": "uint256",
              "name": "endDate",
              "type": "uint256"
            },
            {
              "internalType": "enum Frequency",
              "name": "frequency",
              "type": "uint8"
            },
            {
              "internalType": "uint8",
              "name": "interval",
              "type": "uint8"
            },
            {
              "internalType": "bytes32[]",
              "name": "daysOfWeek",
              "type": "bytes32[]"
            },
            {
              "internalType": "uint16[]",
              "name": "timesOfDay",
              "type": "uint16[]"
            }
          ],
          "internalType": "struct Schedule",
          "name": "schedule_",
          "type": "tuple"
        }
      ],
      "name": "createTreatment",
      "outputs": [
        {
          "internalType": "address",
          "name": "clone",
          "type": "address"
        }
      ],
      "stateMutability": "nonpayable",
      "type": "function"
    }
  ],
  "bytecode": "0x60a060405234801561001057600080fd5b5061001a33610058565b604051610026906100a8565b604051809103906000f080158015610042573d6000803e3d6000fd5b5060601b6001600160601b0319166080526100b5565b600080546001600160a01b038381166001600160a01b0319831681178455604051919092169283917f8be0079c531659141344cd1fd0a4f28419497f9722a3daafe3b4186f6b6457e09190a35050565b611e4780610b3a83390190565b60805160601c610a686100d2600039600060e70152610a686000f3fe608060405234801561001057600080fd5b506004361061004c5760003560e01c8063715018a6146100515780638da5cb5b1461005b578063d4f9b0921461009e578063f2fde38b146100b1575b600080fd5b6100596100c4565b005b60005473ffffffffffffffffffffffffffffffffffffffff165b60405173ffffffffffffffffffffffffffffffffffffffff909116815260200160405180910390f35b6100756100ac36600461067e565b6100d8565b6100596100bf36600461065d565b6101a6565b6100cc610262565b6100d660006102e3565b565b60006100e2610262565b61010b7f0000000000000000000000000000000000000000000000000000000000000000610358565b6040517fa982df1d00000000000000000000000000000000000000000000000000000000815290915073ffffffffffffffffffffffffffffffffffffffff82169063a982df1d9061016a908a908a908a908a908a908a9060040161088e565b600060405180830381600087803b15801561018457600080fd5b505af1158015610198573d6000803e3d6000fd5b505050509695505050505050565b6101ae610262565b73ffffffffffffffffffffffffffffffffffffffff8116610256576040517f08c379a000000000000000000000000000000000000000000000000000000000815260206004820152602660248201527f4f776e61626c653a206e6577206f776e657220697320746865207a65726f206160448201527f646472657373000000000000000000000000000000000000000000000000000060648201526084015b60405180910390fd5b61025f816102e3565b50565b60005473ffffffffffffffffffffffffffffffffffffffff1633146100d6576040517f08c379a000000000000000000000000000000000000000000000000000000000815260206004820181905260248201527f4f776e61626c653a2063616c6c6572206973206e6f7420746865206f776e6572604482015260640161024d565b6000805473ffffffffffffffffffffffffffffffffffffffff8381167fffffffffffffffffffffffff0000000000000000000000000000000000000000831681178455604051919092169283917f8be0079c531659141344cd1fd0a4f28419497f9722a3daafe3b4186f6b6457e09190a35050565b60006040517f3d602d80600a3d3981f3363d3d373d3d3d363d7300000000000000000000000081528260601b60148201527f5af43d82803e903d91602b57fd5bf3000000000000000000000000000000000060288201526037816000f091505073ffffffffffffffffffffffffffffffffffffffff8116610435576040517f08c379a000000000000000000000000000000000000000000000000000000000815260206004820152601660248201527f455243313136373a20637265617465206661696c656400000000000000000000604482015260640161024d565b919050565b803573ffffffffffffffffffffffffffffffffffffffff8116811461043557600080fd5b600082601f83011261046e578081fd5b8135602061048361047e836109df565b610990565b80838252828201915082860187848660051b89010111156104a2578586fd5b855b858110156104c0578135845292840192908401906001016104a4565b5090979650505050505050565b600082601f8301126104dd578081fd5b813560206104ed61047e836109df565b80838252828201915082860187848660051b890101111561050c578586fd5b855b858110156104c05761051f8261063a565b8452928401929084019060010161050e565b80356003811061043557600080fd5b600060408284031215610551578081fd5b6040516040810181811067ffffffffffffffff8211171561057457610574610a03565b6040529050806105838361063a565b8152602083013560208201525092915050565b600060c082840312156105a7578081fd5b6105af610967565b905081358152602082013560208201526105cb60408301610531565b60408201526105dc6060830161064c565b6060820152608082013567ffffffffffffffff808211156105fc57600080fd5b6106088583860161045e565b608084015260a084013591508082111561062157600080fd5b5061062e848285016104cd565b60a08301525092915050565b803561ffff8116811461043557600080fd5b803560ff8116811461043557600080fd5b60006020828403121561066e578081fd5b6106778261043a565b9392505050565b60008060008060008060e08789031215610696578182fd5b61069f8761043a565b955060206106ae81890161043a565b9550604088013567ffffffffffffffff808211156106ca578485fd5b818a0191508a601f8301126106dd578485fd5b8135818111156106ef576106ef610a03565b61071f847fffffffffffffffffffffffffffffffffffffffffffffffffffffffffffffffe0601f84011601610990565b8181528c85838601011115610732578687fd5b81858501868301379081018401869052965060608a013595506107588b60808c01610540565b945060c08a013592508083111561076d578384fd5b505061077b89828a01610596565b9150509295509295509295565b6000815180845260208085019450808401835b838110156107b75781518752958201959082019060010161079b565b509495945050505050565b6000815180845260208085019450808401835b838110156107b757815161ffff16875295820195908201906001016107d5565b8051825260208101516020830152600060408201516003811061083f577f4e487b710000000000000000000000000000000000000000000000000000000082526021600452602482fd5b8060408501525060ff6060830151166060840152608082015160c0608085015261086c60c0850182610788565b905060a083015184820360a086015261088582826107c2565b95945050505050565b600073ffffffffffffffffffffffffffffffffffffffff808916835260208189168185015260e06040850152875191508160e0850152825b828110156108e357888101820151858201610100015281016108c6565b828111156108f5578361010084870101525b505060608301869052601f017fffffffffffffffffffffffffffffffffffffffffffffffffffffffffffffffe01682016101006109436080850187805161ffff168252602090810151910152565b808483030160c0850152610959818301866107f5565b9a9950505050505050505050565b60405160c0810167ffffffffffffffff8111828210171561098a5761098a610a03565b60405290565b604051601f82017fffffffffffffffffffffffffffffffffffffffffffffffffffffffffffffffe016810167ffffffffffffffff811182821017156109d7576109d7610a03565b604052919050565b600067ffffffffffffffff8211156109f9576109f9610a03565b5060051b60200190565b7f4e487b7100000000000000000000000000000000000000000000000000000000600052604160045260246000fdfea2646970667358221220bbeea5dab9718c06bd57c8b351df8812f0bed1b6e04b2f42ab54fe9a50248e1664736f6c63430008040033608060405234801561001057600080fd5b50611e27806100206000396000f3fe608060405234801561001057600080fd5b506004361061011b5760003560e01c806392857087116100b2578063c25fe26811610081578063e8e5de5911610066578063e8e5de59146102b9578063f595c485146102cc578063fec331f2146102e257600080fd5b8063c25fe2681461028d578063d547741f146102a657600080fd5b80639285708714610238578063a217fddf1461024b578063a982df1d14610253578063ac5cb97d1461026657600080fd5b806330db3d18116100ee57806330db3d18146101a157806336568abe146101b45780637b0f9a36146101c757806391d14854146101f457600080fd5b806301ffc9a71461012057806321787d7c14610148578063248a9ca31461015d5780632f2ff15d1461018e575b600080fd5b61013361012e3660046118c8565b610309565b60405190151581526020015b60405180910390f35b61015b61015636600461195e565b6103a2565b005b61018061016b366004611885565b60009081526020819052604090206001015490565b60405190815260200161013f565b61015b61019c36600461189d565b6104c7565b61015b6101af366004611943565b6104f1565b61015b6101c236600461189d565b610559565b6101cf610611565b60405173ffffffffffffffffffffffffffffffffffffffff909116815260200161013f565b61013361020236600461189d565b60009182526020828152604080842073ffffffffffffffffffffffffffffffffffffffff93909316845291905290205460ff1690565b61015b610246366004611908565b610638565b610180600081565b61015b6102613660046117e9565b610675565b6101807f72606200fac42b7dc86b75901d61ecfab2a4a1a6eded478b97a428094891abed81565b61029561096a565b60405161013f959493929190611b00565b61015b6102b436600461189d565b610beb565b61015b6102c7366004611885565b610c10565b6102d4610c40565b60405161013f929190611adc565b6101807f0af1dac7dea2fd7f7738119cec7df099dfad49aa9d2e7d17ba6b60f63ae7411f81565b60007fffffffff0000000000000000000000000000000000000000000000000000000082167f7965db0b00000000000000000000000000000000000000000000000000000000148061039c57507f01ffc9a7000000000000000000000000000000000000000000000000000000007fffffffff000000000000000000000000000000000000000000000000000000008316145b92915050565b7f0af1dac7dea2fd7f7738119cec7df099dfad49aa9d2e7d17ba6b60f63ae7411f6103cc81610ce2565b81516005908155602083015160065560408301516007805485939291907fffffffffffffffffffffffffffffffffffffffffffffffffffffffffffffff00166001836002811115610446577f4e487b7100000000000000000000000000000000000000000000000000000000600052602160045260246000fd5b0217905550606082015160028201805460ff909216610100027fffffffffffffffffffffffffffffffffffffffffffffffffffffffffffff00ff909216919091179055608082015180516104a4916003840191602090910190611355565b5060a082015180516104c09160048401916020909101906113a0565b5050505050565b6000828152602081905260409020600101546104e281610ce2565b6104ec8383610cef565b505050565b7f0af1dac7dea2fd7f7738119cec7df099dfad49aa9d2e7d17ba6b60f63ae7411f61051b81610ce2565b508051600380547fffffffffffffffffffffffffffffffffffffffffffffffffffffffffffff00001661ffff90921691909117905560200151600455565b73ffffffffffffffffffffffffffffffffffffffff81163314610603576040517f08c379a000000000000000000000000000000000000000000000000000000000815260206004820152602f60248201527f416363657373436f6e74726f6c3a2063616e206f6e6c792072656e6f756e636560448201527f20726f6c657320666f722073656c66000000000000000000000000000000000060648201526084015b60405180910390fd5b61060d8282610ddf565b5050565b600061061b610e96565b5060015473ffffffffffffffffffffffffffffffffffffffff1690565b7f0af1dac7dea2fd7f7738119cec7df099dfad49aa9d2e7d17ba6b60f63ae7411f61066281610ce2565b81516104ec90600a906020850190611444565b600b5460ff16156106e2576040517f08c379a000000000000000000000000000000000000000000000000000000000815260206004820152601360248201527f416c726561647920696e697469616c697a65640000000000000000000000000060448201526064016105fa565b61070d7f0af1dac7dea2fd7f7738119cec7df099dfad49aa9d2e7d17ba6b60f63ae7411f6000610f0c565b6107577f72606200fac42b7dc86b75901d61ecfab2a4a1a6eded478b97a428094891abed7f0af1dac7dea2fd7f7738119cec7df099dfad49aa9d2e7d17ba6b60f63ae7411f610f0c565b6107817f72606200fac42b7dc86b75901d61ecfab2a4a1a6eded478b97a428094891abed86610f57565b6107ab7f0af1dac7dea2fd7f7738119cec7df099dfad49aa9d2e7d17ba6b60f63ae7411f87610f57565b600180547fffffffffffffffffffffffff00000000000000000000000000000000000000001673ffffffffffffffffffffffffffffffffffffffff871617905583516107fe90600a906020870190611444565b5060028381558251600380547fffffffffffffffffffffffffffffffffffffffffffffffffffffffffffff00001661ffff909216919091179055602080840151600455825160059081559083015160065560408301516007805485947fffffffffffffffffffffffffffffffffffffffffffffffffffffffffffffff009091169060019084908111156108ba577f4e487b7100000000000000000000000000000000000000000000000000000000600052602160045260246000fd5b0217905550606082015160028201805460ff909216610100027fffffffffffffffffffffffffffffffffffffffffffffffffffffffffffff00ff90921691909117905560808201518051610918916003840191602090910190611355565b5060a082015180516109349160048401916020909101906113a0565b5050600b80547fffffffffffffffffffffffffffffffffffffffffffffffffffffffffffffff0016600117905550505050505050565b6040805180820190915260008082526020820181905260609161098b6114b7565b6000610995610e96565b6000600a80546109a490611d3f565b80601f01602080910402602001604051908101604052809291908181526020018280546109d090611d3f565b8015610a1d5780601f106109f257610100808354040283529160200191610a1d565b820191906000526020600020905b815481529060010190602001808311610a0057829003601f168201915b505060408051808201825260035461ffff168152600454602080830191909152825160c0810184526005805482526006549282019290925260075497985091966000965091945092509083019060ff166002811115610aa5577f4e487b7100000000000000000000000000000000000000000000000000000000600052602160045260246000fd5b6002811115610add577f4e487b7100000000000000000000000000000000000000000000000000000000600052602160045260246000fd5b81526002820154610100900460ff166020808301919091526003830180546040805182850281018501825282815294019392830182828015610b3e57602002820191906000526020600020905b815481526020019060010190808311610b2a575b5050505050815260200160048201805480602002602001604051908101604052809291908181526020018280548015610bbe57602002820191906000526020600020906000905b82829054906101000a900461ffff1661ffff1681526020019060020190602082600101049283019260010382029150808411610b855790505b5050505050815250509050826002548383610bd7610f61565b975097509750975097505050509091929394565b600082815260208190526040902060010154610c0681610ce2565b6104ec8383610ddf565b7f0af1dac7dea2fd7f7738119cec7df099dfad49aa9d2e7d17ba6b60f63ae7411f610c3a81610ce2565b50600255565b60606000600a610c4e610f61565b818054610c5a90611d3f565b80601f0160208091040260200160405190810160405280929190818152602001828054610c8690611d3f565b8015610cd35780601f10610ca857610100808354040283529160200191610cd3565b820191906000526020600020905b815481529060010190602001808311610cb657829003601f168201915b50505050509150915091509091565b610cec8133610f78565b50565b60008281526020818152604080832073ffffffffffffffffffffffffffffffffffffffff8516845290915290205460ff1661060d5760008281526020818152604080832073ffffffffffffffffffffffffffffffffffffffff85168452909152902080547fffffffffffffffffffffffffffffffffffffffffffffffffffffffffffffff00166001179055610d813390565b73ffffffffffffffffffffffffffffffffffffffff168173ffffffffffffffffffffffffffffffffffffffff16837f2f8788117e7eff1d82e926ec794901d17c78024a50270940304540a733656f0d60405160405180910390a45050565b60008281526020818152604080832073ffffffffffffffffffffffffffffffffffffffff8516845290915290205460ff161561060d5760008281526020818152604080832073ffffffffffffffffffffffffffffffffffffffff8516808552925280832080547fffffffffffffffffffffffffffffffffffffffffffffffffffffffffffffff0016905551339285917ff6391f5c32d9c69d2a47ea670b442974b53935d1edc7fd64eb21e047a839171b9190a45050565b3360009081527f01269c68c28a67305f4a2d47532888d6c961251cfcb06c9cdb6066d32b24b320602052604090205460ff1680610f0157503360009081527fdf1cb6f79b8687a60e91aced08290a53cb47a179b80c0c7c836d1c923c9a5647602052604090205460ff165b610f0a57600080fd5b565b600082815260208190526040808220600101805490849055905190918391839186917fbd79b86ffe0ab8e8776151514217cd7cacd52c909f66475c3af44e129f0b00ff9190a4505050565b61060d8282610cef565b6000610f6f426103e8611c9d565b60065410919050565b60008281526020818152604080832073ffffffffffffffffffffffffffffffffffffffff8516845290915290205460ff1661060d57610fce8173ffffffffffffffffffffffffffffffffffffffff166014611048565b610fd9836020611048565b604051602001610fea929190611a48565b604080517fffffffffffffffffffffffffffffffffffffffffffffffffffffffffffffffe0818403018152908290527f08c379a00000000000000000000000000000000000000000000000000000000082526105fa91600401611ac9565b60606000611057836002611c9d565b611062906002611c85565b67ffffffffffffffff8111156110a1577f4e487b7100000000000000000000000000000000000000000000000000000000600052604160045260246000fd5b6040519080825280601f01601f1916602001820160405280156110cb576020820181803683370190505b5090507f300000000000000000000000000000000000000000000000000000000000000081600081518110611129577f4e487b7100000000000000000000000000000000000000000000000000000000600052603260045260246000fd5b60200101907effffffffffffffffffffffffffffffffffffffffffffffffffffffffffffff1916908160001a9053507f7800000000000000000000000000000000000000000000000000000000000000816001815181106111b3577f4e487b7100000000000000000000000000000000000000000000000000000000600052603260045260246000fd5b60200101907effffffffffffffffffffffffffffffffffffffffffffffffffffffffffffff1916908160001a90535060006111ef846002611c9d565b6111fa906001611c85565b90505b60018111156112e5577f303132333435363738396162636465660000000000000000000000000000000085600f1660108110611262577f4e487b7100000000000000000000000000000000000000000000000000000000600052603260045260246000fd5b1a60f81b82828151811061129f577f4e487b7100000000000000000000000000000000000000000000000000000000600052603260045260246000fd5b60200101907effffffffffffffffffffffffffffffffffffffffffffffffffffffffffffff1916908160001a90535060049490941c936112de81611d0a565b90506111fd565b50831561134e576040517f08c379a000000000000000000000000000000000000000000000000000000000815260206004820181905260248201527f537472696e67733a20686578206c656e67746820696e73756666696369656e7460448201526064016105fa565b9392505050565b828054828255906000526020600020908101928215611390579160200282015b82811115611390578251825591602001919060010190611375565b5061139c929150611523565b5090565b82805482825590600052602060002090600f016010900481019282156113905791602002820160005b8382111561140957835183826101000a81548161ffff021916908361ffff16021790555092602001926002016020816001010492830192600103026113c9565b80156114375782816101000a81549061ffff0219169055600201602081600101049283019260010302611409565b505061139c929150611523565b82805461145090611d3f565b90600052602060002090601f0160209004810192826114725760008555611390565b82601f1061148b57805160ff1916838001178555611390565b828001600101855582156113905791820182811115611390578251825591602001919060010190611375565b6040518060c0016040528060008152602001600081526020016000600281111561150a577f4e487b7100000000000000000000000000000000000000000000000000000000600052602160045260246000fd5b8152600060208201526060604082018190529081015290565b5b8082111561139c5760008155600101611524565b803573ffffffffffffffffffffffffffffffffffffffff8116811461155c57600080fd5b919050565b600082601f830112611571578081fd5b8135602061158661158183611c61565b611c12565b80838252828201915082860187848660051b89010111156115a5578586fd5b855b858110156115c3578135845292840192908401906001016115a7565b5090979650505050505050565b600082601f8301126115e0578081fd5b813560206115f061158183611c61565b80838252828201915082860187848660051b890101111561160f578586fd5b855b858110156115c357611622826117c6565b84529284019290840190600101611611565b80356003811061155c57600080fd5b600082601f830112611653578081fd5b813567ffffffffffffffff81111561166d5761166d611dc2565b61169e60207fffffffffffffffffffffffffffffffffffffffffffffffffffffffffffffffe0601f84011601611c12565b8181528460208386010111156116b2578283fd5b816020850160208301379081016020019190915292915050565b6000604082840312156116dd578081fd5b6040516040810181811067ffffffffffffffff8211171561170057611700611dc2565b60405290508061170f836117c6565b8152602083013560208201525092915050565b600060c08284031215611733578081fd5b61173b611be9565b9050813581526020820135602082015261175760408301611634565b6040820152611768606083016117d8565b6060820152608082013567ffffffffffffffff8082111561178857600080fd5b61179485838601611561565b608084015260a08401359150808211156117ad57600080fd5b506117ba848285016115d0565b60a08301525092915050565b803561ffff8116811461155c57600080fd5b803560ff8116811461155c57600080fd5b60008060008060008060e08789031215611801578182fd5b61180a87611538565b955061181860208801611538565b9450604087013567ffffffffffffffff80821115611834578384fd5b6118408a838b01611643565b9550606089013594506118568a60808b016116cc565b935060c089013591508082111561186b578283fd5b5061187889828a01611722565b9150509295509295509295565b600060208284031215611896578081fd5b5035919050565b600080604083850312156118af578182fd5b823591506118bf60208401611538565b90509250929050565b6000602082840312156118d9578081fd5b81357fffffffff000000000000000000000000000000000000000000000000000000008116811461134e578182fd5b600060208284031215611919578081fd5b813567ffffffffffffffff81111561192f578182fd5b61193b84828501611643565b949350505050565b600060408284031215611954578081fd5b61134e83836116cc565b60006020828403121561196f578081fd5b813567ffffffffffffffff811115611985578182fd5b61193b84828501611722565b6000815180845260208085019450808401835b838110156119c0578151875295820195908201906001016119a4565b509495945050505050565b6000815180845260208085019450808401835b838110156119c057815161ffff16875295820195908201906001016119de565b60008151808452611a16816020860160208601611cda565b601f017fffffffffffffffffffffffffffffffffffffffffffffffffffffffffffffffe0169290920160200192915050565b7f416363657373436f6e74726f6c3a206163636f756e7420000000000000000000815260008351611a80816017850160208801611cda565b7f206973206d697373696e6720726f6c65200000000000000000000000000000006017918401918201528351611abd816028840160208801611cda565b01602801949350505050565b60208152600061134e60208301846119fe565b604081526000611aef60408301856119fe565b905082151560208301529392505050565b60c081526000611b1360c08301886119fe565b86602084015261ffff86511660408401526020860151606084015282810360808401528451815260208501516020820152604085015160038110611b7e577f4e487b710000000000000000000000000000000000000000000000000000000083526021600452602483fd5b806040830152506060850151611b99606083018260ff169052565b50608085015160c06080830152611bb360c0830182611991565b905060a086015182820360a0840152611bcc82826119cb565b9350505050611bdf60a083018415159052565b9695505050505050565b60405160c0810167ffffffffffffffff81118282101715611c0c57611c0c611dc2565b60405290565b604051601f82017fffffffffffffffffffffffffffffffffffffffffffffffffffffffffffffffe016810167ffffffffffffffff81118282101715611c5957611c59611dc2565b604052919050565b600067ffffffffffffffff821115611c7b57611c7b611dc2565b5060051b60200190565b60008219821115611c9857611c98611d93565b500190565b6000817fffffffffffffffffffffffffffffffffffffffffffffffffffffffffffffffff0483118215151615611cd557611cd5611d93565b500290565b60005b83811015611cf5578181015183820152602001611cdd565b83811115611d04576000848401525b50505050565b600081611d1957611d19611d93565b507fffffffffffffffffffffffffffffffffffffffffffffffffffffffffffffffff0190565b600181811c90821680611d5357607f821691505b60208210811415611d8d577f4e487b7100000000000000000000000000000000000000000000000000000000600052602260045260246000fd5b50919050565b7f4e487b7100000000000000000000000000000000000000000000000000000000600052601160045260246000fd5b7f4e487b7100000000000000000000000000000000000000000000000000000000600052604160045260246000fdfea264697066735822122038a753b0f27588a40800bf6deaf54386ae928bf073d8c9c9916251608335102364736f6c63430008040033",
  "immutableReferences": {
    "3540": [
      {
        "length": 32,
        "start": 231
      }
    ]
  },
  "source": "// SPDX-License-Identifier: MIT\npragma solidity ^0.8.4;\n\nimport \"@openzeppelin/contracts/proxy/Clones.sol\";\nimport \"@openzeppelin/contracts/access/Ownable.sol\";\nimport \"./Treatment.sol\";\n\ncontract TreatmentFactory is Ownable {\n    address immutable treatmentImplementation;\n\n    constructor() {\n        treatmentImplementation = address(new Treatment());\n    }\n\n    function createTreatment(\n        address doctor_,\n        address patient_,\n        string memory medicine_,\n        bytes32 form_,\n        Dosage memory dosage_,\n        Schedule memory schedule_\n    ) external onlyOwner returns (address clone) {\n        clone = Clones.clone(treatmentImplementation);\n        Treatment(clone).initialize(\n            doctor_,\n            patient_,\n            medicine_,\n            form_,\n            dosage_,\n            schedule_\n        );\n    }\n}\n",
  "sourcePath": "/home/leslie/Documents/GitHub/svelte-blockchain-template-sveltekit/contracts/TreatmentFactory.sol",
  "compiler": {
    "name": "solc",
    "version": "0.8.4+commit.c7e474f2.Emscripten.clang"
  },
  "schemaVersion": "3.4.9",
  "updatedAt": "2023-04-26T02:26:39.173Z",
  "devdoc": {
    "kind": "dev",
    "methods": {
      "owner()": {
        "details": "Returns the address of the current owner."
      },
      "renounceOwnership()": {
        "details": "Leaves the contract without owner. It will not be possible to call `onlyOwner` functions anymore. Can only be called by the current owner. NOTE: Renouncing ownership will leave the contract without an owner, thereby removing any functionality that is only available to the owner."
      },
      "transferOwnership(address)": {
        "details": "Transfers ownership of the contract to a new account (`newOwner`). Can only be called by the current owner."
      }
    },
    "version": 1
  },
  "userdoc": {
    "kind": "user",
    "methods": {},
    "version": 1
  }
}