{
  "contractName": "Application",
  "abi": [
    {
      "inputs": [
        {
          "internalType": "address",
          "name": "_manager",
          "type": "address"
        }
      ],
      "stateMutability": "nonpayable",
      "type": "constructor"
    },
    {
      "inputs": [
        {
          "internalType": "address",
          "name": "owner_",
          "type": "address"
        },
        {
          "internalType": "bytes32",
          "name": "name_",
          "type": "bytes32"
        },
        {
          "internalType": "bytes32",
          "name": "affiliate_",
          "type": "bytes32"
        }
      ],
      "name": "addDoctor",
      "outputs": [],
      "stateMutability": "nonpayable",
      "type": "function"
    },
    {
      "inputs": [
        {
          "components": [
            {
              "internalType": "bytes32",
              "name": "value1",
              "type": "bytes32"
            },
            {
              "internalType": "bytes32",
              "name": "value2",
              "type": "bytes32"
            }
          ],
          "internalType": "struct Bytes32Pair",
          "name": "nameGender_",
          "type": "tuple"
        },
        {
          "internalType": "uint256",
          "name": "dob_",
          "type": "uint256"
        },
        {
          "internalType": "uint16",
          "name": "height_",
          "type": "uint16"
        },
        {
          "internalType": "uint16",
          "name": "weight_",
          "type": "uint16"
        },
        {
          "internalType": "string[]",
          "name": "allergy_",
          "type": "string[]"
        },
        {
          "components": [
            {
              "internalType": "bool",
              "name": "value1",
              "type": "bool"
            },
            {
              "internalType": "bool",
              "name": "value2",
              "type": "bool"
            },
            {
              "internalType": "bool",
              "name": "value3",
              "type": "bool"
            }
          ],
          "internalType": "struct BoolTriple",
          "name": "alcoholSmokeCannabis_",
          "type": "tuple"
        }
      ],
      "name": "addPatient",
      "outputs": [],
      "stateMutability": "nonpayable",
      "type": "function"
    },
    {
      "inputs": [
        {
          "internalType": "address",
          "name": "patient_",
          "type": "address"
        },
        {
          "internalType": "string",
          "name": "medicine_",
          "type": "string"
        },
        {
          "internalType": "bytes32",
          "name": "form_",
          "type": "bytes32"
        },
        {
          "components": [
            {
              "internalType": "uint16",
              "name": "strength",
              "type": "uint16"
            },
            {
              "internalType": "bytes32",
              "name": "unit",
              "type": "bytes32"
            }
          ],
          "internalType": "struct Dosage",
          "name": "dosage_",
          "type": "tuple"
        },
        {
          "components": [
            {
              "internalType": "uint256",
              "name": "startDate",
              "type": "uint256"
            },
            {
              "internalType": "uint256",
              "name": "endDate",
              "type": "uint256"
            },
            {
              "internalType": "enum Frequency",
              "name": "frequency",
              "type": "uint8"
            },
            {
              "internalType": "uint8",
              "name": "interval",
              "type": "uint8"
            },
            {
              "internalType": "bytes32[]",
              "name": "daysOfWeek",
              "type": "bytes32[]"
            },
            {
              "internalType": "uint16[]",
              "name": "timesOfDay",
              "type": "uint16[]"
            }
          ],
          "internalType": "struct Schedule",
          "name": "schedule_",
          "type": "tuple"
        }
      ],
      "name": "prescribe",
      "outputs": [],
      "stateMutability": "nonpayable",
      "type": "function"
    }
  ],
  "bytecode": "0x60806040526040516100109061009d565b604051809103906000f08015801561002c573d6000803e3d6000fd5b50600180546001600160a01b0319166001600160a01b039290921691909117905534801561005957600080fd5b50604051613946380380613946833981016040819052610078916100aa565b600080546001600160a01b0319166001600160a01b03929092169190911790556100d8565b6126348061131283390190565b6000602082840312156100bb578081fd5b81516001600160a01b03811681146100d1578182fd5b9392505050565b61122b806100e76000396000f3fe608060405234801561001057600080fd5b50600436106100415760003560e01c80633ad2c3c414610046578063b24083a11461005b578063c37f2f281461006e575b600080fd5b610059610054366004610d36565b610081565b005b610059610069366004610c11565b610251565b61005961007c366004610c45565b61040f565b600080546040517fb5368e2000000000000000000000000000000000000000000000000000000000815233600482015273ffffffffffffffffffffffffffffffffffffffff9091169063b5368e209060240160206040518083038186803b1580156100eb57600080fd5b505afa1580156100ff573d6000803e3d6000fd5b505050506040513d601f19601f820116820180604052508101906101239190610bee565b73ffffffffffffffffffffffffffffffffffffffff16146101a5576040517f08c379a000000000000000000000000000000000000000000000000000000000815260206004820152600f60248201527f50726f66696c652065786973746564000000000000000000000000000000000060448201526064015b60405180910390fd5b6000546040805180820182526001815233602082015290517feb1efa7e00000000000000000000000000000000000000000000000000000000815273ffffffffffffffffffffffffffffffffffffffff9092169163eb1efa7e91610217918a918a918a918a918a918a91600401610fce565b600060405180830381600087803b15801561023157600080fd5b505af1158015610245573d6000803e3d6000fd5b50505050505050505050565b600080546040517f2f04e06400000000000000000000000000000000000000000000000000000000815233600482015273ffffffffffffffffffffffffffffffffffffffff90911690632f04e0649060240160206040518083038186803b1580156102bb57600080fd5b505afa1580156102cf573d6000803e3d6000fd5b505050506040513d601f19601f820116820180604052508101906102f39190610bee565b73ffffffffffffffffffffffffffffffffffffffff1614610370576040517f08c379a000000000000000000000000000000000000000000000000000000000815260206004820152600f60248201527f50726f66696c6520657869737465640000000000000000000000000000000000604482015260640161019c565b6000546040517f15bf3c0900000000000000000000000000000000000000000000000000000000815273ffffffffffffffffffffffffffffffffffffffff8581166004830152602482018590526044820184905260016064830152909116906315bf3c0990608401600060405180830381600087803b1580156103f257600080fd5b505af1158015610406573d6000803e3d6000fd5b50505050505050565b600080546040517fb5368e2000000000000000000000000000000000000000000000000000000000815273ffffffffffffffffffffffffffffffffffffffff88811660048301529091169063b5368e209060240160206040518083038186803b15801561047b57600080fd5b505afa15801561048f573d6000803e3d6000fd5b505050506040513d601f19601f820116820180604052508101906104b39190610bee565b600080546040517f2f04e064000000000000000000000000000000000000000000000000000000008152336004820152929350909173ffffffffffffffffffffffffffffffffffffffff90911690632f04e0649060240160206040518083038186803b15801561052257600080fd5b505afa158015610536573d6000803e3d6000fd5b505050506040513d601f19601f8201168201806040525081019061055a9190610bee565b905073ffffffffffffffffffffffffffffffffffffffff821615801590610596575073ffffffffffffffffffffffffffffffffffffffff811615155b6105fc576040517f08c379a000000000000000000000000000000000000000000000000000000000815260206004820152601f60248201527f50617469656e74206f7220646f63746f7220696e206e6f742061207573657200604482015260640161019c565b6040517f85e3fcab00000000000000000000000000000000000000000000000000000000815233600482015273ffffffffffffffffffffffffffffffffffffffff8316906385e3fcab9060240160206040518083038186803b15801561066157600080fd5b505afa158015610675573d6000803e3d6000fd5b505050506040513d601f19601f820116820180604052508101906106999190610d1a565b6106ff576040517f08c379a000000000000000000000000000000000000000000000000000000000815260206004820152601960248201527f5573657220646f6573206e6f7420686176652061636365737300000000000000604482015260640161019c565b6001546040517fd4f9b09200000000000000000000000000000000000000000000000000000000815260009173ffffffffffffffffffffffffffffffffffffffff169063d4f9b092906107609033908c908c908c908c908c90600401610ecd565b602060405180830381600087803b15801561077a57600080fd5b505af115801561078e573d6000803e3d6000fd5b505050506040513d601f19601f820116820180604052508101906107b29190610bee565b6040517fd294ffe000000000000000000000000000000000000000000000000000000000815273ffffffffffffffffffffffffffffffffffffffff80831660048301529192509083169063d294ffe090602401600060405180830381600087803b15801561081f57600080fd5b505af1158015610833573d6000803e3d6000fd5b50506040517fd294ffe000000000000000000000000000000000000000000000000000000000815273ffffffffffffffffffffffffffffffffffffffff84811660048301528616925063d294ffe09150602401600060405180830381600087803b1580156108a057600080fd5b505af11580156108b4573d6000803e3d6000fd5b505050505050505050505050565b600082601f8301126108d2578081fd5b813560206108e76108e28361116f565b611120565b80838252828201915082860187848660051b8901011115610906578586fd5b855b8581101561092457813584529284019290840190600101610908565b5090979650505050505050565b600082601f830112610941578081fd5b813560206109516108e28361116f565b80838252828201915082860187848660051b8901011115610970578586fd5b855b8581101561092457813567ffffffffffffffff811115610990578788fd5b61099e8a87838c0101610a29565b8552509284019290840190600101610972565b600082601f8301126109c1578081fd5b813560206109d16108e28361116f565b80838252828201915082860187848660051b89010111156109f0578586fd5b855b8581101561092457610a0382610bcb565b845292840192908401906001016109f2565b803560038110610a2457600080fd5b919050565b600082601f830112610a39578081fd5b813567ffffffffffffffff811115610a5357610a53611193565b610a8460207fffffffffffffffffffffffffffffffffffffffffffffffffffffffffffffffe0601f84011601611120565b818152846020838601011115610a98578283fd5b816020850160208301379081016020019190915292915050565b600060608284031215610ac3578081fd5b6040516060810181811067ffffffffffffffff82111715610ae657610ae6611193565b6040529050808235610af7816111e7565b81526020830135610b07816111e7565b60208201526040830135610b1a816111e7565b6040919091015292915050565b600060c08284031215610b38578081fd5b610b406110d4565b90508135815260208201356020820152610b5c60408301610a15565b6040820152610b6d60608301610bdd565b6060820152608082013567ffffffffffffffff80821115610b8d57600080fd5b610b99858386016108c2565b608084015260a0840135915080821115610bb257600080fd5b50610bbf848285016109b1565b60a08301525092915050565b803561ffff81168114610a2457600080fd5b803560ff81168114610a2457600080fd5b600060208284031215610bff578081fd5b8151610c0a816111c2565b9392505050565b600080600060608486031215610c25578182fd5b8335610c30816111c2565b95602085013595506040909401359392505050565b600080600080600085870360c0811215610c5d578384fd5b8635610c68816111c2565b9550602087013567ffffffffffffffff80821115610c84578586fd5b610c908a838b01610a29565b96506040890135955060407fffffffffffffffffffffffffffffffffffffffffffffffffffffffffffffffa084011215610cc8578384fd5b610cd06110fd565b9250610cde60608a01610bcb565b83526080890135602084015291935060a08801359180831115610cff578384fd5b5050610d0d88828901610b27565b9150509295509295909350565b600060208284031215610d2b578081fd5b8151610c0a816111e7565b600080600080600080868803610120811215610d50578485fd5b6040811215610d5d578485fd5b506040516040810167ffffffffffffffff8282108183111715610d8257610d82611193565b816040528935835260208a0135602084015282985060408a01359750610daa60608b01610bcb565b9650610db860808b01610bcb565b955060a08a0135925080831115610dcd578384fd5b5050610ddb89828a01610931565b925050610deb8860c08901610ab2565b90509295509295509295565b6000815180845260208085019450808401835b83811015610e2657815187529582019590820190600101610e0a565b509495945050505050565b6000815180845260208085019450808401835b83811015610e2657815161ffff1687529582019590820190600101610e44565b60008151808452815b81811015610e8957602081850181015186830182015201610e6d565b81811115610e9a5782602083870101525b50601f017fffffffffffffffffffffffffffffffffffffffffffffffffffffffffffffffe0169290920160200192915050565b600073ffffffffffffffffffffffffffffffffffffffff808916835280881660208401525060e06040830152610f0660e0830187610e64565b85606084015261ffff8551166080840152602085015160a084015282810360c08401528351815260208401516020820152604084015160038110610f71577f4e487b710000000000000000000000000000000000000000000000000000000083526021600452602483fd5b806040830152506060840151610f8c606083018260ff169052565b50608084015160c06080830152610fa660c0830182610df7565b905060a085015182820360a0840152610fbf8282610e31565b9b9a5050505050505050505050565b87518152602080890151818301526040820188905261ffff87811660608401528616608083015261016060a08301819052855190830181905260009161018080850192600581901b86019091019190888201855b8281101561106e577ffffffffffffffffffffffffffffffffffffffffffffffffffffffffffffffe8088860301865261105c858351610e64565b95840195945090830190600101611022565b50508751151560c087015250506020860151151560e085015260408601511515610100850152915061109d9050565b82511515610120830152602083015173ffffffffffffffffffffffffffffffffffffffff1661014083015298975050505050505050565b60405160c0810167ffffffffffffffff811182821017156110f7576110f7611193565b60405290565b6040805190810167ffffffffffffffff811182821017156110f7576110f7611193565b604051601f82017fffffffffffffffffffffffffffffffffffffffffffffffffffffffffffffffe016810167ffffffffffffffff8111828210171561116757611167611193565b604052919050565b600067ffffffffffffffff82111561118957611189611193565b5060051b60200190565b7f4e487b7100000000000000000000000000000000000000000000000000000000600052604160045260246000fd5b73ffffffffffffffffffffffffffffffffffffffff811681146111e457600080fd5b50565b80151581146111e457600080fdfea2646970667358221220f5e25d0dce0a51bdc6086081b17e184850a50250a60f97eacbbdad41052ac94e64736f6c6343000804003360a060405234801561001057600080fd5b5061001a33610058565b604051610026906100a8565b604051809103906000f080158015610042573d6000803e3d6000fd5b5060601b6001600160601b0319166080526100b5565b600080546001600160a01b038381166001600160a01b0319831681178455604051919092169283917f8be0079c531659141344cd1fd0a4f28419497f9722a3daafe3b4186f6b6457e09190a35050565b611afa80610b3a83390190565b60805160601c610a686100d2600039600060e70152610a686000f3fe608060405234801561001057600080fd5b506004361061004c5760003560e01c8063715018a6146100515780638da5cb5b1461005b578063d4f9b0921461009e578063f2fde38b146100b1575b600080fd5b6100596100c4565b005b60005473ffffffffffffffffffffffffffffffffffffffff165b60405173ffffffffffffffffffffffffffffffffffffffff909116815260200160405180910390f35b6100756100ac36600461067e565b6100d8565b6100596100bf36600461065d565b6101a6565b6100cc610262565b6100d660006102e3565b565b60006100e2610262565b61010b7f0000000000000000000000000000000000000000000000000000000000000000610358565b6040517fa982df1d00000000000000000000000000000000000000000000000000000000815290915073ffffffffffffffffffffffffffffffffffffffff82169063a982df1d9061016a908a908a908a908a908a908a9060040161088e565b600060405180830381600087803b15801561018457600080fd5b505af1158015610198573d6000803e3d6000fd5b505050509695505050505050565b6101ae610262565b73ffffffffffffffffffffffffffffffffffffffff8116610256576040517f08c379a000000000000000000000000000000000000000000000000000000000815260206004820152602660248201527f4f776e61626c653a206e6577206f776e657220697320746865207a65726f206160448201527f646472657373000000000000000000000000000000000000000000000000000060648201526084015b60405180910390fd5b61025f816102e3565b50565b60005473ffffffffffffffffffffffffffffffffffffffff1633146100d6576040517f08c379a000000000000000000000000000000000000000000000000000000000815260206004820181905260248201527f4f776e61626c653a2063616c6c6572206973206e6f7420746865206f776e6572604482015260640161024d565b6000805473ffffffffffffffffffffffffffffffffffffffff8381167fffffffffffffffffffffffff0000000000000000000000000000000000000000831681178455604051919092169283917f8be0079c531659141344cd1fd0a4f28419497f9722a3daafe3b4186f6b6457e09190a35050565b60006040517f3d602d80600a3d3981f3363d3d373d3d3d363d7300000000000000000000000081528260601b60148201527f5af43d82803e903d91602b57fd5bf3000000000000000000000000000000000060288201526037816000f091505073ffffffffffffffffffffffffffffffffffffffff8116610435576040517f08c379a000000000000000000000000000000000000000000000000000000000815260206004820152601660248201527f455243313136373a20637265617465206661696c656400000000000000000000604482015260640161024d565b919050565b803573ffffffffffffffffffffffffffffffffffffffff8116811461043557600080fd5b600082601f83011261046e578081fd5b8135602061048361047e836109df565b610990565b80838252828201915082860187848660051b89010111156104a2578586fd5b855b858110156104c0578135845292840192908401906001016104a4565b5090979650505050505050565b600082601f8301126104dd578081fd5b813560206104ed61047e836109df565b80838252828201915082860187848660051b890101111561050c578586fd5b855b858110156104c05761051f8261063a565b8452928401929084019060010161050e565b80356003811061043557600080fd5b600060408284031215610551578081fd5b6040516040810181811067ffffffffffffffff8211171561057457610574610a03565b6040529050806105838361063a565b8152602083013560208201525092915050565b600060c082840312156105a7578081fd5b6105af610967565b905081358152602082013560208201526105cb60408301610531565b60408201526105dc6060830161064c565b6060820152608082013567ffffffffffffffff808211156105fc57600080fd5b6106088583860161045e565b608084015260a084013591508082111561062157600080fd5b5061062e848285016104cd565b60a08301525092915050565b803561ffff8116811461043557600080fd5b803560ff8116811461043557600080fd5b60006020828403121561066e578081fd5b6106778261043a565b9392505050565b60008060008060008060e08789031215610696578182fd5b61069f8761043a565b955060206106ae81890161043a565b9550604088013567ffffffffffffffff808211156106ca578485fd5b818a0191508a601f8301126106dd578485fd5b8135818111156106ef576106ef610a03565b61071f847fffffffffffffffffffffffffffffffffffffffffffffffffffffffffffffffe0601f84011601610990565b8181528c85838601011115610732578687fd5b81858501868301379081018401869052965060608a013595506107588b60808c01610540565b945060c08a013592508083111561076d578384fd5b505061077b89828a01610596565b9150509295509295509295565b6000815180845260208085019450808401835b838110156107b75781518752958201959082019060010161079b565b509495945050505050565b6000815180845260208085019450808401835b838110156107b757815161ffff16875295820195908201906001016107d5565b8051825260208101516020830152600060408201516003811061083f577f4e487b710000000000000000000000000000000000000000000000000000000082526021600452602482fd5b8060408501525060ff6060830151166060840152608082015160c0608085015261086c60c0850182610788565b905060a083015184820360a086015261088582826107c2565b95945050505050565b600073ffffffffffffffffffffffffffffffffffffffff808916835260208189168185015260e06040850152875191508160e0850152825b828110156108e357888101820151858201610100015281016108c6565b828111156108f5578361010084870101525b505060608301869052601f017fffffffffffffffffffffffffffffffffffffffffffffffffffffffffffffffe01682016101006109436080850187805161ffff168252602090810151910152565b808483030160c0850152610959818301866107f5565b9a9950505050505050505050565b60405160c0810167ffffffffffffffff8111828210171561098a5761098a610a03565b60405290565b604051601f82017fffffffffffffffffffffffffffffffffffffffffffffffffffffffffffffffe016810167ffffffffffffffff811182821017156109d7576109d7610a03565b604052919050565b600067ffffffffffffffff8211156109f9576109f9610a03565b5060051b60200190565b7f4e487b7100000000000000000000000000000000000000000000000000000000600052604160045260246000fdfea2646970667358221220d216e20b2c994f3a8ddd7176690a15f90636ff167db501908f8f72bb47ecc30464736f6c63430008040033608060405234801561001057600080fd5b50611ada806100206000396000f3fe608060405234801561001057600080fd5b50600436106100f55760003560e01c8063a982df1d11610097578063d547741f11610066578063d547741f1461024a578063ec87621c1461025d578063f595c48514610284578063fec331f21461029957600080fd5b8063a982df1d146101ef578063ac5cb97d14610202578063b2fa1c9e14610229578063c25fe2681461023157600080fd5b806336568abe116100d357806336568abe146101685780637b0f9a361461017b57806391d14854146101a3578063a217fddf146101e757600080fd5b806301ffc9a7146100fa578063248a9ca3146101225780632f2ff15d14610153575b600080fd5b61010d610108366004611628565b6102c0565b60405190151581526020015b60405180910390f35b6101456101303660046115e5565b60009081526020819052604090206001015490565b604051908152602001610119565b6101666101613660046115fd565b610359565b005b6101666101763660046115fd565b610383565b60015460405173ffffffffffffffffffffffffffffffffffffffff9091168152602001610119565b61010d6101b13660046115fd565b60009182526020828152604080842073ffffffffffffffffffffffffffffffffffffffff93909316845291905290205460ff1690565b610145600081565b6101666101fd3660046114db565b61043b565b6101457f72606200fac42b7dc86b75901d61ecfab2a4a1a6eded478b97a428094891abed81565b61010d6107a4565b6102396107bb565b6040516101199594939291906117b3565b6101666102583660046115fd565b610a33565b6101457f241ecf16d79d0f8dbfb92cbc07fe17840425976cf0667f022fe9877caa831b0881565b61028c610a58565b60405161011991906117a0565b6101457f0af1dac7dea2fd7f7738119cec7df099dfad49aa9d2e7d17ba6b60f63ae7411f81565b60007fffffffff0000000000000000000000000000000000000000000000000000000082167f7965db0b00000000000000000000000000000000000000000000000000000000148061035357507f01ffc9a7000000000000000000000000000000000000000000000000000000007fffffffff000000000000000000000000000000000000000000000000000000008316145b92915050565b60008281526020819052604090206001015461037481610aea565b61037e8383610af7565b505050565b73ffffffffffffffffffffffffffffffffffffffff8116331461042d576040517f08c379a000000000000000000000000000000000000000000000000000000000815260206004820152602f60248201527f416363657373436f6e74726f6c3a2063616e206f6e6c792072656e6f756e636560448201527f20726f6c657320666f722073656c66000000000000000000000000000000000060648201526084015b60405180910390fd5b6104378282610be7565b5050565b600b5460ff16156104a8576040517f08c379a000000000000000000000000000000000000000000000000000000000815260206004820152601360248201527f416c726561647920696e697469616c697a6564000000000000000000000000006044820152606401610424565b6104d37f0af1dac7dea2fd7f7738119cec7df099dfad49aa9d2e7d17ba6b60f63ae7411f6000610c9e565b61051d7f72606200fac42b7dc86b75901d61ecfab2a4a1a6eded478b97a428094891abed7f0af1dac7dea2fd7f7738119cec7df099dfad49aa9d2e7d17ba6b60f63ae7411f610c9e565b6105677f241ecf16d79d0f8dbfb92cbc07fe17840425976cf0667f022fe9877caa831b087f0af1dac7dea2fd7f7738119cec7df099dfad49aa9d2e7d17ba6b60f63ae7411f610c9e565b6105917f72606200fac42b7dc86b75901d61ecfab2a4a1a6eded478b97a428094891abed86610ce9565b6105bb7f241ecf16d79d0f8dbfb92cbc07fe17840425976cf0667f022fe9877caa831b0833610ce9565b6105e57f0af1dac7dea2fd7f7738119cec7df099dfad49aa9d2e7d17ba6b60f63ae7411f87610ce9565b600180547fffffffffffffffffffffffff00000000000000000000000000000000000000001673ffffffffffffffffffffffffffffffffffffffff8716179055835161063890600a9060208701906110d0565b5060028381558251600380547fffffffffffffffffffffffffffffffffffffffffffffffffffffffffffff00001661ffff909216919091179055602080840151600455825160059081559083015160065560408301516007805485947fffffffffffffffffffffffffffffffffffffffffffffffffffffffffffffff009091169060019084908111156106f4577f4e487b7100000000000000000000000000000000000000000000000000000000600052602160045260246000fd5b0217905550606082015160028201805460ff909216610100027fffffffffffffffffffffffffffffffffffffffffffffffffffffffffffff00ff90921691909117905560808201518051610752916003840191602090910190611154565b5060a0820151805161076e91600484019160209091019061118e565b5050600b80547fffffffffffffffffffffffffffffffffffffffffffffffffffffffffffffff0016600117905550505050505050565b60006107b2426103e8611950565b60065410919050565b604080518082019091526000808252602082018190526060916107dc611232565b600080600a80546107ec906119f2565b80601f0160208091040260200160405190810160405280929190818152602001828054610818906119f2565b80156108655780601f1061083a57610100808354040283529160200191610865565b820191906000526020600020905b81548152906001019060200180831161084857829003601f168201915b505060408051808201825260035461ffff168152600454602080830191909152825160c0810184526005805482526006549282019290925260075497985091966000965091945092509083019060ff1660028111156108ed577f4e487b7100000000000000000000000000000000000000000000000000000000600052602160045260246000fd5b6002811115610925577f4e487b7100000000000000000000000000000000000000000000000000000000600052602160045260246000fd5b81526002820154610100900460ff16602080830191909152600383018054604080518285028101850182528281529401939283018282801561098657602002820191906000526020600020905b815481526020019060010190808311610972575b5050505050815260200160048201805480602002602001604051908101604052809291908181526020018280548015610a0657602002820191906000526020600020906000905b82829054906101000a900461ffff1661ffff16815260200190600201906020826001010492830192600103820291508084116109cd5790505b5050505050815250509050826002548383610a1f6107a4565b975097509750975097505050509091929394565b600082815260208190526040902060010154610a4e81610aea565b61037e8383610be7565b6060600a8054610a67906119f2565b80601f0160208091040260200160405190810160405280929190818152602001828054610a93906119f2565b8015610ae05780601f10610ab557610100808354040283529160200191610ae0565b820191906000526020600020905b815481529060010190602001808311610ac357829003601f168201915b5050505050905090565b610af48133610cf3565b50565b60008281526020818152604080832073ffffffffffffffffffffffffffffffffffffffff8516845290915290205460ff166104375760008281526020818152604080832073ffffffffffffffffffffffffffffffffffffffff85168452909152902080547fffffffffffffffffffffffffffffffffffffffffffffffffffffffffffffff00166001179055610b893390565b73ffffffffffffffffffffffffffffffffffffffff168173ffffffffffffffffffffffffffffffffffffffff16837f2f8788117e7eff1d82e926ec794901d17c78024a50270940304540a733656f0d60405160405180910390a45050565b60008281526020818152604080832073ffffffffffffffffffffffffffffffffffffffff8516845290915290205460ff16156104375760008281526020818152604080832073ffffffffffffffffffffffffffffffffffffffff8516808552925280832080547fffffffffffffffffffffffffffffffffffffffffffffffffffffffffffffff0016905551339285917ff6391f5c32d9c69d2a47ea670b442974b53935d1edc7fd64eb21e047a839171b9190a45050565b600082815260208190526040808220600101805490849055905190918391839186917fbd79b86ffe0ab8e8776151514217cd7cacd52c909f66475c3af44e129f0b00ff9190a4505050565b6104378282610af7565b60008281526020818152604080832073ffffffffffffffffffffffffffffffffffffffff8516845290915290205460ff1661043757610d498173ffffffffffffffffffffffffffffffffffffffff166014610dc3565b610d54836020610dc3565b604051602001610d6592919061171f565b604080517fffffffffffffffffffffffffffffffffffffffffffffffffffffffffffffffe0818403018152908290527f08c379a0000000000000000000000000000000000000000000000000000000008252610424916004016117a0565b60606000610dd2836002611950565b610ddd906002611938565b67ffffffffffffffff811115610e1c577f4e487b7100000000000000000000000000000000000000000000000000000000600052604160045260246000fd5b6040519080825280601f01601f191660200182016040528015610e46576020820181803683370190505b5090507f300000000000000000000000000000000000000000000000000000000000000081600081518110610ea4577f4e487b7100000000000000000000000000000000000000000000000000000000600052603260045260246000fd5b60200101907effffffffffffffffffffffffffffffffffffffffffffffffffffffffffffff1916908160001a9053507f780000000000000000000000000000000000000000000000000000000000000081600181518110610f2e577f4e487b7100000000000000000000000000000000000000000000000000000000600052603260045260246000fd5b60200101907effffffffffffffffffffffffffffffffffffffffffffffffffffffffffffff1916908160001a9053506000610f6a846002611950565b610f75906001611938565b90505b6001811115611060577f303132333435363738396162636465660000000000000000000000000000000085600f1660108110610fdd577f4e487b7100000000000000000000000000000000000000000000000000000000600052603260045260246000fd5b1a60f81b82828151811061101a577f4e487b7100000000000000000000000000000000000000000000000000000000600052603260045260246000fd5b60200101907effffffffffffffffffffffffffffffffffffffffffffffffffffffffffffff1916908160001a90535060049490941c93611059816119bd565b9050610f78565b5083156110c9576040517f08c379a000000000000000000000000000000000000000000000000000000000815260206004820181905260248201527f537472696e67733a20686578206c656e67746820696e73756666696369656e746044820152606401610424565b9392505050565b8280546110dc906119f2565b90600052602060002090601f0160209004810192826110fe5760008555611144565b82601f1061111757805160ff1916838001178555611144565b82800160010185558215611144579182015b82811115611144578251825591602001919060010190611129565b5061115092915061129e565b5090565b8280548282559060005260206000209081019282156111445791602002820182811115611144578251825591602001919060010190611129565b82805482825590600052602060002090600f016010900481019282156111445791602002820160005b838211156111f757835183826101000a81548161ffff021916908361ffff16021790555092602001926002016020816001010492830192600103026111b7565b80156112255782816101000a81549061ffff02191690556002016020816001010492830192600103026111f7565b505061115092915061129e565b6040518060c00160405280600081526020016000815260200160006002811115611285577f4e487b7100000000000000000000000000000000000000000000000000000000600052602160045260246000fd5b8152600060208201526060604082018190529081015290565b5b80821115611150576000815560010161129f565b803573ffffffffffffffffffffffffffffffffffffffff811681146112d757600080fd5b919050565b600082601f8301126112ec578081fd5b813560206113016112fc83611914565b6118c5565b80838252828201915082860187848660051b8901011115611320578586fd5b855b8581101561133e57813584529284019290840190600101611322565b5090979650505050505050565b600082601f83011261135b578081fd5b8135602061136b6112fc83611914565b80838252828201915082860187848660051b890101111561138a578586fd5b855b8581101561133e5761139d826114b8565b8452928401929084019060010161138c565b8035600381106112d757600080fd5b6000604082840312156113cf578081fd5b6040516040810181811067ffffffffffffffff821117156113f2576113f2611a75565b604052905080611401836114b8565b8152602083013560208201525092915050565b600060c08284031215611425578081fd5b61142d61189c565b90508135815260208201356020820152611449604083016113af565b604082015261145a606083016114ca565b6060820152608082013567ffffffffffffffff8082111561147a57600080fd5b611486858386016112dc565b608084015260a084013591508082111561149f57600080fd5b506114ac8482850161134b565b60a08301525092915050565b803561ffff811681146112d757600080fd5b803560ff811681146112d757600080fd5b60008060008060008060e087890312156114f3578182fd5b6114fc876112b3565b9550602061150b8189016112b3565b9550604088013567ffffffffffffffff80821115611527578485fd5b818a0191508a601f83011261153a578485fd5b81358181111561154c5761154c611a75565b61157c847fffffffffffffffffffffffffffffffffffffffffffffffffffffffffffffffe0601f840116016118c5565b8181528c8583860101111561158f578687fd5b81858501868301379081018401869052965060608a013595506115b58b60808c016113be565b945060c08a01359250808311156115ca578384fd5b50506115d889828a01611414565b9150509295509295509295565b6000602082840312156115f6578081fd5b5035919050565b6000806040838503121561160f578182fd5b8235915061161f602084016112b3565b90509250929050565b600060208284031215611639578081fd5b81357fffffffff00000000000000000000000000000000000000000000000000000000811681146110c9578182fd5b6000815180845260208085019450808401835b838110156116975781518752958201959082019060010161167b565b509495945050505050565b6000815180845260208085019450808401835b8381101561169757815161ffff16875295820195908201906001016116b5565b600081518084526116ed81602086016020860161198d565b601f017fffffffffffffffffffffffffffffffffffffffffffffffffffffffffffffffe0169290920160200192915050565b7f416363657373436f6e74726f6c3a206163636f756e742000000000000000000081526000835161175781601785016020880161198d565b7f206973206d697373696e6720726f6c6520000000000000000000000000000000601791840191820152835161179481602884016020880161198d565b01602801949350505050565b6020815260006110c960208301846116d5565b60c0815260006117c660c08301886116d5565b86602084015261ffff86511660408401526020860151606084015282810360808401528451815260208501516020820152604085015160038110611831577f4e487b710000000000000000000000000000000000000000000000000000000083526021600452602483fd5b80604083015250606085015161184c606083018260ff169052565b50608085015160c0608083015261186660c0830182611668565b905060a086015182820360a084015261187f82826116a2565b935050505061189260a083018415159052565b9695505050505050565b60405160c0810167ffffffffffffffff811182821017156118bf576118bf611a75565b60405290565b604051601f82017fffffffffffffffffffffffffffffffffffffffffffffffffffffffffffffffe016810167ffffffffffffffff8111828210171561190c5761190c611a75565b604052919050565b600067ffffffffffffffff82111561192e5761192e611a75565b5060051b60200190565b6000821982111561194b5761194b611a46565b500190565b6000817fffffffffffffffffffffffffffffffffffffffffffffffffffffffffffffffff048311821515161561198857611988611a46565b500290565b60005b838110156119a8578181015183820152602001611990565b838111156119b7576000848401525b50505050565b6000816119cc576119cc611a46565b507fffffffffffffffffffffffffffffffffffffffffffffffffffffffffffffffff0190565b600181811c90821680611a0657607f821691505b60208210811415611a40577f4e487b7100000000000000000000000000000000000000000000000000000000600052602260045260246000fd5b50919050565b7f4e487b7100000000000000000000000000000000000000000000000000000000600052601160045260246000fd5b7f4e487b7100000000000000000000000000000000000000000000000000000000600052604160045260246000fdfea2646970667358221220f55742276c9aad290ac481a44eacc83a8eb33aca5a7c15cc57a31c55a7d8de9164736f6c63430008040033",
  "immutableReferences": {},
  "source": "// SPDX-License-Identifier: MIT\npragma solidity ^0.8.4;\n\nimport \"./Doctor.sol\";\nimport \"./Patient.sol\";\nimport \"./Treatment.sol\";\nimport \"./TreatmentFactory.sol\";\nimport \"./Manager.sol\";\nimport \"./Helper.sol\";\n\ncontract Application {\n    Manager private manager;\n    TreatmentFactory private treatmentFactory = new TreatmentFactory();\n\n    constructor(address _manager) {\n        manager = Manager(_manager);\n    }\n\n    function addDoctor(\n        address owner_,\n        bytes32 name_,\n        bytes32 affiliate_\n    ) external {\n        require(manager.getDoctor(msg.sender) == address(0), \"Profile existed\");\n        manager.addDoctor(owner_, name_, affiliate_, true);\n    }\n\n    function addPatient(\n        Bytes32Pair memory nameGender_,\n        uint256 dob_,\n        uint16 height_,\n        uint16 weight_,\n        string[] memory allergy_,\n        BoolTriple memory alcoholSmokeCannabis_\n    ) external {\n        require(\n            manager.getPatient(msg.sender) == address(0),\n            \"Profile existed\"\n        );\n        manager.addPatient(\n            nameGender_,\n            dob_,\n            height_,\n            weight_,\n            allergy_,\n            alcoholSmokeCannabis_,\n            FromAppOption(true, msg.sender)\n        );\n    }\n\n    function prescribe(\n        address patient_,\n        string memory medicine_,\n        bytes32 form_,\n        Dosage memory dosage_,\n        Schedule memory schedule_\n    ) external {\n        Patient patient = Patient(manager.getPatient(patient_));\n        Doctor doctor = Doctor(manager.getDoctor(msg.sender));\n        require(\n            address(patient) != address(0) && address(doctor) != address(0),\n            \"Patient or doctor in not a user\"\n        );\n        require(\n            patient.checkPrescribe(msg.sender),\n            \"User does not have access\"\n        );\n\n        address newTreatment = treatmentFactory.createTreatment(\n            msg.sender,\n            patient_,\n            medicine_,\n            form_,\n            dosage_,\n            schedule_\n        );\n        doctor.addTreatment(newTreatment);\n        patient.addTreatment(newTreatment);\n    }\n}\n",
  "sourcePath": "/home/leslie/Documents/GitHub/svelte-blockchain-template-sveltekit/contracts/Application.sol",
  "compiler": {
    "name": "solc",
    "version": "0.8.4+commit.c7e474f2.Emscripten.clang"
  },
  "schemaVersion": "3.4.9",
  "updatedAt": "2023-01-14T07:32:26.305Z",
  "devdoc": {
    "kind": "dev",
    "methods": {},
    "version": 1
  },
  "userdoc": {
    "kind": "user",
    "methods": {},
    "version": 1
  }
}