{
  "contractName": "Doctor",
  "abi": [
    {
      "inputs": [],
      "stateMutability": "nonpayable",
      "type": "constructor"
    },
    {
      "anonymous": false,
      "inputs": [
        {
          "indexed": true,
          "internalType": "bytes32",
          "name": "role",
          "type": "bytes32"
        },
        {
          "indexed": true,
          "internalType": "bytes32",
          "name": "previousAdminRole",
          "type": "bytes32"
        },
        {
          "indexed": true,
          "internalType": "bytes32",
          "name": "newAdminRole",
          "type": "bytes32"
        }
      ],
      "name": "RoleAdminChanged",
      "type": "event"
    },
    {
      "anonymous": false,
      "inputs": [
        {
          "indexed": true,
          "internalType": "bytes32",
          "name": "role",
          "type": "bytes32"
        },
        {
          "indexed": true,
          "internalType": "address",
          "name": "account",
          "type": "address"
        },
        {
          "indexed": true,
          "internalType": "address",
          "name": "sender",
          "type": "address"
        }
      ],
      "name": "RoleGranted",
      "type": "event"
    },
    {
      "anonymous": false,
      "inputs": [
        {
          "indexed": true,
          "internalType": "bytes32",
          "name": "role",
          "type": "bytes32"
        },
        {
          "indexed": true,
          "internalType": "address",
          "name": "account",
          "type": "address"
        },
        {
          "indexed": true,
          "internalType": "address",
          "name": "sender",
          "type": "address"
        }
      ],
      "name": "RoleRevoked",
      "type": "event"
    },
    {
      "inputs": [],
      "name": "DEFAULT_ADMIN_ROLE",
      "outputs": [
        {
          "internalType": "bytes32",
          "name": "",
          "type": "bytes32"
        }
      ],
      "stateMutability": "view",
      "type": "function"
    },
    {
      "inputs": [],
      "name": "DOCTOR_ROLE",
      "outputs": [
        {
          "internalType": "bytes32",
          "name": "",
          "type": "bytes32"
        }
      ],
      "stateMutability": "view",
      "type": "function"
    },
    {
      "inputs": [],
      "name": "MANAGER_ROLE",
      "outputs": [
        {
          "internalType": "bytes32",
          "name": "",
          "type": "bytes32"
        }
      ],
      "stateMutability": "view",
      "type": "function"
    },
    {
      "inputs": [
        {
          "internalType": "bytes32",
          "name": "role",
          "type": "bytes32"
        }
      ],
      "name": "getRoleAdmin",
      "outputs": [
        {
          "internalType": "bytes32",
          "name": "",
          "type": "bytes32"
        }
      ],
      "stateMutability": "view",
      "type": "function"
    },
    {
      "inputs": [
        {
          "internalType": "bytes32",
          "name": "role",
          "type": "bytes32"
        },
        {
          "internalType": "address",
          "name": "account",
          "type": "address"
        }
      ],
      "name": "grantRole",
      "outputs": [],
      "stateMutability": "nonpayable",
      "type": "function"
    },
    {
      "inputs": [
        {
          "internalType": "bytes32",
          "name": "role",
          "type": "bytes32"
        },
        {
          "internalType": "address",
          "name": "account",
          "type": "address"
        }
      ],
      "name": "hasRole",
      "outputs": [
        {
          "internalType": "bool",
          "name": "",
          "type": "bool"
        }
      ],
      "stateMutability": "view",
      "type": "function"
    },
    {
      "inputs": [
        {
          "internalType": "bytes32",
          "name": "role",
          "type": "bytes32"
        },
        {
          "internalType": "address",
          "name": "account",
          "type": "address"
        }
      ],
      "name": "renounceRole",
      "outputs": [],
      "stateMutability": "nonpayable",
      "type": "function"
    },
    {
      "inputs": [
        {
          "internalType": "bytes32",
          "name": "role",
          "type": "bytes32"
        },
        {
          "internalType": "address",
          "name": "account",
          "type": "address"
        }
      ],
      "name": "revokeRole",
      "outputs": [],
      "stateMutability": "nonpayable",
      "type": "function"
    },
    {
      "inputs": [
        {
          "internalType": "bytes4",
          "name": "interfaceId",
          "type": "bytes4"
        }
      ],
      "name": "supportsInterface",
      "outputs": [
        {
          "internalType": "bool",
          "name": "",
          "type": "bool"
        }
      ],
      "stateMutability": "view",
      "type": "function"
    },
    {
      "inputs": [],
      "name": "hasWriteAccess",
      "outputs": [],
      "stateMutability": "view",
      "type": "function"
    },
    {
      "inputs": [
        {
          "internalType": "address",
          "name": "owner_",
          "type": "address"
        },
        {
          "internalType": "address",
          "name": "manager_",
          "type": "address"
        },
        {
          "internalType": "bytes32",
          "name": "name_",
          "type": "bytes32"
        },
        {
          "internalType": "bytes32",
          "name": "affiliate_",
          "type": "bytes32"
        }
      ],
      "name": "initialize",
      "outputs": [],
      "stateMutability": "nonpayable",
      "type": "function"
    },
    {
      "inputs": [
        {
          "internalType": "address",
          "name": "owner_",
          "type": "address"
        },
        {
          "internalType": "address",
          "name": "app_",
          "type": "address"
        },
        {
          "internalType": "address",
          "name": "manager_",
          "type": "address"
        },
        {
          "internalType": "bytes32",
          "name": "name_",
          "type": "bytes32"
        },
        {
          "internalType": "bytes32",
          "name": "affiliate_",
          "type": "bytes32"
        }
      ],
      "name": "initializeFromApp",
      "outputs": [],
      "stateMutability": "nonpayable",
      "type": "function"
    },
    {
      "inputs": [],
      "name": "getInfo",
      "outputs": [
        {
          "internalType": "bytes32",
          "name": "name_",
          "type": "bytes32"
        },
        {
          "internalType": "bytes32",
          "name": "affiliate_",
          "type": "bytes32"
        }
      ],
      "stateMutability": "view",
      "type": "function"
    },
    {
      "inputs": [
        {
          "internalType": "address",
          "name": "treatment_",
          "type": "address"
        }
      ],
      "name": "addTreatment",
      "outputs": [],
      "stateMutability": "nonpayable",
      "type": "function"
    },
    {
      "inputs": [],
      "name": "getTreatments",
      "outputs": [
        {
          "components": [
            {
              "internalType": "address",
              "name": "id",
              "type": "address"
            },
            {
              "internalType": "address",
              "name": "patient",
              "type": "address"
            },
            {
              "internalType": "string",
              "name": "medicine",
              "type": "string"
            },
            {
              "internalType": "bool",
              "name": "completed",
              "type": "bool"
            }
          ],
          "internalType": "struct DoctorTreatmentMeta[]",
          "name": "treatments_",
          "type": "tuple[]"
        }
      ],
      "stateMutability": "view",
      "type": "function"
    }
  ],
  "bytecode": "0x608060405234801561001057600080fd5b5061003c7f241ecf16d79d0f8dbfb92cbc07fe17840425976cf0667f022fe9877caa831b086000610041565b61008c565b600082815260208190526040808220600101805490849055905190918391839186917fbd79b86ffe0ab8e8776151514217cd7cacd52c909f66475c3af44e129f0b00ff9190a4505050565b61128e8061009b6000396000f3fe608060405234801561001057600080fd5b50600436106100f55760003560e01c806376cfcff611610097578063d294ffe011610066578063d294ffe014610218578063d547741f1461022b578063ec87621c1461023e578063fec331f21461026557600080fd5b806376cfcff6146101b15780638bb25419146101c457806391d14854146101d9578063a217fddf1461021057600080fd5b8063303d38b1116100d3578063303d38b11461016857806336568abe1461017b5780635a9b0b891461018e578063602792b0146101a957600080fd5b806301ffc9a7146100fa578063248a9ca3146101225780632f2ff15d14610153575b600080fd5b61010d610108366004610f1d565b61028c565b60405190151581526020015b60405180910390f35b610145610130366004610ed6565b60009081526020819052604090206001015490565b604051908152602001610119565b610166610161366004610eee565b610325565b005b610166610176366004610e17565b61034f565b610166610189366004610eee565b61043f565b60015460025460408051928352602083019190915201610119565b6101666104cb565b6101666101bf366004610e71565b610584565b6101cc610644565b60405161011991906110b3565b61010d6101e7366004610eee565b6000918252602082815260408084206001600160a01b0393909316845291905290205460ff1690565b610145600081565b610166610226366004610ddf565b610920565b610166610239366004610eee565b610992565b6101457f241ecf16d79d0f8dbfb92cbc07fe17840425976cf0667f022fe9877caa831b0881565b6101457f0af1dac7dea2fd7f7738119cec7df099dfad49aa9d2e7d17ba6b60f63ae7411f81565b60007fffffffff0000000000000000000000000000000000000000000000000000000082167f7965db0b00000000000000000000000000000000000000000000000000000000148061031f57507f01ffc9a7000000000000000000000000000000000000000000000000000000007fffffffff000000000000000000000000000000000000000000000000000000008316145b92915050565b600082815260208190526040902060010154610340816109b7565b61034a83836109c4565b505050565b60045460ff16156103a75760405162461bcd60e51b815260206004820152601360248201527f416c726561647920696e697469616c697a65640000000000000000000000000060448201526064015b60405180910390fd5b6103d17f0af1dac7dea2fd7f7738119cec7df099dfad49aa9d2e7d17ba6b60f63ae7411f86610a62565b6103fb7f241ecf16d79d0f8dbfb92cbc07fe17840425976cf0667f022fe9877caa831b0884610a62565b6104257f241ecf16d79d0f8dbfb92cbc07fe17840425976cf0667f022fe9877caa831b0885610a62565b60019182556002556004805460ff19169091179055505050565b6001600160a01b03811633146104bd5760405162461bcd60e51b815260206004820152602f60248201527f416363657373436f6e74726f6c3a2063616e206f6e6c792072656e6f756e636560448201527f20726f6c657320666f722073656c660000000000000000000000000000000000606482015260840161039e565b6104c78282610a6c565b5050565b3360009081527fe84508f2c7fa9c351146748b3025cb78b45df37d868e48c6a75102fecdeee645602052604090205460ff168061053657503360009081527fdf1cb6f79b8687a60e91aced08290a53cb47a179b80c0c7c836d1c923c9a5647602052604090205460ff165b6105825760405162461bcd60e51b815260206004820152601160248201527f4e65656420777269746520616363657373000000000000000000000000000000604482015260640161039e565b565b60045460ff16156105d75760405162461bcd60e51b815260206004820152601360248201527f416c726561647920696e697469616c697a656400000000000000000000000000604482015260640161039e565b6106017f0af1dac7dea2fd7f7738119cec7df099dfad49aa9d2e7d17ba6b60f63ae7411f85610a62565b61062b7f241ecf16d79d0f8dbfb92cbc07fe17840425976cf0667f022fe9877caa831b0884610a62565b60019182556002556004805460ff191690911790555050565b60035460609067ffffffffffffffff81111561067057634e487b7160e01b600052604160045260246000fd5b6040519080825280602002602001820160405280156106c357816020015b6040805160808101825260008082526020808301829052606093830184905292820152825260001990920191018161068e5790505b50905060005b60035481101561091c576000600382815481106106f657634e487b7160e01b600052603260045260246000fd5b9060005260206000200160009054906101000a90046001600160a01b0316905060405180608001604052806003848154811061074257634e487b7160e01b600052603260045260246000fd5b9060005260206000200160009054906101000a90046001600160a01b03166001600160a01b03168152602001826001600160a01b0316637b0f9a366040518163ffffffff1660e01b815260040160206040518083038186803b1580156107a757600080fd5b505afa1580156107bb573d6000803e3d6000fd5b505050506040513d601f19601f820116820180604052508101906107df9190610dfb565b6001600160a01b03168152602001826001600160a01b031663f595c4856040518163ffffffff1660e01b815260040160006040518083038186803b15801561082657600080fd5b505afa15801561083a573d6000803e3d6000fd5b505050506040513d6000823e601f3d908101601f191682016040526108629190810190610f5d565b8152602001826001600160a01b031663b2fa1c9e6040518163ffffffff1660e01b815260040160206040518083038186803b1580156108a057600080fd5b505afa1580156108b4573d6000803e3d6000fd5b505050506040513d601f19601f820116820180604052508101906108d89190610eb6565b15158152508383815181106108fd57634e487b7160e01b600052603260045260246000fd5b6020026020010181905250508080610914906111fc565b9150506106c9565b5090565b6109286104cb565b600380546001810182556000919091527fc2575a0e9e593c00f959f8c92f12db2869c3395a3b0502d05e2516446f71f85b0180547fffffffffffffffffffffffff0000000000000000000000000000000000000000166001600160a01b0392909216919091179055565b6000828152602081905260409020600101546109ad816109b7565b61034a8383610a6c565b6109c18133610aeb565b50565b6000828152602081815260408083206001600160a01b038516845290915290205460ff166104c7576000828152602081815260408083206001600160a01b03851684529091529020805460ff19166001179055610a1e3390565b6001600160a01b0316816001600160a01b0316837f2f8788117e7eff1d82e926ec794901d17c78024a50270940304540a733656f0d60405160405180910390a45050565b6104c782826109c4565b6000828152602081815260408083206001600160a01b038516845290915290205460ff16156104c7576000828152602081815260408083206001600160a01b0385168085529252808320805460ff1916905551339285917ff6391f5c32d9c69d2a47ea670b442974b53935d1edc7fd64eb21e047a839171b9190a45050565b6000828152602081815260408083206001600160a01b038516845290915290205460ff166104c757610b27816001600160a01b03166014610b69565b610b32836020610b69565b604051602001610b43929190611032565b60408051601f198184030181529082905262461bcd60e51b825261039e9160040161116b565b60606000610b78836002611196565b610b8390600261117e565b67ffffffffffffffff811115610ba957634e487b7160e01b600052604160045260246000fd5b6040519080825280601f01601f191660200182016040528015610bd3576020820181803683370190505b5090507f300000000000000000000000000000000000000000000000000000000000000081600081518110610c1857634e487b7160e01b600052603260045260246000fd5b60200101907effffffffffffffffffffffffffffffffffffffffffffffffffffffffffffff1916908160001a9053507f780000000000000000000000000000000000000000000000000000000000000081600181518110610c8957634e487b7160e01b600052603260045260246000fd5b60200101907effffffffffffffffffffffffffffffffffffffffffffffffffffffffffffff1916908160001a9053506000610cc5846002611196565b610cd090600161117e565b90505b6001811115610d89577f303132333435363738396162636465660000000000000000000000000000000085600f1660108110610d1f57634e487b7160e01b600052603260045260246000fd5b1a60f81b828281518110610d4357634e487b7160e01b600052603260045260246000fd5b60200101907effffffffffffffffffffffffffffffffffffffffffffffffffffffffffffff1916908160001a90535060049490941c93610d82816111e5565b9050610cd3565b508315610dd85760405162461bcd60e51b815260206004820181905260248201527f537472696e67733a20686578206c656e67746820696e73756666696369656e74604482015260640161039e565b9392505050565b600060208284031215610df0578081fd5b8135610dd881611243565b600060208284031215610e0c578081fd5b8151610dd881611243565b600080600080600060a08688031215610e2e578081fd5b8535610e3981611243565b94506020860135610e4981611243565b93506040860135610e5981611243565b94979396509394606081013594506080013592915050565b60008060008060808587031215610e86578384fd5b8435610e9181611243565b93506020850135610ea181611243565b93969395505050506040820135916060013590565b600060208284031215610ec7578081fd5b81518015158114610dd8578182fd5b600060208284031215610ee7578081fd5b5035919050565b60008060408385031215610f00578182fd5b823591506020830135610f1281611243565b809150509250929050565b600060208284031215610f2e578081fd5b81357fffffffff0000000000000000000000000000000000000000000000000000000081168114610dd8578182fd5b600060208284031215610f6e578081fd5b815167ffffffffffffffff80821115610f85578283fd5b818401915084601f830112610f98578283fd5b815181811115610faa57610faa61122d565b604051601f8201601f19908116603f01168101908382118183101715610fd257610fd261122d565b81604052828152876020848701011115610fea578586fd5b610ffb8360208301602088016111b5565b979650505050505050565b6000815180845261101e8160208601602086016111b5565b601f01601f19169290920160200192915050565b7f416363657373436f6e74726f6c3a206163636f756e742000000000000000000081526000835161106a8160178501602088016111b5565b7f206973206d697373696e6720726f6c652000000000000000000000000000000060179184019182015283516110a78160288401602088016111b5565b01602801949350505050565b60006020808301818452808551808352604092508286019150828160051b870101848801865b8381101561115d577fffffffffffffffffffffffffffffffffffffffffffffffffffffffffffffffc0898403018552815160806001600160a01b03808351168652808a840151168a8701525087820151818987015261113a82870182611006565b6060938401511515969093019590955250948701949250908601906001016110d9565b509098975050505050505050565b602081526000610dd86020830184611006565b6000821982111561119157611191611217565b500190565b60008160001904831182151516156111b0576111b0611217565b500290565b60005b838110156111d05781810151838201526020016111b8565b838111156111df576000848401525b50505050565b6000816111f4576111f4611217565b506000190190565b600060001982141561121057611210611217565b5060010190565b634e487b7160e01b600052601160045260246000fd5b634e487b7160e01b600052604160045260246000fd5b6001600160a01b03811681146109c157600080fdfea26469706673582212205930927cb7bc39b704a319eb65184b43f737ba63c34413abb30217d88151263c64736f6c63430008040033",
  "immutableReferences": {},
  "source": "// SPDX-License-Identifier: MIT\npragma solidity ^0.8.4;\n\nimport \"@openzeppelin/contracts/access/AccessControl.sol\";\nimport \"./Treatment.sol\";\nimport \"./TreatmentFactory.sol\";\n\nstruct DoctorTreatmentMeta {\n    address id;\n    address patient;\n    string medicine;\n    bool completed;\n}\n\nstruct DoctorStruct {\n    bytes32 name;\n    bytes32 affiliate;\n}\n\ncontract Doctor is AccessControl {\n    bytes32 public constant DOCTOR_ROLE = keccak256(\"DOCTOR_ROLE\");\n    bytes32 public constant MANAGER_ROLE = keccak256(\"MANAGER_ROLE\");\n\n    bytes32 private name;\n    bytes32 private affiliate;\n    address[] private treatments;\n    bool private init;\n\n    constructor() {\n        _setRoleAdmin(MANAGER_ROLE, DEFAULT_ADMIN_ROLE);\n    }\n\n    modifier canWrite() {\n        hasWriteAccess();\n        _;\n    }\n\n    function hasWriteAccess() public view {\n        require(\n            hasRole(MANAGER_ROLE, msg.sender) ||\n                hasRole(DOCTOR_ROLE, msg.sender),\n            \"Need write access\"\n        );\n    }\n\n    function initialize(\n        address owner_,\n        address manager_,\n        bytes32 name_,\n        bytes32 affiliate_\n    ) external {\n        require(init == false, \"Already initialized\");\n        _setupRole(DOCTOR_ROLE, owner_);\n        _setupRole(MANAGER_ROLE, manager_);\n\n        name = name_;\n        affiliate = affiliate_;\n        init = true;\n    }\n\n    function initializeFromApp(\n        address owner_,\n        address app_,\n        address manager_,\n        bytes32 name_,\n        bytes32 affiliate_\n    ) external {\n        require(init == false, \"Already initialized\");\n        _setupRole(DOCTOR_ROLE, owner_);\n        _setupRole(MANAGER_ROLE, manager_);\n        _setupRole(MANAGER_ROLE, app_);\n\n        name = name_;\n        affiliate = affiliate_;\n        init = true;\n    }\n\n    function getInfo() public view returns (bytes32 name_, bytes32 affiliate_) {\n        name_ = name;\n        affiliate_ = affiliate;\n    }\n\n    function addTreatment(address treatment_) public canWrite {\n        treatments.push(treatment_);\n    }\n\n    function getTreatments()\n        external\n        view\n        returns (DoctorTreatmentMeta[] memory treatments_)\n    {\n        treatments_ = new DoctorTreatmentMeta[](treatments.length);\n        for (uint256 i = 0; i < treatments.length; i++) {\n            Treatment treatment = Treatment(treatments[i]);\n            treatments_[i] = DoctorTreatmentMeta(\n                treatments[i],\n                treatment.getPatient(),\n                treatment.getMedicine(),\n                treatment.isComplete()\n            );\n        }\n    }\n}\n",
  "sourcePath": "/home/leslie/Documents/GitHub/svelte-blockchain-template-sveltekit/contracts/Doctor.sol",
  "compiler": {
    "name": "solc",
    "version": "0.8.4+commit.c7e474f2.Emscripten.clang"
  },
  "schemaVersion": "3.4.9",
  "updatedAt": "2023-01-12T08:14:01.597Z",
  "devdoc": {
    "kind": "dev",
    "methods": {
      "getRoleAdmin(bytes32)": {
        "details": "Returns the admin role that controls `role`. See {grantRole} and {revokeRole}. To change a role's admin, use {_setRoleAdmin}."
      },
      "grantRole(bytes32,address)": {
        "details": "Grants `role` to `account`. If `account` had not been already granted `role`, emits a {RoleGranted} event. Requirements: - the caller must have ``role``'s admin role. May emit a {RoleGranted} event."
      },
      "hasRole(bytes32,address)": {
        "details": "Returns `true` if `account` has been granted `role`."
      },
      "renounceRole(bytes32,address)": {
        "details": "Revokes `role` from the calling account. Roles are often managed via {grantRole} and {revokeRole}: this function's purpose is to provide a mechanism for accounts to lose their privileges if they are compromised (such as when a trusted device is misplaced). If the calling account had been revoked `role`, emits a {RoleRevoked} event. Requirements: - the caller must be `account`. May emit a {RoleRevoked} event."
      },
      "revokeRole(bytes32,address)": {
        "details": "Revokes `role` from `account`. If `account` had been granted `role`, emits a {RoleRevoked} event. Requirements: - the caller must have ``role``'s admin role. May emit a {RoleRevoked} event."
      },
      "supportsInterface(bytes4)": {
        "details": "See {IERC165-supportsInterface}."
      }
    },
    "version": 1
  },
  "userdoc": {
    "kind": "user",
    "methods": {},
    "version": 1
  }
}