{
  "contractName": "DoctorFactory",
  "abi": [
    {
      "inputs": [],
      "stateMutability": "nonpayable",
      "type": "constructor"
    },
    {
      "anonymous": false,
      "inputs": [
        {
          "indexed": true,
          "internalType": "address",
          "name": "previousOwner",
          "type": "address"
        },
        {
          "indexed": true,
          "internalType": "address",
          "name": "newOwner",
          "type": "address"
        }
      ],
      "name": "OwnershipTransferred",
      "type": "event"
    },
    {
      "inputs": [],
      "name": "owner",
      "outputs": [
        {
          "internalType": "address",
          "name": "",
          "type": "address"
        }
      ],
      "stateMutability": "view",
      "type": "function"
    },
    {
      "inputs": [],
      "name": "renounceOwnership",
      "outputs": [],
      "stateMutability": "nonpayable",
      "type": "function"
    },
    {
      "inputs": [
        {
          "internalType": "address",
          "name": "newOwner",
          "type": "address"
        }
      ],
      "name": "transferOwnership",
      "outputs": [],
      "stateMutability": "nonpayable",
      "type": "function"
    },
    {
      "inputs": [
        {
          "internalType": "address",
          "name": "doctor_",
          "type": "address"
        },
        {
          "internalType": "bytes32",
          "name": "name_",
          "type": "bytes32"
        },
        {
          "internalType": "bytes32",
          "name": "affiliate_",
          "type": "bytes32"
        },
        {
          "components": [
            {
              "internalType": "bool",
              "name": "fromApp",
              "type": "bool"
            },
            {
              "internalType": "address",
              "name": "addr",
              "type": "address"
            }
          ],
          "internalType": "struct FromAppOption",
          "name": "option_",
          "type": "tuple"
        }
      ],
      "name": "createDoctor",
      "outputs": [
        {
          "internalType": "address",
          "name": "clone",
          "type": "address"
        }
      ],
      "stateMutability": "nonpayable",
      "type": "function"
    }
  ],
  "bytecode": "0x60a060405234801561001057600080fd5b5061001a33610058565b604051610026906100a8565b604051809103906000f080158015610042573d6000803e3d6000fd5b5060601b6001600160601b0319166080526100b5565b600080546001600160a01b038381166001600160a01b0319831681178455604051919092169283917f8be0079c531659141344cd1fd0a4f28419497f9722a3daafe3b4186f6b6457e09190a35050565b6117448061071683390190565b60805160601c6106446100d2600039600060e701526106446000f3fe608060405234801561001057600080fd5b506004361061004c5760003560e01c8063715018a6146100515780638da5cb5b1461005b578063f13e48691461009e578063f2fde38b146100b1575b600080fd5b6100596100c4565b005b60005473ffffffffffffffffffffffffffffffffffffffff165b60405173ffffffffffffffffffffffffffffffffffffffff909116815260200160405180910390f35b6100756100ac366004610534565b6100d8565b6100596100bf366004610513565b61025b565b6100cc610317565b6100d66000610398565b565b60006100e2610317565b61010b7f000000000000000000000000000000000000000000000000000000000000000061040d565b8251909150156101bd5760208201516040517f303d38b100000000000000000000000000000000000000000000000000000000815273ffffffffffffffffffffffffffffffffffffffff8781166004830152918216602482015233604482015260648101869052608481018590529082169063303d38b19060a401600060405180830381600087803b1580156101a057600080fd5b505af11580156101b4573d6000803e3d6000fd5b50505050610253565b6040517f76cfcff600000000000000000000000000000000000000000000000000000000815273ffffffffffffffffffffffffffffffffffffffff868116600483015233602483015260448201869052606482018590528216906376cfcff690608401600060405180830381600087803b15801561023a57600080fd5b505af115801561024e573d6000803e3d6000fd5b505050505b949350505050565b610263610317565b73ffffffffffffffffffffffffffffffffffffffff811661030b576040517f08c379a000000000000000000000000000000000000000000000000000000000815260206004820152602660248201527f4f776e61626c653a206e6577206f776e657220697320746865207a65726f206160448201527f646472657373000000000000000000000000000000000000000000000000000060648201526084015b60405180910390fd5b61031481610398565b50565b60005473ffffffffffffffffffffffffffffffffffffffff1633146100d6576040517f08c379a000000000000000000000000000000000000000000000000000000000815260206004820181905260248201527f4f776e61626c653a2063616c6c6572206973206e6f7420746865206f776e65726044820152606401610302565b6000805473ffffffffffffffffffffffffffffffffffffffff8381167fffffffffffffffffffffffff0000000000000000000000000000000000000000831681178455604051919092169283917f8be0079c531659141344cd1fd0a4f28419497f9722a3daafe3b4186f6b6457e09190a35050565b60006040517f3d602d80600a3d3981f3363d3d373d3d3d363d7300000000000000000000000081528260601b60148201527f5af43d82803e903d91602b57fd5bf3000000000000000000000000000000000060288201526037816000f091505073ffffffffffffffffffffffffffffffffffffffff81166104ea576040517f08c379a000000000000000000000000000000000000000000000000000000000815260206004820152601660248201527f455243313136373a20637265617465206661696c6564000000000000000000006044820152606401610302565b919050565b803573ffffffffffffffffffffffffffffffffffffffff811681146104ea57600080fd5b600060208284031215610524578081fd5b61052d826104ef565b9392505050565b60008060008084860360a081121561054a578384fd5b610553866104ef565b9450602086013593506040860135925060407fffffffffffffffffffffffffffffffffffffffffffffffffffffffffffffffa082011215610592578182fd5b506040516040810181811067ffffffffffffffff821117156105db577f4e487b710000000000000000000000000000000000000000000000000000000083526041600452602483fd5b604052606086013580151581146105f0578283fd5b81526105fe608087016104ef565b602082015293969295509093505056fea26469706673582212207a68757846057fab7d32cf23f44f6da1efffc198019bb3e801356140c31b8e5464736f6c63430008040033608060405234801561001057600080fd5b5061003c7f241ecf16d79d0f8dbfb92cbc07fe17840425976cf0667f022fe9877caa831b086000610041565b61008c565b600082815260208190526040808220600101805490849055905190918391839186917fbd79b86ffe0ab8e8776151514217cd7cacd52c909f66475c3af44e129f0b00ff9190a4505050565b6116a98061009b6000396000f3fe608060405234801561001057600080fd5b50600436106100f55760003560e01c806376cfcff611610097578063d294ffe011610066578063d294ffe014610225578063d547741f14610238578063ec87621c1461024b578063fec331f21461027257600080fd5b806376cfcff6146101b15780638bb25419146101c457806391d14854146101d9578063a217fddf1461021d57600080fd5b8063303d38b1116100d3578063303d38b11461016857806336568abe1461017b5780635a9b0b891461018e578063602792b0146101a957600080fd5b806301ffc9a7146100fa578063248a9ca3146101225780632f2ff15d14610153575b600080fd5b61010d610108366004611256565b610299565b60405190151581526020015b60405180910390f35b61014561013036600461120f565b60009081526020819052604090206001015490565b604051908152602001610119565b610166610161366004611227565b610332565b005b610166610176366004611150565b61035c565b610166610189366004611227565b610484565b60015460025460408051928352602083019190915201610119565b610166610537565b6101666101bf3660046111aa565b61060a565b6101cc610702565b6040516101199190611428565b61010d6101e7366004611227565b60009182526020828152604080842073ffffffffffffffffffffffffffffffffffffffff93909316845291905290205460ff1690565b610145600081565b610166610233366004611118565b610ad9565b610166610246366004611227565b610b58565b6101457f241ecf16d79d0f8dbfb92cbc07fe17840425976cf0667f022fe9877caa831b0881565b6101457f0af1dac7dea2fd7f7738119cec7df099dfad49aa9d2e7d17ba6b60f63ae7411f81565b60007fffffffff0000000000000000000000000000000000000000000000000000000082167f7965db0b00000000000000000000000000000000000000000000000000000000148061032c57507f01ffc9a7000000000000000000000000000000000000000000000000000000007fffffffff000000000000000000000000000000000000000000000000000000008316145b92915050565b60008281526020819052604090206001015461034d81610b7d565b6103578383610b8a565b505050565b60045460ff16156103ce576040517f08c379a000000000000000000000000000000000000000000000000000000000815260206004820152601360248201527f416c726561647920696e697469616c697a65640000000000000000000000000060448201526064015b60405180910390fd5b6103f87f0af1dac7dea2fd7f7738119cec7df099dfad49aa9d2e7d17ba6b60f63ae7411f86610c7a565b6104227f241ecf16d79d0f8dbfb92cbc07fe17840425976cf0667f022fe9877caa831b0884610c7a565b61044c7f241ecf16d79d0f8dbfb92cbc07fe17840425976cf0667f022fe9877caa831b0885610c7a565b6001918255600255600480547fffffffffffffffffffffffffffffffffffffffffffffffffffffffffffffff00169091179055505050565b73ffffffffffffffffffffffffffffffffffffffff81163314610529576040517f08c379a000000000000000000000000000000000000000000000000000000000815260206004820152602f60248201527f416363657373436f6e74726f6c3a2063616e206f6e6c792072656e6f756e636560448201527f20726f6c657320666f722073656c66000000000000000000000000000000000060648201526084016103c5565b6105338282610c84565b5050565b3360009081527fe84508f2c7fa9c351146748b3025cb78b45df37d868e48c6a75102fecdeee645602052604090205460ff16806105a257503360009081527fdf1cb6f79b8687a60e91aced08290a53cb47a179b80c0c7c836d1c923c9a5647602052604090205460ff165b610608576040517f08c379a000000000000000000000000000000000000000000000000000000000815260206004820152601160248201527f4e6565642077726974652061636365737300000000000000000000000000000060448201526064016103c5565b565b60045460ff1615610677576040517f08c379a000000000000000000000000000000000000000000000000000000000815260206004820152601360248201527f416c726561647920696e697469616c697a65640000000000000000000000000060448201526064016103c5565b6106a17f0af1dac7dea2fd7f7738119cec7df099dfad49aa9d2e7d17ba6b60f63ae7411f85610c7a565b6106cb7f241ecf16d79d0f8dbfb92cbc07fe17840425976cf0667f022fe9877caa831b0884610c7a565b6001918255600255600480547fffffffffffffffffffffffffffffffffffffffffffffffffffffffffffffff001690911790555050565b60035460609067ffffffffffffffff811115610747577f4e487b7100000000000000000000000000000000000000000000000000000000600052604160045260246000fd5b6040519080825280602002602001820160405280156107b857816020015b604080516080810182526000808252602080830182905260609383018490529282015282527fffffffffffffffffffffffffffffffffffffffffffffffffffffffffffffffff9092019101816107655790505b50905060005b600354811015610ad557600060038281548110610804577f4e487b7100000000000000000000000000000000000000000000000000000000600052603260045260246000fd5b9060005260206000200160009054906101000a900473ffffffffffffffffffffffffffffffffffffffff169050604051806080016040528060038481548110610876577f4e487b7100000000000000000000000000000000000000000000000000000000600052603260045260246000fd5b9060005260206000200160009054906101000a900473ffffffffffffffffffffffffffffffffffffffff1673ffffffffffffffffffffffffffffffffffffffff1681526020018273ffffffffffffffffffffffffffffffffffffffff16637b0f9a366040518163ffffffff1660e01b815260040160206040518083038186803b15801561090257600080fd5b505afa158015610916573d6000803e3d6000fd5b505050506040513d601f19601f8201168201806040525081019061093a9190611134565b73ffffffffffffffffffffffffffffffffffffffff1681526020018273ffffffffffffffffffffffffffffffffffffffff1663f595c4856040518163ffffffff1660e01b815260040160006040518083038186803b15801561099b57600080fd5b505afa1580156109af573d6000803e3d6000fd5b505050506040513d6000823e601f3d9081017fffffffffffffffffffffffffffffffffffffffffffffffffffffffffffffffe01682016040526109f59190810190611296565b81526020018273ffffffffffffffffffffffffffffffffffffffff1663b2fa1c9e6040518163ffffffff1660e01b815260040160206040518083038186803b158015610a4057600080fd5b505afa158015610a54573d6000803e3d6000fd5b505050506040513d601f19601f82011682018060405250810190610a7891906111ef565b1515815250838381518110610ab6577f4e487b7100000000000000000000000000000000000000000000000000000000600052603260045260246000fd5b6020026020010181905250508080610acd906115ba565b9150506107be565b5090565b610ae1610537565b600380546001810182556000919091527fc2575a0e9e593c00f959f8c92f12db2869c3395a3b0502d05e2516446f71f85b0180547fffffffffffffffffffffffff00000000000000000000000000000000000000001673ffffffffffffffffffffffffffffffffffffffff92909216919091179055565b600082815260208190526040902060010154610b7381610b7d565b6103578383610c84565b610b878133610d3b565b50565b60008281526020818152604080832073ffffffffffffffffffffffffffffffffffffffff8516845290915290205460ff166105335760008281526020818152604080832073ffffffffffffffffffffffffffffffffffffffff85168452909152902080547fffffffffffffffffffffffffffffffffffffffffffffffffffffffffffffff00166001179055610c1c3390565b73ffffffffffffffffffffffffffffffffffffffff168173ffffffffffffffffffffffffffffffffffffffff16837f2f8788117e7eff1d82e926ec794901d17c78024a50270940304540a733656f0d60405160405180910390a45050565b6105338282610b8a565b60008281526020818152604080832073ffffffffffffffffffffffffffffffffffffffff8516845290915290205460ff16156105335760008281526020818152604080832073ffffffffffffffffffffffffffffffffffffffff8516808552925280832080547fffffffffffffffffffffffffffffffffffffffffffffffffffffffffffffff0016905551339285917ff6391f5c32d9c69d2a47ea670b442974b53935d1edc7fd64eb21e047a839171b9190a45050565b60008281526020818152604080832073ffffffffffffffffffffffffffffffffffffffff8516845290915290205460ff1661053357610d918173ffffffffffffffffffffffffffffffffffffffff166014610e0b565b610d9c836020610e0b565b604051602001610dad9291906113a7565b604080517fffffffffffffffffffffffffffffffffffffffffffffffffffffffffffffffe0818403018152908290527f08c379a00000000000000000000000000000000000000000000000000000000082526103c5916004016114ed565b60606000610e1a836002611518565b610e25906002611500565b67ffffffffffffffff811115610e64577f4e487b7100000000000000000000000000000000000000000000000000000000600052604160045260246000fd5b6040519080825280601f01601f191660200182016040528015610e8e576020820181803683370190505b5090507f300000000000000000000000000000000000000000000000000000000000000081600081518110610eec577f4e487b7100000000000000000000000000000000000000000000000000000000600052603260045260246000fd5b60200101907effffffffffffffffffffffffffffffffffffffffffffffffffffffffffffff1916908160001a9053507f780000000000000000000000000000000000000000000000000000000000000081600181518110610f76577f4e487b7100000000000000000000000000000000000000000000000000000000600052603260045260246000fd5b60200101907effffffffffffffffffffffffffffffffffffffffffffffffffffffffffffff1916908160001a9053506000610fb2846002611518565b610fbd906001611500565b90505b60018111156110a8577f303132333435363738396162636465660000000000000000000000000000000085600f1660108110611025577f4e487b7100000000000000000000000000000000000000000000000000000000600052603260045260246000fd5b1a60f81b828281518110611062577f4e487b7100000000000000000000000000000000000000000000000000000000600052603260045260246000fd5b60200101907effffffffffffffffffffffffffffffffffffffffffffffffffffffffffffff1916908160001a90535060049490941c936110a181611585565b9050610fc0565b508315611111576040517f08c379a000000000000000000000000000000000000000000000000000000000815260206004820181905260248201527f537472696e67733a20686578206c656e67746820696e73756666696369656e7460448201526064016103c5565b9392505050565b600060208284031215611129578081fd5b813561111181611651565b600060208284031215611145578081fd5b815161111181611651565b600080600080600060a08688031215611167578081fd5b853561117281611651565b9450602086013561118281611651565b9350604086013561119281611651565b94979396509394606081013594506080013592915050565b600080600080608085870312156111bf578384fd5b84356111ca81611651565b935060208501356111da81611651565b93969395505050506040820135916060013590565b600060208284031215611200578081fd5b81518015158114611111578182fd5b600060208284031215611220578081fd5b5035919050565b60008060408385031215611239578182fd5b82359150602083013561124b81611651565b809150509250929050565b600060208284031215611267578081fd5b81357fffffffff0000000000000000000000000000000000000000000000000000000081168114611111578182fd5b6000602082840312156112a7578081fd5b815167ffffffffffffffff808211156112be578283fd5b818401915084601f8301126112d1578283fd5b8151818111156112e3576112e3611622565b604051601f82017fffffffffffffffffffffffffffffffffffffffffffffffffffffffffffffffe0908116603f0116810190838211818310171561132957611329611622565b81604052828152876020848701011115611341578586fd5b611352836020830160208801611555565b979650505050505050565b60008151808452611375816020860160208601611555565b601f017fffffffffffffffffffffffffffffffffffffffffffffffffffffffffffffffe0169290920160200192915050565b7f416363657373436f6e74726f6c3a206163636f756e74200000000000000000008152600083516113df816017850160208801611555565b7f206973206d697373696e6720726f6c6520000000000000000000000000000000601791840191820152835161141c816028840160208801611555565b01602801949350505050565b60006020808301818452808551808352604092508286019150828160051b870101848801865b838110156114df577fffffffffffffffffffffffffffffffffffffffffffffffffffffffffffffffc08984030185528151608073ffffffffffffffffffffffffffffffffffffffff808351168652808a840151168a870152508782015181898701526114bc8287018261135d565b60609384015115159690930195909552509487019492509086019060010161144e565b509098975050505050505050565b602081526000611111602083018461135d565b60008219821115611513576115136115f3565b500190565b6000817fffffffffffffffffffffffffffffffffffffffffffffffffffffffffffffffff0483118215151615611550576115506115f3565b500290565b60005b83811015611570578181015183820152602001611558565b8381111561157f576000848401525b50505050565b600081611594576115946115f3565b507fffffffffffffffffffffffffffffffffffffffffffffffffffffffffffffffff0190565b60007fffffffffffffffffffffffffffffffffffffffffffffffffffffffffffffffff8214156115ec576115ec6115f3565b5060010190565b7f4e487b7100000000000000000000000000000000000000000000000000000000600052601160045260246000fd5b7f4e487b7100000000000000000000000000000000000000000000000000000000600052604160045260246000fd5b73ffffffffffffffffffffffffffffffffffffffff81168114610b8757600080fdfea264697066735822122094fa65ad42a3e5f0a6ebaf4e8741d18fbf3a502e5a44d698d6b63c8bcf7fbcff64736f6c63430008040033",
  "immutableReferences": {
    "1340": [
      {
        "length": 32,
        "start": 231
      }
    ]
  },
  "source": "// SPDX-License-Identifier: MIT\npragma solidity ^0.8.4;\n\nimport \"@openzeppelin/contracts/proxy/Clones.sol\";\nimport \"@openzeppelin/contracts/access/Ownable.sol\";\nimport \"./Doctor.sol\";\nimport \"./Helper.sol\";\n\ncontract DoctorFactory is Ownable {\n    address immutable doctorImplementation;\n\n    constructor() {\n        doctorImplementation = address(new Doctor());\n    }\n\n    function createDoctor(\n        address doctor_,\n        bytes32 name_,\n        bytes32 affiliate_,\n        FromAppOption memory option_\n    ) external onlyOwner returns (address clone) {\n        clone = Clones.clone(doctorImplementation);\n        if (option_.fromApp) {\n            Doctor(clone).initializeFromApp(\n                doctor_,\n                option_.addr,\n                msg.sender,\n                name_,\n                affiliate_\n            );\n        } else {\n            Doctor(clone).initialize(doctor_, msg.sender, name_, affiliate_);\n        }\n    }\n}\n",
  "sourcePath": "/home/leslie/Documents/GitHub/svelte-blockchain-template-sveltekit/contracts/DoctorFactory.sol",
  "compiler": {
    "name": "solc",
    "version": "0.8.4+commit.c7e474f2.Emscripten.clang"
  },
  "schemaVersion": "3.4.9",
  "updatedAt": "2023-01-14T07:32:26.318Z",
  "devdoc": {
    "kind": "dev",
    "methods": {
      "owner()": {
        "details": "Returns the address of the current owner."
      },
      "renounceOwnership()": {
        "details": "Leaves the contract without owner. It will not be possible to call `onlyOwner` functions anymore. Can only be called by the current owner. NOTE: Renouncing ownership will leave the contract without an owner, thereby removing any functionality that is only available to the owner."
      },
      "transferOwnership(address)": {
        "details": "Transfers ownership of the contract to a new account (`newOwner`). Can only be called by the current owner."
      }
    },
    "version": 1
  },
  "userdoc": {
    "kind": "user",
    "methods": {},
    "version": 1
  }
}