{
  "contractName": "PatientFactory",
  "abi": [
    {
      "inputs": [],
      "stateMutability": "nonpayable",
      "type": "constructor"
    },
    {
      "anonymous": false,
      "inputs": [
        {
          "indexed": true,
          "internalType": "address",
          "name": "previousOwner",
          "type": "address"
        },
        {
          "indexed": true,
          "internalType": "address",
          "name": "newOwner",
          "type": "address"
        }
      ],
      "name": "OwnershipTransferred",
      "type": "event"
    },
    {
      "inputs": [],
      "name": "owner",
      "outputs": [
        {
          "internalType": "address",
          "name": "",
          "type": "address"
        }
      ],
      "stateMutability": "view",
      "type": "function"
    },
    {
      "inputs": [],
      "name": "renounceOwnership",
      "outputs": [],
      "stateMutability": "nonpayable",
      "type": "function"
    },
    {
      "inputs": [
        {
          "internalType": "address",
          "name": "newOwner",
          "type": "address"
        }
      ],
      "name": "transferOwnership",
      "outputs": [],
      "stateMutability": "nonpayable",
      "type": "function"
    },
    {
      "inputs": [
        {
          "internalType": "address",
          "name": "owner_",
          "type": "address"
        },
        {
          "components": [
            {
              "internalType": "bytes32",
              "name": "value1",
              "type": "bytes32"
            },
            {
              "internalType": "bytes32",
              "name": "value2",
              "type": "bytes32"
            }
          ],
          "internalType": "struct Bytes32Pair",
          "name": "nameGender_",
          "type": "tuple"
        },
        {
          "internalType": "uint256",
          "name": "dob_",
          "type": "uint256"
        },
        {
          "internalType": "uint16",
          "name": "height_",
          "type": "uint16"
        },
        {
          "internalType": "uint16",
          "name": "weight_",
          "type": "uint16"
        },
        {
          "internalType": "string[]",
          "name": "allergy_",
          "type": "string[]"
        },
        {
          "components": [
            {
              "internalType": "bool",
              "name": "value1",
              "type": "bool"
            },
            {
              "internalType": "bool",
              "name": "value2",
              "type": "bool"
            },
            {
              "internalType": "bool",
              "name": "value3",
              "type": "bool"
            }
          ],
          "internalType": "struct BoolTriple",
          "name": "alcoholSmokeCannabis_",
          "type": "tuple"
        },
        {
          "components": [
            {
              "internalType": "bool",
              "name": "fromApp",
              "type": "bool"
            },
            {
              "internalType": "address",
              "name": "addr",
              "type": "address"
            }
          ],
          "internalType": "struct FromAppOption",
          "name": "option_",
          "type": "tuple"
        }
      ],
      "name": "createPatient",
      "outputs": [
        {
          "internalType": "address",
          "name": "clone",
          "type": "address"
        }
      ],
      "stateMutability": "nonpayable",
      "type": "function"
    }
  ],
  "bytecode": "0x60a060405234801561001057600080fd5b5061001a33610058565b604051610026906100a8565b604051809103906000f080158015610042573d6000803e3d6000fd5b5060601b6001600160601b0319166080526100b5565b600080546001600160a01b038381166001600160a01b0319831681178455604051919092169283917f8be0079c531659141344cd1fd0a4f28419497f9722a3daafe3b4186f6b6457e09190a35050565b6133a180610c1c83390190565b60805160601c610b4a6100d2600039600060e70152610b4a6000f3fe608060405234801561001057600080fd5b506004361061004c5760003560e01c8063715018a6146100515780638da5cb5b1461005b578063a402856c1461009e578063f2fde38b146100b1575b600080fd5b6100596100c4565b005b60005473ffffffffffffffffffffffffffffffffffffffff165b60405173ffffffffffffffffffffffffffffffffffffffff909116815260200160405180910390f35b6100756100ac366004610787565b6100d8565b6100596100bf366004610766565b6102b8565b6100cc610374565b6100d660006103f5565b565b60006100e2610374565b61010b7f000000000000000000000000000000000000000000000000000000000000000061046a565b8251909150156101e1578073ffffffffffffffffffffffffffffffffffffffff16630444670c338b856020015160405180604001604052808e6000015181526020018e602001518152508c8c8c8c60405180606001604052808e60000151151581526020018e60200151151581526020018e6040015115158152506040518a63ffffffff1660e01b81526004016101aa9998979695949392919061091d565b600060405180830381600087803b1580156101c457600080fd5b505af11580156101d8573d6000803e3d6000fd5b505050506102ac565b604080518082018252895181526020808b0151818301528251606081018452865115158152868201511515918101919091528583015115158184015291517f2372f9c200000000000000000000000000000000000000000000000000000000815273ffffffffffffffffffffffffffffffffffffffff841692632372f9c2926102799233928f92918e918e918e918e916004016109ca565b600060405180830381600087803b15801561029357600080fd5b505af11580156102a7573d6000803e3d6000fd5b505050505b98975050505050505050565b6102c0610374565b73ffffffffffffffffffffffffffffffffffffffff8116610368576040517f08c379a000000000000000000000000000000000000000000000000000000000815260206004820152602660248201527f4f776e61626c653a206e6577206f776e657220697320746865207a65726f206160448201527f646472657373000000000000000000000000000000000000000000000000000060648201526084015b60405180910390fd5b610371816103f5565b50565b60005473ffffffffffffffffffffffffffffffffffffffff1633146100d6576040517f08c379a000000000000000000000000000000000000000000000000000000000815260206004820181905260248201527f4f776e61626c653a2063616c6c6572206973206e6f7420746865206f776e6572604482015260640161035f565b6000805473ffffffffffffffffffffffffffffffffffffffff8381167fffffffffffffffffffffffff0000000000000000000000000000000000000000831681178455604051919092169283917f8be0079c531659141344cd1fd0a4f28419497f9722a3daafe3b4186f6b6457e09190a35050565b60006040517f3d602d80600a3d3981f3363d3d373d3d3d363d7300000000000000000000000081528260601b60148201527f5af43d82803e903d91602b57fd5bf3000000000000000000000000000000000060288201526037816000f091505073ffffffffffffffffffffffffffffffffffffffff8116610547576040517f08c379a000000000000000000000000000000000000000000000000000000000815260206004820152601660248201527f455243313136373a20637265617465206661696c656400000000000000000000604482015260640161035f565b919050565b803573ffffffffffffffffffffffffffffffffffffffff8116811461054757600080fd5b600082601f830112610580578081fd5b8135602067ffffffffffffffff8083111561059d5761059d610ae5565b8260051b6105ac838201610a96565b8481528381019087850183890186018a10156105c6578788fd5b8793505b86841015610603578035858111156105e0578889fd5b6105ee8b88838d0101610620565b845250600193909301929185019185016105ca565b5098975050505050505050565b8035801515811461054757600080fd5b600082601f830112610630578081fd5b813567ffffffffffffffff81111561064a5761064a610ae5565b61067b60207fffffffffffffffffffffffffffffffffffffffffffffffffffffffffffffffe0601f84011601610a96565b81815284602083860101111561068f578283fd5b816020850160208301379081016020019190915292915050565b6000606082840312156106ba578081fd5b6040516060810181811067ffffffffffffffff821117156106dd576106dd610ae5565b6040529050806106ec83610610565b81526106fa60208401610610565b602082015261070b60408401610610565b60408201525092915050565b600060408284031215610728578081fd5b610730610a6d565b905061073b82610610565b81526107496020830161054c565b602082015292915050565b803561ffff8116811461054757600080fd5b600060208284031215610777578081fd5b6107808261054c565b9392505050565b600080600080600080600080888a036101808112156107a4578485fd5b6107ad8a61054c565b985060407fffffffffffffffffffffffffffffffffffffffffffffffffffffffffffffffe0820112156107de578485fd5b506107e7610a6d565b60208a810135825260408b01359082015296506060890135955061080d60808a01610754565b945061081b60a08a01610754565b935060c089013567ffffffffffffffff811115610836578384fd5b6108428b828c01610570565b9350506108528a60e08b016106a9565b91506108628a6101408b01610717565b90509295985092959890939650565b600082825180855260208086019550808260051b840101818601855b84811015610910577fffffffffffffffffffffffffffffffffffffffffffffffffffffffffffffffe080878503018a5282518051808652895b818110156108e15782810188015187820189015287016108c6565b818111156108f1578a8883890101525b509a86019a601f0190911693909301840192509083019060010161088d565b5090979650505050505050565b73ffffffffffffffffffffffffffffffffffffffff8a811682528981166020830152881660408201526000610180610962606084018a80518252602090810151910152565b8760a084015261ffff80881660c085015280871660e0850152508061010084015261098f81840186610871565b84511515610120850152602085015115156101408501526040850151151561016085015291506109bc9050565b9a9950505050505050505050565b73ffffffffffffffffffffffffffffffffffffffff8981168252881660208201526000610160610a07604084018a80518252602090810151910152565b87608084015261ffff80881660a085015280871660c0850152508060e0840152610a3381840186610871565b8451151561010085015260208501511515610120850152604085015115156101408501529150610a609050565b9998505050505050505050565b6040805190810167ffffffffffffffff81118282101715610a9057610a90610ae5565b60405290565b604051601f82017fffffffffffffffffffffffffffffffffffffffffffffffffffffffffffffffe016810167ffffffffffffffff81118282101715610add57610add610ae5565b604052919050565b7f4e487b7100000000000000000000000000000000000000000000000000000000600052604160045260246000fdfea26469706673582212200a329c9d8f2fc7daacd3c99152100ac90ed50bcda84cf14cc7aa9882fac1849c64736f6c6343000804003360806040523480156200001157600080fd5b506200002e600080516020620033818339815191526000620000e5565b620000697f241ecf16d79d0f8dbfb92cbc07fe17840425976cf0667f022fe9877caa831b0860008051602062003381833981519152620000e5565b620000a47f0af1dac7dea2fd7f7738119cec7df099dfad49aa9d2e7d17ba6b60f63ae7411f60008051602062003381833981519152620000e5565b620000df7faf31c50b4aab7af0193b792816047837f36c88a23bbb4d0e3581c88cb4bf86ab60008051602062003381833981519152620000e5565b62000130565b600082815260208190526040808220600101805490849055905190918391839186917fbd79b86ffe0ab8e8776151514217cd7cacd52c909f66475c3af44e129f0b00ff9190a4505050565b61324180620001406000396000f3fe608060405234801561001057600080fd5b50600436106101a35760003560e01c8063602792b0116100ee578063a217fddf11610097578063d547741f11610071578063d547741f146103a7578063e3a5a4de146103ba578063ec87621c146103cd578063fec331f2146103f457600080fd5b8063a217fddf14610365578063ac5cb97d1461036d578063d294ffe01461039457600080fd5b806391d14854116100c857806391d14854146102f95780639aca66f81461033d5780639f0a5c151461035057600080fd5b8063602792b0146102cb57806385e3fcab146102d357806385e68531146102e657600080fd5b80632b8cc3461161015057806351e66efb1161012a57806351e66efb146102915780635962b430146102a45780635a9b0b89146102ac57600080fd5b80632b8cc346146102585780632f2ff15d1461026b57806336568abe1461027e57600080fd5b80630c9a8ecf116101815780630c9a8ecf1461021a5780632372f9c214610222578063248a9ca31461023557600080fd5b806301ffc9a7146101a85780630444670c146101d0578063080121da146101e5575b600080fd5b6101bb6101b6366004612a19565b61041b565b60405190151581526020015b60405180910390f35b6101e36101de366004612865565b6104b4565b005b61020c7faf31c50b4aab7af0193b792816047837f36c88a23bbb4d0e3581c88cb4bf86ab81565b6040519081526020016101c7565b6101e3610804565b6101e3610230366004612926565b6108d7565b61020c6102433660046129d6565b60009081526020819052604090206001015490565b6101e361026636600461284b565b610bf7565b6101e36102793660046129ee565b610ec1565b6101e361028c3660046129ee565b610eeb565b6101e361029f36600461284b565b610f9e565b6101e3611140565b6102b46111d8565b6040516101c79b9a99989796959493929190612e24565b6101e361162f565b6101bb6102e136600461284b565b611772565b6101e36102f436600461284b565b6117bf565b6101bb6103073660046129ee565b60009182526020828152604080842073ffffffffffffffffffffffffffffffffffffffff93909316845291905290205460ff1690565b6101e361034b36600461284b565b6118cc565b610358611a06565b6040516101c79190612e11565b61020c600081565b61020c7f72606200fac42b7dc86b75901d61ecfab2a4a1a6eded478b97a428094891abed81565b6101e36103a236600461284b565b611a7d565b6101e36103b53660046129ee565b611afc565b6101e36103c836600461284b565b611b21565b61020c7f241ecf16d79d0f8dbfb92cbc07fe17840425976cf0667f022fe9877caa831b0881565b61020c7f0af1dac7dea2fd7f7738119cec7df099dfad49aa9d2e7d17ba6b60f63ae7411f81565b60007fffffffff0000000000000000000000000000000000000000000000000000000082167f7965db0b0000000000000000000000000000000000000000000000000000000014806104ae57507f01ffc9a7000000000000000000000000000000000000000000000000000000007fffffffff000000000000000000000000000000000000000000000000000000008316145b92915050565b600454670100000000000000900460ff1615610531576040517f08c379a000000000000000000000000000000000000000000000000000000000815260206004820152601360248201527f416c726561647920696e697469616c697a65640000000000000000000000000060448201526064015b60405180910390fd5b61055c7f72606200fac42b7dc86b75901d61ecfab2a4a1a6eded478b97a428094891abed6000611c5b565b6105a67f241ecf16d79d0f8dbfb92cbc07fe17840425976cf0667f022fe9877caa831b087f72606200fac42b7dc86b75901d61ecfab2a4a1a6eded478b97a428094891abed611c5b565b6105f07f0af1dac7dea2fd7f7738119cec7df099dfad49aa9d2e7d17ba6b60f63ae7411f7f72606200fac42b7dc86b75901d61ecfab2a4a1a6eded478b97a428094891abed611c5b565b61063a7faf31c50b4aab7af0193b792816047837f36c88a23bbb4d0e3581c88cb4bf86ab7f72606200fac42b7dc86b75901d61ecfab2a4a1a6eded478b97a428094891abed611c5b565b610645600089611ca6565b61066f7f72606200fac42b7dc86b75901d61ecfab2a4a1a6eded478b97a428094891abed89611ca6565b6106997f241ecf16d79d0f8dbfb92cbc07fe17840425976cf0667f022fe9877caa831b088a611ca6565b6106c37faf31c50b4aab7af0193b792816047837f36c88a23bbb4d0e3581c88cb4bf86ab88611ca6565b855160015560208087015160025560038690556004805461ffff86811662010000027fffffffffffffffffffffffffffffffffffffffffffffffffffffffff0000000090921690881617179055825161072291600591908501906122e4565b5080516004805460208401516040909401517fffffffffffffffffffffffffffffffffffffffffffffffff00ffffffffffffff901515660100000000000002167fffffffffffffffffffffffffffffffffffffffffffffffff0000ffffffffffff94151565010000000000027fffffffffffffffffffffffffffffffffffffffffffffffffffff00ffffffffff94151564010000000002949094167fffffffffffffffffffffffffffffffffffffffffffffffffffff0000ffffffff909216919091179290921792909216176701000000000000001790555050505050505050565b3360009081527fdf1cb6f79b8687a60e91aced08290a53cb47a179b80c0c7c836d1c923c9a5647602052604090205460ff168061086f57503360009081527f01269c68c28a67305f4a2d47532888d6c961251cfcb06c9cdb6066d32b24b320602052604090205460ff165b6108d5576040517f08c379a000000000000000000000000000000000000000000000000000000000815260206004820152601060248201527f4e656564207265616420616363657373000000000000000000000000000000006044820152606401610528565b565b600454670100000000000000900460ff161561094f576040517f08c379a000000000000000000000000000000000000000000000000000000000815260206004820152601360248201527f416c726561647920696e697469616c697a6564000000000000000000000000006044820152606401610528565b61097a7f72606200fac42b7dc86b75901d61ecfab2a4a1a6eded478b97a428094891abed6000611c5b565b6109c47f241ecf16d79d0f8dbfb92cbc07fe17840425976cf0667f022fe9877caa831b087f72606200fac42b7dc86b75901d61ecfab2a4a1a6eded478b97a428094891abed611c5b565b610a0e7f0af1dac7dea2fd7f7738119cec7df099dfad49aa9d2e7d17ba6b60f63ae7411f7f72606200fac42b7dc86b75901d61ecfab2a4a1a6eded478b97a428094891abed611c5b565b610a587faf31c50b4aab7af0193b792816047837f36c88a23bbb4d0e3581c88cb4bf86ab7f72606200fac42b7dc86b75901d61ecfab2a4a1a6eded478b97a428094891abed611c5b565b610a63600088611ca6565b610a8d7f72606200fac42b7dc86b75901d61ecfab2a4a1a6eded478b97a428094891abed88611ca6565b610ab77f241ecf16d79d0f8dbfb92cbc07fe17840425976cf0667f022fe9877caa831b0889611ca6565b855160015560208087015160025560038690556004805461ffff86811662010000027fffffffffffffffffffffffffffffffffffffffffffffffffffffffff00000000909216908816171790558251610b1691600591908501906122e4565b5080516004805460208401516040909401517fffffffffffffffffffffffffffffffffffffffffffffffff00ffffffffffffff901515660100000000000002167fffffffffffffffffffffffffffffffffffffffffffffffff0000ffffffffffff94151565010000000000027fffffffffffffffffffffffffffffffffffffffffffffffffffff00ffffffffff94151564010000000002949094167fffffffffffffffffffffffffffffffffffffffffffffffffffff0000ffffffff9092169190911792909217929092161767010000000000000017905550505050505050565b610bff611140565b60008060005b600754811015610ca6578373ffffffffffffffffffffffffffffffffffffffff1660078281548110610c60577f4e487b7100000000000000000000000000000000000000000000000000000000600052603260045260246000fd5b60009182526020909120015473ffffffffffffffffffffffffffffffffffffffff161415610c945760019250809150610ca6565b80610c9e81613156565b915050610c05565b50600182151514610d13576040517f08c379a000000000000000000000000000000000000000000000000000000000815260206004820152601160248201527f4e6f2072657175657374207265636f72640000000000000000000000000000006044820152606401610528565b610d3d7f0af1dac7dea2fd7f7738119cec7df099dfad49aa9d2e7d17ba6b60f63ae7411f84610ec1565b60078054610d4d90600190613086565b81548110610d84577f4e487b7100000000000000000000000000000000000000000000000000000000600052603260045260246000fd5b6000918252602090912001546007805473ffffffffffffffffffffffffffffffffffffffff9092169183908110610de4577f4e487b7100000000000000000000000000000000000000000000000000000000600052603260045260246000fd5b9060005260206000200160006101000a81548173ffffffffffffffffffffffffffffffffffffffff021916908373ffffffffffffffffffffffffffffffffffffffff1602179055506007805480610e64577f4e487b7100000000000000000000000000000000000000000000000000000000600052603160045260246000fd5b60008281526020902081017fffffffffffffffffffffffffffffffffffffffffffffffffffffffffffffffff90810180547fffffffffffffffffffffffff0000000000000000000000000000000000000000169055019055505050565b600082815260208190526040902060010154610edc81611cb0565b610ee68383611cbd565b505050565b73ffffffffffffffffffffffffffffffffffffffff81163314610f90576040517f08c379a000000000000000000000000000000000000000000000000000000000815260206004820152602f60248201527f416363657373436f6e74726f6c3a2063616e206f6e6c792072656e6f756e636560448201527f20726f6c657320666f722073656c6600000000000000000000000000000000006064820152608401610528565b610f9a8282611dad565b5050565b610fa661162f565b6000610fb182611e64565b6006549091508114610f9a5760068054610fcd90600190613086565b81548110611004577f4e487b7100000000000000000000000000000000000000000000000000000000600052603260045260246000fd5b6000918252602090912001546006805473ffffffffffffffffffffffffffffffffffffffff9092169183908110611064577f4e487b7100000000000000000000000000000000000000000000000000000000600052603260045260246000fd5b9060005260206000200160006101000a81548173ffffffffffffffffffffffffffffffffffffffff021916908373ffffffffffffffffffffffffffffffffffffffff16021790555060068054806110e4577f4e487b7100000000000000000000000000000000000000000000000000000000600052603160045260246000fd5b60008281526020902081017fffffffffffffffffffffffffffffffffffffffffffffffffffffffffffffffff90810180547fffffffffffffffffffffffff00000000000000000000000000000000000000001690550190555050565b3360009081527f01269c68c28a67305f4a2d47532888d6c961251cfcb06c9cdb6066d32b24b320602052604090205460ff166108d5576040517f08c379a000000000000000000000000000000000000000000000000000000000815260206004820152600b60248201527f4e6f742070617469656e740000000000000000000000000000000000000000006044820152606401610528565b6000806000806000606060008060006060806111f2610804565b60006005805480602002602001604051908101604052809291908181526020016000905b828210156112c257838290600052602060002001805461123590613102565b80601f016020809104026020016040519081016040528092919081815260200182805461126190613102565b80156112ae5780601f10611283576101008083540402835291602001916112ae565b820191906000526020600020905b81548152906001019060200180831161129157829003601f168201915b505050505081526020019060010190611216565b505050509050600060068054905067ffffffffffffffff81111561130f577f4e487b7100000000000000000000000000000000000000000000000000000000600052604160045260246000fd5b60405190808252806020026020018201604052801561134857816020015b611335612341565b81526020019060019003908161132d5790505b50905060005b6006548110156115565760008060008060006006868154811061139a577f4e487b7100000000000000000000000000000000000000000000000000000000600052603260045260246000fd5b6000918252602082200154604080517fc25fe268000000000000000000000000000000000000000000000000000000008152905173ffffffffffffffffffffffffffffffffffffffff9092169263c25fe26892600480840193829003018186803b15801561140757600080fd5b505afa15801561141b573d6000803e3d6000fd5b505050506040513d6000823e601f3d9081017fffffffffffffffffffffffffffffffffffffffffffffffffffffffffffffffe01682016040526114619190810190612a59565b945094509450945094506040518060c00160405280600688815481106114b0577f4e487b7100000000000000000000000000000000000000000000000000000000600052603260045260246000fd5b6000918252602091829020015473ffffffffffffffffffffffffffffffffffffffff168252810187905260408101869052606081018590526080810184905282151560a0909101528751889088908110611533577f4e487b7100000000000000000000000000000000000000000000000000000000600052603260045260246000fd5b60200260200101819052505050505050808061154e90613156565b91505061134e565b50600154600254600354600454600780546040805160208084028201810190925282815261ffff80861695620100008104909116948b9460ff64010000000084048116956501000000000085048216956601000000000000909504909116938d9392909183919083018282801561160357602002820191906000526020600020905b815473ffffffffffffffffffffffffffffffffffffffff1681526001909101906020018083116115d8575b505050505090509c509c509c509c509c509c509c509c509c509c509c505050909192939495969798999a565b3360009081527fdf1cb6f79b8687a60e91aced08290a53cb47a179b80c0c7c836d1c923c9a5647602052604090205460ff168061169a57503360009081527f01269c68c28a67305f4a2d47532888d6c961251cfcb06c9cdb6066d32b24b320602052604090205460ff165b806116d357503360009081527fe84508f2c7fa9c351146748b3025cb78b45df37d868e48c6a75102fecdeee645602052604090205460ff165b8061170c57503360009081527f41c90bc1e97eee4405eb05513a260f423542caa5209bb2fbb701e6c3dd7921cd602052604090205460ff165b6108d5576040517f08c379a000000000000000000000000000000000000000000000000000000000815260206004820152601160248201527f4e656564207772697465206163636573730000000000000000000000000000006044820152606401610528565b73ffffffffffffffffffffffffffffffffffffffff811660009081527fdf1cb6f79b8687a60e91aced08290a53cb47a179b80c0c7c836d1c923c9a5647602052604081205460ff166104ae565b6117c7611140565b73ffffffffffffffffffffffffffffffffffffffff811660009081526008602052604090205460ff16611856576040517f08c379a000000000000000000000000000000000000000000000000000000000815260206004820152601060248201527f416363657373206e6f74206578697374000000000000000000000000000000006044820152606401610528565b6118807f0af1dac7dea2fd7f7738119cec7df099dfad49aa9d2e7d17ba6b60f63ae7411f82611afc565b73ffffffffffffffffffffffffffffffffffffffff16600090815260086020526040902080547fffffffffffffffffffffffffffffffffffffffffffffffffffffffffffffff00169055565b73ffffffffffffffffffffffffffffffffffffffff811660009081526008602052604090205460ff161561195c576040517f08c379a000000000000000000000000000000000000000000000000000000000815260206004820152601c60248201527f596f7520616c72656164792072657175657374656420616363657373000000006044820152606401610528565b6007805460018181019092557fa66cc928b5edb82af9bd49922954155ab7b0942694bea4ce44661d9a8736c68801805473ffffffffffffffffffffffffffffffffffffffff9093167fffffffffffffffffffffffff00000000000000000000000000000000000000009093168317905560009182526008602052604090912080547fffffffffffffffffffffffffffffffffffffffffffffffffffffffffffffff00169091179055565b6060611a10611140565b6007805480602002602001604051908101604052809291908181526020018280548015611a7357602002820191906000526020600020905b815473ffffffffffffffffffffffffffffffffffffffff168152600190910190602001808311611a48575b5050505050905090565b611a8561162f565b600680546001810182556000919091527ff652222313e28459528d920b65115c16c04f3efc82aaedc97be59f3f377c0d3f0180547fffffffffffffffffffffffff00000000000000000000000000000000000000001673ffffffffffffffffffffffffffffffffffffffff92909216919091179055565b600082815260208190526040902060010154611b1781611cb0565b610ee68383611dad565b73ffffffffffffffffffffffffffffffffffffffff811660009081526009602052604090205460ff1615611bb1576040517f08c379a000000000000000000000000000000000000000000000000000000000815260206004820152601c60248201527f596f7520616c72656164792072657175657374656420616363657373000000006044820152606401610528565b6007805460018181019092557fa66cc928b5edb82af9bd49922954155ab7b0942694bea4ce44661d9a8736c68801805473ffffffffffffffffffffffffffffffffffffffff9093167fffffffffffffffffffffffff00000000000000000000000000000000000000009093168317905560009182526009602052604090912080547fffffffffffffffffffffffffffffffffffffffffffffffffffffffffffffff00169091179055565b600082815260208190526040808220600101805490849055905190918391839186917fbd79b86ffe0ab8e8776151514217cd7cacd52c909f66475c3af44e129f0b00ff9190a4505050565b610f9a8282611cbd565b611cba8133611f07565b50565b60008281526020818152604080832073ffffffffffffffffffffffffffffffffffffffff8516845290915290205460ff16610f9a5760008281526020818152604080832073ffffffffffffffffffffffffffffffffffffffff85168452909152902080547fffffffffffffffffffffffffffffffffffffffffffffffffffffffffffffff00166001179055611d4f3390565b73ffffffffffffffffffffffffffffffffffffffff168173ffffffffffffffffffffffffffffffffffffffff16837f2f8788117e7eff1d82e926ec794901d17c78024a50270940304540a733656f0d60405160405180910390a45050565b60008281526020818152604080832073ffffffffffffffffffffffffffffffffffffffff8516845290915290205460ff1615610f9a5760008281526020818152604080832073ffffffffffffffffffffffffffffffffffffffff8516808552925280832080547fffffffffffffffffffffffffffffffffffffffffffffffffffffffffffffff0016905551339285917ff6391f5c32d9c69d2a47ea670b442974b53935d1edc7fd64eb21e047a839171b9190a45050565b600654600090815b81811015611efc578373ffffffffffffffffffffffffffffffffffffffff1660068281548110611ec5577f4e487b7100000000000000000000000000000000000000000000000000000000600052603260045260246000fd5b60009182526020909120015473ffffffffffffffffffffffffffffffffffffffff161415611ef4579392505050565b600101611e6c565b505060065492915050565b60008281526020818152604080832073ffffffffffffffffffffffffffffffffffffffff8516845290915290205460ff16610f9a57611f5d8173ffffffffffffffffffffffffffffffffffffffff166014611fd7565b611f68836020611fd7565b604051602001611f79929190612d90565b604080517fffffffffffffffffffffffffffffffffffffffffffffffffffffffffffffffe0818403018152908290527f08c379a000000000000000000000000000000000000000000000000000000000825261052891600401612f19565b60606000611fe6836002613049565b611ff1906002613031565b67ffffffffffffffff811115612030577f4e487b7100000000000000000000000000000000000000000000000000000000600052604160045260246000fd5b6040519080825280601f01601f19166020018201604052801561205a576020820181803683370190505b5090507f3000000000000000000000000000000000000000000000000000000000000000816000815181106120b8577f4e487b7100000000000000000000000000000000000000000000000000000000600052603260045260246000fd5b60200101907effffffffffffffffffffffffffffffffffffffffffffffffffffffffffffff1916908160001a9053507f780000000000000000000000000000000000000000000000000000000000000081600181518110612142577f4e487b7100000000000000000000000000000000000000000000000000000000600052603260045260246000fd5b60200101907effffffffffffffffffffffffffffffffffffffffffffffffffffffffffffff1916908160001a905350600061217e846002613049565b612189906001613031565b90505b6001811115612274577f303132333435363738396162636465660000000000000000000000000000000085600f16601081106121f1577f4e487b7100000000000000000000000000000000000000000000000000000000600052603260045260246000fd5b1a60f81b82828151811061222e577f4e487b7100000000000000000000000000000000000000000000000000000000600052603260045260246000fd5b60200101907effffffffffffffffffffffffffffffffffffffffffffffffffffffffffffff1916908160001a90535060049490941c9361226d816130cd565b905061218c565b5083156122dd576040517f08c379a000000000000000000000000000000000000000000000000000000000815260206004820181905260248201527f537472696e67733a20686578206c656e67746820696e73756666696369656e746044820152606401610528565b9392505050565b828054828255906000526020600020908101928215612331579160200282015b828111156123315782518051612321918491602090910190612390565b5091602001919060010190612304565b5061233d929150612410565b5090565b6040805160c08101825260008082526060602080840182905283850183905284518086019095528285528401919091528101919091526080810161238361242d565b8152600060209091015290565b82805461239c90613102565b90600052602060002090601f0160209004810192826123be5760008555612404565b82601f106123d757805160ff1916838001178555612404565b82800160010185558215612404579182015b828111156124045782518255916020019190600101906123e9565b5061233d929150612499565b8082111561233d57600061242482826124ae565b50600101612410565b6040518060c00160405280600081526020016000815260200160006002811115612480577f4e487b7100000000000000000000000000000000000000000000000000000000600052602160045260246000fd5b8152600060208201526060604082018190529081015290565b5b8082111561233d576000815560010161249a565b5080546124ba90613102565b6000825580601f106124ca575050565b601f016020900490600052602060002090810190611cba9190612499565b803573ffffffffffffffffffffffffffffffffffffffff8116811461250c57600080fd5b919050565b600082601f830112612521578081fd5b8151602061253661253183612fc7565b612f78565b80838252828201915082860187848660051b8901011115612555578586fd5b855b8581101561257357815184529284019290840190600101612557565b5090979650505050505050565b600082601f830112612590578081fd5b813560206125a061253183612fc7565b80838252828201915082860187848660051b89010111156125bf578586fd5b855b8581101561257357813567ffffffffffffffff8111156125df578788fd5b8801603f81018a136125ef578788fd5b85810135604061260161253183612feb565b8281528c82848601011115612614578a8bfd5b828285018a83013791820188018a90525085525092840192908401906001016125c1565b600082601f830112612648578081fd5b8151602061265861253183612fc7565b80838252828201915082860187848660051b8901011115612677578586fd5b855b8581101561257357815161268c816131fb565b84529284019290840190600101612679565b805161250c816131ed565b80516003811061250c57600080fd5b6000606082840312156126c9578081fd5b6040516060810181811067ffffffffffffffff821117156126ec576126ec6131be565b60405290508082356126fd816131ed565b8152602083013561270d816131ed565b60208201526040830135612720816131ed565b6040919091015292915050565b60006040828403121561273e578081fd5b612746612f2c565b9050813581526020820135602082015292915050565b60006040828403121561276d578081fd5b612775612f2c565b90508151612782816131fb565b808252506020820151602082015292915050565b600060c082840312156127a7578081fd5b6127af612f55565b905081518152602082015160208201526127cb604083016126a9565b60408201526127dc6060830161283a565b6060820152608082015167ffffffffffffffff808211156127fc57600080fd5b61280885838601612511565b608084015260a084015191508082111561282157600080fd5b5061282e84828501612638565b60a08301525092915050565b805160ff8116811461250c57600080fd5b60006020828403121561285c578081fd5b6122dd826124e8565b60008060008060008060008060006101808a8c031215612883578485fd5b61288c8a6124e8565b985061289a60208b016124e8565b97506128a860408b016124e8565b96506128b78b60608c0161272d565b955060a08a0135945060c08a01356128ce816131fb565b935060e08a01356128de816131fb565b92506101008a013567ffffffffffffffff8111156128fa578283fd5b6129068c828d01612580565b9250506129178b6101208c016126b8565b90509295985092959850929598565b600080600080600080600080610160898b031215612942578182fd5b61294b896124e8565b975061295960208a016124e8565b96506129688a60408b0161272d565b95506080890135945060a089013561297f816131fb565b935060c089013561298f816131fb565b925060e089013567ffffffffffffffff8111156129aa578283fd5b6129b68b828c01612580565b9250506129c78a6101008b016126b8565b90509295985092959890939650565b6000602082840312156129e7578081fd5b5035919050565b60008060408385031215612a00578182fd5b82359150612a10602084016124e8565b90509250929050565b600060208284031215612a2a578081fd5b81357fffffffff00000000000000000000000000000000000000000000000000000000811681146122dd578182fd5b600080600080600060c08688031215612a70578283fd5b855167ffffffffffffffff80821115612a87578485fd5b818801915088601f830112612a9a578485fd5b8151612aa861253182612feb565b8181528a6020838601011115612abc578687fd5b612acd82602083016020870161309d565b809850505060208801519550612ae68960408a0161275c565b94506080880151915080821115612afb578283fd5b50612b0888828901612796565b925050612b1760a0870161269e565b90509295509295909350565b6000815180845260208085019450808401835b83811015612b6857815173ffffffffffffffffffffffffffffffffffffffff1687529582019590820190600101612b36565b509495945050505050565b6000815180845260208085019450808401835b83811015612b6857815187529582019590820190600101612b86565b600081518084526020808501808196508360051b81019150828601855b85811015612c6d578284038952815160e073ffffffffffffffffffffffffffffffffffffffff8251168652868201518188880152612bff82880182612cad565b915050604080830151818801525060608083015161ffff8151168289015288810151915050608081818901528084015191505060a087830381890152612c458383612cf7565b93015180151560c0890152929150612c5a9050565b9986019994505090840190600101612bbf565b5091979650505050505050565b6000815180845260208085019450808401835b83811015612b6857815161ffff1687529582019590820190600101612c8d565b60008151808452612cc581602086016020860161309d565b601f017fffffffffffffffffffffffffffffffffffffffffffffffffffffffffffffffe0169290920160200192915050565b80518252602081015160208301526000604082015160038110612d41577f4e487b710000000000000000000000000000000000000000000000000000000082526021600452602482fd5b8060408501525060ff6060830151166060840152608082015160c06080850152612d6e60c0850182612b73565b905060a083015184820360a0860152612d878282612c7a565b95945050505050565b7f416363657373436f6e74726f6c3a206163636f756e7420000000000000000000815260008351612dc881601785016020880161309d565b7f206973206d697373696e6720726f6c65200000000000000000000000000000006017918401918201528351612e0581602884016020880161309d565b01602801949350505050565b6020815260006122dd6020830184612b23565b8b815260208082018c9052604082018b905261ffff8a811660608401528916608083015261016060a08301819052885190830181905260009161018080850192600581901b860190910191908b8201855b82811015612ec1577ffffffffffffffffffffffffffffffffffffffffffffffffffffffffffffffe80888603018652612eaf858351612cad565b95840195945090830190600101612e75565b5050505088151560c085015287151560e0850152861515610100850152838103610120850152612ef18187612ba2565b915050828103610140840152612f078185612b23565b9e9d5050505050505050505050505050565b6020815260006122dd6020830184612cad565b6040805190810167ffffffffffffffff81118282101715612f4f57612f4f6131be565b60405290565b60405160c0810167ffffffffffffffff81118282101715612f4f57612f4f6131be565b604051601f82017fffffffffffffffffffffffffffffffffffffffffffffffffffffffffffffffe016810167ffffffffffffffff81118282101715612fbf57612fbf6131be565b604052919050565b600067ffffffffffffffff821115612fe157612fe16131be565b5060051b60200190565b600067ffffffffffffffff821115613005576130056131be565b50601f017fffffffffffffffffffffffffffffffffffffffffffffffffffffffffffffffe01660200190565b600082198211156130445761304461318f565b500190565b6000817fffffffffffffffffffffffffffffffffffffffffffffffffffffffffffffffff04831182151516156130815761308161318f565b500290565b6000828210156130985761309861318f565b500390565b60005b838110156130b85781810151838201526020016130a0565b838111156130c7576000848401525b50505050565b6000816130dc576130dc61318f565b507fffffffffffffffffffffffffffffffffffffffffffffffffffffffffffffffff0190565b600181811c9082168061311657607f821691505b60208210811415613150577f4e487b7100000000000000000000000000000000000000000000000000000000600052602260045260246000fd5b50919050565b60007fffffffffffffffffffffffffffffffffffffffffffffffffffffffffffffffff8214156131885761318861318f565b5060010190565b7f4e487b7100000000000000000000000000000000000000000000000000000000600052601160045260246000fd5b7f4e487b7100000000000000000000000000000000000000000000000000000000600052604160045260246000fd5b8015158114611cba57600080fd5b61ffff81168114611cba57600080fdfea2646970667358221220c79fcc3c4e458800dc478aa00a6371d3b5d9ae7eebbc22110305164dfa44ff6164736f6c6343000804003372606200fac42b7dc86b75901d61ecfab2a4a1a6eded478b97a428094891abed",
  "immutableReferences": {
    "2547": [
      {
        "length": 32,
        "start": 231
      }
    ]
  },
  "source": "// SPDX-License-Identifier: MIT\npragma solidity ^0.8.4;\n\nimport \"@openzeppelin/contracts/proxy/Clones.sol\";\nimport \"@openzeppelin/contracts/access/Ownable.sol\";\nimport \"./Patient.sol\";\nimport \"./Helper.sol\";\n\ncontract PatientFactory is Ownable {\n    address immutable patientImplementation;\n\n    constructor() {\n        patientImplementation = address(new Patient());\n    }\n\n    function createPatient(\n        address owner_,\n        Bytes32Pair memory nameGender_,\n        uint256 dob_,\n        uint16 height_,\n        uint16 weight_,\n        string[] memory allergy_,\n        BoolTriple memory alcoholSmokeCannabis_,\n        FromAppOption memory option_\n    ) external onlyOwner returns (address clone) {\n        clone = Clones.clone(patientImplementation);\n        if (option_.fromApp) {\n            Patient(clone).initializeWithApp(\n                msg.sender,\n                owner_,\n                option_.addr,\n                Bytes32Pair(nameGender_.value1, nameGender_.value2),\n                dob_,\n                height_,\n                weight_,\n                allergy_,\n                BoolTriple(\n                    alcoholSmokeCannabis_.value1,\n                    alcoholSmokeCannabis_.value2,\n                    alcoholSmokeCannabis_.value3\n                )\n            );\n        } else {\n            Patient(clone).initialize(\n                msg.sender,\n                owner_,\n                Bytes32Pair(nameGender_.value1, nameGender_.value2),\n                dob_,\n                height_,\n                weight_,\n                allergy_,\n                BoolTriple(\n                    alcoholSmokeCannabis_.value1,\n                    alcoholSmokeCannabis_.value2,\n                    alcoholSmokeCannabis_.value3\n                )\n            );\n        }\n    }\n}\n",
  "sourcePath": "/home/leslie/Documents/GitHub/svelte-blockchain-template-sveltekit/contracts/PatientFactory.sol",
  "compiler": {
    "name": "solc",
    "version": "0.8.4+commit.c7e474f2.Emscripten.clang"
  },
  "schemaVersion": "3.4.9",
  "updatedAt": "2023-01-14T07:32:26.357Z",
  "devdoc": {
    "kind": "dev",
    "methods": {
      "owner()": {
        "details": "Returns the address of the current owner."
      },
      "renounceOwnership()": {
        "details": "Leaves the contract without owner. It will not be possible to call `onlyOwner` functions anymore. Can only be called by the current owner. NOTE: Renouncing ownership will leave the contract without an owner, thereby removing any functionality that is only available to the owner."
      },
      "transferOwnership(address)": {
        "details": "Transfers ownership of the contract to a new account (`newOwner`). Can only be called by the current owner."
      }
    },
    "version": 1
  },
  "userdoc": {
    "kind": "user",
    "methods": {},
    "version": 1
  }
}