{
  "contractName": "Treatment",
  "abi": [
    {
      "inputs": [],
      "stateMutability": "nonpayable",
      "type": "constructor"
    },
    {
      "anonymous": false,
      "inputs": [
        {
          "indexed": true,
          "internalType": "bytes32",
          "name": "role",
          "type": "bytes32"
        },
        {
          "indexed": true,
          "internalType": "bytes32",
          "name": "previousAdminRole",
          "type": "bytes32"
        },
        {
          "indexed": true,
          "internalType": "bytes32",
          "name": "newAdminRole",
          "type": "bytes32"
        }
      ],
      "name": "RoleAdminChanged",
      "type": "event"
    },
    {
      "anonymous": false,
      "inputs": [
        {
          "indexed": true,
          "internalType": "bytes32",
          "name": "role",
          "type": "bytes32"
        },
        {
          "indexed": true,
          "internalType": "address",
          "name": "account",
          "type": "address"
        },
        {
          "indexed": true,
          "internalType": "address",
          "name": "sender",
          "type": "address"
        }
      ],
      "name": "RoleGranted",
      "type": "event"
    },
    {
      "anonymous": false,
      "inputs": [
        {
          "indexed": true,
          "internalType": "bytes32",
          "name": "role",
          "type": "bytes32"
        },
        {
          "indexed": true,
          "internalType": "address",
          "name": "account",
          "type": "address"
        },
        {
          "indexed": true,
          "internalType": "address",
          "name": "sender",
          "type": "address"
        }
      ],
      "name": "RoleRevoked",
      "type": "event"
    },
    {
      "inputs": [],
      "name": "DEFAULT_ADMIN_ROLE",
      "outputs": [
        {
          "internalType": "bytes32",
          "name": "",
          "type": "bytes32"
        }
      ],
      "stateMutability": "view",
      "type": "function"
    },
    {
      "inputs": [],
      "name": "DOCTOR_ROLE",
      "outputs": [
        {
          "internalType": "bytes32",
          "name": "",
          "type": "bytes32"
        }
      ],
      "stateMutability": "view",
      "type": "function"
    },
    {
      "inputs": [],
      "name": "MANAGER_ROLE",
      "outputs": [
        {
          "internalType": "bytes32",
          "name": "",
          "type": "bytes32"
        }
      ],
      "stateMutability": "view",
      "type": "function"
    },
    {
      "inputs": [],
      "name": "PATIENT_ROLE",
      "outputs": [
        {
          "internalType": "bytes32",
          "name": "",
          "type": "bytes32"
        }
      ],
      "stateMutability": "view",
      "type": "function"
    },
    {
      "inputs": [
        {
          "internalType": "bytes32",
          "name": "role",
          "type": "bytes32"
        }
      ],
      "name": "getRoleAdmin",
      "outputs": [
        {
          "internalType": "bytes32",
          "name": "",
          "type": "bytes32"
        }
      ],
      "stateMutability": "view",
      "type": "function"
    },
    {
      "inputs": [
        {
          "internalType": "bytes32",
          "name": "role",
          "type": "bytes32"
        },
        {
          "internalType": "address",
          "name": "account",
          "type": "address"
        }
      ],
      "name": "grantRole",
      "outputs": [],
      "stateMutability": "nonpayable",
      "type": "function"
    },
    {
      "inputs": [
        {
          "internalType": "bytes32",
          "name": "role",
          "type": "bytes32"
        },
        {
          "internalType": "address",
          "name": "account",
          "type": "address"
        }
      ],
      "name": "hasRole",
      "outputs": [
        {
          "internalType": "bool",
          "name": "",
          "type": "bool"
        }
      ],
      "stateMutability": "view",
      "type": "function"
    },
    {
      "inputs": [
        {
          "internalType": "bytes32",
          "name": "role",
          "type": "bytes32"
        },
        {
          "internalType": "address",
          "name": "account",
          "type": "address"
        }
      ],
      "name": "renounceRole",
      "outputs": [],
      "stateMutability": "nonpayable",
      "type": "function"
    },
    {
      "inputs": [
        {
          "internalType": "bytes32",
          "name": "role",
          "type": "bytes32"
        },
        {
          "internalType": "address",
          "name": "account",
          "type": "address"
        }
      ],
      "name": "revokeRole",
      "outputs": [],
      "stateMutability": "nonpayable",
      "type": "function"
    },
    {
      "inputs": [
        {
          "internalType": "bytes4",
          "name": "interfaceId",
          "type": "bytes4"
        }
      ],
      "name": "supportsInterface",
      "outputs": [
        {
          "internalType": "bool",
          "name": "",
          "type": "bool"
        }
      ],
      "stateMutability": "view",
      "type": "function"
    },
    {
      "inputs": [
        {
          "internalType": "address",
          "name": "doctor_",
          "type": "address"
        },
        {
          "internalType": "address",
          "name": "patient_",
          "type": "address"
        },
        {
          "internalType": "string",
          "name": "medicine_",
          "type": "string"
        },
        {
          "internalType": "bytes32",
          "name": "form_",
          "type": "bytes32"
        },
        {
          "components": [
            {
              "internalType": "uint16",
              "name": "strength",
              "type": "uint16"
            },
            {
              "internalType": "bytes32",
              "name": "unit",
              "type": "bytes32"
            }
          ],
          "internalType": "struct Dosage",
          "name": "dosage_",
          "type": "tuple"
        },
        {
          "components": [
            {
              "internalType": "uint256",
              "name": "startDate",
              "type": "uint256"
            },
            {
              "internalType": "uint256",
              "name": "endDate",
              "type": "uint256"
            },
            {
              "internalType": "enum Frequency",
              "name": "frequency",
              "type": "uint8"
            },
            {
              "internalType": "uint8",
              "name": "interval",
              "type": "uint8"
            },
            {
              "internalType": "bytes32[]",
              "name": "daysOfWeek",
              "type": "bytes32[]"
            },
            {
              "internalType": "uint16[]",
              "name": "timesOfDay",
              "type": "uint16[]"
            }
          ],
          "internalType": "struct Schedule",
          "name": "schedule_",
          "type": "tuple"
        }
      ],
      "name": "initialize",
      "outputs": [],
      "stateMutability": "nonpayable",
      "type": "function"
    },
    {
      "inputs": [],
      "name": "getPatient",
      "outputs": [
        {
          "internalType": "address",
          "name": "",
          "type": "address"
        }
      ],
      "stateMutability": "view",
      "type": "function"
    },
    {
      "inputs": [],
      "name": "getMedicine",
      "outputs": [
        {
          "internalType": "string",
          "name": "medicine_",
          "type": "string"
        }
      ],
      "stateMutability": "view",
      "type": "function"
    },
    {
      "inputs": [],
      "name": "getTreatment",
      "outputs": [
        {
          "internalType": "string",
          "name": "",
          "type": "string"
        },
        {
          "internalType": "bytes32",
          "name": "",
          "type": "bytes32"
        },
        {
          "components": [
            {
              "internalType": "uint16",
              "name": "strength",
              "type": "uint16"
            },
            {
              "internalType": "bytes32",
              "name": "unit",
              "type": "bytes32"
            }
          ],
          "internalType": "struct Dosage",
          "name": "",
          "type": "tuple"
        },
        {
          "components": [
            {
              "internalType": "uint256",
              "name": "startDate",
              "type": "uint256"
            },
            {
              "internalType": "uint256",
              "name": "endDate",
              "type": "uint256"
            },
            {
              "internalType": "enum Frequency",
              "name": "frequency",
              "type": "uint8"
            },
            {
              "internalType": "uint8",
              "name": "interval",
              "type": "uint8"
            },
            {
              "internalType": "bytes32[]",
              "name": "daysOfWeek",
              "type": "bytes32[]"
            },
            {
              "internalType": "uint16[]",
              "name": "timesOfDay",
              "type": "uint16[]"
            }
          ],
          "internalType": "struct Schedule",
          "name": "",
          "type": "tuple"
        },
        {
          "internalType": "bool",
          "name": "",
          "type": "bool"
        }
      ],
      "stateMutability": "view",
      "type": "function"
    },
    {
      "inputs": [],
      "name": "isComplete",
      "outputs": [
        {
          "internalType": "bool",
          "name": "",
          "type": "bool"
        }
      ],
      "stateMutability": "view",
      "type": "function"
    }
  ],
  "bytecode": "0x608060405234801561001057600080fd5b50611758806100206000396000f3fe608060405234801561001057600080fd5b50600436106100f55760003560e01c8063a982df1d11610097578063d547741f11610066578063d547741f14610230578063ec87621c14610243578063f595c4851461026a578063fec331f21461027f57600080fd5b8063a982df1d146101d5578063ac5cb97d146101e8578063b2fa1c9e1461020f578063c25fe2681461021757600080fd5b806336568abe116100d357806336568abe146101685780637b0f9a361461017b57806391d1485414610196578063a217fddf146101cd57600080fd5b806301ffc9a7146100fa578063248a9ca3146101225780632f2ff15d14610153575b600080fd5b61010d610108366004611382565b6102a6565b60405190151581526020015b60405180910390f35b61014561013036600461133f565b60009081526020819052604090206001015490565b604051908152602001610119565b610166610161366004611357565b61033f565b005b610166610176366004611357565b610369565b6001546040516001600160a01b039091168152602001610119565b61010d6101a4366004611357565b6000918252602082815260408084206001600160a01b0393909316845291905290205460ff1690565b610145600081565b6101666101e3366004611253565b6103fa565b6101457f72606200fac42b7dc86b75901d61ecfab2a4a1a6eded478b97a428094891abed81565b61010d6106e7565b61021f6106fe565b6040516101199594939291906114ef565b61016661023e366004611357565b610944565b6101457f241ecf16d79d0f8dbfb92cbc07fe17840425976cf0667f022fe9877caa831b0881565b610272610969565b60405161011991906114dc565b6101457f0af1dac7dea2fd7f7738119cec7df099dfad49aa9d2e7d17ba6b60f63ae7411f81565b60007fffffffff0000000000000000000000000000000000000000000000000000000082167f7965db0b00000000000000000000000000000000000000000000000000000000148061033957507f01ffc9a7000000000000000000000000000000000000000000000000000000007fffffffff000000000000000000000000000000000000000000000000000000008316145b92915050565b60008281526020819052604090206001015461035a816109fb565b6103648383610a08565b505050565b6001600160a01b03811633146103ec5760405162461bcd60e51b815260206004820152602f60248201527f416363657373436f6e74726f6c3a2063616e206f6e6c792072656e6f756e636560448201527f20726f6c657320666f722073656c66000000000000000000000000000000000060648201526084015b60405180910390fd5b6103f68282610aa6565b5050565b600b5460ff161561044d5760405162461bcd60e51b815260206004820152601360248201527f416c726561647920696e697469616c697a65640000000000000000000000000060448201526064016103e3565b6104787f0af1dac7dea2fd7f7738119cec7df099dfad49aa9d2e7d17ba6b60f63ae7411f6000610b25565b6104c27f72606200fac42b7dc86b75901d61ecfab2a4a1a6eded478b97a428094891abed7f0af1dac7dea2fd7f7738119cec7df099dfad49aa9d2e7d17ba6b60f63ae7411f610b25565b61050c7f241ecf16d79d0f8dbfb92cbc07fe17840425976cf0667f022fe9877caa831b087f0af1dac7dea2fd7f7738119cec7df099dfad49aa9d2e7d17ba6b60f63ae7411f610b25565b6105367f72606200fac42b7dc86b75901d61ecfab2a4a1a6eded478b97a428094891abed86610b70565b6105607f241ecf16d79d0f8dbfb92cbc07fe17840425976cf0667f022fe9877caa831b0833610b70565b61058a7f0af1dac7dea2fd7f7738119cec7df099dfad49aa9d2e7d17ba6b60f63ae7411f87610b70565b600180547fffffffffffffffffffffffff0000000000000000000000000000000000000000166001600160a01b03871617905583516105d090600a906020870190610e6e565b5060028381558251600380547fffffffffffffffffffffffffffffffffffffffffffffffffffffffffffff00001661ffff9092169190911790556020808401516004558251600590815590830151600655604083015160078054859460ff1990911690600190849081111561065557634e487b7160e01b600052602160045260246000fd5b0217905550606082015160028201805460ff909216610100027fffffffffffffffffffffffffffffffffffffffffffffffffffffffffffff00ff909216919091179055608082015180516106b3916003840191602090910190610ef2565b5060a082015180516106cf916004840191602090910190610f2c565b5050600b805460ff1916600117905550505050505050565b60006106f5426103e8611655565b60065410919050565b6040805180820190915260008082526020820181905260609161071f610fd0565b600080600a805461072f906116bb565b80601f016020809104026020016040519081016040528092919081815260200182805461075b906116bb565b80156107a85780601f1061077d576101008083540402835291602001916107a8565b820191906000526020600020905b81548152906001019060200180831161078b57829003601f168201915b505060408051808201825260035461ffff168152600454602080830191909152825160c0810184526005805482526006549282019290925260075497985091966000965091945092509083019060ff16600281111561081757634e487b7160e01b600052602160045260246000fd5b600281111561083657634e487b7160e01b600052602160045260246000fd5b81526002820154610100900460ff16602080830191909152600383018054604080518285028101850182528281529401939283018282801561089757602002820191906000526020600020905b815481526020019060010190808311610883575b505050505081526020016004820180548060200260200160405190810160405280929190818152602001828054801561091757602002820191906000526020600020906000905b82829054906101000a900461ffff1661ffff16815260200190600201906020826001010492830192600103820291508084116108de5790505b50505050508152505090508260025483836109306106e7565b975097509750975097505050509091929394565b60008281526020819052604090206001015461095f816109fb565b6103648383610aa6565b6060600a8054610978906116bb565b80601f01602080910402602001604051908101604052809291908181526020018280546109a4906116bb565b80156109f15780601f106109c6576101008083540402835291602001916109f1565b820191906000526020600020905b8154815290600101906020018083116109d457829003601f168201915b5050505050905090565b610a058133610b7a565b50565b6000828152602081815260408083206001600160a01b038516845290915290205460ff166103f6576000828152602081815260408083206001600160a01b03851684529091529020805460ff19166001179055610a623390565b6001600160a01b0316816001600160a01b0316837f2f8788117e7eff1d82e926ec794901d17c78024a50270940304540a733656f0d60405160405180910390a45050565b6000828152602081815260408083206001600160a01b038516845290915290205460ff16156103f6576000828152602081815260408083206001600160a01b0385168085529252808320805460ff1916905551339285917ff6391f5c32d9c69d2a47ea670b442974b53935d1edc7fd64eb21e047a839171b9190a45050565b600082815260208190526040808220600101805490849055905190918391839186917fbd79b86ffe0ab8e8776151514217cd7cacd52c909f66475c3af44e129f0b00ff9190a4505050565b6103f68282610a08565b6000828152602081815260408083206001600160a01b038516845290915290205460ff166103f657610bb6816001600160a01b03166014610bf8565b610bc1836020610bf8565b604051602001610bd292919061145b565b60408051601f198184030181529082905262461bcd60e51b82526103e3916004016114dc565b60606000610c07836002611655565b610c1290600261163d565b67ffffffffffffffff811115610c3857634e487b7160e01b600052604160045260246000fd5b6040519080825280601f01601f191660200182016040528015610c62576020820181803683370190505b5090507f300000000000000000000000000000000000000000000000000000000000000081600081518110610ca757634e487b7160e01b600052603260045260246000fd5b60200101907effffffffffffffffffffffffffffffffffffffffffffffffffffffffffffff1916908160001a9053507f780000000000000000000000000000000000000000000000000000000000000081600181518110610d1857634e487b7160e01b600052603260045260246000fd5b60200101907effffffffffffffffffffffffffffffffffffffffffffffffffffffffffffff1916908160001a9053506000610d54846002611655565b610d5f90600161163d565b90505b6001811115610e18577f303132333435363738396162636465660000000000000000000000000000000085600f1660108110610dae57634e487b7160e01b600052603260045260246000fd5b1a60f81b828281518110610dd257634e487b7160e01b600052603260045260246000fd5b60200101907effffffffffffffffffffffffffffffffffffffffffffffffffffffffffffff1916908160001a90535060049490941c93610e11816116a4565b9050610d62565b508315610e675760405162461bcd60e51b815260206004820181905260248201527f537472696e67733a20686578206c656e67746820696e73756666696369656e7460448201526064016103e3565b9392505050565b828054610e7a906116bb565b90600052602060002090601f016020900481019282610e9c5760008555610ee2565b82601f10610eb557805160ff1916838001178555610ee2565b82800160010185558215610ee2579182015b82811115610ee2578251825591602001919060010190610ec7565b50610eee929150611023565b5090565b828054828255906000526020600020908101928215610ee25791602002820182811115610ee2578251825591602001919060010190610ec7565b82805482825590600052602060002090600f01601090048101928215610ee25791602002820160005b83821115610f9557835183826101000a81548161ffff021916908361ffff1602179055509260200192600201602081600101049283019260010302610f55565b8015610fc35782816101000a81549061ffff0219169055600201602081600101049283019260010302610f95565b5050610eee929150611023565b6040518060c0016040528060008152602001600081526020016000600281111561100a57634e487b7160e01b600052602160045260246000fd5b8152600060208201526060604082018190529081015290565b5b80821115610eee5760008155600101611024565b80356001600160a01b038116811461104f57600080fd5b919050565b600082601f830112611064578081fd5b8135602061107961107483611619565b6115e8565b80838252828201915082860187848660051b8901011115611098578586fd5b855b858110156110b65781358452928401929084019060010161109a565b5090979650505050505050565b600082601f8301126110d3578081fd5b813560206110e361107483611619565b80838252828201915082860187848660051b8901011115611102578586fd5b855b858110156110b65761111582611230565b84529284019290840190600101611104565b80356003811061104f57600080fd5b600060408284031215611147578081fd5b6040516040810181811067ffffffffffffffff8211171561116a5761116a61170c565b60405290508061117983611230565b8152602083013560208201525092915050565b600060c0828403121561119d578081fd5b6111a56115bf565b905081358152602082013560208201526111c160408301611127565b60408201526111d260608301611242565b6060820152608082013567ffffffffffffffff808211156111f257600080fd5b6111fe85838601611054565b608084015260a084013591508082111561121757600080fd5b50611224848285016110c3565b60a08301525092915050565b803561ffff8116811461104f57600080fd5b803560ff8116811461104f57600080fd5b60008060008060008060e0878903121561126b578182fd5b61127487611038565b95506020611283818901611038565b9550604088013567ffffffffffffffff8082111561129f578485fd5b818a0191508a601f8301126112b2578485fd5b8135818111156112c4576112c461170c565b6112d684601f19601f840116016115e8565b8181528c858386010111156112e9578687fd5b81858501868301379081018401869052965060608a0135955061130f8b60808c01611136565b945060c08a0135925080831115611324578384fd5b505061133289828a0161118c565b9150509295509295509295565b600060208284031215611350578081fd5b5035919050565b60008060408385031215611369578182fd5b8235915061137960208401611038565b90509250929050565b600060208284031215611393578081fd5b81357fffffffff0000000000000000000000000000000000000000000000000000000081168114610e67578182fd5b6000815180845260208085019450808401835b838110156113f1578151875295820195908201906001016113d5565b509495945050505050565b6000815180845260208085019450808401835b838110156113f157815161ffff168752958201959082019060010161140f565b60008151808452611447816020860160208601611674565b601f01601f19169290920160200192915050565b7f416363657373436f6e74726f6c3a206163636f756e7420000000000000000000815260008351611493816017850160208801611674565b7f206973206d697373696e6720726f6c652000000000000000000000000000000060179184019182015283516114d0816028840160208801611674565b01602801949350505050565b602081526000610e67602083018461142f565b60c08152600061150260c083018861142f565b86602084015261ffff8651166040840152602086015160608401528281036080840152845181526020850151602082015260408501516003811061155457634e487b7160e01b83526021600452602483fd5b80604083015250606085015161156f606083018260ff169052565b50608085015160c0608083015261158960c08301826113c2565b905060a086015182820360a08401526115a282826113fc565b93505050506115b560a083018415159052565b9695505050505050565b60405160c0810167ffffffffffffffff811182821017156115e2576115e261170c565b60405290565b604051601f8201601f1916810167ffffffffffffffff811182821017156116115761161161170c565b604052919050565b600067ffffffffffffffff8211156116335761163361170c565b5060051b60200190565b60008219821115611650576116506116f6565b500190565b600081600019048311821515161561166f5761166f6116f6565b500290565b60005b8381101561168f578181015183820152602001611677565b8381111561169e576000848401525b50505050565b6000816116b3576116b36116f6565b506000190190565b600181811c908216806116cf57607f821691505b602082108114156116f057634e487b7160e01b600052602260045260246000fd5b50919050565b634e487b7160e01b600052601160045260246000fd5b634e487b7160e01b600052604160045260246000fdfea2646970667358221220750846a88038d82692f9cec3044812dc6024f1f35e0435886bbcef0bb5c4e16764736f6c63430008040033",
  "immutableReferences": {},
  "source": "// SPDX-License-Identifier: MIT\npragma solidity ^0.8.4;\n\nimport \"@openzeppelin/contracts/access/AccessControl.sol\";\nstruct Dosage {\n    uint16 strength;\n    bytes32 unit;\n}\n\nenum Frequency {\n    Interval,\n    DaysOfWeek,\n    AsNeeded\n}\n\nstruct Schedule {\n    uint256 startDate;\n    uint256 endDate;\n    Frequency frequency;\n    uint8 interval;\n    bytes32[] daysOfWeek;\n    uint16[] timesOfDay;\n}\n\ncontract Treatment is AccessControl {\n    bytes32 public constant PATIENT_ROLE = keccak256(\"PATIENT_ROLE\");\n    bytes32 public constant MANAGER_ROLE = keccak256(\"MANAGER_ROLE\");\n    bytes32 public constant DOCTOR_ROLE = keccak256(\"DOCTOR_ROLE\");\n\n    address private patient;\n    bytes32 private form;\n    Dosage private dosage;\n    Schedule private schedule;\n    string private medicine;\n    bool private init;\n\n    constructor() {\n    }\n\n    modifier canRead() {\n        hasReadAccess();\n        _;\n    }\n\n    function hasReadAccess() private view {\n        require(\n            hasRole(PATIENT_ROLE, msg.sender) ||\n                hasRole(DEFAULT_ADMIN_ROLE, msg.sender)\n        );\n    }\n\n    function initialize(\n        address doctor_,\n        address patient_,\n        string memory medicine_,\n        bytes32 form_,\n        Dosage memory dosage_,\n        Schedule memory schedule_\n    ) public {\n        require(init == false, \"Already initialized\");\n        _setRoleAdmin(DOCTOR_ROLE, DEFAULT_ADMIN_ROLE);\n        _setRoleAdmin(PATIENT_ROLE, DOCTOR_ROLE);\n        _setRoleAdmin(MANAGER_ROLE, DOCTOR_ROLE);\n        _setupRole(PATIENT_ROLE, patient_);\n        _setupRole(MANAGER_ROLE, msg.sender);\n        _setupRole(DOCTOR_ROLE, doctor_);\n\n        patient = patient_;\n        medicine = medicine_;\n        form = form_;\n        dosage = dosage_;\n        schedule = schedule_;\n        init = true;\n    }\n\n    function getPatient() public view returns (address) {\n        return patient;\n    }\n\n    function getMedicine() public view returns (string memory medicine_) {\n        return medicine;\n    }\n\n    function getTreatment()\n        public\n        view\n        returns (\n            string memory,\n            bytes32,\n            Dosage memory,\n            Schedule memory,\n            bool\n        )\n    {\n        string memory medicine_ = medicine;\n        Dosage memory dosage_ = dosage;\n        Schedule memory schedule_ = schedule;\n        return (medicine_, form, dosage_, schedule_, isComplete());\n    }\n\n    function isComplete() public view returns (bool) {\n        return schedule.endDate < block.timestamp * 1000;\n    }\n\n    function edit(string memory medicine_)\n        internal\n        onlyRole(DEFAULT_ADMIN_ROLE)\n    {\n        medicine = medicine_;\n    }\n\n    function edit(bytes32 form_) internal onlyRole(DEFAULT_ADMIN_ROLE) {\n        form = form_;\n    }\n\n    function edit(Dosage memory dosage_) internal onlyRole(DEFAULT_ADMIN_ROLE) {\n        dosage = dosage_;\n    }\n\n    function edit(Schedule memory schedule_)\n        internal\n        onlyRole(DEFAULT_ADMIN_ROLE)\n    {\n        schedule = schedule_;\n    }\n}\n",
  "sourcePath": "/home/leslie/Documents/GitHub/svelte-blockchain-template-sveltekit/contracts/Treatment.sol",
  "compiler": {
    "name": "solc",
    "version": "0.8.4+commit.c7e474f2.Emscripten.clang"
  },
  "schemaVersion": "3.4.9",
  "updatedAt": "2023-01-12T08:14:01.618Z",
  "devdoc": {
    "kind": "dev",
    "methods": {
      "getRoleAdmin(bytes32)": {
        "details": "Returns the admin role that controls `role`. See {grantRole} and {revokeRole}. To change a role's admin, use {_setRoleAdmin}."
      },
      "grantRole(bytes32,address)": {
        "details": "Grants `role` to `account`. If `account` had not been already granted `role`, emits a {RoleGranted} event. Requirements: - the caller must have ``role``'s admin role. May emit a {RoleGranted} event."
      },
      "hasRole(bytes32,address)": {
        "details": "Returns `true` if `account` has been granted `role`."
      },
      "renounceRole(bytes32,address)": {
        "details": "Revokes `role` from the calling account. Roles are often managed via {grantRole} and {revokeRole}: this function's purpose is to provide a mechanism for accounts to lose their privileges if they are compromised (such as when a trusted device is misplaced). If the calling account had been revoked `role`, emits a {RoleRevoked} event. Requirements: - the caller must be `account`. May emit a {RoleRevoked} event."
      },
      "revokeRole(bytes32,address)": {
        "details": "Revokes `role` from `account`. If `account` had been granted `role`, emits a {RoleRevoked} event. Requirements: - the caller must have ``role``'s admin role. May emit a {RoleRevoked} event."
      },
      "supportsInterface(bytes4)": {
        "details": "See {IERC165-supportsInterface}."
      }
    },
    "version": 1
  },
  "userdoc": {
    "kind": "user",
    "methods": {},
    "version": 1
  }
}