{
  "contractName": "TreatmentFactory",
  "abi": [
    {
      "inputs": [],
      "stateMutability": "nonpayable",
      "type": "constructor"
    },
    {
      "anonymous": false,
      "inputs": [
        {
          "indexed": true,
          "internalType": "address",
          "name": "previousOwner",
          "type": "address"
        },
        {
          "indexed": true,
          "internalType": "address",
          "name": "newOwner",
          "type": "address"
        }
      ],
      "name": "OwnershipTransferred",
      "type": "event"
    },
    {
      "inputs": [],
      "name": "owner",
      "outputs": [
        {
          "internalType": "address",
          "name": "",
          "type": "address"
        }
      ],
      "stateMutability": "view",
      "type": "function"
    },
    {
      "inputs": [],
      "name": "renounceOwnership",
      "outputs": [],
      "stateMutability": "nonpayable",
      "type": "function"
    },
    {
      "inputs": [
        {
          "internalType": "address",
          "name": "newOwner",
          "type": "address"
        }
      ],
      "name": "transferOwnership",
      "outputs": [],
      "stateMutability": "nonpayable",
      "type": "function"
    },
    {
      "inputs": [
        {
          "internalType": "address",
          "name": "doctor_",
          "type": "address"
        },
        {
          "internalType": "address",
          "name": "patient_",
          "type": "address"
        },
        {
          "internalType": "string",
          "name": "medicine_",
          "type": "string"
        },
        {
          "internalType": "bytes32",
          "name": "form_",
          "type": "bytes32"
        },
        {
          "components": [
            {
              "internalType": "uint16",
              "name": "strength",
              "type": "uint16"
            },
            {
              "internalType": "bytes32",
              "name": "unit",
              "type": "bytes32"
            }
          ],
          "internalType": "struct Dosage",
          "name": "dosage_",
          "type": "tuple"
        },
        {
          "components": [
            {
              "internalType": "uint256",
              "name": "startDate",
              "type": "uint256"
            },
            {
              "internalType": "uint256",
              "name": "endDate",
              "type": "uint256"
            },
            {
              "internalType": "enum Frequency",
              "name": "frequency",
              "type": "uint8"
            },
            {
              "internalType": "uint8",
              "name": "interval",
              "type": "uint8"
            },
            {
              "internalType": "bytes32[]",
              "name": "daysOfWeek",
              "type": "bytes32[]"
            },
            {
              "internalType": "uint16[]",
              "name": "timesOfDay",
              "type": "uint16[]"
            }
          ],
          "internalType": "struct Schedule",
          "name": "schedule_",
          "type": "tuple"
        }
      ],
      "name": "createTreatment",
      "outputs": [
        {
          "internalType": "address",
          "name": "clone",
          "type": "address"
        }
      ],
      "stateMutability": "nonpayable",
      "type": "function"
    }
  ],
  "bytecode": "0x60a060405234801561001057600080fd5b5061001a33610058565b604051610026906100a8565b604051809103906000f080158015610042573d6000803e3d6000fd5b5060601b6001600160601b0319166080526100b5565b600080546001600160a01b038381166001600160a01b0319831681178455604051919092169283917f8be0079c531659141344cd1fd0a4f28419497f9722a3daafe3b4186f6b6457e09190a35050565b61177880610a9283390190565b60805160601c6109c06100d2600039600060e701526109c06000f3fe608060405234801561001057600080fd5b506004361061004c5760003560e01c8063715018a6146100515780638da5cb5b1461005b578063d4f9b0921461009e578063f2fde38b146100b1575b600080fd5b6100596100c4565b005b60005473ffffffffffffffffffffffffffffffffffffffff165b60405173ffffffffffffffffffffffffffffffffffffffff909116815260200160405180910390f35b6100756100ac366004610630565b6100d8565b6100596100bf36600461060f565b6101a6565b6100cc610248565b6100d660006102af565b565b60006100e2610248565b61010b7f0000000000000000000000000000000000000000000000000000000000000000610324565b6040517fa982df1d00000000000000000000000000000000000000000000000000000000815290915073ffffffffffffffffffffffffffffffffffffffff82169063a982df1d9061016a908a908a908a908a908a908a90600401610822565b600060405180830381600087803b15801561018457600080fd5b505af1158015610198573d6000803e3d6000fd5b505050509695505050505050565b6101ae610248565b73ffffffffffffffffffffffffffffffffffffffff811661023c5760405162461bcd60e51b815260206004820152602660248201527f4f776e61626c653a206e6577206f776e657220697320746865207a65726f206160448201527f646472657373000000000000000000000000000000000000000000000000000060648201526084015b60405180910390fd5b610245816102af565b50565b60005473ffffffffffffffffffffffffffffffffffffffff1633146100d65760405162461bcd60e51b815260206004820181905260248201527f4f776e61626c653a2063616c6c6572206973206e6f7420746865206f776e65726044820152606401610233565b6000805473ffffffffffffffffffffffffffffffffffffffff8381167fffffffffffffffffffffffff0000000000000000000000000000000000000000831681178455604051919092169283917f8be0079c531659141344cd1fd0a4f28419497f9722a3daafe3b4186f6b6457e09190a35050565b60006040517f3d602d80600a3d3981f3363d3d373d3d3d363d7300000000000000000000000081528260601b60148201527f5af43d82803e903d91602b57fd5bf3000000000000000000000000000000000060288201526037816000f091505073ffffffffffffffffffffffffffffffffffffffff81166103e75760405162461bcd60e51b815260206004820152601660248201527f455243313136373a20637265617465206661696c6564000000000000000000006044820152606401610233565b919050565b803573ffffffffffffffffffffffffffffffffffffffff811681146103e757600080fd5b600082601f830112610420578081fd5b8135602061043561043083610937565b610906565b80838252828201915082860187848660051b8901011115610454578586fd5b855b8581101561047257813584529284019290840190600101610456565b5090979650505050505050565b600082601f83011261048f578081fd5b8135602061049f61043083610937565b80838252828201915082860187848660051b89010111156104be578586fd5b855b85811015610472576104d1826105ec565b845292840192908401906001016104c0565b8035600381106103e757600080fd5b600060408284031215610503578081fd5b6040516040810181811067ffffffffffffffff821117156105265761052661095b565b604052905080610535836105ec565b8152602083013560208201525092915050565b600060c08284031215610559578081fd5b6105616108dd565b9050813581526020820135602082015261057d604083016104e3565b604082015261058e606083016105fe565b6060820152608082013567ffffffffffffffff808211156105ae57600080fd5b6105ba85838601610410565b608084015260a08401359150808211156105d357600080fd5b506105e08482850161047f565b60a08301525092915050565b803561ffff811681146103e757600080fd5b803560ff811681146103e757600080fd5b600060208284031215610620578081fd5b610629826103ec565b9392505050565b60008060008060008060e08789031215610648578182fd5b610651876103ec565b955060206106608189016103ec565b9550604088013567ffffffffffffffff8082111561067c578485fd5b818a0191508a601f83011261068f578485fd5b8135818111156106a1576106a161095b565b6106b384601f19601f84011601610906565b8181528c858386010111156106c6578687fd5b81858501868301379081018401869052965060608a013595506106ec8b60808c016104f2565b945060c08a0135925080831115610701578384fd5b505061070f89828a01610548565b9150509295509295509295565b6000815180845260208085019450808401835b8381101561074b5781518752958201959082019060010161072f565b509495945050505050565b6000815180845260208085019450808401835b8381101561074b57815161ffff1687529582019590820190600101610769565b805182526020810151602083015260006040820151600381106107d3577f4e487b710000000000000000000000000000000000000000000000000000000082526021600452602482fd5b8060408501525060ff6060830151166060840152608082015160c0608085015261080060c085018261071c565b905060a083015184820360a08601526108198282610756565b95945050505050565b600073ffffffffffffffffffffffffffffffffffffffff808916835260208189168185015260e06040850152875191508160e0850152825b82811015610877578881018201518582016101000152810161085a565b82811115610889578361010084870101525b505060608301869052601f01601f191682016101006108b96080850187805161ffff168252602090810151910152565b808483030160c08501526108cf81830186610789565b9a9950505050505050505050565b60405160c0810167ffffffffffffffff811182821017156109005761090061095b565b60405290565b604051601f8201601f1916810167ffffffffffffffff8111828210171561092f5761092f61095b565b604052919050565b600067ffffffffffffffff8211156109515761095161095b565b5060051b60200190565b7f4e487b7100000000000000000000000000000000000000000000000000000000600052604160045260246000fdfea2646970667358221220def2613b9a259acefbf0c2d4744568815dc12d2cb184d9fdacc8fa5f04e55cdd64736f6c63430008040033608060405234801561001057600080fd5b50611758806100206000396000f3fe608060405234801561001057600080fd5b50600436106100f55760003560e01c8063a982df1d11610097578063d547741f11610066578063d547741f14610230578063ec87621c14610243578063f595c4851461026a578063fec331f21461027f57600080fd5b8063a982df1d146101d5578063ac5cb97d146101e8578063b2fa1c9e1461020f578063c25fe2681461021757600080fd5b806336568abe116100d357806336568abe146101685780637b0f9a361461017b57806391d1485414610196578063a217fddf146101cd57600080fd5b806301ffc9a7146100fa578063248a9ca3146101225780632f2ff15d14610153575b600080fd5b61010d610108366004611382565b6102a6565b60405190151581526020015b60405180910390f35b61014561013036600461133f565b60009081526020819052604090206001015490565b604051908152602001610119565b610166610161366004611357565b61033f565b005b610166610176366004611357565b610369565b6001546040516001600160a01b039091168152602001610119565b61010d6101a4366004611357565b6000918252602082815260408084206001600160a01b0393909316845291905290205460ff1690565b610145600081565b6101666101e3366004611253565b6103fa565b6101457f72606200fac42b7dc86b75901d61ecfab2a4a1a6eded478b97a428094891abed81565b61010d6106e7565b61021f6106fe565b6040516101199594939291906114ef565b61016661023e366004611357565b610944565b6101457f241ecf16d79d0f8dbfb92cbc07fe17840425976cf0667f022fe9877caa831b0881565b610272610969565b60405161011991906114dc565b6101457f0af1dac7dea2fd7f7738119cec7df099dfad49aa9d2e7d17ba6b60f63ae7411f81565b60007fffffffff0000000000000000000000000000000000000000000000000000000082167f7965db0b00000000000000000000000000000000000000000000000000000000148061033957507f01ffc9a7000000000000000000000000000000000000000000000000000000007fffffffff000000000000000000000000000000000000000000000000000000008316145b92915050565b60008281526020819052604090206001015461035a816109fb565b6103648383610a08565b505050565b6001600160a01b03811633146103ec5760405162461bcd60e51b815260206004820152602f60248201527f416363657373436f6e74726f6c3a2063616e206f6e6c792072656e6f756e636560448201527f20726f6c657320666f722073656c66000000000000000000000000000000000060648201526084015b60405180910390fd5b6103f68282610aa6565b5050565b600b5460ff161561044d5760405162461bcd60e51b815260206004820152601360248201527f416c726561647920696e697469616c697a65640000000000000000000000000060448201526064016103e3565b6104787f0af1dac7dea2fd7f7738119cec7df099dfad49aa9d2e7d17ba6b60f63ae7411f6000610b25565b6104c27f72606200fac42b7dc86b75901d61ecfab2a4a1a6eded478b97a428094891abed7f0af1dac7dea2fd7f7738119cec7df099dfad49aa9d2e7d17ba6b60f63ae7411f610b25565b61050c7f241ecf16d79d0f8dbfb92cbc07fe17840425976cf0667f022fe9877caa831b087f0af1dac7dea2fd7f7738119cec7df099dfad49aa9d2e7d17ba6b60f63ae7411f610b25565b6105367f72606200fac42b7dc86b75901d61ecfab2a4a1a6eded478b97a428094891abed86610b70565b6105607f241ecf16d79d0f8dbfb92cbc07fe17840425976cf0667f022fe9877caa831b0833610b70565b61058a7f0af1dac7dea2fd7f7738119cec7df099dfad49aa9d2e7d17ba6b60f63ae7411f87610b70565b600180547fffffffffffffffffffffffff0000000000000000000000000000000000000000166001600160a01b03871617905583516105d090600a906020870190610e6e565b5060028381558251600380547fffffffffffffffffffffffffffffffffffffffffffffffffffffffffffff00001661ffff9092169190911790556020808401516004558251600590815590830151600655604083015160078054859460ff1990911690600190849081111561065557634e487b7160e01b600052602160045260246000fd5b0217905550606082015160028201805460ff909216610100027fffffffffffffffffffffffffffffffffffffffffffffffffffffffffffff00ff909216919091179055608082015180516106b3916003840191602090910190610ef2565b5060a082015180516106cf916004840191602090910190610f2c565b5050600b805460ff1916600117905550505050505050565b60006106f5426103e8611655565b60065410919050565b6040805180820190915260008082526020820181905260609161071f610fd0565b600080600a805461072f906116bb565b80601f016020809104026020016040519081016040528092919081815260200182805461075b906116bb565b80156107a85780601f1061077d576101008083540402835291602001916107a8565b820191906000526020600020905b81548152906001019060200180831161078b57829003601f168201915b505060408051808201825260035461ffff168152600454602080830191909152825160c0810184526005805482526006549282019290925260075497985091966000965091945092509083019060ff16600281111561081757634e487b7160e01b600052602160045260246000fd5b600281111561083657634e487b7160e01b600052602160045260246000fd5b81526002820154610100900460ff16602080830191909152600383018054604080518285028101850182528281529401939283018282801561089757602002820191906000526020600020905b815481526020019060010190808311610883575b505050505081526020016004820180548060200260200160405190810160405280929190818152602001828054801561091757602002820191906000526020600020906000905b82829054906101000a900461ffff1661ffff16815260200190600201906020826001010492830192600103820291508084116108de5790505b50505050508152505090508260025483836109306106e7565b975097509750975097505050509091929394565b60008281526020819052604090206001015461095f816109fb565b6103648383610aa6565b6060600a8054610978906116bb565b80601f01602080910402602001604051908101604052809291908181526020018280546109a4906116bb565b80156109f15780601f106109c6576101008083540402835291602001916109f1565b820191906000526020600020905b8154815290600101906020018083116109d457829003601f168201915b5050505050905090565b610a058133610b7a565b50565b6000828152602081815260408083206001600160a01b038516845290915290205460ff166103f6576000828152602081815260408083206001600160a01b03851684529091529020805460ff19166001179055610a623390565b6001600160a01b0316816001600160a01b0316837f2f8788117e7eff1d82e926ec794901d17c78024a50270940304540a733656f0d60405160405180910390a45050565b6000828152602081815260408083206001600160a01b038516845290915290205460ff16156103f6576000828152602081815260408083206001600160a01b0385168085529252808320805460ff1916905551339285917ff6391f5c32d9c69d2a47ea670b442974b53935d1edc7fd64eb21e047a839171b9190a45050565b600082815260208190526040808220600101805490849055905190918391839186917fbd79b86ffe0ab8e8776151514217cd7cacd52c909f66475c3af44e129f0b00ff9190a4505050565b6103f68282610a08565b6000828152602081815260408083206001600160a01b038516845290915290205460ff166103f657610bb6816001600160a01b03166014610bf8565b610bc1836020610bf8565b604051602001610bd292919061145b565b60408051601f198184030181529082905262461bcd60e51b82526103e3916004016114dc565b60606000610c07836002611655565b610c1290600261163d565b67ffffffffffffffff811115610c3857634e487b7160e01b600052604160045260246000fd5b6040519080825280601f01601f191660200182016040528015610c62576020820181803683370190505b5090507f300000000000000000000000000000000000000000000000000000000000000081600081518110610ca757634e487b7160e01b600052603260045260246000fd5b60200101907effffffffffffffffffffffffffffffffffffffffffffffffffffffffffffff1916908160001a9053507f780000000000000000000000000000000000000000000000000000000000000081600181518110610d1857634e487b7160e01b600052603260045260246000fd5b60200101907effffffffffffffffffffffffffffffffffffffffffffffffffffffffffffff1916908160001a9053506000610d54846002611655565b610d5f90600161163d565b90505b6001811115610e18577f303132333435363738396162636465660000000000000000000000000000000085600f1660108110610dae57634e487b7160e01b600052603260045260246000fd5b1a60f81b828281518110610dd257634e487b7160e01b600052603260045260246000fd5b60200101907effffffffffffffffffffffffffffffffffffffffffffffffffffffffffffff1916908160001a90535060049490941c93610e11816116a4565b9050610d62565b508315610e675760405162461bcd60e51b815260206004820181905260248201527f537472696e67733a20686578206c656e67746820696e73756666696369656e7460448201526064016103e3565b9392505050565b828054610e7a906116bb565b90600052602060002090601f016020900481019282610e9c5760008555610ee2565b82601f10610eb557805160ff1916838001178555610ee2565b82800160010185558215610ee2579182015b82811115610ee2578251825591602001919060010190610ec7565b50610eee929150611023565b5090565b828054828255906000526020600020908101928215610ee25791602002820182811115610ee2578251825591602001919060010190610ec7565b82805482825590600052602060002090600f01601090048101928215610ee25791602002820160005b83821115610f9557835183826101000a81548161ffff021916908361ffff1602179055509260200192600201602081600101049283019260010302610f55565b8015610fc35782816101000a81549061ffff0219169055600201602081600101049283019260010302610f95565b5050610eee929150611023565b6040518060c0016040528060008152602001600081526020016000600281111561100a57634e487b7160e01b600052602160045260246000fd5b8152600060208201526060604082018190529081015290565b5b80821115610eee5760008155600101611024565b80356001600160a01b038116811461104f57600080fd5b919050565b600082601f830112611064578081fd5b8135602061107961107483611619565b6115e8565b80838252828201915082860187848660051b8901011115611098578586fd5b855b858110156110b65781358452928401929084019060010161109a565b5090979650505050505050565b600082601f8301126110d3578081fd5b813560206110e361107483611619565b80838252828201915082860187848660051b8901011115611102578586fd5b855b858110156110b65761111582611230565b84529284019290840190600101611104565b80356003811061104f57600080fd5b600060408284031215611147578081fd5b6040516040810181811067ffffffffffffffff8211171561116a5761116a61170c565b60405290508061117983611230565b8152602083013560208201525092915050565b600060c0828403121561119d578081fd5b6111a56115bf565b905081358152602082013560208201526111c160408301611127565b60408201526111d260608301611242565b6060820152608082013567ffffffffffffffff808211156111f257600080fd5b6111fe85838601611054565b608084015260a084013591508082111561121757600080fd5b50611224848285016110c3565b60a08301525092915050565b803561ffff8116811461104f57600080fd5b803560ff8116811461104f57600080fd5b60008060008060008060e0878903121561126b578182fd5b61127487611038565b95506020611283818901611038565b9550604088013567ffffffffffffffff8082111561129f578485fd5b818a0191508a601f8301126112b2578485fd5b8135818111156112c4576112c461170c565b6112d684601f19601f840116016115e8565b8181528c858386010111156112e9578687fd5b81858501868301379081018401869052965060608a0135955061130f8b60808c01611136565b945060c08a0135925080831115611324578384fd5b505061133289828a0161118c565b9150509295509295509295565b600060208284031215611350578081fd5b5035919050565b60008060408385031215611369578182fd5b8235915061137960208401611038565b90509250929050565b600060208284031215611393578081fd5b81357fffffffff0000000000000000000000000000000000000000000000000000000081168114610e67578182fd5b6000815180845260208085019450808401835b838110156113f1578151875295820195908201906001016113d5565b509495945050505050565b6000815180845260208085019450808401835b838110156113f157815161ffff168752958201959082019060010161140f565b60008151808452611447816020860160208601611674565b601f01601f19169290920160200192915050565b7f416363657373436f6e74726f6c3a206163636f756e7420000000000000000000815260008351611493816017850160208801611674565b7f206973206d697373696e6720726f6c652000000000000000000000000000000060179184019182015283516114d0816028840160208801611674565b01602801949350505050565b602081526000610e67602083018461142f565b60c08152600061150260c083018861142f565b86602084015261ffff8651166040840152602086015160608401528281036080840152845181526020850151602082015260408501516003811061155457634e487b7160e01b83526021600452602483fd5b80604083015250606085015161156f606083018260ff169052565b50608085015160c0608083015261158960c08301826113c2565b905060a086015182820360a08401526115a282826113fc565b93505050506115b560a083018415159052565b9695505050505050565b60405160c0810167ffffffffffffffff811182821017156115e2576115e261170c565b60405290565b604051601f8201601f1916810167ffffffffffffffff811182821017156116115761161161170c565b604052919050565b600067ffffffffffffffff8211156116335761163361170c565b5060051b60200190565b60008219821115611650576116506116f6565b500190565b600081600019048311821515161561166f5761166f6116f6565b500290565b60005b8381101561168f578181015183820152602001611677565b8381111561169e576000848401525b50505050565b6000816116b3576116b36116f6565b506000190190565b600181811c908216806116cf57607f821691505b602082108114156116f057634e487b7160e01b600052602260045260246000fd5b50919050565b634e487b7160e01b600052601160045260246000fd5b634e487b7160e01b600052604160045260246000fdfea2646970667358221220750846a88038d82692f9cec3044812dc6024f1f35e0435886bbcef0bb5c4e16764736f6c63430008040033",
  "immutableReferences": {
    "3056": [
      {
        "length": 32,
        "start": 231
      }
    ]
  },
  "source": "// SPDX-License-Identifier: MIT\npragma solidity ^0.8.4;\n\nimport \"@openzeppelin/contracts/proxy/Clones.sol\";\nimport \"@openzeppelin/contracts/access/Ownable.sol\";\nimport \"./Treatment.sol\";\n\ncontract TreatmentFactory is Ownable {\n    address immutable treatmentImplementation;\n\n    constructor() {\n        treatmentImplementation = address(new Treatment());\n    }\n\n    function createTreatment(\n        address doctor_,\n        address patient_,\n        string memory medicine_,\n        bytes32 form_,\n        Dosage memory dosage_,\n        Schedule memory schedule_\n    ) external onlyOwner returns (address clone) {\n        clone = Clones.clone(treatmentImplementation);\n        Treatment(clone).initialize(\n            doctor_,\n            patient_,\n            medicine_,\n            form_,\n            dosage_,\n            schedule_\n        );\n    }\n}\n",
  "sourcePath": "/home/leslie/Documents/GitHub/svelte-blockchain-template-sveltekit/contracts/TreatmentFactory.sol",
  "compiler": {
    "name": "solc",
    "version": "0.8.4+commit.c7e474f2.Emscripten.clang"
  },
  "schemaVersion": "3.4.9",
  "updatedAt": "2023-01-12T08:14:01.625Z",
  "devdoc": {
    "kind": "dev",
    "methods": {
      "owner()": {
        "details": "Returns the address of the current owner."
      },
      "renounceOwnership()": {
        "details": "Leaves the contract without owner. It will not be possible to call `onlyOwner` functions anymore. Can only be called by the current owner. NOTE: Renouncing ownership will leave the contract without an owner, thereby removing any functionality that is only available to the owner."
      },
      "transferOwnership(address)": {
        "details": "Transfers ownership of the contract to a new account (`newOwner`). Can only be called by the current owner."
      }
    },
    "version": 1
  },
  "userdoc": {
    "kind": "user",
    "methods": {},
    "version": 1
  }
}