{
	"data": {
		"bytecode": {
			"linkReferences": {},
			"object": "60806040526040516200001290620000f7565b604051809103906000f0801580156200002f573d6000803e3d6000fd5b50600260006101000a81548173ffffffffffffffffffffffffffffffffffffffff021916908373ffffffffffffffffffffffffffffffffffffffff1602179055503480156200007d57600080fd5b506040516200574a3803806200574a8339818101604052810190620000a3919062000133565b818181600160006101000a81548173ffffffffffffffffffffffffffffffffffffffff021916908373ffffffffffffffffffffffffffffffffffffffff1602179055508060008190555050505050620001f1565b6137cd8062001f7d83390190565b6000815190506200011681620001bd565b92915050565b6000815190506200012d81620001d7565b92915050565b600080604083850312156200014d576200014c620001b8565b5b60006200015d8582860162000105565b925050602062000170858286016200011c565b9150509250929050565b6000620001878262000198565b9050919050565b6000819050919050565b600073ffffffffffffffffffffffffffffffffffffffff82169050919050565b600080fd5b620001c8816200017a565b8114620001d457600080fd5b50565b620001e2816200018e565b8114620001ee57600080fd5b50565b611d7c80620002016000396000f3fe608060405234801561001057600080fd5b506004361061004c5760003560e01c806317d7de7c1461005157806324882df81461006f578063b24083a11461008b578063c37f2f28146100a7575b600080fd5b6100596100c3565b6040516100669190611757565b60405180910390f35b6100896004803603810190610084919061114a565b6100cc565b005b6100a560048036038101906100a09190610fea565b6102b0565b005b6100c160048036038101906100bc919061103d565b6105ed565b005b60008054905090565b600073ffffffffffffffffffffffffffffffffffffffff16600160009054906101000a900473ffffffffffffffffffffffffffffffffffffffff1673ffffffffffffffffffffffffffffffffffffffff1663b5368e20336040518263ffffffff1660e01b815260040161013f9190611688565b60206040518083038186803b15801561015757600080fd5b505afa15801561016b573d6000803e3d6000fd5b505050506040513d601f19601f8201168201806040525081019061018f9190610fbd565b73ffffffffffffffffffffffffffffffffffffffff16146101e5576040517f08c379a00000000000000000000000000000000000000000000000000000000081526004016101dc906117db565b60405180910390fd5b600160009054906101000a900473ffffffffffffffffffffffffffffffffffffffff1673ffffffffffffffffffffffffffffffffffffffff1663b3275216868686868660405180604001604052806001151581526020013373ffffffffffffffffffffffffffffffffffffffff168152506040518763ffffffff1660e01b81526004016102779695949392919061181b565b600060405180830381600087803b15801561029157600080fd5b505af11580156102a5573d6000803e3d6000fd5b505050505050505050565b600160009054906101000a900473ffffffffffffffffffffffffffffffffffffffff1673ffffffffffffffffffffffffffffffffffffffff166391d14854600160009054906101000a900473ffffffffffffffffffffffffffffffffffffffff1673ffffffffffffffffffffffffffffffffffffffff1663f45edb5f6040518163ffffffff1660e01b815260040160206040518083038186803b15801561035657600080fd5b505afa15801561036a573d6000803e3d6000fd5b505050506040513d601f19601f8201168201806040525081019061038e919061111d565b336040518363ffffffff1660e01b81526004016103ac929190611772565b60206040518083038186803b1580156103c457600080fd5b505afa1580156103d8573d6000803e3d6000fd5b505050506040513d601f19601f820116820180604052508101906103fc91906110f0565b61043b576040517f08c379a0000000000000000000000000000000000000000000000000000000008152600401610432906117fb565b60405180910390fd5b600073ffffffffffffffffffffffffffffffffffffffff16600160009054906101000a900473ffffffffffffffffffffffffffffffffffffffff1673ffffffffffffffffffffffffffffffffffffffff16632f04e064336040518263ffffffff1660e01b81526004016104ae9190611688565b60206040518083038186803b1580156104c657600080fd5b505afa1580156104da573d6000803e3d6000fd5b505050506040513d601f19601f820116820180604052508101906104fe9190610fbd565b73ffffffffffffffffffffffffffffffffffffffff1614610554576040517f08c379a000000000000000000000000000000000000000000000000000000000815260040161054b906117db565b60405180910390fd5b600160009054906101000a900473ffffffffffffffffffffffffffffffffffffffff1673ffffffffffffffffffffffffffffffffffffffff166315bf3c0984848460016040518563ffffffff1660e01b81526004016105b69493929190611712565b600060405180830381600087803b1580156105d057600080fd5b505af11580156105e4573d6000803e3d6000fd5b50505050505050565b6000600160009054906101000a900473ffffffffffffffffffffffffffffffffffffffff1673ffffffffffffffffffffffffffffffffffffffff1663b5368e20876040518263ffffffff1660e01b815260040161064a9190611688565b60206040518083038186803b15801561066257600080fd5b505afa158015610676573d6000803e3d6000fd5b505050506040513d601f19601f8201168201806040525081019061069a9190610fbd565b90506000600160009054906101000a900473ffffffffffffffffffffffffffffffffffffffff1673ffffffffffffffffffffffffffffffffffffffff16632f04e064336040518263ffffffff1660e01b81526004016106f99190611688565b60206040518083038186803b15801561071157600080fd5b505afa158015610725573d6000803e3d6000fd5b505050506040513d601f19601f820116820180604052508101906107499190610fbd565b9050600073ffffffffffffffffffffffffffffffffffffffff168273ffffffffffffffffffffffffffffffffffffffff16141580156107b55750600073ffffffffffffffffffffffffffffffffffffffff168173ffffffffffffffffffffffffffffffffffffffff1614155b6107f4576040517f08c379a00000000000000000000000000000000000000000000000000000000081526004016107eb906117bb565b60405180910390fd5b8173ffffffffffffffffffffffffffffffffffffffff1663793de5f0336040518263ffffffff1660e01b815260040161082d9190611688565b60206040518083038186803b15801561084557600080fd5b505afa158015610859573d6000803e3d6000fd5b505050506040513d601f19601f8201168201806040525081019061087d91906110f0565b6108bc576040517f08c379a00000000000000000000000000000000000000000000000000000000081526004016108b39061179b565b60405180910390fd5b6000600260009054906101000a900473ffffffffffffffffffffffffffffffffffffffff1673ffffffffffffffffffffffffffffffffffffffff1663d4f9b092338a8a8a8a8a6040518763ffffffff1660e01b8152600401610923969594939291906116a3565b602060405180830381600087803b15801561093d57600080fd5b505af1158015610951573d6000803e3d6000fd5b505050506040513d601f19601f820116820180604052508101906109759190610fbd565b90508173ffffffffffffffffffffffffffffffffffffffff1663d294ffe0826040518263ffffffff1660e01b81526004016109b09190611688565b600060405180830381600087803b1580156109ca57600080fd5b505af11580156109de573d6000803e3d6000fd5b505050508273ffffffffffffffffffffffffffffffffffffffff1663d294ffe0826040518263ffffffff1660e01b8152600401610a1b9190611688565b600060405180830381600087803b158015610a3557600080fd5b505af1158015610a49573d6000803e3d6000fd5b505050505050505050505050565b6000610a6a610a65846118aa565b611885565b90508083825260208201905082856020860282011115610a8d57610a8c611ba9565b5b60005b85811015610abd5781610aa38882610ce5565b845260208401935060208301925050600181019050610a90565b5050509392505050565b6000610ada610ad5846118d6565b611885565b90508083825260208201905082856020860282011115610afd57610afc611ba9565b5b60005b85811015610b4b57813567ffffffffffffffff811115610b2357610b22611b9a565b5b808601610b308982610d24565b85526020850194506020840193505050600181019050610b00565b5050509392505050565b6000610b68610b6384611902565b611885565b90508083825260208201905082856020860282011115610b8b57610b8a611ba9565b5b60005b85811015610bbb5781610ba18882610f7e565b845260208401935060208301925050600181019050610b8e565b5050509392505050565b6000610bd8610bd38461192e565b611885565b905082815260208101848484011115610bf457610bf3611bae565b5b610bff848285611ac9565b509392505050565b600081359050610c1681611cac565b92915050565b600081519050610c2b81611cac565b92915050565b600082601f830112610c4657610c45611b9a565b5b8135610c56848260208601610a57565b91505092915050565b600082601f830112610c7457610c73611b9a565b5b8135610c84848260208601610ac7565b91505092915050565b600082601f830112610ca257610ca1611b9a565b5b8135610cb2848260208601610b55565b91505092915050565b600081359050610cca81611cc3565b92915050565b600081519050610cdf81611cc3565b92915050565b600081359050610cf481611cda565b92915050565b600081519050610d0981611cda565b92915050565b600081359050610d1e81611cf1565b92915050565b600082601f830112610d3957610d38611b9a565b5b8135610d49848260208601610bc5565b91505092915050565b600060608284031215610d6857610d67611b9f565b5b610d726060611885565b90506000610d8284828501610cbb565b6000830152506020610d9684828501610cbb565b6020830152506040610daa84828501610cbb565b60408301525092915050565b600060408284031215610dcc57610dcb611b9f565b5b610dd66040611885565b90506000610de684828501610ce5565b6000830152506020610dfa84828501610ce5565b60208301525092915050565b600060408284031215610e1c57610e1b611b9f565b5b610e266040611885565b90506000610e3684828501610f7e565b6000830152506020610e4a84828501610ce5565b60208301525092915050565b600060c08284031215610e6c57610e6b611b9f565b5b610e7660c0611885565b90506000610e8684828501610f93565b6000830152506020610e9a84828501610f93565b6020830152506040610eae84828501610d0f565b6040830152506060610ec284828501610fa8565b606083015250608082013567ffffffffffffffff811115610ee657610ee5611ba4565b5b610ef284828501610c31565b60808301525060a082013567ffffffffffffffff811115610f1657610f15611ba4565b5b610f2284828501610c8d565b60a08301525092915050565b600060408284031215610f4457610f43611b9f565b5b610f4e6040611885565b90506000610f5e84828501610f7e565b6000830152506020610f7284828501610f7e565b60208301525092915050565b600081359050610f8d81611d01565b92915050565b600081359050610fa281611d18565b92915050565b600081359050610fb781611d2f565b92915050565b600060208284031215610fd357610fd2611bb8565b5b6000610fe184828501610c1c565b91505092915050565b60008060006060848603121561100357611002611bb8565b5b600061101186828701610c07565b935050602061102286828701610ce5565b925050604061103386828701610ce5565b9150509250925092565b600080600080600060c0868803121561105957611058611bb8565b5b600061106788828901610c07565b955050602086013567ffffffffffffffff81111561108857611087611bb3565b5b61109488828901610d24565b94505060406110a588828901610ce5565b93505060606110b688828901610e06565b92505060a086013567ffffffffffffffff8111156110d7576110d6611bb3565b5b6110e388828901610e56565b9150509295509295909350565b60006020828403121561110657611105611bb8565b5b600061111484828501610cd0565b91505092915050565b60006020828403121561113357611132611bb8565b5b600061114184828501610cfa565b91505092915050565b6000806000806000610120868803121561116757611166611bb8565b5b600061117588828901610db6565b955050604061118688828901610f93565b945050606061119788828901610f2e565b93505060a086013567ffffffffffffffff8111156111b8576111b7611bb3565b5b6111c488828901610c5f565b92505060c06111d588828901610d52565b9150509295509295909350565b60006111ee8383611393565b60208301905092915050565b600061120683836113c0565b905092915050565b600061121a838361164c565b60208301905092915050565b61122f81611a37565b82525050565b61123e81611a37565b82525050565b600061124f8261198f565b61125981856119e2565b93506112648361195f565b8060005b8381101561129557815161127c88826111e2565b9750611287836119bb565b925050600181019050611268565b5085935050505092915050565b60006112ad8261199a565b6112b781856119f3565b9350836020820285016112c98561196f565b8060005b8581101561130557848403895281516112e685826111fa565b94506112f1836119c8565b925060208a019950506001810190506112cd565b50829750879550505050505092915050565b6000611322826119a5565b61132c8185611a04565b93506113378361197f565b8060005b8381101561136857815161134f888261120e565b975061135a836119d5565b92505060018101905061133b565b5085935050505092915050565b61137e81611a49565b82525050565b61138d81611a49565b82525050565b61139c81611a55565b82525050565b6113ab81611a55565b82525050565b6113ba81611ab7565b82525050565b60006113cb826119b0565b6113d58185611a15565b93506113e5818560208601611ad8565b6113ee81611bbd565b840191505092915050565b6000611404826119b0565b61140e8185611a26565b935061141e818560208601611ad8565b61142781611bbd565b840191505092915050565b600061143f602b83611a26565b915061144a82611bce565b604082019050919050565b6000611462601f83611a26565b915061146d82611c1d565b602082019050919050565b6000611485600f83611a26565b915061149082611c46565b602082019050919050565b60006114a8601283611a26565b91506114b382611c6f565b602082019050919050565b6060820160008201516114d46000850182611375565b5060208201516114e76020850182611375565b5060408201516114fa6040850182611375565b50505050565b6040820160008201516115166000850182611393565b5060208201516115296020850182611393565b50505050565b604082016000820151611545600085018261164c565b5060208201516115586020850182611393565b50505050565b6040820160008201516115746000850182611375565b5060208201516115876020850182611226565b50505050565b600060c0830160008301516115a5600086018261165b565b5060208301516115b8602086018261165b565b5060408301516115cb60408601826113b1565b5060608301516115de6060860182611679565b50608083015184820360808601526115f68282611244565b91505060a083015184820360a08601526116108282611317565b9150508091505092915050565b604082016000820151611633600085018261164c565b506020820151611646602085018261164c565b50505050565b61165581611a72565b82525050565b61166481611aa0565b82525050565b61167381611aa0565b82525050565b61168281611aaa565b82525050565b600060208201905061169d6000830184611235565b92915050565b600060e0820190506116b86000830189611235565b6116c56020830188611235565b81810360408301526116d781876113f9565b90506116e660608301866113a2565b6116f3608083018561152f565b81810360c0830152611705818461158d565b9050979650505050505050565b60006080820190506117276000830187611235565b61173460208301866113a2565b61174160408301856113a2565b61174e6060830184611384565b95945050505050565b600060208201905061176c60008301846113a2565b92915050565b600060408201905061178760008301856113a2565b6117946020830184611235565b9392505050565b600060208201905081810360008301526117b481611432565b9050919050565b600060208201905081810360008301526117d481611455565b9050919050565b600060208201905081810360008301526117f481611478565b9050919050565b600060208201905081810360008301526118148161149b565b9050919050565b6000610160820190506118316000830189611500565b61183e604083018861166a565b61184b606083018761161d565b81810360a083015261185d81866112a2565b905061186c60c08301856114be565b61187a61012083018461155e565b979650505050505050565b600061188f6118a0565b905061189b8282611b0b565b919050565b6000604051905090565b600067ffffffffffffffff8211156118c5576118c4611b6b565b5b602082029050602081019050919050565b600067ffffffffffffffff8211156118f1576118f0611b6b565b5b602082029050602081019050919050565b600067ffffffffffffffff82111561191d5761191c611b6b565b5b602082029050602081019050919050565b600067ffffffffffffffff82111561194957611948611b6b565b5b61195282611bbd565b9050602081019050919050565b6000819050602082019050919050565b6000819050602082019050919050565b6000819050602082019050919050565b600081519050919050565b600081519050919050565b600081519050919050565b600081519050919050565b6000602082019050919050565b6000602082019050919050565b6000602082019050919050565b600082825260208201905092915050565b600082825260208201905092915050565b600082825260208201905092915050565b600082825260208201905092915050565b600082825260208201905092915050565b6000611a4282611a80565b9050919050565b60008115159050919050565b6000819050919050565b6000819050611a6d82611c98565b919050565b600061ffff82169050919050565b600073ffffffffffffffffffffffffffffffffffffffff82169050919050565b6000819050919050565b600060ff82169050919050565b6000611ac282611a5f565b9050919050565b82818337600083830152505050565b60005b83811015611af6578082015181840152602081019050611adb565b83811115611b05576000848401525b50505050565b611b1482611bbd565b810181811067ffffffffffffffff82111715611b3357611b32611b6b565b5b80604052505050565b7f4e487b7100000000000000000000000000000000000000000000000000000000600052602160045260246000fd5b7f4e487b7100000000000000000000000000000000000000000000000000000000600052604160045260246000fd5b600080fd5b600080fd5b600080fd5b600080fd5b600080fd5b600080fd5b600080fd5b6000601f19601f8301169050919050565b7f5573657220646f6573206e6f74206861766520444f43544f525f524f4c45207460008201527f6f20707265736372696265000000000000000000000000000000000000000000602082015250565b7f50617469656e74206f7220646f63746f7220696e206e6f742061207573657200600082015250565b7f50726f66696c6520657869737465640000000000000000000000000000000000600082015250565b7f41646d696e6973747261746f72206f6e6c790000000000000000000000000000600082015250565b60038110611ca957611ca8611b3c565b5b50565b611cb581611a37565b8114611cc057600080fd5b50565b611ccc81611a49565b8114611cd757600080fd5b50565b611ce381611a55565b8114611cee57600080fd5b50565b60038110611cfe57600080fd5b50565b611d0a81611a72565b8114611d1557600080fd5b50565b611d2181611aa0565b8114611d2c57600080fd5b50565b611d3881611aaa565b8114611d4357600080fd5b5056fea2646970667358221220fb75c4773ee088aa8ad49005df15b6077ddcedb333eaccdf50b04d283ecd00a864736f6c6343000806003360a060405234801561001057600080fd5b5061002d61002261009160201b60201c565b61009960201b60201c565b6040516100399061015d565b604051809103906000f080158015610055573d6000803e3d6000fd5b5073ffffffffffffffffffffffffffffffffffffffff1660808173ffffffffffffffffffffffffffffffffffffffff1660601b8152505061016a565b600033905090565b60008060009054906101000a900473ffffffffffffffffffffffffffffffffffffffff169050816000806101000a81548173ffffffffffffffffffffffffffffffffffffffff021916908373ffffffffffffffffffffffffffffffffffffffff1602179055508173ffffffffffffffffffffffffffffffffffffffff168173ffffffffffffffffffffffffffffffffffffffff167f8be0079c531659141344cd1fd0a4f28419497f9722a3daafe3b4186f6b6457e060405160405180910390a35050565b6125d3806111fa83390190565b60805160601c611072610188600039600061011101526110726000f3fe608060405234801561001057600080fd5b506004361061004c5760003560e01c8063715018a6146100515780638da5cb5b1461005b578063d4f9b09214610079578063f2fde38b146100a9575b600080fd5b6100596100c5565b005b6100636100d9565b6040516100709190610b53565b60405180910390f35b610093600480360381019061008e91906107d8565b610102565b6040516100a09190610b53565b60405180910390f35b6100c360048036038101906100be91906107ab565b6101b6565b005b6100cd61023a565b6100d760006102b8565b565b60008060009054906101000a900473ffffffffffffffffffffffffffffffffffffffff16905090565b600061010c61023a565b6101357f000000000000000000000000000000000000000000000000000000000000000061037c565b90508073ffffffffffffffffffffffffffffffffffffffff1663a982df1d8888888888886040518763ffffffff1660e01b815260040161017a96959493929190610b6e565b600060405180830381600087803b15801561019457600080fd5b505af11580156101a8573d6000803e3d6000fd5b505050509695505050505050565b6101be61023a565b600073ffffffffffffffffffffffffffffffffffffffff168173ffffffffffffffffffffffffffffffffffffffff16141561022e576040517f08c379a000000000000000000000000000000000000000000000000000000000815260040161022590610bdd565b60405180910390fd5b610237816102b8565b50565b610242610451565b73ffffffffffffffffffffffffffffffffffffffff166102606100d9565b73ffffffffffffffffffffffffffffffffffffffff16146102b6576040517f08c379a00000000000000000000000000000000000000000000000000000000081526004016102ad90610c1d565b60405180910390fd5b565b60008060009054906101000a900473ffffffffffffffffffffffffffffffffffffffff169050816000806101000a81548173ffffffffffffffffffffffffffffffffffffffff021916908373ffffffffffffffffffffffffffffffffffffffff1602179055508173ffffffffffffffffffffffffffffffffffffffff168173ffffffffffffffffffffffffffffffffffffffff167f8be0079c531659141344cd1fd0a4f28419497f9722a3daafe3b4186f6b6457e060405160405180910390a35050565b60006040517f3d602d80600a3d3981f3363d3d373d3d3d363d7300000000000000000000000081528260601b60148201527f5af43d82803e903d91602b57fd5bf3000000000000000000000000000000000060288201526037816000f0915050600073ffffffffffffffffffffffffffffffffffffffff168173ffffffffffffffffffffffffffffffffffffffff16141561044c576040517f08c379a000000000000000000000000000000000000000000000000000000000815260040161044390610bfd565b60405180910390fd5b919050565b600033905090565b600061046c61046784610c62565b610c3d565b9050808382526020820190508285602086028201111561048f5761048e610edf565b5b60005b858110156104bf57816104a588826105ec565b845260208401935060208301925050600181019050610492565b5050509392505050565b60006104dc6104d784610c8e565b610c3d565b905080838252602082019050828560208602820111156104ff576104fe610edf565b5b60005b8581101561052f5781610515888261076c565b845260208401935060208301925050600181019050610502565b5050509392505050565b600061054c61054784610cba565b610c3d565b90508281526020810184848401111561056857610567610ee4565b5b610573848285610dff565b509392505050565b60008135905061058a81610fb9565b92915050565b600082601f8301126105a5576105a4610ed0565b5b81356105b5848260208601610459565b91505092915050565b600082601f8301126105d3576105d2610ed0565b5b81356105e38482602086016104c9565b91505092915050565b6000813590506105fb81610fd0565b92915050565b60008135905061061081610fe7565b92915050565b600082601f83011261062b5761062a610ed0565b5b813561063b848260208601610539565b91505092915050565b60006040828403121561065a57610659610ed5565b5b6106646040610c3d565b905060006106748482850161076c565b6000830152506020610688848285016105ec565b60208301525092915050565b600060c082840312156106aa576106a9610ed5565b5b6106b460c0610c3d565b905060006106c484828501610781565b60008301525060206106d884828501610781565b60208301525060406106ec84828501610601565b604083015250606061070084828501610796565b606083015250608082013567ffffffffffffffff81111561072457610723610eda565b5b61073084828501610590565b60808301525060a082013567ffffffffffffffff81111561075457610753610eda565b5b610760848285016105be565b60a08301525092915050565b60008135905061077b81610ff7565b92915050565b6000813590506107908161100e565b92915050565b6000813590506107a581611025565b92915050565b6000602082840312156107c1576107c0610eee565b5b60006107cf8482850161057b565b91505092915050565b60008060008060008060e087890312156107f5576107f4610eee565b5b600061080389828a0161057b565b965050602061081489828a0161057b565b955050604087013567ffffffffffffffff81111561083557610834610ee9565b5b61084189828a01610616565b945050606061085289828a016105ec565b935050608061086389828a01610644565b92505060c087013567ffffffffffffffff81111561088457610883610ee9565b5b61089089828a01610694565b9150509295509295509295565b60006108a98383610998565b60208301905092915050565b60006108c18383610b26565b60208301905092915050565b6108d681610d79565b82525050565b60006108e782610d0b565b6108f18185610d46565b93506108fc83610ceb565b8060005b8381101561092d578151610914888261089d565b975061091f83610d2c565b925050600181019050610900565b5085935050505092915050565b600061094582610d16565b61094f8185610d57565b935061095a83610cfb565b8060005b8381101561098b57815161097288826108b5565b975061097d83610d39565b92505060018101905061095e565b5085935050505092915050565b6109a181610d8b565b82525050565b6109b081610d8b565b82525050565b6109bf81610ded565b82525050565b60006109d082610d21565b6109da8185610d68565b93506109ea818560208601610e0e565b6109f381610ef3565b840191505092915050565b6000610a0b602683610d68565b9150610a1682610f04565b604082019050919050565b6000610a2e601683610d68565b9150610a3982610f53565b602082019050919050565b6000610a51602083610d68565b9150610a5c82610f7c565b602082019050919050565b604082016000820151610a7d6000850182610b26565b506020820151610a906020850182610998565b50505050565b600060c083016000830151610aae6000860182610b35565b506020830151610ac16020860182610b35565b506040830151610ad460408601826109b6565b506060830151610ae76060860182610b44565b5060808301518482036080860152610aff82826108dc565b91505060a083015184820360a0860152610b19828261093a565b9150508091505092915050565b610b2f81610da8565b82525050565b610b3e81610dd6565b82525050565b610b4d81610de0565b82525050565b6000602082019050610b6860008301846108cd565b92915050565b600060e082019050610b8360008301896108cd565b610b9060208301886108cd565b8181036040830152610ba281876109c5565b9050610bb160608301866109a7565b610bbe6080830185610a67565b81810360c0830152610bd08184610a96565b9050979650505050505050565b60006020820190508181036000830152610bf6816109fe565b9050919050565b60006020820190508181036000830152610c1681610a21565b9050919050565b60006020820190508181036000830152610c3681610a44565b9050919050565b6000610c47610c58565b9050610c538282610e41565b919050565b6000604051905090565b600067ffffffffffffffff821115610c7d57610c7c610ea1565b5b602082029050602081019050919050565b600067ffffffffffffffff821115610ca957610ca8610ea1565b5b602082029050602081019050919050565b600067ffffffffffffffff821115610cd557610cd4610ea1565b5b610cde82610ef3565b9050602081019050919050565b6000819050602082019050919050565b6000819050602082019050919050565b600081519050919050565b600081519050919050565b600081519050919050565b6000602082019050919050565b6000602082019050919050565b600082825260208201905092915050565b600082825260208201905092915050565b600082825260208201905092915050565b6000610d8482610db6565b9050919050565b6000819050919050565b6000819050610da382610fa5565b919050565b600061ffff82169050919050565b600073ffffffffffffffffffffffffffffffffffffffff82169050919050565b6000819050919050565b600060ff82169050919050565b6000610df882610d95565b9050919050565b82818337600083830152505050565b60005b83811015610e2c578082015181840152602081019050610e11565b83811115610e3b576000848401525b50505050565b610e4a82610ef3565b810181811067ffffffffffffffff82111715610e6957610e68610ea1565b5b80604052505050565b7f4e487b7100000000000000000000000000000000000000000000000000000000600052602160045260246000fd5b7f4e487b7100000000000000000000000000000000000000000000000000000000600052604160045260246000fd5b600080fd5b600080fd5b600080fd5b600080fd5b600080fd5b600080fd5b600080fd5b6000601f19601f8301169050919050565b7f4f776e61626c653a206e6577206f776e657220697320746865207a65726f206160008201527f6464726573730000000000000000000000000000000000000000000000000000602082015250565b7f455243313136373a20637265617465206661696c656400000000000000000000600082015250565b7f4f776e61626c653a2063616c6c6572206973206e6f7420746865206f776e6572600082015250565b60038110610fb657610fb5610e72565b5b50565b610fc281610d79565b8114610fcd57600080fd5b50565b610fd981610d8b565b8114610fe457600080fd5b50565b60038110610ff457600080fd5b50565b61100081610da8565b811461100b57600080fd5b50565b61101781610dd6565b811461102257600080fd5b50565b61102e81610de0565b811461103957600080fd5b5056fea26469706673582212209cc024ba40e535641f748844d59dc9ab67ea5f56b06a9a54858faa67c4cfdbd864736f6c63430008060033608060405234801561001057600080fd5b506125b3806100206000396000f3fe608060405234801561001057600080fd5b506004361061010b5760003560e01c806392857087116100a2578063c25fe26811610071578063c25fe268146102a2578063d547741f146102c4578063e8e5de59146102e0578063f595c485146102fc578063fec331f21461031b5761010b565b8063928570871461022e578063a217fddf1461024a578063a982df1d14610268578063ac5cb97d146102845761010b565b806330db3d18116100de57806330db3d18146101a857806336568abe146101c45780637b0f9a36146101e057806391d14854146101fe5761010b565b806301ffc9a71461011057806321787d7c14610140578063248a9ca31461015c5780632f2ff15d1461018c575b600080fd5b61012a60048036038101906101259190611973565b610339565b6040516101379190611df0565b60405180910390f35b61015a60048036038101906101559190611a16565b6103b3565b005b61017660048036038101906101719190611906565b610486565b6040516101839190611e0b565b60405180910390f35b6101a660048036038101906101a19190611933565b6104a5565b005b6101c260048036038101906101bd91906119e9565b6104c6565b005b6101de60048036038101906101d99190611933565b610527565b005b6101e86105aa565b6040516101f59190611dd5565b60405180910390f35b61021860048036038101906102139190611933565b6105dc565b6040516102259190611df0565b60405180910390f35b610248600480360381019061024391906119a0565b610646565b005b61025261068b565b60405161025f9190611e0b565b60405180910390f35b610282600480360381019061027d9190611841565b610692565b005b61028c61090d565b6040516102999190611e0b565b60405180910390f35b6102aa610931565b6040516102bb959493929190611e78565b60405180910390f35b6102de60048036038101906102d99190611933565b610b90565b005b6102fa60048036038101906102f59190611906565b610bb1565b005b610304610be6565b604051610312929190611e48565b60405180910390f35b610323610c88565b6040516103309190611e0b565b60405180910390f35b60007f7965db0b000000000000000000000000000000000000000000000000000000007bffffffffffffffffffffffffffffffffffffffffffffffffffffffff1916827bffffffffffffffffffffffffffffffffffffffffffffffffffffffff191614806103ac57506103ab82610cac565b5b9050919050565b7f0af1dac7dea2fd7f7738119cec7df099dfad49aa9d2e7d17ba6b60f63ae7411f6103dd81610d16565b816005600082015181600001556020820151816001015560408201518160020160006101000a81548160ff0219169083600281111561041f5761041e6122ec565b5b021790555060608201518160020160016101000a81548160ff021916908360ff16021790555060808201518160030190805190602001906104619291906112b7565b5060a082015181600401908051906020019061047e929190611304565b509050505050565b6000806000838152602001908152602001600020600101549050919050565b6104ae82610486565b6104b781610d16565b6104c18383610d2a565b505050565b7f0af1dac7dea2fd7f7738119cec7df099dfad49aa9d2e7d17ba6b60f63ae7411f6104f081610d16565b81600360008201518160000160006101000a81548161ffff021916908361ffff160217905550602082015181600101559050505050565b61052f610e0a565b73ffffffffffffffffffffffffffffffffffffffff168173ffffffffffffffffffffffffffffffffffffffff161461059c576040517f08c379a000000000000000000000000000000000000000000000000000000000815260040161059390611f19565b60405180910390fd5b6105a68282610e12565b5050565b60006105b4610ef3565b600160009054906101000a900473ffffffffffffffffffffffffffffffffffffffff16905090565b600080600084815260200190815260200160002060000160008373ffffffffffffffffffffffffffffffffffffffff1673ffffffffffffffffffffffffffffffffffffffff16815260200190815260200160002060009054906101000a900460ff16905092915050565b7f0af1dac7dea2fd7f7738119cec7df099dfad49aa9d2e7d17ba6b60f63ae7411f61067081610d16565b81600a90805190602001906106869291906113ae565b505050565b6000801b81565b60001515600b60009054906101000a900460ff161515146106e8576040517f08c379a00000000000000000000000000000000000000000000000000000000081526004016106df90611ef9565b60405180910390fd5b6107157f0af1dac7dea2fd7f7738119cec7df099dfad49aa9d2e7d17ba6b60f63ae7411f6000801b610f59565b61075f7f72606200fac42b7dc86b75901d61ecfab2a4a1a6eded478b97a428094891abed7f0af1dac7dea2fd7f7738119cec7df099dfad49aa9d2e7d17ba6b60f63ae7411f610f59565b6107897f72606200fac42b7dc86b75901d61ecfab2a4a1a6eded478b97a428094891abed86610fb4565b6107b37f0af1dac7dea2fd7f7738119cec7df099dfad49aa9d2e7d17ba6b60f63ae7411f87610fb4565b84600160006101000a81548173ffffffffffffffffffffffffffffffffffffffff021916908373ffffffffffffffffffffffffffffffffffffffff16021790555083600a908051906020019061080a9291906113ae565b508260028190555081600360008201518160000160006101000a81548161ffff021916908361ffff16021790555060208201518160010155905050806005600082015181600001556020820151816001015560408201518160020160006101000a81548160ff02191690836002811115610887576108866122ec565b5b021790555060608201518160020160016101000a81548160ff021916908360ff16021790555060808201518160030190805190602001906108c99291906112b7565b5060a08201518160040190805190602001906108e6929190611304565b509050506001600b60006101000a81548160ff021916908315150217905550505050505050565b7f72606200fac42b7dc86b75901d61ecfab2a4a1a6eded478b97a428094891abed81565b6060600061093d611434565b610945611455565b600061094f610ef3565b6000600a805461095e9061225a565b80601f016020809104026020016040519081016040528092919081815260200182805461098a9061225a565b80156109d75780601f106109ac576101008083540402835291602001916109d7565b820191906000526020600020905b8154815290600101906020018083116109ba57829003601f168201915b50505050509050600060036040518060400160405290816000820160009054906101000a900461ffff1661ffff1661ffff1681526020016001820154815250509050600060056040518060c001604052908160008201548152602001600182015481526020016002820160009054906101000a900460ff166002811115610a6157610a606122ec565b5b6002811115610a7357610a726122ec565b5b81526020016002820160019054906101000a900460ff1660ff1660ff16815260200160038201805480602002602001604051908101604052809291908181526020018280548015610ae357602002820191906000526020600020905b815481526020019060010190808311610acf575b5050505050815260200160048201805480602002602001604051908101604052809291908181526020018280548015610b6357602002820191906000526020600020906000905b82829054906101000a900461ffff1661ffff1681526020019060020190602082600101049283019260010382029150808411610b2a5790505b5050505050815250509050826002548383610b7c610fc2565b975097509750975097505050509091929394565b610b9982610486565b610ba281610d16565b610bac8383610e12565b505050565b7f0af1dac7dea2fd7f7738119cec7df099dfad49aa9d2e7d17ba6b60f63ae7411f610bdb81610d16565b816002819055505050565b60606000600a610bf4610fc2565b818054610c009061225a565b80601f0160208091040260200160405190810160405280929190818152602001828054610c2c9061225a565b8015610c795780601f10610c4e57610100808354040283529160200191610c79565b820191906000526020600020905b815481529060010190602001808311610c5c57829003601f168201915b50505050509150915091509091565b7f0af1dac7dea2fd7f7738119cec7df099dfad49aa9d2e7d17ba6b60f63ae7411f81565b60007f01ffc9a7000000000000000000000000000000000000000000000000000000007bffffffffffffffffffffffffffffffffffffffffffffffffffffffff1916827bffffffffffffffffffffffffffffffffffffffffffffffffffffffff1916149050919050565b610d2781610d22610e0a565b610fde565b50565b610d3482826105dc565b610e0657600160008084815260200190815260200160002060000160008373ffffffffffffffffffffffffffffffffffffffff1673ffffffffffffffffffffffffffffffffffffffff16815260200190815260200160002060006101000a81548160ff021916908315150217905550610dab610e0a565b73ffffffffffffffffffffffffffffffffffffffff168173ffffffffffffffffffffffffffffffffffffffff16837f2f8788117e7eff1d82e926ec794901d17c78024a50270940304540a733656f0d60405160405180910390a45b5050565b600033905090565b610e1c82826105dc565b15610eef57600080600084815260200190815260200160002060000160008373ffffffffffffffffffffffffffffffffffffffff1673ffffffffffffffffffffffffffffffffffffffff16815260200190815260200160002060006101000a81548160ff021916908315150217905550610e94610e0a565b73ffffffffffffffffffffffffffffffffffffffff168173ffffffffffffffffffffffffffffffffffffffff16837ff6391f5c32d9c69d2a47ea670b442974b53935d1edc7fd64eb21e047a839171b60405160405180910390a45b5050565b610f1d7f72606200fac42b7dc86b75901d61ecfab2a4a1a6eded478b97a428094891abed336105dc565b80610f4e5750610f4d7f0af1dac7dea2fd7f7738119cec7df099dfad49aa9d2e7d17ba6b60f63ae7411f336105dc565b5b610f5757600080fd5b565b6000610f6483610486565b905081600080858152602001908152602001600020600101819055508181847fbd79b86ffe0ab8e8776151514217cd7cacd52c909f66475c3af44e129f0b00ff60405160405180910390a4505050565b610fbe8282610d2a565b5050565b60006103e842610fd291906120d6565b60056001015410905090565b610fe882826105dc565b6110775761100d8173ffffffffffffffffffffffffffffffffffffffff16601461107b565b61101b8360001c602061107b565b60405160200161102c929190611d9b565b6040516020818303038152906040526040517f08c379a000000000000000000000000000000000000000000000000000000000815260040161106e9190611e26565b60405180910390fd5b5050565b60606000600283600261108e91906120d6565b6110989190612080565b67ffffffffffffffff8111156110b1576110b0612379565b5b6040519080825280601f01601f1916602001820160405280156110e35781602001600182028036833780820191505090505b5090507f30000000000000000000000000000000000000000000000000000000000000008160008151811061111b5761111a61234a565b5b60200101907effffffffffffffffffffffffffffffffffffffffffffffffffffffffffffff1916908160001a9053507f78000000000000000000000000000000000000000000000000000000000000008160018151811061117f5761117e61234a565b5b60200101907effffffffffffffffffffffffffffffffffffffffffffffffffffffffffffff1916908160001a905350600060018460026111bf91906120d6565b6111c99190612080565b90505b6001811115611269577f3031323334353637383961626364656600000000000000000000000000000000600f86166010811061120b5761120a61234a565b5b1a60f81b8282815181106112225761122161234a565b5b60200101907effffffffffffffffffffffffffffffffffffffffffffffffffffffffffffff1916908160001a905350600485901c94508061126290612230565b90506111cc565b50600084146112ad576040517f08c379a00000000000000000000000000000000000000000000000000000000081526004016112a490611ed9565b60405180910390fd5b8091505092915050565b8280548282559060005260206000209081019282156112f3579160200282015b828111156112f25782518255916020019190600101906112d7565b5b50905061130091906114a0565b5090565b82805482825590600052602060002090600f0160109004810192821561139d5791602002820160005b8382111561136d57835183826101000a81548161ffff021916908361ffff160217905550926020019260020160208160010104928301926001030261132d565b801561139b5782816101000a81549061ffff021916905560020160208160010104928301926001030261136d565b505b5090506113aa91906114bd565b5090565b8280546113ba9061225a565b90600052602060002090601f0160209004810192826113dc5760008555611423565b82601f106113f557805160ff1916838001178555611423565b82800160010185558215611423579182015b82811115611422578251825591602001919060010190611407565b5b50905061143091906114bd565b5090565b6040518060400160405280600061ffff168152602001600080191681525090565b6040518060c00160405280600081526020016000815260200160006002811115611482576114816122ec565b5b8152602001600060ff16815260200160608152602001606081525090565b5b808211156114b95760008160009055506001016114a1565b5090565b5b808211156114d65760008160009055506001016114be565b5090565b60006114ed6114e884611f5e565b611f39565b905080838252602082019050828560208602820111156115105761150f6123b7565b5b60005b858110156115405781611526888261166d565b845260208401935060208301925050600181019050611513565b5050509392505050565b600061155d61155884611f8a565b611f39565b905080838252602082019050828560208602820111156115805761157f6123b7565b5b60005b858110156115b057816115968882611802565b845260208401935060208301925050600181019050611583565b5050509392505050565b60006115cd6115c884611fb6565b611f39565b9050828152602081018484840111156115e9576115e86123bc565b5b6115f48482856121ee565b509392505050565b60008135905061160b816124e3565b92915050565b600082601f830112611626576116256123a8565b5b81356116368482602086016114da565b91505092915050565b600082601f830112611654576116536123a8565b5b813561166484826020860161154a565b91505092915050565b60008135905061167c816124fa565b92915050565b60008135905061169181612511565b92915050565b6000813590506116a681612528565b92915050565b600082601f8301126116c1576116c06123a8565b5b81356116d18482602086016115ba565b91505092915050565b6000604082840312156116f0576116ef6123ad565b5b6116fa6040611f39565b9050600061170a84828501611802565b600083015250602061171e8482850161166d565b60208301525092915050565b600060c082840312156117405761173f6123ad565b5b61174a60c0611f39565b9050600061175a84828501611817565b600083015250602061176e84828501611817565b602083015250604061178284828501611697565b60408301525060606117968482850161182c565b606083015250608082013567ffffffffffffffff8111156117ba576117b96123b2565b5b6117c684828501611611565b60808301525060a082013567ffffffffffffffff8111156117ea576117e96123b2565b5b6117f68482850161163f565b60a08301525092915050565b60008135905061181181612538565b92915050565b6000813590506118268161254f565b92915050565b60008135905061183b81612566565b92915050565b60008060008060008060e0878903121561185e5761185d6123c6565b5b600061186c89828a016115fc565b965050602061187d89828a016115fc565b955050604087013567ffffffffffffffff81111561189e5761189d6123c1565b5b6118aa89828a016116ac565b94505060606118bb89828a0161166d565b93505060806118cc89828a016116da565b92505060c087013567ffffffffffffffff8111156118ed576118ec6123c1565b5b6118f989828a0161172a565b9150509295509295509295565b60006020828403121561191c5761191b6123c6565b5b600061192a8482850161166d565b91505092915050565b6000806040838503121561194a576119496123c6565b5b60006119588582860161166d565b9250506020611969858286016115fc565b9150509250929050565b600060208284031215611989576119886123c6565b5b600061199784828501611682565b91505092915050565b6000602082840312156119b6576119b56123c6565b5b600082013567ffffffffffffffff8111156119d4576119d36123c1565b5b6119e0848285016116ac565b91505092915050565b6000604082840312156119ff576119fe6123c6565b5b6000611a0d848285016116da565b91505092915050565b600060208284031215611a2c57611a2b6123c6565b5b600082013567ffffffffffffffff811115611a4a57611a496123c1565b5b611a568482850161172a565b91505092915050565b6000611a6b8383611b69565b60208301905092915050565b6000611a838383611d6e565b60208301905092915050565b611a9881612130565b82525050565b6000611aa982612007565b611ab38185612042565b9350611abe83611fe7565b8060005b83811015611aef578151611ad68882611a5f565b9750611ae183612028565b925050600181019050611ac2565b5085935050505092915050565b6000611b0782612012565b611b118185612053565b9350611b1c83611ff7565b8060005b83811015611b4d578151611b348882611a77565b9750611b3f83612035565b925050600181019050611b20565b5085935050505092915050565b611b6381612142565b82525050565b611b728161214e565b82525050565b611b818161214e565b82525050565b611b90816121dc565b82525050565b6000611ba18261201d565b611bab8185612064565b9350611bbb8185602086016121fd565b611bc4816123cb565b840191505092915050565b6000611bda8261201d565b611be48185612075565b9350611bf48185602086016121fd565b80840191505092915050565b6000611c0d602083612064565b9150611c18826123dc565b602082019050919050565b6000611c30601383612064565b9150611c3b82612405565b602082019050919050565b6000611c53601783612075565b9150611c5e8261242e565b601782019050919050565b6000611c76601183612075565b9150611c8182612457565b601182019050919050565b6000611c99602f83612064565b9150611ca482612480565b604082019050919050565b604082016000820151611cc56000850182611d6e565b506020820151611cd86020850182611b69565b50505050565b600060c083016000830151611cf66000860182611d7d565b506020830151611d096020860182611d7d565b506040830151611d1c6040860182611b87565b506060830151611d2f6060860182611d8c565b5060808301518482036080860152611d478282611a9e565b91505060a083015184820360a0860152611d618282611afc565b9150508091505092915050565b611d7781612197565b82525050565b611d86816121c5565b82525050565b611d95816121cf565b82525050565b6000611da682611c46565b9150611db28285611bcf565b9150611dbd82611c69565b9150611dc98284611bcf565b91508190509392505050565b6000602082019050611dea6000830184611a8f565b92915050565b6000602082019050611e056000830184611b5a565b92915050565b6000602082019050611e206000830184611b78565b92915050565b60006020820190508181036000830152611e408184611b96565b905092915050565b60006040820190508181036000830152611e628185611b96565b9050611e716020830184611b5a565b9392505050565b600060c0820190508181036000830152611e928188611b96565b9050611ea16020830187611b78565b611eae6040830186611caf565b8181036080830152611ec08185611cde565b9050611ecf60a0830184611b5a565b9695505050505050565b60006020820190508181036000830152611ef281611c00565b9050919050565b60006020820190508181036000830152611f1281611c23565b9050919050565b60006020820190508181036000830152611f3281611c8c565b9050919050565b6000611f43611f54565b9050611f4f828261228c565b919050565b6000604051905090565b600067ffffffffffffffff821115611f7957611f78612379565b5b602082029050602081019050919050565b600067ffffffffffffffff821115611fa557611fa4612379565b5b602082029050602081019050919050565b600067ffffffffffffffff821115611fd157611fd0612379565b5b611fda826123cb565b9050602081019050919050565b6000819050602082019050919050565b6000819050602082019050919050565b600081519050919050565b600081519050919050565b600081519050919050565b6000602082019050919050565b6000602082019050919050565b600082825260208201905092915050565b600082825260208201905092915050565b600082825260208201905092915050565b600081905092915050565b600061208b826121c5565b9150612096836121c5565b9250827fffffffffffffffffffffffffffffffffffffffffffffffffffffffffffffffff038211156120cb576120ca6122bd565b5b828201905092915050565b60006120e1826121c5565b91506120ec836121c5565b9250817fffffffffffffffffffffffffffffffffffffffffffffffffffffffffffffffff0483118215151615612125576121246122bd565b5b828202905092915050565b600061213b826121a5565b9050919050565b60008115159050919050565b6000819050919050565b60007fffffffff0000000000000000000000000000000000000000000000000000000082169050919050565b6000819050612192826124cf565b919050565b600061ffff82169050919050565b600073ffffffffffffffffffffffffffffffffffffffff82169050919050565b6000819050919050565b600060ff82169050919050565b60006121e782612184565b9050919050565b82818337600083830152505050565b60005b8381101561221b578082015181840152602081019050612200565b8381111561222a576000848401525b50505050565b600061223b826121c5565b9150600082141561224f5761224e6122bd565b5b600182039050919050565b6000600282049050600182168061227257607f821691505b602082108114156122865761228561231b565b5b50919050565b612295826123cb565b810181811067ffffffffffffffff821117156122b4576122b3612379565b5b80604052505050565b7f4e487b7100000000000000000000000000000000000000000000000000000000600052601160045260246000fd5b7f4e487b7100000000000000000000000000000000000000000000000000000000600052602160045260246000fd5b7f4e487b7100000000000000000000000000000000000000000000000000000000600052602260045260246000fd5b7f4e487b7100000000000000000000000000000000000000000000000000000000600052603260045260246000fd5b7f4e487b7100000000000000000000000000000000000000000000000000000000600052604160045260246000fd5b600080fd5b600080fd5b600080fd5b600080fd5b600080fd5b600080fd5b600080fd5b6000601f19601f8301169050919050565b7f537472696e67733a20686578206c656e67746820696e73756666696369656e74600082015250565b7f416c726561647920696e697469616c697a656400000000000000000000000000600082015250565b7f416363657373436f6e74726f6c3a206163636f756e7420000000000000000000600082015250565b7f206973206d697373696e6720726f6c6520000000000000000000000000000000600082015250565b7f416363657373436f6e74726f6c3a2063616e206f6e6c792072656e6f756e636560008201527f20726f6c657320666f722073656c660000000000000000000000000000000000602082015250565b600381106124e0576124df6122ec565b5b50565b6124ec81612130565b81146124f757600080fd5b50565b6125038161214e565b811461250e57600080fd5b50565b61251a81612158565b811461252557600080fd5b50565b6003811061253557600080fd5b50565b61254181612197565b811461254c57600080fd5b50565b612558816121c5565b811461256357600080fd5b50565b61256f816121cf565b811461257a57600080fd5b5056fea264697066735822122087e9a30faf38d4ff2d67c511fe0b036082417052886dbc0beae57d15d3bec01e64736f6c63430008060033",
			"opcodes": "PUSH1 0x80 PUSH1 0x40 MSTORE PUSH1 0x40 MLOAD PUSH3 0x12 SWAP1 PUSH3 0xF7 JUMP JUMPDEST PUSH1 0x40 MLOAD DUP1 SWAP2 SUB SWAP1 PUSH1 0x0 CREATE DUP1 ISZERO DUP1 ISZERO PUSH3 0x2F JUMPI RETURNDATASIZE PUSH1 0x0 DUP1 RETURNDATACOPY RETURNDATASIZE PUSH1 0x0 REVERT JUMPDEST POP PUSH1 0x2 PUSH1 0x0 PUSH2 0x100 EXP DUP2 SLOAD DUP2 PUSH20 0xFFFFFFFFFFFFFFFFFFFFFFFFFFFFFFFFFFFFFFFF MUL NOT AND SWAP1 DUP4 PUSH20 0xFFFFFFFFFFFFFFFFFFFFFFFFFFFFFFFFFFFFFFFF AND MUL OR SWAP1 SSTORE POP CALLVALUE DUP1 ISZERO PUSH3 0x7D JUMPI PUSH1 0x0 DUP1 REVERT JUMPDEST POP PUSH1 0x40 MLOAD PUSH3 0x574A CODESIZE SUB DUP1 PUSH3 0x574A DUP4 CODECOPY DUP2 DUP2 ADD PUSH1 0x40 MSTORE DUP2 ADD SWAP1 PUSH3 0xA3 SWAP2 SWAP1 PUSH3 0x133 JUMP JUMPDEST DUP2 DUP2 DUP2 PUSH1 0x1 PUSH1 0x0 PUSH2 0x100 EXP DUP2 SLOAD DUP2 PUSH20 0xFFFFFFFFFFFFFFFFFFFFFFFFFFFFFFFFFFFFFFFF MUL NOT AND SWAP1 DUP4 PUSH20 0xFFFFFFFFFFFFFFFFFFFFFFFFFFFFFFFFFFFFFFFF AND MUL OR SWAP1 SSTORE POP DUP1 PUSH1 0x0 DUP2 SWAP1 SSTORE POP POP POP POP POP PUSH3 0x1F1 JUMP JUMPDEST PUSH2 0x37CD DUP1 PUSH3 0x1F7D DUP4 CODECOPY ADD SWAP1 JUMP JUMPDEST PUSH1 0x0 DUP2 MLOAD SWAP1 POP PUSH3 0x116 DUP2 PUSH3 0x1BD JUMP JUMPDEST SWAP3 SWAP2 POP POP JUMP JUMPDEST PUSH1 0x0 DUP2 MLOAD SWAP1 POP PUSH3 0x12D DUP2 PUSH3 0x1D7 JUMP JUMPDEST SWAP3 SWAP2 POP POP JUMP JUMPDEST PUSH1 0x0 DUP1 PUSH1 0x40 DUP4 DUP6 SUB SLT ISZERO PUSH3 0x14D JUMPI PUSH3 0x14C PUSH3 0x1B8 JUMP JUMPDEST JUMPDEST PUSH1 0x0 PUSH3 0x15D DUP6 DUP3 DUP7 ADD PUSH3 0x105 JUMP JUMPDEST SWAP3 POP POP PUSH1 0x20 PUSH3 0x170 DUP6 DUP3 DUP7 ADD PUSH3 0x11C JUMP JUMPDEST SWAP2 POP POP SWAP3 POP SWAP3 SWAP1 POP JUMP JUMPDEST PUSH1 0x0 PUSH3 0x187 DUP3 PUSH3 0x198 JUMP JUMPDEST SWAP1 POP SWAP2 SWAP1 POP JUMP JUMPDEST PUSH1 0x0 DUP2 SWAP1 POP SWAP2 SWAP1 POP JUMP JUMPDEST PUSH1 0x0 PUSH20 0xFFFFFFFFFFFFFFFFFFFFFFFFFFFFFFFFFFFFFFFF DUP3 AND SWAP1 POP SWAP2 SWAP1 POP JUMP JUMPDEST PUSH1 0x0 DUP1 REVERT JUMPDEST PUSH3 0x1C8 DUP2 PUSH3 0x17A JUMP JUMPDEST DUP2 EQ PUSH3 0x1D4 JUMPI PUSH1 0x0 DUP1 REVERT JUMPDEST POP JUMP JUMPDEST PUSH3 0x1E2 DUP2 PUSH3 0x18E JUMP JUMPDEST DUP2 EQ PUSH3 0x1EE JUMPI PUSH1 0x0 DUP1 REVERT JUMPDEST POP JUMP JUMPDEST PUSH2 0x1D7C DUP1 PUSH3 0x201 PUSH1 0x0 CODECOPY PUSH1 0x0 RETURN INVALID PUSH1 0x80 PUSH1 0x40 MSTORE CALLVALUE DUP1 ISZERO PUSH2 0x10 JUMPI PUSH1 0x0 DUP1 REVERT JUMPDEST POP PUSH1 0x4 CALLDATASIZE LT PUSH2 0x4C JUMPI PUSH1 0x0 CALLDATALOAD PUSH1 0xE0 SHR DUP1 PUSH4 0x17D7DE7C EQ PUSH2 0x51 JUMPI DUP1 PUSH4 0x24882DF8 EQ PUSH2 0x6F JUMPI DUP1 PUSH4 0xB24083A1 EQ PUSH2 0x8B JUMPI DUP1 PUSH4 0xC37F2F28 EQ PUSH2 0xA7 JUMPI JUMPDEST PUSH1 0x0 DUP1 REVERT JUMPDEST PUSH2 0x59 PUSH2 0xC3 JUMP JUMPDEST PUSH1 0x40 MLOAD PUSH2 0x66 SWAP2 SWAP1 PUSH2 0x1757 JUMP JUMPDEST PUSH1 0x40 MLOAD DUP1 SWAP2 SUB SWAP1 RETURN JUMPDEST PUSH2 0x89 PUSH1 0x4 DUP1 CALLDATASIZE SUB DUP2 ADD SWAP1 PUSH2 0x84 SWAP2 SWAP1 PUSH2 0x114A JUMP JUMPDEST PUSH2 0xCC JUMP JUMPDEST STOP JUMPDEST PUSH2 0xA5 PUSH1 0x4 DUP1 CALLDATASIZE SUB DUP2 ADD SWAP1 PUSH2 0xA0 SWAP2 SWAP1 PUSH2 0xFEA JUMP JUMPDEST PUSH2 0x2B0 JUMP JUMPDEST STOP JUMPDEST PUSH2 0xC1 PUSH1 0x4 DUP1 CALLDATASIZE SUB DUP2 ADD SWAP1 PUSH2 0xBC SWAP2 SWAP1 PUSH2 0x103D JUMP JUMPDEST PUSH2 0x5ED JUMP JUMPDEST STOP JUMPDEST PUSH1 0x0 DUP1 SLOAD SWAP1 POP SWAP1 JUMP JUMPDEST PUSH1 0x0 PUSH20 0xFFFFFFFFFFFFFFFFFFFFFFFFFFFFFFFFFFFFFFFF AND PUSH1 0x1 PUSH1 0x0 SWAP1 SLOAD SWAP1 PUSH2 0x100 EXP SWAP1 DIV PUSH20 0xFFFFFFFFFFFFFFFFFFFFFFFFFFFFFFFFFFFFFFFF AND PUSH20 0xFFFFFFFFFFFFFFFFFFFFFFFFFFFFFFFFFFFFFFFF AND PUSH4 0xB5368E20 CALLER PUSH1 0x40 MLOAD DUP3 PUSH4 0xFFFFFFFF AND PUSH1 0xE0 SHL DUP2 MSTORE PUSH1 0x4 ADD PUSH2 0x13F SWAP2 SWAP1 PUSH2 0x1688 JUMP JUMPDEST PUSH1 0x20 PUSH1 0x40 MLOAD DUP1 DUP4 SUB DUP2 DUP7 DUP1 EXTCODESIZE ISZERO DUP1 ISZERO PUSH2 0x157 JUMPI PUSH1 0x0 DUP1 REVERT JUMPDEST POP GAS STATICCALL ISZERO DUP1 ISZERO PUSH2 0x16B JUMPI RETURNDATASIZE PUSH1 0x0 DUP1 RETURNDATACOPY RETURNDATASIZE PUSH1 0x0 REVERT JUMPDEST POP POP POP POP PUSH1 0x40 MLOAD RETURNDATASIZE PUSH1 0x1F NOT PUSH1 0x1F DUP3 ADD AND DUP3 ADD DUP1 PUSH1 0x40 MSTORE POP DUP2 ADD SWAP1 PUSH2 0x18F SWAP2 SWAP1 PUSH2 0xFBD JUMP JUMPDEST PUSH20 0xFFFFFFFFFFFFFFFFFFFFFFFFFFFFFFFFFFFFFFFF AND EQ PUSH2 0x1E5 JUMPI PUSH1 0x40 MLOAD PUSH32 0x8C379A000000000000000000000000000000000000000000000000000000000 DUP2 MSTORE PUSH1 0x4 ADD PUSH2 0x1DC SWAP1 PUSH2 0x17DB JUMP JUMPDEST PUSH1 0x40 MLOAD DUP1 SWAP2 SUB SWAP1 REVERT JUMPDEST PUSH1 0x1 PUSH1 0x0 SWAP1 SLOAD SWAP1 PUSH2 0x100 EXP SWAP1 DIV PUSH20 0xFFFFFFFFFFFFFFFFFFFFFFFFFFFFFFFFFFFFFFFF AND PUSH20 0xFFFFFFFFFFFFFFFFFFFFFFFFFFFFFFFFFFFFFFFF AND PUSH4 0xB3275216 DUP7 DUP7 DUP7 DUP7 DUP7 PUSH1 0x40 MLOAD DUP1 PUSH1 0x40 ADD PUSH1 0x40 MSTORE DUP1 PUSH1 0x1 ISZERO ISZERO DUP2 MSTORE PUSH1 0x20 ADD CALLER PUSH20 0xFFFFFFFFFFFFFFFFFFFFFFFFFFFFFFFFFFFFFFFF AND DUP2 MSTORE POP PUSH1 0x40 MLOAD DUP8 PUSH4 0xFFFFFFFF AND PUSH1 0xE0 SHL DUP2 MSTORE PUSH1 0x4 ADD PUSH2 0x277 SWAP7 SWAP6 SWAP5 SWAP4 SWAP3 SWAP2 SWAP1 PUSH2 0x181B JUMP JUMPDEST PUSH1 0x0 PUSH1 0x40 MLOAD DUP1 DUP4 SUB DUP2 PUSH1 0x0 DUP8 DUP1 EXTCODESIZE ISZERO DUP1 ISZERO PUSH2 0x291 JUMPI PUSH1 0x0 DUP1 REVERT JUMPDEST POP GAS CALL ISZERO DUP1 ISZERO PUSH2 0x2A5 JUMPI RETURNDATASIZE PUSH1 0x0 DUP1 RETURNDATACOPY RETURNDATASIZE PUSH1 0x0 REVERT JUMPDEST POP POP POP POP POP POP POP POP POP JUMP JUMPDEST PUSH1 0x1 PUSH1 0x0 SWAP1 SLOAD SWAP1 PUSH2 0x100 EXP SWAP1 DIV PUSH20 0xFFFFFFFFFFFFFFFFFFFFFFFFFFFFFFFFFFFFFFFF AND PUSH20 0xFFFFFFFFFFFFFFFFFFFFFFFFFFFFFFFFFFFFFFFF AND PUSH4 0x91D14854 PUSH1 0x1 PUSH1 0x0 SWAP1 SLOAD SWAP1 PUSH2 0x100 EXP SWAP1 DIV PUSH20 0xFFFFFFFFFFFFFFFFFFFFFFFFFFFFFFFFFFFFFFFF AND PUSH20 0xFFFFFFFFFFFFFFFFFFFFFFFFFFFFFFFFFFFFFFFF AND PUSH4 0xF45EDB5F PUSH1 0x40 MLOAD DUP2 PUSH4 0xFFFFFFFF AND PUSH1 0xE0 SHL DUP2 MSTORE PUSH1 0x4 ADD PUSH1 0x20 PUSH1 0x40 MLOAD DUP1 DUP4 SUB DUP2 DUP7 DUP1 EXTCODESIZE ISZERO DUP1 ISZERO PUSH2 0x356 JUMPI PUSH1 0x0 DUP1 REVERT JUMPDEST POP GAS STATICCALL ISZERO DUP1 ISZERO PUSH2 0x36A JUMPI RETURNDATASIZE PUSH1 0x0 DUP1 RETURNDATACOPY RETURNDATASIZE PUSH1 0x0 REVERT JUMPDEST POP POP POP POP PUSH1 0x40 MLOAD RETURNDATASIZE PUSH1 0x1F NOT PUSH1 0x1F DUP3 ADD AND DUP3 ADD DUP1 PUSH1 0x40 MSTORE POP DUP2 ADD SWAP1 PUSH2 0x38E SWAP2 SWAP1 PUSH2 0x111D JUMP JUMPDEST CALLER PUSH1 0x40 MLOAD DUP4 PUSH4 0xFFFFFFFF AND PUSH1 0xE0 SHL DUP2 MSTORE PUSH1 0x4 ADD PUSH2 0x3AC SWAP3 SWAP2 SWAP1 PUSH2 0x1772 JUMP JUMPDEST PUSH1 0x20 PUSH1 0x40 MLOAD DUP1 DUP4 SUB DUP2 DUP7 DUP1 EXTCODESIZE ISZERO DUP1 ISZERO PUSH2 0x3C4 JUMPI PUSH1 0x0 DUP1 REVERT JUMPDEST POP GAS STATICCALL ISZERO DUP1 ISZERO PUSH2 0x3D8 JUMPI RETURNDATASIZE PUSH1 0x0 DUP1 RETURNDATACOPY RETURNDATASIZE PUSH1 0x0 REVERT JUMPDEST POP POP POP POP PUSH1 0x40 MLOAD RETURNDATASIZE PUSH1 0x1F NOT PUSH1 0x1F DUP3 ADD AND DUP3 ADD DUP1 PUSH1 0x40 MSTORE POP DUP2 ADD SWAP1 PUSH2 0x3FC SWAP2 SWAP1 PUSH2 0x10F0 JUMP JUMPDEST PUSH2 0x43B JUMPI PUSH1 0x40 MLOAD PUSH32 0x8C379A000000000000000000000000000000000000000000000000000000000 DUP2 MSTORE PUSH1 0x4 ADD PUSH2 0x432 SWAP1 PUSH2 0x17FB JUMP JUMPDEST PUSH1 0x40 MLOAD DUP1 SWAP2 SUB SWAP1 REVERT JUMPDEST PUSH1 0x0 PUSH20 0xFFFFFFFFFFFFFFFFFFFFFFFFFFFFFFFFFFFFFFFF AND PUSH1 0x1 PUSH1 0x0 SWAP1 SLOAD SWAP1 PUSH2 0x100 EXP SWAP1 DIV PUSH20 0xFFFFFFFFFFFFFFFFFFFFFFFFFFFFFFFFFFFFFFFF AND PUSH20 0xFFFFFFFFFFFFFFFFFFFFFFFFFFFFFFFFFFFFFFFF AND PUSH4 0x2F04E064 CALLER PUSH1 0x40 MLOAD DUP3 PUSH4 0xFFFFFFFF AND PUSH1 0xE0 SHL DUP2 MSTORE PUSH1 0x4 ADD PUSH2 0x4AE SWAP2 SWAP1 PUSH2 0x1688 JUMP JUMPDEST PUSH1 0x20 PUSH1 0x40 MLOAD DUP1 DUP4 SUB DUP2 DUP7 DUP1 EXTCODESIZE ISZERO DUP1 ISZERO PUSH2 0x4C6 JUMPI PUSH1 0x0 DUP1 REVERT JUMPDEST POP GAS STATICCALL ISZERO DUP1 ISZERO PUSH2 0x4DA JUMPI RETURNDATASIZE PUSH1 0x0 DUP1 RETURNDATACOPY RETURNDATASIZE PUSH1 0x0 REVERT JUMPDEST POP POP POP POP PUSH1 0x40 MLOAD RETURNDATASIZE PUSH1 0x1F NOT PUSH1 0x1F DUP3 ADD AND DUP3 ADD DUP1 PUSH1 0x40 MSTORE POP DUP2 ADD SWAP1 PUSH2 0x4FE SWAP2 SWAP1 PUSH2 0xFBD JUMP JUMPDEST PUSH20 0xFFFFFFFFFFFFFFFFFFFFFFFFFFFFFFFFFFFFFFFF AND EQ PUSH2 0x554 JUMPI PUSH1 0x40 MLOAD PUSH32 0x8C379A000000000000000000000000000000000000000000000000000000000 DUP2 MSTORE PUSH1 0x4 ADD PUSH2 0x54B SWAP1 PUSH2 0x17DB JUMP JUMPDEST PUSH1 0x40 MLOAD DUP1 SWAP2 SUB SWAP1 REVERT JUMPDEST PUSH1 0x1 PUSH1 0x0 SWAP1 SLOAD SWAP1 PUSH2 0x100 EXP SWAP1 DIV PUSH20 0xFFFFFFFFFFFFFFFFFFFFFFFFFFFFFFFFFFFFFFFF AND PUSH20 0xFFFFFFFFFFFFFFFFFFFFFFFFFFFFFFFFFFFFFFFF AND PUSH4 0x15BF3C09 DUP5 DUP5 DUP5 PUSH1 0x1 PUSH1 0x40 MLOAD DUP6 PUSH4 0xFFFFFFFF AND PUSH1 0xE0 SHL DUP2 MSTORE PUSH1 0x4 ADD PUSH2 0x5B6 SWAP5 SWAP4 SWAP3 SWAP2 SWAP1 PUSH2 0x1712 JUMP JUMPDEST PUSH1 0x0 PUSH1 0x40 MLOAD DUP1 DUP4 SUB DUP2 PUSH1 0x0 DUP8 DUP1 EXTCODESIZE ISZERO DUP1 ISZERO PUSH2 0x5D0 JUMPI PUSH1 0x0 DUP1 REVERT JUMPDEST POP GAS CALL ISZERO DUP1 ISZERO PUSH2 0x5E4 JUMPI RETURNDATASIZE PUSH1 0x0 DUP1 RETURNDATACOPY RETURNDATASIZE PUSH1 0x0 REVERT JUMPDEST POP POP POP POP POP POP POP JUMP JUMPDEST PUSH1 0x0 PUSH1 0x1 PUSH1 0x0 SWAP1 SLOAD SWAP1 PUSH2 0x100 EXP SWAP1 DIV PUSH20 0xFFFFFFFFFFFFFFFFFFFFFFFFFFFFFFFFFFFFFFFF AND PUSH20 0xFFFFFFFFFFFFFFFFFFFFFFFFFFFFFFFFFFFFFFFF AND PUSH4 0xB5368E20 DUP8 PUSH1 0x40 MLOAD DUP3 PUSH4 0xFFFFFFFF AND PUSH1 0xE0 SHL DUP2 MSTORE PUSH1 0x4 ADD PUSH2 0x64A SWAP2 SWAP1 PUSH2 0x1688 JUMP JUMPDEST PUSH1 0x20 PUSH1 0x40 MLOAD DUP1 DUP4 SUB DUP2 DUP7 DUP1 EXTCODESIZE ISZERO DUP1 ISZERO PUSH2 0x662 JUMPI PUSH1 0x0 DUP1 REVERT JUMPDEST POP GAS STATICCALL ISZERO DUP1 ISZERO PUSH2 0x676 JUMPI RETURNDATASIZE PUSH1 0x0 DUP1 RETURNDATACOPY RETURNDATASIZE PUSH1 0x0 REVERT JUMPDEST POP POP POP POP PUSH1 0x40 MLOAD RETURNDATASIZE PUSH1 0x1F NOT PUSH1 0x1F DUP3 ADD AND DUP3 ADD DUP1 PUSH1 0x40 MSTORE POP DUP2 ADD SWAP1 PUSH2 0x69A SWAP2 SWAP1 PUSH2 0xFBD JUMP JUMPDEST SWAP1 POP PUSH1 0x0 PUSH1 0x1 PUSH1 0x0 SWAP1 SLOAD SWAP1 PUSH2 0x100 EXP SWAP1 DIV PUSH20 0xFFFFFFFFFFFFFFFFFFFFFFFFFFFFFFFFFFFFFFFF AND PUSH20 0xFFFFFFFFFFFFFFFFFFFFFFFFFFFFFFFFFFFFFFFF AND PUSH4 0x2F04E064 CALLER PUSH1 0x40 MLOAD DUP3 PUSH4 0xFFFFFFFF AND PUSH1 0xE0 SHL DUP2 MSTORE PUSH1 0x4 ADD PUSH2 0x6F9 SWAP2 SWAP1 PUSH2 0x1688 JUMP JUMPDEST PUSH1 0x20 PUSH1 0x40 MLOAD DUP1 DUP4 SUB DUP2 DUP7 DUP1 EXTCODESIZE ISZERO DUP1 ISZERO PUSH2 0x711 JUMPI PUSH1 0x0 DUP1 REVERT JUMPDEST POP GAS STATICCALL ISZERO DUP1 ISZERO PUSH2 0x725 JUMPI RETURNDATASIZE PUSH1 0x0 DUP1 RETURNDATACOPY RETURNDATASIZE PUSH1 0x0 REVERT JUMPDEST POP POP POP POP PUSH1 0x40 MLOAD RETURNDATASIZE PUSH1 0x1F NOT PUSH1 0x1F DUP3 ADD AND DUP3 ADD DUP1 PUSH1 0x40 MSTORE POP DUP2 ADD SWAP1 PUSH2 0x749 SWAP2 SWAP1 PUSH2 0xFBD JUMP JUMPDEST SWAP1 POP PUSH1 0x0 PUSH20 0xFFFFFFFFFFFFFFFFFFFFFFFFFFFFFFFFFFFFFFFF AND DUP3 PUSH20 0xFFFFFFFFFFFFFFFFFFFFFFFFFFFFFFFFFFFFFFFF AND EQ ISZERO DUP1 ISZERO PUSH2 0x7B5 JUMPI POP PUSH1 0x0 PUSH20 0xFFFFFFFFFFFFFFFFFFFFFFFFFFFFFFFFFFFFFFFF AND DUP2 PUSH20 0xFFFFFFFFFFFFFFFFFFFFFFFFFFFFFFFFFFFFFFFF AND EQ ISZERO JUMPDEST PUSH2 0x7F4 JUMPI PUSH1 0x40 MLOAD PUSH32 0x8C379A000000000000000000000000000000000000000000000000000000000 DUP2 MSTORE PUSH1 0x4 ADD PUSH2 0x7EB SWAP1 PUSH2 0x17BB JUMP JUMPDEST PUSH1 0x40 MLOAD DUP1 SWAP2 SUB SWAP1 REVERT JUMPDEST DUP2 PUSH20 0xFFFFFFFFFFFFFFFFFFFFFFFFFFFFFFFFFFFFFFFF AND PUSH4 0x793DE5F0 CALLER PUSH1 0x40 MLOAD DUP3 PUSH4 0xFFFFFFFF AND PUSH1 0xE0 SHL DUP2 MSTORE PUSH1 0x4 ADD PUSH2 0x82D SWAP2 SWAP1 PUSH2 0x1688 JUMP JUMPDEST PUSH1 0x20 PUSH1 0x40 MLOAD DUP1 DUP4 SUB DUP2 DUP7 DUP1 EXTCODESIZE ISZERO DUP1 ISZERO PUSH2 0x845 JUMPI PUSH1 0x0 DUP1 REVERT JUMPDEST POP GAS STATICCALL ISZERO DUP1 ISZERO PUSH2 0x859 JUMPI RETURNDATASIZE PUSH1 0x0 DUP1 RETURNDATACOPY RETURNDATASIZE PUSH1 0x0 REVERT JUMPDEST POP POP POP POP PUSH1 0x40 MLOAD RETURNDATASIZE PUSH1 0x1F NOT PUSH1 0x1F DUP3 ADD AND DUP3 ADD DUP1 PUSH1 0x40 MSTORE POP DUP2 ADD SWAP1 PUSH2 0x87D SWAP2 SWAP1 PUSH2 0x10F0 JUMP JUMPDEST PUSH2 0x8BC JUMPI PUSH1 0x40 MLOAD PUSH32 0x8C379A000000000000000000000000000000000000000000000000000000000 DUP2 MSTORE PUSH1 0x4 ADD PUSH2 0x8B3 SWAP1 PUSH2 0x179B JUMP JUMPDEST PUSH1 0x40 MLOAD DUP1 SWAP2 SUB SWAP1 REVERT JUMPDEST PUSH1 0x0 PUSH1 0x2 PUSH1 0x0 SWAP1 SLOAD SWAP1 PUSH2 0x100 EXP SWAP1 DIV PUSH20 0xFFFFFFFFFFFFFFFFFFFFFFFFFFFFFFFFFFFFFFFF AND PUSH20 0xFFFFFFFFFFFFFFFFFFFFFFFFFFFFFFFFFFFFFFFF AND PUSH4 0xD4F9B092 CALLER DUP11 DUP11 DUP11 DUP11 DUP11 PUSH1 0x40 MLOAD DUP8 PUSH4 0xFFFFFFFF AND PUSH1 0xE0 SHL DUP2 MSTORE PUSH1 0x4 ADD PUSH2 0x923 SWAP7 SWAP6 SWAP5 SWAP4 SWAP3 SWAP2 SWAP1 PUSH2 0x16A3 JUMP JUMPDEST PUSH1 0x20 PUSH1 0x40 MLOAD DUP1 DUP4 SUB DUP2 PUSH1 0x0 DUP8 DUP1 EXTCODESIZE ISZERO DUP1 ISZERO PUSH2 0x93D JUMPI PUSH1 0x0 DUP1 REVERT JUMPDEST POP GAS CALL ISZERO DUP1 ISZERO PUSH2 0x951 JUMPI RETURNDATASIZE PUSH1 0x0 DUP1 RETURNDATACOPY RETURNDATASIZE PUSH1 0x0 REVERT JUMPDEST POP POP POP POP PUSH1 0x40 MLOAD RETURNDATASIZE PUSH1 0x1F NOT PUSH1 0x1F DUP3 ADD AND DUP3 ADD DUP1 PUSH1 0x40 MSTORE POP DUP2 ADD SWAP1 PUSH2 0x975 SWAP2 SWAP1 PUSH2 0xFBD JUMP JUMPDEST SWAP1 POP DUP2 PUSH20 0xFFFFFFFFFFFFFFFFFFFFFFFFFFFFFFFFFFFFFFFF AND PUSH4 0xD294FFE0 DUP3 PUSH1 0x40 MLOAD DUP3 PUSH4 0xFFFFFFFF AND PUSH1 0xE0 SHL DUP2 MSTORE PUSH1 0x4 ADD PUSH2 0x9B0 SWAP2 SWAP1 PUSH2 0x1688 JUMP JUMPDEST PUSH1 0x0 PUSH1 0x40 MLOAD DUP1 DUP4 SUB DUP2 PUSH1 0x0 DUP8 DUP1 EXTCODESIZE ISZERO DUP1 ISZERO PUSH2 0x9CA JUMPI PUSH1 0x0 DUP1 REVERT JUMPDEST POP GAS CALL ISZERO DUP1 ISZERO PUSH2 0x9DE JUMPI RETURNDATASIZE PUSH1 0x0 DUP1 RETURNDATACOPY RETURNDATASIZE PUSH1 0x0 REVERT JUMPDEST POP POP POP POP DUP3 PUSH20 0xFFFFFFFFFFFFFFFFFFFFFFFFFFFFFFFFFFFFFFFF AND PUSH4 0xD294FFE0 DUP3 PUSH1 0x40 MLOAD DUP3 PUSH4 0xFFFFFFFF AND PUSH1 0xE0 SHL DUP2 MSTORE PUSH1 0x4 ADD PUSH2 0xA1B SWAP2 SWAP1 PUSH2 0x1688 JUMP JUMPDEST PUSH1 0x0 PUSH1 0x40 MLOAD DUP1 DUP4 SUB DUP2 PUSH1 0x0 DUP8 DUP1 EXTCODESIZE ISZERO DUP1 ISZERO PUSH2 0xA35 JUMPI PUSH1 0x0 DUP1 REVERT JUMPDEST POP GAS CALL ISZERO DUP1 ISZERO PUSH2 0xA49 JUMPI RETURNDATASIZE PUSH1 0x0 DUP1 RETURNDATACOPY RETURNDATASIZE PUSH1 0x0 REVERT JUMPDEST POP POP POP POP POP POP POP POP POP POP POP POP JUMP JUMPDEST PUSH1 0x0 PUSH2 0xA6A PUSH2 0xA65 DUP5 PUSH2 0x18AA JUMP JUMPDEST PUSH2 0x1885 JUMP JUMPDEST SWAP1 POP DUP1 DUP4 DUP3 MSTORE PUSH1 0x20 DUP3 ADD SWAP1 POP DUP3 DUP6 PUSH1 0x20 DUP7 MUL DUP3 ADD GT ISZERO PUSH2 0xA8D JUMPI PUSH2 0xA8C PUSH2 0x1BA9 JUMP JUMPDEST JUMPDEST PUSH1 0x0 JUMPDEST DUP6 DUP2 LT ISZERO PUSH2 0xABD JUMPI DUP2 PUSH2 0xAA3 DUP9 DUP3 PUSH2 0xCE5 JUMP JUMPDEST DUP5 MSTORE PUSH1 0x20 DUP5 ADD SWAP4 POP PUSH1 0x20 DUP4 ADD SWAP3 POP POP PUSH1 0x1 DUP2 ADD SWAP1 POP PUSH2 0xA90 JUMP JUMPDEST POP POP POP SWAP4 SWAP3 POP POP POP JUMP JUMPDEST PUSH1 0x0 PUSH2 0xADA PUSH2 0xAD5 DUP5 PUSH2 0x18D6 JUMP JUMPDEST PUSH2 0x1885 JUMP JUMPDEST SWAP1 POP DUP1 DUP4 DUP3 MSTORE PUSH1 0x20 DUP3 ADD SWAP1 POP DUP3 DUP6 PUSH1 0x20 DUP7 MUL DUP3 ADD GT ISZERO PUSH2 0xAFD JUMPI PUSH2 0xAFC PUSH2 0x1BA9 JUMP JUMPDEST JUMPDEST PUSH1 0x0 JUMPDEST DUP6 DUP2 LT ISZERO PUSH2 0xB4B JUMPI DUP2 CALLDATALOAD PUSH8 0xFFFFFFFFFFFFFFFF DUP2 GT ISZERO PUSH2 0xB23 JUMPI PUSH2 0xB22 PUSH2 0x1B9A JUMP JUMPDEST JUMPDEST DUP1 DUP7 ADD PUSH2 0xB30 DUP10 DUP3 PUSH2 0xD24 JUMP JUMPDEST DUP6 MSTORE PUSH1 0x20 DUP6 ADD SWAP5 POP PUSH1 0x20 DUP5 ADD SWAP4 POP POP POP PUSH1 0x1 DUP2 ADD SWAP1 POP PUSH2 0xB00 JUMP JUMPDEST POP POP POP SWAP4 SWAP3 POP POP POP JUMP JUMPDEST PUSH1 0x0 PUSH2 0xB68 PUSH2 0xB63 DUP5 PUSH2 0x1902 JUMP JUMPDEST PUSH2 0x1885 JUMP JUMPDEST SWAP1 POP DUP1 DUP4 DUP3 MSTORE PUSH1 0x20 DUP3 ADD SWAP1 POP DUP3 DUP6 PUSH1 0x20 DUP7 MUL DUP3 ADD GT ISZERO PUSH2 0xB8B JUMPI PUSH2 0xB8A PUSH2 0x1BA9 JUMP JUMPDEST JUMPDEST PUSH1 0x0 JUMPDEST DUP6 DUP2 LT ISZERO PUSH2 0xBBB JUMPI DUP2 PUSH2 0xBA1 DUP9 DUP3 PUSH2 0xF7E JUMP JUMPDEST DUP5 MSTORE PUSH1 0x20 DUP5 ADD SWAP4 POP PUSH1 0x20 DUP4 ADD SWAP3 POP POP PUSH1 0x1 DUP2 ADD SWAP1 POP PUSH2 0xB8E JUMP JUMPDEST POP POP POP SWAP4 SWAP3 POP POP POP JUMP JUMPDEST PUSH1 0x0 PUSH2 0xBD8 PUSH2 0xBD3 DUP5 PUSH2 0x192E JUMP JUMPDEST PUSH2 0x1885 JUMP JUMPDEST SWAP1 POP DUP3 DUP2 MSTORE PUSH1 0x20 DUP2 ADD DUP5 DUP5 DUP5 ADD GT ISZERO PUSH2 0xBF4 JUMPI PUSH2 0xBF3 PUSH2 0x1BAE JUMP JUMPDEST JUMPDEST PUSH2 0xBFF DUP5 DUP3 DUP6 PUSH2 0x1AC9 JUMP JUMPDEST POP SWAP4 SWAP3 POP POP POP JUMP JUMPDEST PUSH1 0x0 DUP2 CALLDATALOAD SWAP1 POP PUSH2 0xC16 DUP2 PUSH2 0x1CAC JUMP JUMPDEST SWAP3 SWAP2 POP POP JUMP JUMPDEST PUSH1 0x0 DUP2 MLOAD SWAP1 POP PUSH2 0xC2B DUP2 PUSH2 0x1CAC JUMP JUMPDEST SWAP3 SWAP2 POP POP JUMP JUMPDEST PUSH1 0x0 DUP3 PUSH1 0x1F DUP4 ADD SLT PUSH2 0xC46 JUMPI PUSH2 0xC45 PUSH2 0x1B9A JUMP JUMPDEST JUMPDEST DUP2 CALLDATALOAD PUSH2 0xC56 DUP5 DUP3 PUSH1 0x20 DUP7 ADD PUSH2 0xA57 JUMP JUMPDEST SWAP2 POP POP SWAP3 SWAP2 POP POP JUMP JUMPDEST PUSH1 0x0 DUP3 PUSH1 0x1F DUP4 ADD SLT PUSH2 0xC74 JUMPI PUSH2 0xC73 PUSH2 0x1B9A JUMP JUMPDEST JUMPDEST DUP2 CALLDATALOAD PUSH2 0xC84 DUP5 DUP3 PUSH1 0x20 DUP7 ADD PUSH2 0xAC7 JUMP JUMPDEST SWAP2 POP POP SWAP3 SWAP2 POP POP JUMP JUMPDEST PUSH1 0x0 DUP3 PUSH1 0x1F DUP4 ADD SLT PUSH2 0xCA2 JUMPI PUSH2 0xCA1 PUSH2 0x1B9A JUMP JUMPDEST JUMPDEST DUP2 CALLDATALOAD PUSH2 0xCB2 DUP5 DUP3 PUSH1 0x20 DUP7 ADD PUSH2 0xB55 JUMP JUMPDEST SWAP2 POP POP SWAP3 SWAP2 POP POP JUMP JUMPDEST PUSH1 0x0 DUP2 CALLDATALOAD SWAP1 POP PUSH2 0xCCA DUP2 PUSH2 0x1CC3 JUMP JUMPDEST SWAP3 SWAP2 POP POP JUMP JUMPDEST PUSH1 0x0 DUP2 MLOAD SWAP1 POP PUSH2 0xCDF DUP2 PUSH2 0x1CC3 JUMP JUMPDEST SWAP3 SWAP2 POP POP JUMP JUMPDEST PUSH1 0x0 DUP2 CALLDATALOAD SWAP1 POP PUSH2 0xCF4 DUP2 PUSH2 0x1CDA JUMP JUMPDEST SWAP3 SWAP2 POP POP JUMP JUMPDEST PUSH1 0x0 DUP2 MLOAD SWAP1 POP PUSH2 0xD09 DUP2 PUSH2 0x1CDA JUMP JUMPDEST SWAP3 SWAP2 POP POP JUMP JUMPDEST PUSH1 0x0 DUP2 CALLDATALOAD SWAP1 POP PUSH2 0xD1E DUP2 PUSH2 0x1CF1 JUMP JUMPDEST SWAP3 SWAP2 POP POP JUMP JUMPDEST PUSH1 0x0 DUP3 PUSH1 0x1F DUP4 ADD SLT PUSH2 0xD39 JUMPI PUSH2 0xD38 PUSH2 0x1B9A JUMP JUMPDEST JUMPDEST DUP2 CALLDATALOAD PUSH2 0xD49 DUP5 DUP3 PUSH1 0x20 DUP7 ADD PUSH2 0xBC5 JUMP JUMPDEST SWAP2 POP POP SWAP3 SWAP2 POP POP JUMP JUMPDEST PUSH1 0x0 PUSH1 0x60 DUP3 DUP5 SUB SLT ISZERO PUSH2 0xD68 JUMPI PUSH2 0xD67 PUSH2 0x1B9F JUMP JUMPDEST JUMPDEST PUSH2 0xD72 PUSH1 0x60 PUSH2 0x1885 JUMP JUMPDEST SWAP1 POP PUSH1 0x0 PUSH2 0xD82 DUP5 DUP3 DUP6 ADD PUSH2 0xCBB JUMP JUMPDEST PUSH1 0x0 DUP4 ADD MSTORE POP PUSH1 0x20 PUSH2 0xD96 DUP5 DUP3 DUP6 ADD PUSH2 0xCBB JUMP JUMPDEST PUSH1 0x20 DUP4 ADD MSTORE POP PUSH1 0x40 PUSH2 0xDAA DUP5 DUP3 DUP6 ADD PUSH2 0xCBB JUMP JUMPDEST PUSH1 0x40 DUP4 ADD MSTORE POP SWAP3 SWAP2 POP POP JUMP JUMPDEST PUSH1 0x0 PUSH1 0x40 DUP3 DUP5 SUB SLT ISZERO PUSH2 0xDCC JUMPI PUSH2 0xDCB PUSH2 0x1B9F JUMP JUMPDEST JUMPDEST PUSH2 0xDD6 PUSH1 0x40 PUSH2 0x1885 JUMP JUMPDEST SWAP1 POP PUSH1 0x0 PUSH2 0xDE6 DUP5 DUP3 DUP6 ADD PUSH2 0xCE5 JUMP JUMPDEST PUSH1 0x0 DUP4 ADD MSTORE POP PUSH1 0x20 PUSH2 0xDFA DUP5 DUP3 DUP6 ADD PUSH2 0xCE5 JUMP JUMPDEST PUSH1 0x20 DUP4 ADD MSTORE POP SWAP3 SWAP2 POP POP JUMP JUMPDEST PUSH1 0x0 PUSH1 0x40 DUP3 DUP5 SUB SLT ISZERO PUSH2 0xE1C JUMPI PUSH2 0xE1B PUSH2 0x1B9F JUMP JUMPDEST JUMPDEST PUSH2 0xE26 PUSH1 0x40 PUSH2 0x1885 JUMP JUMPDEST SWAP1 POP PUSH1 0x0 PUSH2 0xE36 DUP5 DUP3 DUP6 ADD PUSH2 0xF7E JUMP JUMPDEST PUSH1 0x0 DUP4 ADD MSTORE POP PUSH1 0x20 PUSH2 0xE4A DUP5 DUP3 DUP6 ADD PUSH2 0xCE5 JUMP JUMPDEST PUSH1 0x20 DUP4 ADD MSTORE POP SWAP3 SWAP2 POP POP JUMP JUMPDEST PUSH1 0x0 PUSH1 0xC0 DUP3 DUP5 SUB SLT ISZERO PUSH2 0xE6C JUMPI PUSH2 0xE6B PUSH2 0x1B9F JUMP JUMPDEST JUMPDEST PUSH2 0xE76 PUSH1 0xC0 PUSH2 0x1885 JUMP JUMPDEST SWAP1 POP PUSH1 0x0 PUSH2 0xE86 DUP5 DUP3 DUP6 ADD PUSH2 0xF93 JUMP JUMPDEST PUSH1 0x0 DUP4 ADD MSTORE POP PUSH1 0x20 PUSH2 0xE9A DUP5 DUP3 DUP6 ADD PUSH2 0xF93 JUMP JUMPDEST PUSH1 0x20 DUP4 ADD MSTORE POP PUSH1 0x40 PUSH2 0xEAE DUP5 DUP3 DUP6 ADD PUSH2 0xD0F JUMP JUMPDEST PUSH1 0x40 DUP4 ADD MSTORE POP PUSH1 0x60 PUSH2 0xEC2 DUP5 DUP3 DUP6 ADD PUSH2 0xFA8 JUMP JUMPDEST PUSH1 0x60 DUP4 ADD MSTORE POP PUSH1 0x80 DUP3 ADD CALLDATALOAD PUSH8 0xFFFFFFFFFFFFFFFF DUP2 GT ISZERO PUSH2 0xEE6 JUMPI PUSH2 0xEE5 PUSH2 0x1BA4 JUMP JUMPDEST JUMPDEST PUSH2 0xEF2 DUP5 DUP3 DUP6 ADD PUSH2 0xC31 JUMP JUMPDEST PUSH1 0x80 DUP4 ADD MSTORE POP PUSH1 0xA0 DUP3 ADD CALLDATALOAD PUSH8 0xFFFFFFFFFFFFFFFF DUP2 GT ISZERO PUSH2 0xF16 JUMPI PUSH2 0xF15 PUSH2 0x1BA4 JUMP JUMPDEST JUMPDEST PUSH2 0xF22 DUP5 DUP3 DUP6 ADD PUSH2 0xC8D JUMP JUMPDEST PUSH1 0xA0 DUP4 ADD MSTORE POP SWAP3 SWAP2 POP POP JUMP JUMPDEST PUSH1 0x0 PUSH1 0x40 DUP3 DUP5 SUB SLT ISZERO PUSH2 0xF44 JUMPI PUSH2 0xF43 PUSH2 0x1B9F JUMP JUMPDEST JUMPDEST PUSH2 0xF4E PUSH1 0x40 PUSH2 0x1885 JUMP JUMPDEST SWAP1 POP PUSH1 0x0 PUSH2 0xF5E DUP5 DUP3 DUP6 ADD PUSH2 0xF7E JUMP JUMPDEST PUSH1 0x0 DUP4 ADD MSTORE POP PUSH1 0x20 PUSH2 0xF72 DUP5 DUP3 DUP6 ADD PUSH2 0xF7E JUMP JUMPDEST PUSH1 0x20 DUP4 ADD MSTORE POP SWAP3 SWAP2 POP POP JUMP JUMPDEST PUSH1 0x0 DUP2 CALLDATALOAD SWAP1 POP PUSH2 0xF8D DUP2 PUSH2 0x1D01 JUMP JUMPDEST SWAP3 SWAP2 POP POP JUMP JUMPDEST PUSH1 0x0 DUP2 CALLDATALOAD SWAP1 POP PUSH2 0xFA2 DUP2 PUSH2 0x1D18 JUMP JUMPDEST SWAP3 SWAP2 POP POP JUMP JUMPDEST PUSH1 0x0 DUP2 CALLDATALOAD SWAP1 POP PUSH2 0xFB7 DUP2 PUSH2 0x1D2F JUMP JUMPDEST SWAP3 SWAP2 POP POP JUMP JUMPDEST PUSH1 0x0 PUSH1 0x20 DUP3 DUP5 SUB SLT ISZERO PUSH2 0xFD3 JUMPI PUSH2 0xFD2 PUSH2 0x1BB8 JUMP JUMPDEST JUMPDEST PUSH1 0x0 PUSH2 0xFE1 DUP5 DUP3 DUP6 ADD PUSH2 0xC1C JUMP JUMPDEST SWAP2 POP POP SWAP3 SWAP2 POP POP JUMP JUMPDEST PUSH1 0x0 DUP1 PUSH1 0x0 PUSH1 0x60 DUP5 DUP7 SUB SLT ISZERO PUSH2 0x1003 JUMPI PUSH2 0x1002 PUSH2 0x1BB8 JUMP JUMPDEST JUMPDEST PUSH1 0x0 PUSH2 0x1011 DUP7 DUP3 DUP8 ADD PUSH2 0xC07 JUMP JUMPDEST SWAP4 POP POP PUSH1 0x20 PUSH2 0x1022 DUP7 DUP3 DUP8 ADD PUSH2 0xCE5 JUMP JUMPDEST SWAP3 POP POP PUSH1 0x40 PUSH2 0x1033 DUP7 DUP3 DUP8 ADD PUSH2 0xCE5 JUMP JUMPDEST SWAP2 POP POP SWAP3 POP SWAP3 POP SWAP3 JUMP JUMPDEST PUSH1 0x0 DUP1 PUSH1 0x0 DUP1 PUSH1 0x0 PUSH1 0xC0 DUP7 DUP9 SUB SLT ISZERO PUSH2 0x1059 JUMPI PUSH2 0x1058 PUSH2 0x1BB8 JUMP JUMPDEST JUMPDEST PUSH1 0x0 PUSH2 0x1067 DUP9 DUP3 DUP10 ADD PUSH2 0xC07 JUMP JUMPDEST SWAP6 POP POP PUSH1 0x20 DUP7 ADD CALLDATALOAD PUSH8 0xFFFFFFFFFFFFFFFF DUP2 GT ISZERO PUSH2 0x1088 JUMPI PUSH2 0x1087 PUSH2 0x1BB3 JUMP JUMPDEST JUMPDEST PUSH2 0x1094 DUP9 DUP3 DUP10 ADD PUSH2 0xD24 JUMP JUMPDEST SWAP5 POP POP PUSH1 0x40 PUSH2 0x10A5 DUP9 DUP3 DUP10 ADD PUSH2 0xCE5 JUMP JUMPDEST SWAP4 POP POP PUSH1 0x60 PUSH2 0x10B6 DUP9 DUP3 DUP10 ADD PUSH2 0xE06 JUMP JUMPDEST SWAP3 POP POP PUSH1 0xA0 DUP7 ADD CALLDATALOAD PUSH8 0xFFFFFFFFFFFFFFFF DUP2 GT ISZERO PUSH2 0x10D7 JUMPI PUSH2 0x10D6 PUSH2 0x1BB3 JUMP JUMPDEST JUMPDEST PUSH2 0x10E3 DUP9 DUP3 DUP10 ADD PUSH2 0xE56 JUMP JUMPDEST SWAP2 POP POP SWAP3 SWAP6 POP SWAP3 SWAP6 SWAP1 SWAP4 POP JUMP JUMPDEST PUSH1 0x0 PUSH1 0x20 DUP3 DUP5 SUB SLT ISZERO PUSH2 0x1106 JUMPI PUSH2 0x1105 PUSH2 0x1BB8 JUMP JUMPDEST JUMPDEST PUSH1 0x0 PUSH2 0x1114 DUP5 DUP3 DUP6 ADD PUSH2 0xCD0 JUMP JUMPDEST SWAP2 POP POP SWAP3 SWAP2 POP POP JUMP JUMPDEST PUSH1 0x0 PUSH1 0x20 DUP3 DUP5 SUB SLT ISZERO PUSH2 0x1133 JUMPI PUSH2 0x1132 PUSH2 0x1BB8 JUMP JUMPDEST JUMPDEST PUSH1 0x0 PUSH2 0x1141 DUP5 DUP3 DUP6 ADD PUSH2 0xCFA JUMP JUMPDEST SWAP2 POP POP SWAP3 SWAP2 POP POP JUMP JUMPDEST PUSH1 0x0 DUP1 PUSH1 0x0 DUP1 PUSH1 0x0 PUSH2 0x120 DUP7 DUP9 SUB SLT ISZERO PUSH2 0x1167 JUMPI PUSH2 0x1166 PUSH2 0x1BB8 JUMP JUMPDEST JUMPDEST PUSH1 0x0 PUSH2 0x1175 DUP9 DUP3 DUP10 ADD PUSH2 0xDB6 JUMP JUMPDEST SWAP6 POP POP PUSH1 0x40 PUSH2 0x1186 DUP9 DUP3 DUP10 ADD PUSH2 0xF93 JUMP JUMPDEST SWAP5 POP POP PUSH1 0x60 PUSH2 0x1197 DUP9 DUP3 DUP10 ADD PUSH2 0xF2E JUMP JUMPDEST SWAP4 POP POP PUSH1 0xA0 DUP7 ADD CALLDATALOAD PUSH8 0xFFFFFFFFFFFFFFFF DUP2 GT ISZERO PUSH2 0x11B8 JUMPI PUSH2 0x11B7 PUSH2 0x1BB3 JUMP JUMPDEST JUMPDEST PUSH2 0x11C4 DUP9 DUP3 DUP10 ADD PUSH2 0xC5F JUMP JUMPDEST SWAP3 POP POP PUSH1 0xC0 PUSH2 0x11D5 DUP9 DUP3 DUP10 ADD PUSH2 0xD52 JUMP JUMPDEST SWAP2 POP POP SWAP3 SWAP6 POP SWAP3 SWAP6 SWAP1 SWAP4 POP JUMP JUMPDEST PUSH1 0x0 PUSH2 0x11EE DUP4 DUP4 PUSH2 0x1393 JUMP JUMPDEST PUSH1 0x20 DUP4 ADD SWAP1 POP SWAP3 SWAP2 POP POP JUMP JUMPDEST PUSH1 0x0 PUSH2 0x1206 DUP4 DUP4 PUSH2 0x13C0 JUMP JUMPDEST SWAP1 POP SWAP3 SWAP2 POP POP JUMP JUMPDEST PUSH1 0x0 PUSH2 0x121A DUP4 DUP4 PUSH2 0x164C JUMP JUMPDEST PUSH1 0x20 DUP4 ADD SWAP1 POP SWAP3 SWAP2 POP POP JUMP JUMPDEST PUSH2 0x122F DUP2 PUSH2 0x1A37 JUMP JUMPDEST DUP3 MSTORE POP POP JUMP JUMPDEST PUSH2 0x123E DUP2 PUSH2 0x1A37 JUMP JUMPDEST DUP3 MSTORE POP POP JUMP JUMPDEST PUSH1 0x0 PUSH2 0x124F DUP3 PUSH2 0x198F JUMP JUMPDEST PUSH2 0x1259 DUP2 DUP6 PUSH2 0x19E2 JUMP JUMPDEST SWAP4 POP PUSH2 0x1264 DUP4 PUSH2 0x195F JUMP JUMPDEST DUP1 PUSH1 0x0 JUMPDEST DUP4 DUP2 LT ISZERO PUSH2 0x1295 JUMPI DUP2 MLOAD PUSH2 0x127C DUP9 DUP3 PUSH2 0x11E2 JUMP JUMPDEST SWAP8 POP PUSH2 0x1287 DUP4 PUSH2 0x19BB JUMP JUMPDEST SWAP3 POP POP PUSH1 0x1 DUP2 ADD SWAP1 POP PUSH2 0x1268 JUMP JUMPDEST POP DUP6 SWAP4 POP POP POP POP SWAP3 SWAP2 POP POP JUMP JUMPDEST PUSH1 0x0 PUSH2 0x12AD DUP3 PUSH2 0x199A JUMP JUMPDEST PUSH2 0x12B7 DUP2 DUP6 PUSH2 0x19F3 JUMP JUMPDEST SWAP4 POP DUP4 PUSH1 0x20 DUP3 MUL DUP6 ADD PUSH2 0x12C9 DUP6 PUSH2 0x196F JUMP JUMPDEST DUP1 PUSH1 0x0 JUMPDEST DUP6 DUP2 LT ISZERO PUSH2 0x1305 JUMPI DUP5 DUP5 SUB DUP10 MSTORE DUP2 MLOAD PUSH2 0x12E6 DUP6 DUP3 PUSH2 0x11FA JUMP JUMPDEST SWAP5 POP PUSH2 0x12F1 DUP4 PUSH2 0x19C8 JUMP JUMPDEST SWAP3 POP PUSH1 0x20 DUP11 ADD SWAP10 POP POP PUSH1 0x1 DUP2 ADD SWAP1 POP PUSH2 0x12CD JUMP JUMPDEST POP DUP3 SWAP8 POP DUP8 SWAP6 POP POP POP POP POP POP SWAP3 SWAP2 POP POP JUMP JUMPDEST PUSH1 0x0 PUSH2 0x1322 DUP3 PUSH2 0x19A5 JUMP JUMPDEST PUSH2 0x132C DUP2 DUP6 PUSH2 0x1A04 JUMP JUMPDEST SWAP4 POP PUSH2 0x1337 DUP4 PUSH2 0x197F JUMP JUMPDEST DUP1 PUSH1 0x0 JUMPDEST DUP4 DUP2 LT ISZERO PUSH2 0x1368 JUMPI DUP2 MLOAD PUSH2 0x134F DUP9 DUP3 PUSH2 0x120E JUMP JUMPDEST SWAP8 POP PUSH2 0x135A DUP4 PUSH2 0x19D5 JUMP JUMPDEST SWAP3 POP POP PUSH1 0x1 DUP2 ADD SWAP1 POP PUSH2 0x133B JUMP JUMPDEST POP DUP6 SWAP4 POP POP POP POP SWAP3 SWAP2 POP POP JUMP JUMPDEST PUSH2 0x137E DUP2 PUSH2 0x1A49 JUMP JUMPDEST DUP3 MSTORE POP POP JUMP JUMPDEST PUSH2 0x138D DUP2 PUSH2 0x1A49 JUMP JUMPDEST DUP3 MSTORE POP POP JUMP JUMPDEST PUSH2 0x139C DUP2 PUSH2 0x1A55 JUMP JUMPDEST DUP3 MSTORE POP POP JUMP JUMPDEST PUSH2 0x13AB DUP2 PUSH2 0x1A55 JUMP JUMPDEST DUP3 MSTORE POP POP JUMP JUMPDEST PUSH2 0x13BA DUP2 PUSH2 0x1AB7 JUMP JUMPDEST DUP3 MSTORE POP POP JUMP JUMPDEST PUSH1 0x0 PUSH2 0x13CB DUP3 PUSH2 0x19B0 JUMP JUMPDEST PUSH2 0x13D5 DUP2 DUP6 PUSH2 0x1A15 JUMP JUMPDEST SWAP4 POP PUSH2 0x13E5 DUP2 DUP6 PUSH1 0x20 DUP7 ADD PUSH2 0x1AD8 JUMP JUMPDEST PUSH2 0x13EE DUP2 PUSH2 0x1BBD JUMP JUMPDEST DUP5 ADD SWAP2 POP POP SWAP3 SWAP2 POP POP JUMP JUMPDEST PUSH1 0x0 PUSH2 0x1404 DUP3 PUSH2 0x19B0 JUMP JUMPDEST PUSH2 0x140E DUP2 DUP6 PUSH2 0x1A26 JUMP JUMPDEST SWAP4 POP PUSH2 0x141E DUP2 DUP6 PUSH1 0x20 DUP7 ADD PUSH2 0x1AD8 JUMP JUMPDEST PUSH2 0x1427 DUP2 PUSH2 0x1BBD JUMP JUMPDEST DUP5 ADD SWAP2 POP POP SWAP3 SWAP2 POP POP JUMP JUMPDEST PUSH1 0x0 PUSH2 0x143F PUSH1 0x2B DUP4 PUSH2 0x1A26 JUMP JUMPDEST SWAP2 POP PUSH2 0x144A DUP3 PUSH2 0x1BCE JUMP JUMPDEST PUSH1 0x40 DUP3 ADD SWAP1 POP SWAP2 SWAP1 POP JUMP JUMPDEST PUSH1 0x0 PUSH2 0x1462 PUSH1 0x1F DUP4 PUSH2 0x1A26 JUMP JUMPDEST SWAP2 POP PUSH2 0x146D DUP3 PUSH2 0x1C1D JUMP JUMPDEST PUSH1 0x20 DUP3 ADD SWAP1 POP SWAP2 SWAP1 POP JUMP JUMPDEST PUSH1 0x0 PUSH2 0x1485 PUSH1 0xF DUP4 PUSH2 0x1A26 JUMP JUMPDEST SWAP2 POP PUSH2 0x1490 DUP3 PUSH2 0x1C46 JUMP JUMPDEST PUSH1 0x20 DUP3 ADD SWAP1 POP SWAP2 SWAP1 POP JUMP JUMPDEST PUSH1 0x0 PUSH2 0x14A8 PUSH1 0x12 DUP4 PUSH2 0x1A26 JUMP JUMPDEST SWAP2 POP PUSH2 0x14B3 DUP3 PUSH2 0x1C6F JUMP JUMPDEST PUSH1 0x20 DUP3 ADD SWAP1 POP SWAP2 SWAP1 POP JUMP JUMPDEST PUSH1 0x60 DUP3 ADD PUSH1 0x0 DUP3 ADD MLOAD PUSH2 0x14D4 PUSH1 0x0 DUP6 ADD DUP3 PUSH2 0x1375 JUMP JUMPDEST POP PUSH1 0x20 DUP3 ADD MLOAD PUSH2 0x14E7 PUSH1 0x20 DUP6 ADD DUP3 PUSH2 0x1375 JUMP JUMPDEST POP PUSH1 0x40 DUP3 ADD MLOAD PUSH2 0x14FA PUSH1 0x40 DUP6 ADD DUP3 PUSH2 0x1375 JUMP JUMPDEST POP POP POP POP JUMP JUMPDEST PUSH1 0x40 DUP3 ADD PUSH1 0x0 DUP3 ADD MLOAD PUSH2 0x1516 PUSH1 0x0 DUP6 ADD DUP3 PUSH2 0x1393 JUMP JUMPDEST POP PUSH1 0x20 DUP3 ADD MLOAD PUSH2 0x1529 PUSH1 0x20 DUP6 ADD DUP3 PUSH2 0x1393 JUMP JUMPDEST POP POP POP POP JUMP JUMPDEST PUSH1 0x40 DUP3 ADD PUSH1 0x0 DUP3 ADD MLOAD PUSH2 0x1545 PUSH1 0x0 DUP6 ADD DUP3 PUSH2 0x164C JUMP JUMPDEST POP PUSH1 0x20 DUP3 ADD MLOAD PUSH2 0x1558 PUSH1 0x20 DUP6 ADD DUP3 PUSH2 0x1393 JUMP JUMPDEST POP POP POP POP JUMP JUMPDEST PUSH1 0x40 DUP3 ADD PUSH1 0x0 DUP3 ADD MLOAD PUSH2 0x1574 PUSH1 0x0 DUP6 ADD DUP3 PUSH2 0x1375 JUMP JUMPDEST POP PUSH1 0x20 DUP3 ADD MLOAD PUSH2 0x1587 PUSH1 0x20 DUP6 ADD DUP3 PUSH2 0x1226 JUMP JUMPDEST POP POP POP POP JUMP JUMPDEST PUSH1 0x0 PUSH1 0xC0 DUP4 ADD PUSH1 0x0 DUP4 ADD MLOAD PUSH2 0x15A5 PUSH1 0x0 DUP7 ADD DUP3 PUSH2 0x165B JUMP JUMPDEST POP PUSH1 0x20 DUP4 ADD MLOAD PUSH2 0x15B8 PUSH1 0x20 DUP7 ADD DUP3 PUSH2 0x165B JUMP JUMPDEST POP PUSH1 0x40 DUP4 ADD MLOAD PUSH2 0x15CB PUSH1 0x40 DUP7 ADD DUP3 PUSH2 0x13B1 JUMP JUMPDEST POP PUSH1 0x60 DUP4 ADD MLOAD PUSH2 0x15DE PUSH1 0x60 DUP7 ADD DUP3 PUSH2 0x1679 JUMP JUMPDEST POP PUSH1 0x80 DUP4 ADD MLOAD DUP5 DUP3 SUB PUSH1 0x80 DUP7 ADD MSTORE PUSH2 0x15F6 DUP3 DUP3 PUSH2 0x1244 JUMP JUMPDEST SWAP2 POP POP PUSH1 0xA0 DUP4 ADD MLOAD DUP5 DUP3 SUB PUSH1 0xA0 DUP7 ADD MSTORE PUSH2 0x1610 DUP3 DUP3 PUSH2 0x1317 JUMP JUMPDEST SWAP2 POP POP DUP1 SWAP2 POP POP SWAP3 SWAP2 POP POP JUMP JUMPDEST PUSH1 0x40 DUP3 ADD PUSH1 0x0 DUP3 ADD MLOAD PUSH2 0x1633 PUSH1 0x0 DUP6 ADD DUP3 PUSH2 0x164C JUMP JUMPDEST POP PUSH1 0x20 DUP3 ADD MLOAD PUSH2 0x1646 PUSH1 0x20 DUP6 ADD DUP3 PUSH2 0x164C JUMP JUMPDEST POP POP POP POP JUMP JUMPDEST PUSH2 0x1655 DUP2 PUSH2 0x1A72 JUMP JUMPDEST DUP3 MSTORE POP POP JUMP JUMPDEST PUSH2 0x1664 DUP2 PUSH2 0x1AA0 JUMP JUMPDEST DUP3 MSTORE POP POP JUMP JUMPDEST PUSH2 0x1673 DUP2 PUSH2 0x1AA0 JUMP JUMPDEST DUP3 MSTORE POP POP JUMP JUMPDEST PUSH2 0x1682 DUP2 PUSH2 0x1AAA JUMP JUMPDEST DUP3 MSTORE POP POP JUMP JUMPDEST PUSH1 0x0 PUSH1 0x20 DUP3 ADD SWAP1 POP PUSH2 0x169D PUSH1 0x0 DUP4 ADD DUP5 PUSH2 0x1235 JUMP JUMPDEST SWAP3 SWAP2 POP POP JUMP JUMPDEST PUSH1 0x0 PUSH1 0xE0 DUP3 ADD SWAP1 POP PUSH2 0x16B8 PUSH1 0x0 DUP4 ADD DUP10 PUSH2 0x1235 JUMP JUMPDEST PUSH2 0x16C5 PUSH1 0x20 DUP4 ADD DUP9 PUSH2 0x1235 JUMP JUMPDEST DUP2 DUP2 SUB PUSH1 0x40 DUP4 ADD MSTORE PUSH2 0x16D7 DUP2 DUP8 PUSH2 0x13F9 JUMP JUMPDEST SWAP1 POP PUSH2 0x16E6 PUSH1 0x60 DUP4 ADD DUP7 PUSH2 0x13A2 JUMP JUMPDEST PUSH2 0x16F3 PUSH1 0x80 DUP4 ADD DUP6 PUSH2 0x152F JUMP JUMPDEST DUP2 DUP2 SUB PUSH1 0xC0 DUP4 ADD MSTORE PUSH2 0x1705 DUP2 DUP5 PUSH2 0x158D JUMP JUMPDEST SWAP1 POP SWAP8 SWAP7 POP POP POP POP POP POP POP JUMP JUMPDEST PUSH1 0x0 PUSH1 0x80 DUP3 ADD SWAP1 POP PUSH2 0x1727 PUSH1 0x0 DUP4 ADD DUP8 PUSH2 0x1235 JUMP JUMPDEST PUSH2 0x1734 PUSH1 0x20 DUP4 ADD DUP7 PUSH2 0x13A2 JUMP JUMPDEST PUSH2 0x1741 PUSH1 0x40 DUP4 ADD DUP6 PUSH2 0x13A2 JUMP JUMPDEST PUSH2 0x174E PUSH1 0x60 DUP4 ADD DUP5 PUSH2 0x1384 JUMP JUMPDEST SWAP6 SWAP5 POP POP POP POP POP JUMP JUMPDEST PUSH1 0x0 PUSH1 0x20 DUP3 ADD SWAP1 POP PUSH2 0x176C PUSH1 0x0 DUP4 ADD DUP5 PUSH2 0x13A2 JUMP JUMPDEST SWAP3 SWAP2 POP POP JUMP JUMPDEST PUSH1 0x0 PUSH1 0x40 DUP3 ADD SWAP1 POP PUSH2 0x1787 PUSH1 0x0 DUP4 ADD DUP6 PUSH2 0x13A2 JUMP JUMPDEST PUSH2 0x1794 PUSH1 0x20 DUP4 ADD DUP5 PUSH2 0x1235 JUMP JUMPDEST SWAP4 SWAP3 POP POP POP JUMP JUMPDEST PUSH1 0x0 PUSH1 0x20 DUP3 ADD SWAP1 POP DUP2 DUP2 SUB PUSH1 0x0 DUP4 ADD MSTORE PUSH2 0x17B4 DUP2 PUSH2 0x1432 JUMP JUMPDEST SWAP1 POP SWAP2 SWAP1 POP JUMP JUMPDEST PUSH1 0x0 PUSH1 0x20 DUP3 ADD SWAP1 POP DUP2 DUP2 SUB PUSH1 0x0 DUP4 ADD MSTORE PUSH2 0x17D4 DUP2 PUSH2 0x1455 JUMP JUMPDEST SWAP1 POP SWAP2 SWAP1 POP JUMP JUMPDEST PUSH1 0x0 PUSH1 0x20 DUP3 ADD SWAP1 POP DUP2 DUP2 SUB PUSH1 0x0 DUP4 ADD MSTORE PUSH2 0x17F4 DUP2 PUSH2 0x1478 JUMP JUMPDEST SWAP1 POP SWAP2 SWAP1 POP JUMP JUMPDEST PUSH1 0x0 PUSH1 0x20 DUP3 ADD SWAP1 POP DUP2 DUP2 SUB PUSH1 0x0 DUP4 ADD MSTORE PUSH2 0x1814 DUP2 PUSH2 0x149B JUMP JUMPDEST SWAP1 POP SWAP2 SWAP1 POP JUMP JUMPDEST PUSH1 0x0 PUSH2 0x160 DUP3 ADD SWAP1 POP PUSH2 0x1831 PUSH1 0x0 DUP4 ADD DUP10 PUSH2 0x1500 JUMP JUMPDEST PUSH2 0x183E PUSH1 0x40 DUP4 ADD DUP9 PUSH2 0x166A JUMP JUMPDEST PUSH2 0x184B PUSH1 0x60 DUP4 ADD DUP8 PUSH2 0x161D JUMP JUMPDEST DUP2 DUP2 SUB PUSH1 0xA0 DUP4 ADD MSTORE PUSH2 0x185D DUP2 DUP7 PUSH2 0x12A2 JUMP JUMPDEST SWAP1 POP PUSH2 0x186C PUSH1 0xC0 DUP4 ADD DUP6 PUSH2 0x14BE JUMP JUMPDEST PUSH2 0x187A PUSH2 0x120 DUP4 ADD DUP5 PUSH2 0x155E JUMP JUMPDEST SWAP8 SWAP7 POP POP POP POP POP POP POP JUMP JUMPDEST PUSH1 0x0 PUSH2 0x188F PUSH2 0x18A0 JUMP JUMPDEST SWAP1 POP PUSH2 0x189B DUP3 DUP3 PUSH2 0x1B0B JUMP JUMPDEST SWAP2 SWAP1 POP JUMP JUMPDEST PUSH1 0x0 PUSH1 0x40 MLOAD SWAP1 POP SWAP1 JUMP JUMPDEST PUSH1 0x0 PUSH8 0xFFFFFFFFFFFFFFFF DUP3 GT ISZERO PUSH2 0x18C5 JUMPI PUSH2 0x18C4 PUSH2 0x1B6B JUMP JUMPDEST JUMPDEST PUSH1 0x20 DUP3 MUL SWAP1 POP PUSH1 0x20 DUP2 ADD SWAP1 POP SWAP2 SWAP1 POP JUMP JUMPDEST PUSH1 0x0 PUSH8 0xFFFFFFFFFFFFFFFF DUP3 GT ISZERO PUSH2 0x18F1 JUMPI PUSH2 0x18F0 PUSH2 0x1B6B JUMP JUMPDEST JUMPDEST PUSH1 0x20 DUP3 MUL SWAP1 POP PUSH1 0x20 DUP2 ADD SWAP1 POP SWAP2 SWAP1 POP JUMP JUMPDEST PUSH1 0x0 PUSH8 0xFFFFFFFFFFFFFFFF DUP3 GT ISZERO PUSH2 0x191D JUMPI PUSH2 0x191C PUSH2 0x1B6B JUMP JUMPDEST JUMPDEST PUSH1 0x20 DUP3 MUL SWAP1 POP PUSH1 0x20 DUP2 ADD SWAP1 POP SWAP2 SWAP1 POP JUMP JUMPDEST PUSH1 0x0 PUSH8 0xFFFFFFFFFFFFFFFF DUP3 GT ISZERO PUSH2 0x1949 JUMPI PUSH2 0x1948 PUSH2 0x1B6B JUMP JUMPDEST JUMPDEST PUSH2 0x1952 DUP3 PUSH2 0x1BBD JUMP JUMPDEST SWAP1 POP PUSH1 0x20 DUP2 ADD SWAP1 POP SWAP2 SWAP1 POP JUMP JUMPDEST PUSH1 0x0 DUP2 SWAP1 POP PUSH1 0x20 DUP3 ADD SWAP1 POP SWAP2 SWAP1 POP JUMP JUMPDEST PUSH1 0x0 DUP2 SWAP1 POP PUSH1 0x20 DUP3 ADD SWAP1 POP SWAP2 SWAP1 POP JUMP JUMPDEST PUSH1 0x0 DUP2 SWAP1 POP PUSH1 0x20 DUP3 ADD SWAP1 POP SWAP2 SWAP1 POP JUMP JUMPDEST PUSH1 0x0 DUP2 MLOAD SWAP1 POP SWAP2 SWAP1 POP JUMP JUMPDEST PUSH1 0x0 DUP2 MLOAD SWAP1 POP SWAP2 SWAP1 POP JUMP JUMPDEST PUSH1 0x0 DUP2 MLOAD SWAP1 POP SWAP2 SWAP1 POP JUMP JUMPDEST PUSH1 0x0 DUP2 MLOAD SWAP1 POP SWAP2 SWAP1 POP JUMP JUMPDEST PUSH1 0x0 PUSH1 0x20 DUP3 ADD SWAP1 POP SWAP2 SWAP1 POP JUMP JUMPDEST PUSH1 0x0 PUSH1 0x20 DUP3 ADD SWAP1 POP SWAP2 SWAP1 POP JUMP JUMPDEST PUSH1 0x0 PUSH1 0x20 DUP3 ADD SWAP1 POP SWAP2 SWAP1 POP JUMP JUMPDEST PUSH1 0x0 DUP3 DUP3 MSTORE PUSH1 0x20 DUP3 ADD SWAP1 POP SWAP3 SWAP2 POP POP JUMP JUMPDEST PUSH1 0x0 DUP3 DUP3 MSTORE PUSH1 0x20 DUP3 ADD SWAP1 POP SWAP3 SWAP2 POP POP JUMP JUMPDEST PUSH1 0x0 DUP3 DUP3 MSTORE PUSH1 0x20 DUP3 ADD SWAP1 POP SWAP3 SWAP2 POP POP JUMP JUMPDEST PUSH1 0x0 DUP3 DUP3 MSTORE PUSH1 0x20 DUP3 ADD SWAP1 POP SWAP3 SWAP2 POP POP JUMP JUMPDEST PUSH1 0x0 DUP3 DUP3 MSTORE PUSH1 0x20 DUP3 ADD SWAP1 POP SWAP3 SWAP2 POP POP JUMP JUMPDEST PUSH1 0x0 PUSH2 0x1A42 DUP3 PUSH2 0x1A80 JUMP JUMPDEST SWAP1 POP SWAP2 SWAP1 POP JUMP JUMPDEST PUSH1 0x0 DUP2 ISZERO ISZERO SWAP1 POP SWAP2 SWAP1 POP JUMP JUMPDEST PUSH1 0x0 DUP2 SWAP1 POP SWAP2 SWAP1 POP JUMP JUMPDEST PUSH1 0x0 DUP2 SWAP1 POP PUSH2 0x1A6D DUP3 PUSH2 0x1C98 JUMP JUMPDEST SWAP2 SWAP1 POP JUMP JUMPDEST PUSH1 0x0 PUSH2 0xFFFF DUP3 AND SWAP1 POP SWAP2 SWAP1 POP JUMP JUMPDEST PUSH1 0x0 PUSH20 0xFFFFFFFFFFFFFFFFFFFFFFFFFFFFFFFFFFFFFFFF DUP3 AND SWAP1 POP SWAP2 SWAP1 POP JUMP JUMPDEST PUSH1 0x0 DUP2 SWAP1 POP SWAP2 SWAP1 POP JUMP JUMPDEST PUSH1 0x0 PUSH1 0xFF DUP3 AND SWAP1 POP SWAP2 SWAP1 POP JUMP JUMPDEST PUSH1 0x0 PUSH2 0x1AC2 DUP3 PUSH2 0x1A5F JUMP JUMPDEST SWAP1 POP SWAP2 SWAP1 POP JUMP JUMPDEST DUP3 DUP2 DUP4 CALLDATACOPY PUSH1 0x0 DUP4 DUP4 ADD MSTORE POP POP POP JUMP JUMPDEST PUSH1 0x0 JUMPDEST DUP4 DUP2 LT ISZERO PUSH2 0x1AF6 JUMPI DUP1 DUP3 ADD MLOAD DUP2 DUP5 ADD MSTORE PUSH1 0x20 DUP2 ADD SWAP1 POP PUSH2 0x1ADB JUMP JUMPDEST DUP4 DUP2 GT ISZERO PUSH2 0x1B05 JUMPI PUSH1 0x0 DUP5 DUP5 ADD MSTORE JUMPDEST POP POP POP POP JUMP JUMPDEST PUSH2 0x1B14 DUP3 PUSH2 0x1BBD JUMP JUMPDEST DUP2 ADD DUP2 DUP2 LT PUSH8 0xFFFFFFFFFFFFFFFF DUP3 GT OR ISZERO PUSH2 0x1B33 JUMPI PUSH2 0x1B32 PUSH2 0x1B6B JUMP JUMPDEST JUMPDEST DUP1 PUSH1 0x40 MSTORE POP POP POP JUMP JUMPDEST PUSH32 0x4E487B7100000000000000000000000000000000000000000000000000000000 PUSH1 0x0 MSTORE PUSH1 0x21 PUSH1 0x4 MSTORE PUSH1 0x24 PUSH1 0x0 REVERT JUMPDEST PUSH32 0x4E487B7100000000000000000000000000000000000000000000000000000000 PUSH1 0x0 MSTORE PUSH1 0x41 PUSH1 0x4 MSTORE PUSH1 0x24 PUSH1 0x0 REVERT JUMPDEST PUSH1 0x0 DUP1 REVERT JUMPDEST PUSH1 0x0 DUP1 REVERT JUMPDEST PUSH1 0x0 DUP1 REVERT JUMPDEST PUSH1 0x0 DUP1 REVERT JUMPDEST PUSH1 0x0 DUP1 REVERT JUMPDEST PUSH1 0x0 DUP1 REVERT JUMPDEST PUSH1 0x0 DUP1 REVERT JUMPDEST PUSH1 0x0 PUSH1 0x1F NOT PUSH1 0x1F DUP4 ADD AND SWAP1 POP SWAP2 SWAP1 POP JUMP JUMPDEST PUSH32 0x5573657220646F6573206E6F74206861766520444F43544F525F524F4C452074 PUSH1 0x0 DUP3 ADD MSTORE PUSH32 0x6F20707265736372696265000000000000000000000000000000000000000000 PUSH1 0x20 DUP3 ADD MSTORE POP JUMP JUMPDEST PUSH32 0x50617469656E74206F7220646F63746F7220696E206E6F742061207573657200 PUSH1 0x0 DUP3 ADD MSTORE POP JUMP JUMPDEST PUSH32 0x50726F66696C6520657869737465640000000000000000000000000000000000 PUSH1 0x0 DUP3 ADD MSTORE POP JUMP JUMPDEST PUSH32 0x41646D696E6973747261746F72206F6E6C790000000000000000000000000000 PUSH1 0x0 DUP3 ADD MSTORE POP JUMP JUMPDEST PUSH1 0x3 DUP2 LT PUSH2 0x1CA9 JUMPI PUSH2 0x1CA8 PUSH2 0x1B3C JUMP JUMPDEST JUMPDEST POP JUMP JUMPDEST PUSH2 0x1CB5 DUP2 PUSH2 0x1A37 JUMP JUMPDEST DUP2 EQ PUSH2 0x1CC0 JUMPI PUSH1 0x0 DUP1 REVERT JUMPDEST POP JUMP JUMPDEST PUSH2 0x1CCC DUP2 PUSH2 0x1A49 JUMP JUMPDEST DUP2 EQ PUSH2 0x1CD7 JUMPI PUSH1 0x0 DUP1 REVERT JUMPDEST POP JUMP JUMPDEST PUSH2 0x1CE3 DUP2 PUSH2 0x1A55 JUMP JUMPDEST DUP2 EQ PUSH2 0x1CEE JUMPI PUSH1 0x0 DUP1 REVERT JUMPDEST POP JUMP JUMPDEST PUSH1 0x3 DUP2 LT PUSH2 0x1CFE JUMPI PUSH1 0x0 DUP1 REVERT JUMPDEST POP JUMP JUMPDEST PUSH2 0x1D0A DUP2 PUSH2 0x1A72 JUMP JUMPDEST DUP2 EQ PUSH2 0x1D15 JUMPI PUSH1 0x0 DUP1 REVERT JUMPDEST POP JUMP JUMPDEST PUSH2 0x1D21 DUP2 PUSH2 0x1AA0 JUMP JUMPDEST DUP2 EQ PUSH2 0x1D2C JUMPI PUSH1 0x0 DUP1 REVERT JUMPDEST POP JUMP JUMPDEST PUSH2 0x1D38 DUP2 PUSH2 0x1AAA JUMP JUMPDEST DUP2 EQ PUSH2 0x1D43 JUMPI PUSH1 0x0 DUP1 REVERT JUMPDEST POP JUMP INVALID LOG2 PUSH5 0x6970667358 0x22 SLT KECCAK256 0xFB PUSH22 0xC4773EE088AA8AD49005DF15B6077DDCEDB333EACCDF POP 0xB0 0x4D 0x28 RETURNDATACOPY 0xCD STOP 0xA8 PUSH5 0x736F6C6343 STOP ADDMOD MOD STOP CALLER PUSH1 0xA0 PUSH1 0x40 MSTORE CALLVALUE DUP1 ISZERO PUSH2 0x10 JUMPI PUSH1 0x0 DUP1 REVERT JUMPDEST POP PUSH2 0x2D PUSH2 0x22 PUSH2 0x91 PUSH1 0x20 SHL PUSH1 0x20 SHR JUMP JUMPDEST PUSH2 0x99 PUSH1 0x20 SHL PUSH1 0x20 SHR JUMP JUMPDEST PUSH1 0x40 MLOAD PUSH2 0x39 SWAP1 PUSH2 0x15D JUMP JUMPDEST PUSH1 0x40 MLOAD DUP1 SWAP2 SUB SWAP1 PUSH1 0x0 CREATE DUP1 ISZERO DUP1 ISZERO PUSH2 0x55 JUMPI RETURNDATASIZE PUSH1 0x0 DUP1 RETURNDATACOPY RETURNDATASIZE PUSH1 0x0 REVERT JUMPDEST POP PUSH20 0xFFFFFFFFFFFFFFFFFFFFFFFFFFFFFFFFFFFFFFFF AND PUSH1 0x80 DUP2 PUSH20 0xFFFFFFFFFFFFFFFFFFFFFFFFFFFFFFFFFFFFFFFF AND PUSH1 0x60 SHL DUP2 MSTORE POP POP PUSH2 0x16A JUMP JUMPDEST PUSH1 0x0 CALLER SWAP1 POP SWAP1 JUMP JUMPDEST PUSH1 0x0 DUP1 PUSH1 0x0 SWAP1 SLOAD SWAP1 PUSH2 0x100 EXP SWAP1 DIV PUSH20 0xFFFFFFFFFFFFFFFFFFFFFFFFFFFFFFFFFFFFFFFF AND SWAP1 POP DUP2 PUSH1 0x0 DUP1 PUSH2 0x100 EXP DUP2 SLOAD DUP2 PUSH20 0xFFFFFFFFFFFFFFFFFFFFFFFFFFFFFFFFFFFFFFFF MUL NOT AND SWAP1 DUP4 PUSH20 0xFFFFFFFFFFFFFFFFFFFFFFFFFFFFFFFFFFFFFFFF AND MUL OR SWAP1 SSTORE POP DUP2 PUSH20 0xFFFFFFFFFFFFFFFFFFFFFFFFFFFFFFFFFFFFFFFF AND DUP2 PUSH20 0xFFFFFFFFFFFFFFFFFFFFFFFFFFFFFFFFFFFFFFFF AND PUSH32 0x8BE0079C531659141344CD1FD0A4F28419497F9722A3DAAFE3B4186F6B6457E0 PUSH1 0x40 MLOAD PUSH1 0x40 MLOAD DUP1 SWAP2 SUB SWAP1 LOG3 POP POP JUMP JUMPDEST PUSH2 0x25D3 DUP1 PUSH2 0x11FA DUP4 CODECOPY ADD SWAP1 JUMP JUMPDEST PUSH1 0x80 MLOAD PUSH1 0x60 SHR PUSH2 0x1072 PUSH2 0x188 PUSH1 0x0 CODECOPY PUSH1 0x0 PUSH2 0x111 ADD MSTORE PUSH2 0x1072 PUSH1 0x0 RETURN INVALID PUSH1 0x80 PUSH1 0x40 MSTORE CALLVALUE DUP1 ISZERO PUSH2 0x10 JUMPI PUSH1 0x0 DUP1 REVERT JUMPDEST POP PUSH1 0x4 CALLDATASIZE LT PUSH2 0x4C JUMPI PUSH1 0x0 CALLDATALOAD PUSH1 0xE0 SHR DUP1 PUSH4 0x715018A6 EQ PUSH2 0x51 JUMPI DUP1 PUSH4 0x8DA5CB5B EQ PUSH2 0x5B JUMPI DUP1 PUSH4 0xD4F9B092 EQ PUSH2 0x79 JUMPI DUP1 PUSH4 0xF2FDE38B EQ PUSH2 0xA9 JUMPI JUMPDEST PUSH1 0x0 DUP1 REVERT JUMPDEST PUSH2 0x59 PUSH2 0xC5 JUMP JUMPDEST STOP JUMPDEST PUSH2 0x63 PUSH2 0xD9 JUMP JUMPDEST PUSH1 0x40 MLOAD PUSH2 0x70 SWAP2 SWAP1 PUSH2 0xB53 JUMP JUMPDEST PUSH1 0x40 MLOAD DUP1 SWAP2 SUB SWAP1 RETURN JUMPDEST PUSH2 0x93 PUSH1 0x4 DUP1 CALLDATASIZE SUB DUP2 ADD SWAP1 PUSH2 0x8E SWAP2 SWAP1 PUSH2 0x7D8 JUMP JUMPDEST PUSH2 0x102 JUMP JUMPDEST PUSH1 0x40 MLOAD PUSH2 0xA0 SWAP2 SWAP1 PUSH2 0xB53 JUMP JUMPDEST PUSH1 0x40 MLOAD DUP1 SWAP2 SUB SWAP1 RETURN JUMPDEST PUSH2 0xC3 PUSH1 0x4 DUP1 CALLDATASIZE SUB DUP2 ADD SWAP1 PUSH2 0xBE SWAP2 SWAP1 PUSH2 0x7AB JUMP JUMPDEST PUSH2 0x1B6 JUMP JUMPDEST STOP JUMPDEST PUSH2 0xCD PUSH2 0x23A JUMP JUMPDEST PUSH2 0xD7 PUSH1 0x0 PUSH2 0x2B8 JUMP JUMPDEST JUMP JUMPDEST PUSH1 0x0 DUP1 PUSH1 0x0 SWAP1 SLOAD SWAP1 PUSH2 0x100 EXP SWAP1 DIV PUSH20 0xFFFFFFFFFFFFFFFFFFFFFFFFFFFFFFFFFFFFFFFF AND SWAP1 POP SWAP1 JUMP JUMPDEST PUSH1 0x0 PUSH2 0x10C PUSH2 0x23A JUMP JUMPDEST PUSH2 0x135 PUSH32 0x0 PUSH2 0x37C JUMP JUMPDEST SWAP1 POP DUP1 PUSH20 0xFFFFFFFFFFFFFFFFFFFFFFFFFFFFFFFFFFFFFFFF AND PUSH4 0xA982DF1D DUP9 DUP9 DUP9 DUP9 DUP9 DUP9 PUSH1 0x40 MLOAD DUP8 PUSH4 0xFFFFFFFF AND PUSH1 0xE0 SHL DUP2 MSTORE PUSH1 0x4 ADD PUSH2 0x17A SWAP7 SWAP6 SWAP5 SWAP4 SWAP3 SWAP2 SWAP1 PUSH2 0xB6E JUMP JUMPDEST PUSH1 0x0 PUSH1 0x40 MLOAD DUP1 DUP4 SUB DUP2 PUSH1 0x0 DUP8 DUP1 EXTCODESIZE ISZERO DUP1 ISZERO PUSH2 0x194 JUMPI PUSH1 0x0 DUP1 REVERT JUMPDEST POP GAS CALL ISZERO DUP1 ISZERO PUSH2 0x1A8 JUMPI RETURNDATASIZE PUSH1 0x0 DUP1 RETURNDATACOPY RETURNDATASIZE PUSH1 0x0 REVERT JUMPDEST POP POP POP POP SWAP7 SWAP6 POP POP POP POP POP POP JUMP JUMPDEST PUSH2 0x1BE PUSH2 0x23A JUMP JUMPDEST PUSH1 0x0 PUSH20 0xFFFFFFFFFFFFFFFFFFFFFFFFFFFFFFFFFFFFFFFF AND DUP2 PUSH20 0xFFFFFFFFFFFFFFFFFFFFFFFFFFFFFFFFFFFFFFFF AND EQ ISZERO PUSH2 0x22E JUMPI PUSH1 0x40 MLOAD PUSH32 0x8C379A000000000000000000000000000000000000000000000000000000000 DUP2 MSTORE PUSH1 0x4 ADD PUSH2 0x225 SWAP1 PUSH2 0xBDD JUMP JUMPDEST PUSH1 0x40 MLOAD DUP1 SWAP2 SUB SWAP1 REVERT JUMPDEST PUSH2 0x237 DUP2 PUSH2 0x2B8 JUMP JUMPDEST POP JUMP JUMPDEST PUSH2 0x242 PUSH2 0x451 JUMP JUMPDEST PUSH20 0xFFFFFFFFFFFFFFFFFFFFFFFFFFFFFFFFFFFFFFFF AND PUSH2 0x260 PUSH2 0xD9 JUMP JUMPDEST PUSH20 0xFFFFFFFFFFFFFFFFFFFFFFFFFFFFFFFFFFFFFFFF AND EQ PUSH2 0x2B6 JUMPI PUSH1 0x40 MLOAD PUSH32 0x8C379A000000000000000000000000000000000000000000000000000000000 DUP2 MSTORE PUSH1 0x4 ADD PUSH2 0x2AD SWAP1 PUSH2 0xC1D JUMP JUMPDEST PUSH1 0x40 MLOAD DUP1 SWAP2 SUB SWAP1 REVERT JUMPDEST JUMP JUMPDEST PUSH1 0x0 DUP1 PUSH1 0x0 SWAP1 SLOAD SWAP1 PUSH2 0x100 EXP SWAP1 DIV PUSH20 0xFFFFFFFFFFFFFFFFFFFFFFFFFFFFFFFFFFFFFFFF AND SWAP1 POP DUP2 PUSH1 0x0 DUP1 PUSH2 0x100 EXP DUP2 SLOAD DUP2 PUSH20 0xFFFFFFFFFFFFFFFFFFFFFFFFFFFFFFFFFFFFFFFF MUL NOT AND SWAP1 DUP4 PUSH20 0xFFFFFFFFFFFFFFFFFFFFFFFFFFFFFFFFFFFFFFFF AND MUL OR SWAP1 SSTORE POP DUP2 PUSH20 0xFFFFFFFFFFFFFFFFFFFFFFFFFFFFFFFFFFFFFFFF AND DUP2 PUSH20 0xFFFFFFFFFFFFFFFFFFFFFFFFFFFFFFFFFFFFFFFF AND PUSH32 0x8BE0079C531659141344CD1FD0A4F28419497F9722A3DAAFE3B4186F6B6457E0 PUSH1 0x40 MLOAD PUSH1 0x40 MLOAD DUP1 SWAP2 SUB SWAP1 LOG3 POP POP JUMP JUMPDEST PUSH1 0x0 PUSH1 0x40 MLOAD PUSH32 0x3D602D80600A3D3981F3363D3D373D3D3D363D73000000000000000000000000 DUP2 MSTORE DUP3 PUSH1 0x60 SHL PUSH1 0x14 DUP3 ADD MSTORE PUSH32 0x5AF43D82803E903D91602B57FD5BF30000000000000000000000000000000000 PUSH1 0x28 DUP3 ADD MSTORE PUSH1 0x37 DUP2 PUSH1 0x0 CREATE SWAP2 POP POP PUSH1 0x0 PUSH20 0xFFFFFFFFFFFFFFFFFFFFFFFFFFFFFFFFFFFFFFFF AND DUP2 PUSH20 0xFFFFFFFFFFFFFFFFFFFFFFFFFFFFFFFFFFFFFFFF AND EQ ISZERO PUSH2 0x44C JUMPI PUSH1 0x40 MLOAD PUSH32 0x8C379A000000000000000000000000000000000000000000000000000000000 DUP2 MSTORE PUSH1 0x4 ADD PUSH2 0x443 SWAP1 PUSH2 0xBFD JUMP JUMPDEST PUSH1 0x40 MLOAD DUP1 SWAP2 SUB SWAP1 REVERT JUMPDEST SWAP2 SWAP1 POP JUMP JUMPDEST PUSH1 0x0 CALLER SWAP1 POP SWAP1 JUMP JUMPDEST PUSH1 0x0 PUSH2 0x46C PUSH2 0x467 DUP5 PUSH2 0xC62 JUMP JUMPDEST PUSH2 0xC3D JUMP JUMPDEST SWAP1 POP DUP1 DUP4 DUP3 MSTORE PUSH1 0x20 DUP3 ADD SWAP1 POP DUP3 DUP6 PUSH1 0x20 DUP7 MUL DUP3 ADD GT ISZERO PUSH2 0x48F JUMPI PUSH2 0x48E PUSH2 0xEDF JUMP JUMPDEST JUMPDEST PUSH1 0x0 JUMPDEST DUP6 DUP2 LT ISZERO PUSH2 0x4BF JUMPI DUP2 PUSH2 0x4A5 DUP9 DUP3 PUSH2 0x5EC JUMP JUMPDEST DUP5 MSTORE PUSH1 0x20 DUP5 ADD SWAP4 POP PUSH1 0x20 DUP4 ADD SWAP3 POP POP PUSH1 0x1 DUP2 ADD SWAP1 POP PUSH2 0x492 JUMP JUMPDEST POP POP POP SWAP4 SWAP3 POP POP POP JUMP JUMPDEST PUSH1 0x0 PUSH2 0x4DC PUSH2 0x4D7 DUP5 PUSH2 0xC8E JUMP JUMPDEST PUSH2 0xC3D JUMP JUMPDEST SWAP1 POP DUP1 DUP4 DUP3 MSTORE PUSH1 0x20 DUP3 ADD SWAP1 POP DUP3 DUP6 PUSH1 0x20 DUP7 MUL DUP3 ADD GT ISZERO PUSH2 0x4FF JUMPI PUSH2 0x4FE PUSH2 0xEDF JUMP JUMPDEST JUMPDEST PUSH1 0x0 JUMPDEST DUP6 DUP2 LT ISZERO PUSH2 0x52F JUMPI DUP2 PUSH2 0x515 DUP9 DUP3 PUSH2 0x76C JUMP JUMPDEST DUP5 MSTORE PUSH1 0x20 DUP5 ADD SWAP4 POP PUSH1 0x20 DUP4 ADD SWAP3 POP POP PUSH1 0x1 DUP2 ADD SWAP1 POP PUSH2 0x502 JUMP JUMPDEST POP POP POP SWAP4 SWAP3 POP POP POP JUMP JUMPDEST PUSH1 0x0 PUSH2 0x54C PUSH2 0x547 DUP5 PUSH2 0xCBA JUMP JUMPDEST PUSH2 0xC3D JUMP JUMPDEST SWAP1 POP DUP3 DUP2 MSTORE PUSH1 0x20 DUP2 ADD DUP5 DUP5 DUP5 ADD GT ISZERO PUSH2 0x568 JUMPI PUSH2 0x567 PUSH2 0xEE4 JUMP JUMPDEST JUMPDEST PUSH2 0x573 DUP5 DUP3 DUP6 PUSH2 0xDFF JUMP JUMPDEST POP SWAP4 SWAP3 POP POP POP JUMP JUMPDEST PUSH1 0x0 DUP2 CALLDATALOAD SWAP1 POP PUSH2 0x58A DUP2 PUSH2 0xFB9 JUMP JUMPDEST SWAP3 SWAP2 POP POP JUMP JUMPDEST PUSH1 0x0 DUP3 PUSH1 0x1F DUP4 ADD SLT PUSH2 0x5A5 JUMPI PUSH2 0x5A4 PUSH2 0xED0 JUMP JUMPDEST JUMPDEST DUP2 CALLDATALOAD PUSH2 0x5B5 DUP5 DUP3 PUSH1 0x20 DUP7 ADD PUSH2 0x459 JUMP JUMPDEST SWAP2 POP POP SWAP3 SWAP2 POP POP JUMP JUMPDEST PUSH1 0x0 DUP3 PUSH1 0x1F DUP4 ADD SLT PUSH2 0x5D3 JUMPI PUSH2 0x5D2 PUSH2 0xED0 JUMP JUMPDEST JUMPDEST DUP2 CALLDATALOAD PUSH2 0x5E3 DUP5 DUP3 PUSH1 0x20 DUP7 ADD PUSH2 0x4C9 JUMP JUMPDEST SWAP2 POP POP SWAP3 SWAP2 POP POP JUMP JUMPDEST PUSH1 0x0 DUP2 CALLDATALOAD SWAP1 POP PUSH2 0x5FB DUP2 PUSH2 0xFD0 JUMP JUMPDEST SWAP3 SWAP2 POP POP JUMP JUMPDEST PUSH1 0x0 DUP2 CALLDATALOAD SWAP1 POP PUSH2 0x610 DUP2 PUSH2 0xFE7 JUMP JUMPDEST SWAP3 SWAP2 POP POP JUMP JUMPDEST PUSH1 0x0 DUP3 PUSH1 0x1F DUP4 ADD SLT PUSH2 0x62B JUMPI PUSH2 0x62A PUSH2 0xED0 JUMP JUMPDEST JUMPDEST DUP2 CALLDATALOAD PUSH2 0x63B DUP5 DUP3 PUSH1 0x20 DUP7 ADD PUSH2 0x539 JUMP JUMPDEST SWAP2 POP POP SWAP3 SWAP2 POP POP JUMP JUMPDEST PUSH1 0x0 PUSH1 0x40 DUP3 DUP5 SUB SLT ISZERO PUSH2 0x65A JUMPI PUSH2 0x659 PUSH2 0xED5 JUMP JUMPDEST JUMPDEST PUSH2 0x664 PUSH1 0x40 PUSH2 0xC3D JUMP JUMPDEST SWAP1 POP PUSH1 0x0 PUSH2 0x674 DUP5 DUP3 DUP6 ADD PUSH2 0x76C JUMP JUMPDEST PUSH1 0x0 DUP4 ADD MSTORE POP PUSH1 0x20 PUSH2 0x688 DUP5 DUP3 DUP6 ADD PUSH2 0x5EC JUMP JUMPDEST PUSH1 0x20 DUP4 ADD MSTORE POP SWAP3 SWAP2 POP POP JUMP JUMPDEST PUSH1 0x0 PUSH1 0xC0 DUP3 DUP5 SUB SLT ISZERO PUSH2 0x6AA JUMPI PUSH2 0x6A9 PUSH2 0xED5 JUMP JUMPDEST JUMPDEST PUSH2 0x6B4 PUSH1 0xC0 PUSH2 0xC3D JUMP JUMPDEST SWAP1 POP PUSH1 0x0 PUSH2 0x6C4 DUP5 DUP3 DUP6 ADD PUSH2 0x781 JUMP JUMPDEST PUSH1 0x0 DUP4 ADD MSTORE POP PUSH1 0x20 PUSH2 0x6D8 DUP5 DUP3 DUP6 ADD PUSH2 0x781 JUMP JUMPDEST PUSH1 0x20 DUP4 ADD MSTORE POP PUSH1 0x40 PUSH2 0x6EC DUP5 DUP3 DUP6 ADD PUSH2 0x601 JUMP JUMPDEST PUSH1 0x40 DUP4 ADD MSTORE POP PUSH1 0x60 PUSH2 0x700 DUP5 DUP3 DUP6 ADD PUSH2 0x796 JUMP JUMPDEST PUSH1 0x60 DUP4 ADD MSTORE POP PUSH1 0x80 DUP3 ADD CALLDATALOAD PUSH8 0xFFFFFFFFFFFFFFFF DUP2 GT ISZERO PUSH2 0x724 JUMPI PUSH2 0x723 PUSH2 0xEDA JUMP JUMPDEST JUMPDEST PUSH2 0x730 DUP5 DUP3 DUP6 ADD PUSH2 0x590 JUMP JUMPDEST PUSH1 0x80 DUP4 ADD MSTORE POP PUSH1 0xA0 DUP3 ADD CALLDATALOAD PUSH8 0xFFFFFFFFFFFFFFFF DUP2 GT ISZERO PUSH2 0x754 JUMPI PUSH2 0x753 PUSH2 0xEDA JUMP JUMPDEST JUMPDEST PUSH2 0x760 DUP5 DUP3 DUP6 ADD PUSH2 0x5BE JUMP JUMPDEST PUSH1 0xA0 DUP4 ADD MSTORE POP SWAP3 SWAP2 POP POP JUMP JUMPDEST PUSH1 0x0 DUP2 CALLDATALOAD SWAP1 POP PUSH2 0x77B DUP2 PUSH2 0xFF7 JUMP JUMPDEST SWAP3 SWAP2 POP POP JUMP JUMPDEST PUSH1 0x0 DUP2 CALLDATALOAD SWAP1 POP PUSH2 0x790 DUP2 PUSH2 0x100E JUMP JUMPDEST SWAP3 SWAP2 POP POP JUMP JUMPDEST PUSH1 0x0 DUP2 CALLDATALOAD SWAP1 POP PUSH2 0x7A5 DUP2 PUSH2 0x1025 JUMP JUMPDEST SWAP3 SWAP2 POP POP JUMP JUMPDEST PUSH1 0x0 PUSH1 0x20 DUP3 DUP5 SUB SLT ISZERO PUSH2 0x7C1 JUMPI PUSH2 0x7C0 PUSH2 0xEEE JUMP JUMPDEST JUMPDEST PUSH1 0x0 PUSH2 0x7CF DUP5 DUP3 DUP6 ADD PUSH2 0x57B JUMP JUMPDEST SWAP2 POP POP SWAP3 SWAP2 POP POP JUMP JUMPDEST PUSH1 0x0 DUP1 PUSH1 0x0 DUP1 PUSH1 0x0 DUP1 PUSH1 0xE0 DUP8 DUP10 SUB SLT ISZERO PUSH2 0x7F5 JUMPI PUSH2 0x7F4 PUSH2 0xEEE JUMP JUMPDEST JUMPDEST PUSH1 0x0 PUSH2 0x803 DUP10 DUP3 DUP11 ADD PUSH2 0x57B JUMP JUMPDEST SWAP7 POP POP PUSH1 0x20 PUSH2 0x814 DUP10 DUP3 DUP11 ADD PUSH2 0x57B JUMP JUMPDEST SWAP6 POP POP PUSH1 0x40 DUP8 ADD CALLDATALOAD PUSH8 0xFFFFFFFFFFFFFFFF DUP2 GT ISZERO PUSH2 0x835 JUMPI PUSH2 0x834 PUSH2 0xEE9 JUMP JUMPDEST JUMPDEST PUSH2 0x841 DUP10 DUP3 DUP11 ADD PUSH2 0x616 JUMP JUMPDEST SWAP5 POP POP PUSH1 0x60 PUSH2 0x852 DUP10 DUP3 DUP11 ADD PUSH2 0x5EC JUMP JUMPDEST SWAP4 POP POP PUSH1 0x80 PUSH2 0x863 DUP10 DUP3 DUP11 ADD PUSH2 0x644 JUMP JUMPDEST SWAP3 POP POP PUSH1 0xC0 DUP8 ADD CALLDATALOAD PUSH8 0xFFFFFFFFFFFFFFFF DUP2 GT ISZERO PUSH2 0x884 JUMPI PUSH2 0x883 PUSH2 0xEE9 JUMP JUMPDEST JUMPDEST PUSH2 0x890 DUP10 DUP3 DUP11 ADD PUSH2 0x694 JUMP JUMPDEST SWAP2 POP POP SWAP3 SWAP6 POP SWAP3 SWAP6 POP SWAP3 SWAP6 JUMP JUMPDEST PUSH1 0x0 PUSH2 0x8A9 DUP4 DUP4 PUSH2 0x998 JUMP JUMPDEST PUSH1 0x20 DUP4 ADD SWAP1 POP SWAP3 SWAP2 POP POP JUMP JUMPDEST PUSH1 0x0 PUSH2 0x8C1 DUP4 DUP4 PUSH2 0xB26 JUMP JUMPDEST PUSH1 0x20 DUP4 ADD SWAP1 POP SWAP3 SWAP2 POP POP JUMP JUMPDEST PUSH2 0x8D6 DUP2 PUSH2 0xD79 JUMP JUMPDEST DUP3 MSTORE POP POP JUMP JUMPDEST PUSH1 0x0 PUSH2 0x8E7 DUP3 PUSH2 0xD0B JUMP JUMPDEST PUSH2 0x8F1 DUP2 DUP6 PUSH2 0xD46 JUMP JUMPDEST SWAP4 POP PUSH2 0x8FC DUP4 PUSH2 0xCEB JUMP JUMPDEST DUP1 PUSH1 0x0 JUMPDEST DUP4 DUP2 LT ISZERO PUSH2 0x92D JUMPI DUP2 MLOAD PUSH2 0x914 DUP9 DUP3 PUSH2 0x89D JUMP JUMPDEST SWAP8 POP PUSH2 0x91F DUP4 PUSH2 0xD2C JUMP JUMPDEST SWAP3 POP POP PUSH1 0x1 DUP2 ADD SWAP1 POP PUSH2 0x900 JUMP JUMPDEST POP DUP6 SWAP4 POP POP POP POP SWAP3 SWAP2 POP POP JUMP JUMPDEST PUSH1 0x0 PUSH2 0x945 DUP3 PUSH2 0xD16 JUMP JUMPDEST PUSH2 0x94F DUP2 DUP6 PUSH2 0xD57 JUMP JUMPDEST SWAP4 POP PUSH2 0x95A DUP4 PUSH2 0xCFB JUMP JUMPDEST DUP1 PUSH1 0x0 JUMPDEST DUP4 DUP2 LT ISZERO PUSH2 0x98B JUMPI DUP2 MLOAD PUSH2 0x972 DUP9 DUP3 PUSH2 0x8B5 JUMP JUMPDEST SWAP8 POP PUSH2 0x97D DUP4 PUSH2 0xD39 JUMP JUMPDEST SWAP3 POP POP PUSH1 0x1 DUP2 ADD SWAP1 POP PUSH2 0x95E JUMP JUMPDEST POP DUP6 SWAP4 POP POP POP POP SWAP3 SWAP2 POP POP JUMP JUMPDEST PUSH2 0x9A1 DUP2 PUSH2 0xD8B JUMP JUMPDEST DUP3 MSTORE POP POP JUMP JUMPDEST PUSH2 0x9B0 DUP2 PUSH2 0xD8B JUMP JUMPDEST DUP3 MSTORE POP POP JUMP JUMPDEST PUSH2 0x9BF DUP2 PUSH2 0xDED JUMP JUMPDEST DUP3 MSTORE POP POP JUMP JUMPDEST PUSH1 0x0 PUSH2 0x9D0 DUP3 PUSH2 0xD21 JUMP JUMPDEST PUSH2 0x9DA DUP2 DUP6 PUSH2 0xD68 JUMP JUMPDEST SWAP4 POP PUSH2 0x9EA DUP2 DUP6 PUSH1 0x20 DUP7 ADD PUSH2 0xE0E JUMP JUMPDEST PUSH2 0x9F3 DUP2 PUSH2 0xEF3 JUMP JUMPDEST DUP5 ADD SWAP2 POP POP SWAP3 SWAP2 POP POP JUMP JUMPDEST PUSH1 0x0 PUSH2 0xA0B PUSH1 0x26 DUP4 PUSH2 0xD68 JUMP JUMPDEST SWAP2 POP PUSH2 0xA16 DUP3 PUSH2 0xF04 JUMP JUMPDEST PUSH1 0x40 DUP3 ADD SWAP1 POP SWAP2 SWAP1 POP JUMP JUMPDEST PUSH1 0x0 PUSH2 0xA2E PUSH1 0x16 DUP4 PUSH2 0xD68 JUMP JUMPDEST SWAP2 POP PUSH2 0xA39 DUP3 PUSH2 0xF53 JUMP JUMPDEST PUSH1 0x20 DUP3 ADD SWAP1 POP SWAP2 SWAP1 POP JUMP JUMPDEST PUSH1 0x0 PUSH2 0xA51 PUSH1 0x20 DUP4 PUSH2 0xD68 JUMP JUMPDEST SWAP2 POP PUSH2 0xA5C DUP3 PUSH2 0xF7C JUMP JUMPDEST PUSH1 0x20 DUP3 ADD SWAP1 POP SWAP2 SWAP1 POP JUMP JUMPDEST PUSH1 0x40 DUP3 ADD PUSH1 0x0 DUP3 ADD MLOAD PUSH2 0xA7D PUSH1 0x0 DUP6 ADD DUP3 PUSH2 0xB26 JUMP JUMPDEST POP PUSH1 0x20 DUP3 ADD MLOAD PUSH2 0xA90 PUSH1 0x20 DUP6 ADD DUP3 PUSH2 0x998 JUMP JUMPDEST POP POP POP POP JUMP JUMPDEST PUSH1 0x0 PUSH1 0xC0 DUP4 ADD PUSH1 0x0 DUP4 ADD MLOAD PUSH2 0xAAE PUSH1 0x0 DUP7 ADD DUP3 PUSH2 0xB35 JUMP JUMPDEST POP PUSH1 0x20 DUP4 ADD MLOAD PUSH2 0xAC1 PUSH1 0x20 DUP7 ADD DUP3 PUSH2 0xB35 JUMP JUMPDEST POP PUSH1 0x40 DUP4 ADD MLOAD PUSH2 0xAD4 PUSH1 0x40 DUP7 ADD DUP3 PUSH2 0x9B6 JUMP JUMPDEST POP PUSH1 0x60 DUP4 ADD MLOAD PUSH2 0xAE7 PUSH1 0x60 DUP7 ADD DUP3 PUSH2 0xB44 JUMP JUMPDEST POP PUSH1 0x80 DUP4 ADD MLOAD DUP5 DUP3 SUB PUSH1 0x80 DUP7 ADD MSTORE PUSH2 0xAFF DUP3 DUP3 PUSH2 0x8DC JUMP JUMPDEST SWAP2 POP POP PUSH1 0xA0 DUP4 ADD MLOAD DUP5 DUP3 SUB PUSH1 0xA0 DUP7 ADD MSTORE PUSH2 0xB19 DUP3 DUP3 PUSH2 0x93A JUMP JUMPDEST SWAP2 POP POP DUP1 SWAP2 POP POP SWAP3 SWAP2 POP POP JUMP JUMPDEST PUSH2 0xB2F DUP2 PUSH2 0xDA8 JUMP JUMPDEST DUP3 MSTORE POP POP JUMP JUMPDEST PUSH2 0xB3E DUP2 PUSH2 0xDD6 JUMP JUMPDEST DUP3 MSTORE POP POP JUMP JUMPDEST PUSH2 0xB4D DUP2 PUSH2 0xDE0 JUMP JUMPDEST DUP3 MSTORE POP POP JUMP JUMPDEST PUSH1 0x0 PUSH1 0x20 DUP3 ADD SWAP1 POP PUSH2 0xB68 PUSH1 0x0 DUP4 ADD DUP5 PUSH2 0x8CD JUMP JUMPDEST SWAP3 SWAP2 POP POP JUMP JUMPDEST PUSH1 0x0 PUSH1 0xE0 DUP3 ADD SWAP1 POP PUSH2 0xB83 PUSH1 0x0 DUP4 ADD DUP10 PUSH2 0x8CD JUMP JUMPDEST PUSH2 0xB90 PUSH1 0x20 DUP4 ADD DUP9 PUSH2 0x8CD JUMP JUMPDEST DUP2 DUP2 SUB PUSH1 0x40 DUP4 ADD MSTORE PUSH2 0xBA2 DUP2 DUP8 PUSH2 0x9C5 JUMP JUMPDEST SWAP1 POP PUSH2 0xBB1 PUSH1 0x60 DUP4 ADD DUP7 PUSH2 0x9A7 JUMP JUMPDEST PUSH2 0xBBE PUSH1 0x80 DUP4 ADD DUP6 PUSH2 0xA67 JUMP JUMPDEST DUP2 DUP2 SUB PUSH1 0xC0 DUP4 ADD MSTORE PUSH2 0xBD0 DUP2 DUP5 PUSH2 0xA96 JUMP JUMPDEST SWAP1 POP SWAP8 SWAP7 POP POP POP POP POP POP POP JUMP JUMPDEST PUSH1 0x0 PUSH1 0x20 DUP3 ADD SWAP1 POP DUP2 DUP2 SUB PUSH1 0x0 DUP4 ADD MSTORE PUSH2 0xBF6 DUP2 PUSH2 0x9FE JUMP JUMPDEST SWAP1 POP SWAP2 SWAP1 POP JUMP JUMPDEST PUSH1 0x0 PUSH1 0x20 DUP3 ADD SWAP1 POP DUP2 DUP2 SUB PUSH1 0x0 DUP4 ADD MSTORE PUSH2 0xC16 DUP2 PUSH2 0xA21 JUMP JUMPDEST SWAP1 POP SWAP2 SWAP1 POP JUMP JUMPDEST PUSH1 0x0 PUSH1 0x20 DUP3 ADD SWAP1 POP DUP2 DUP2 SUB PUSH1 0x0 DUP4 ADD MSTORE PUSH2 0xC36 DUP2 PUSH2 0xA44 JUMP JUMPDEST SWAP1 POP SWAP2 SWAP1 POP JUMP JUMPDEST PUSH1 0x0 PUSH2 0xC47 PUSH2 0xC58 JUMP JUMPDEST SWAP1 POP PUSH2 0xC53 DUP3 DUP3 PUSH2 0xE41 JUMP JUMPDEST SWAP2 SWAP1 POP JUMP JUMPDEST PUSH1 0x0 PUSH1 0x40 MLOAD SWAP1 POP SWAP1 JUMP JUMPDEST PUSH1 0x0 PUSH8 0xFFFFFFFFFFFFFFFF DUP3 GT ISZERO PUSH2 0xC7D JUMPI PUSH2 0xC7C PUSH2 0xEA1 JUMP JUMPDEST JUMPDEST PUSH1 0x20 DUP3 MUL SWAP1 POP PUSH1 0x20 DUP2 ADD SWAP1 POP SWAP2 SWAP1 POP JUMP JUMPDEST PUSH1 0x0 PUSH8 0xFFFFFFFFFFFFFFFF DUP3 GT ISZERO PUSH2 0xCA9 JUMPI PUSH2 0xCA8 PUSH2 0xEA1 JUMP JUMPDEST JUMPDEST PUSH1 0x20 DUP3 MUL SWAP1 POP PUSH1 0x20 DUP2 ADD SWAP1 POP SWAP2 SWAP1 POP JUMP JUMPDEST PUSH1 0x0 PUSH8 0xFFFFFFFFFFFFFFFF DUP3 GT ISZERO PUSH2 0xCD5 JUMPI PUSH2 0xCD4 PUSH2 0xEA1 JUMP JUMPDEST JUMPDEST PUSH2 0xCDE DUP3 PUSH2 0xEF3 JUMP JUMPDEST SWAP1 POP PUSH1 0x20 DUP2 ADD SWAP1 POP SWAP2 SWAP1 POP JUMP JUMPDEST PUSH1 0x0 DUP2 SWAP1 POP PUSH1 0x20 DUP3 ADD SWAP1 POP SWAP2 SWAP1 POP JUMP JUMPDEST PUSH1 0x0 DUP2 SWAP1 POP PUSH1 0x20 DUP3 ADD SWAP1 POP SWAP2 SWAP1 POP JUMP JUMPDEST PUSH1 0x0 DUP2 MLOAD SWAP1 POP SWAP2 SWAP1 POP JUMP JUMPDEST PUSH1 0x0 DUP2 MLOAD SWAP1 POP SWAP2 SWAP1 POP JUMP JUMPDEST PUSH1 0x0 DUP2 MLOAD SWAP1 POP SWAP2 SWAP1 POP JUMP JUMPDEST PUSH1 0x0 PUSH1 0x20 DUP3 ADD SWAP1 POP SWAP2 SWAP1 POP JUMP JUMPDEST PUSH1 0x0 PUSH1 0x20 DUP3 ADD SWAP1 POP SWAP2 SWAP1 POP JUMP JUMPDEST PUSH1 0x0 DUP3 DUP3 MSTORE PUSH1 0x20 DUP3 ADD SWAP1 POP SWAP3 SWAP2 POP POP JUMP JUMPDEST PUSH1 0x0 DUP3 DUP3 MSTORE PUSH1 0x20 DUP3 ADD SWAP1 POP SWAP3 SWAP2 POP POP JUMP JUMPDEST PUSH1 0x0 DUP3 DUP3 MSTORE PUSH1 0x20 DUP3 ADD SWAP1 POP SWAP3 SWAP2 POP POP JUMP JUMPDEST PUSH1 0x0 PUSH2 0xD84 DUP3 PUSH2 0xDB6 JUMP JUMPDEST SWAP1 POP SWAP2 SWAP1 POP JUMP JUMPDEST PUSH1 0x0 DUP2 SWAP1 POP SWAP2 SWAP1 POP JUMP JUMPDEST PUSH1 0x0 DUP2 SWAP1 POP PUSH2 0xDA3 DUP3 PUSH2 0xFA5 JUMP JUMPDEST SWAP2 SWAP1 POP JUMP JUMPDEST PUSH1 0x0 PUSH2 0xFFFF DUP3 AND SWAP1 POP SWAP2 SWAP1 POP JUMP JUMPDEST PUSH1 0x0 PUSH20 0xFFFFFFFFFFFFFFFFFFFFFFFFFFFFFFFFFFFFFFFF DUP3 AND SWAP1 POP SWAP2 SWAP1 POP JUMP JUMPDEST PUSH1 0x0 DUP2 SWAP1 POP SWAP2 SWAP1 POP JUMP JUMPDEST PUSH1 0x0 PUSH1 0xFF DUP3 AND SWAP1 POP SWAP2 SWAP1 POP JUMP JUMPDEST PUSH1 0x0 PUSH2 0xDF8 DUP3 PUSH2 0xD95 JUMP JUMPDEST SWAP1 POP SWAP2 SWAP1 POP JUMP JUMPDEST DUP3 DUP2 DUP4 CALLDATACOPY PUSH1 0x0 DUP4 DUP4 ADD MSTORE POP POP POP JUMP JUMPDEST PUSH1 0x0 JUMPDEST DUP4 DUP2 LT ISZERO PUSH2 0xE2C JUMPI DUP1 DUP3 ADD MLOAD DUP2 DUP5 ADD MSTORE PUSH1 0x20 DUP2 ADD SWAP1 POP PUSH2 0xE11 JUMP JUMPDEST DUP4 DUP2 GT ISZERO PUSH2 0xE3B JUMPI PUSH1 0x0 DUP5 DUP5 ADD MSTORE JUMPDEST POP POP POP POP JUMP JUMPDEST PUSH2 0xE4A DUP3 PUSH2 0xEF3 JUMP JUMPDEST DUP2 ADD DUP2 DUP2 LT PUSH8 0xFFFFFFFFFFFFFFFF DUP3 GT OR ISZERO PUSH2 0xE69 JUMPI PUSH2 0xE68 PUSH2 0xEA1 JUMP JUMPDEST JUMPDEST DUP1 PUSH1 0x40 MSTORE POP POP POP JUMP JUMPDEST PUSH32 0x4E487B7100000000000000000000000000000000000000000000000000000000 PUSH1 0x0 MSTORE PUSH1 0x21 PUSH1 0x4 MSTORE PUSH1 0x24 PUSH1 0x0 REVERT JUMPDEST PUSH32 0x4E487B7100000000000000000000000000000000000000000000000000000000 PUSH1 0x0 MSTORE PUSH1 0x41 PUSH1 0x4 MSTORE PUSH1 0x24 PUSH1 0x0 REVERT JUMPDEST PUSH1 0x0 DUP1 REVERT JUMPDEST PUSH1 0x0 DUP1 REVERT JUMPDEST PUSH1 0x0 DUP1 REVERT JUMPDEST PUSH1 0x0 DUP1 REVERT JUMPDEST PUSH1 0x0 DUP1 REVERT JUMPDEST PUSH1 0x0 DUP1 REVERT JUMPDEST PUSH1 0x0 DUP1 REVERT JUMPDEST PUSH1 0x0 PUSH1 0x1F NOT PUSH1 0x1F DUP4 ADD AND SWAP1 POP SWAP2 SWAP1 POP JUMP JUMPDEST PUSH32 0x4F776E61626C653A206E6577206F776E657220697320746865207A65726F2061 PUSH1 0x0 DUP3 ADD MSTORE PUSH32 0x6464726573730000000000000000000000000000000000000000000000000000 PUSH1 0x20 DUP3 ADD MSTORE POP JUMP JUMPDEST PUSH32 0x455243313136373A20637265617465206661696C656400000000000000000000 PUSH1 0x0 DUP3 ADD MSTORE POP JUMP JUMPDEST PUSH32 0x4F776E61626C653A2063616C6C6572206973206E6F7420746865206F776E6572 PUSH1 0x0 DUP3 ADD MSTORE POP JUMP JUMPDEST PUSH1 0x3 DUP2 LT PUSH2 0xFB6 JUMPI PUSH2 0xFB5 PUSH2 0xE72 JUMP JUMPDEST JUMPDEST POP JUMP JUMPDEST PUSH2 0xFC2 DUP2 PUSH2 0xD79 JUMP JUMPDEST DUP2 EQ PUSH2 0xFCD JUMPI PUSH1 0x0 DUP1 REVERT JUMPDEST POP JUMP JUMPDEST PUSH2 0xFD9 DUP2 PUSH2 0xD8B JUMP JUMPDEST DUP2 EQ PUSH2 0xFE4 JUMPI PUSH1 0x0 DUP1 REVERT JUMPDEST POP JUMP JUMPDEST PUSH1 0x3 DUP2 LT PUSH2 0xFF4 JUMPI PUSH1 0x0 DUP1 REVERT JUMPDEST POP JUMP JUMPDEST PUSH2 0x1000 DUP2 PUSH2 0xDA8 JUMP JUMPDEST DUP2 EQ PUSH2 0x100B JUMPI PUSH1 0x0 DUP1 REVERT JUMPDEST POP JUMP JUMPDEST PUSH2 0x1017 DUP2 PUSH2 0xDD6 JUMP JUMPDEST DUP2 EQ PUSH2 0x1022 JUMPI PUSH1 0x0 DUP1 REVERT JUMPDEST POP JUMP JUMPDEST PUSH2 0x102E DUP2 PUSH2 0xDE0 JUMP JUMPDEST DUP2 EQ PUSH2 0x1039 JUMPI PUSH1 0x0 DUP1 REVERT JUMPDEST POP JUMP INVALID LOG2 PUSH5 0x6970667358 0x22 SLT KECCAK256 SWAP13 0xC0 0x24 0xBA BLOCKHASH 0xE5 CALLDATALOAD PUSH5 0x1F748844D5 SWAP14 0xC9 0xAB PUSH8 0xEA5F56B06A9A5485 DUP16 0xAA PUSH8 0xC4CFDBD864736F6C PUSH4 0x43000806 STOP CALLER PUSH1 0x80 PUSH1 0x40 MSTORE CALLVALUE DUP1 ISZERO PUSH2 0x10 JUMPI PUSH1 0x0 DUP1 REVERT JUMPDEST POP PUSH2 0x25B3 DUP1 PUSH2 0x20 PUSH1 0x0 CODECOPY PUSH1 0x0 RETURN INVALID PUSH1 0x80 PUSH1 0x40 MSTORE CALLVALUE DUP1 ISZERO PUSH2 0x10 JUMPI PUSH1 0x0 DUP1 REVERT JUMPDEST POP PUSH1 0x4 CALLDATASIZE LT PUSH2 0x10B JUMPI PUSH1 0x0 CALLDATALOAD PUSH1 0xE0 SHR DUP1 PUSH4 0x92857087 GT PUSH2 0xA2 JUMPI DUP1 PUSH4 0xC25FE268 GT PUSH2 0x71 JUMPI DUP1 PUSH4 0xC25FE268 EQ PUSH2 0x2A2 JUMPI DUP1 PUSH4 0xD547741F EQ PUSH2 0x2C4 JUMPI DUP1 PUSH4 0xE8E5DE59 EQ PUSH2 0x2E0 JUMPI DUP1 PUSH4 0xF595C485 EQ PUSH2 0x2FC JUMPI DUP1 PUSH4 0xFEC331F2 EQ PUSH2 0x31B JUMPI PUSH2 0x10B JUMP JUMPDEST DUP1 PUSH4 0x92857087 EQ PUSH2 0x22E JUMPI DUP1 PUSH4 0xA217FDDF EQ PUSH2 0x24A JUMPI DUP1 PUSH4 0xA982DF1D EQ PUSH2 0x268 JUMPI DUP1 PUSH4 0xAC5CB97D EQ PUSH2 0x284 JUMPI PUSH2 0x10B JUMP JUMPDEST DUP1 PUSH4 0x30DB3D18 GT PUSH2 0xDE JUMPI DUP1 PUSH4 0x30DB3D18 EQ PUSH2 0x1A8 JUMPI DUP1 PUSH4 0x36568ABE EQ PUSH2 0x1C4 JUMPI DUP1 PUSH4 0x7B0F9A36 EQ PUSH2 0x1E0 JUMPI DUP1 PUSH4 0x91D14854 EQ PUSH2 0x1FE JUMPI PUSH2 0x10B JUMP JUMPDEST DUP1 PUSH4 0x1FFC9A7 EQ PUSH2 0x110 JUMPI DUP1 PUSH4 0x21787D7C EQ PUSH2 0x140 JUMPI DUP1 PUSH4 0x248A9CA3 EQ PUSH2 0x15C JUMPI DUP1 PUSH4 0x2F2FF15D EQ PUSH2 0x18C JUMPI JUMPDEST PUSH1 0x0 DUP1 REVERT JUMPDEST PUSH2 0x12A PUSH1 0x4 DUP1 CALLDATASIZE SUB DUP2 ADD SWAP1 PUSH2 0x125 SWAP2 SWAP1 PUSH2 0x1973 JUMP JUMPDEST PUSH2 0x339 JUMP JUMPDEST PUSH1 0x40 MLOAD PUSH2 0x137 SWAP2 SWAP1 PUSH2 0x1DF0 JUMP JUMPDEST PUSH1 0x40 MLOAD DUP1 SWAP2 SUB SWAP1 RETURN JUMPDEST PUSH2 0x15A PUSH1 0x4 DUP1 CALLDATASIZE SUB DUP2 ADD SWAP1 PUSH2 0x155 SWAP2 SWAP1 PUSH2 0x1A16 JUMP JUMPDEST PUSH2 0x3B3 JUMP JUMPDEST STOP JUMPDEST PUSH2 0x176 PUSH1 0x4 DUP1 CALLDATASIZE SUB DUP2 ADD SWAP1 PUSH2 0x171 SWAP2 SWAP1 PUSH2 0x1906 JUMP JUMPDEST PUSH2 0x486 JUMP JUMPDEST PUSH1 0x40 MLOAD PUSH2 0x183 SWAP2 SWAP1 PUSH2 0x1E0B JUMP JUMPDEST PUSH1 0x40 MLOAD DUP1 SWAP2 SUB SWAP1 RETURN JUMPDEST PUSH2 0x1A6 PUSH1 0x4 DUP1 CALLDATASIZE SUB DUP2 ADD SWAP1 PUSH2 0x1A1 SWAP2 SWAP1 PUSH2 0x1933 JUMP JUMPDEST PUSH2 0x4A5 JUMP JUMPDEST STOP JUMPDEST PUSH2 0x1C2 PUSH1 0x4 DUP1 CALLDATASIZE SUB DUP2 ADD SWAP1 PUSH2 0x1BD SWAP2 SWAP1 PUSH2 0x19E9 JUMP JUMPDEST PUSH2 0x4C6 JUMP JUMPDEST STOP JUMPDEST PUSH2 0x1DE PUSH1 0x4 DUP1 CALLDATASIZE SUB DUP2 ADD SWAP1 PUSH2 0x1D9 SWAP2 SWAP1 PUSH2 0x1933 JUMP JUMPDEST PUSH2 0x527 JUMP JUMPDEST STOP JUMPDEST PUSH2 0x1E8 PUSH2 0x5AA JUMP JUMPDEST PUSH1 0x40 MLOAD PUSH2 0x1F5 SWAP2 SWAP1 PUSH2 0x1DD5 JUMP JUMPDEST PUSH1 0x40 MLOAD DUP1 SWAP2 SUB SWAP1 RETURN JUMPDEST PUSH2 0x218 PUSH1 0x4 DUP1 CALLDATASIZE SUB DUP2 ADD SWAP1 PUSH2 0x213 SWAP2 SWAP1 PUSH2 0x1933 JUMP JUMPDEST PUSH2 0x5DC JUMP JUMPDEST PUSH1 0x40 MLOAD PUSH2 0x225 SWAP2 SWAP1 PUSH2 0x1DF0 JUMP JUMPDEST PUSH1 0x40 MLOAD DUP1 SWAP2 SUB SWAP1 RETURN JUMPDEST PUSH2 0x248 PUSH1 0x4 DUP1 CALLDATASIZE SUB DUP2 ADD SWAP1 PUSH2 0x243 SWAP2 SWAP1 PUSH2 0x19A0 JUMP JUMPDEST PUSH2 0x646 JUMP JUMPDEST STOP JUMPDEST PUSH2 0x252 PUSH2 0x68B JUMP JUMPDEST PUSH1 0x40 MLOAD PUSH2 0x25F SWAP2 SWAP1 PUSH2 0x1E0B JUMP JUMPDEST PUSH1 0x40 MLOAD DUP1 SWAP2 SUB SWAP1 RETURN JUMPDEST PUSH2 0x282 PUSH1 0x4 DUP1 CALLDATASIZE SUB DUP2 ADD SWAP1 PUSH2 0x27D SWAP2 SWAP1 PUSH2 0x1841 JUMP JUMPDEST PUSH2 0x692 JUMP JUMPDEST STOP JUMPDEST PUSH2 0x28C PUSH2 0x90D JUMP JUMPDEST PUSH1 0x40 MLOAD PUSH2 0x299 SWAP2 SWAP1 PUSH2 0x1E0B JUMP JUMPDEST PUSH1 0x40 MLOAD DUP1 SWAP2 SUB SWAP1 RETURN JUMPDEST PUSH2 0x2AA PUSH2 0x931 JUMP JUMPDEST PUSH1 0x40 MLOAD PUSH2 0x2BB SWAP6 SWAP5 SWAP4 SWAP3 SWAP2 SWAP1 PUSH2 0x1E78 JUMP JUMPDEST PUSH1 0x40 MLOAD DUP1 SWAP2 SUB SWAP1 RETURN JUMPDEST PUSH2 0x2DE PUSH1 0x4 DUP1 CALLDATASIZE SUB DUP2 ADD SWAP1 PUSH2 0x2D9 SWAP2 SWAP1 PUSH2 0x1933 JUMP JUMPDEST PUSH2 0xB90 JUMP JUMPDEST STOP JUMPDEST PUSH2 0x2FA PUSH1 0x4 DUP1 CALLDATASIZE SUB DUP2 ADD SWAP1 PUSH2 0x2F5 SWAP2 SWAP1 PUSH2 0x1906 JUMP JUMPDEST PUSH2 0xBB1 JUMP JUMPDEST STOP JUMPDEST PUSH2 0x304 PUSH2 0xBE6 JUMP JUMPDEST PUSH1 0x40 MLOAD PUSH2 0x312 SWAP3 SWAP2 SWAP1 PUSH2 0x1E48 JUMP JUMPDEST PUSH1 0x40 MLOAD DUP1 SWAP2 SUB SWAP1 RETURN JUMPDEST PUSH2 0x323 PUSH2 0xC88 JUMP JUMPDEST PUSH1 0x40 MLOAD PUSH2 0x330 SWAP2 SWAP1 PUSH2 0x1E0B JUMP JUMPDEST PUSH1 0x40 MLOAD DUP1 SWAP2 SUB SWAP1 RETURN JUMPDEST PUSH1 0x0 PUSH32 0x7965DB0B00000000000000000000000000000000000000000000000000000000 PUSH28 0xFFFFFFFFFFFFFFFFFFFFFFFFFFFFFFFFFFFFFFFFFFFFFFFFFFFFFFFF NOT AND DUP3 PUSH28 0xFFFFFFFFFFFFFFFFFFFFFFFFFFFFFFFFFFFFFFFFFFFFFFFFFFFFFFFF NOT AND EQ DUP1 PUSH2 0x3AC JUMPI POP PUSH2 0x3AB DUP3 PUSH2 0xCAC JUMP JUMPDEST JUMPDEST SWAP1 POP SWAP2 SWAP1 POP JUMP JUMPDEST PUSH32 0xAF1DAC7DEA2FD7F7738119CEC7DF099DFAD49AA9D2E7D17BA6B60F63AE7411F PUSH2 0x3DD DUP2 PUSH2 0xD16 JUMP JUMPDEST DUP2 PUSH1 0x5 PUSH1 0x0 DUP3 ADD MLOAD DUP2 PUSH1 0x0 ADD SSTORE PUSH1 0x20 DUP3 ADD MLOAD DUP2 PUSH1 0x1 ADD SSTORE PUSH1 0x40 DUP3 ADD MLOAD DUP2 PUSH1 0x2 ADD PUSH1 0x0 PUSH2 0x100 EXP DUP2 SLOAD DUP2 PUSH1 0xFF MUL NOT AND SWAP1 DUP4 PUSH1 0x2 DUP2 GT ISZERO PUSH2 0x41F JUMPI PUSH2 0x41E PUSH2 0x22EC JUMP JUMPDEST JUMPDEST MUL OR SWAP1 SSTORE POP PUSH1 0x60 DUP3 ADD MLOAD DUP2 PUSH1 0x2 ADD PUSH1 0x1 PUSH2 0x100 EXP DUP2 SLOAD DUP2 PUSH1 0xFF MUL NOT AND SWAP1 DUP4 PUSH1 0xFF AND MUL OR SWAP1 SSTORE POP PUSH1 0x80 DUP3 ADD MLOAD DUP2 PUSH1 0x3 ADD SWAP1 DUP1 MLOAD SWAP1 PUSH1 0x20 ADD SWAP1 PUSH2 0x461 SWAP3 SWAP2 SWAP1 PUSH2 0x12B7 JUMP JUMPDEST POP PUSH1 0xA0 DUP3 ADD MLOAD DUP2 PUSH1 0x4 ADD SWAP1 DUP1 MLOAD SWAP1 PUSH1 0x20 ADD SWAP1 PUSH2 0x47E SWAP3 SWAP2 SWAP1 PUSH2 0x1304 JUMP JUMPDEST POP SWAP1 POP POP POP POP JUMP JUMPDEST PUSH1 0x0 DUP1 PUSH1 0x0 DUP4 DUP2 MSTORE PUSH1 0x20 ADD SWAP1 DUP2 MSTORE PUSH1 0x20 ADD PUSH1 0x0 KECCAK256 PUSH1 0x1 ADD SLOAD SWAP1 POP SWAP2 SWAP1 POP JUMP JUMPDEST PUSH2 0x4AE DUP3 PUSH2 0x486 JUMP JUMPDEST PUSH2 0x4B7 DUP2 PUSH2 0xD16 JUMP JUMPDEST PUSH2 0x4C1 DUP4 DUP4 PUSH2 0xD2A JUMP JUMPDEST POP POP POP JUMP JUMPDEST PUSH32 0xAF1DAC7DEA2FD7F7738119CEC7DF099DFAD49AA9D2E7D17BA6B60F63AE7411F PUSH2 0x4F0 DUP2 PUSH2 0xD16 JUMP JUMPDEST DUP2 PUSH1 0x3 PUSH1 0x0 DUP3 ADD MLOAD DUP2 PUSH1 0x0 ADD PUSH1 0x0 PUSH2 0x100 EXP DUP2 SLOAD DUP2 PUSH2 0xFFFF MUL NOT AND SWAP1 DUP4 PUSH2 0xFFFF AND MUL OR SWAP1 SSTORE POP PUSH1 0x20 DUP3 ADD MLOAD DUP2 PUSH1 0x1 ADD SSTORE SWAP1 POP POP POP POP JUMP JUMPDEST PUSH2 0x52F PUSH2 0xE0A JUMP JUMPDEST PUSH20 0xFFFFFFFFFFFFFFFFFFFFFFFFFFFFFFFFFFFFFFFF AND DUP2 PUSH20 0xFFFFFFFFFFFFFFFFFFFFFFFFFFFFFFFFFFFFFFFF AND EQ PUSH2 0x59C JUMPI PUSH1 0x40 MLOAD PUSH32 0x8C379A000000000000000000000000000000000000000000000000000000000 DUP2 MSTORE PUSH1 0x4 ADD PUSH2 0x593 SWAP1 PUSH2 0x1F19 JUMP JUMPDEST PUSH1 0x40 MLOAD DUP1 SWAP2 SUB SWAP1 REVERT JUMPDEST PUSH2 0x5A6 DUP3 DUP3 PUSH2 0xE12 JUMP JUMPDEST POP POP JUMP JUMPDEST PUSH1 0x0 PUSH2 0x5B4 PUSH2 0xEF3 JUMP JUMPDEST PUSH1 0x1 PUSH1 0x0 SWAP1 SLOAD SWAP1 PUSH2 0x100 EXP SWAP1 DIV PUSH20 0xFFFFFFFFFFFFFFFFFFFFFFFFFFFFFFFFFFFFFFFF AND SWAP1 POP SWAP1 JUMP JUMPDEST PUSH1 0x0 DUP1 PUSH1 0x0 DUP5 DUP2 MSTORE PUSH1 0x20 ADD SWAP1 DUP2 MSTORE PUSH1 0x20 ADD PUSH1 0x0 KECCAK256 PUSH1 0x0 ADD PUSH1 0x0 DUP4 PUSH20 0xFFFFFFFFFFFFFFFFFFFFFFFFFFFFFFFFFFFFFFFF AND PUSH20 0xFFFFFFFFFFFFFFFFFFFFFFFFFFFFFFFFFFFFFFFF AND DUP2 MSTORE PUSH1 0x20 ADD SWAP1 DUP2 MSTORE PUSH1 0x20 ADD PUSH1 0x0 KECCAK256 PUSH1 0x0 SWAP1 SLOAD SWAP1 PUSH2 0x100 EXP SWAP1 DIV PUSH1 0xFF AND SWAP1 POP SWAP3 SWAP2 POP POP JUMP JUMPDEST PUSH32 0xAF1DAC7DEA2FD7F7738119CEC7DF099DFAD49AA9D2E7D17BA6B60F63AE7411F PUSH2 0x670 DUP2 PUSH2 0xD16 JUMP JUMPDEST DUP2 PUSH1 0xA SWAP1 DUP1 MLOAD SWAP1 PUSH1 0x20 ADD SWAP1 PUSH2 0x686 SWAP3 SWAP2 SWAP1 PUSH2 0x13AE JUMP JUMPDEST POP POP POP JUMP JUMPDEST PUSH1 0x0 DUP1 SHL DUP2 JUMP JUMPDEST PUSH1 0x0 ISZERO ISZERO PUSH1 0xB PUSH1 0x0 SWAP1 SLOAD SWAP1 PUSH2 0x100 EXP SWAP1 DIV PUSH1 0xFF AND ISZERO ISZERO EQ PUSH2 0x6E8 JUMPI PUSH1 0x40 MLOAD PUSH32 0x8C379A000000000000000000000000000000000000000000000000000000000 DUP2 MSTORE PUSH1 0x4 ADD PUSH2 0x6DF SWAP1 PUSH2 0x1EF9 JUMP JUMPDEST PUSH1 0x40 MLOAD DUP1 SWAP2 SUB SWAP1 REVERT JUMPDEST PUSH2 0x715 PUSH32 0xAF1DAC7DEA2FD7F7738119CEC7DF099DFAD49AA9D2E7D17BA6B60F63AE7411F PUSH1 0x0 DUP1 SHL PUSH2 0xF59 JUMP JUMPDEST PUSH2 0x75F PUSH32 0x72606200FAC42B7DC86B75901D61ECFAB2A4A1A6EDED478B97A428094891ABED PUSH32 0xAF1DAC7DEA2FD7F7738119CEC7DF099DFAD49AA9D2E7D17BA6B60F63AE7411F PUSH2 0xF59 JUMP JUMPDEST PUSH2 0x789 PUSH32 0x72606200FAC42B7DC86B75901D61ECFAB2A4A1A6EDED478B97A428094891ABED DUP7 PUSH2 0xFB4 JUMP JUMPDEST PUSH2 0x7B3 PUSH32 0xAF1DAC7DEA2FD7F7738119CEC7DF099DFAD49AA9D2E7D17BA6B60F63AE7411F DUP8 PUSH2 0xFB4 JUMP JUMPDEST DUP5 PUSH1 0x1 PUSH1 0x0 PUSH2 0x100 EXP DUP2 SLOAD DUP2 PUSH20 0xFFFFFFFFFFFFFFFFFFFFFFFFFFFFFFFFFFFFFFFF MUL NOT AND SWAP1 DUP4 PUSH20 0xFFFFFFFFFFFFFFFFFFFFFFFFFFFFFFFFFFFFFFFF AND MUL OR SWAP1 SSTORE POP DUP4 PUSH1 0xA SWAP1 DUP1 MLOAD SWAP1 PUSH1 0x20 ADD SWAP1 PUSH2 0x80A SWAP3 SWAP2 SWAP1 PUSH2 0x13AE JUMP JUMPDEST POP DUP3 PUSH1 0x2 DUP2 SWAP1 SSTORE POP DUP2 PUSH1 0x3 PUSH1 0x0 DUP3 ADD MLOAD DUP2 PUSH1 0x0 ADD PUSH1 0x0 PUSH2 0x100 EXP DUP2 SLOAD DUP2 PUSH2 0xFFFF MUL NOT AND SWAP1 DUP4 PUSH2 0xFFFF AND MUL OR SWAP1 SSTORE POP PUSH1 0x20 DUP3 ADD MLOAD DUP2 PUSH1 0x1 ADD SSTORE SWAP1 POP POP DUP1 PUSH1 0x5 PUSH1 0x0 DUP3 ADD MLOAD DUP2 PUSH1 0x0 ADD SSTORE PUSH1 0x20 DUP3 ADD MLOAD DUP2 PUSH1 0x1 ADD SSTORE PUSH1 0x40 DUP3 ADD MLOAD DUP2 PUSH1 0x2 ADD PUSH1 0x0 PUSH2 0x100 EXP DUP2 SLOAD DUP2 PUSH1 0xFF MUL NOT AND SWAP1 DUP4 PUSH1 0x2 DUP2 GT ISZERO PUSH2 0x887 JUMPI PUSH2 0x886 PUSH2 0x22EC JUMP JUMPDEST JUMPDEST MUL OR SWAP1 SSTORE POP PUSH1 0x60 DUP3 ADD MLOAD DUP2 PUSH1 0x2 ADD PUSH1 0x1 PUSH2 0x100 EXP DUP2 SLOAD DUP2 PUSH1 0xFF MUL NOT AND SWAP1 DUP4 PUSH1 0xFF AND MUL OR SWAP1 SSTORE POP PUSH1 0x80 DUP3 ADD MLOAD DUP2 PUSH1 0x3 ADD SWAP1 DUP1 MLOAD SWAP1 PUSH1 0x20 ADD SWAP1 PUSH2 0x8C9 SWAP3 SWAP2 SWAP1 PUSH2 0x12B7 JUMP JUMPDEST POP PUSH1 0xA0 DUP3 ADD MLOAD DUP2 PUSH1 0x4 ADD SWAP1 DUP1 MLOAD SWAP1 PUSH1 0x20 ADD SWAP1 PUSH2 0x8E6 SWAP3 SWAP2 SWAP1 PUSH2 0x1304 JUMP JUMPDEST POP SWAP1 POP POP PUSH1 0x1 PUSH1 0xB PUSH1 0x0 PUSH2 0x100 EXP DUP2 SLOAD DUP2 PUSH1 0xFF MUL NOT AND SWAP1 DUP4 ISZERO ISZERO MUL OR SWAP1 SSTORE POP POP POP POP POP POP POP JUMP JUMPDEST PUSH32 0x72606200FAC42B7DC86B75901D61ECFAB2A4A1A6EDED478B97A428094891ABED DUP2 JUMP JUMPDEST PUSH1 0x60 PUSH1 0x0 PUSH2 0x93D PUSH2 0x1434 JUMP JUMPDEST PUSH2 0x945 PUSH2 0x1455 JUMP JUMPDEST PUSH1 0x0 PUSH2 0x94F PUSH2 0xEF3 JUMP JUMPDEST PUSH1 0x0 PUSH1 0xA DUP1 SLOAD PUSH2 0x95E SWAP1 PUSH2 0x225A JUMP JUMPDEST DUP1 PUSH1 0x1F ADD PUSH1 0x20 DUP1 SWAP2 DIV MUL PUSH1 0x20 ADD PUSH1 0x40 MLOAD SWAP1 DUP2 ADD PUSH1 0x40 MSTORE DUP1 SWAP3 SWAP2 SWAP1 DUP2 DUP2 MSTORE PUSH1 0x20 ADD DUP3 DUP1 SLOAD PUSH2 0x98A SWAP1 PUSH2 0x225A JUMP JUMPDEST DUP1 ISZERO PUSH2 0x9D7 JUMPI DUP1 PUSH1 0x1F LT PUSH2 0x9AC JUMPI PUSH2 0x100 DUP1 DUP4 SLOAD DIV MUL DUP4 MSTORE SWAP2 PUSH1 0x20 ADD SWAP2 PUSH2 0x9D7 JUMP JUMPDEST DUP3 ADD SWAP2 SWAP1 PUSH1 0x0 MSTORE PUSH1 0x20 PUSH1 0x0 KECCAK256 SWAP1 JUMPDEST DUP2 SLOAD DUP2 MSTORE SWAP1 PUSH1 0x1 ADD SWAP1 PUSH1 0x20 ADD DUP1 DUP4 GT PUSH2 0x9BA JUMPI DUP3 SWAP1 SUB PUSH1 0x1F AND DUP3 ADD SWAP2 JUMPDEST POP POP POP POP POP SWAP1 POP PUSH1 0x0 PUSH1 0x3 PUSH1 0x40 MLOAD DUP1 PUSH1 0x40 ADD PUSH1 0x40 MSTORE SWAP1 DUP2 PUSH1 0x0 DUP3 ADD PUSH1 0x0 SWAP1 SLOAD SWAP1 PUSH2 0x100 EXP SWAP1 DIV PUSH2 0xFFFF AND PUSH2 0xFFFF AND PUSH2 0xFFFF AND DUP2 MSTORE PUSH1 0x20 ADD PUSH1 0x1 DUP3 ADD SLOAD DUP2 MSTORE POP POP SWAP1 POP PUSH1 0x0 PUSH1 0x5 PUSH1 0x40 MLOAD DUP1 PUSH1 0xC0 ADD PUSH1 0x40 MSTORE SWAP1 DUP2 PUSH1 0x0 DUP3 ADD SLOAD DUP2 MSTORE PUSH1 0x20 ADD PUSH1 0x1 DUP3 ADD SLOAD DUP2 MSTORE PUSH1 0x20 ADD PUSH1 0x2 DUP3 ADD PUSH1 0x0 SWAP1 SLOAD SWAP1 PUSH2 0x100 EXP SWAP1 DIV PUSH1 0xFF AND PUSH1 0x2 DUP2 GT ISZERO PUSH2 0xA61 JUMPI PUSH2 0xA60 PUSH2 0x22EC JUMP JUMPDEST JUMPDEST PUSH1 0x2 DUP2 GT ISZERO PUSH2 0xA73 JUMPI PUSH2 0xA72 PUSH2 0x22EC JUMP JUMPDEST JUMPDEST DUP2 MSTORE PUSH1 0x20 ADD PUSH1 0x2 DUP3 ADD PUSH1 0x1 SWAP1 SLOAD SWAP1 PUSH2 0x100 EXP SWAP1 DIV PUSH1 0xFF AND PUSH1 0xFF AND PUSH1 0xFF AND DUP2 MSTORE PUSH1 0x20 ADD PUSH1 0x3 DUP3 ADD DUP1 SLOAD DUP1 PUSH1 0x20 MUL PUSH1 0x20 ADD PUSH1 0x40 MLOAD SWAP1 DUP2 ADD PUSH1 0x40 MSTORE DUP1 SWAP3 SWAP2 SWAP1 DUP2 DUP2 MSTORE PUSH1 0x20 ADD DUP3 DUP1 SLOAD DUP1 ISZERO PUSH2 0xAE3 JUMPI PUSH1 0x20 MUL DUP3 ADD SWAP2 SWAP1 PUSH1 0x0 MSTORE PUSH1 0x20 PUSH1 0x0 KECCAK256 SWAP1 JUMPDEST DUP2 SLOAD DUP2 MSTORE PUSH1 0x20 ADD SWAP1 PUSH1 0x1 ADD SWAP1 DUP1 DUP4 GT PUSH2 0xACF JUMPI JUMPDEST POP POP POP POP POP DUP2 MSTORE PUSH1 0x20 ADD PUSH1 0x4 DUP3 ADD DUP1 SLOAD DUP1 PUSH1 0x20 MUL PUSH1 0x20 ADD PUSH1 0x40 MLOAD SWAP1 DUP2 ADD PUSH1 0x40 MSTORE DUP1 SWAP3 SWAP2 SWAP1 DUP2 DUP2 MSTORE PUSH1 0x20 ADD DUP3 DUP1 SLOAD DUP1 ISZERO PUSH2 0xB63 JUMPI PUSH1 0x20 MUL DUP3 ADD SWAP2 SWAP1 PUSH1 0x0 MSTORE PUSH1 0x20 PUSH1 0x0 KECCAK256 SWAP1 PUSH1 0x0 SWAP1 JUMPDEST DUP3 DUP3 SWAP1 SLOAD SWAP1 PUSH2 0x100 EXP SWAP1 DIV PUSH2 0xFFFF AND PUSH2 0xFFFF AND DUP2 MSTORE PUSH1 0x20 ADD SWAP1 PUSH1 0x2 ADD SWAP1 PUSH1 0x20 DUP3 PUSH1 0x1 ADD DIV SWAP3 DUP4 ADD SWAP3 PUSH1 0x1 SUB DUP3 MUL SWAP2 POP DUP1 DUP5 GT PUSH2 0xB2A JUMPI SWAP1 POP JUMPDEST POP POP POP POP POP DUP2 MSTORE POP POP SWAP1 POP DUP3 PUSH1 0x2 SLOAD DUP4 DUP4 PUSH2 0xB7C PUSH2 0xFC2 JUMP JUMPDEST SWAP8 POP SWAP8 POP SWAP8 POP SWAP8 POP SWAP8 POP POP POP POP SWAP1 SWAP2 SWAP3 SWAP4 SWAP5 JUMP JUMPDEST PUSH2 0xB99 DUP3 PUSH2 0x486 JUMP JUMPDEST PUSH2 0xBA2 DUP2 PUSH2 0xD16 JUMP JUMPDEST PUSH2 0xBAC DUP4 DUP4 PUSH2 0xE12 JUMP JUMPDEST POP POP POP JUMP JUMPDEST PUSH32 0xAF1DAC7DEA2FD7F7738119CEC7DF099DFAD49AA9D2E7D17BA6B60F63AE7411F PUSH2 0xBDB DUP2 PUSH2 0xD16 JUMP JUMPDEST DUP2 PUSH1 0x2 DUP2 SWAP1 SSTORE POP POP POP JUMP JUMPDEST PUSH1 0x60 PUSH1 0x0 PUSH1 0xA PUSH2 0xBF4 PUSH2 0xFC2 JUMP JUMPDEST DUP2 DUP1 SLOAD PUSH2 0xC00 SWAP1 PUSH2 0x225A JUMP JUMPDEST DUP1 PUSH1 0x1F ADD PUSH1 0x20 DUP1 SWAP2 DIV MUL PUSH1 0x20 ADD PUSH1 0x40 MLOAD SWAP1 DUP2 ADD PUSH1 0x40 MSTORE DUP1 SWAP3 SWAP2 SWAP1 DUP2 DUP2 MSTORE PUSH1 0x20 ADD DUP3 DUP1 SLOAD PUSH2 0xC2C SWAP1 PUSH2 0x225A JUMP JUMPDEST DUP1 ISZERO PUSH2 0xC79 JUMPI DUP1 PUSH1 0x1F LT PUSH2 0xC4E JUMPI PUSH2 0x100 DUP1 DUP4 SLOAD DIV MUL DUP4 MSTORE SWAP2 PUSH1 0x20 ADD SWAP2 PUSH2 0xC79 JUMP JUMPDEST DUP3 ADD SWAP2 SWAP1 PUSH1 0x0 MSTORE PUSH1 0x20 PUSH1 0x0 KECCAK256 SWAP1 JUMPDEST DUP2 SLOAD DUP2 MSTORE SWAP1 PUSH1 0x1 ADD SWAP1 PUSH1 0x20 ADD DUP1 DUP4 GT PUSH2 0xC5C JUMPI DUP3 SWAP1 SUB PUSH1 0x1F AND DUP3 ADD SWAP2 JUMPDEST POP POP POP POP POP SWAP2 POP SWAP2 POP SWAP2 POP SWAP1 SWAP2 JUMP JUMPDEST PUSH32 0xAF1DAC7DEA2FD7F7738119CEC7DF099DFAD49AA9D2E7D17BA6B60F63AE7411F DUP2 JUMP JUMPDEST PUSH1 0x0 PUSH32 0x1FFC9A700000000000000000000000000000000000000000000000000000000 PUSH28 0xFFFFFFFFFFFFFFFFFFFFFFFFFFFFFFFFFFFFFFFFFFFFFFFFFFFFFFFF NOT AND DUP3 PUSH28 0xFFFFFFFFFFFFFFFFFFFFFFFFFFFFFFFFFFFFFFFFFFFFFFFFFFFFFFFF NOT AND EQ SWAP1 POP SWAP2 SWAP1 POP JUMP JUMPDEST PUSH2 0xD27 DUP2 PUSH2 0xD22 PUSH2 0xE0A JUMP JUMPDEST PUSH2 0xFDE JUMP JUMPDEST POP JUMP JUMPDEST PUSH2 0xD34 DUP3 DUP3 PUSH2 0x5DC JUMP JUMPDEST PUSH2 0xE06 JUMPI PUSH1 0x1 PUSH1 0x0 DUP1 DUP5 DUP2 MSTORE PUSH1 0x20 ADD SWAP1 DUP2 MSTORE PUSH1 0x20 ADD PUSH1 0x0 KECCAK256 PUSH1 0x0 ADD PUSH1 0x0 DUP4 PUSH20 0xFFFFFFFFFFFFFFFFFFFFFFFFFFFFFFFFFFFFFFFF AND PUSH20 0xFFFFFFFFFFFFFFFFFFFFFFFFFFFFFFFFFFFFFFFF AND DUP2 MSTORE PUSH1 0x20 ADD SWAP1 DUP2 MSTORE PUSH1 0x20 ADD PUSH1 0x0 KECCAK256 PUSH1 0x0 PUSH2 0x100 EXP DUP2 SLOAD DUP2 PUSH1 0xFF MUL NOT AND SWAP1 DUP4 ISZERO ISZERO MUL OR SWAP1 SSTORE POP PUSH2 0xDAB PUSH2 0xE0A JUMP JUMPDEST PUSH20 0xFFFFFFFFFFFFFFFFFFFFFFFFFFFFFFFFFFFFFFFF AND DUP2 PUSH20 0xFFFFFFFFFFFFFFFFFFFFFFFFFFFFFFFFFFFFFFFF AND DUP4 PUSH32 0x2F8788117E7EFF1D82E926EC794901D17C78024A50270940304540A733656F0D PUSH1 0x40 MLOAD PUSH1 0x40 MLOAD DUP1 SWAP2 SUB SWAP1 LOG4 JUMPDEST POP POP JUMP JUMPDEST PUSH1 0x0 CALLER SWAP1 POP SWAP1 JUMP JUMPDEST PUSH2 0xE1C DUP3 DUP3 PUSH2 0x5DC JUMP JUMPDEST ISZERO PUSH2 0xEEF JUMPI PUSH1 0x0 DUP1 PUSH1 0x0 DUP5 DUP2 MSTORE PUSH1 0x20 ADD SWAP1 DUP2 MSTORE PUSH1 0x20 ADD PUSH1 0x0 KECCAK256 PUSH1 0x0 ADD PUSH1 0x0 DUP4 PUSH20 0xFFFFFFFFFFFFFFFFFFFFFFFFFFFFFFFFFFFFFFFF AND PUSH20 0xFFFFFFFFFFFFFFFFFFFFFFFFFFFFFFFFFFFFFFFF AND DUP2 MSTORE PUSH1 0x20 ADD SWAP1 DUP2 MSTORE PUSH1 0x20 ADD PUSH1 0x0 KECCAK256 PUSH1 0x0 PUSH2 0x100 EXP DUP2 SLOAD DUP2 PUSH1 0xFF MUL NOT AND SWAP1 DUP4 ISZERO ISZERO MUL OR SWAP1 SSTORE POP PUSH2 0xE94 PUSH2 0xE0A JUMP JUMPDEST PUSH20 0xFFFFFFFFFFFFFFFFFFFFFFFFFFFFFFFFFFFFFFFF AND DUP2 PUSH20 0xFFFFFFFFFFFFFFFFFFFFFFFFFFFFFFFFFFFFFFFF AND DUP4 PUSH32 0xF6391F5C32D9C69D2A47EA670B442974B53935D1EDC7FD64EB21E047A839171B PUSH1 0x40 MLOAD PUSH1 0x40 MLOAD DUP1 SWAP2 SUB SWAP1 LOG4 JUMPDEST POP POP JUMP JUMPDEST PUSH2 0xF1D PUSH32 0x72606200FAC42B7DC86B75901D61ECFAB2A4A1A6EDED478B97A428094891ABED CALLER PUSH2 0x5DC JUMP JUMPDEST DUP1 PUSH2 0xF4E JUMPI POP PUSH2 0xF4D PUSH32 0xAF1DAC7DEA2FD7F7738119CEC7DF099DFAD49AA9D2E7D17BA6B60F63AE7411F CALLER PUSH2 0x5DC JUMP JUMPDEST JUMPDEST PUSH2 0xF57 JUMPI PUSH1 0x0 DUP1 REVERT JUMPDEST JUMP JUMPDEST PUSH1 0x0 PUSH2 0xF64 DUP4 PUSH2 0x486 JUMP JUMPDEST SWAP1 POP DUP2 PUSH1 0x0 DUP1 DUP6 DUP2 MSTORE PUSH1 0x20 ADD SWAP1 DUP2 MSTORE PUSH1 0x20 ADD PUSH1 0x0 KECCAK256 PUSH1 0x1 ADD DUP2 SWAP1 SSTORE POP DUP2 DUP2 DUP5 PUSH32 0xBD79B86FFE0AB8E8776151514217CD7CACD52C909F66475C3AF44E129F0B00FF PUSH1 0x40 MLOAD PUSH1 0x40 MLOAD DUP1 SWAP2 SUB SWAP1 LOG4 POP POP POP JUMP JUMPDEST PUSH2 0xFBE DUP3 DUP3 PUSH2 0xD2A JUMP JUMPDEST POP POP JUMP JUMPDEST PUSH1 0x0 PUSH2 0x3E8 TIMESTAMP PUSH2 0xFD2 SWAP2 SWAP1 PUSH2 0x20D6 JUMP JUMPDEST PUSH1 0x5 PUSH1 0x1 ADD SLOAD LT SWAP1 POP SWAP1 JUMP JUMPDEST PUSH2 0xFE8 DUP3 DUP3 PUSH2 0x5DC JUMP JUMPDEST PUSH2 0x1077 JUMPI PUSH2 0x100D DUP2 PUSH20 0xFFFFFFFFFFFFFFFFFFFFFFFFFFFFFFFFFFFFFFFF AND PUSH1 0x14 PUSH2 0x107B JUMP JUMPDEST PUSH2 0x101B DUP4 PUSH1 0x0 SHR PUSH1 0x20 PUSH2 0x107B JUMP JUMPDEST PUSH1 0x40 MLOAD PUSH1 0x20 ADD PUSH2 0x102C SWAP3 SWAP2 SWAP1 PUSH2 0x1D9B JUMP JUMPDEST PUSH1 0x40 MLOAD PUSH1 0x20 DUP2 DUP4 SUB SUB DUP2 MSTORE SWAP1 PUSH1 0x40 MSTORE PUSH1 0x40 MLOAD PUSH32 0x8C379A000000000000000000000000000000000000000000000000000000000 DUP2 MSTORE PUSH1 0x4 ADD PUSH2 0x106E SWAP2 SWAP1 PUSH2 0x1E26 JUMP JUMPDEST PUSH1 0x40 MLOAD DUP1 SWAP2 SUB SWAP1 REVERT JUMPDEST POP POP JUMP JUMPDEST PUSH1 0x60 PUSH1 0x0 PUSH1 0x2 DUP4 PUSH1 0x2 PUSH2 0x108E SWAP2 SWAP1 PUSH2 0x20D6 JUMP JUMPDEST PUSH2 0x1098 SWAP2 SWAP1 PUSH2 0x2080 JUMP JUMPDEST PUSH8 0xFFFFFFFFFFFFFFFF DUP2 GT ISZERO PUSH2 0x10B1 JUMPI PUSH2 0x10B0 PUSH2 0x2379 JUMP JUMPDEST JUMPDEST PUSH1 0x40 MLOAD SWAP1 DUP1 DUP3 MSTORE DUP1 PUSH1 0x1F ADD PUSH1 0x1F NOT AND PUSH1 0x20 ADD DUP3 ADD PUSH1 0x40 MSTORE DUP1 ISZERO PUSH2 0x10E3 JUMPI DUP2 PUSH1 0x20 ADD PUSH1 0x1 DUP3 MUL DUP1 CALLDATASIZE DUP4 CALLDATACOPY DUP1 DUP3 ADD SWAP2 POP POP SWAP1 POP JUMPDEST POP SWAP1 POP PUSH32 0x3000000000000000000000000000000000000000000000000000000000000000 DUP2 PUSH1 0x0 DUP2 MLOAD DUP2 LT PUSH2 0x111B JUMPI PUSH2 0x111A PUSH2 0x234A JUMP JUMPDEST JUMPDEST PUSH1 0x20 ADD ADD SWAP1 PUSH31 0xFFFFFFFFFFFFFFFFFFFFFFFFFFFFFFFFFFFFFFFFFFFFFFFFFFFFFFFFFFFFFF NOT AND SWAP1 DUP2 PUSH1 0x0 BYTE SWAP1 MSTORE8 POP PUSH32 0x7800000000000000000000000000000000000000000000000000000000000000 DUP2 PUSH1 0x1 DUP2 MLOAD DUP2 LT PUSH2 0x117F JUMPI PUSH2 0x117E PUSH2 0x234A JUMP JUMPDEST JUMPDEST PUSH1 0x20 ADD ADD SWAP1 PUSH31 0xFFFFFFFFFFFFFFFFFFFFFFFFFFFFFFFFFFFFFFFFFFFFFFFFFFFFFFFFFFFFFF NOT AND SWAP1 DUP2 PUSH1 0x0 BYTE SWAP1 MSTORE8 POP PUSH1 0x0 PUSH1 0x1 DUP5 PUSH1 0x2 PUSH2 0x11BF SWAP2 SWAP1 PUSH2 0x20D6 JUMP JUMPDEST PUSH2 0x11C9 SWAP2 SWAP1 PUSH2 0x2080 JUMP JUMPDEST SWAP1 POP JUMPDEST PUSH1 0x1 DUP2 GT ISZERO PUSH2 0x1269 JUMPI PUSH32 0x3031323334353637383961626364656600000000000000000000000000000000 PUSH1 0xF DUP7 AND PUSH1 0x10 DUP2 LT PUSH2 0x120B JUMPI PUSH2 0x120A PUSH2 0x234A JUMP JUMPDEST JUMPDEST BYTE PUSH1 0xF8 SHL DUP3 DUP3 DUP2 MLOAD DUP2 LT PUSH2 0x1222 JUMPI PUSH2 0x1221 PUSH2 0x234A JUMP JUMPDEST JUMPDEST PUSH1 0x20 ADD ADD SWAP1 PUSH31 0xFFFFFFFFFFFFFFFFFFFFFFFFFFFFFFFFFFFFFFFFFFFFFFFFFFFFFFFFFFFFFF NOT AND SWAP1 DUP2 PUSH1 0x0 BYTE SWAP1 MSTORE8 POP PUSH1 0x4 DUP6 SWAP1 SHR SWAP5 POP DUP1 PUSH2 0x1262 SWAP1 PUSH2 0x2230 JUMP JUMPDEST SWAP1 POP PUSH2 0x11CC JUMP JUMPDEST POP PUSH1 0x0 DUP5 EQ PUSH2 0x12AD JUMPI PUSH1 0x40 MLOAD PUSH32 0x8C379A000000000000000000000000000000000000000000000000000000000 DUP2 MSTORE PUSH1 0x4 ADD PUSH2 0x12A4 SWAP1 PUSH2 0x1ED9 JUMP JUMPDEST PUSH1 0x40 MLOAD DUP1 SWAP2 SUB SWAP1 REVERT JUMPDEST DUP1 SWAP2 POP POP SWAP3 SWAP2 POP POP JUMP JUMPDEST DUP3 DUP1 SLOAD DUP3 DUP3 SSTORE SWAP1 PUSH1 0x0 MSTORE PUSH1 0x20 PUSH1 0x0 KECCAK256 SWAP1 DUP2 ADD SWAP3 DUP3 ISZERO PUSH2 0x12F3 JUMPI SWAP2 PUSH1 0x20 MUL DUP3 ADD JUMPDEST DUP3 DUP2 GT ISZERO PUSH2 0x12F2 JUMPI DUP3 MLOAD DUP3 SSTORE SWAP2 PUSH1 0x20 ADD SWAP2 SWAP1 PUSH1 0x1 ADD SWAP1 PUSH2 0x12D7 JUMP JUMPDEST JUMPDEST POP SWAP1 POP PUSH2 0x1300 SWAP2 SWAP1 PUSH2 0x14A0 JUMP JUMPDEST POP SWAP1 JUMP JUMPDEST DUP3 DUP1 SLOAD DUP3 DUP3 SSTORE SWAP1 PUSH1 0x0 MSTORE PUSH1 0x20 PUSH1 0x0 KECCAK256 SWAP1 PUSH1 0xF ADD PUSH1 0x10 SWAP1 DIV DUP2 ADD SWAP3 DUP3 ISZERO PUSH2 0x139D JUMPI SWAP2 PUSH1 0x20 MUL DUP3 ADD PUSH1 0x0 JUMPDEST DUP4 DUP3 GT ISZERO PUSH2 0x136D JUMPI DUP4 MLOAD DUP4 DUP3 PUSH2 0x100 EXP DUP2 SLOAD DUP2 PUSH2 0xFFFF MUL NOT AND SWAP1 DUP4 PUSH2 0xFFFF AND MUL OR SWAP1 SSTORE POP SWAP3 PUSH1 0x20 ADD SWAP3 PUSH1 0x2 ADD PUSH1 0x20 DUP2 PUSH1 0x1 ADD DIV SWAP3 DUP4 ADD SWAP3 PUSH1 0x1 SUB MUL PUSH2 0x132D JUMP JUMPDEST DUP1 ISZERO PUSH2 0x139B JUMPI DUP3 DUP2 PUSH2 0x100 EXP DUP2 SLOAD SWAP1 PUSH2 0xFFFF MUL NOT AND SWAP1 SSTORE PUSH1 0x2 ADD PUSH1 0x20 DUP2 PUSH1 0x1 ADD DIV SWAP3 DUP4 ADD SWAP3 PUSH1 0x1 SUB MUL PUSH2 0x136D JUMP JUMPDEST POP JUMPDEST POP SWAP1 POP PUSH2 0x13AA SWAP2 SWAP1 PUSH2 0x14BD JUMP JUMPDEST POP SWAP1 JUMP JUMPDEST DUP3 DUP1 SLOAD PUSH2 0x13BA SWAP1 PUSH2 0x225A JUMP JUMPDEST SWAP1 PUSH1 0x0 MSTORE PUSH1 0x20 PUSH1 0x0 KECCAK256 SWAP1 PUSH1 0x1F ADD PUSH1 0x20 SWAP1 DIV DUP2 ADD SWAP3 DUP3 PUSH2 0x13DC JUMPI PUSH1 0x0 DUP6 SSTORE PUSH2 0x1423 JUMP JUMPDEST DUP3 PUSH1 0x1F LT PUSH2 0x13F5 JUMPI DUP1 MLOAD PUSH1 0xFF NOT AND DUP4 DUP1 ADD OR DUP6 SSTORE PUSH2 0x1423 JUMP JUMPDEST DUP3 DUP1 ADD PUSH1 0x1 ADD DUP6 SSTORE DUP3 ISZERO PUSH2 0x1423 JUMPI SWAP2 DUP3 ADD JUMPDEST DUP3 DUP2 GT ISZERO PUSH2 0x1422 JUMPI DUP3 MLOAD DUP3 SSTORE SWAP2 PUSH1 0x20 ADD SWAP2 SWAP1 PUSH1 0x1 ADD SWAP1 PUSH2 0x1407 JUMP JUMPDEST JUMPDEST POP SWAP1 POP PUSH2 0x1430 SWAP2 SWAP1 PUSH2 0x14BD JUMP JUMPDEST POP SWAP1 JUMP JUMPDEST PUSH1 0x40 MLOAD DUP1 PUSH1 0x40 ADD PUSH1 0x40 MSTORE DUP1 PUSH1 0x0 PUSH2 0xFFFF AND DUP2 MSTORE PUSH1 0x20 ADD PUSH1 0x0 DUP1 NOT AND DUP2 MSTORE POP SWAP1 JUMP JUMPDEST PUSH1 0x40 MLOAD DUP1 PUSH1 0xC0 ADD PUSH1 0x40 MSTORE DUP1 PUSH1 0x0 DUP2 MSTORE PUSH1 0x20 ADD PUSH1 0x0 DUP2 MSTORE PUSH1 0x20 ADD PUSH1 0x0 PUSH1 0x2 DUP2 GT ISZERO PUSH2 0x1482 JUMPI PUSH2 0x1481 PUSH2 0x22EC JUMP JUMPDEST JUMPDEST DUP2 MSTORE PUSH1 0x20 ADD PUSH1 0x0 PUSH1 0xFF AND DUP2 MSTORE PUSH1 0x20 ADD PUSH1 0x60 DUP2 MSTORE PUSH1 0x20 ADD PUSH1 0x60 DUP2 MSTORE POP SWAP1 JUMP JUMPDEST JUMPDEST DUP1 DUP3 GT ISZERO PUSH2 0x14B9 JUMPI PUSH1 0x0 DUP2 PUSH1 0x0 SWAP1 SSTORE POP PUSH1 0x1 ADD PUSH2 0x14A1 JUMP JUMPDEST POP SWAP1 JUMP JUMPDEST JUMPDEST DUP1 DUP3 GT ISZERO PUSH2 0x14D6 JUMPI PUSH1 0x0 DUP2 PUSH1 0x0 SWAP1 SSTORE POP PUSH1 0x1 ADD PUSH2 0x14BE JUMP JUMPDEST POP SWAP1 JUMP JUMPDEST PUSH1 0x0 PUSH2 0x14ED PUSH2 0x14E8 DUP5 PUSH2 0x1F5E JUMP JUMPDEST PUSH2 0x1F39 JUMP JUMPDEST SWAP1 POP DUP1 DUP4 DUP3 MSTORE PUSH1 0x20 DUP3 ADD SWAP1 POP DUP3 DUP6 PUSH1 0x20 DUP7 MUL DUP3 ADD GT ISZERO PUSH2 0x1510 JUMPI PUSH2 0x150F PUSH2 0x23B7 JUMP JUMPDEST JUMPDEST PUSH1 0x0 JUMPDEST DUP6 DUP2 LT ISZERO PUSH2 0x1540 JUMPI DUP2 PUSH2 0x1526 DUP9 DUP3 PUSH2 0x166D JUMP JUMPDEST DUP5 MSTORE PUSH1 0x20 DUP5 ADD SWAP4 POP PUSH1 0x20 DUP4 ADD SWAP3 POP POP PUSH1 0x1 DUP2 ADD SWAP1 POP PUSH2 0x1513 JUMP JUMPDEST POP POP POP SWAP4 SWAP3 POP POP POP JUMP JUMPDEST PUSH1 0x0 PUSH2 0x155D PUSH2 0x1558 DUP5 PUSH2 0x1F8A JUMP JUMPDEST PUSH2 0x1F39 JUMP JUMPDEST SWAP1 POP DUP1 DUP4 DUP3 MSTORE PUSH1 0x20 DUP3 ADD SWAP1 POP DUP3 DUP6 PUSH1 0x20 DUP7 MUL DUP3 ADD GT ISZERO PUSH2 0x1580 JUMPI PUSH2 0x157F PUSH2 0x23B7 JUMP JUMPDEST JUMPDEST PUSH1 0x0 JUMPDEST DUP6 DUP2 LT ISZERO PUSH2 0x15B0 JUMPI DUP2 PUSH2 0x1596 DUP9 DUP3 PUSH2 0x1802 JUMP JUMPDEST DUP5 MSTORE PUSH1 0x20 DUP5 ADD SWAP4 POP PUSH1 0x20 DUP4 ADD SWAP3 POP POP PUSH1 0x1 DUP2 ADD SWAP1 POP PUSH2 0x1583 JUMP JUMPDEST POP POP POP SWAP4 SWAP3 POP POP POP JUMP JUMPDEST PUSH1 0x0 PUSH2 0x15CD PUSH2 0x15C8 DUP5 PUSH2 0x1FB6 JUMP JUMPDEST PUSH2 0x1F39 JUMP JUMPDEST SWAP1 POP DUP3 DUP2 MSTORE PUSH1 0x20 DUP2 ADD DUP5 DUP5 DUP5 ADD GT ISZERO PUSH2 0x15E9 JUMPI PUSH2 0x15E8 PUSH2 0x23BC JUMP JUMPDEST JUMPDEST PUSH2 0x15F4 DUP5 DUP3 DUP6 PUSH2 0x21EE JUMP JUMPDEST POP SWAP4 SWAP3 POP POP POP JUMP JUMPDEST PUSH1 0x0 DUP2 CALLDATALOAD SWAP1 POP PUSH2 0x160B DUP2 PUSH2 0x24E3 JUMP JUMPDEST SWAP3 SWAP2 POP POP JUMP JUMPDEST PUSH1 0x0 DUP3 PUSH1 0x1F DUP4 ADD SLT PUSH2 0x1626 JUMPI PUSH2 0x1625 PUSH2 0x23A8 JUMP JUMPDEST JUMPDEST DUP2 CALLDATALOAD PUSH2 0x1636 DUP5 DUP3 PUSH1 0x20 DUP7 ADD PUSH2 0x14DA JUMP JUMPDEST SWAP2 POP POP SWAP3 SWAP2 POP POP JUMP JUMPDEST PUSH1 0x0 DUP3 PUSH1 0x1F DUP4 ADD SLT PUSH2 0x1654 JUMPI PUSH2 0x1653 PUSH2 0x23A8 JUMP JUMPDEST JUMPDEST DUP2 CALLDATALOAD PUSH2 0x1664 DUP5 DUP3 PUSH1 0x20 DUP7 ADD PUSH2 0x154A JUMP JUMPDEST SWAP2 POP POP SWAP3 SWAP2 POP POP JUMP JUMPDEST PUSH1 0x0 DUP2 CALLDATALOAD SWAP1 POP PUSH2 0x167C DUP2 PUSH2 0x24FA JUMP JUMPDEST SWAP3 SWAP2 POP POP JUMP JUMPDEST PUSH1 0x0 DUP2 CALLDATALOAD SWAP1 POP PUSH2 0x1691 DUP2 PUSH2 0x2511 JUMP JUMPDEST SWAP3 SWAP2 POP POP JUMP JUMPDEST PUSH1 0x0 DUP2 CALLDATALOAD SWAP1 POP PUSH2 0x16A6 DUP2 PUSH2 0x2528 JUMP JUMPDEST SWAP3 SWAP2 POP POP JUMP JUMPDEST PUSH1 0x0 DUP3 PUSH1 0x1F DUP4 ADD SLT PUSH2 0x16C1 JUMPI PUSH2 0x16C0 PUSH2 0x23A8 JUMP JUMPDEST JUMPDEST DUP2 CALLDATALOAD PUSH2 0x16D1 DUP5 DUP3 PUSH1 0x20 DUP7 ADD PUSH2 0x15BA JUMP JUMPDEST SWAP2 POP POP SWAP3 SWAP2 POP POP JUMP JUMPDEST PUSH1 0x0 PUSH1 0x40 DUP3 DUP5 SUB SLT ISZERO PUSH2 0x16F0 JUMPI PUSH2 0x16EF PUSH2 0x23AD JUMP JUMPDEST JUMPDEST PUSH2 0x16FA PUSH1 0x40 PUSH2 0x1F39 JUMP JUMPDEST SWAP1 POP PUSH1 0x0 PUSH2 0x170A DUP5 DUP3 DUP6 ADD PUSH2 0x1802 JUMP JUMPDEST PUSH1 0x0 DUP4 ADD MSTORE POP PUSH1 0x20 PUSH2 0x171E DUP5 DUP3 DUP6 ADD PUSH2 0x166D JUMP JUMPDEST PUSH1 0x20 DUP4 ADD MSTORE POP SWAP3 SWAP2 POP POP JUMP JUMPDEST PUSH1 0x0 PUSH1 0xC0 DUP3 DUP5 SUB SLT ISZERO PUSH2 0x1740 JUMPI PUSH2 0x173F PUSH2 0x23AD JUMP JUMPDEST JUMPDEST PUSH2 0x174A PUSH1 0xC0 PUSH2 0x1F39 JUMP JUMPDEST SWAP1 POP PUSH1 0x0 PUSH2 0x175A DUP5 DUP3 DUP6 ADD PUSH2 0x1817 JUMP JUMPDEST PUSH1 0x0 DUP4 ADD MSTORE POP PUSH1 0x20 PUSH2 0x176E DUP5 DUP3 DUP6 ADD PUSH2 0x1817 JUMP JUMPDEST PUSH1 0x20 DUP4 ADD MSTORE POP PUSH1 0x40 PUSH2 0x1782 DUP5 DUP3 DUP6 ADD PUSH2 0x1697 JUMP JUMPDEST PUSH1 0x40 DUP4 ADD MSTORE POP PUSH1 0x60 PUSH2 0x1796 DUP5 DUP3 DUP6 ADD PUSH2 0x182C JUMP JUMPDEST PUSH1 0x60 DUP4 ADD MSTORE POP PUSH1 0x80 DUP3 ADD CALLDATALOAD PUSH8 0xFFFFFFFFFFFFFFFF DUP2 GT ISZERO PUSH2 0x17BA JUMPI PUSH2 0x17B9 PUSH2 0x23B2 JUMP JUMPDEST JUMPDEST PUSH2 0x17C6 DUP5 DUP3 DUP6 ADD PUSH2 0x1611 JUMP JUMPDEST PUSH1 0x80 DUP4 ADD MSTORE POP PUSH1 0xA0 DUP3 ADD CALLDATALOAD PUSH8 0xFFFFFFFFFFFFFFFF DUP2 GT ISZERO PUSH2 0x17EA JUMPI PUSH2 0x17E9 PUSH2 0x23B2 JUMP JUMPDEST JUMPDEST PUSH2 0x17F6 DUP5 DUP3 DUP6 ADD PUSH2 0x163F JUMP JUMPDEST PUSH1 0xA0 DUP4 ADD MSTORE POP SWAP3 SWAP2 POP POP JUMP JUMPDEST PUSH1 0x0 DUP2 CALLDATALOAD SWAP1 POP PUSH2 0x1811 DUP2 PUSH2 0x2538 JUMP JUMPDEST SWAP3 SWAP2 POP POP JUMP JUMPDEST PUSH1 0x0 DUP2 CALLDATALOAD SWAP1 POP PUSH2 0x1826 DUP2 PUSH2 0x254F JUMP JUMPDEST SWAP3 SWAP2 POP POP JUMP JUMPDEST PUSH1 0x0 DUP2 CALLDATALOAD SWAP1 POP PUSH2 0x183B DUP2 PUSH2 0x2566 JUMP JUMPDEST SWAP3 SWAP2 POP POP JUMP JUMPDEST PUSH1 0x0 DUP1 PUSH1 0x0 DUP1 PUSH1 0x0 DUP1 PUSH1 0xE0 DUP8 DUP10 SUB SLT ISZERO PUSH2 0x185E JUMPI PUSH2 0x185D PUSH2 0x23C6 JUMP JUMPDEST JUMPDEST PUSH1 0x0 PUSH2 0x186C DUP10 DUP3 DUP11 ADD PUSH2 0x15FC JUMP JUMPDEST SWAP7 POP POP PUSH1 0x20 PUSH2 0x187D DUP10 DUP3 DUP11 ADD PUSH2 0x15FC JUMP JUMPDEST SWAP6 POP POP PUSH1 0x40 DUP8 ADD CALLDATALOAD PUSH8 0xFFFFFFFFFFFFFFFF DUP2 GT ISZERO PUSH2 0x189E JUMPI PUSH2 0x189D PUSH2 0x23C1 JUMP JUMPDEST JUMPDEST PUSH2 0x18AA DUP10 DUP3 DUP11 ADD PUSH2 0x16AC JUMP JUMPDEST SWAP5 POP POP PUSH1 0x60 PUSH2 0x18BB DUP10 DUP3 DUP11 ADD PUSH2 0x166D JUMP JUMPDEST SWAP4 POP POP PUSH1 0x80 PUSH2 0x18CC DUP10 DUP3 DUP11 ADD PUSH2 0x16DA JUMP JUMPDEST SWAP3 POP POP PUSH1 0xC0 DUP8 ADD CALLDATALOAD PUSH8 0xFFFFFFFFFFFFFFFF DUP2 GT ISZERO PUSH2 0x18ED JUMPI PUSH2 0x18EC PUSH2 0x23C1 JUMP JUMPDEST JUMPDEST PUSH2 0x18F9 DUP10 DUP3 DUP11 ADD PUSH2 0x172A JUMP JUMPDEST SWAP2 POP POP SWAP3 SWAP6 POP SWAP3 SWAP6 POP SWAP3 SWAP6 JUMP JUMPDEST PUSH1 0x0 PUSH1 0x20 DUP3 DUP5 SUB SLT ISZERO PUSH2 0x191C JUMPI PUSH2 0x191B PUSH2 0x23C6 JUMP JUMPDEST JUMPDEST PUSH1 0x0 PUSH2 0x192A DUP5 DUP3 DUP6 ADD PUSH2 0x166D JUMP JUMPDEST SWAP2 POP POP SWAP3 SWAP2 POP POP JUMP JUMPDEST PUSH1 0x0 DUP1 PUSH1 0x40 DUP4 DUP6 SUB SLT ISZERO PUSH2 0x194A JUMPI PUSH2 0x1949 PUSH2 0x23C6 JUMP JUMPDEST JUMPDEST PUSH1 0x0 PUSH2 0x1958 DUP6 DUP3 DUP7 ADD PUSH2 0x166D JUMP JUMPDEST SWAP3 POP POP PUSH1 0x20 PUSH2 0x1969 DUP6 DUP3 DUP7 ADD PUSH2 0x15FC JUMP JUMPDEST SWAP2 POP POP SWAP3 POP SWAP3 SWAP1 POP JUMP JUMPDEST PUSH1 0x0 PUSH1 0x20 DUP3 DUP5 SUB SLT ISZERO PUSH2 0x1989 JUMPI PUSH2 0x1988 PUSH2 0x23C6 JUMP JUMPDEST JUMPDEST PUSH1 0x0 PUSH2 0x1997 DUP5 DUP3 DUP6 ADD PUSH2 0x1682 JUMP JUMPDEST SWAP2 POP POP SWAP3 SWAP2 POP POP JUMP JUMPDEST PUSH1 0x0 PUSH1 0x20 DUP3 DUP5 SUB SLT ISZERO PUSH2 0x19B6 JUMPI PUSH2 0x19B5 PUSH2 0x23C6 JUMP JUMPDEST JUMPDEST PUSH1 0x0 DUP3 ADD CALLDATALOAD PUSH8 0xFFFFFFFFFFFFFFFF DUP2 GT ISZERO PUSH2 0x19D4 JUMPI PUSH2 0x19D3 PUSH2 0x23C1 JUMP JUMPDEST JUMPDEST PUSH2 0x19E0 DUP5 DUP3 DUP6 ADD PUSH2 0x16AC JUMP JUMPDEST SWAP2 POP POP SWAP3 SWAP2 POP POP JUMP JUMPDEST PUSH1 0x0 PUSH1 0x40 DUP3 DUP5 SUB SLT ISZERO PUSH2 0x19FF JUMPI PUSH2 0x19FE PUSH2 0x23C6 JUMP JUMPDEST JUMPDEST PUSH1 0x0 PUSH2 0x1A0D DUP5 DUP3 DUP6 ADD PUSH2 0x16DA JUMP JUMPDEST SWAP2 POP POP SWAP3 SWAP2 POP POP JUMP JUMPDEST PUSH1 0x0 PUSH1 0x20 DUP3 DUP5 SUB SLT ISZERO PUSH2 0x1A2C JUMPI PUSH2 0x1A2B PUSH2 0x23C6 JUMP JUMPDEST JUMPDEST PUSH1 0x0 DUP3 ADD CALLDATALOAD PUSH8 0xFFFFFFFFFFFFFFFF DUP2 GT ISZERO PUSH2 0x1A4A JUMPI PUSH2 0x1A49 PUSH2 0x23C1 JUMP JUMPDEST JUMPDEST PUSH2 0x1A56 DUP5 DUP3 DUP6 ADD PUSH2 0x172A JUMP JUMPDEST SWAP2 POP POP SWAP3 SWAP2 POP POP JUMP JUMPDEST PUSH1 0x0 PUSH2 0x1A6B DUP4 DUP4 PUSH2 0x1B69 JUMP JUMPDEST PUSH1 0x20 DUP4 ADD SWAP1 POP SWAP3 SWAP2 POP POP JUMP JUMPDEST PUSH1 0x0 PUSH2 0x1A83 DUP4 DUP4 PUSH2 0x1D6E JUMP JUMPDEST PUSH1 0x20 DUP4 ADD SWAP1 POP SWAP3 SWAP2 POP POP JUMP JUMPDEST PUSH2 0x1A98 DUP2 PUSH2 0x2130 JUMP JUMPDEST DUP3 MSTORE POP POP JUMP JUMPDEST PUSH1 0x0 PUSH2 0x1AA9 DUP3 PUSH2 0x2007 JUMP JUMPDEST PUSH2 0x1AB3 DUP2 DUP6 PUSH2 0x2042 JUMP JUMPDEST SWAP4 POP PUSH2 0x1ABE DUP4 PUSH2 0x1FE7 JUMP JUMPDEST DUP1 PUSH1 0x0 JUMPDEST DUP4 DUP2 LT ISZERO PUSH2 0x1AEF JUMPI DUP2 MLOAD PUSH2 0x1AD6 DUP9 DUP3 PUSH2 0x1A5F JUMP JUMPDEST SWAP8 POP PUSH2 0x1AE1 DUP4 PUSH2 0x2028 JUMP JUMPDEST SWAP3 POP POP PUSH1 0x1 DUP2 ADD SWAP1 POP PUSH2 0x1AC2 JUMP JUMPDEST POP DUP6 SWAP4 POP POP POP POP SWAP3 SWAP2 POP POP JUMP JUMPDEST PUSH1 0x0 PUSH2 0x1B07 DUP3 PUSH2 0x2012 JUMP JUMPDEST PUSH2 0x1B11 DUP2 DUP6 PUSH2 0x2053 JUMP JUMPDEST SWAP4 POP PUSH2 0x1B1C DUP4 PUSH2 0x1FF7 JUMP JUMPDEST DUP1 PUSH1 0x0 JUMPDEST DUP4 DUP2 LT ISZERO PUSH2 0x1B4D JUMPI DUP2 MLOAD PUSH2 0x1B34 DUP9 DUP3 PUSH2 0x1A77 JUMP JUMPDEST SWAP8 POP PUSH2 0x1B3F DUP4 PUSH2 0x2035 JUMP JUMPDEST SWAP3 POP POP PUSH1 0x1 DUP2 ADD SWAP1 POP PUSH2 0x1B20 JUMP JUMPDEST POP DUP6 SWAP4 POP POP POP POP SWAP3 SWAP2 POP POP JUMP JUMPDEST PUSH2 0x1B63 DUP2 PUSH2 0x2142 JUMP JUMPDEST DUP3 MSTORE POP POP JUMP JUMPDEST PUSH2 0x1B72 DUP2 PUSH2 0x214E JUMP JUMPDEST DUP3 MSTORE POP POP JUMP JUMPDEST PUSH2 0x1B81 DUP2 PUSH2 0x214E JUMP JUMPDEST DUP3 MSTORE POP POP JUMP JUMPDEST PUSH2 0x1B90 DUP2 PUSH2 0x21DC JUMP JUMPDEST DUP3 MSTORE POP POP JUMP JUMPDEST PUSH1 0x0 PUSH2 0x1BA1 DUP3 PUSH2 0x201D JUMP JUMPDEST PUSH2 0x1BAB DUP2 DUP6 PUSH2 0x2064 JUMP JUMPDEST SWAP4 POP PUSH2 0x1BBB DUP2 DUP6 PUSH1 0x20 DUP7 ADD PUSH2 0x21FD JUMP JUMPDEST PUSH2 0x1BC4 DUP2 PUSH2 0x23CB JUMP JUMPDEST DUP5 ADD SWAP2 POP POP SWAP3 SWAP2 POP POP JUMP JUMPDEST PUSH1 0x0 PUSH2 0x1BDA DUP3 PUSH2 0x201D JUMP JUMPDEST PUSH2 0x1BE4 DUP2 DUP6 PUSH2 0x2075 JUMP JUMPDEST SWAP4 POP PUSH2 0x1BF4 DUP2 DUP6 PUSH1 0x20 DUP7 ADD PUSH2 0x21FD JUMP JUMPDEST DUP1 DUP5 ADD SWAP2 POP POP SWAP3 SWAP2 POP POP JUMP JUMPDEST PUSH1 0x0 PUSH2 0x1C0D PUSH1 0x20 DUP4 PUSH2 0x2064 JUMP JUMPDEST SWAP2 POP PUSH2 0x1C18 DUP3 PUSH2 0x23DC JUMP JUMPDEST PUSH1 0x20 DUP3 ADD SWAP1 POP SWAP2 SWAP1 POP JUMP JUMPDEST PUSH1 0x0 PUSH2 0x1C30 PUSH1 0x13 DUP4 PUSH2 0x2064 JUMP JUMPDEST SWAP2 POP PUSH2 0x1C3B DUP3 PUSH2 0x2405 JUMP JUMPDEST PUSH1 0x20 DUP3 ADD SWAP1 POP SWAP2 SWAP1 POP JUMP JUMPDEST PUSH1 0x0 PUSH2 0x1C53 PUSH1 0x17 DUP4 PUSH2 0x2075 JUMP JUMPDEST SWAP2 POP PUSH2 0x1C5E DUP3 PUSH2 0x242E JUMP JUMPDEST PUSH1 0x17 DUP3 ADD SWAP1 POP SWAP2 SWAP1 POP JUMP JUMPDEST PUSH1 0x0 PUSH2 0x1C76 PUSH1 0x11 DUP4 PUSH2 0x2075 JUMP JUMPDEST SWAP2 POP PUSH2 0x1C81 DUP3 PUSH2 0x2457 JUMP JUMPDEST PUSH1 0x11 DUP3 ADD SWAP1 POP SWAP2 SWAP1 POP JUMP JUMPDEST PUSH1 0x0 PUSH2 0x1C99 PUSH1 0x2F DUP4 PUSH2 0x2064 JUMP JUMPDEST SWAP2 POP PUSH2 0x1CA4 DUP3 PUSH2 0x2480 JUMP JUMPDEST PUSH1 0x40 DUP3 ADD SWAP1 POP SWAP2 SWAP1 POP JUMP JUMPDEST PUSH1 0x40 DUP3 ADD PUSH1 0x0 DUP3 ADD MLOAD PUSH2 0x1CC5 PUSH1 0x0 DUP6 ADD DUP3 PUSH2 0x1D6E JUMP JUMPDEST POP PUSH1 0x20 DUP3 ADD MLOAD PUSH2 0x1CD8 PUSH1 0x20 DUP6 ADD DUP3 PUSH2 0x1B69 JUMP JUMPDEST POP POP POP POP JUMP JUMPDEST PUSH1 0x0 PUSH1 0xC0 DUP4 ADD PUSH1 0x0 DUP4 ADD MLOAD PUSH2 0x1CF6 PUSH1 0x0 DUP7 ADD DUP3 PUSH2 0x1D7D JUMP JUMPDEST POP PUSH1 0x20 DUP4 ADD MLOAD PUSH2 0x1D09 PUSH1 0x20 DUP7 ADD DUP3 PUSH2 0x1D7D JUMP JUMPDEST POP PUSH1 0x40 DUP4 ADD MLOAD PUSH2 0x1D1C PUSH1 0x40 DUP7 ADD DUP3 PUSH2 0x1B87 JUMP JUMPDEST POP PUSH1 0x60 DUP4 ADD MLOAD PUSH2 0x1D2F PUSH1 0x60 DUP7 ADD DUP3 PUSH2 0x1D8C JUMP JUMPDEST POP PUSH1 0x80 DUP4 ADD MLOAD DUP5 DUP3 SUB PUSH1 0x80 DUP7 ADD MSTORE PUSH2 0x1D47 DUP3 DUP3 PUSH2 0x1A9E JUMP JUMPDEST SWAP2 POP POP PUSH1 0xA0 DUP4 ADD MLOAD DUP5 DUP3 SUB PUSH1 0xA0 DUP7 ADD MSTORE PUSH2 0x1D61 DUP3 DUP3 PUSH2 0x1AFC JUMP JUMPDEST SWAP2 POP POP DUP1 SWAP2 POP POP SWAP3 SWAP2 POP POP JUMP JUMPDEST PUSH2 0x1D77 DUP2 PUSH2 0x2197 JUMP JUMPDEST DUP3 MSTORE POP POP JUMP JUMPDEST PUSH2 0x1D86 DUP2 PUSH2 0x21C5 JUMP JUMPDEST DUP3 MSTORE POP POP JUMP JUMPDEST PUSH2 0x1D95 DUP2 PUSH2 0x21CF JUMP JUMPDEST DUP3 MSTORE POP POP JUMP JUMPDEST PUSH1 0x0 PUSH2 0x1DA6 DUP3 PUSH2 0x1C46 JUMP JUMPDEST SWAP2 POP PUSH2 0x1DB2 DUP3 DUP6 PUSH2 0x1BCF JUMP JUMPDEST SWAP2 POP PUSH2 0x1DBD DUP3 PUSH2 0x1C69 JUMP JUMPDEST SWAP2 POP PUSH2 0x1DC9 DUP3 DUP5 PUSH2 0x1BCF JUMP JUMPDEST SWAP2 POP DUP2 SWAP1 POP SWAP4 SWAP3 POP POP POP JUMP JUMPDEST PUSH1 0x0 PUSH1 0x20 DUP3 ADD SWAP1 POP PUSH2 0x1DEA PUSH1 0x0 DUP4 ADD DUP5 PUSH2 0x1A8F JUMP JUMPDEST SWAP3 SWAP2 POP POP JUMP JUMPDEST PUSH1 0x0 PUSH1 0x20 DUP3 ADD SWAP1 POP PUSH2 0x1E05 PUSH1 0x0 DUP4 ADD DUP5 PUSH2 0x1B5A JUMP JUMPDEST SWAP3 SWAP2 POP POP JUMP JUMPDEST PUSH1 0x0 PUSH1 0x20 DUP3 ADD SWAP1 POP PUSH2 0x1E20 PUSH1 0x0 DUP4 ADD DUP5 PUSH2 0x1B78 JUMP JUMPDEST SWAP3 SWAP2 POP POP JUMP JUMPDEST PUSH1 0x0 PUSH1 0x20 DUP3 ADD SWAP1 POP DUP2 DUP2 SUB PUSH1 0x0 DUP4 ADD MSTORE PUSH2 0x1E40 DUP2 DUP5 PUSH2 0x1B96 JUMP JUMPDEST SWAP1 POP SWAP3 SWAP2 POP POP JUMP JUMPDEST PUSH1 0x0 PUSH1 0x40 DUP3 ADD SWAP1 POP DUP2 DUP2 SUB PUSH1 0x0 DUP4 ADD MSTORE PUSH2 0x1E62 DUP2 DUP6 PUSH2 0x1B96 JUMP JUMPDEST SWAP1 POP PUSH2 0x1E71 PUSH1 0x20 DUP4 ADD DUP5 PUSH2 0x1B5A JUMP JUMPDEST SWAP4 SWAP3 POP POP POP JUMP JUMPDEST PUSH1 0x0 PUSH1 0xC0 DUP3 ADD SWAP1 POP DUP2 DUP2 SUB PUSH1 0x0 DUP4 ADD MSTORE PUSH2 0x1E92 DUP2 DUP9 PUSH2 0x1B96 JUMP JUMPDEST SWAP1 POP PUSH2 0x1EA1 PUSH1 0x20 DUP4 ADD DUP8 PUSH2 0x1B78 JUMP JUMPDEST PUSH2 0x1EAE PUSH1 0x40 DUP4 ADD DUP7 PUSH2 0x1CAF JUMP JUMPDEST DUP2 DUP2 SUB PUSH1 0x80 DUP4 ADD MSTORE PUSH2 0x1EC0 DUP2 DUP6 PUSH2 0x1CDE JUMP JUMPDEST SWAP1 POP PUSH2 0x1ECF PUSH1 0xA0 DUP4 ADD DUP5 PUSH2 0x1B5A JUMP JUMPDEST SWAP7 SWAP6 POP POP POP POP POP POP JUMP JUMPDEST PUSH1 0x0 PUSH1 0x20 DUP3 ADD SWAP1 POP DUP2 DUP2 SUB PUSH1 0x0 DUP4 ADD MSTORE PUSH2 0x1EF2 DUP2 PUSH2 0x1C00 JUMP JUMPDEST SWAP1 POP SWAP2 SWAP1 POP JUMP JUMPDEST PUSH1 0x0 PUSH1 0x20 DUP3 ADD SWAP1 POP DUP2 DUP2 SUB PUSH1 0x0 DUP4 ADD MSTORE PUSH2 0x1F12 DUP2 PUSH2 0x1C23 JUMP JUMPDEST SWAP1 POP SWAP2 SWAP1 POP JUMP JUMPDEST PUSH1 0x0 PUSH1 0x20 DUP3 ADD SWAP1 POP DUP2 DUP2 SUB PUSH1 0x0 DUP4 ADD MSTORE PUSH2 0x1F32 DUP2 PUSH2 0x1C8C JUMP JUMPDEST SWAP1 POP SWAP2 SWAP1 POP JUMP JUMPDEST PUSH1 0x0 PUSH2 0x1F43 PUSH2 0x1F54 JUMP JUMPDEST SWAP1 POP PUSH2 0x1F4F DUP3 DUP3 PUSH2 0x228C JUMP JUMPDEST SWAP2 SWAP1 POP JUMP JUMPDEST PUSH1 0x0 PUSH1 0x40 MLOAD SWAP1 POP SWAP1 JUMP JUMPDEST PUSH1 0x0 PUSH8 0xFFFFFFFFFFFFFFFF DUP3 GT ISZERO PUSH2 0x1F79 JUMPI PUSH2 0x1F78 PUSH2 0x2379 JUMP JUMPDEST JUMPDEST PUSH1 0x20 DUP3 MUL SWAP1 POP PUSH1 0x20 DUP2 ADD SWAP1 POP SWAP2 SWAP1 POP JUMP JUMPDEST PUSH1 0x0 PUSH8 0xFFFFFFFFFFFFFFFF DUP3 GT ISZERO PUSH2 0x1FA5 JUMPI PUSH2 0x1FA4 PUSH2 0x2379 JUMP JUMPDEST JUMPDEST PUSH1 0x20 DUP3 MUL SWAP1 POP PUSH1 0x20 DUP2 ADD SWAP1 POP SWAP2 SWAP1 POP JUMP JUMPDEST PUSH1 0x0 PUSH8 0xFFFFFFFFFFFFFFFF DUP3 GT ISZERO PUSH2 0x1FD1 JUMPI PUSH2 0x1FD0 PUSH2 0x2379 JUMP JUMPDEST JUMPDEST PUSH2 0x1FDA DUP3 PUSH2 0x23CB JUMP JUMPDEST SWAP1 POP PUSH1 0x20 DUP2 ADD SWAP1 POP SWAP2 SWAP1 POP JUMP JUMPDEST PUSH1 0x0 DUP2 SWAP1 POP PUSH1 0x20 DUP3 ADD SWAP1 POP SWAP2 SWAP1 POP JUMP JUMPDEST PUSH1 0x0 DUP2 SWAP1 POP PUSH1 0x20 DUP3 ADD SWAP1 POP SWAP2 SWAP1 POP JUMP JUMPDEST PUSH1 0x0 DUP2 MLOAD SWAP1 POP SWAP2 SWAP1 POP JUMP JUMPDEST PUSH1 0x0 DUP2 MLOAD SWAP1 POP SWAP2 SWAP1 POP JUMP JUMPDEST PUSH1 0x0 DUP2 MLOAD SWAP1 POP SWAP2 SWAP1 POP JUMP JUMPDEST PUSH1 0x0 PUSH1 0x20 DUP3 ADD SWAP1 POP SWAP2 SWAP1 POP JUMP JUMPDEST PUSH1 0x0 PUSH1 0x20 DUP3 ADD SWAP1 POP SWAP2 SWAP1 POP JUMP JUMPDEST PUSH1 0x0 DUP3 DUP3 MSTORE PUSH1 0x20 DUP3 ADD SWAP1 POP SWAP3 SWAP2 POP POP JUMP JUMPDEST PUSH1 0x0 DUP3 DUP3 MSTORE PUSH1 0x20 DUP3 ADD SWAP1 POP SWAP3 SWAP2 POP POP JUMP JUMPDEST PUSH1 0x0 DUP3 DUP3 MSTORE PUSH1 0x20 DUP3 ADD SWAP1 POP SWAP3 SWAP2 POP POP JUMP JUMPDEST PUSH1 0x0 DUP2 SWAP1 POP SWAP3 SWAP2 POP POP JUMP JUMPDEST PUSH1 0x0 PUSH2 0x208B DUP3 PUSH2 0x21C5 JUMP JUMPDEST SWAP2 POP PUSH2 0x2096 DUP4 PUSH2 0x21C5 JUMP JUMPDEST SWAP3 POP DUP3 PUSH32 0xFFFFFFFFFFFFFFFFFFFFFFFFFFFFFFFFFFFFFFFFFFFFFFFFFFFFFFFFFFFFFFFF SUB DUP3 GT ISZERO PUSH2 0x20CB JUMPI PUSH2 0x20CA PUSH2 0x22BD JUMP JUMPDEST JUMPDEST DUP3 DUP3 ADD SWAP1 POP SWAP3 SWAP2 POP POP JUMP JUMPDEST PUSH1 0x0 PUSH2 0x20E1 DUP3 PUSH2 0x21C5 JUMP JUMPDEST SWAP2 POP PUSH2 0x20EC DUP4 PUSH2 0x21C5 JUMP JUMPDEST SWAP3 POP DUP2 PUSH32 0xFFFFFFFFFFFFFFFFFFFFFFFFFFFFFFFFFFFFFFFFFFFFFFFFFFFFFFFFFFFFFFFF DIV DUP4 GT DUP3 ISZERO ISZERO AND ISZERO PUSH2 0x2125 JUMPI PUSH2 0x2124 PUSH2 0x22BD JUMP JUMPDEST JUMPDEST DUP3 DUP3 MUL SWAP1 POP SWAP3 SWAP2 POP POP JUMP JUMPDEST PUSH1 0x0 PUSH2 0x213B DUP3 PUSH2 0x21A5 JUMP JUMPDEST SWAP1 POP SWAP2 SWAP1 POP JUMP JUMPDEST PUSH1 0x0 DUP2 ISZERO ISZERO SWAP1 POP SWAP2 SWAP1 POP JUMP JUMPDEST PUSH1 0x0 DUP2 SWAP1 POP SWAP2 SWAP1 POP JUMP JUMPDEST PUSH1 0x0 PUSH32 0xFFFFFFFF00000000000000000000000000000000000000000000000000000000 DUP3 AND SWAP1 POP SWAP2 SWAP1 POP JUMP JUMPDEST PUSH1 0x0 DUP2 SWAP1 POP PUSH2 0x2192 DUP3 PUSH2 0x24CF JUMP JUMPDEST SWAP2 SWAP1 POP JUMP JUMPDEST PUSH1 0x0 PUSH2 0xFFFF DUP3 AND SWAP1 POP SWAP2 SWAP1 POP JUMP JUMPDEST PUSH1 0x0 PUSH20 0xFFFFFFFFFFFFFFFFFFFFFFFFFFFFFFFFFFFFFFFF DUP3 AND SWAP1 POP SWAP2 SWAP1 POP JUMP JUMPDEST PUSH1 0x0 DUP2 SWAP1 POP SWAP2 SWAP1 POP JUMP JUMPDEST PUSH1 0x0 PUSH1 0xFF DUP3 AND SWAP1 POP SWAP2 SWAP1 POP JUMP JUMPDEST PUSH1 0x0 PUSH2 0x21E7 DUP3 PUSH2 0x2184 JUMP JUMPDEST SWAP1 POP SWAP2 SWAP1 POP JUMP JUMPDEST DUP3 DUP2 DUP4 CALLDATACOPY PUSH1 0x0 DUP4 DUP4 ADD MSTORE POP POP POP JUMP JUMPDEST PUSH1 0x0 JUMPDEST DUP4 DUP2 LT ISZERO PUSH2 0x221B JUMPI DUP1 DUP3 ADD MLOAD DUP2 DUP5 ADD MSTORE PUSH1 0x20 DUP2 ADD SWAP1 POP PUSH2 0x2200 JUMP JUMPDEST DUP4 DUP2 GT ISZERO PUSH2 0x222A JUMPI PUSH1 0x0 DUP5 DUP5 ADD MSTORE JUMPDEST POP POP POP POP JUMP JUMPDEST PUSH1 0x0 PUSH2 0x223B DUP3 PUSH2 0x21C5 JUMP JUMPDEST SWAP2 POP PUSH1 0x0 DUP3 EQ ISZERO PUSH2 0x224F JUMPI PUSH2 0x224E PUSH2 0x22BD JUMP JUMPDEST JUMPDEST PUSH1 0x1 DUP3 SUB SWAP1 POP SWAP2 SWAP1 POP JUMP JUMPDEST PUSH1 0x0 PUSH1 0x2 DUP3 DIV SWAP1 POP PUSH1 0x1 DUP3 AND DUP1 PUSH2 0x2272 JUMPI PUSH1 0x7F DUP3 AND SWAP2 POP JUMPDEST PUSH1 0x20 DUP3 LT DUP2 EQ ISZERO PUSH2 0x2286 JUMPI PUSH2 0x2285 PUSH2 0x231B JUMP JUMPDEST JUMPDEST POP SWAP2 SWAP1 POP JUMP JUMPDEST PUSH2 0x2295 DUP3 PUSH2 0x23CB JUMP JUMPDEST DUP2 ADD DUP2 DUP2 LT PUSH8 0xFFFFFFFFFFFFFFFF DUP3 GT OR ISZERO PUSH2 0x22B4 JUMPI PUSH2 0x22B3 PUSH2 0x2379 JUMP JUMPDEST JUMPDEST DUP1 PUSH1 0x40 MSTORE POP POP POP JUMP JUMPDEST PUSH32 0x4E487B7100000000000000000000000000000000000000000000000000000000 PUSH1 0x0 MSTORE PUSH1 0x11 PUSH1 0x4 MSTORE PUSH1 0x24 PUSH1 0x0 REVERT JUMPDEST PUSH32 0x4E487B7100000000000000000000000000000000000000000000000000000000 PUSH1 0x0 MSTORE PUSH1 0x21 PUSH1 0x4 MSTORE PUSH1 0x24 PUSH1 0x0 REVERT JUMPDEST PUSH32 0x4E487B7100000000000000000000000000000000000000000000000000000000 PUSH1 0x0 MSTORE PUSH1 0x22 PUSH1 0x4 MSTORE PUSH1 0x24 PUSH1 0x0 REVERT JUMPDEST PUSH32 0x4E487B7100000000000000000000000000000000000000000000000000000000 PUSH1 0x0 MSTORE PUSH1 0x32 PUSH1 0x4 MSTORE PUSH1 0x24 PUSH1 0x0 REVERT JUMPDEST PUSH32 0x4E487B7100000000000000000000000000000000000000000000000000000000 PUSH1 0x0 MSTORE PUSH1 0x41 PUSH1 0x4 MSTORE PUSH1 0x24 PUSH1 0x0 REVERT JUMPDEST PUSH1 0x0 DUP1 REVERT JUMPDEST PUSH1 0x0 DUP1 REVERT JUMPDEST PUSH1 0x0 DUP1 REVERT JUMPDEST PUSH1 0x0 DUP1 REVERT JUMPDEST PUSH1 0x0 DUP1 REVERT JUMPDEST PUSH1 0x0 DUP1 REVERT JUMPDEST PUSH1 0x0 DUP1 REVERT JUMPDEST PUSH1 0x0 PUSH1 0x1F NOT PUSH1 0x1F DUP4 ADD AND SWAP1 POP SWAP2 SWAP1 POP JUMP JUMPDEST PUSH32 0x537472696E67733A20686578206C656E67746820696E73756666696369656E74 PUSH1 0x0 DUP3 ADD MSTORE POP JUMP JUMPDEST PUSH32 0x416C726561647920696E697469616C697A656400000000000000000000000000 PUSH1 0x0 DUP3 ADD MSTORE POP JUMP JUMPDEST PUSH32 0x416363657373436F6E74726F6C3A206163636F756E7420000000000000000000 PUSH1 0x0 DUP3 ADD MSTORE POP JUMP JUMPDEST PUSH32 0x206973206D697373696E6720726F6C6520000000000000000000000000000000 PUSH1 0x0 DUP3 ADD MSTORE POP JUMP JUMPDEST PUSH32 0x416363657373436F6E74726F6C3A2063616E206F6E6C792072656E6F756E6365 PUSH1 0x0 DUP3 ADD MSTORE PUSH32 0x20726F6C657320666F722073656C660000000000000000000000000000000000 PUSH1 0x20 DUP3 ADD MSTORE POP JUMP JUMPDEST PUSH1 0x3 DUP2 LT PUSH2 0x24E0 JUMPI PUSH2 0x24DF PUSH2 0x22EC JUMP JUMPDEST JUMPDEST POP JUMP JUMPDEST PUSH2 0x24EC DUP2 PUSH2 0x2130 JUMP JUMPDEST DUP2 EQ PUSH2 0x24F7 JUMPI PUSH1 0x0 DUP1 REVERT JUMPDEST POP JUMP JUMPDEST PUSH2 0x2503 DUP2 PUSH2 0x214E JUMP JUMPDEST DUP2 EQ PUSH2 0x250E JUMPI PUSH1 0x0 DUP1 REVERT JUMPDEST POP JUMP JUMPDEST PUSH2 0x251A DUP2 PUSH2 0x2158 JUMP JUMPDEST DUP2 EQ PUSH2 0x2525 JUMPI PUSH1 0x0 DUP1 REVERT JUMPDEST POP JUMP JUMPDEST PUSH1 0x3 DUP2 LT PUSH2 0x2535 JUMPI PUSH1 0x0 DUP1 REVERT JUMPDEST POP JUMP JUMPDEST PUSH2 0x2541 DUP2 PUSH2 0x2197 JUMP JUMPDEST DUP2 EQ PUSH2 0x254C JUMPI PUSH1 0x0 DUP1 REVERT JUMPDEST POP JUMP JUMPDEST PUSH2 0x2558 DUP2 PUSH2 0x21C5 JUMP JUMPDEST DUP2 EQ PUSH2 0x2563 JUMPI PUSH1 0x0 DUP1 REVERT JUMPDEST POP JUMP JUMPDEST PUSH2 0x256F DUP2 PUSH2 0x21CF JUMP JUMPDEST DUP2 EQ PUSH2 0x257A JUMPI PUSH1 0x0 DUP1 REVERT JUMPDEST POP JUMP INVALID LOG2 PUSH5 0x6970667358 0x22 SLT KECCAK256 DUP8 0xE9 LOG3 0xF 0xAF CODESIZE 0xD4 SELFDESTRUCT 0x2D PUSH8 0xC511FE0B03608241 PUSH17 0x52886DBC0BEAE57D15D3BEC01E64736F6C PUSH4 0x43000806 STOP CALLER "
		},
		"gasEstimates": {
			"creation": {
				"codeDepositCost": "1509600",
				"executionCost": "infinite",
				"totalCost": "infinite"
			},
			"external": {
				"addDoctor(address,bytes32,bytes32)": "infinite",
				"addPatient((bytes32,bytes32),uint256,(uint16,uint16),string[],(bool,bool,bool))": "infinite",
				"getName()": "2415",
				"prescribe(address,string,bytes32,(uint16,bytes32),(uint256,uint256,uint8,uint8,bytes32[],uint16[]))": "infinite"
			}
		},
		"methodIdentifiers": {
			"addDoctor(address,bytes32,bytes32)": "b24083a1",
			"addPatient((bytes32,bytes32),uint256,(uint16,uint16),string[],(bool,bool,bool))": "24882df8",
			"getName()": "17d7de7c",
			"prescribe(address,string,bytes32,(uint16,bytes32),(uint256,uint256,uint8,uint8,bytes32[],uint16[]))": "c37f2f28"
		}
	},
	"abi": [
		{
			"inputs": [
				{
					"internalType": "address",
					"name": "manager_",
					"type": "address"
				},
				{
					"internalType": "bytes32",
					"name": "name_",
					"type": "bytes32"
				}
			],
			"stateMutability": "nonpayable",
			"type": "constructor"
		},
		{
			"inputs": [
				{
					"internalType": "address",
					"name": "owner_",
					"type": "address"
				},
				{
					"internalType": "bytes32",
					"name": "name_",
					"type": "bytes32"
				},
				{
					"internalType": "bytes32",
					"name": "affiliate_",
					"type": "bytes32"
				}
			],
			"name": "addDoctor",
			"outputs": [],
			"stateMutability": "nonpayable",
			"type": "function"
		},
		{
			"inputs": [
				{
					"components": [
						{
							"internalType": "bytes32",
							"name": "value1",
							"type": "bytes32"
						},
						{
							"internalType": "bytes32",
							"name": "value2",
							"type": "bytes32"
						}
					],
					"internalType": "struct Bytes32Pair",
					"name": "nameGender_",
					"type": "tuple"
				},
				{
					"internalType": "uint256",
					"name": "dob_",
					"type": "uint256"
				},
				{
					"components": [
						{
							"internalType": "uint16",
							"name": "value1",
							"type": "uint16"
						},
						{
							"internalType": "uint16",
							"name": "value2",
							"type": "uint16"
						}
					],
					"internalType": "struct SmallUintPair",
					"name": "physique_",
					"type": "tuple"
				},
				{
					"internalType": "string[]",
					"name": "allergy_",
					"type": "string[]"
				},
				{
					"components": [
						{
							"internalType": "bool",
							"name": "value1",
							"type": "bool"
						},
						{
							"internalType": "bool",
							"name": "value2",
							"type": "bool"
						},
						{
							"internalType": "bool",
							"name": "value3",
							"type": "bool"
						}
					],
					"internalType": "struct BoolTriple",
					"name": "habits_",
					"type": "tuple"
				}
			],
			"name": "addPatient",
			"outputs": [],
			"stateMutability": "nonpayable",
			"type": "function"
		},
		{
			"inputs": [],
			"name": "getName",
			"outputs": [
				{
					"internalType": "bytes32",
					"name": "name_",
					"type": "bytes32"
				}
			],
			"stateMutability": "view",
			"type": "function"
		},
		{
			"inputs": [
				{
					"internalType": "address",
					"name": "patient_",
					"type": "address"
				},
				{
					"internalType": "string",
					"name": "medicine_",
					"type": "string"
				},
				{
					"internalType": "bytes32",
					"name": "form_",
					"type": "bytes32"
				},
				{
					"components": [
						{
							"internalType": "uint16",
							"name": "strength",
							"type": "uint16"
						},
						{
							"internalType": "bytes32",
							"name": "unit",
							"type": "bytes32"
						}
					],
					"internalType": "struct Dosage",
					"name": "dosage_",
					"type": "tuple"
				},
				{
					"components": [
						{
							"internalType": "uint256",
							"name": "startDate",
							"type": "uint256"
						},
						{
							"internalType": "uint256",
							"name": "endDate",
							"type": "uint256"
						},
						{
							"internalType": "enum Frequency",
							"name": "frequency",
							"type": "uint8"
						},
						{
							"internalType": "uint8",
							"name": "interval",
							"type": "uint8"
						},
						{
							"internalType": "bytes32[]",
							"name": "daysOfWeek",
							"type": "bytes32[]"
						},
						{
							"internalType": "uint16[]",
							"name": "timesOfDay",
							"type": "uint16[]"
						}
					],
					"internalType": "struct Schedule",
					"name": "schedule_",
					"type": "tuple"
				}
			],
			"name": "prescribe",
			"outputs": [],
			"stateMutability": "nonpayable",
			"type": "function"
		}
	]
}