{
	"data": {
		"bytecode": {
			"linkReferences": {},
			"object": "608060405260405162000012906200036f565b604051809103906000f0801580156200002f573d6000803e3d6000fd5b50600360006101000a81548173ffffffffffffffffffffffffffffffffffffffff021916908373ffffffffffffffffffffffffffffffffffffffff1602179055506040516200007e906200037d565b604051809103906000f0801580156200009b573d6000803e3d6000fd5b50600460006101000a81548173ffffffffffffffffffffffffffffffffffffffff021916908373ffffffffffffffffffffffffffffffffffffffff160217905550348015620000e957600080fd5b506200011c7fe5a0b4d50f56047f84728557fedbda92f956391bc9d5c762e8461996dd8e7ad7336200017460201b60201c565b6200016e7faf31c50b4aab7af0193b792816047837f36c88a23bbb4d0e3581c88cb4bf86ab7fe5a0b4d50f56047f84728557fedbda92f956391bc9d5c762e8461996dd8e7ad76200018a60201b60201c565b6200038b565b620001868282620001ed60201b60201c565b5050565b60006200019d83620002de60201b60201c565b905081600080858152602001908152602001600020600101819055508181847fbd79b86ffe0ab8e8776151514217cd7cacd52c909f66475c3af44e129f0b00ff60405160405180910390a4505050565b620001ff8282620002fd60201b60201c565b620002da57600160008084815260200190815260200160002060000160008373ffffffffffffffffffffffffffffffffffffffff1673ffffffffffffffffffffffffffffffffffffffff16815260200190815260200160002060006101000a81548160ff0219169083151502179055506200027f6200036760201b60201c565b73ffffffffffffffffffffffffffffffffffffffff168173ffffffffffffffffffffffffffffffffffffffff16837f2f8788117e7eff1d82e926ec794901d17c78024a50270940304540a733656f0d60405160405180910390a45b5050565b6000806000838152602001908152602001600020600101549050919050565b600080600084815260200190815260200160002060000160008373ffffffffffffffffffffffffffffffffffffffff1673ffffffffffffffffffffffffffffffffffffffff16815260200190815260200160002060009054906101000a900460ff16905092915050565b600033905090565b6121458062002dc783390190565b614ba28062004f0c83390190565b612a2c806200039b6000396000f3fe608060405234801561001057600080fd5b50600436106101005760003560e01c806391d1485411610097578063b5368e2011610066578063b5368e20146102a9578063d547741f146102d9578063f45edb5f146102f5578063f804d8361461031357610100565b806391d1485414610223578063a217fddf14610253578063a4cbaf3114610271578063b32752161461028d57610100565b80632f04e064116100d35780632f04e0641461019f5780632f2ff15d146101cf57806336568abe146101eb578063832ff2101461020757610100565b806301ffc9a714610105578063080121da1461013557806315bf3c0914610153578063248a9ca31461016f575b600080fd5b61011f600480360381019061011a9190611c74565b610343565b60405161012c91906122b0565b60405180910390f35b61013d6103bd565b60405161014a91906122cb565b60405180910390f35b61016d60048036038101906101689190611b17565b6103e1565b005b61018960048036038101906101849190611bc7565b6106ab565b60405161019691906122cb565b60405180910390f35b6101b960048036038101906101b49190611abd565b6106ca565b6040516101c691906121b6565b60405180910390f35b6101e960048036038101906101e49190611bf4565b610733565b005b61020560048036038101906102009190611bf4565b610754565b005b610221600480360381019061021c9190611abd565b6107d7565b005b61023d60048036038101906102389190611bf4565b610a11565b60405161024a91906122b0565b60405180910390f35b61025b610a7b565b60405161026891906122cb565b60405180910390f35b61028b60048036038101906102869190611abd565b610a82565b005b6102a760048036038101906102a29190611ca1565b610c24565b005b6102c360048036038101906102be9190611abd565b610e6c565b6040516102d091906121b6565b60405180910390f35b6102f360048036038101906102ee9190611bf4565b610ed5565b005b6102fd610ef6565b60405161030a91906122cb565b60405180910390f35b61032d60048036038101906103289190611b7e565b610f1a565b60405161033a919061228e565b60405180910390f35b60007f7965db0b000000000000000000000000000000000000000000000000000000007bffffffffffffffffffffffffffffffffffffffffffffffffffffffff1916827bffffffffffffffffffffffffffffffffffffffffffffffffffffffff191614806103b657506103b5826111b7565b5b9050919050565b7faf31c50b4aab7af0193b792816047837f36c88a23bbb4d0e3581c88cb4bf86ab81565b61040b7fe5a0b4d50f56047f84728557fedbda92f956391bc9d5c762e8461996dd8e7ad733610a11565b8061043c575061043b7faf31c50b4aab7af0193b792816047837f36c88a23bbb4d0e3581c88cb4bf86ab33610a11565b5b61047b576040517f08c379a000000000000000000000000000000000000000000000000000000000815260040161047290612388565b60405180910390fd5b600073ffffffffffffffffffffffffffffffffffffffff16600160008673ffffffffffffffffffffffffffffffffffffffff1673ffffffffffffffffffffffffffffffffffffffff16815260200190815260200160002060009054906101000a900473ffffffffffffffffffffffffffffffffffffffff1673ffffffffffffffffffffffffffffffffffffffff1614610549576040517f08c379a000000000000000000000000000000000000000000000000000000000815260040161054090612368565b60405180910390fd5b600360009054906101000a900473ffffffffffffffffffffffffffffffffffffffff1673ffffffffffffffffffffffffffffffffffffffff1663f13e4869858585604051806040016040528087151581526020013373ffffffffffffffffffffffffffffffffffffffff168152506040518563ffffffff1660e01b81526004016105d694939291906121d1565b602060405180830381600087803b1580156105f057600080fd5b505af1158015610604573d6000803e3d6000fd5b505050506040513d601f19601f820116820180604052508101906106289190611aea565b600160008673ffffffffffffffffffffffffffffffffffffffff1673ffffffffffffffffffffffffffffffffffffffff16815260200190815260200160002060006101000a81548173ffffffffffffffffffffffffffffffffffffffff021916908373ffffffffffffffffffffffffffffffffffffffff16021790555050505050565b6000806000838152602001908152602001600020600101549050919050565b6000600160008373ffffffffffffffffffffffffffffffffffffffff1673ffffffffffffffffffffffffffffffffffffffff16815260200190815260200160002060009054906101000a900473ffffffffffffffffffffffffffffffffffffffff169050919050565b61073c826106ab565b61074581611221565b61074f8383611235565b505050565b61075c611315565b73ffffffffffffffffffffffffffffffffffffffff168173ffffffffffffffffffffffffffffffffffffffff16146107c9576040517f08c379a00000000000000000000000000000000000000000000000000000000081526004016107c0906123a8565b60405180910390fd5b6107d3828261131d565b5050565b600073ffffffffffffffffffffffffffffffffffffffff16600160003373ffffffffffffffffffffffffffffffffffffffff1673ffffffffffffffffffffffffffffffffffffffff16815260200190815260200160002060009054906101000a900473ffffffffffffffffffffffffffffffffffffffff1673ffffffffffffffffffffffffffffffffffffffff16141580156108ff5750600073ffffffffffffffffffffffffffffffffffffffff16600260008373ffffffffffffffffffffffffffffffffffffffff1673ffffffffffffffffffffffffffffffffffffffff16815260200190815260200160002060009054906101000a900473ffffffffffffffffffffffffffffffffffffffff1673ffffffffffffffffffffffffffffffffffffffff1614155b61093e576040517f08c379a000000000000000000000000000000000000000000000000000000000815260040161093590612328565b60405180910390fd5b6000600260008373ffffffffffffffffffffffffffffffffffffffff1673ffffffffffffffffffffffffffffffffffffffff16815260200190815260200160002060009054906101000a900473ffffffffffffffffffffffffffffffffffffffff1690508073ffffffffffffffffffffffffffffffffffffffff16639aca66f8336040518263ffffffff1660e01b81526004016109db91906121b6565b600060405180830381600087803b1580156109f557600080fd5b505af1158015610a09573d6000803e3d6000fd5b505050505050565b600080600084815260200190815260200160002060000160008373ffffffffffffffffffffffffffffffffffffffff1673ffffffffffffffffffffffffffffffffffffffff16815260200190815260200160002060009054906101000a900460ff16905092915050565b6000801b81565b600073ffffffffffffffffffffffffffffffffffffffff16600260008373ffffffffffffffffffffffffffffffffffffffff1673ffffffffffffffffffffffffffffffffffffffff16815260200190815260200160002060009054906101000a900473ffffffffffffffffffffffffffffffffffffffff1673ffffffffffffffffffffffffffffffffffffffff161415610b51576040517f08c379a0000000000000000000000000000000000000000000000000000000008152600401610b4890612348565b60405180910390fd5b6000600260008373ffffffffffffffffffffffffffffffffffffffff1673ffffffffffffffffffffffffffffffffffffffff16815260200190815260200160002060009054906101000a900473ffffffffffffffffffffffffffffffffffffffff1690508073ffffffffffffffffffffffffffffffffffffffff1663e3a5a4de336040518263ffffffff1660e01b8152600401610bee91906121b6565b600060405180830381600087803b158015610c0857600080fd5b505af1158015610c1c573d6000803e3d6000fd5b505050505050565b600073ffffffffffffffffffffffffffffffffffffffff1660026000836020015173ffffffffffffffffffffffffffffffffffffffff1673ffffffffffffffffffffffffffffffffffffffff16815260200190815260200160002060009054906101000a900473ffffffffffffffffffffffffffffffffffffffff1673ffffffffffffffffffffffffffffffffffffffff1614610cf6576040517f08c379a0000000000000000000000000000000000000000000000000000000008152600401610ced90612368565b60405180910390fd5b600460009054906101000a900473ffffffffffffffffffffffffffffffffffffffff1673ffffffffffffffffffffffffffffffffffffffff1663b4a9ebf38260200151888888888860405180604001604052808a60000151151581526020013373ffffffffffffffffffffffffffffffffffffffff168152506040518863ffffffff1660e01b8152600401610d919796959493929190612216565b602060405180830381600087803b158015610dab57600080fd5b505af1158015610dbf573d6000803e3d6000fd5b505050506040513d601f19601f82011682018060405250810190610de39190611aea565b60026000836020015173ffffffffffffffffffffffffffffffffffffffff1673ffffffffffffffffffffffffffffffffffffffff16815260200190815260200160002060006101000a81548173ffffffffffffffffffffffffffffffffffffffff021916908373ffffffffffffffffffffffffffffffffffffffff160217905550505050505050565b6000600260008373ffffffffffffffffffffffffffffffffffffffff1673ffffffffffffffffffffffffffffffffffffffff16815260200190815260200160002060009054906101000a900473ffffffffffffffffffffffffffffffffffffffff169050919050565b610ede826106ab565b610ee781611221565b610ef1838361131d565b505050565b7fe5a0b4d50f56047f84728557fedbda92f956391bc9d5c762e8461996dd8e7ad781565b6060815167ffffffffffffffff811115610f3757610f366127a0565b5b604051908082528060200260200182016040528015610f7057816020015b610f5d6116d7565b815260200190600190039081610f555790505b50905060005b82518110156111b157600073ffffffffffffffffffffffffffffffffffffffff1660016000858481518110610fae57610fad612771565b5b602002602001015173ffffffffffffffffffffffffffffffffffffffff1673ffffffffffffffffffffffffffffffffffffffff16815260200190815260200160002060009054906101000a900473ffffffffffffffffffffffffffffffffffffffff1673ffffffffffffffffffffffffffffffffffffffff16141561106b5760405180604001604052806000801b81526020016000801b81525082828151811061105b5761105a612771565b5b602002602001018190525061119e565b6000806001600086858151811061108557611084612771565b5b602002602001015173ffffffffffffffffffffffffffffffffffffffff1673ffffffffffffffffffffffffffffffffffffffff16815260200190815260200160002060009054906101000a900473ffffffffffffffffffffffffffffffffffffffff1673ffffffffffffffffffffffffffffffffffffffff16635a9b0b896040518163ffffffff1660e01b8152600401604080518083038186803b15801561112c57600080fd5b505afa158015611140573d6000803e3d6000fd5b505050506040513d601f19601f820116820180604052508101906111649190611c34565b915091506040518060400160405280838152602001828152508484815181106111905761118f612771565b5b602002602001018190525050505b80806111a9906126f9565b915050610f76565b50919050565b60007f01ffc9a7000000000000000000000000000000000000000000000000000000007bffffffffffffffffffffffffffffffffffffffffffffffffffffffff1916827bffffffffffffffffffffffffffffffffffffffffffffffffffffffff1916149050919050565b6112328161122d611315565b6113fe565b50565b61123f8282610a11565b61131157600160008084815260200190815260200160002060000160008373ffffffffffffffffffffffffffffffffffffffff1673ffffffffffffffffffffffffffffffffffffffff16815260200190815260200160002060006101000a81548160ff0219169083151502179055506112b6611315565b73ffffffffffffffffffffffffffffffffffffffff168173ffffffffffffffffffffffffffffffffffffffff16837f2f8788117e7eff1d82e926ec794901d17c78024a50270940304540a733656f0d60405160405180910390a45b5050565b600033905090565b6113278282610a11565b156113fa57600080600084815260200190815260200160002060000160008373ffffffffffffffffffffffffffffffffffffffff1673ffffffffffffffffffffffffffffffffffffffff16815260200190815260200160002060006101000a81548160ff02191690831515021790555061139f611315565b73ffffffffffffffffffffffffffffffffffffffff168173ffffffffffffffffffffffffffffffffffffffff16837ff6391f5c32d9c69d2a47ea670b442974b53935d1edc7fd64eb21e047a839171b60405160405180910390a45b5050565b6114088282610a11565b6114975761142d8173ffffffffffffffffffffffffffffffffffffffff16601461149b565b61143b8360001c602061149b565b60405160200161144c92919061217c565b6040516020818303038152906040526040517f08c379a000000000000000000000000000000000000000000000000000000000815260040161148e91906122e6565b60405180910390fd5b5050565b6060600060028360026114ae9190612576565b6114b89190612520565b67ffffffffffffffff8111156114d1576114d06127a0565b5b6040519080825280601f01601f1916602001820160405280156115035781602001600182028036833780820191505090505b5090507f30000000000000000000000000000000000000000000000000000000000000008160008151811061153b5761153a612771565b5b60200101907effffffffffffffffffffffffffffffffffffffffffffffffffffffffffffff1916908160001a9053507f78000000000000000000000000000000000000000000000000000000000000008160018151811061159f5761159e612771565b5b60200101907effffffffffffffffffffffffffffffffffffffffffffffffffffffffffffff1916908160001a905350600060018460026115df9190612576565b6115e99190612520565b90505b6001811115611689577f3031323334353637383961626364656600000000000000000000000000000000600f86166010811061162b5761162a612771565b5b1a60f81b82828151811061164257611641612771565b5b60200101907effffffffffffffffffffffffffffffffffffffffffffffffffffffffffffff1916908160001a905350600485901c9450806116829061269e565b90506115ec565b50600084146116cd576040517f08c379a00000000000000000000000000000000000000000000000000000000081526004016116c490612308565b60405180910390fd5b8091505092915050565b604051806040016040528060008019168152602001600080191681525090565b600061170a611705846123ed565b6123c8565b9050808382526020820190508285602086028201111561172d5761172c6127d9565b5b60005b8581101561175d57816117438882611837565b845260208401935060208301925050600181019050611730565b5050509392505050565b600061177a61177584612419565b6123c8565b9050808382526020820190508285602086028201111561179d5761179c6127d9565b5b60005b858110156117eb57813567ffffffffffffffff8111156117c3576117c26127cf565b5b8086016117d08982611911565b855260208501945060208401935050506001810190506117a0565b5050509392505050565b600061180861180384612445565b6123c8565b905082815260208101848484011115611824576118236127de565b5b61182f84828561265c565b509392505050565b6000813590506118468161296c565b92915050565b60008151905061185b8161296c565b92915050565b600082601f830112611876576118756127cf565b5b81356118868482602086016116f7565b91505092915050565b600082601f8301126118a4576118a36127cf565b5b81356118b4848260208601611767565b91505092915050565b6000813590506118cc81612983565b92915050565b6000813590506118e18161299a565b92915050565b6000815190506118f68161299a565b92915050565b60008135905061190b816129b1565b92915050565b600082601f830112611926576119256127cf565b5b81356119368482602086016117f5565b91505092915050565b600060608284031215611955576119546127d4565b5b61195f60606123c8565b9050600061196f848285016118bd565b6000830152506020611983848285016118bd565b6020830152506040611997848285016118bd565b60408301525092915050565b6000604082840312156119b9576119b86127d4565b5b6119c360406123c8565b905060006119d3848285016118d2565b60008301525060206119e7848285016118d2565b60208301525092915050565b600060408284031215611a0957611a086127d4565b5b611a1360406123c8565b90506000611a23848285016118bd565b6000830152506020611a3784828501611837565b60208301525092915050565b600060408284031215611a5957611a586127d4565b5b611a6360406123c8565b90506000611a7384828501611a93565b6000830152506020611a8784828501611a93565b60208301525092915050565b600081359050611aa2816129c8565b92915050565b600081359050611ab7816129df565b92915050565b600060208284031215611ad357611ad26127e8565b5b6000611ae184828501611837565b91505092915050565b600060208284031215611b0057611aff6127e8565b5b6000611b0e8482850161184c565b91505092915050565b60008060008060808587031215611b3157611b306127e8565b5b6000611b3f87828801611837565b9450506020611b50878288016118d2565b9350506040611b61878288016118d2565b9250506060611b72878288016118bd565b91505092959194509250565b600060208284031215611b9457611b936127e8565b5b600082013567ffffffffffffffff811115611bb257611bb16127e3565b5b611bbe84828501611861565b91505092915050565b600060208284031215611bdd57611bdc6127e8565b5b6000611beb848285016118d2565b91505092915050565b60008060408385031215611c0b57611c0a6127e8565b5b6000611c19858286016118d2565b9250506020611c2a85828601611837565b9150509250929050565b60008060408385031215611c4b57611c4a6127e8565b5b6000611c59858286016118e7565b9250506020611c6a858286016118e7565b9150509250929050565b600060208284031215611c8a57611c896127e8565b5b6000611c98848285016118fc565b91505092915050565b6000806000806000806101608789031215611cbf57611cbe6127e8565b5b6000611ccd89828a016119a3565b9650506040611cde89828a01611aa8565b9550506060611cef89828a01611a43565b94505060a087013567ffffffffffffffff811115611d1057611d0f6127e3565b5b611d1c89828a0161188f565b93505060c0611d2d89828a0161193f565b925050610120611d3f89828a016119f3565b9150509295509295509295565b6000611d588383611ea5565b905092915050565b6000611d6c83836120d1565b60408301905092915050565b611d81816125d0565b82525050565b611d90816125d0565b82525050565b6000611da182612496565b611dab81856124d1565b935083602082028501611dbd85612476565b8060005b85811015611df95784840389528151611dda8582611d4c565b9450611de5836124b7565b925060208a01995050600181019050611dc1565b50829750879550505050505092915050565b6000611e16826124a1565b611e2081856124e2565b9350611e2b83612486565b8060005b83811015611e5c578151611e438882611d60565b9750611e4e836124c4565b925050600181019050611e2f565b5085935050505092915050565b611e72816125e2565b82525050565b611e81816125e2565b82525050565b611e90816125ee565b82525050565b611e9f816125ee565b82525050565b6000611eb0826124ac565b611eba81856124f3565b9350611eca81856020860161266b565b611ed3816127ed565b840191505092915050565b6000611ee9826124ac565b611ef38185612504565b9350611f0381856020860161266b565b611f0c816127ed565b840191505092915050565b6000611f22826124ac565b611f2c8185612515565b9350611f3c81856020860161266b565b80840191505092915050565b6000611f55602083612504565b9150611f60826127fe565b602082019050919050565b6000611f78601f83612504565b9150611f8382612827565b602082019050919050565b6000611f9b601583612504565b9150611fa682612850565b602082019050919050565b6000611fbe600f83612504565b9150611fc982612879565b602082019050919050565b6000611fe1601783612515565b9150611fec826128a2565b601782019050919050565b6000612004600d83612504565b915061200f826128cb565b602082019050919050565b6000612027601183612515565b9150612032826128f4565b601182019050919050565b600061204a602f83612504565b91506120558261291d565b604082019050919050565b6060820160008201516120766000850182611e69565b5060208201516120896020850182611e69565b50604082015161209c6040850182611e69565b50505050565b6040820160008201516120b86000850182611e87565b5060208201516120cb6020850182611e87565b50505050565b6040820160008201516120e76000850182611e87565b5060208201516120fa6020850182611e87565b50505050565b6040820160008201516121166000850182611e69565b5060208201516121296020850182611d78565b50505050565b604082016000820151612145600085018261215e565b506020820151612158602085018261215e565b50505050565b61216781612624565b82525050565b61217681612652565b82525050565b600061218782611fd4565b91506121938285611f17565b915061219e8261201a565b91506121aa8284611f17565b91508190509392505050565b60006020820190506121cb6000830184611d87565b92915050565b600060a0820190506121e66000830187611d87565b6121f36020830186611e96565b6122006040830185611e96565b61220d6060830184612100565b95945050505050565b60006101808201905061222c600083018a611d87565b61223960208301896120a2565b612246606083018861216d565b612253608083018761212f565b81810360c08301526122658186611d96565b905061227460e0830185612060565b612282610140830184612100565b98975050505050505050565b600060208201905081810360008301526122a88184611e0b565b905092915050565b60006020820190506122c56000830184611e78565b92915050565b60006020820190506122e06000830184611e96565b92915050565b600060208201905081810360008301526123008184611ede565b905092915050565b6000602082019050818103600083015261232181611f48565b9050919050565b6000602082019050818103600083015261234181611f6b565b9050919050565b6000602082019050818103600083015261236181611f8e565b9050919050565b6000602082019050818103600083015261238181611fb1565b9050919050565b600060208201905081810360008301526123a181611ff7565b9050919050565b600060208201905081810360008301526123c18161203d565b9050919050565b60006123d26123e3565b90506123de82826126c8565b919050565b6000604051905090565b600067ffffffffffffffff821115612408576124076127a0565b5b602082029050602081019050919050565b600067ffffffffffffffff821115612434576124336127a0565b5b602082029050602081019050919050565b600067ffffffffffffffff8211156124605761245f6127a0565b5b612469826127ed565b9050602081019050919050565b6000819050602082019050919050565b6000819050602082019050919050565b600081519050919050565b600081519050919050565b600081519050919050565b6000602082019050919050565b6000602082019050919050565b600082825260208201905092915050565b600082825260208201905092915050565b600082825260208201905092915050565b600082825260208201905092915050565b600081905092915050565b600061252b82612652565b915061253683612652565b9250827fffffffffffffffffffffffffffffffffffffffffffffffffffffffffffffffff0382111561256b5761256a612742565b5b828201905092915050565b600061258182612652565b915061258c83612652565b9250817fffffffffffffffffffffffffffffffffffffffffffffffffffffffffffffffff04831182151516156125c5576125c4612742565b5b828202905092915050565b60006125db82612632565b9050919050565b60008115159050919050565b6000819050919050565b60007fffffffff0000000000000000000000000000000000000000000000000000000082169050919050565b600061ffff82169050919050565b600073ffffffffffffffffffffffffffffffffffffffff82169050919050565b6000819050919050565b82818337600083830152505050565b60005b8381101561268957808201518184015260208101905061266e565b83811115612698576000848401525b50505050565b60006126a982612652565b915060008214156126bd576126bc612742565b5b600182039050919050565b6126d1826127ed565b810181811067ffffffffffffffff821117156126f0576126ef6127a0565b5b80604052505050565b600061270482612652565b91507fffffffffffffffffffffffffffffffffffffffffffffffffffffffffffffffff82141561273757612736612742565b5b600182019050919050565b7f4e487b7100000000000000000000000000000000000000000000000000000000600052601160045260246000fd5b7f4e487b7100000000000000000000000000000000000000000000000000000000600052603260045260246000fd5b7f4e487b7100000000000000000000000000000000000000000000000000000000600052604160045260246000fd5b600080fd5b600080fd5b600080fd5b600080fd5b600080fd5b600080fd5b6000601f19601f8301169050919050565b7f537472696e67733a20686578206c656e67746820696e73756666696369656e74600082015250565b7f446f63746f72206f722070617469656e74206973206e6f742061207573657200600082015250565b7f50617469656e74206973206e6f74206120757365720000000000000000000000600082015250565b7f50726f66696c6520657869737465640000000000000000000000000000000000600082015250565b7f416363657373436f6e74726f6c3a206163636f756e7420000000000000000000600082015250565b7f4163636573732064656e69656400000000000000000000000000000000000000600082015250565b7f206973206d697373696e6720726f6c6520000000000000000000000000000000600082015250565b7f416363657373436f6e74726f6c3a2063616e206f6e6c792072656e6f756e636560008201527f20726f6c657320666f722073656c660000000000000000000000000000000000602082015250565b612975816125d0565b811461298057600080fd5b50565b61298c816125e2565b811461299757600080fd5b50565b6129a3816125ee565b81146129ae57600080fd5b50565b6129ba816125f8565b81146129c557600080fd5b50565b6129d181612624565b81146129dc57600080fd5b50565b6129e881612652565b81146129f357600080fd5b5056fea2646970667358221220dbd42e299532acc8de568cd598a74890c80c18cdc64462942d3c9bdd224c1db664736f6c6343000806003360a060405234801561001057600080fd5b5061002d61002261009160201b60201c565b61009960201b60201c565b6040516100399061015d565b604051809103906000f080158015610055573d6000803e3d6000fd5b5073ffffffffffffffffffffffffffffffffffffffff1660808173ffffffffffffffffffffffffffffffffffffffff1660601b8152505061016a565b600033905090565b60008060009054906101000a900473ffffffffffffffffffffffffffffffffffffffff169050816000806101000a81548173ffffffffffffffffffffffffffffffffffffffff021916908373ffffffffffffffffffffffffffffffffffffffff1602179055508173ffffffffffffffffffffffffffffffffffffffff168173ffffffffffffffffffffffffffffffffffffffff167f8be0079c531659141344cd1fd0a4f28419497f9722a3daafe3b4186f6b6457e060405160405180910390a35050565b61165380610af283390190565b60805160601c61096a6101886000396000610111015261096a6000f3fe608060405234801561001057600080fd5b506004361061004c5760003560e01c8063715018a6146100515780638da5cb5b1461005b578063f13e486914610079578063f2fde38b146100a9575b600080fd5b6100596100c5565b005b6100636100d9565b6040516100709190610687565b60405180910390f35b610093600480360381019061008e9190610599565b610102565b6040516100a09190610687565b60405180910390f35b6100c360048036038101906100be919061056c565b61023a565b005b6100cd6102be565b6100d7600061033c565b565b60008060009054906101000a900473ffffffffffffffffffffffffffffffffffffffff16905090565b600061010c6102be565b6101357f0000000000000000000000000000000000000000000000000000000000000000610400565b90508160000151156101bd578073ffffffffffffffffffffffffffffffffffffffff16630716c9708684602001513388886040518663ffffffff1660e01b81526004016101869594939291906106a2565b600060405180830381600087803b1580156101a057600080fd5b505af11580156101b4573d6000803e3d6000fd5b50505050610232565b8073ffffffffffffffffffffffffffffffffffffffff16630716c9708660003388886040518663ffffffff1660e01b81526004016101ff9594939291906106a2565b600060405180830381600087803b15801561021957600080fd5b505af115801561022d573d6000803e3d6000fd5b505050505b949350505050565b6102426102be565b600073ffffffffffffffffffffffffffffffffffffffff168173ffffffffffffffffffffffffffffffffffffffff1614156102b2576040517f08c379a00000000000000000000000000000000000000000000000000000000081526004016102a9906106f5565b60405180910390fd5b6102bb8161033c565b50565b6102c66104d5565b73ffffffffffffffffffffffffffffffffffffffff166102e46100d9565b73ffffffffffffffffffffffffffffffffffffffff161461033a576040517f08c379a000000000000000000000000000000000000000000000000000000000815260040161033190610735565b60405180910390fd5b565b60008060009054906101000a900473ffffffffffffffffffffffffffffffffffffffff169050816000806101000a81548173ffffffffffffffffffffffffffffffffffffffff021916908373ffffffffffffffffffffffffffffffffffffffff1602179055508173ffffffffffffffffffffffffffffffffffffffff168173ffffffffffffffffffffffffffffffffffffffff167f8be0079c531659141344cd1fd0a4f28419497f9722a3daafe3b4186f6b6457e060405160405180910390a35050565b60006040517f3d602d80600a3d3981f3363d3d373d3d3d363d7300000000000000000000000081528260601b60148201527f5af43d82803e903d91602b57fd5bf3000000000000000000000000000000000060288201526037816000f0915050600073ffffffffffffffffffffffffffffffffffffffff168173ffffffffffffffffffffffffffffffffffffffff1614156104d0576040517f08c379a00000000000000000000000000000000000000000000000000000000081526004016104c790610715565b60405180910390fd5b919050565b600033905090565b6000813590506104ec816108ef565b92915050565b60008135905061050181610906565b92915050565b6000813590506105168161091d565b92915050565b60006040828403121561053257610531610833565b5b61053c6040610755565b9050600061054c848285016104f2565b6000830152506020610560848285016104dd565b60208301525092915050565b60006020828403121561058257610581610838565b5b6000610590848285016104dd565b91505092915050565b60008060008060a085870312156105b3576105b2610838565b5b60006105c1878288016104dd565b94505060206105d287828801610507565b93505060406105e387828801610507565b92505060606105f48782880161051c565b91505092959194509250565b6106098161078b565b82525050565b610618816107a9565b82525050565b600061062b60268361077a565b91506106368261084e565b604082019050919050565b600061064e60168361077a565b91506106598261089d565b602082019050919050565b600061067160208361077a565b915061067c826108c6565b602082019050919050565b600060208201905061069c6000830184610600565b92915050565b600060a0820190506106b76000830188610600565b6106c46020830187610600565b6106d16040830186610600565b6106de606083018561060f565b6106eb608083018461060f565b9695505050505050565b6000602082019050818103600083015261070e8161061e565b9050919050565b6000602082019050818103600083015261072e81610641565b9050919050565b6000602082019050818103600083015261074e81610664565b9050919050565b600061075f610770565b905061076b82826107d3565b919050565b6000604051905090565b600082825260208201905092915050565b6000610796826107b3565b9050919050565b60008115159050919050565b6000819050919050565b600073ffffffffffffffffffffffffffffffffffffffff82169050919050565b6107dc8261083d565b810181811067ffffffffffffffff821117156107fb576107fa610804565b5b80604052505050565b7f4e487b7100000000000000000000000000000000000000000000000000000000600052604160045260246000fd5b600080fd5b600080fd5b6000601f19601f8301169050919050565b7f4f776e61626c653a206e6577206f776e657220697320746865207a65726f206160008201527f6464726573730000000000000000000000000000000000000000000000000000602082015250565b7f455243313136373a20637265617465206661696c656400000000000000000000600082015250565b7f4f776e61626c653a2063616c6c6572206973206e6f7420746865206f776e6572600082015250565b6108f88161078b565b811461090357600080fd5b50565b61090f8161079d565b811461091a57600080fd5b50565b610926816107a9565b811461093157600080fd5b5056fea2646970667358221220797e6200bd061ba43d15b4b9806f26ee2b28b2a6a4df5aa4aaeaabed04e0334e64736f6c63430008060033608060405234801561001057600080fd5b506100447f241ecf16d79d0f8dbfb92cbc07fe17840425976cf0667f022fe9877caa831b086000801b61004960201b60201c565b6100c9565b600061005a836100aa60201b60201c565b905081600080858152602001908152602001600020600101819055508181847fbd79b86ffe0ab8e8776151514217cd7cacd52c909f66475c3af44e129f0b00ff60405160405180910390a4505050565b6000806000838152602001908152602001600020600101549050919050565b61157b806100d86000396000f3fe608060405234801561001057600080fd5b50600436106100cf5760003560e01c80638bb254191161008c578063d294ffe011610066578063d294ffe014610213578063d547741f1461022f578063ec87621c1461024b578063fec331f214610269576100cf565b80638bb25419146101a757806391d14854146101c5578063a217fddf146101f5576100cf565b806301ffc9a7146100d45780630716c97014610104578063248a9ca3146101205780632f2ff15d1461015057806336568abe1461016c5780635a9b0b8914610188575b600080fd5b6100ee60048036038101906100e99190610e59565b610287565b6040516100fb919061109e565b60405180910390f35b61011e60048036038101906101199190610d71565b610301565b005b61013a60048036038101906101359190610dec565b610484565b60405161014791906110b9565b60405180910390f35b61016a60048036038101906101659190610e19565b6104a3565b005b61018660048036038101906101819190610e19565b6104c4565b005b610190610547565b60405161019e9291906110d4565b60405180910390f35b6101af610558565b6040516101bc919061107c565b60405180910390f35b6101df60048036038101906101da9190610e19565b610611565b6040516101ec919061109e565b60405180910390f35b6101fd61067b565b60405161020a91906110b9565b60405180910390f35b61022d60048036038101906102289190610d44565b610682565b005b61024960048036038101906102449190610e19565b610713565b005b610253610734565b60405161026091906110b9565b60405180910390f35b610271610758565b60405161027e91906110b9565b60405180910390f35b60007f7965db0b000000000000000000000000000000000000000000000000000000007bffffffffffffffffffffffffffffffffffffffffffffffffffffffff1916827bffffffffffffffffffffffffffffffffffffffffffffffffffffffff191614806102fa57506102f98261077c565b5b9050919050565b60001515600460009054906101000a900460ff16151514610357576040517f08c379a000000000000000000000000000000000000000000000000000000000815260040161034e9061113f565b60405180910390fd5b6103817f0af1dac7dea2fd7f7738119cec7df099dfad49aa9d2e7d17ba6b60f63ae7411f866107e6565b6103ab7f241ecf16d79d0f8dbfb92cbc07fe17840425976cf0667f022fe9877caa831b08846107e6565b6103f57f241ecf16d79d0f8dbfb92cbc07fe17840425976cf0667f022fe9877caa831b087f0af1dac7dea2fd7f7738119cec7df099dfad49aa9d2e7d17ba6b60f63ae7411f6107f4565b600073ffffffffffffffffffffffffffffffffffffffff168473ffffffffffffffffffffffffffffffffffffffff1614610454576104537f241ecf16d79d0f8dbfb92cbc07fe17840425976cf0667f022fe9877caa831b08856107e6565b5b81600181905550806002819055506001600460006101000a81548160ff0219169083151502179055505050505050565b6000806000838152602001908152602001600020600101549050919050565b6104ac82610484565b6104b58161084f565b6104bf8383610863565b505050565b6104cc610943565b73ffffffffffffffffffffffffffffffffffffffff168173ffffffffffffffffffffffffffffffffffffffff1614610539576040517f08c379a00000000000000000000000000000000000000000000000000000000081526004016105309061115f565b60405180910390fd5b610543828261094b565b5050565b600080600154915060025490509091565b60607f0af1dac7dea2fd7f7738119cec7df099dfad49aa9d2e7d17ba6b60f63ae7411f6105848161084f565b600380548060200260200160405190810160405280929190818152602001828054801561060657602002820191906000526020600020905b8160009054906101000a900473ffffffffffffffffffffffffffffffffffffffff1673ffffffffffffffffffffffffffffffffffffffff16815260200190600101908083116105bc575b505050505091505090565b600080600084815260200190815260200160002060000160008373ffffffffffffffffffffffffffffffffffffffff1673ffffffffffffffffffffffffffffffffffffffff16815260200190815260200160002060009054906101000a900460ff16905092915050565b6000801b81565b7f241ecf16d79d0f8dbfb92cbc07fe17840425976cf0667f022fe9877caa831b086106ac8161084f565b6003829080600181540180825580915050600190039060005260206000200160009091909190916101000a81548173ffffffffffffffffffffffffffffffffffffffff021916908373ffffffffffffffffffffffffffffffffffffffff1602179055505050565b61071c82610484565b6107258161084f565b61072f838361094b565b505050565b7f241ecf16d79d0f8dbfb92cbc07fe17840425976cf0667f022fe9877caa831b0881565b7f0af1dac7dea2fd7f7738119cec7df099dfad49aa9d2e7d17ba6b60f63ae7411f81565b60007f01ffc9a7000000000000000000000000000000000000000000000000000000007bffffffffffffffffffffffffffffffffffffffffffffffffffffffff1916827bffffffffffffffffffffffffffffffffffffffffffffffffffffffff1916149050919050565b6107f08282610863565b5050565b60006107ff83610484565b905081600080858152602001908152602001600020600101819055508181847fbd79b86ffe0ab8e8776151514217cd7cacd52c909f66475c3af44e129f0b00ff60405160405180910390a4505050565b6108608161085b610943565b610a2c565b50565b61086d8282610611565b61093f57600160008084815260200190815260200160002060000160008373ffffffffffffffffffffffffffffffffffffffff1673ffffffffffffffffffffffffffffffffffffffff16815260200190815260200160002060006101000a81548160ff0219169083151502179055506108e4610943565b73ffffffffffffffffffffffffffffffffffffffff168173ffffffffffffffffffffffffffffffffffffffff16837f2f8788117e7eff1d82e926ec794901d17c78024a50270940304540a733656f0d60405160405180910390a45b5050565b600033905090565b6109558282610611565b15610a2857600080600084815260200190815260200160002060000160008373ffffffffffffffffffffffffffffffffffffffff1673ffffffffffffffffffffffffffffffffffffffff16815260200190815260200160002060006101000a81548160ff0219169083151502179055506109cd610943565b73ffffffffffffffffffffffffffffffffffffffff168173ffffffffffffffffffffffffffffffffffffffff16837ff6391f5c32d9c69d2a47ea670b442974b53935d1edc7fd64eb21e047a839171b60405160405180910390a45b5050565b610a368282610611565b610ac557610a5b8173ffffffffffffffffffffffffffffffffffffffff166014610ac9565b610a698360001c6020610ac9565b604051602001610a7a929190611042565b6040516020818303038152906040526040517f08c379a0000000000000000000000000000000000000000000000000000000008152600401610abc91906110fd565b60405180910390fd5b5050565b606060006002836002610adc9190611235565b610ae691906111df565b67ffffffffffffffff811115610aff57610afe6113c8565b5b6040519080825280601f01601f191660200182016040528015610b315781602001600182028036833780820191505090505b5090507f300000000000000000000000000000000000000000000000000000000000000081600081518110610b6957610b68611399565b5b60200101907effffffffffffffffffffffffffffffffffffffffffffffffffffffffffffff1916908160001a9053507f780000000000000000000000000000000000000000000000000000000000000081600181518110610bcd57610bcc611399565b5b60200101907effffffffffffffffffffffffffffffffffffffffffffffffffffffffffffff1916908160001a90535060006001846002610c0d9190611235565b610c1791906111df565b90505b6001811115610cb7577f3031323334353637383961626364656600000000000000000000000000000000600f861660108110610c5957610c58611399565b5b1a60f81b828281518110610c7057610c6f611399565b5b60200101907effffffffffffffffffffffffffffffffffffffffffffffffffffffffffffff1916908160001a905350600485901c945080610cb090611340565b9050610c1a565b5060008414610cfb576040517f08c379a0000000000000000000000000000000000000000000000000000000008152600401610cf29061111f565b60405180910390fd5b8091505092915050565b600081359050610d1481611500565b92915050565b600081359050610d2981611517565b92915050565b600081359050610d3e8161152e565b92915050565b600060208284031215610d5a57610d596113f7565b5b6000610d6884828501610d05565b91505092915050565b600080600080600060a08688031215610d8d57610d8c6113f7565b5b6000610d9b88828901610d05565b9550506020610dac88828901610d05565b9450506040610dbd88828901610d05565b9350506060610dce88828901610d1a565b9250506080610ddf88828901610d1a565b9150509295509295909350565b600060208284031215610e0257610e016113f7565b5b6000610e1084828501610d1a565b91505092915050565b60008060408385031215610e3057610e2f6113f7565b5b6000610e3e85828601610d1a565b9250506020610e4f85828601610d05565b9150509250929050565b600060208284031215610e6f57610e6e6113f7565b5b6000610e7d84828501610d2f565b91505092915050565b6000610e928383610e9e565b60208301905092915050565b610ea78161128f565b82525050565b6000610eb88261118f565b610ec281856111b2565b9350610ecd8361117f565b8060005b83811015610efe578151610ee58882610e86565b9750610ef0836111a5565b925050600181019050610ed1565b5085935050505092915050565b610f14816112a1565b82525050565b610f23816112ad565b82525050565b6000610f348261119a565b610f3e81856111c3565b9350610f4e81856020860161130d565b610f57816113fc565b840191505092915050565b6000610f6d8261119a565b610f7781856111d4565b9350610f8781856020860161130d565b80840191505092915050565b6000610fa06020836111c3565b9150610fab8261140d565b602082019050919050565b6000610fc36013836111c3565b9150610fce82611436565b602082019050919050565b6000610fe66017836111d4565b9150610ff18261145f565b601782019050919050565b60006110096011836111d4565b915061101482611488565b601182019050919050565b600061102c602f836111c3565b9150611037826114b1565b604082019050919050565b600061104d82610fd9565b91506110598285610f62565b915061106482610ffc565b91506110708284610f62565b91508190509392505050565b600060208201905081810360008301526110968184610ead565b905092915050565b60006020820190506110b36000830184610f0b565b92915050565b60006020820190506110ce6000830184610f1a565b92915050565b60006040820190506110e96000830185610f1a565b6110f66020830184610f1a565b9392505050565b600060208201905081810360008301526111178184610f29565b905092915050565b6000602082019050818103600083015261113881610f93565b9050919050565b6000602082019050818103600083015261115881610fb6565b9050919050565b600060208201905081810360008301526111788161101f565b9050919050565b6000819050602082019050919050565b600081519050919050565b600081519050919050565b6000602082019050919050565b600082825260208201905092915050565b600082825260208201905092915050565b600081905092915050565b60006111ea82611303565b91506111f583611303565b9250827fffffffffffffffffffffffffffffffffffffffffffffffffffffffffffffffff0382111561122a5761122961136a565b5b828201905092915050565b600061124082611303565b915061124b83611303565b9250817fffffffffffffffffffffffffffffffffffffffffffffffffffffffffffffffff04831182151516156112845761128361136a565b5b828202905092915050565b600061129a826112e3565b9050919050565b60008115159050919050565b6000819050919050565b60007fffffffff0000000000000000000000000000000000000000000000000000000082169050919050565b600073ffffffffffffffffffffffffffffffffffffffff82169050919050565b6000819050919050565b60005b8381101561132b578082015181840152602081019050611310565b8381111561133a576000848401525b50505050565b600061134b82611303565b9150600082141561135f5761135e61136a565b5b600182039050919050565b7f4e487b7100000000000000000000000000000000000000000000000000000000600052601160045260246000fd5b7f4e487b7100000000000000000000000000000000000000000000000000000000600052603260045260246000fd5b7f4e487b7100000000000000000000000000000000000000000000000000000000600052604160045260246000fd5b600080fd5b6000601f19601f8301169050919050565b7f537472696e67733a20686578206c656e67746820696e73756666696369656e74600082015250565b7f416c726561647920696e697469616c697a656400000000000000000000000000600082015250565b7f416363657373436f6e74726f6c3a206163636f756e7420000000000000000000600082015250565b7f206973206d697373696e6720726f6c6520000000000000000000000000000000600082015250565b7f416363657373436f6e74726f6c3a2063616e206f6e6c792072656e6f756e636560008201527f20726f6c657320666f722073656c660000000000000000000000000000000000602082015250565b6115098161128f565b811461151457600080fd5b50565b611520816112ad565b811461152b57600080fd5b50565b611537816112b7565b811461154257600080fd5b5056fea2646970667358221220490e9aa33aa4fa8ce299ffc6b54f26f0a116d8021e7421385340b059f385809664736f6c6343000806003360a060405234801561001057600080fd5b5061002d61002261009160201b60201c565b61009960201b60201c565b6040516100399061015d565b604051809103906000f080158015610055573d6000803e3d6000fd5b5073ffffffffffffffffffffffffffffffffffffffff1660808173ffffffffffffffffffffffffffffffffffffffff1660601b8152505061016a565b600033905090565b60008060009054906101000a900473ffffffffffffffffffffffffffffffffffffffff169050816000806101000a81548173ffffffffffffffffffffffffffffffffffffffff021916908373ffffffffffffffffffffffffffffffffffffffff1602179055508173ffffffffffffffffffffffffffffffffffffffff168173ffffffffffffffffffffffffffffffffffffffff167f8be0079c531659141344cd1fd0a4f28419497f9722a3daafe3b4186f6b6457e060405160405180910390a35050565b613add806110c583390190565b60805160601c610f3d61018860003960006101110152610f3d6000f3fe608060405234801561001057600080fd5b506004361061004c5760003560e01c8063715018a6146100515780638da5cb5b1461005b578063b4a9ebf314610079578063f2fde38b146100a9575b600080fd5b6100596100c5565b005b6100636100d9565b6040516100709190610ad8565b60405180910390f35b610093600480360381019061008e9190610802565b610102565b6040516100a09190610ad8565b60405180910390f35b6100c360048036038101906100be91906107d5565b610249565b005b6100cd6102cd565b6100d7600061034b565b565b60008060009054906101000a900473ffffffffffffffffffffffffffffffffffffffff16905090565b600061010c6102cd565b6101357f000000000000000000000000000000000000000000000000000000000000000061040f565b90508160000151156101c3578073ffffffffffffffffffffffffffffffffffffffff166316fac09c338a85602001518b8b8b8b8b6040518963ffffffff1660e01b815260040161018c989796959493929190610af3565b600060405180830381600087803b1580156101a657600080fd5b505af11580156101ba573d6000803e3d6000fd5b5050505061023e565b8073ffffffffffffffffffffffffffffffffffffffff166316fac09c338a60008b8b8b8b8b6040518963ffffffff1660e01b815260040161020b989796959493929190610af3565b600060405180830381600087803b15801561022557600080fd5b505af1158015610239573d6000803e3d6000fd5b505050505b979650505050505050565b6102516102cd565b600073ffffffffffffffffffffffffffffffffffffffff168173ffffffffffffffffffffffffffffffffffffffff1614156102c1576040517f08c379a00000000000000000000000000000000000000000000000000000000081526004016102b890610b7a565b60405180910390fd5b6102ca8161034b565b50565b6102d56104e4565b73ffffffffffffffffffffffffffffffffffffffff166102f36100d9565b73ffffffffffffffffffffffffffffffffffffffff1614610349576040517f08c379a000000000000000000000000000000000000000000000000000000000815260040161034090610bba565b60405180910390fd5b565b60008060009054906101000a900473ffffffffffffffffffffffffffffffffffffffff169050816000806101000a81548173ffffffffffffffffffffffffffffffffffffffff021916908373ffffffffffffffffffffffffffffffffffffffff1602179055508173ffffffffffffffffffffffffffffffffffffffff168173ffffffffffffffffffffffffffffffffffffffff167f8be0079c531659141344cd1fd0a4f28419497f9722a3daafe3b4186f6b6457e060405160405180910390a35050565b60006040517f3d602d80600a3d3981f3363d3d373d3d3d363d7300000000000000000000000081528260601b60148201527f5af43d82803e903d91602b57fd5bf3000000000000000000000000000000000060288201526037816000f0915050600073ffffffffffffffffffffffffffffffffffffffff168173ffffffffffffffffffffffffffffffffffffffff1614156104df576040517f08c379a00000000000000000000000000000000000000000000000000000000081526004016104d690610b9a565b60405180910390fd5b919050565b600033905090565b60006104ff6104fa84610bff565b610bda565b9050808382526020820190508285602086028201111561052257610521610dce565b5b60005b8581101561057057813567ffffffffffffffff81111561054857610547610dc4565b5b8086016105558982610629565b85526020850194506020840193505050600181019050610525565b5050509392505050565b600061058d61058884610c2b565b610bda565b9050828152602081018484840111156105a9576105a8610dd3565b5b6105b4848285610d22565b509392505050565b6000813590506105cb81610e94565b92915050565b600082601f8301126105e6576105e5610dc4565b5b81356105f68482602086016104ec565b91505092915050565b60008135905061060e81610eab565b92915050565b60008135905061062381610ec2565b92915050565b600082601f83011261063e5761063d610dc4565b5b813561064e84826020860161057a565b91505092915050565b60006060828403121561066d5761066c610dc9565b5b6106776060610bda565b90506000610687848285016105ff565b600083015250602061069b848285016105ff565b60208301525060406106af848285016105ff565b60408301525092915050565b6000604082840312156106d1576106d0610dc9565b5b6106db6040610bda565b905060006106eb84828501610614565b60008301525060206106ff84828501610614565b60208301525092915050565b60006040828403121561072157610720610dc9565b5b61072b6040610bda565b9050600061073b848285016105ff565b600083015250602061074f848285016105bc565b60208301525092915050565b60006040828403121561077157610770610dc9565b5b61077b6040610bda565b9050600061078b848285016107ab565b600083015250602061079f848285016107ab565b60208301525092915050565b6000813590506107ba81610ed9565b92915050565b6000813590506107cf81610ef0565b92915050565b6000602082840312156107eb576107ea610ddd565b5b60006107f9848285016105bc565b91505092915050565b6000806000806000806000610180888a03121561082257610821610ddd565b5b60006108308a828b016105bc565b97505060206108418a828b016106bb565b96505060606108528a828b016107c0565b95505060806108638a828b0161075b565b94505060c088013567ffffffffffffffff81111561088457610883610dd8565b5b6108908a828b016105d1565b93505060e06108a18a828b01610657565b9250506101406108b38a828b0161070b565b91505092959891949750929550565b60006108ce8383610978565b905092915050565b6108df81610cc2565b82525050565b60006108f082610c6c565b6108fa8185610c8f565b93508360208202850161090c85610c5c565b8060005b85811015610948578484038952815161092985826108c2565b945061093483610c82565b925060208a01995050600181019050610910565b50829750879550505050505092915050565b61096381610cd4565b82525050565b61097281610ce0565b82525050565b600061098382610c77565b61098d8185610ca0565b935061099d818560208601610d31565b6109a681610de2565b840191505092915050565b60006109be602683610cb1565b91506109c982610df3565b604082019050919050565b60006109e1601683610cb1565b91506109ec82610e42565b602082019050919050565b6000610a04602083610cb1565b9150610a0f82610e6b565b602082019050919050565b606082016000820151610a30600085018261095a565b506020820151610a43602085018261095a565b506040820151610a56604085018261095a565b50505050565b604082016000820151610a726000850182610969565b506020820151610a856020850182610969565b50505050565b604082016000820151610aa16000850182610aba565b506020820151610ab46020850182610aba565b50505050565b610ac381610cea565b82525050565b610ad281610d18565b82525050565b6000602082019050610aed60008301846108d6565b92915050565b600061018082019050610b09600083018b6108d6565b610b16602083018a6108d6565b610b2360408301896108d6565b610b306060830188610a5c565b610b3d60a0830187610ac9565b610b4a60c0830186610a8b565b818103610100830152610b5d81856108e5565b9050610b6d610120830184610a1a565b9998505050505050505050565b60006020820190508181036000830152610b93816109b1565b9050919050565b60006020820190508181036000830152610bb3816109d4565b9050919050565b60006020820190508181036000830152610bd3816109f7565b9050919050565b6000610be4610bf5565b9050610bf08282610d64565b919050565b6000604051905090565b600067ffffffffffffffff821115610c1a57610c19610d95565b5b602082029050602081019050919050565b600067ffffffffffffffff821115610c4657610c45610d95565b5b610c4f82610de2565b9050602081019050919050565b6000819050602082019050919050565b600081519050919050565b600081519050919050565b6000602082019050919050565b600082825260208201905092915050565b600082825260208201905092915050565b600082825260208201905092915050565b6000610ccd82610cf8565b9050919050565b60008115159050919050565b6000819050919050565b600061ffff82169050919050565b600073ffffffffffffffffffffffffffffffffffffffff82169050919050565b6000819050919050565b82818337600083830152505050565b60005b83811015610d4f578082015181840152602081019050610d34565b83811115610d5e576000848401525b50505050565b610d6d82610de2565b810181811067ffffffffffffffff82111715610d8c57610d8b610d95565b5b80604052505050565b7f4e487b7100000000000000000000000000000000000000000000000000000000600052604160045260246000fd5b600080fd5b600080fd5b600080fd5b600080fd5b600080fd5b600080fd5b6000601f19601f8301169050919050565b7f4f776e61626c653a206e6577206f776e657220697320746865207a65726f206160008201527f6464726573730000000000000000000000000000000000000000000000000000602082015250565b7f455243313136373a20637265617465206661696c656400000000000000000000600082015250565b7f4f776e61626c653a2063616c6c6572206973206e6f7420746865206f776e6572600082015250565b610e9d81610cc2565b8114610ea857600080fd5b50565b610eb481610cd4565b8114610ebf57600080fd5b50565b610ecb81610ce0565b8114610ed657600080fd5b50565b610ee281610cea565b8114610eed57600080fd5b50565b610ef981610d18565b8114610f0457600080fd5b5056fea26469706673582212203fe6b3ebca535f11e82c39590ae0d94e85135462bf76403f5b98e195a9506e9e64736f6c6343000806003360806040523480156200001157600080fd5b50620000477f72606200fac42b7dc86b75901d61ecfab2a4a1a6eded478b97a428094891abed6000801b6200014360201b60201c565b620000997f241ecf16d79d0f8dbfb92cbc07fe17840425976cf0667f022fe9877caa831b087f72606200fac42b7dc86b75901d61ecfab2a4a1a6eded478b97a428094891abed6200014360201b60201c565b620000eb7f0af1dac7dea2fd7f7738119cec7df099dfad49aa9d2e7d17ba6b60f63ae7411f7f72606200fac42b7dc86b75901d61ecfab2a4a1a6eded478b97a428094891abed6200014360201b60201c565b6200013d7faf31c50b4aab7af0193b792816047837f36c88a23bbb4d0e3581c88cb4bf86ab7f72606200fac42b7dc86b75901d61ecfab2a4a1a6eded478b97a428094891abed6200014360201b60201c565b620001c5565b60006200015683620001a660201b60201c565b905081600080858152602001908152602001600020600101819055508181847fbd79b86ffe0ab8e8776151514217cd7cacd52c909f66475c3af44e129f0b00ff60405160405180910390a4505050565b6000806000838152602001908152602001600020600101549050919050565b61390880620001d56000396000f3fe608060405234801561001057600080fd5b50600436106101e55760003560e01c8063689aa6551161010f578063a217fddf116100a2578063d547741f11610071578063d547741f14610542578063e3a5a4de1461055e578063ec87621c1461057a578063fec331f214610598576101e5565b8063a217fddf146104ba578063ac5cb97d146104d8578063ca15c873146104f6578063d294ffe014610526576101e5565b80639010d07c116100de5780639010d07c1461042057806391d14854146104505780639aca66f8146104805780639f0a5c151461049c576101e5565b8063689aa6551461039c5780636dd902d2146103b8578063793de5f0146103d457806385e6853114610404576101e5565b80632b8cc3461161018757806351e66efb1161015657806351e66efb146103365780635a9b0b89146103525780635ac801fe14610376578063602792b014610392576101e5565b80632b8cc346146102c65780632f2ff15d146102e257806336568abe146102fe57806338a6a7381461031a576101e5565b8063101d6416116101c3578063101d64161461024257806316fac09c1461025e57806323fcceed1461027a578063248a9ca314610296576101e5565b806301ffc9a7146101ea578063080121da1461021a5780630c9a8ecf14610238575b600080fd5b61020460048036038101906101ff9190612a11565b6105b6565b6040516102119190612f77565b60405180910390f35b610222610630565b60405161022f9190612f92565b60405180910390f35b610240610654565b005b61025c60048036038101906102579190612a6b565b6106f0565b005b61027860048036038101906102739190612847565b61073d565b005b610294600480360381019061028f919061291b565b610a52565b005b6102b060048036038101906102ab9190612964565b610a74565b6040516102bd9190612f92565b60405180910390f35b6102e060048036038101906102db919061281a565b610a93565b005b6102fc60048036038101906102f79190612991565b610ca9565b005b61031860048036038101906103139190612991565b610cca565b005b610334600480360381019061032f9190612a3e565b610d4d565b005b610350600480360381019061034b919061281a565b610db1565b005b61035a610eca565b60405161036d97969594939291906130ef565b60405180910390f35b610390600480360381019061038b9190612964565b61120f565b005b61039a611221565b005b6103b660048036038101906103b19190612964565b61131f565b005b6103d260048036038101906103cd9190612a98565b611331565b005b6103ee60048036038101906103e9919061281a565b611343565b6040516103fb9190612f77565b60405180910390f35b61041e6004803603810190610419919061281a565b61137e565b005b61043a600480360381019061043591906129d1565b611497565b6040516104479190612f3a565b60405180910390f35b61046a60048036038101906104659190612991565b6114c6565b6040516104779190612f77565b60405180910390f35b61049a6004803603810190610495919061281a565b611530565b005b6104a461167b565b6040516104b19190612f55565b60405180910390f35b6104c2611711565b6040516104cf9190612f92565b60405180910390f35b6104e0611718565b6040516104ed9190612f92565b60405180910390f35b610510600480360381019061050b9190612964565b61173c565b60405161051d9190613176565b60405180910390f35b610540600480360381019061053b919061281a565b611760565b005b61055c60048036038101906105579190612991565b6117f1565b005b6105786004803603810190610573919061281a565b611812565b005b61058261195d565b60405161058f9190612f92565b60405180910390f35b6105a0611981565b6040516105ad9190612f92565b60405180910390f35b60007f5a05180f000000000000000000000000000000000000000000000000000000007bffffffffffffffffffffffffffffffffffffffffffffffffffffffff1916827bffffffffffffffffffffffffffffffffffffffffffffffffffffffff191614806106295750610628826119a5565b5b9050919050565b7faf31c50b4aab7af0193b792816047837f36c88a23bbb4d0e3581c88cb4bf86ab81565b61067e7f0af1dac7dea2fd7f7738119cec7df099dfad49aa9d2e7d17ba6b60f63ae7411f336114c6565b806106af57506106ae7f72606200fac42b7dc86b75901d61ecfab2a4a1a6eded478b97a428094891abed336114c6565b5b6106ee576040517f08c379a00000000000000000000000000000000000000000000000000000000081526004016106e59061300f565b60405180910390fd5b565b6106f8611221565b8060000151600560006101000a81548161ffff021916908361ffff1602179055508060200151600560026101000a81548161ffff021916908361ffff16021790555050565b60001515600560079054906101000a900460ff16151514610793576040517f08c379a000000000000000000000000000000000000000000000000000000000815260040161078a9061308f565b60405180910390fd5b6107c07f72606200fac42b7dc86b75901d61ecfab2a4a1a6eded478b97a428094891abed6000801b611a1f565b61080a7f241ecf16d79d0f8dbfb92cbc07fe17840425976cf0667f022fe9877caa831b087f72606200fac42b7dc86b75901d61ecfab2a4a1a6eded478b97a428094891abed611a1f565b6108547f0af1dac7dea2fd7f7738119cec7df099dfad49aa9d2e7d17ba6b60f63ae7411f7f72606200fac42b7dc86b75901d61ecfab2a4a1a6eded478b97a428094891abed611a1f565b61089e7faf31c50b4aab7af0193b792816047837f36c88a23bbb4d0e3581c88cb4bf86ab7f72606200fac42b7dc86b75901d61ecfab2a4a1a6eded478b97a428094891abed611a1f565b6108ab6000801b88611a7a565b6108d57f72606200fac42b7dc86b75901d61ecfab2a4a1a6eded478b97a428094891abed88611a7a565b6108ff7f241ecf16d79d0f8dbfb92cbc07fe17840425976cf0667f022fe9877caa831b0889611a7a565b600073ffffffffffffffffffffffffffffffffffffffff168673ffffffffffffffffffffffffffffffffffffffff161461095e5761095d7faf31c50b4aab7af0193b792816047837f36c88a23bbb4d0e3581c88cb4bf86ab87611a7a565b5b84600001516002819055508460200151600381905550836004819055508260000151600560006101000a81548161ffff021916908361ffff1602179055508260200151600560026101000a81548161ffff021916908361ffff16021790555081600690805190602001906109d392919061239c565b508060000151600560046101000a81548160ff02191690831515021790555080602001516005806101000a81548160ff0219169083151502179055508060400151600560066101000a81548160ff0219169083151502179055506001600560076101000a81548160ff0219169083151502179055505050505050505050565b610a5a611221565b8060069080519060200190610a7092919061239c565b5050565b6000806000838152602001908152602001600020600101549050919050565b610a9b611a88565b60008060005b600880549050811015610b3f578373ffffffffffffffffffffffffffffffffffffffff1660088281548110610ad957610ad86135d2565b5b9060005260206000200160009054906101000a900473ffffffffffffffffffffffffffffffffffffffff1673ffffffffffffffffffffffffffffffffffffffff161415610b2c5760019250809150610b3f565b8080610b37906134fc565b915050610aa1565b506001151582151514610b87576040517f08c379a0000000000000000000000000000000000000000000000000000000008152600401610b7e906130af565b60405180910390fd5b610bb17f0af1dac7dea2fd7f7738119cec7df099dfad49aa9d2e7d17ba6b60f63ae7411f84610ca9565b60086001600880549050610bc5919061336d565b81548110610bd657610bd56135d2565b5b9060005260206000200160009054906101000a900473ffffffffffffffffffffffffffffffffffffffff1660088281548110610c1557610c146135d2565b5b9060005260206000200160006101000a81548173ffffffffffffffffffffffffffffffffffffffff021916908373ffffffffffffffffffffffffffffffffffffffff1602179055506008805480610c6f57610c6e6135a3565b5b6001900381819060005260206000200160006101000a81549073ffffffffffffffffffffffffffffffffffffffff02191690559055505050565b610cb282610a74565b610cbb81611af3565b610cc58383611b07565b505050565b610cd2611b3b565b73ffffffffffffffffffffffffffffffffffffffff168173ffffffffffffffffffffffffffffffffffffffff1614610d3f576040517f08c379a0000000000000000000000000000000000000000000000000000000008152600401610d36906130cf565b60405180910390fd5b610d498282611b43565b5050565b610d55611221565b8060000151600560046101000a81548160ff02191690831515021790555080602001516005806101000a81548160ff0219169083151502179055508060400151600560066101000a81548160ff02191690831515021790555050565b610db9611221565b6000610dc482611b77565b90506007805490508114610ec65760076001600780549050610de6919061336d565b81548110610df757610df66135d2565b5b9060005260206000200160009054906101000a900473ffffffffffffffffffffffffffffffffffffffff1660078281548110610e3657610e356135d2565b5b9060005260206000200160006101000a81548173ffffffffffffffffffffffffffffffffffffffff021916908373ffffffffffffffffffffffffffffffffffffffff1602179055506007805480610e9057610e8f6135a3565b5b6001900381819060005260206000200160006101000a81549073ffffffffffffffffffffffffffffffffffffffff021916905590555b5050565b610ed26123fc565b6000610edc61241c565b6060610ee661243e565b606080610ef1610654565b60006006805480602002602001604051908101604052809291908181526020016000905b82821015610fc1578382906000526020600020018054610f3490613499565b80601f0160208091040260200160405190810160405280929190818152602001828054610f6090613499565b8015610fad5780601f10610f8257610100808354040283529160200191610fad565b820191906000526020600020905b815481529060010190602001808311610f9057829003601f168201915b505050505081526020019060010190610f15565b505050509050600060078054905067ffffffffffffffff811115610fe857610fe7613601565b5b6040519080825280602002602001820160405280156110165781602001602082028036833780820191505090505b50905060005b81518110156110c45760078181548110611039576110386135d2565b5b9060005260206000200160009054906101000a900473ffffffffffffffffffffffffffffffffffffffff16828281518110611077576110766135d2565b5b602002602001019073ffffffffffffffffffffffffffffffffffffffff16908173ffffffffffffffffffffffffffffffffffffffff168152505080806110bc906134fc565b91505061101c565b50604051806040016040528060025481526020016003548152506004546040518060400160405280600560009054906101000a900461ffff1661ffff168152602001600560029054906101000a900461ffff1661ffff16815250846040518060600160405280600560049054906101000a900460ff161515815260200160058054906101000a900460ff1615158152602001600560069054906101000a900460ff161515815250856008808054806020026020016040519081016040528092919081815260200182805480156111ef57602002820191906000526020600020905b8160009054906101000a900473ffffffffffffffffffffffffffffffffffffffff1673ffffffffffffffffffffffffffffffffffffffff16815260200190600101908083116111a5575b505050505090509850985098509850985098509850505090919293949596565b611217611a88565b8060028190555050565b61124b7f0af1dac7dea2fd7f7738119cec7df099dfad49aa9d2e7d17ba6b60f63ae7411f336114c6565b8061127c575061127b7f72606200fac42b7dc86b75901d61ecfab2a4a1a6eded478b97a428094891abed336114c6565b5b806112ad57506112ac7f241ecf16d79d0f8dbfb92cbc07fe17840425976cf0667f022fe9877caa831b08336114c6565b5b806112de57506112dd7faf31c50b4aab7af0193b792816047837f36c88a23bbb4d0e3581c88cb4bf86ab336114c6565b5b61131d576040517f08c379a00000000000000000000000000000000000000000000000000000000081526004016113149061302f565b60405180910390fd5b565b611327611a88565b8060038190555050565b611339611a88565b8060048190555050565b600061134d611221565b6113777f0af1dac7dea2fd7f7738119cec7df099dfad49aa9d2e7d17ba6b60f63ae7411f836114c6565b9050919050565b611386611a88565b600960008273ffffffffffffffffffffffffffffffffffffffff1673ffffffffffffffffffffffffffffffffffffffff16815260200190815260200160002060009054906101000a900460ff16611412576040517f08c379a00000000000000000000000000000000000000000000000000000000081526004016114099061304f565b60405180910390fd5b61143c7f0af1dac7dea2fd7f7738119cec7df099dfad49aa9d2e7d17ba6b60f63ae7411f826117f1565b6000600960008373ffffffffffffffffffffffffffffffffffffffff1673ffffffffffffffffffffffffffffffffffffffff16815260200190815260200160002060006101000a81548160ff02191690831515021790555050565b60006114be8260016000868152602001908152602001600020611c2690919063ffffffff16565b905092915050565b600080600084815260200190815260200160002060000160008373ffffffffffffffffffffffffffffffffffffffff1673ffffffffffffffffffffffffffffffffffffffff16815260200190815260200160002060009054906101000a900460ff16905092915050565b600960008273ffffffffffffffffffffffffffffffffffffffff1673ffffffffffffffffffffffffffffffffffffffff16815260200190815260200160002060009054906101000a900460ff16156115bd576040517f08c379a00000000000000000000000000000000000000000000000000000000081526004016115b490612fef565b60405180910390fd5b6008819080600181540180825580915050600190039060005260206000200160009091909190916101000a81548173ffffffffffffffffffffffffffffffffffffffff021916908373ffffffffffffffffffffffffffffffffffffffff1602179055506001600960008373ffffffffffffffffffffffffffffffffffffffff1673ffffffffffffffffffffffffffffffffffffffff16815260200190815260200160002060006101000a81548160ff02191690831515021790555050565b6060611685611a88565b600880548060200260200160405190810160405280929190818152602001828054801561170757602002820191906000526020600020905b8160009054906101000a900473ffffffffffffffffffffffffffffffffffffffff1673ffffffffffffffffffffffffffffffffffffffff16815260200190600101908083116116bd575b5050505050905090565b6000801b81565b7f72606200fac42b7dc86b75901d61ecfab2a4a1a6eded478b97a428094891abed81565b600061175960016000848152602001908152602001600020611c40565b9050919050565b7faf31c50b4aab7af0193b792816047837f36c88a23bbb4d0e3581c88cb4bf86ab61178a81611af3565b6007829080600181540180825580915050600190039060005260206000200160009091909190916101000a81548173ffffffffffffffffffffffffffffffffffffffff021916908373ffffffffffffffffffffffffffffffffffffffff1602179055505050565b6117fa82610a74565b61180381611af3565b61180d8383611b43565b505050565b600a60008273ffffffffffffffffffffffffffffffffffffffff1673ffffffffffffffffffffffffffffffffffffffff16815260200190815260200160002060009054906101000a900460ff161561189f576040517f08c379a000000000000000000000000000000000000000000000000000000000815260040161189690612fef565b60405180910390fd5b6008819080600181540180825580915050600190039060005260206000200160009091909190916101000a81548173ffffffffffffffffffffffffffffffffffffffff021916908373ffffffffffffffffffffffffffffffffffffffff1602179055506001600a60008373ffffffffffffffffffffffffffffffffffffffff1673ffffffffffffffffffffffffffffffffffffffff16815260200190815260200160002060006101000a81548160ff02191690831515021790555050565b7f241ecf16d79d0f8dbfb92cbc07fe17840425976cf0667f022fe9877caa831b0881565b7f0af1dac7dea2fd7f7738119cec7df099dfad49aa9d2e7d17ba6b60f63ae7411f81565b60007f7965db0b000000000000000000000000000000000000000000000000000000007bffffffffffffffffffffffffffffffffffffffffffffffffffffffff1916827bffffffffffffffffffffffffffffffffffffffffffffffffffffffff19161480611a185750611a1782611c55565b5b9050919050565b6000611a2a83610a74565b905081600080858152602001908152602001600020600101819055508181847fbd79b86ffe0ab8e8776151514217cd7cacd52c909f66475c3af44e129f0b00ff60405160405180910390a4505050565b611a848282611b07565b5050565b611ab27f72606200fac42b7dc86b75901d61ecfab2a4a1a6eded478b97a428094891abed336114c6565b611af1576040517f08c379a0000000000000000000000000000000000000000000000000000000008152600401611ae89061306f565b60405180910390fd5b565b611b0481611aff611b3b565b611cbf565b50565b611b118282611d5c565b611b368160016000858152602001908152602001600020611e3c90919063ffffffff16565b505050565b600033905090565b611b4d8282611e6c565b611b728160016000858152602001908152602001600020611f4d90919063ffffffff16565b505050565b600080600780549050905060005b81811015611c16578373ffffffffffffffffffffffffffffffffffffffff1660078281548110611bb857611bb76135d2565b5b9060005260206000200160009054906101000a900473ffffffffffffffffffffffffffffffffffffffff1673ffffffffffffffffffffffffffffffffffffffff161415611c09578092505050611c21565b8080600101915050611b85565b506007805490509150505b919050565b6000611c358360000183611f7d565b60001c905092915050565b6000611c4e82600001611fa8565b9050919050565b60007f01ffc9a7000000000000000000000000000000000000000000000000000000007bffffffffffffffffffffffffffffffffffffffffffffffffffffffff1916827bffffffffffffffffffffffffffffffffffffffffffffffffffffffff1916149050919050565b611cc982826114c6565b611d5857611cee8173ffffffffffffffffffffffffffffffffffffffff166014611fb9565b611cfc8360001c6020611fb9565b604051602001611d0d929190612f00565b6040516020818303038152906040526040517f08c379a0000000000000000000000000000000000000000000000000000000008152600401611d4f9190612fad565b60405180910390fd5b5050565b611d6682826114c6565b611e3857600160008084815260200190815260200160002060000160008373ffffffffffffffffffffffffffffffffffffffff1673ffffffffffffffffffffffffffffffffffffffff16815260200190815260200160002060006101000a81548160ff021916908315150217905550611ddd611b3b565b73ffffffffffffffffffffffffffffffffffffffff168173ffffffffffffffffffffffffffffffffffffffff16837f2f8788117e7eff1d82e926ec794901d17c78024a50270940304540a733656f0d60405160405180910390a45b5050565b6000611e64836000018373ffffffffffffffffffffffffffffffffffffffff1660001b6121f5565b905092915050565b611e7682826114c6565b15611f4957600080600084815260200190815260200160002060000160008373ffffffffffffffffffffffffffffffffffffffff1673ffffffffffffffffffffffffffffffffffffffff16815260200190815260200160002060006101000a81548160ff021916908315150217905550611eee611b3b565b73ffffffffffffffffffffffffffffffffffffffff168173ffffffffffffffffffffffffffffffffffffffff16837ff6391f5c32d9c69d2a47ea670b442974b53935d1edc7fd64eb21e047a839171b60405160405180910390a45b5050565b6000611f75836000018373ffffffffffffffffffffffffffffffffffffffff1660001b612265565b905092915050565b6000826000018281548110611f9557611f946135d2565b5b9060005260206000200154905092915050565b600081600001805490509050919050565b606060006002836002611fcc9190613313565b611fd691906132bd565b67ffffffffffffffff811115611fef57611fee613601565b5b6040519080825280601f01601f1916602001820160405280156120215781602001600182028036833780820191505090505b5090507f300000000000000000000000000000000000000000000000000000000000000081600081518110612059576120586135d2565b5b60200101907effffffffffffffffffffffffffffffffffffffffffffffffffffffffffffff1916908160001a9053507f7800000000000000000000000000000000000000000000000000000000000000816001815181106120bd576120bc6135d2565b5b60200101907effffffffffffffffffffffffffffffffffffffffffffffffffffffffffffff1916908160001a905350600060018460026120fd9190613313565b61210791906132bd565b90505b60018111156121a7577f3031323334353637383961626364656600000000000000000000000000000000600f861660108110612149576121486135d2565b5b1a60f81b8282815181106121605761215f6135d2565b5b60200101907effffffffffffffffffffffffffffffffffffffffffffffffffffffffffffff1916908160001a905350600485901c9450806121a09061346f565b905061210a565b50600084146121eb576040517f08c379a00000000000000000000000000000000000000000000000000000000081526004016121e290612fcf565b60405180910390fd5b8091505092915050565b60006122018383612379565b61225a57826000018290806001815401808255809150506001900390600052602060002001600090919091909150558260000180549050836001016000848152602001908152602001600020819055506001905061225f565b600090505b92915050565b6000808360010160008481526020019081526020016000205490506000811461236d576000600182612297919061336d565b90506000600186600001805490506122af919061336d565b905081811461231e5760008660000182815481106122d0576122cf6135d2565b5b90600052602060002001549050808760000184815481106122f4576122f36135d2565b5b90600052602060002001819055508387600101600083815260200190815260200160002081905550505b85600001805480612332576123316135a3565b5b600190038181906000526020600020016000905590558560010160008681526020019081526020016000206000905560019350505050612373565b60009150505b92915050565b600080836001016000848152602001908152602001600020541415905092915050565b8280548282559060005260206000209081019282156123eb579160200282015b828111156123ea5782518290805190602001906123da929190612465565b50916020019190600101906123bc565b5b5090506123f891906124eb565b5090565b604051806040016040528060008019168152602001600080191681525090565b6040518060400160405280600061ffff168152602001600061ffff1681525090565b60405180606001604052806000151581526020016000151581526020016000151581525090565b82805461247190613499565b90600052602060002090601f01602090048101928261249357600085556124da565b82601f106124ac57805160ff19168380011785556124da565b828001600101855582156124da579182015b828111156124d95782518255916020019190600101906124be565b5b5090506124e7919061250f565b5090565b5b8082111561250b5760008181612502919061252c565b506001016124ec565b5090565b5b80821115612528576000816000905550600101612510565b5090565b50805461253890613499565b6000825580601f1061254a5750612569565b601f016020900490600052602060002090810190612568919061250f565b5b50565b600061257f61257a846131b6565b613191565b905080838252602082019050828560208602820111156125a2576125a161363a565b5b60005b858110156125f057813567ffffffffffffffff8111156125c8576125c7613630565b5b8086016125d589826126be565b855260208501945060208401935050506001810190506125a5565b5050509392505050565b600061260d612608846131e2565b613191565b9050828152602081018484840111156126295761262861363f565b5b61263484828561342d565b509392505050565b60008135905061264b81613848565b92915050565b600082601f83011261266657612665613630565b5b813561267684826020860161256c565b91505092915050565b60008135905061268e8161385f565b92915050565b6000813590506126a381613876565b92915050565b6000813590506126b88161388d565b92915050565b600082601f8301126126d3576126d2613630565b5b81356126e38482602086016125fa565b91505092915050565b60006060828403121561270257612701613635565b5b61270c6060613191565b9050600061271c8482850161267f565b60008301525060206127308482850161267f565b60208301525060406127448482850161267f565b60408301525092915050565b60006040828403121561276657612765613635565b5b6127706040613191565b9050600061278084828501612694565b600083015250602061279484828501612694565b60208301525092915050565b6000604082840312156127b6576127b5613635565b5b6127c06040613191565b905060006127d0848285016127f0565b60008301525060206127e4848285016127f0565b60208301525092915050565b6000813590506127ff816138a4565b92915050565b600081359050612814816138bb565b92915050565b6000602082840312156128305761282f613649565b5b600061283e8482850161263c565b91505092915050565b600080600080600080600080610180898b03121561286857612867613649565b5b60006128768b828c0161263c565b98505060206128878b828c0161263c565b97505060406128988b828c0161263c565b96505060606128a98b828c01612750565b95505060a06128ba8b828c01612805565b94505060c06128cb8b828c016127a0565b93505061010089013567ffffffffffffffff8111156128ed576128ec613644565b5b6128f98b828c01612651565b92505061012061290b8b828c016126ec565b9150509295985092959890939650565b60006020828403121561293157612930613649565b5b600082013567ffffffffffffffff81111561294f5761294e613644565b5b61295b84828501612651565b91505092915050565b60006020828403121561297a57612979613649565b5b600061298884828501612694565b91505092915050565b600080604083850312156129a8576129a7613649565b5b60006129b685828601612694565b92505060206129c78582860161263c565b9150509250929050565b600080604083850312156129e8576129e7613649565b5b60006129f685828601612694565b9250506020612a0785828601612805565b9150509250929050565b600060208284031215612a2757612a26613649565b5b6000612a35848285016126a9565b91505092915050565b600060608284031215612a5457612a53613649565b5b6000612a62848285016126ec565b91505092915050565b600060408284031215612a8157612a80613649565b5b6000612a8f848285016127a0565b91505092915050565b600060208284031215612aae57612aad613649565b5b6000612abc84828501612805565b91505092915050565b6000612ad18383612af1565b60208301905092915050565b6000612ae98383612c1e565b905092915050565b612afa816133a1565b82525050565b612b09816133a1565b82525050565b6000612b1a82613233565b612b24818561326e565b9350612b2f83613213565b8060005b83811015612b60578151612b478882612ac5565b9750612b5283613254565b925050600181019050612b33565b5085935050505092915050565b6000612b788261323e565b612b82818561327f565b935083602082028501612b9485613223565b8060005b85811015612bd05784840389528151612bb18582612add565b9450612bbc83613261565b925060208a01995050600181019050612b98565b50829750879550505050505092915050565b612beb816133b3565b82525050565b612bfa816133b3565b82525050565b612c09816133bf565b82525050565b612c18816133bf565b82525050565b6000612c2982613249565b612c338185613290565b9350612c4381856020860161343c565b612c4c8161364e565b840191505092915050565b6000612c6282613249565b612c6c81856132a1565b9350612c7c81856020860161343c565b612c858161364e565b840191505092915050565b6000612c9b82613249565b612ca581856132b2565b9350612cb581856020860161343c565b80840191505092915050565b6000612cce6020836132a1565b9150612cd98261365f565b602082019050919050565b6000612cf1601c836132a1565b9150612cfc82613688565b602082019050919050565b6000612d146010836132a1565b9150612d1f826136b1565b602082019050919050565b6000612d376011836132a1565b9150612d42826136da565b602082019050919050565b6000612d5a6010836132a1565b9150612d6582613703565b602082019050919050565b6000612d7d600b836132a1565b9150612d888261372c565b602082019050919050565b6000612da06013836132a1565b9150612dab82613755565b602082019050919050565b6000612dc36017836132b2565b9150612dce8261377e565b601782019050919050565b6000612de66012836132a1565b9150612df1826137a7565b602082019050919050565b6000612e096011836132b2565b9150612e14826137d0565b601182019050919050565b6000612e2c602f836132a1565b9150612e37826137f9565b604082019050919050565b606082016000820151612e586000850182612be2565b506020820151612e6b6020850182612be2565b506040820151612e7e6040850182612be2565b50505050565b604082016000820151612e9a6000850182612c00565b506020820151612ead6020850182612c00565b50505050565b604082016000820151612ec96000850182612ee2565b506020820151612edc6020850182612ee2565b50505050565b612eeb816133f5565b82525050565b612efa81613423565b82525050565b6000612f0b82612db6565b9150612f178285612c90565b9150612f2282612dfc565b9150612f2e8284612c90565b91508190509392505050565b6000602082019050612f4f6000830184612b00565b92915050565b60006020820190508181036000830152612f6f8184612b0f565b905092915050565b6000602082019050612f8c6000830184612bf1565b92915050565b6000602082019050612fa76000830184612c0f565b92915050565b60006020820190508181036000830152612fc78184612c57565b905092915050565b60006020820190508181036000830152612fe881612cc1565b9050919050565b6000602082019050818103600083015261300881612ce4565b9050919050565b6000602082019050818103600083015261302881612d07565b9050919050565b6000602082019050818103600083015261304881612d2a565b9050919050565b6000602082019050818103600083015261306881612d4d565b9050919050565b6000602082019050818103600083015261308881612d70565b9050919050565b600060208201905081810360008301526130a881612d93565b9050919050565b600060208201905081810360008301526130c881612dd9565b9050919050565b600060208201905081810360008301526130e881612e1f565b9050919050565b600061016082019050613105600083018a612e84565b6131126040830189612ef1565b61311f6060830188612eb3565b81810360a08301526131318187612b6d565b905061314060c0830186612e42565b8181036101208301526131538185612b0f565b90508181036101408301526131688184612b0f565b905098975050505050505050565b600060208201905061318b6000830184612ef1565b92915050565b600061319b6131ac565b90506131a782826134cb565b919050565b6000604051905090565b600067ffffffffffffffff8211156131d1576131d0613601565b5b602082029050602081019050919050565b600067ffffffffffffffff8211156131fd576131fc613601565b5b6132068261364e565b9050602081019050919050565b6000819050602082019050919050565b6000819050602082019050919050565b600081519050919050565b600081519050919050565b600081519050919050565b6000602082019050919050565b6000602082019050919050565b600082825260208201905092915050565b600082825260208201905092915050565b600082825260208201905092915050565b600082825260208201905092915050565b600081905092915050565b60006132c882613423565b91506132d383613423565b9250827fffffffffffffffffffffffffffffffffffffffffffffffffffffffffffffffff0382111561330857613307613545565b5b828201905092915050565b600061331e82613423565b915061332983613423565b9250817fffffffffffffffffffffffffffffffffffffffffffffffffffffffffffffffff048311821515161561336257613361613545565b5b828202905092915050565b600061337882613423565b915061338383613423565b92508282101561339657613395613545565b5b828203905092915050565b60006133ac82613403565b9050919050565b60008115159050919050565b6000819050919050565b60007fffffffff0000000000000000000000000000000000000000000000000000000082169050919050565b600061ffff82169050919050565b600073ffffffffffffffffffffffffffffffffffffffff82169050919050565b6000819050919050565b82818337600083830152505050565b60005b8381101561345a57808201518184015260208101905061343f565b83811115613469576000848401525b50505050565b600061347a82613423565b9150600082141561348e5761348d613545565b5b600182039050919050565b600060028204905060018216806134b157607f821691505b602082108114156134c5576134c4613574565b5b50919050565b6134d48261364e565b810181811067ffffffffffffffff821117156134f3576134f2613601565b5b80604052505050565b600061350782613423565b91507fffffffffffffffffffffffffffffffffffffffffffffffffffffffffffffffff82141561353a57613539613545565b5b600182019050919050565b7f4e487b7100000000000000000000000000000000000000000000000000000000600052601160045260246000fd5b7f4e487b7100000000000000000000000000000000000000000000000000000000600052602260045260246000fd5b7f4e487b7100000000000000000000000000000000000000000000000000000000600052603160045260246000fd5b7f4e487b7100000000000000000000000000000000000000000000000000000000600052603260045260246000fd5b7f4e487b7100000000000000000000000000000000000000000000000000000000600052604160045260246000fd5b600080fd5b600080fd5b600080fd5b600080fd5b600080fd5b600080fd5b6000601f19601f8301169050919050565b7f537472696e67733a20686578206c656e67746820696e73756666696369656e74600082015250565b7f596f7520616c7265616479207265717565737465642061636365737300000000600082015250565b7f4e65656420726561642061636365737300000000000000000000000000000000600082015250565b7f4e65656420777269746520616363657373000000000000000000000000000000600082015250565b7f416363657373206e6f7420657869737400000000000000000000000000000000600082015250565b7f4e6f742070617469656e74000000000000000000000000000000000000000000600082015250565b7f416c726561647920696e697469616c697a656400000000000000000000000000600082015250565b7f416363657373436f6e74726f6c3a206163636f756e7420000000000000000000600082015250565b7f4e6f207265717565737473207265636f72640000000000000000000000000000600082015250565b7f206973206d697373696e6720726f6c6520000000000000000000000000000000600082015250565b7f416363657373436f6e74726f6c3a2063616e206f6e6c792072656e6f756e636560008201527f20726f6c657320666f722073656c660000000000000000000000000000000000602082015250565b613851816133a1565b811461385c57600080fd5b50565b613868816133b3565b811461387357600080fd5b50565b61387f816133bf565b811461388a57600080fd5b50565b613896816133c9565b81146138a157600080fd5b50565b6138ad816133f5565b81146138b857600080fd5b50565b6138c481613423565b81146138cf57600080fd5b5056fea2646970667358221220f3aef7349cde6cbe3fccda1697c732dc9bb77e89fa1138170851fc66fbd27df664736f6c63430008060033",
			"opcodes": "PUSH1 0x80 PUSH1 0x40 MSTORE PUSH1 0x40 MLOAD PUSH3 0x12 SWAP1 PUSH3 0x36F JUMP JUMPDEST PUSH1 0x40 MLOAD DUP1 SWAP2 SUB SWAP1 PUSH1 0x0 CREATE DUP1 ISZERO DUP1 ISZERO PUSH3 0x2F JUMPI RETURNDATASIZE PUSH1 0x0 DUP1 RETURNDATACOPY RETURNDATASIZE PUSH1 0x0 REVERT JUMPDEST POP PUSH1 0x3 PUSH1 0x0 PUSH2 0x100 EXP DUP2 SLOAD DUP2 PUSH20 0xFFFFFFFFFFFFFFFFFFFFFFFFFFFFFFFFFFFFFFFF MUL NOT AND SWAP1 DUP4 PUSH20 0xFFFFFFFFFFFFFFFFFFFFFFFFFFFFFFFFFFFFFFFF AND MUL OR SWAP1 SSTORE POP PUSH1 0x40 MLOAD PUSH3 0x7E SWAP1 PUSH3 0x37D JUMP JUMPDEST PUSH1 0x40 MLOAD DUP1 SWAP2 SUB SWAP1 PUSH1 0x0 CREATE DUP1 ISZERO DUP1 ISZERO PUSH3 0x9B JUMPI RETURNDATASIZE PUSH1 0x0 DUP1 RETURNDATACOPY RETURNDATASIZE PUSH1 0x0 REVERT JUMPDEST POP PUSH1 0x4 PUSH1 0x0 PUSH2 0x100 EXP DUP2 SLOAD DUP2 PUSH20 0xFFFFFFFFFFFFFFFFFFFFFFFFFFFFFFFFFFFFFFFF MUL NOT AND SWAP1 DUP4 PUSH20 0xFFFFFFFFFFFFFFFFFFFFFFFFFFFFFFFFFFFFFFFF AND MUL OR SWAP1 SSTORE POP CALLVALUE DUP1 ISZERO PUSH3 0xE9 JUMPI PUSH1 0x0 DUP1 REVERT JUMPDEST POP PUSH3 0x11C PUSH32 0xE5A0B4D50F56047F84728557FEDBDA92F956391BC9D5C762E8461996DD8E7AD7 CALLER PUSH3 0x174 PUSH1 0x20 SHL PUSH1 0x20 SHR JUMP JUMPDEST PUSH3 0x16E PUSH32 0xAF31C50B4AAB7AF0193B792816047837F36C88A23BBB4D0E3581C88CB4BF86AB PUSH32 0xE5A0B4D50F56047F84728557FEDBDA92F956391BC9D5C762E8461996DD8E7AD7 PUSH3 0x18A PUSH1 0x20 SHL PUSH1 0x20 SHR JUMP JUMPDEST PUSH3 0x38B JUMP JUMPDEST PUSH3 0x186 DUP3 DUP3 PUSH3 0x1ED PUSH1 0x20 SHL PUSH1 0x20 SHR JUMP JUMPDEST POP POP JUMP JUMPDEST PUSH1 0x0 PUSH3 0x19D DUP4 PUSH3 0x2DE PUSH1 0x20 SHL PUSH1 0x20 SHR JUMP JUMPDEST SWAP1 POP DUP2 PUSH1 0x0 DUP1 DUP6 DUP2 MSTORE PUSH1 0x20 ADD SWAP1 DUP2 MSTORE PUSH1 0x20 ADD PUSH1 0x0 KECCAK256 PUSH1 0x1 ADD DUP2 SWAP1 SSTORE POP DUP2 DUP2 DUP5 PUSH32 0xBD79B86FFE0AB8E8776151514217CD7CACD52C909F66475C3AF44E129F0B00FF PUSH1 0x40 MLOAD PUSH1 0x40 MLOAD DUP1 SWAP2 SUB SWAP1 LOG4 POP POP POP JUMP JUMPDEST PUSH3 0x1FF DUP3 DUP3 PUSH3 0x2FD PUSH1 0x20 SHL PUSH1 0x20 SHR JUMP JUMPDEST PUSH3 0x2DA JUMPI PUSH1 0x1 PUSH1 0x0 DUP1 DUP5 DUP2 MSTORE PUSH1 0x20 ADD SWAP1 DUP2 MSTORE PUSH1 0x20 ADD PUSH1 0x0 KECCAK256 PUSH1 0x0 ADD PUSH1 0x0 DUP4 PUSH20 0xFFFFFFFFFFFFFFFFFFFFFFFFFFFFFFFFFFFFFFFF AND PUSH20 0xFFFFFFFFFFFFFFFFFFFFFFFFFFFFFFFFFFFFFFFF AND DUP2 MSTORE PUSH1 0x20 ADD SWAP1 DUP2 MSTORE PUSH1 0x20 ADD PUSH1 0x0 KECCAK256 PUSH1 0x0 PUSH2 0x100 EXP DUP2 SLOAD DUP2 PUSH1 0xFF MUL NOT AND SWAP1 DUP4 ISZERO ISZERO MUL OR SWAP1 SSTORE POP PUSH3 0x27F PUSH3 0x367 PUSH1 0x20 SHL PUSH1 0x20 SHR JUMP JUMPDEST PUSH20 0xFFFFFFFFFFFFFFFFFFFFFFFFFFFFFFFFFFFFFFFF AND DUP2 PUSH20 0xFFFFFFFFFFFFFFFFFFFFFFFFFFFFFFFFFFFFFFFF AND DUP4 PUSH32 0x2F8788117E7EFF1D82E926EC794901D17C78024A50270940304540A733656F0D PUSH1 0x40 MLOAD PUSH1 0x40 MLOAD DUP1 SWAP2 SUB SWAP1 LOG4 JUMPDEST POP POP JUMP JUMPDEST PUSH1 0x0 DUP1 PUSH1 0x0 DUP4 DUP2 MSTORE PUSH1 0x20 ADD SWAP1 DUP2 MSTORE PUSH1 0x20 ADD PUSH1 0x0 KECCAK256 PUSH1 0x1 ADD SLOAD SWAP1 POP SWAP2 SWAP1 POP JUMP JUMPDEST PUSH1 0x0 DUP1 PUSH1 0x0 DUP5 DUP2 MSTORE PUSH1 0x20 ADD SWAP1 DUP2 MSTORE PUSH1 0x20 ADD PUSH1 0x0 KECCAK256 PUSH1 0x0 ADD PUSH1 0x0 DUP4 PUSH20 0xFFFFFFFFFFFFFFFFFFFFFFFFFFFFFFFFFFFFFFFF AND PUSH20 0xFFFFFFFFFFFFFFFFFFFFFFFFFFFFFFFFFFFFFFFF AND DUP2 MSTORE PUSH1 0x20 ADD SWAP1 DUP2 MSTORE PUSH1 0x20 ADD PUSH1 0x0 KECCAK256 PUSH1 0x0 SWAP1 SLOAD SWAP1 PUSH2 0x100 EXP SWAP1 DIV PUSH1 0xFF AND SWAP1 POP SWAP3 SWAP2 POP POP JUMP JUMPDEST PUSH1 0x0 CALLER SWAP1 POP SWAP1 JUMP JUMPDEST PUSH2 0x2145 DUP1 PUSH3 0x2DC7 DUP4 CODECOPY ADD SWAP1 JUMP JUMPDEST PUSH2 0x4BA2 DUP1 PUSH3 0x4F0C DUP4 CODECOPY ADD SWAP1 JUMP JUMPDEST PUSH2 0x2A2C DUP1 PUSH3 0x39B PUSH1 0x0 CODECOPY PUSH1 0x0 RETURN INVALID PUSH1 0x80 PUSH1 0x40 MSTORE CALLVALUE DUP1 ISZERO PUSH2 0x10 JUMPI PUSH1 0x0 DUP1 REVERT JUMPDEST POP PUSH1 0x4 CALLDATASIZE LT PUSH2 0x100 JUMPI PUSH1 0x0 CALLDATALOAD PUSH1 0xE0 SHR DUP1 PUSH4 0x91D14854 GT PUSH2 0x97 JUMPI DUP1 PUSH4 0xB5368E20 GT PUSH2 0x66 JUMPI DUP1 PUSH4 0xB5368E20 EQ PUSH2 0x2A9 JUMPI DUP1 PUSH4 0xD547741F EQ PUSH2 0x2D9 JUMPI DUP1 PUSH4 0xF45EDB5F EQ PUSH2 0x2F5 JUMPI DUP1 PUSH4 0xF804D836 EQ PUSH2 0x313 JUMPI PUSH2 0x100 JUMP JUMPDEST DUP1 PUSH4 0x91D14854 EQ PUSH2 0x223 JUMPI DUP1 PUSH4 0xA217FDDF EQ PUSH2 0x253 JUMPI DUP1 PUSH4 0xA4CBAF31 EQ PUSH2 0x271 JUMPI DUP1 PUSH4 0xB3275216 EQ PUSH2 0x28D JUMPI PUSH2 0x100 JUMP JUMPDEST DUP1 PUSH4 0x2F04E064 GT PUSH2 0xD3 JUMPI DUP1 PUSH4 0x2F04E064 EQ PUSH2 0x19F JUMPI DUP1 PUSH4 0x2F2FF15D EQ PUSH2 0x1CF JUMPI DUP1 PUSH4 0x36568ABE EQ PUSH2 0x1EB JUMPI DUP1 PUSH4 0x832FF210 EQ PUSH2 0x207 JUMPI PUSH2 0x100 JUMP JUMPDEST DUP1 PUSH4 0x1FFC9A7 EQ PUSH2 0x105 JUMPI DUP1 PUSH4 0x80121DA EQ PUSH2 0x135 JUMPI DUP1 PUSH4 0x15BF3C09 EQ PUSH2 0x153 JUMPI DUP1 PUSH4 0x248A9CA3 EQ PUSH2 0x16F JUMPI JUMPDEST PUSH1 0x0 DUP1 REVERT JUMPDEST PUSH2 0x11F PUSH1 0x4 DUP1 CALLDATASIZE SUB DUP2 ADD SWAP1 PUSH2 0x11A SWAP2 SWAP1 PUSH2 0x1C74 JUMP JUMPDEST PUSH2 0x343 JUMP JUMPDEST PUSH1 0x40 MLOAD PUSH2 0x12C SWAP2 SWAP1 PUSH2 0x22B0 JUMP JUMPDEST PUSH1 0x40 MLOAD DUP1 SWAP2 SUB SWAP1 RETURN JUMPDEST PUSH2 0x13D PUSH2 0x3BD JUMP JUMPDEST PUSH1 0x40 MLOAD PUSH2 0x14A SWAP2 SWAP1 PUSH2 0x22CB JUMP JUMPDEST PUSH1 0x40 MLOAD DUP1 SWAP2 SUB SWAP1 RETURN JUMPDEST PUSH2 0x16D PUSH1 0x4 DUP1 CALLDATASIZE SUB DUP2 ADD SWAP1 PUSH2 0x168 SWAP2 SWAP1 PUSH2 0x1B17 JUMP JUMPDEST PUSH2 0x3E1 JUMP JUMPDEST STOP JUMPDEST PUSH2 0x189 PUSH1 0x4 DUP1 CALLDATASIZE SUB DUP2 ADD SWAP1 PUSH2 0x184 SWAP2 SWAP1 PUSH2 0x1BC7 JUMP JUMPDEST PUSH2 0x6AB JUMP JUMPDEST PUSH1 0x40 MLOAD PUSH2 0x196 SWAP2 SWAP1 PUSH2 0x22CB JUMP JUMPDEST PUSH1 0x40 MLOAD DUP1 SWAP2 SUB SWAP1 RETURN JUMPDEST PUSH2 0x1B9 PUSH1 0x4 DUP1 CALLDATASIZE SUB DUP2 ADD SWAP1 PUSH2 0x1B4 SWAP2 SWAP1 PUSH2 0x1ABD JUMP JUMPDEST PUSH2 0x6CA JUMP JUMPDEST PUSH1 0x40 MLOAD PUSH2 0x1C6 SWAP2 SWAP1 PUSH2 0x21B6 JUMP JUMPDEST PUSH1 0x40 MLOAD DUP1 SWAP2 SUB SWAP1 RETURN JUMPDEST PUSH2 0x1E9 PUSH1 0x4 DUP1 CALLDATASIZE SUB DUP2 ADD SWAP1 PUSH2 0x1E4 SWAP2 SWAP1 PUSH2 0x1BF4 JUMP JUMPDEST PUSH2 0x733 JUMP JUMPDEST STOP JUMPDEST PUSH2 0x205 PUSH1 0x4 DUP1 CALLDATASIZE SUB DUP2 ADD SWAP1 PUSH2 0x200 SWAP2 SWAP1 PUSH2 0x1BF4 JUMP JUMPDEST PUSH2 0x754 JUMP JUMPDEST STOP JUMPDEST PUSH2 0x221 PUSH1 0x4 DUP1 CALLDATASIZE SUB DUP2 ADD SWAP1 PUSH2 0x21C SWAP2 SWAP1 PUSH2 0x1ABD JUMP JUMPDEST PUSH2 0x7D7 JUMP JUMPDEST STOP JUMPDEST PUSH2 0x23D PUSH1 0x4 DUP1 CALLDATASIZE SUB DUP2 ADD SWAP1 PUSH2 0x238 SWAP2 SWAP1 PUSH2 0x1BF4 JUMP JUMPDEST PUSH2 0xA11 JUMP JUMPDEST PUSH1 0x40 MLOAD PUSH2 0x24A SWAP2 SWAP1 PUSH2 0x22B0 JUMP JUMPDEST PUSH1 0x40 MLOAD DUP1 SWAP2 SUB SWAP1 RETURN JUMPDEST PUSH2 0x25B PUSH2 0xA7B JUMP JUMPDEST PUSH1 0x40 MLOAD PUSH2 0x268 SWAP2 SWAP1 PUSH2 0x22CB JUMP JUMPDEST PUSH1 0x40 MLOAD DUP1 SWAP2 SUB SWAP1 RETURN JUMPDEST PUSH2 0x28B PUSH1 0x4 DUP1 CALLDATASIZE SUB DUP2 ADD SWAP1 PUSH2 0x286 SWAP2 SWAP1 PUSH2 0x1ABD JUMP JUMPDEST PUSH2 0xA82 JUMP JUMPDEST STOP JUMPDEST PUSH2 0x2A7 PUSH1 0x4 DUP1 CALLDATASIZE SUB DUP2 ADD SWAP1 PUSH2 0x2A2 SWAP2 SWAP1 PUSH2 0x1CA1 JUMP JUMPDEST PUSH2 0xC24 JUMP JUMPDEST STOP JUMPDEST PUSH2 0x2C3 PUSH1 0x4 DUP1 CALLDATASIZE SUB DUP2 ADD SWAP1 PUSH2 0x2BE SWAP2 SWAP1 PUSH2 0x1ABD JUMP JUMPDEST PUSH2 0xE6C JUMP JUMPDEST PUSH1 0x40 MLOAD PUSH2 0x2D0 SWAP2 SWAP1 PUSH2 0x21B6 JUMP JUMPDEST PUSH1 0x40 MLOAD DUP1 SWAP2 SUB SWAP1 RETURN JUMPDEST PUSH2 0x2F3 PUSH1 0x4 DUP1 CALLDATASIZE SUB DUP2 ADD SWAP1 PUSH2 0x2EE SWAP2 SWAP1 PUSH2 0x1BF4 JUMP JUMPDEST PUSH2 0xED5 JUMP JUMPDEST STOP JUMPDEST PUSH2 0x2FD PUSH2 0xEF6 JUMP JUMPDEST PUSH1 0x40 MLOAD PUSH2 0x30A SWAP2 SWAP1 PUSH2 0x22CB JUMP JUMPDEST PUSH1 0x40 MLOAD DUP1 SWAP2 SUB SWAP1 RETURN JUMPDEST PUSH2 0x32D PUSH1 0x4 DUP1 CALLDATASIZE SUB DUP2 ADD SWAP1 PUSH2 0x328 SWAP2 SWAP1 PUSH2 0x1B7E JUMP JUMPDEST PUSH2 0xF1A JUMP JUMPDEST PUSH1 0x40 MLOAD PUSH2 0x33A SWAP2 SWAP1 PUSH2 0x228E JUMP JUMPDEST PUSH1 0x40 MLOAD DUP1 SWAP2 SUB SWAP1 RETURN JUMPDEST PUSH1 0x0 PUSH32 0x7965DB0B00000000000000000000000000000000000000000000000000000000 PUSH28 0xFFFFFFFFFFFFFFFFFFFFFFFFFFFFFFFFFFFFFFFFFFFFFFFFFFFFFFFF NOT AND DUP3 PUSH28 0xFFFFFFFFFFFFFFFFFFFFFFFFFFFFFFFFFFFFFFFFFFFFFFFFFFFFFFFF NOT AND EQ DUP1 PUSH2 0x3B6 JUMPI POP PUSH2 0x3B5 DUP3 PUSH2 0x11B7 JUMP JUMPDEST JUMPDEST SWAP1 POP SWAP2 SWAP1 POP JUMP JUMPDEST PUSH32 0xAF31C50B4AAB7AF0193B792816047837F36C88A23BBB4D0E3581C88CB4BF86AB DUP2 JUMP JUMPDEST PUSH2 0x40B PUSH32 0xE5A0B4D50F56047F84728557FEDBDA92F956391BC9D5C762E8461996DD8E7AD7 CALLER PUSH2 0xA11 JUMP JUMPDEST DUP1 PUSH2 0x43C JUMPI POP PUSH2 0x43B PUSH32 0xAF31C50B4AAB7AF0193B792816047837F36C88A23BBB4D0E3581C88CB4BF86AB CALLER PUSH2 0xA11 JUMP JUMPDEST JUMPDEST PUSH2 0x47B JUMPI PUSH1 0x40 MLOAD PUSH32 0x8C379A000000000000000000000000000000000000000000000000000000000 DUP2 MSTORE PUSH1 0x4 ADD PUSH2 0x472 SWAP1 PUSH2 0x2388 JUMP JUMPDEST PUSH1 0x40 MLOAD DUP1 SWAP2 SUB SWAP1 REVERT JUMPDEST PUSH1 0x0 PUSH20 0xFFFFFFFFFFFFFFFFFFFFFFFFFFFFFFFFFFFFFFFF AND PUSH1 0x1 PUSH1 0x0 DUP7 PUSH20 0xFFFFFFFFFFFFFFFFFFFFFFFFFFFFFFFFFFFFFFFF AND PUSH20 0xFFFFFFFFFFFFFFFFFFFFFFFFFFFFFFFFFFFFFFFF AND DUP2 MSTORE PUSH1 0x20 ADD SWAP1 DUP2 MSTORE PUSH1 0x20 ADD PUSH1 0x0 KECCAK256 PUSH1 0x0 SWAP1 SLOAD SWAP1 PUSH2 0x100 EXP SWAP1 DIV PUSH20 0xFFFFFFFFFFFFFFFFFFFFFFFFFFFFFFFFFFFFFFFF AND PUSH20 0xFFFFFFFFFFFFFFFFFFFFFFFFFFFFFFFFFFFFFFFF AND EQ PUSH2 0x549 JUMPI PUSH1 0x40 MLOAD PUSH32 0x8C379A000000000000000000000000000000000000000000000000000000000 DUP2 MSTORE PUSH1 0x4 ADD PUSH2 0x540 SWAP1 PUSH2 0x2368 JUMP JUMPDEST PUSH1 0x40 MLOAD DUP1 SWAP2 SUB SWAP1 REVERT JUMPDEST PUSH1 0x3 PUSH1 0x0 SWAP1 SLOAD SWAP1 PUSH2 0x100 EXP SWAP1 DIV PUSH20 0xFFFFFFFFFFFFFFFFFFFFFFFFFFFFFFFFFFFFFFFF AND PUSH20 0xFFFFFFFFFFFFFFFFFFFFFFFFFFFFFFFFFFFFFFFF AND PUSH4 0xF13E4869 DUP6 DUP6 DUP6 PUSH1 0x40 MLOAD DUP1 PUSH1 0x40 ADD PUSH1 0x40 MSTORE DUP1 DUP8 ISZERO ISZERO DUP2 MSTORE PUSH1 0x20 ADD CALLER PUSH20 0xFFFFFFFFFFFFFFFFFFFFFFFFFFFFFFFFFFFFFFFF AND DUP2 MSTORE POP PUSH1 0x40 MLOAD DUP6 PUSH4 0xFFFFFFFF AND PUSH1 0xE0 SHL DUP2 MSTORE PUSH1 0x4 ADD PUSH2 0x5D6 SWAP5 SWAP4 SWAP3 SWAP2 SWAP1 PUSH2 0x21D1 JUMP JUMPDEST PUSH1 0x20 PUSH1 0x40 MLOAD DUP1 DUP4 SUB DUP2 PUSH1 0x0 DUP8 DUP1 EXTCODESIZE ISZERO DUP1 ISZERO PUSH2 0x5F0 JUMPI PUSH1 0x0 DUP1 REVERT JUMPDEST POP GAS CALL ISZERO DUP1 ISZERO PUSH2 0x604 JUMPI RETURNDATASIZE PUSH1 0x0 DUP1 RETURNDATACOPY RETURNDATASIZE PUSH1 0x0 REVERT JUMPDEST POP POP POP POP PUSH1 0x40 MLOAD RETURNDATASIZE PUSH1 0x1F NOT PUSH1 0x1F DUP3 ADD AND DUP3 ADD DUP1 PUSH1 0x40 MSTORE POP DUP2 ADD SWAP1 PUSH2 0x628 SWAP2 SWAP1 PUSH2 0x1AEA JUMP JUMPDEST PUSH1 0x1 PUSH1 0x0 DUP7 PUSH20 0xFFFFFFFFFFFFFFFFFFFFFFFFFFFFFFFFFFFFFFFF AND PUSH20 0xFFFFFFFFFFFFFFFFFFFFFFFFFFFFFFFFFFFFFFFF AND DUP2 MSTORE PUSH1 0x20 ADD SWAP1 DUP2 MSTORE PUSH1 0x20 ADD PUSH1 0x0 KECCAK256 PUSH1 0x0 PUSH2 0x100 EXP DUP2 SLOAD DUP2 PUSH20 0xFFFFFFFFFFFFFFFFFFFFFFFFFFFFFFFFFFFFFFFF MUL NOT AND SWAP1 DUP4 PUSH20 0xFFFFFFFFFFFFFFFFFFFFFFFFFFFFFFFFFFFFFFFF AND MUL OR SWAP1 SSTORE POP POP POP POP POP JUMP JUMPDEST PUSH1 0x0 DUP1 PUSH1 0x0 DUP4 DUP2 MSTORE PUSH1 0x20 ADD SWAP1 DUP2 MSTORE PUSH1 0x20 ADD PUSH1 0x0 KECCAK256 PUSH1 0x1 ADD SLOAD SWAP1 POP SWAP2 SWAP1 POP JUMP JUMPDEST PUSH1 0x0 PUSH1 0x1 PUSH1 0x0 DUP4 PUSH20 0xFFFFFFFFFFFFFFFFFFFFFFFFFFFFFFFFFFFFFFFF AND PUSH20 0xFFFFFFFFFFFFFFFFFFFFFFFFFFFFFFFFFFFFFFFF AND DUP2 MSTORE PUSH1 0x20 ADD SWAP1 DUP2 MSTORE PUSH1 0x20 ADD PUSH1 0x0 KECCAK256 PUSH1 0x0 SWAP1 SLOAD SWAP1 PUSH2 0x100 EXP SWAP1 DIV PUSH20 0xFFFFFFFFFFFFFFFFFFFFFFFFFFFFFFFFFFFFFFFF AND SWAP1 POP SWAP2 SWAP1 POP JUMP JUMPDEST PUSH2 0x73C DUP3 PUSH2 0x6AB JUMP JUMPDEST PUSH2 0x745 DUP2 PUSH2 0x1221 JUMP JUMPDEST PUSH2 0x74F DUP4 DUP4 PUSH2 0x1235 JUMP JUMPDEST POP POP POP JUMP JUMPDEST PUSH2 0x75C PUSH2 0x1315 JUMP JUMPDEST PUSH20 0xFFFFFFFFFFFFFFFFFFFFFFFFFFFFFFFFFFFFFFFF AND DUP2 PUSH20 0xFFFFFFFFFFFFFFFFFFFFFFFFFFFFFFFFFFFFFFFF AND EQ PUSH2 0x7C9 JUMPI PUSH1 0x40 MLOAD PUSH32 0x8C379A000000000000000000000000000000000000000000000000000000000 DUP2 MSTORE PUSH1 0x4 ADD PUSH2 0x7C0 SWAP1 PUSH2 0x23A8 JUMP JUMPDEST PUSH1 0x40 MLOAD DUP1 SWAP2 SUB SWAP1 REVERT JUMPDEST PUSH2 0x7D3 DUP3 DUP3 PUSH2 0x131D JUMP JUMPDEST POP POP JUMP JUMPDEST PUSH1 0x0 PUSH20 0xFFFFFFFFFFFFFFFFFFFFFFFFFFFFFFFFFFFFFFFF AND PUSH1 0x1 PUSH1 0x0 CALLER PUSH20 0xFFFFFFFFFFFFFFFFFFFFFFFFFFFFFFFFFFFFFFFF AND PUSH20 0xFFFFFFFFFFFFFFFFFFFFFFFFFFFFFFFFFFFFFFFF AND DUP2 MSTORE PUSH1 0x20 ADD SWAP1 DUP2 MSTORE PUSH1 0x20 ADD PUSH1 0x0 KECCAK256 PUSH1 0x0 SWAP1 SLOAD SWAP1 PUSH2 0x100 EXP SWAP1 DIV PUSH20 0xFFFFFFFFFFFFFFFFFFFFFFFFFFFFFFFFFFFFFFFF AND PUSH20 0xFFFFFFFFFFFFFFFFFFFFFFFFFFFFFFFFFFFFFFFF AND EQ ISZERO DUP1 ISZERO PUSH2 0x8FF JUMPI POP PUSH1 0x0 PUSH20 0xFFFFFFFFFFFFFFFFFFFFFFFFFFFFFFFFFFFFFFFF AND PUSH1 0x2 PUSH1 0x0 DUP4 PUSH20 0xFFFFFFFFFFFFFFFFFFFFFFFFFFFFFFFFFFFFFFFF AND PUSH20 0xFFFFFFFFFFFFFFFFFFFFFFFFFFFFFFFFFFFFFFFF AND DUP2 MSTORE PUSH1 0x20 ADD SWAP1 DUP2 MSTORE PUSH1 0x20 ADD PUSH1 0x0 KECCAK256 PUSH1 0x0 SWAP1 SLOAD SWAP1 PUSH2 0x100 EXP SWAP1 DIV PUSH20 0xFFFFFFFFFFFFFFFFFFFFFFFFFFFFFFFFFFFFFFFF AND PUSH20 0xFFFFFFFFFFFFFFFFFFFFFFFFFFFFFFFFFFFFFFFF AND EQ ISZERO JUMPDEST PUSH2 0x93E JUMPI PUSH1 0x40 MLOAD PUSH32 0x8C379A000000000000000000000000000000000000000000000000000000000 DUP2 MSTORE PUSH1 0x4 ADD PUSH2 0x935 SWAP1 PUSH2 0x2328 JUMP JUMPDEST PUSH1 0x40 MLOAD DUP1 SWAP2 SUB SWAP1 REVERT JUMPDEST PUSH1 0x0 PUSH1 0x2 PUSH1 0x0 DUP4 PUSH20 0xFFFFFFFFFFFFFFFFFFFFFFFFFFFFFFFFFFFFFFFF AND PUSH20 0xFFFFFFFFFFFFFFFFFFFFFFFFFFFFFFFFFFFFFFFF AND DUP2 MSTORE PUSH1 0x20 ADD SWAP1 DUP2 MSTORE PUSH1 0x20 ADD PUSH1 0x0 KECCAK256 PUSH1 0x0 SWAP1 SLOAD SWAP1 PUSH2 0x100 EXP SWAP1 DIV PUSH20 0xFFFFFFFFFFFFFFFFFFFFFFFFFFFFFFFFFFFFFFFF AND SWAP1 POP DUP1 PUSH20 0xFFFFFFFFFFFFFFFFFFFFFFFFFFFFFFFFFFFFFFFF AND PUSH4 0x9ACA66F8 CALLER PUSH1 0x40 MLOAD DUP3 PUSH4 0xFFFFFFFF AND PUSH1 0xE0 SHL DUP2 MSTORE PUSH1 0x4 ADD PUSH2 0x9DB SWAP2 SWAP1 PUSH2 0x21B6 JUMP JUMPDEST PUSH1 0x0 PUSH1 0x40 MLOAD DUP1 DUP4 SUB DUP2 PUSH1 0x0 DUP8 DUP1 EXTCODESIZE ISZERO DUP1 ISZERO PUSH2 0x9F5 JUMPI PUSH1 0x0 DUP1 REVERT JUMPDEST POP GAS CALL ISZERO DUP1 ISZERO PUSH2 0xA09 JUMPI RETURNDATASIZE PUSH1 0x0 DUP1 RETURNDATACOPY RETURNDATASIZE PUSH1 0x0 REVERT JUMPDEST POP POP POP POP POP POP JUMP JUMPDEST PUSH1 0x0 DUP1 PUSH1 0x0 DUP5 DUP2 MSTORE PUSH1 0x20 ADD SWAP1 DUP2 MSTORE PUSH1 0x20 ADD PUSH1 0x0 KECCAK256 PUSH1 0x0 ADD PUSH1 0x0 DUP4 PUSH20 0xFFFFFFFFFFFFFFFFFFFFFFFFFFFFFFFFFFFFFFFF AND PUSH20 0xFFFFFFFFFFFFFFFFFFFFFFFFFFFFFFFFFFFFFFFF AND DUP2 MSTORE PUSH1 0x20 ADD SWAP1 DUP2 MSTORE PUSH1 0x20 ADD PUSH1 0x0 KECCAK256 PUSH1 0x0 SWAP1 SLOAD SWAP1 PUSH2 0x100 EXP SWAP1 DIV PUSH1 0xFF AND SWAP1 POP SWAP3 SWAP2 POP POP JUMP JUMPDEST PUSH1 0x0 DUP1 SHL DUP2 JUMP JUMPDEST PUSH1 0x0 PUSH20 0xFFFFFFFFFFFFFFFFFFFFFFFFFFFFFFFFFFFFFFFF AND PUSH1 0x2 PUSH1 0x0 DUP4 PUSH20 0xFFFFFFFFFFFFFFFFFFFFFFFFFFFFFFFFFFFFFFFF AND PUSH20 0xFFFFFFFFFFFFFFFFFFFFFFFFFFFFFFFFFFFFFFFF AND DUP2 MSTORE PUSH1 0x20 ADD SWAP1 DUP2 MSTORE PUSH1 0x20 ADD PUSH1 0x0 KECCAK256 PUSH1 0x0 SWAP1 SLOAD SWAP1 PUSH2 0x100 EXP SWAP1 DIV PUSH20 0xFFFFFFFFFFFFFFFFFFFFFFFFFFFFFFFFFFFFFFFF AND PUSH20 0xFFFFFFFFFFFFFFFFFFFFFFFFFFFFFFFFFFFFFFFF AND EQ ISZERO PUSH2 0xB51 JUMPI PUSH1 0x40 MLOAD PUSH32 0x8C379A000000000000000000000000000000000000000000000000000000000 DUP2 MSTORE PUSH1 0x4 ADD PUSH2 0xB48 SWAP1 PUSH2 0x2348 JUMP JUMPDEST PUSH1 0x40 MLOAD DUP1 SWAP2 SUB SWAP1 REVERT JUMPDEST PUSH1 0x0 PUSH1 0x2 PUSH1 0x0 DUP4 PUSH20 0xFFFFFFFFFFFFFFFFFFFFFFFFFFFFFFFFFFFFFFFF AND PUSH20 0xFFFFFFFFFFFFFFFFFFFFFFFFFFFFFFFFFFFFFFFF AND DUP2 MSTORE PUSH1 0x20 ADD SWAP1 DUP2 MSTORE PUSH1 0x20 ADD PUSH1 0x0 KECCAK256 PUSH1 0x0 SWAP1 SLOAD SWAP1 PUSH2 0x100 EXP SWAP1 DIV PUSH20 0xFFFFFFFFFFFFFFFFFFFFFFFFFFFFFFFFFFFFFFFF AND SWAP1 POP DUP1 PUSH20 0xFFFFFFFFFFFFFFFFFFFFFFFFFFFFFFFFFFFFFFFF AND PUSH4 0xE3A5A4DE CALLER PUSH1 0x40 MLOAD DUP3 PUSH4 0xFFFFFFFF AND PUSH1 0xE0 SHL DUP2 MSTORE PUSH1 0x4 ADD PUSH2 0xBEE SWAP2 SWAP1 PUSH2 0x21B6 JUMP JUMPDEST PUSH1 0x0 PUSH1 0x40 MLOAD DUP1 DUP4 SUB DUP2 PUSH1 0x0 DUP8 DUP1 EXTCODESIZE ISZERO DUP1 ISZERO PUSH2 0xC08 JUMPI PUSH1 0x0 DUP1 REVERT JUMPDEST POP GAS CALL ISZERO DUP1 ISZERO PUSH2 0xC1C JUMPI RETURNDATASIZE PUSH1 0x0 DUP1 RETURNDATACOPY RETURNDATASIZE PUSH1 0x0 REVERT JUMPDEST POP POP POP POP POP POP JUMP JUMPDEST PUSH1 0x0 PUSH20 0xFFFFFFFFFFFFFFFFFFFFFFFFFFFFFFFFFFFFFFFF AND PUSH1 0x2 PUSH1 0x0 DUP4 PUSH1 0x20 ADD MLOAD PUSH20 0xFFFFFFFFFFFFFFFFFFFFFFFFFFFFFFFFFFFFFFFF AND PUSH20 0xFFFFFFFFFFFFFFFFFFFFFFFFFFFFFFFFFFFFFFFF AND DUP2 MSTORE PUSH1 0x20 ADD SWAP1 DUP2 MSTORE PUSH1 0x20 ADD PUSH1 0x0 KECCAK256 PUSH1 0x0 SWAP1 SLOAD SWAP1 PUSH2 0x100 EXP SWAP1 DIV PUSH20 0xFFFFFFFFFFFFFFFFFFFFFFFFFFFFFFFFFFFFFFFF AND PUSH20 0xFFFFFFFFFFFFFFFFFFFFFFFFFFFFFFFFFFFFFFFF AND EQ PUSH2 0xCF6 JUMPI PUSH1 0x40 MLOAD PUSH32 0x8C379A000000000000000000000000000000000000000000000000000000000 DUP2 MSTORE PUSH1 0x4 ADD PUSH2 0xCED SWAP1 PUSH2 0x2368 JUMP JUMPDEST PUSH1 0x40 MLOAD DUP1 SWAP2 SUB SWAP1 REVERT JUMPDEST PUSH1 0x4 PUSH1 0x0 SWAP1 SLOAD SWAP1 PUSH2 0x100 EXP SWAP1 DIV PUSH20 0xFFFFFFFFFFFFFFFFFFFFFFFFFFFFFFFFFFFFFFFF AND PUSH20 0xFFFFFFFFFFFFFFFFFFFFFFFFFFFFFFFFFFFFFFFF AND PUSH4 0xB4A9EBF3 DUP3 PUSH1 0x20 ADD MLOAD DUP9 DUP9 DUP9 DUP9 DUP9 PUSH1 0x40 MLOAD DUP1 PUSH1 0x40 ADD PUSH1 0x40 MSTORE DUP1 DUP11 PUSH1 0x0 ADD MLOAD ISZERO ISZERO DUP2 MSTORE PUSH1 0x20 ADD CALLER PUSH20 0xFFFFFFFFFFFFFFFFFFFFFFFFFFFFFFFFFFFFFFFF AND DUP2 MSTORE POP PUSH1 0x40 MLOAD DUP9 PUSH4 0xFFFFFFFF AND PUSH1 0xE0 SHL DUP2 MSTORE PUSH1 0x4 ADD PUSH2 0xD91 SWAP8 SWAP7 SWAP6 SWAP5 SWAP4 SWAP3 SWAP2 SWAP1 PUSH2 0x2216 JUMP JUMPDEST PUSH1 0x20 PUSH1 0x40 MLOAD DUP1 DUP4 SUB DUP2 PUSH1 0x0 DUP8 DUP1 EXTCODESIZE ISZERO DUP1 ISZERO PUSH2 0xDAB JUMPI PUSH1 0x0 DUP1 REVERT JUMPDEST POP GAS CALL ISZERO DUP1 ISZERO PUSH2 0xDBF JUMPI RETURNDATASIZE PUSH1 0x0 DUP1 RETURNDATACOPY RETURNDATASIZE PUSH1 0x0 REVERT JUMPDEST POP POP POP POP PUSH1 0x40 MLOAD RETURNDATASIZE PUSH1 0x1F NOT PUSH1 0x1F DUP3 ADD AND DUP3 ADD DUP1 PUSH1 0x40 MSTORE POP DUP2 ADD SWAP1 PUSH2 0xDE3 SWAP2 SWAP1 PUSH2 0x1AEA JUMP JUMPDEST PUSH1 0x2 PUSH1 0x0 DUP4 PUSH1 0x20 ADD MLOAD PUSH20 0xFFFFFFFFFFFFFFFFFFFFFFFFFFFFFFFFFFFFFFFF AND PUSH20 0xFFFFFFFFFFFFFFFFFFFFFFFFFFFFFFFFFFFFFFFF AND DUP2 MSTORE PUSH1 0x20 ADD SWAP1 DUP2 MSTORE PUSH1 0x20 ADD PUSH1 0x0 KECCAK256 PUSH1 0x0 PUSH2 0x100 EXP DUP2 SLOAD DUP2 PUSH20 0xFFFFFFFFFFFFFFFFFFFFFFFFFFFFFFFFFFFFFFFF MUL NOT AND SWAP1 DUP4 PUSH20 0xFFFFFFFFFFFFFFFFFFFFFFFFFFFFFFFFFFFFFFFF AND MUL OR SWAP1 SSTORE POP POP POP POP POP POP POP JUMP JUMPDEST PUSH1 0x0 PUSH1 0x2 PUSH1 0x0 DUP4 PUSH20 0xFFFFFFFFFFFFFFFFFFFFFFFFFFFFFFFFFFFFFFFF AND PUSH20 0xFFFFFFFFFFFFFFFFFFFFFFFFFFFFFFFFFFFFFFFF AND DUP2 MSTORE PUSH1 0x20 ADD SWAP1 DUP2 MSTORE PUSH1 0x20 ADD PUSH1 0x0 KECCAK256 PUSH1 0x0 SWAP1 SLOAD SWAP1 PUSH2 0x100 EXP SWAP1 DIV PUSH20 0xFFFFFFFFFFFFFFFFFFFFFFFFFFFFFFFFFFFFFFFF AND SWAP1 POP SWAP2 SWAP1 POP JUMP JUMPDEST PUSH2 0xEDE DUP3 PUSH2 0x6AB JUMP JUMPDEST PUSH2 0xEE7 DUP2 PUSH2 0x1221 JUMP JUMPDEST PUSH2 0xEF1 DUP4 DUP4 PUSH2 0x131D JUMP JUMPDEST POP POP POP JUMP JUMPDEST PUSH32 0xE5A0B4D50F56047F84728557FEDBDA92F956391BC9D5C762E8461996DD8E7AD7 DUP2 JUMP JUMPDEST PUSH1 0x60 DUP2 MLOAD PUSH8 0xFFFFFFFFFFFFFFFF DUP2 GT ISZERO PUSH2 0xF37 JUMPI PUSH2 0xF36 PUSH2 0x27A0 JUMP JUMPDEST JUMPDEST PUSH1 0x40 MLOAD SWAP1 DUP1 DUP3 MSTORE DUP1 PUSH1 0x20 MUL PUSH1 0x20 ADD DUP3 ADD PUSH1 0x40 MSTORE DUP1 ISZERO PUSH2 0xF70 JUMPI DUP2 PUSH1 0x20 ADD JUMPDEST PUSH2 0xF5D PUSH2 0x16D7 JUMP JUMPDEST DUP2 MSTORE PUSH1 0x20 ADD SWAP1 PUSH1 0x1 SWAP1 SUB SWAP1 DUP2 PUSH2 0xF55 JUMPI SWAP1 POP JUMPDEST POP SWAP1 POP PUSH1 0x0 JUMPDEST DUP3 MLOAD DUP2 LT ISZERO PUSH2 0x11B1 JUMPI PUSH1 0x0 PUSH20 0xFFFFFFFFFFFFFFFFFFFFFFFFFFFFFFFFFFFFFFFF AND PUSH1 0x1 PUSH1 0x0 DUP6 DUP5 DUP2 MLOAD DUP2 LT PUSH2 0xFAE JUMPI PUSH2 0xFAD PUSH2 0x2771 JUMP JUMPDEST JUMPDEST PUSH1 0x20 MUL PUSH1 0x20 ADD ADD MLOAD PUSH20 0xFFFFFFFFFFFFFFFFFFFFFFFFFFFFFFFFFFFFFFFF AND PUSH20 0xFFFFFFFFFFFFFFFFFFFFFFFFFFFFFFFFFFFFFFFF AND DUP2 MSTORE PUSH1 0x20 ADD SWAP1 DUP2 MSTORE PUSH1 0x20 ADD PUSH1 0x0 KECCAK256 PUSH1 0x0 SWAP1 SLOAD SWAP1 PUSH2 0x100 EXP SWAP1 DIV PUSH20 0xFFFFFFFFFFFFFFFFFFFFFFFFFFFFFFFFFFFFFFFF AND PUSH20 0xFFFFFFFFFFFFFFFFFFFFFFFFFFFFFFFFFFFFFFFF AND EQ ISZERO PUSH2 0x106B JUMPI PUSH1 0x40 MLOAD DUP1 PUSH1 0x40 ADD PUSH1 0x40 MSTORE DUP1 PUSH1 0x0 DUP1 SHL DUP2 MSTORE PUSH1 0x20 ADD PUSH1 0x0 DUP1 SHL DUP2 MSTORE POP DUP3 DUP3 DUP2 MLOAD DUP2 LT PUSH2 0x105B JUMPI PUSH2 0x105A PUSH2 0x2771 JUMP JUMPDEST JUMPDEST PUSH1 0x20 MUL PUSH1 0x20 ADD ADD DUP2 SWAP1 MSTORE POP PUSH2 0x119E JUMP JUMPDEST PUSH1 0x0 DUP1 PUSH1 0x1 PUSH1 0x0 DUP7 DUP6 DUP2 MLOAD DUP2 LT PUSH2 0x1085 JUMPI PUSH2 0x1084 PUSH2 0x2771 JUMP JUMPDEST JUMPDEST PUSH1 0x20 MUL PUSH1 0x20 ADD ADD MLOAD PUSH20 0xFFFFFFFFFFFFFFFFFFFFFFFFFFFFFFFFFFFFFFFF AND PUSH20 0xFFFFFFFFFFFFFFFFFFFFFFFFFFFFFFFFFFFFFFFF AND DUP2 MSTORE PUSH1 0x20 ADD SWAP1 DUP2 MSTORE PUSH1 0x20 ADD PUSH1 0x0 KECCAK256 PUSH1 0x0 SWAP1 SLOAD SWAP1 PUSH2 0x100 EXP SWAP1 DIV PUSH20 0xFFFFFFFFFFFFFFFFFFFFFFFFFFFFFFFFFFFFFFFF AND PUSH20 0xFFFFFFFFFFFFFFFFFFFFFFFFFFFFFFFFFFFFFFFF AND PUSH4 0x5A9B0B89 PUSH1 0x40 MLOAD DUP2 PUSH4 0xFFFFFFFF AND PUSH1 0xE0 SHL DUP2 MSTORE PUSH1 0x4 ADD PUSH1 0x40 DUP1 MLOAD DUP1 DUP4 SUB DUP2 DUP7 DUP1 EXTCODESIZE ISZERO DUP1 ISZERO PUSH2 0x112C JUMPI PUSH1 0x0 DUP1 REVERT JUMPDEST POP GAS STATICCALL ISZERO DUP1 ISZERO PUSH2 0x1140 JUMPI RETURNDATASIZE PUSH1 0x0 DUP1 RETURNDATACOPY RETURNDATASIZE PUSH1 0x0 REVERT JUMPDEST POP POP POP POP PUSH1 0x40 MLOAD RETURNDATASIZE PUSH1 0x1F NOT PUSH1 0x1F DUP3 ADD AND DUP3 ADD DUP1 PUSH1 0x40 MSTORE POP DUP2 ADD SWAP1 PUSH2 0x1164 SWAP2 SWAP1 PUSH2 0x1C34 JUMP JUMPDEST SWAP2 POP SWAP2 POP PUSH1 0x40 MLOAD DUP1 PUSH1 0x40 ADD PUSH1 0x40 MSTORE DUP1 DUP4 DUP2 MSTORE PUSH1 0x20 ADD DUP3 DUP2 MSTORE POP DUP5 DUP5 DUP2 MLOAD DUP2 LT PUSH2 0x1190 JUMPI PUSH2 0x118F PUSH2 0x2771 JUMP JUMPDEST JUMPDEST PUSH1 0x20 MUL PUSH1 0x20 ADD ADD DUP2 SWAP1 MSTORE POP POP POP JUMPDEST DUP1 DUP1 PUSH2 0x11A9 SWAP1 PUSH2 0x26F9 JUMP JUMPDEST SWAP2 POP POP PUSH2 0xF76 JUMP JUMPDEST POP SWAP2 SWAP1 POP JUMP JUMPDEST PUSH1 0x0 PUSH32 0x1FFC9A700000000000000000000000000000000000000000000000000000000 PUSH28 0xFFFFFFFFFFFFFFFFFFFFFFFFFFFFFFFFFFFFFFFFFFFFFFFFFFFFFFFF NOT AND DUP3 PUSH28 0xFFFFFFFFFFFFFFFFFFFFFFFFFFFFFFFFFFFFFFFFFFFFFFFFFFFFFFFF NOT AND EQ SWAP1 POP SWAP2 SWAP1 POP JUMP JUMPDEST PUSH2 0x1232 DUP2 PUSH2 0x122D PUSH2 0x1315 JUMP JUMPDEST PUSH2 0x13FE JUMP JUMPDEST POP JUMP JUMPDEST PUSH2 0x123F DUP3 DUP3 PUSH2 0xA11 JUMP JUMPDEST PUSH2 0x1311 JUMPI PUSH1 0x1 PUSH1 0x0 DUP1 DUP5 DUP2 MSTORE PUSH1 0x20 ADD SWAP1 DUP2 MSTORE PUSH1 0x20 ADD PUSH1 0x0 KECCAK256 PUSH1 0x0 ADD PUSH1 0x0 DUP4 PUSH20 0xFFFFFFFFFFFFFFFFFFFFFFFFFFFFFFFFFFFFFFFF AND PUSH20 0xFFFFFFFFFFFFFFFFFFFFFFFFFFFFFFFFFFFFFFFF AND DUP2 MSTORE PUSH1 0x20 ADD SWAP1 DUP2 MSTORE PUSH1 0x20 ADD PUSH1 0x0 KECCAK256 PUSH1 0x0 PUSH2 0x100 EXP DUP2 SLOAD DUP2 PUSH1 0xFF MUL NOT AND SWAP1 DUP4 ISZERO ISZERO MUL OR SWAP1 SSTORE POP PUSH2 0x12B6 PUSH2 0x1315 JUMP JUMPDEST PUSH20 0xFFFFFFFFFFFFFFFFFFFFFFFFFFFFFFFFFFFFFFFF AND DUP2 PUSH20 0xFFFFFFFFFFFFFFFFFFFFFFFFFFFFFFFFFFFFFFFF AND DUP4 PUSH32 0x2F8788117E7EFF1D82E926EC794901D17C78024A50270940304540A733656F0D PUSH1 0x40 MLOAD PUSH1 0x40 MLOAD DUP1 SWAP2 SUB SWAP1 LOG4 JUMPDEST POP POP JUMP JUMPDEST PUSH1 0x0 CALLER SWAP1 POP SWAP1 JUMP JUMPDEST PUSH2 0x1327 DUP3 DUP3 PUSH2 0xA11 JUMP JUMPDEST ISZERO PUSH2 0x13FA JUMPI PUSH1 0x0 DUP1 PUSH1 0x0 DUP5 DUP2 MSTORE PUSH1 0x20 ADD SWAP1 DUP2 MSTORE PUSH1 0x20 ADD PUSH1 0x0 KECCAK256 PUSH1 0x0 ADD PUSH1 0x0 DUP4 PUSH20 0xFFFFFFFFFFFFFFFFFFFFFFFFFFFFFFFFFFFFFFFF AND PUSH20 0xFFFFFFFFFFFFFFFFFFFFFFFFFFFFFFFFFFFFFFFF AND DUP2 MSTORE PUSH1 0x20 ADD SWAP1 DUP2 MSTORE PUSH1 0x20 ADD PUSH1 0x0 KECCAK256 PUSH1 0x0 PUSH2 0x100 EXP DUP2 SLOAD DUP2 PUSH1 0xFF MUL NOT AND SWAP1 DUP4 ISZERO ISZERO MUL OR SWAP1 SSTORE POP PUSH2 0x139F PUSH2 0x1315 JUMP JUMPDEST PUSH20 0xFFFFFFFFFFFFFFFFFFFFFFFFFFFFFFFFFFFFFFFF AND DUP2 PUSH20 0xFFFFFFFFFFFFFFFFFFFFFFFFFFFFFFFFFFFFFFFF AND DUP4 PUSH32 0xF6391F5C32D9C69D2A47EA670B442974B53935D1EDC7FD64EB21E047A839171B PUSH1 0x40 MLOAD PUSH1 0x40 MLOAD DUP1 SWAP2 SUB SWAP1 LOG4 JUMPDEST POP POP JUMP JUMPDEST PUSH2 0x1408 DUP3 DUP3 PUSH2 0xA11 JUMP JUMPDEST PUSH2 0x1497 JUMPI PUSH2 0x142D DUP2 PUSH20 0xFFFFFFFFFFFFFFFFFFFFFFFFFFFFFFFFFFFFFFFF AND PUSH1 0x14 PUSH2 0x149B JUMP JUMPDEST PUSH2 0x143B DUP4 PUSH1 0x0 SHR PUSH1 0x20 PUSH2 0x149B JUMP JUMPDEST PUSH1 0x40 MLOAD PUSH1 0x20 ADD PUSH2 0x144C SWAP3 SWAP2 SWAP1 PUSH2 0x217C JUMP JUMPDEST PUSH1 0x40 MLOAD PUSH1 0x20 DUP2 DUP4 SUB SUB DUP2 MSTORE SWAP1 PUSH1 0x40 MSTORE PUSH1 0x40 MLOAD PUSH32 0x8C379A000000000000000000000000000000000000000000000000000000000 DUP2 MSTORE PUSH1 0x4 ADD PUSH2 0x148E SWAP2 SWAP1 PUSH2 0x22E6 JUMP JUMPDEST PUSH1 0x40 MLOAD DUP1 SWAP2 SUB SWAP1 REVERT JUMPDEST POP POP JUMP JUMPDEST PUSH1 0x60 PUSH1 0x0 PUSH1 0x2 DUP4 PUSH1 0x2 PUSH2 0x14AE SWAP2 SWAP1 PUSH2 0x2576 JUMP JUMPDEST PUSH2 0x14B8 SWAP2 SWAP1 PUSH2 0x2520 JUMP JUMPDEST PUSH8 0xFFFFFFFFFFFFFFFF DUP2 GT ISZERO PUSH2 0x14D1 JUMPI PUSH2 0x14D0 PUSH2 0x27A0 JUMP JUMPDEST JUMPDEST PUSH1 0x40 MLOAD SWAP1 DUP1 DUP3 MSTORE DUP1 PUSH1 0x1F ADD PUSH1 0x1F NOT AND PUSH1 0x20 ADD DUP3 ADD PUSH1 0x40 MSTORE DUP1 ISZERO PUSH2 0x1503 JUMPI DUP2 PUSH1 0x20 ADD PUSH1 0x1 DUP3 MUL DUP1 CALLDATASIZE DUP4 CALLDATACOPY DUP1 DUP3 ADD SWAP2 POP POP SWAP1 POP JUMPDEST POP SWAP1 POP PUSH32 0x3000000000000000000000000000000000000000000000000000000000000000 DUP2 PUSH1 0x0 DUP2 MLOAD DUP2 LT PUSH2 0x153B JUMPI PUSH2 0x153A PUSH2 0x2771 JUMP JUMPDEST JUMPDEST PUSH1 0x20 ADD ADD SWAP1 PUSH31 0xFFFFFFFFFFFFFFFFFFFFFFFFFFFFFFFFFFFFFFFFFFFFFFFFFFFFFFFFFFFFFF NOT AND SWAP1 DUP2 PUSH1 0x0 BYTE SWAP1 MSTORE8 POP PUSH32 0x7800000000000000000000000000000000000000000000000000000000000000 DUP2 PUSH1 0x1 DUP2 MLOAD DUP2 LT PUSH2 0x159F JUMPI PUSH2 0x159E PUSH2 0x2771 JUMP JUMPDEST JUMPDEST PUSH1 0x20 ADD ADD SWAP1 PUSH31 0xFFFFFFFFFFFFFFFFFFFFFFFFFFFFFFFFFFFFFFFFFFFFFFFFFFFFFFFFFFFFFF NOT AND SWAP1 DUP2 PUSH1 0x0 BYTE SWAP1 MSTORE8 POP PUSH1 0x0 PUSH1 0x1 DUP5 PUSH1 0x2 PUSH2 0x15DF SWAP2 SWAP1 PUSH2 0x2576 JUMP JUMPDEST PUSH2 0x15E9 SWAP2 SWAP1 PUSH2 0x2520 JUMP JUMPDEST SWAP1 POP JUMPDEST PUSH1 0x1 DUP2 GT ISZERO PUSH2 0x1689 JUMPI PUSH32 0x3031323334353637383961626364656600000000000000000000000000000000 PUSH1 0xF DUP7 AND PUSH1 0x10 DUP2 LT PUSH2 0x162B JUMPI PUSH2 0x162A PUSH2 0x2771 JUMP JUMPDEST JUMPDEST BYTE PUSH1 0xF8 SHL DUP3 DUP3 DUP2 MLOAD DUP2 LT PUSH2 0x1642 JUMPI PUSH2 0x1641 PUSH2 0x2771 JUMP JUMPDEST JUMPDEST PUSH1 0x20 ADD ADD SWAP1 PUSH31 0xFFFFFFFFFFFFFFFFFFFFFFFFFFFFFFFFFFFFFFFFFFFFFFFFFFFFFFFFFFFFFF NOT AND SWAP1 DUP2 PUSH1 0x0 BYTE SWAP1 MSTORE8 POP PUSH1 0x4 DUP6 SWAP1 SHR SWAP5 POP DUP1 PUSH2 0x1682 SWAP1 PUSH2 0x269E JUMP JUMPDEST SWAP1 POP PUSH2 0x15EC JUMP JUMPDEST POP PUSH1 0x0 DUP5 EQ PUSH2 0x16CD JUMPI PUSH1 0x40 MLOAD PUSH32 0x8C379A000000000000000000000000000000000000000000000000000000000 DUP2 MSTORE PUSH1 0x4 ADD PUSH2 0x16C4 SWAP1 PUSH2 0x2308 JUMP JUMPDEST PUSH1 0x40 MLOAD DUP1 SWAP2 SUB SWAP1 REVERT JUMPDEST DUP1 SWAP2 POP POP SWAP3 SWAP2 POP POP JUMP JUMPDEST PUSH1 0x40 MLOAD DUP1 PUSH1 0x40 ADD PUSH1 0x40 MSTORE DUP1 PUSH1 0x0 DUP1 NOT AND DUP2 MSTORE PUSH1 0x20 ADD PUSH1 0x0 DUP1 NOT AND DUP2 MSTORE POP SWAP1 JUMP JUMPDEST PUSH1 0x0 PUSH2 0x170A PUSH2 0x1705 DUP5 PUSH2 0x23ED JUMP JUMPDEST PUSH2 0x23C8 JUMP JUMPDEST SWAP1 POP DUP1 DUP4 DUP3 MSTORE PUSH1 0x20 DUP3 ADD SWAP1 POP DUP3 DUP6 PUSH1 0x20 DUP7 MUL DUP3 ADD GT ISZERO PUSH2 0x172D JUMPI PUSH2 0x172C PUSH2 0x27D9 JUMP JUMPDEST JUMPDEST PUSH1 0x0 JUMPDEST DUP6 DUP2 LT ISZERO PUSH2 0x175D JUMPI DUP2 PUSH2 0x1743 DUP9 DUP3 PUSH2 0x1837 JUMP JUMPDEST DUP5 MSTORE PUSH1 0x20 DUP5 ADD SWAP4 POP PUSH1 0x20 DUP4 ADD SWAP3 POP POP PUSH1 0x1 DUP2 ADD SWAP1 POP PUSH2 0x1730 JUMP JUMPDEST POP POP POP SWAP4 SWAP3 POP POP POP JUMP JUMPDEST PUSH1 0x0 PUSH2 0x177A PUSH2 0x1775 DUP5 PUSH2 0x2419 JUMP JUMPDEST PUSH2 0x23C8 JUMP JUMPDEST SWAP1 POP DUP1 DUP4 DUP3 MSTORE PUSH1 0x20 DUP3 ADD SWAP1 POP DUP3 DUP6 PUSH1 0x20 DUP7 MUL DUP3 ADD GT ISZERO PUSH2 0x179D JUMPI PUSH2 0x179C PUSH2 0x27D9 JUMP JUMPDEST JUMPDEST PUSH1 0x0 JUMPDEST DUP6 DUP2 LT ISZERO PUSH2 0x17EB JUMPI DUP2 CALLDATALOAD PUSH8 0xFFFFFFFFFFFFFFFF DUP2 GT ISZERO PUSH2 0x17C3 JUMPI PUSH2 0x17C2 PUSH2 0x27CF JUMP JUMPDEST JUMPDEST DUP1 DUP7 ADD PUSH2 0x17D0 DUP10 DUP3 PUSH2 0x1911 JUMP JUMPDEST DUP6 MSTORE PUSH1 0x20 DUP6 ADD SWAP5 POP PUSH1 0x20 DUP5 ADD SWAP4 POP POP POP PUSH1 0x1 DUP2 ADD SWAP1 POP PUSH2 0x17A0 JUMP JUMPDEST POP POP POP SWAP4 SWAP3 POP POP POP JUMP JUMPDEST PUSH1 0x0 PUSH2 0x1808 PUSH2 0x1803 DUP5 PUSH2 0x2445 JUMP JUMPDEST PUSH2 0x23C8 JUMP JUMPDEST SWAP1 POP DUP3 DUP2 MSTORE PUSH1 0x20 DUP2 ADD DUP5 DUP5 DUP5 ADD GT ISZERO PUSH2 0x1824 JUMPI PUSH2 0x1823 PUSH2 0x27DE JUMP JUMPDEST JUMPDEST PUSH2 0x182F DUP5 DUP3 DUP6 PUSH2 0x265C JUMP JUMPDEST POP SWAP4 SWAP3 POP POP POP JUMP JUMPDEST PUSH1 0x0 DUP2 CALLDATALOAD SWAP1 POP PUSH2 0x1846 DUP2 PUSH2 0x296C JUMP JUMPDEST SWAP3 SWAP2 POP POP JUMP JUMPDEST PUSH1 0x0 DUP2 MLOAD SWAP1 POP PUSH2 0x185B DUP2 PUSH2 0x296C JUMP JUMPDEST SWAP3 SWAP2 POP POP JUMP JUMPDEST PUSH1 0x0 DUP3 PUSH1 0x1F DUP4 ADD SLT PUSH2 0x1876 JUMPI PUSH2 0x1875 PUSH2 0x27CF JUMP JUMPDEST JUMPDEST DUP2 CALLDATALOAD PUSH2 0x1886 DUP5 DUP3 PUSH1 0x20 DUP7 ADD PUSH2 0x16F7 JUMP JUMPDEST SWAP2 POP POP SWAP3 SWAP2 POP POP JUMP JUMPDEST PUSH1 0x0 DUP3 PUSH1 0x1F DUP4 ADD SLT PUSH2 0x18A4 JUMPI PUSH2 0x18A3 PUSH2 0x27CF JUMP JUMPDEST JUMPDEST DUP2 CALLDATALOAD PUSH2 0x18B4 DUP5 DUP3 PUSH1 0x20 DUP7 ADD PUSH2 0x1767 JUMP JUMPDEST SWAP2 POP POP SWAP3 SWAP2 POP POP JUMP JUMPDEST PUSH1 0x0 DUP2 CALLDATALOAD SWAP1 POP PUSH2 0x18CC DUP2 PUSH2 0x2983 JUMP JUMPDEST SWAP3 SWAP2 POP POP JUMP JUMPDEST PUSH1 0x0 DUP2 CALLDATALOAD SWAP1 POP PUSH2 0x18E1 DUP2 PUSH2 0x299A JUMP JUMPDEST SWAP3 SWAP2 POP POP JUMP JUMPDEST PUSH1 0x0 DUP2 MLOAD SWAP1 POP PUSH2 0x18F6 DUP2 PUSH2 0x299A JUMP JUMPDEST SWAP3 SWAP2 POP POP JUMP JUMPDEST PUSH1 0x0 DUP2 CALLDATALOAD SWAP1 POP PUSH2 0x190B DUP2 PUSH2 0x29B1 JUMP JUMPDEST SWAP3 SWAP2 POP POP JUMP JUMPDEST PUSH1 0x0 DUP3 PUSH1 0x1F DUP4 ADD SLT PUSH2 0x1926 JUMPI PUSH2 0x1925 PUSH2 0x27CF JUMP JUMPDEST JUMPDEST DUP2 CALLDATALOAD PUSH2 0x1936 DUP5 DUP3 PUSH1 0x20 DUP7 ADD PUSH2 0x17F5 JUMP JUMPDEST SWAP2 POP POP SWAP3 SWAP2 POP POP JUMP JUMPDEST PUSH1 0x0 PUSH1 0x60 DUP3 DUP5 SUB SLT ISZERO PUSH2 0x1955 JUMPI PUSH2 0x1954 PUSH2 0x27D4 JUMP JUMPDEST JUMPDEST PUSH2 0x195F PUSH1 0x60 PUSH2 0x23C8 JUMP JUMPDEST SWAP1 POP PUSH1 0x0 PUSH2 0x196F DUP5 DUP3 DUP6 ADD PUSH2 0x18BD JUMP JUMPDEST PUSH1 0x0 DUP4 ADD MSTORE POP PUSH1 0x20 PUSH2 0x1983 DUP5 DUP3 DUP6 ADD PUSH2 0x18BD JUMP JUMPDEST PUSH1 0x20 DUP4 ADD MSTORE POP PUSH1 0x40 PUSH2 0x1997 DUP5 DUP3 DUP6 ADD PUSH2 0x18BD JUMP JUMPDEST PUSH1 0x40 DUP4 ADD MSTORE POP SWAP3 SWAP2 POP POP JUMP JUMPDEST PUSH1 0x0 PUSH1 0x40 DUP3 DUP5 SUB SLT ISZERO PUSH2 0x19B9 JUMPI PUSH2 0x19B8 PUSH2 0x27D4 JUMP JUMPDEST JUMPDEST PUSH2 0x19C3 PUSH1 0x40 PUSH2 0x23C8 JUMP JUMPDEST SWAP1 POP PUSH1 0x0 PUSH2 0x19D3 DUP5 DUP3 DUP6 ADD PUSH2 0x18D2 JUMP JUMPDEST PUSH1 0x0 DUP4 ADD MSTORE POP PUSH1 0x20 PUSH2 0x19E7 DUP5 DUP3 DUP6 ADD PUSH2 0x18D2 JUMP JUMPDEST PUSH1 0x20 DUP4 ADD MSTORE POP SWAP3 SWAP2 POP POP JUMP JUMPDEST PUSH1 0x0 PUSH1 0x40 DUP3 DUP5 SUB SLT ISZERO PUSH2 0x1A09 JUMPI PUSH2 0x1A08 PUSH2 0x27D4 JUMP JUMPDEST JUMPDEST PUSH2 0x1A13 PUSH1 0x40 PUSH2 0x23C8 JUMP JUMPDEST SWAP1 POP PUSH1 0x0 PUSH2 0x1A23 DUP5 DUP3 DUP6 ADD PUSH2 0x18BD JUMP JUMPDEST PUSH1 0x0 DUP4 ADD MSTORE POP PUSH1 0x20 PUSH2 0x1A37 DUP5 DUP3 DUP6 ADD PUSH2 0x1837 JUMP JUMPDEST PUSH1 0x20 DUP4 ADD MSTORE POP SWAP3 SWAP2 POP POP JUMP JUMPDEST PUSH1 0x0 PUSH1 0x40 DUP3 DUP5 SUB SLT ISZERO PUSH2 0x1A59 JUMPI PUSH2 0x1A58 PUSH2 0x27D4 JUMP JUMPDEST JUMPDEST PUSH2 0x1A63 PUSH1 0x40 PUSH2 0x23C8 JUMP JUMPDEST SWAP1 POP PUSH1 0x0 PUSH2 0x1A73 DUP5 DUP3 DUP6 ADD PUSH2 0x1A93 JUMP JUMPDEST PUSH1 0x0 DUP4 ADD MSTORE POP PUSH1 0x20 PUSH2 0x1A87 DUP5 DUP3 DUP6 ADD PUSH2 0x1A93 JUMP JUMPDEST PUSH1 0x20 DUP4 ADD MSTORE POP SWAP3 SWAP2 POP POP JUMP JUMPDEST PUSH1 0x0 DUP2 CALLDATALOAD SWAP1 POP PUSH2 0x1AA2 DUP2 PUSH2 0x29C8 JUMP JUMPDEST SWAP3 SWAP2 POP POP JUMP JUMPDEST PUSH1 0x0 DUP2 CALLDATALOAD SWAP1 POP PUSH2 0x1AB7 DUP2 PUSH2 0x29DF JUMP JUMPDEST SWAP3 SWAP2 POP POP JUMP JUMPDEST PUSH1 0x0 PUSH1 0x20 DUP3 DUP5 SUB SLT ISZERO PUSH2 0x1AD3 JUMPI PUSH2 0x1AD2 PUSH2 0x27E8 JUMP JUMPDEST JUMPDEST PUSH1 0x0 PUSH2 0x1AE1 DUP5 DUP3 DUP6 ADD PUSH2 0x1837 JUMP JUMPDEST SWAP2 POP POP SWAP3 SWAP2 POP POP JUMP JUMPDEST PUSH1 0x0 PUSH1 0x20 DUP3 DUP5 SUB SLT ISZERO PUSH2 0x1B00 JUMPI PUSH2 0x1AFF PUSH2 0x27E8 JUMP JUMPDEST JUMPDEST PUSH1 0x0 PUSH2 0x1B0E DUP5 DUP3 DUP6 ADD PUSH2 0x184C JUMP JUMPDEST SWAP2 POP POP SWAP3 SWAP2 POP POP JUMP JUMPDEST PUSH1 0x0 DUP1 PUSH1 0x0 DUP1 PUSH1 0x80 DUP6 DUP8 SUB SLT ISZERO PUSH2 0x1B31 JUMPI PUSH2 0x1B30 PUSH2 0x27E8 JUMP JUMPDEST JUMPDEST PUSH1 0x0 PUSH2 0x1B3F DUP8 DUP3 DUP9 ADD PUSH2 0x1837 JUMP JUMPDEST SWAP5 POP POP PUSH1 0x20 PUSH2 0x1B50 DUP8 DUP3 DUP9 ADD PUSH2 0x18D2 JUMP JUMPDEST SWAP4 POP POP PUSH1 0x40 PUSH2 0x1B61 DUP8 DUP3 DUP9 ADD PUSH2 0x18D2 JUMP JUMPDEST SWAP3 POP POP PUSH1 0x60 PUSH2 0x1B72 DUP8 DUP3 DUP9 ADD PUSH2 0x18BD JUMP JUMPDEST SWAP2 POP POP SWAP3 SWAP6 SWAP2 SWAP5 POP SWAP3 POP JUMP JUMPDEST PUSH1 0x0 PUSH1 0x20 DUP3 DUP5 SUB SLT ISZERO PUSH2 0x1B94 JUMPI PUSH2 0x1B93 PUSH2 0x27E8 JUMP JUMPDEST JUMPDEST PUSH1 0x0 DUP3 ADD CALLDATALOAD PUSH8 0xFFFFFFFFFFFFFFFF DUP2 GT ISZERO PUSH2 0x1BB2 JUMPI PUSH2 0x1BB1 PUSH2 0x27E3 JUMP JUMPDEST JUMPDEST PUSH2 0x1BBE DUP5 DUP3 DUP6 ADD PUSH2 0x1861 JUMP JUMPDEST SWAP2 POP POP SWAP3 SWAP2 POP POP JUMP JUMPDEST PUSH1 0x0 PUSH1 0x20 DUP3 DUP5 SUB SLT ISZERO PUSH2 0x1BDD JUMPI PUSH2 0x1BDC PUSH2 0x27E8 JUMP JUMPDEST JUMPDEST PUSH1 0x0 PUSH2 0x1BEB DUP5 DUP3 DUP6 ADD PUSH2 0x18D2 JUMP JUMPDEST SWAP2 POP POP SWAP3 SWAP2 POP POP JUMP JUMPDEST PUSH1 0x0 DUP1 PUSH1 0x40 DUP4 DUP6 SUB SLT ISZERO PUSH2 0x1C0B JUMPI PUSH2 0x1C0A PUSH2 0x27E8 JUMP JUMPDEST JUMPDEST PUSH1 0x0 PUSH2 0x1C19 DUP6 DUP3 DUP7 ADD PUSH2 0x18D2 JUMP JUMPDEST SWAP3 POP POP PUSH1 0x20 PUSH2 0x1C2A DUP6 DUP3 DUP7 ADD PUSH2 0x1837 JUMP JUMPDEST SWAP2 POP POP SWAP3 POP SWAP3 SWAP1 POP JUMP JUMPDEST PUSH1 0x0 DUP1 PUSH1 0x40 DUP4 DUP6 SUB SLT ISZERO PUSH2 0x1C4B JUMPI PUSH2 0x1C4A PUSH2 0x27E8 JUMP JUMPDEST JUMPDEST PUSH1 0x0 PUSH2 0x1C59 DUP6 DUP3 DUP7 ADD PUSH2 0x18E7 JUMP JUMPDEST SWAP3 POP POP PUSH1 0x20 PUSH2 0x1C6A DUP6 DUP3 DUP7 ADD PUSH2 0x18E7 JUMP JUMPDEST SWAP2 POP POP SWAP3 POP SWAP3 SWAP1 POP JUMP JUMPDEST PUSH1 0x0 PUSH1 0x20 DUP3 DUP5 SUB SLT ISZERO PUSH2 0x1C8A JUMPI PUSH2 0x1C89 PUSH2 0x27E8 JUMP JUMPDEST JUMPDEST PUSH1 0x0 PUSH2 0x1C98 DUP5 DUP3 DUP6 ADD PUSH2 0x18FC JUMP JUMPDEST SWAP2 POP POP SWAP3 SWAP2 POP POP JUMP JUMPDEST PUSH1 0x0 DUP1 PUSH1 0x0 DUP1 PUSH1 0x0 DUP1 PUSH2 0x160 DUP8 DUP10 SUB SLT ISZERO PUSH2 0x1CBF JUMPI PUSH2 0x1CBE PUSH2 0x27E8 JUMP JUMPDEST JUMPDEST PUSH1 0x0 PUSH2 0x1CCD DUP10 DUP3 DUP11 ADD PUSH2 0x19A3 JUMP JUMPDEST SWAP7 POP POP PUSH1 0x40 PUSH2 0x1CDE DUP10 DUP3 DUP11 ADD PUSH2 0x1AA8 JUMP JUMPDEST SWAP6 POP POP PUSH1 0x60 PUSH2 0x1CEF DUP10 DUP3 DUP11 ADD PUSH2 0x1A43 JUMP JUMPDEST SWAP5 POP POP PUSH1 0xA0 DUP8 ADD CALLDATALOAD PUSH8 0xFFFFFFFFFFFFFFFF DUP2 GT ISZERO PUSH2 0x1D10 JUMPI PUSH2 0x1D0F PUSH2 0x27E3 JUMP JUMPDEST JUMPDEST PUSH2 0x1D1C DUP10 DUP3 DUP11 ADD PUSH2 0x188F JUMP JUMPDEST SWAP4 POP POP PUSH1 0xC0 PUSH2 0x1D2D DUP10 DUP3 DUP11 ADD PUSH2 0x193F JUMP JUMPDEST SWAP3 POP POP PUSH2 0x120 PUSH2 0x1D3F DUP10 DUP3 DUP11 ADD PUSH2 0x19F3 JUMP JUMPDEST SWAP2 POP POP SWAP3 SWAP6 POP SWAP3 SWAP6 POP SWAP3 SWAP6 JUMP JUMPDEST PUSH1 0x0 PUSH2 0x1D58 DUP4 DUP4 PUSH2 0x1EA5 JUMP JUMPDEST SWAP1 POP SWAP3 SWAP2 POP POP JUMP JUMPDEST PUSH1 0x0 PUSH2 0x1D6C DUP4 DUP4 PUSH2 0x20D1 JUMP JUMPDEST PUSH1 0x40 DUP4 ADD SWAP1 POP SWAP3 SWAP2 POP POP JUMP JUMPDEST PUSH2 0x1D81 DUP2 PUSH2 0x25D0 JUMP JUMPDEST DUP3 MSTORE POP POP JUMP JUMPDEST PUSH2 0x1D90 DUP2 PUSH2 0x25D0 JUMP JUMPDEST DUP3 MSTORE POP POP JUMP JUMPDEST PUSH1 0x0 PUSH2 0x1DA1 DUP3 PUSH2 0x2496 JUMP JUMPDEST PUSH2 0x1DAB DUP2 DUP6 PUSH2 0x24D1 JUMP JUMPDEST SWAP4 POP DUP4 PUSH1 0x20 DUP3 MUL DUP6 ADD PUSH2 0x1DBD DUP6 PUSH2 0x2476 JUMP JUMPDEST DUP1 PUSH1 0x0 JUMPDEST DUP6 DUP2 LT ISZERO PUSH2 0x1DF9 JUMPI DUP5 DUP5 SUB DUP10 MSTORE DUP2 MLOAD PUSH2 0x1DDA DUP6 DUP3 PUSH2 0x1D4C JUMP JUMPDEST SWAP5 POP PUSH2 0x1DE5 DUP4 PUSH2 0x24B7 JUMP JUMPDEST SWAP3 POP PUSH1 0x20 DUP11 ADD SWAP10 POP POP PUSH1 0x1 DUP2 ADD SWAP1 POP PUSH2 0x1DC1 JUMP JUMPDEST POP DUP3 SWAP8 POP DUP8 SWAP6 POP POP POP POP POP POP SWAP3 SWAP2 POP POP JUMP JUMPDEST PUSH1 0x0 PUSH2 0x1E16 DUP3 PUSH2 0x24A1 JUMP JUMPDEST PUSH2 0x1E20 DUP2 DUP6 PUSH2 0x24E2 JUMP JUMPDEST SWAP4 POP PUSH2 0x1E2B DUP4 PUSH2 0x2486 JUMP JUMPDEST DUP1 PUSH1 0x0 JUMPDEST DUP4 DUP2 LT ISZERO PUSH2 0x1E5C JUMPI DUP2 MLOAD PUSH2 0x1E43 DUP9 DUP3 PUSH2 0x1D60 JUMP JUMPDEST SWAP8 POP PUSH2 0x1E4E DUP4 PUSH2 0x24C4 JUMP JUMPDEST SWAP3 POP POP PUSH1 0x1 DUP2 ADD SWAP1 POP PUSH2 0x1E2F JUMP JUMPDEST POP DUP6 SWAP4 POP POP POP POP SWAP3 SWAP2 POP POP JUMP JUMPDEST PUSH2 0x1E72 DUP2 PUSH2 0x25E2 JUMP JUMPDEST DUP3 MSTORE POP POP JUMP JUMPDEST PUSH2 0x1E81 DUP2 PUSH2 0x25E2 JUMP JUMPDEST DUP3 MSTORE POP POP JUMP JUMPDEST PUSH2 0x1E90 DUP2 PUSH2 0x25EE JUMP JUMPDEST DUP3 MSTORE POP POP JUMP JUMPDEST PUSH2 0x1E9F DUP2 PUSH2 0x25EE JUMP JUMPDEST DUP3 MSTORE POP POP JUMP JUMPDEST PUSH1 0x0 PUSH2 0x1EB0 DUP3 PUSH2 0x24AC JUMP JUMPDEST PUSH2 0x1EBA DUP2 DUP6 PUSH2 0x24F3 JUMP JUMPDEST SWAP4 POP PUSH2 0x1ECA DUP2 DUP6 PUSH1 0x20 DUP7 ADD PUSH2 0x266B JUMP JUMPDEST PUSH2 0x1ED3 DUP2 PUSH2 0x27ED JUMP JUMPDEST DUP5 ADD SWAP2 POP POP SWAP3 SWAP2 POP POP JUMP JUMPDEST PUSH1 0x0 PUSH2 0x1EE9 DUP3 PUSH2 0x24AC JUMP JUMPDEST PUSH2 0x1EF3 DUP2 DUP6 PUSH2 0x2504 JUMP JUMPDEST SWAP4 POP PUSH2 0x1F03 DUP2 DUP6 PUSH1 0x20 DUP7 ADD PUSH2 0x266B JUMP JUMPDEST PUSH2 0x1F0C DUP2 PUSH2 0x27ED JUMP JUMPDEST DUP5 ADD SWAP2 POP POP SWAP3 SWAP2 POP POP JUMP JUMPDEST PUSH1 0x0 PUSH2 0x1F22 DUP3 PUSH2 0x24AC JUMP JUMPDEST PUSH2 0x1F2C DUP2 DUP6 PUSH2 0x2515 JUMP JUMPDEST SWAP4 POP PUSH2 0x1F3C DUP2 DUP6 PUSH1 0x20 DUP7 ADD PUSH2 0x266B JUMP JUMPDEST DUP1 DUP5 ADD SWAP2 POP POP SWAP3 SWAP2 POP POP JUMP JUMPDEST PUSH1 0x0 PUSH2 0x1F55 PUSH1 0x20 DUP4 PUSH2 0x2504 JUMP JUMPDEST SWAP2 POP PUSH2 0x1F60 DUP3 PUSH2 0x27FE JUMP JUMPDEST PUSH1 0x20 DUP3 ADD SWAP1 POP SWAP2 SWAP1 POP JUMP JUMPDEST PUSH1 0x0 PUSH2 0x1F78 PUSH1 0x1F DUP4 PUSH2 0x2504 JUMP JUMPDEST SWAP2 POP PUSH2 0x1F83 DUP3 PUSH2 0x2827 JUMP JUMPDEST PUSH1 0x20 DUP3 ADD SWAP1 POP SWAP2 SWAP1 POP JUMP JUMPDEST PUSH1 0x0 PUSH2 0x1F9B PUSH1 0x15 DUP4 PUSH2 0x2504 JUMP JUMPDEST SWAP2 POP PUSH2 0x1FA6 DUP3 PUSH2 0x2850 JUMP JUMPDEST PUSH1 0x20 DUP3 ADD SWAP1 POP SWAP2 SWAP1 POP JUMP JUMPDEST PUSH1 0x0 PUSH2 0x1FBE PUSH1 0xF DUP4 PUSH2 0x2504 JUMP JUMPDEST SWAP2 POP PUSH2 0x1FC9 DUP3 PUSH2 0x2879 JUMP JUMPDEST PUSH1 0x20 DUP3 ADD SWAP1 POP SWAP2 SWAP1 POP JUMP JUMPDEST PUSH1 0x0 PUSH2 0x1FE1 PUSH1 0x17 DUP4 PUSH2 0x2515 JUMP JUMPDEST SWAP2 POP PUSH2 0x1FEC DUP3 PUSH2 0x28A2 JUMP JUMPDEST PUSH1 0x17 DUP3 ADD SWAP1 POP SWAP2 SWAP1 POP JUMP JUMPDEST PUSH1 0x0 PUSH2 0x2004 PUSH1 0xD DUP4 PUSH2 0x2504 JUMP JUMPDEST SWAP2 POP PUSH2 0x200F DUP3 PUSH2 0x28CB JUMP JUMPDEST PUSH1 0x20 DUP3 ADD SWAP1 POP SWAP2 SWAP1 POP JUMP JUMPDEST PUSH1 0x0 PUSH2 0x2027 PUSH1 0x11 DUP4 PUSH2 0x2515 JUMP JUMPDEST SWAP2 POP PUSH2 0x2032 DUP3 PUSH2 0x28F4 JUMP JUMPDEST PUSH1 0x11 DUP3 ADD SWAP1 POP SWAP2 SWAP1 POP JUMP JUMPDEST PUSH1 0x0 PUSH2 0x204A PUSH1 0x2F DUP4 PUSH2 0x2504 JUMP JUMPDEST SWAP2 POP PUSH2 0x2055 DUP3 PUSH2 0x291D JUMP JUMPDEST PUSH1 0x40 DUP3 ADD SWAP1 POP SWAP2 SWAP1 POP JUMP JUMPDEST PUSH1 0x60 DUP3 ADD PUSH1 0x0 DUP3 ADD MLOAD PUSH2 0x2076 PUSH1 0x0 DUP6 ADD DUP3 PUSH2 0x1E69 JUMP JUMPDEST POP PUSH1 0x20 DUP3 ADD MLOAD PUSH2 0x2089 PUSH1 0x20 DUP6 ADD DUP3 PUSH2 0x1E69 JUMP JUMPDEST POP PUSH1 0x40 DUP3 ADD MLOAD PUSH2 0x209C PUSH1 0x40 DUP6 ADD DUP3 PUSH2 0x1E69 JUMP JUMPDEST POP POP POP POP JUMP JUMPDEST PUSH1 0x40 DUP3 ADD PUSH1 0x0 DUP3 ADD MLOAD PUSH2 0x20B8 PUSH1 0x0 DUP6 ADD DUP3 PUSH2 0x1E87 JUMP JUMPDEST POP PUSH1 0x20 DUP3 ADD MLOAD PUSH2 0x20CB PUSH1 0x20 DUP6 ADD DUP3 PUSH2 0x1E87 JUMP JUMPDEST POP POP POP POP JUMP JUMPDEST PUSH1 0x40 DUP3 ADD PUSH1 0x0 DUP3 ADD MLOAD PUSH2 0x20E7 PUSH1 0x0 DUP6 ADD DUP3 PUSH2 0x1E87 JUMP JUMPDEST POP PUSH1 0x20 DUP3 ADD MLOAD PUSH2 0x20FA PUSH1 0x20 DUP6 ADD DUP3 PUSH2 0x1E87 JUMP JUMPDEST POP POP POP POP JUMP JUMPDEST PUSH1 0x40 DUP3 ADD PUSH1 0x0 DUP3 ADD MLOAD PUSH2 0x2116 PUSH1 0x0 DUP6 ADD DUP3 PUSH2 0x1E69 JUMP JUMPDEST POP PUSH1 0x20 DUP3 ADD MLOAD PUSH2 0x2129 PUSH1 0x20 DUP6 ADD DUP3 PUSH2 0x1D78 JUMP JUMPDEST POP POP POP POP JUMP JUMPDEST PUSH1 0x40 DUP3 ADD PUSH1 0x0 DUP3 ADD MLOAD PUSH2 0x2145 PUSH1 0x0 DUP6 ADD DUP3 PUSH2 0x215E JUMP JUMPDEST POP PUSH1 0x20 DUP3 ADD MLOAD PUSH2 0x2158 PUSH1 0x20 DUP6 ADD DUP3 PUSH2 0x215E JUMP JUMPDEST POP POP POP POP JUMP JUMPDEST PUSH2 0x2167 DUP2 PUSH2 0x2624 JUMP JUMPDEST DUP3 MSTORE POP POP JUMP JUMPDEST PUSH2 0x2176 DUP2 PUSH2 0x2652 JUMP JUMPDEST DUP3 MSTORE POP POP JUMP JUMPDEST PUSH1 0x0 PUSH2 0x2187 DUP3 PUSH2 0x1FD4 JUMP JUMPDEST SWAP2 POP PUSH2 0x2193 DUP3 DUP6 PUSH2 0x1F17 JUMP JUMPDEST SWAP2 POP PUSH2 0x219E DUP3 PUSH2 0x201A JUMP JUMPDEST SWAP2 POP PUSH2 0x21AA DUP3 DUP5 PUSH2 0x1F17 JUMP JUMPDEST SWAP2 POP DUP2 SWAP1 POP SWAP4 SWAP3 POP POP POP JUMP JUMPDEST PUSH1 0x0 PUSH1 0x20 DUP3 ADD SWAP1 POP PUSH2 0x21CB PUSH1 0x0 DUP4 ADD DUP5 PUSH2 0x1D87 JUMP JUMPDEST SWAP3 SWAP2 POP POP JUMP JUMPDEST PUSH1 0x0 PUSH1 0xA0 DUP3 ADD SWAP1 POP PUSH2 0x21E6 PUSH1 0x0 DUP4 ADD DUP8 PUSH2 0x1D87 JUMP JUMPDEST PUSH2 0x21F3 PUSH1 0x20 DUP4 ADD DUP7 PUSH2 0x1E96 JUMP JUMPDEST PUSH2 0x2200 PUSH1 0x40 DUP4 ADD DUP6 PUSH2 0x1E96 JUMP JUMPDEST PUSH2 0x220D PUSH1 0x60 DUP4 ADD DUP5 PUSH2 0x2100 JUMP JUMPDEST SWAP6 SWAP5 POP POP POP POP POP JUMP JUMPDEST PUSH1 0x0 PUSH2 0x180 DUP3 ADD SWAP1 POP PUSH2 0x222C PUSH1 0x0 DUP4 ADD DUP11 PUSH2 0x1D87 JUMP JUMPDEST PUSH2 0x2239 PUSH1 0x20 DUP4 ADD DUP10 PUSH2 0x20A2 JUMP JUMPDEST PUSH2 0x2246 PUSH1 0x60 DUP4 ADD DUP9 PUSH2 0x216D JUMP JUMPDEST PUSH2 0x2253 PUSH1 0x80 DUP4 ADD DUP8 PUSH2 0x212F JUMP JUMPDEST DUP2 DUP2 SUB PUSH1 0xC0 DUP4 ADD MSTORE PUSH2 0x2265 DUP2 DUP7 PUSH2 0x1D96 JUMP JUMPDEST SWAP1 POP PUSH2 0x2274 PUSH1 0xE0 DUP4 ADD DUP6 PUSH2 0x2060 JUMP JUMPDEST PUSH2 0x2282 PUSH2 0x140 DUP4 ADD DUP5 PUSH2 0x2100 JUMP JUMPDEST SWAP9 SWAP8 POP POP POP POP POP POP POP POP JUMP JUMPDEST PUSH1 0x0 PUSH1 0x20 DUP3 ADD SWAP1 POP DUP2 DUP2 SUB PUSH1 0x0 DUP4 ADD MSTORE PUSH2 0x22A8 DUP2 DUP5 PUSH2 0x1E0B JUMP JUMPDEST SWAP1 POP SWAP3 SWAP2 POP POP JUMP JUMPDEST PUSH1 0x0 PUSH1 0x20 DUP3 ADD SWAP1 POP PUSH2 0x22C5 PUSH1 0x0 DUP4 ADD DUP5 PUSH2 0x1E78 JUMP JUMPDEST SWAP3 SWAP2 POP POP JUMP JUMPDEST PUSH1 0x0 PUSH1 0x20 DUP3 ADD SWAP1 POP PUSH2 0x22E0 PUSH1 0x0 DUP4 ADD DUP5 PUSH2 0x1E96 JUMP JUMPDEST SWAP3 SWAP2 POP POP JUMP JUMPDEST PUSH1 0x0 PUSH1 0x20 DUP3 ADD SWAP1 POP DUP2 DUP2 SUB PUSH1 0x0 DUP4 ADD MSTORE PUSH2 0x2300 DUP2 DUP5 PUSH2 0x1EDE JUMP JUMPDEST SWAP1 POP SWAP3 SWAP2 POP POP JUMP JUMPDEST PUSH1 0x0 PUSH1 0x20 DUP3 ADD SWAP1 POP DUP2 DUP2 SUB PUSH1 0x0 DUP4 ADD MSTORE PUSH2 0x2321 DUP2 PUSH2 0x1F48 JUMP JUMPDEST SWAP1 POP SWAP2 SWAP1 POP JUMP JUMPDEST PUSH1 0x0 PUSH1 0x20 DUP3 ADD SWAP1 POP DUP2 DUP2 SUB PUSH1 0x0 DUP4 ADD MSTORE PUSH2 0x2341 DUP2 PUSH2 0x1F6B JUMP JUMPDEST SWAP1 POP SWAP2 SWAP1 POP JUMP JUMPDEST PUSH1 0x0 PUSH1 0x20 DUP3 ADD SWAP1 POP DUP2 DUP2 SUB PUSH1 0x0 DUP4 ADD MSTORE PUSH2 0x2361 DUP2 PUSH2 0x1F8E JUMP JUMPDEST SWAP1 POP SWAP2 SWAP1 POP JUMP JUMPDEST PUSH1 0x0 PUSH1 0x20 DUP3 ADD SWAP1 POP DUP2 DUP2 SUB PUSH1 0x0 DUP4 ADD MSTORE PUSH2 0x2381 DUP2 PUSH2 0x1FB1 JUMP JUMPDEST SWAP1 POP SWAP2 SWAP1 POP JUMP JUMPDEST PUSH1 0x0 PUSH1 0x20 DUP3 ADD SWAP1 POP DUP2 DUP2 SUB PUSH1 0x0 DUP4 ADD MSTORE PUSH2 0x23A1 DUP2 PUSH2 0x1FF7 JUMP JUMPDEST SWAP1 POP SWAP2 SWAP1 POP JUMP JUMPDEST PUSH1 0x0 PUSH1 0x20 DUP3 ADD SWAP1 POP DUP2 DUP2 SUB PUSH1 0x0 DUP4 ADD MSTORE PUSH2 0x23C1 DUP2 PUSH2 0x203D JUMP JUMPDEST SWAP1 POP SWAP2 SWAP1 POP JUMP JUMPDEST PUSH1 0x0 PUSH2 0x23D2 PUSH2 0x23E3 JUMP JUMPDEST SWAP1 POP PUSH2 0x23DE DUP3 DUP3 PUSH2 0x26C8 JUMP JUMPDEST SWAP2 SWAP1 POP JUMP JUMPDEST PUSH1 0x0 PUSH1 0x40 MLOAD SWAP1 POP SWAP1 JUMP JUMPDEST PUSH1 0x0 PUSH8 0xFFFFFFFFFFFFFFFF DUP3 GT ISZERO PUSH2 0x2408 JUMPI PUSH2 0x2407 PUSH2 0x27A0 JUMP JUMPDEST JUMPDEST PUSH1 0x20 DUP3 MUL SWAP1 POP PUSH1 0x20 DUP2 ADD SWAP1 POP SWAP2 SWAP1 POP JUMP JUMPDEST PUSH1 0x0 PUSH8 0xFFFFFFFFFFFFFFFF DUP3 GT ISZERO PUSH2 0x2434 JUMPI PUSH2 0x2433 PUSH2 0x27A0 JUMP JUMPDEST JUMPDEST PUSH1 0x20 DUP3 MUL SWAP1 POP PUSH1 0x20 DUP2 ADD SWAP1 POP SWAP2 SWAP1 POP JUMP JUMPDEST PUSH1 0x0 PUSH8 0xFFFFFFFFFFFFFFFF DUP3 GT ISZERO PUSH2 0x2460 JUMPI PUSH2 0x245F PUSH2 0x27A0 JUMP JUMPDEST JUMPDEST PUSH2 0x2469 DUP3 PUSH2 0x27ED JUMP JUMPDEST SWAP1 POP PUSH1 0x20 DUP2 ADD SWAP1 POP SWAP2 SWAP1 POP JUMP JUMPDEST PUSH1 0x0 DUP2 SWAP1 POP PUSH1 0x20 DUP3 ADD SWAP1 POP SWAP2 SWAP1 POP JUMP JUMPDEST PUSH1 0x0 DUP2 SWAP1 POP PUSH1 0x20 DUP3 ADD SWAP1 POP SWAP2 SWAP1 POP JUMP JUMPDEST PUSH1 0x0 DUP2 MLOAD SWAP1 POP SWAP2 SWAP1 POP JUMP JUMPDEST PUSH1 0x0 DUP2 MLOAD SWAP1 POP SWAP2 SWAP1 POP JUMP JUMPDEST PUSH1 0x0 DUP2 MLOAD SWAP1 POP SWAP2 SWAP1 POP JUMP JUMPDEST PUSH1 0x0 PUSH1 0x20 DUP3 ADD SWAP1 POP SWAP2 SWAP1 POP JUMP JUMPDEST PUSH1 0x0 PUSH1 0x20 DUP3 ADD SWAP1 POP SWAP2 SWAP1 POP JUMP JUMPDEST PUSH1 0x0 DUP3 DUP3 MSTORE PUSH1 0x20 DUP3 ADD SWAP1 POP SWAP3 SWAP2 POP POP JUMP JUMPDEST PUSH1 0x0 DUP3 DUP3 MSTORE PUSH1 0x20 DUP3 ADD SWAP1 POP SWAP3 SWAP2 POP POP JUMP JUMPDEST PUSH1 0x0 DUP3 DUP3 MSTORE PUSH1 0x20 DUP3 ADD SWAP1 POP SWAP3 SWAP2 POP POP JUMP JUMPDEST PUSH1 0x0 DUP3 DUP3 MSTORE PUSH1 0x20 DUP3 ADD SWAP1 POP SWAP3 SWAP2 POP POP JUMP JUMPDEST PUSH1 0x0 DUP2 SWAP1 POP SWAP3 SWAP2 POP POP JUMP JUMPDEST PUSH1 0x0 PUSH2 0x252B DUP3 PUSH2 0x2652 JUMP JUMPDEST SWAP2 POP PUSH2 0x2536 DUP4 PUSH2 0x2652 JUMP JUMPDEST SWAP3 POP DUP3 PUSH32 0xFFFFFFFFFFFFFFFFFFFFFFFFFFFFFFFFFFFFFFFFFFFFFFFFFFFFFFFFFFFFFFFF SUB DUP3 GT ISZERO PUSH2 0x256B JUMPI PUSH2 0x256A PUSH2 0x2742 JUMP JUMPDEST JUMPDEST DUP3 DUP3 ADD SWAP1 POP SWAP3 SWAP2 POP POP JUMP JUMPDEST PUSH1 0x0 PUSH2 0x2581 DUP3 PUSH2 0x2652 JUMP JUMPDEST SWAP2 POP PUSH2 0x258C DUP4 PUSH2 0x2652 JUMP JUMPDEST SWAP3 POP DUP2 PUSH32 0xFFFFFFFFFFFFFFFFFFFFFFFFFFFFFFFFFFFFFFFFFFFFFFFFFFFFFFFFFFFFFFFF DIV DUP4 GT DUP3 ISZERO ISZERO AND ISZERO PUSH2 0x25C5 JUMPI PUSH2 0x25C4 PUSH2 0x2742 JUMP JUMPDEST JUMPDEST DUP3 DUP3 MUL SWAP1 POP SWAP3 SWAP2 POP POP JUMP JUMPDEST PUSH1 0x0 PUSH2 0x25DB DUP3 PUSH2 0x2632 JUMP JUMPDEST SWAP1 POP SWAP2 SWAP1 POP JUMP JUMPDEST PUSH1 0x0 DUP2 ISZERO ISZERO SWAP1 POP SWAP2 SWAP1 POP JUMP JUMPDEST PUSH1 0x0 DUP2 SWAP1 POP SWAP2 SWAP1 POP JUMP JUMPDEST PUSH1 0x0 PUSH32 0xFFFFFFFF00000000000000000000000000000000000000000000000000000000 DUP3 AND SWAP1 POP SWAP2 SWAP1 POP JUMP JUMPDEST PUSH1 0x0 PUSH2 0xFFFF DUP3 AND SWAP1 POP SWAP2 SWAP1 POP JUMP JUMPDEST PUSH1 0x0 PUSH20 0xFFFFFFFFFFFFFFFFFFFFFFFFFFFFFFFFFFFFFFFF DUP3 AND SWAP1 POP SWAP2 SWAP1 POP JUMP JUMPDEST PUSH1 0x0 DUP2 SWAP1 POP SWAP2 SWAP1 POP JUMP JUMPDEST DUP3 DUP2 DUP4 CALLDATACOPY PUSH1 0x0 DUP4 DUP4 ADD MSTORE POP POP POP JUMP JUMPDEST PUSH1 0x0 JUMPDEST DUP4 DUP2 LT ISZERO PUSH2 0x2689 JUMPI DUP1 DUP3 ADD MLOAD DUP2 DUP5 ADD MSTORE PUSH1 0x20 DUP2 ADD SWAP1 POP PUSH2 0x266E JUMP JUMPDEST DUP4 DUP2 GT ISZERO PUSH2 0x2698 JUMPI PUSH1 0x0 DUP5 DUP5 ADD MSTORE JUMPDEST POP POP POP POP JUMP JUMPDEST PUSH1 0x0 PUSH2 0x26A9 DUP3 PUSH2 0x2652 JUMP JUMPDEST SWAP2 POP PUSH1 0x0 DUP3 EQ ISZERO PUSH2 0x26BD JUMPI PUSH2 0x26BC PUSH2 0x2742 JUMP JUMPDEST JUMPDEST PUSH1 0x1 DUP3 SUB SWAP1 POP SWAP2 SWAP1 POP JUMP JUMPDEST PUSH2 0x26D1 DUP3 PUSH2 0x27ED JUMP JUMPDEST DUP2 ADD DUP2 DUP2 LT PUSH8 0xFFFFFFFFFFFFFFFF DUP3 GT OR ISZERO PUSH2 0x26F0 JUMPI PUSH2 0x26EF PUSH2 0x27A0 JUMP JUMPDEST JUMPDEST DUP1 PUSH1 0x40 MSTORE POP POP POP JUMP JUMPDEST PUSH1 0x0 PUSH2 0x2704 DUP3 PUSH2 0x2652 JUMP JUMPDEST SWAP2 POP PUSH32 0xFFFFFFFFFFFFFFFFFFFFFFFFFFFFFFFFFFFFFFFFFFFFFFFFFFFFFFFFFFFFFFFF DUP3 EQ ISZERO PUSH2 0x2737 JUMPI PUSH2 0x2736 PUSH2 0x2742 JUMP JUMPDEST JUMPDEST PUSH1 0x1 DUP3 ADD SWAP1 POP SWAP2 SWAP1 POP JUMP JUMPDEST PUSH32 0x4E487B7100000000000000000000000000000000000000000000000000000000 PUSH1 0x0 MSTORE PUSH1 0x11 PUSH1 0x4 MSTORE PUSH1 0x24 PUSH1 0x0 REVERT JUMPDEST PUSH32 0x4E487B7100000000000000000000000000000000000000000000000000000000 PUSH1 0x0 MSTORE PUSH1 0x32 PUSH1 0x4 MSTORE PUSH1 0x24 PUSH1 0x0 REVERT JUMPDEST PUSH32 0x4E487B7100000000000000000000000000000000000000000000000000000000 PUSH1 0x0 MSTORE PUSH1 0x41 PUSH1 0x4 MSTORE PUSH1 0x24 PUSH1 0x0 REVERT JUMPDEST PUSH1 0x0 DUP1 REVERT JUMPDEST PUSH1 0x0 DUP1 REVERT JUMPDEST PUSH1 0x0 DUP1 REVERT JUMPDEST PUSH1 0x0 DUP1 REVERT JUMPDEST PUSH1 0x0 DUP1 REVERT JUMPDEST PUSH1 0x0 DUP1 REVERT JUMPDEST PUSH1 0x0 PUSH1 0x1F NOT PUSH1 0x1F DUP4 ADD AND SWAP1 POP SWAP2 SWAP1 POP JUMP JUMPDEST PUSH32 0x537472696E67733A20686578206C656E67746820696E73756666696369656E74 PUSH1 0x0 DUP3 ADD MSTORE POP JUMP JUMPDEST PUSH32 0x446F63746F72206F722070617469656E74206973206E6F742061207573657200 PUSH1 0x0 DUP3 ADD MSTORE POP JUMP JUMPDEST PUSH32 0x50617469656E74206973206E6F74206120757365720000000000000000000000 PUSH1 0x0 DUP3 ADD MSTORE POP JUMP JUMPDEST PUSH32 0x50726F66696C6520657869737465640000000000000000000000000000000000 PUSH1 0x0 DUP3 ADD MSTORE POP JUMP JUMPDEST PUSH32 0x416363657373436F6E74726F6C3A206163636F756E7420000000000000000000 PUSH1 0x0 DUP3 ADD MSTORE POP JUMP JUMPDEST PUSH32 0x4163636573732064656E69656400000000000000000000000000000000000000 PUSH1 0x0 DUP3 ADD MSTORE POP JUMP JUMPDEST PUSH32 0x206973206D697373696E6720726F6C6520000000000000000000000000000000 PUSH1 0x0 DUP3 ADD MSTORE POP JUMP JUMPDEST PUSH32 0x416363657373436F6E74726F6C3A2063616E206F6E6C792072656E6F756E6365 PUSH1 0x0 DUP3 ADD MSTORE PUSH32 0x20726F6C657320666F722073656C660000000000000000000000000000000000 PUSH1 0x20 DUP3 ADD MSTORE POP JUMP JUMPDEST PUSH2 0x2975 DUP2 PUSH2 0x25D0 JUMP JUMPDEST DUP2 EQ PUSH2 0x2980 JUMPI PUSH1 0x0 DUP1 REVERT JUMPDEST POP JUMP JUMPDEST PUSH2 0x298C DUP2 PUSH2 0x25E2 JUMP JUMPDEST DUP2 EQ PUSH2 0x2997 JUMPI PUSH1 0x0 DUP1 REVERT JUMPDEST POP JUMP JUMPDEST PUSH2 0x29A3 DUP2 PUSH2 0x25EE JUMP JUMPDEST DUP2 EQ PUSH2 0x29AE JUMPI PUSH1 0x0 DUP1 REVERT JUMPDEST POP JUMP JUMPDEST PUSH2 0x29BA DUP2 PUSH2 0x25F8 JUMP JUMPDEST DUP2 EQ PUSH2 0x29C5 JUMPI PUSH1 0x0 DUP1 REVERT JUMPDEST POP JUMP JUMPDEST PUSH2 0x29D1 DUP2 PUSH2 0x2624 JUMP JUMPDEST DUP2 EQ PUSH2 0x29DC JUMPI PUSH1 0x0 DUP1 REVERT JUMPDEST POP JUMP JUMPDEST PUSH2 0x29E8 DUP2 PUSH2 0x2652 JUMP JUMPDEST DUP2 EQ PUSH2 0x29F3 JUMPI PUSH1 0x0 DUP1 REVERT JUMPDEST POP JUMP INVALID LOG2 PUSH5 0x6970667358 0x22 SLT KECCAK256 0xDB 0xD4 0x2E 0x29 SWAP6 ORIGIN 0xAC 0xC8 0xDE JUMP DUP13 0xD5 SWAP9 0xA7 0x48 SWAP1 0xC8 0xC XOR 0xCD 0xC6 DIFFICULTY PUSH3 0x942D3C SWAP12 0xDD 0x22 0x4C SAR 0xB6 PUSH5 0x736F6C6343 STOP ADDMOD MOD STOP CALLER PUSH1 0xA0 PUSH1 0x40 MSTORE CALLVALUE DUP1 ISZERO PUSH2 0x10 JUMPI PUSH1 0x0 DUP1 REVERT JUMPDEST POP PUSH2 0x2D PUSH2 0x22 PUSH2 0x91 PUSH1 0x20 SHL PUSH1 0x20 SHR JUMP JUMPDEST PUSH2 0x99 PUSH1 0x20 SHL PUSH1 0x20 SHR JUMP JUMPDEST PUSH1 0x40 MLOAD PUSH2 0x39 SWAP1 PUSH2 0x15D JUMP JUMPDEST PUSH1 0x40 MLOAD DUP1 SWAP2 SUB SWAP1 PUSH1 0x0 CREATE DUP1 ISZERO DUP1 ISZERO PUSH2 0x55 JUMPI RETURNDATASIZE PUSH1 0x0 DUP1 RETURNDATACOPY RETURNDATASIZE PUSH1 0x0 REVERT JUMPDEST POP PUSH20 0xFFFFFFFFFFFFFFFFFFFFFFFFFFFFFFFFFFFFFFFF AND PUSH1 0x80 DUP2 PUSH20 0xFFFFFFFFFFFFFFFFFFFFFFFFFFFFFFFFFFFFFFFF AND PUSH1 0x60 SHL DUP2 MSTORE POP POP PUSH2 0x16A JUMP JUMPDEST PUSH1 0x0 CALLER SWAP1 POP SWAP1 JUMP JUMPDEST PUSH1 0x0 DUP1 PUSH1 0x0 SWAP1 SLOAD SWAP1 PUSH2 0x100 EXP SWAP1 DIV PUSH20 0xFFFFFFFFFFFFFFFFFFFFFFFFFFFFFFFFFFFFFFFF AND SWAP1 POP DUP2 PUSH1 0x0 DUP1 PUSH2 0x100 EXP DUP2 SLOAD DUP2 PUSH20 0xFFFFFFFFFFFFFFFFFFFFFFFFFFFFFFFFFFFFFFFF MUL NOT AND SWAP1 DUP4 PUSH20 0xFFFFFFFFFFFFFFFFFFFFFFFFFFFFFFFFFFFFFFFF AND MUL OR SWAP1 SSTORE POP DUP2 PUSH20 0xFFFFFFFFFFFFFFFFFFFFFFFFFFFFFFFFFFFFFFFF AND DUP2 PUSH20 0xFFFFFFFFFFFFFFFFFFFFFFFFFFFFFFFFFFFFFFFF AND PUSH32 0x8BE0079C531659141344CD1FD0A4F28419497F9722A3DAAFE3B4186F6B6457E0 PUSH1 0x40 MLOAD PUSH1 0x40 MLOAD DUP1 SWAP2 SUB SWAP1 LOG3 POP POP JUMP JUMPDEST PUSH2 0x1653 DUP1 PUSH2 0xAF2 DUP4 CODECOPY ADD SWAP1 JUMP JUMPDEST PUSH1 0x80 MLOAD PUSH1 0x60 SHR PUSH2 0x96A PUSH2 0x188 PUSH1 0x0 CODECOPY PUSH1 0x0 PUSH2 0x111 ADD MSTORE PUSH2 0x96A PUSH1 0x0 RETURN INVALID PUSH1 0x80 PUSH1 0x40 MSTORE CALLVALUE DUP1 ISZERO PUSH2 0x10 JUMPI PUSH1 0x0 DUP1 REVERT JUMPDEST POP PUSH1 0x4 CALLDATASIZE LT PUSH2 0x4C JUMPI PUSH1 0x0 CALLDATALOAD PUSH1 0xE0 SHR DUP1 PUSH4 0x715018A6 EQ PUSH2 0x51 JUMPI DUP1 PUSH4 0x8DA5CB5B EQ PUSH2 0x5B JUMPI DUP1 PUSH4 0xF13E4869 EQ PUSH2 0x79 JUMPI DUP1 PUSH4 0xF2FDE38B EQ PUSH2 0xA9 JUMPI JUMPDEST PUSH1 0x0 DUP1 REVERT JUMPDEST PUSH2 0x59 PUSH2 0xC5 JUMP JUMPDEST STOP JUMPDEST PUSH2 0x63 PUSH2 0xD9 JUMP JUMPDEST PUSH1 0x40 MLOAD PUSH2 0x70 SWAP2 SWAP1 PUSH2 0x687 JUMP JUMPDEST PUSH1 0x40 MLOAD DUP1 SWAP2 SUB SWAP1 RETURN JUMPDEST PUSH2 0x93 PUSH1 0x4 DUP1 CALLDATASIZE SUB DUP2 ADD SWAP1 PUSH2 0x8E SWAP2 SWAP1 PUSH2 0x599 JUMP JUMPDEST PUSH2 0x102 JUMP JUMPDEST PUSH1 0x40 MLOAD PUSH2 0xA0 SWAP2 SWAP1 PUSH2 0x687 JUMP JUMPDEST PUSH1 0x40 MLOAD DUP1 SWAP2 SUB SWAP1 RETURN JUMPDEST PUSH2 0xC3 PUSH1 0x4 DUP1 CALLDATASIZE SUB DUP2 ADD SWAP1 PUSH2 0xBE SWAP2 SWAP1 PUSH2 0x56C JUMP JUMPDEST PUSH2 0x23A JUMP JUMPDEST STOP JUMPDEST PUSH2 0xCD PUSH2 0x2BE JUMP JUMPDEST PUSH2 0xD7 PUSH1 0x0 PUSH2 0x33C JUMP JUMPDEST JUMP JUMPDEST PUSH1 0x0 DUP1 PUSH1 0x0 SWAP1 SLOAD SWAP1 PUSH2 0x100 EXP SWAP1 DIV PUSH20 0xFFFFFFFFFFFFFFFFFFFFFFFFFFFFFFFFFFFFFFFF AND SWAP1 POP SWAP1 JUMP JUMPDEST PUSH1 0x0 PUSH2 0x10C PUSH2 0x2BE JUMP JUMPDEST PUSH2 0x135 PUSH32 0x0 PUSH2 0x400 JUMP JUMPDEST SWAP1 POP DUP2 PUSH1 0x0 ADD MLOAD ISZERO PUSH2 0x1BD JUMPI DUP1 PUSH20 0xFFFFFFFFFFFFFFFFFFFFFFFFFFFFFFFFFFFFFFFF AND PUSH4 0x716C970 DUP7 DUP5 PUSH1 0x20 ADD MLOAD CALLER DUP9 DUP9 PUSH1 0x40 MLOAD DUP7 PUSH4 0xFFFFFFFF AND PUSH1 0xE0 SHL DUP2 MSTORE PUSH1 0x4 ADD PUSH2 0x186 SWAP6 SWAP5 SWAP4 SWAP3 SWAP2 SWAP1 PUSH2 0x6A2 JUMP JUMPDEST PUSH1 0x0 PUSH1 0x40 MLOAD DUP1 DUP4 SUB DUP2 PUSH1 0x0 DUP8 DUP1 EXTCODESIZE ISZERO DUP1 ISZERO PUSH2 0x1A0 JUMPI PUSH1 0x0 DUP1 REVERT JUMPDEST POP GAS CALL ISZERO DUP1 ISZERO PUSH2 0x1B4 JUMPI RETURNDATASIZE PUSH1 0x0 DUP1 RETURNDATACOPY RETURNDATASIZE PUSH1 0x0 REVERT JUMPDEST POP POP POP POP PUSH2 0x232 JUMP JUMPDEST DUP1 PUSH20 0xFFFFFFFFFFFFFFFFFFFFFFFFFFFFFFFFFFFFFFFF AND PUSH4 0x716C970 DUP7 PUSH1 0x0 CALLER DUP9 DUP9 PUSH1 0x40 MLOAD DUP7 PUSH4 0xFFFFFFFF AND PUSH1 0xE0 SHL DUP2 MSTORE PUSH1 0x4 ADD PUSH2 0x1FF SWAP6 SWAP5 SWAP4 SWAP3 SWAP2 SWAP1 PUSH2 0x6A2 JUMP JUMPDEST PUSH1 0x0 PUSH1 0x40 MLOAD DUP1 DUP4 SUB DUP2 PUSH1 0x0 DUP8 DUP1 EXTCODESIZE ISZERO DUP1 ISZERO PUSH2 0x219 JUMPI PUSH1 0x0 DUP1 REVERT JUMPDEST POP GAS CALL ISZERO DUP1 ISZERO PUSH2 0x22D JUMPI RETURNDATASIZE PUSH1 0x0 DUP1 RETURNDATACOPY RETURNDATASIZE PUSH1 0x0 REVERT JUMPDEST POP POP POP POP JUMPDEST SWAP5 SWAP4 POP POP POP POP JUMP JUMPDEST PUSH2 0x242 PUSH2 0x2BE JUMP JUMPDEST PUSH1 0x0 PUSH20 0xFFFFFFFFFFFFFFFFFFFFFFFFFFFFFFFFFFFFFFFF AND DUP2 PUSH20 0xFFFFFFFFFFFFFFFFFFFFFFFFFFFFFFFFFFFFFFFF AND EQ ISZERO PUSH2 0x2B2 JUMPI PUSH1 0x40 MLOAD PUSH32 0x8C379A000000000000000000000000000000000000000000000000000000000 DUP2 MSTORE PUSH1 0x4 ADD PUSH2 0x2A9 SWAP1 PUSH2 0x6F5 JUMP JUMPDEST PUSH1 0x40 MLOAD DUP1 SWAP2 SUB SWAP1 REVERT JUMPDEST PUSH2 0x2BB DUP2 PUSH2 0x33C JUMP JUMPDEST POP JUMP JUMPDEST PUSH2 0x2C6 PUSH2 0x4D5 JUMP JUMPDEST PUSH20 0xFFFFFFFFFFFFFFFFFFFFFFFFFFFFFFFFFFFFFFFF AND PUSH2 0x2E4 PUSH2 0xD9 JUMP JUMPDEST PUSH20 0xFFFFFFFFFFFFFFFFFFFFFFFFFFFFFFFFFFFFFFFF AND EQ PUSH2 0x33A JUMPI PUSH1 0x40 MLOAD PUSH32 0x8C379A000000000000000000000000000000000000000000000000000000000 DUP2 MSTORE PUSH1 0x4 ADD PUSH2 0x331 SWAP1 PUSH2 0x735 JUMP JUMPDEST PUSH1 0x40 MLOAD DUP1 SWAP2 SUB SWAP1 REVERT JUMPDEST JUMP JUMPDEST PUSH1 0x0 DUP1 PUSH1 0x0 SWAP1 SLOAD SWAP1 PUSH2 0x100 EXP SWAP1 DIV PUSH20 0xFFFFFFFFFFFFFFFFFFFFFFFFFFFFFFFFFFFFFFFF AND SWAP1 POP DUP2 PUSH1 0x0 DUP1 PUSH2 0x100 EXP DUP2 SLOAD DUP2 PUSH20 0xFFFFFFFFFFFFFFFFFFFFFFFFFFFFFFFFFFFFFFFF MUL NOT AND SWAP1 DUP4 PUSH20 0xFFFFFFFFFFFFFFFFFFFFFFFFFFFFFFFFFFFFFFFF AND MUL OR SWAP1 SSTORE POP DUP2 PUSH20 0xFFFFFFFFFFFFFFFFFFFFFFFFFFFFFFFFFFFFFFFF AND DUP2 PUSH20 0xFFFFFFFFFFFFFFFFFFFFFFFFFFFFFFFFFFFFFFFF AND PUSH32 0x8BE0079C531659141344CD1FD0A4F28419497F9722A3DAAFE3B4186F6B6457E0 PUSH1 0x40 MLOAD PUSH1 0x40 MLOAD DUP1 SWAP2 SUB SWAP1 LOG3 POP POP JUMP JUMPDEST PUSH1 0x0 PUSH1 0x40 MLOAD PUSH32 0x3D602D80600A3D3981F3363D3D373D3D3D363D73000000000000000000000000 DUP2 MSTORE DUP3 PUSH1 0x60 SHL PUSH1 0x14 DUP3 ADD MSTORE PUSH32 0x5AF43D82803E903D91602B57FD5BF30000000000000000000000000000000000 PUSH1 0x28 DUP3 ADD MSTORE PUSH1 0x37 DUP2 PUSH1 0x0 CREATE SWAP2 POP POP PUSH1 0x0 PUSH20 0xFFFFFFFFFFFFFFFFFFFFFFFFFFFFFFFFFFFFFFFF AND DUP2 PUSH20 0xFFFFFFFFFFFFFFFFFFFFFFFFFFFFFFFFFFFFFFFF AND EQ ISZERO PUSH2 0x4D0 JUMPI PUSH1 0x40 MLOAD PUSH32 0x8C379A000000000000000000000000000000000000000000000000000000000 DUP2 MSTORE PUSH1 0x4 ADD PUSH2 0x4C7 SWAP1 PUSH2 0x715 JUMP JUMPDEST PUSH1 0x40 MLOAD DUP1 SWAP2 SUB SWAP1 REVERT JUMPDEST SWAP2 SWAP1 POP JUMP JUMPDEST PUSH1 0x0 CALLER SWAP1 POP SWAP1 JUMP JUMPDEST PUSH1 0x0 DUP2 CALLDATALOAD SWAP1 POP PUSH2 0x4EC DUP2 PUSH2 0x8EF JUMP JUMPDEST SWAP3 SWAP2 POP POP JUMP JUMPDEST PUSH1 0x0 DUP2 CALLDATALOAD SWAP1 POP PUSH2 0x501 DUP2 PUSH2 0x906 JUMP JUMPDEST SWAP3 SWAP2 POP POP JUMP JUMPDEST PUSH1 0x0 DUP2 CALLDATALOAD SWAP1 POP PUSH2 0x516 DUP2 PUSH2 0x91D JUMP JUMPDEST SWAP3 SWAP2 POP POP JUMP JUMPDEST PUSH1 0x0 PUSH1 0x40 DUP3 DUP5 SUB SLT ISZERO PUSH2 0x532 JUMPI PUSH2 0x531 PUSH2 0x833 JUMP JUMPDEST JUMPDEST PUSH2 0x53C PUSH1 0x40 PUSH2 0x755 JUMP JUMPDEST SWAP1 POP PUSH1 0x0 PUSH2 0x54C DUP5 DUP3 DUP6 ADD PUSH2 0x4F2 JUMP JUMPDEST PUSH1 0x0 DUP4 ADD MSTORE POP PUSH1 0x20 PUSH2 0x560 DUP5 DUP3 DUP6 ADD PUSH2 0x4DD JUMP JUMPDEST PUSH1 0x20 DUP4 ADD MSTORE POP SWAP3 SWAP2 POP POP JUMP JUMPDEST PUSH1 0x0 PUSH1 0x20 DUP3 DUP5 SUB SLT ISZERO PUSH2 0x582 JUMPI PUSH2 0x581 PUSH2 0x838 JUMP JUMPDEST JUMPDEST PUSH1 0x0 PUSH2 0x590 DUP5 DUP3 DUP6 ADD PUSH2 0x4DD JUMP JUMPDEST SWAP2 POP POP SWAP3 SWAP2 POP POP JUMP JUMPDEST PUSH1 0x0 DUP1 PUSH1 0x0 DUP1 PUSH1 0xA0 DUP6 DUP8 SUB SLT ISZERO PUSH2 0x5B3 JUMPI PUSH2 0x5B2 PUSH2 0x838 JUMP JUMPDEST JUMPDEST PUSH1 0x0 PUSH2 0x5C1 DUP8 DUP3 DUP9 ADD PUSH2 0x4DD JUMP JUMPDEST SWAP5 POP POP PUSH1 0x20 PUSH2 0x5D2 DUP8 DUP3 DUP9 ADD PUSH2 0x507 JUMP JUMPDEST SWAP4 POP POP PUSH1 0x40 PUSH2 0x5E3 DUP8 DUP3 DUP9 ADD PUSH2 0x507 JUMP JUMPDEST SWAP3 POP POP PUSH1 0x60 PUSH2 0x5F4 DUP8 DUP3 DUP9 ADD PUSH2 0x51C JUMP JUMPDEST SWAP2 POP POP SWAP3 SWAP6 SWAP2 SWAP5 POP SWAP3 POP JUMP JUMPDEST PUSH2 0x609 DUP2 PUSH2 0x78B JUMP JUMPDEST DUP3 MSTORE POP POP JUMP JUMPDEST PUSH2 0x618 DUP2 PUSH2 0x7A9 JUMP JUMPDEST DUP3 MSTORE POP POP JUMP JUMPDEST PUSH1 0x0 PUSH2 0x62B PUSH1 0x26 DUP4 PUSH2 0x77A JUMP JUMPDEST SWAP2 POP PUSH2 0x636 DUP3 PUSH2 0x84E JUMP JUMPDEST PUSH1 0x40 DUP3 ADD SWAP1 POP SWAP2 SWAP1 POP JUMP JUMPDEST PUSH1 0x0 PUSH2 0x64E PUSH1 0x16 DUP4 PUSH2 0x77A JUMP JUMPDEST SWAP2 POP PUSH2 0x659 DUP3 PUSH2 0x89D JUMP JUMPDEST PUSH1 0x20 DUP3 ADD SWAP1 POP SWAP2 SWAP1 POP JUMP JUMPDEST PUSH1 0x0 PUSH2 0x671 PUSH1 0x20 DUP4 PUSH2 0x77A JUMP JUMPDEST SWAP2 POP PUSH2 0x67C DUP3 PUSH2 0x8C6 JUMP JUMPDEST PUSH1 0x20 DUP3 ADD SWAP1 POP SWAP2 SWAP1 POP JUMP JUMPDEST PUSH1 0x0 PUSH1 0x20 DUP3 ADD SWAP1 POP PUSH2 0x69C PUSH1 0x0 DUP4 ADD DUP5 PUSH2 0x600 JUMP JUMPDEST SWAP3 SWAP2 POP POP JUMP JUMPDEST PUSH1 0x0 PUSH1 0xA0 DUP3 ADD SWAP1 POP PUSH2 0x6B7 PUSH1 0x0 DUP4 ADD DUP9 PUSH2 0x600 JUMP JUMPDEST PUSH2 0x6C4 PUSH1 0x20 DUP4 ADD DUP8 PUSH2 0x600 JUMP JUMPDEST PUSH2 0x6D1 PUSH1 0x40 DUP4 ADD DUP7 PUSH2 0x600 JUMP JUMPDEST PUSH2 0x6DE PUSH1 0x60 DUP4 ADD DUP6 PUSH2 0x60F JUMP JUMPDEST PUSH2 0x6EB PUSH1 0x80 DUP4 ADD DUP5 PUSH2 0x60F JUMP JUMPDEST SWAP7 SWAP6 POP POP POP POP POP POP JUMP JUMPDEST PUSH1 0x0 PUSH1 0x20 DUP3 ADD SWAP1 POP DUP2 DUP2 SUB PUSH1 0x0 DUP4 ADD MSTORE PUSH2 0x70E DUP2 PUSH2 0x61E JUMP JUMPDEST SWAP1 POP SWAP2 SWAP1 POP JUMP JUMPDEST PUSH1 0x0 PUSH1 0x20 DUP3 ADD SWAP1 POP DUP2 DUP2 SUB PUSH1 0x0 DUP4 ADD MSTORE PUSH2 0x72E DUP2 PUSH2 0x641 JUMP JUMPDEST SWAP1 POP SWAP2 SWAP1 POP JUMP JUMPDEST PUSH1 0x0 PUSH1 0x20 DUP3 ADD SWAP1 POP DUP2 DUP2 SUB PUSH1 0x0 DUP4 ADD MSTORE PUSH2 0x74E DUP2 PUSH2 0x664 JUMP JUMPDEST SWAP1 POP SWAP2 SWAP1 POP JUMP JUMPDEST PUSH1 0x0 PUSH2 0x75F PUSH2 0x770 JUMP JUMPDEST SWAP1 POP PUSH2 0x76B DUP3 DUP3 PUSH2 0x7D3 JUMP JUMPDEST SWAP2 SWAP1 POP JUMP JUMPDEST PUSH1 0x0 PUSH1 0x40 MLOAD SWAP1 POP SWAP1 JUMP JUMPDEST PUSH1 0x0 DUP3 DUP3 MSTORE PUSH1 0x20 DUP3 ADD SWAP1 POP SWAP3 SWAP2 POP POP JUMP JUMPDEST PUSH1 0x0 PUSH2 0x796 DUP3 PUSH2 0x7B3 JUMP JUMPDEST SWAP1 POP SWAP2 SWAP1 POP JUMP JUMPDEST PUSH1 0x0 DUP2 ISZERO ISZERO SWAP1 POP SWAP2 SWAP1 POP JUMP JUMPDEST PUSH1 0x0 DUP2 SWAP1 POP SWAP2 SWAP1 POP JUMP JUMPDEST PUSH1 0x0 PUSH20 0xFFFFFFFFFFFFFFFFFFFFFFFFFFFFFFFFFFFFFFFF DUP3 AND SWAP1 POP SWAP2 SWAP1 POP JUMP JUMPDEST PUSH2 0x7DC DUP3 PUSH2 0x83D JUMP JUMPDEST DUP2 ADD DUP2 DUP2 LT PUSH8 0xFFFFFFFFFFFFFFFF DUP3 GT OR ISZERO PUSH2 0x7FB JUMPI PUSH2 0x7FA PUSH2 0x804 JUMP JUMPDEST JUMPDEST DUP1 PUSH1 0x40 MSTORE POP POP POP JUMP JUMPDEST PUSH32 0x4E487B7100000000000000000000000000000000000000000000000000000000 PUSH1 0x0 MSTORE PUSH1 0x41 PUSH1 0x4 MSTORE PUSH1 0x24 PUSH1 0x0 REVERT JUMPDEST PUSH1 0x0 DUP1 REVERT JUMPDEST PUSH1 0x0 DUP1 REVERT JUMPDEST PUSH1 0x0 PUSH1 0x1F NOT PUSH1 0x1F DUP4 ADD AND SWAP1 POP SWAP2 SWAP1 POP JUMP JUMPDEST PUSH32 0x4F776E61626C653A206E6577206F776E657220697320746865207A65726F2061 PUSH1 0x0 DUP3 ADD MSTORE PUSH32 0x6464726573730000000000000000000000000000000000000000000000000000 PUSH1 0x20 DUP3 ADD MSTORE POP JUMP JUMPDEST PUSH32 0x455243313136373A20637265617465206661696C656400000000000000000000 PUSH1 0x0 DUP3 ADD MSTORE POP JUMP JUMPDEST PUSH32 0x4F776E61626C653A2063616C6C6572206973206E6F7420746865206F776E6572 PUSH1 0x0 DUP3 ADD MSTORE POP JUMP JUMPDEST PUSH2 0x8F8 DUP2 PUSH2 0x78B JUMP JUMPDEST DUP2 EQ PUSH2 0x903 JUMPI PUSH1 0x0 DUP1 REVERT JUMPDEST POP JUMP JUMPDEST PUSH2 0x90F DUP2 PUSH2 0x79D JUMP JUMPDEST DUP2 EQ PUSH2 0x91A JUMPI PUSH1 0x0 DUP1 REVERT JUMPDEST POP JUMP JUMPDEST PUSH2 0x926 DUP2 PUSH2 0x7A9 JUMP JUMPDEST DUP2 EQ PUSH2 0x931 JUMPI PUSH1 0x0 DUP1 REVERT JUMPDEST POP JUMP INVALID LOG2 PUSH5 0x6970667358 0x22 SLT KECCAK256 PUSH26 0x7E6200BD061BA43D15B4B9806F26EE2B28B2A6A4DF5AA4AAEAAB 0xED DIV 0xE0 CALLER 0x4E PUSH5 0x736F6C6343 STOP ADDMOD MOD STOP CALLER PUSH1 0x80 PUSH1 0x40 MSTORE CALLVALUE DUP1 ISZERO PUSH2 0x10 JUMPI PUSH1 0x0 DUP1 REVERT JUMPDEST POP PUSH2 0x44 PUSH32 0x241ECF16D79D0F8DBFB92CBC07FE17840425976CF0667F022FE9877CAA831B08 PUSH1 0x0 DUP1 SHL PUSH2 0x49 PUSH1 0x20 SHL PUSH1 0x20 SHR JUMP JUMPDEST PUSH2 0xC9 JUMP JUMPDEST PUSH1 0x0 PUSH2 0x5A DUP4 PUSH2 0xAA PUSH1 0x20 SHL PUSH1 0x20 SHR JUMP JUMPDEST SWAP1 POP DUP2 PUSH1 0x0 DUP1 DUP6 DUP2 MSTORE PUSH1 0x20 ADD SWAP1 DUP2 MSTORE PUSH1 0x20 ADD PUSH1 0x0 KECCAK256 PUSH1 0x1 ADD DUP2 SWAP1 SSTORE POP DUP2 DUP2 DUP5 PUSH32 0xBD79B86FFE0AB8E8776151514217CD7CACD52C909F66475C3AF44E129F0B00FF PUSH1 0x40 MLOAD PUSH1 0x40 MLOAD DUP1 SWAP2 SUB SWAP1 LOG4 POP POP POP JUMP JUMPDEST PUSH1 0x0 DUP1 PUSH1 0x0 DUP4 DUP2 MSTORE PUSH1 0x20 ADD SWAP1 DUP2 MSTORE PUSH1 0x20 ADD PUSH1 0x0 KECCAK256 PUSH1 0x1 ADD SLOAD SWAP1 POP SWAP2 SWAP1 POP JUMP JUMPDEST PUSH2 0x157B DUP1 PUSH2 0xD8 PUSH1 0x0 CODECOPY PUSH1 0x0 RETURN INVALID PUSH1 0x80 PUSH1 0x40 MSTORE CALLVALUE DUP1 ISZERO PUSH2 0x10 JUMPI PUSH1 0x0 DUP1 REVERT JUMPDEST POP PUSH1 0x4 CALLDATASIZE LT PUSH2 0xCF JUMPI PUSH1 0x0 CALLDATALOAD PUSH1 0xE0 SHR DUP1 PUSH4 0x8BB25419 GT PUSH2 0x8C JUMPI DUP1 PUSH4 0xD294FFE0 GT PUSH2 0x66 JUMPI DUP1 PUSH4 0xD294FFE0 EQ PUSH2 0x213 JUMPI DUP1 PUSH4 0xD547741F EQ PUSH2 0x22F JUMPI DUP1 PUSH4 0xEC87621C EQ PUSH2 0x24B JUMPI DUP1 PUSH4 0xFEC331F2 EQ PUSH2 0x269 JUMPI PUSH2 0xCF JUMP JUMPDEST DUP1 PUSH4 0x8BB25419 EQ PUSH2 0x1A7 JUMPI DUP1 PUSH4 0x91D14854 EQ PUSH2 0x1C5 JUMPI DUP1 PUSH4 0xA217FDDF EQ PUSH2 0x1F5 JUMPI PUSH2 0xCF JUMP JUMPDEST DUP1 PUSH4 0x1FFC9A7 EQ PUSH2 0xD4 JUMPI DUP1 PUSH4 0x716C970 EQ PUSH2 0x104 JUMPI DUP1 PUSH4 0x248A9CA3 EQ PUSH2 0x120 JUMPI DUP1 PUSH4 0x2F2FF15D EQ PUSH2 0x150 JUMPI DUP1 PUSH4 0x36568ABE EQ PUSH2 0x16C JUMPI DUP1 PUSH4 0x5A9B0B89 EQ PUSH2 0x188 JUMPI JUMPDEST PUSH1 0x0 DUP1 REVERT JUMPDEST PUSH2 0xEE PUSH1 0x4 DUP1 CALLDATASIZE SUB DUP2 ADD SWAP1 PUSH2 0xE9 SWAP2 SWAP1 PUSH2 0xE59 JUMP JUMPDEST PUSH2 0x287 JUMP JUMPDEST PUSH1 0x40 MLOAD PUSH2 0xFB SWAP2 SWAP1 PUSH2 0x109E JUMP JUMPDEST PUSH1 0x40 MLOAD DUP1 SWAP2 SUB SWAP1 RETURN JUMPDEST PUSH2 0x11E PUSH1 0x4 DUP1 CALLDATASIZE SUB DUP2 ADD SWAP1 PUSH2 0x119 SWAP2 SWAP1 PUSH2 0xD71 JUMP JUMPDEST PUSH2 0x301 JUMP JUMPDEST STOP JUMPDEST PUSH2 0x13A PUSH1 0x4 DUP1 CALLDATASIZE SUB DUP2 ADD SWAP1 PUSH2 0x135 SWAP2 SWAP1 PUSH2 0xDEC JUMP JUMPDEST PUSH2 0x484 JUMP JUMPDEST PUSH1 0x40 MLOAD PUSH2 0x147 SWAP2 SWAP1 PUSH2 0x10B9 JUMP JUMPDEST PUSH1 0x40 MLOAD DUP1 SWAP2 SUB SWAP1 RETURN JUMPDEST PUSH2 0x16A PUSH1 0x4 DUP1 CALLDATASIZE SUB DUP2 ADD SWAP1 PUSH2 0x165 SWAP2 SWAP1 PUSH2 0xE19 JUMP JUMPDEST PUSH2 0x4A3 JUMP JUMPDEST STOP JUMPDEST PUSH2 0x186 PUSH1 0x4 DUP1 CALLDATASIZE SUB DUP2 ADD SWAP1 PUSH2 0x181 SWAP2 SWAP1 PUSH2 0xE19 JUMP JUMPDEST PUSH2 0x4C4 JUMP JUMPDEST STOP JUMPDEST PUSH2 0x190 PUSH2 0x547 JUMP JUMPDEST PUSH1 0x40 MLOAD PUSH2 0x19E SWAP3 SWAP2 SWAP1 PUSH2 0x10D4 JUMP JUMPDEST PUSH1 0x40 MLOAD DUP1 SWAP2 SUB SWAP1 RETURN JUMPDEST PUSH2 0x1AF PUSH2 0x558 JUMP JUMPDEST PUSH1 0x40 MLOAD PUSH2 0x1BC SWAP2 SWAP1 PUSH2 0x107C JUMP JUMPDEST PUSH1 0x40 MLOAD DUP1 SWAP2 SUB SWAP1 RETURN JUMPDEST PUSH2 0x1DF PUSH1 0x4 DUP1 CALLDATASIZE SUB DUP2 ADD SWAP1 PUSH2 0x1DA SWAP2 SWAP1 PUSH2 0xE19 JUMP JUMPDEST PUSH2 0x611 JUMP JUMPDEST PUSH1 0x40 MLOAD PUSH2 0x1EC SWAP2 SWAP1 PUSH2 0x109E JUMP JUMPDEST PUSH1 0x40 MLOAD DUP1 SWAP2 SUB SWAP1 RETURN JUMPDEST PUSH2 0x1FD PUSH2 0x67B JUMP JUMPDEST PUSH1 0x40 MLOAD PUSH2 0x20A SWAP2 SWAP1 PUSH2 0x10B9 JUMP JUMPDEST PUSH1 0x40 MLOAD DUP1 SWAP2 SUB SWAP1 RETURN JUMPDEST PUSH2 0x22D PUSH1 0x4 DUP1 CALLDATASIZE SUB DUP2 ADD SWAP1 PUSH2 0x228 SWAP2 SWAP1 PUSH2 0xD44 JUMP JUMPDEST PUSH2 0x682 JUMP JUMPDEST STOP JUMPDEST PUSH2 0x249 PUSH1 0x4 DUP1 CALLDATASIZE SUB DUP2 ADD SWAP1 PUSH2 0x244 SWAP2 SWAP1 PUSH2 0xE19 JUMP JUMPDEST PUSH2 0x713 JUMP JUMPDEST STOP JUMPDEST PUSH2 0x253 PUSH2 0x734 JUMP JUMPDEST PUSH1 0x40 MLOAD PUSH2 0x260 SWAP2 SWAP1 PUSH2 0x10B9 JUMP JUMPDEST PUSH1 0x40 MLOAD DUP1 SWAP2 SUB SWAP1 RETURN JUMPDEST PUSH2 0x271 PUSH2 0x758 JUMP JUMPDEST PUSH1 0x40 MLOAD PUSH2 0x27E SWAP2 SWAP1 PUSH2 0x10B9 JUMP JUMPDEST PUSH1 0x40 MLOAD DUP1 SWAP2 SUB SWAP1 RETURN JUMPDEST PUSH1 0x0 PUSH32 0x7965DB0B00000000000000000000000000000000000000000000000000000000 PUSH28 0xFFFFFFFFFFFFFFFFFFFFFFFFFFFFFFFFFFFFFFFFFFFFFFFFFFFFFFFF NOT AND DUP3 PUSH28 0xFFFFFFFFFFFFFFFFFFFFFFFFFFFFFFFFFFFFFFFFFFFFFFFFFFFFFFFF NOT AND EQ DUP1 PUSH2 0x2FA JUMPI POP PUSH2 0x2F9 DUP3 PUSH2 0x77C JUMP JUMPDEST JUMPDEST SWAP1 POP SWAP2 SWAP1 POP JUMP JUMPDEST PUSH1 0x0 ISZERO ISZERO PUSH1 0x4 PUSH1 0x0 SWAP1 SLOAD SWAP1 PUSH2 0x100 EXP SWAP1 DIV PUSH1 0xFF AND ISZERO ISZERO EQ PUSH2 0x357 JUMPI PUSH1 0x40 MLOAD PUSH32 0x8C379A000000000000000000000000000000000000000000000000000000000 DUP2 MSTORE PUSH1 0x4 ADD PUSH2 0x34E SWAP1 PUSH2 0x113F JUMP JUMPDEST PUSH1 0x40 MLOAD DUP1 SWAP2 SUB SWAP1 REVERT JUMPDEST PUSH2 0x381 PUSH32 0xAF1DAC7DEA2FD7F7738119CEC7DF099DFAD49AA9D2E7D17BA6B60F63AE7411F DUP7 PUSH2 0x7E6 JUMP JUMPDEST PUSH2 0x3AB PUSH32 0x241ECF16D79D0F8DBFB92CBC07FE17840425976CF0667F022FE9877CAA831B08 DUP5 PUSH2 0x7E6 JUMP JUMPDEST PUSH2 0x3F5 PUSH32 0x241ECF16D79D0F8DBFB92CBC07FE17840425976CF0667F022FE9877CAA831B08 PUSH32 0xAF1DAC7DEA2FD7F7738119CEC7DF099DFAD49AA9D2E7D17BA6B60F63AE7411F PUSH2 0x7F4 JUMP JUMPDEST PUSH1 0x0 PUSH20 0xFFFFFFFFFFFFFFFFFFFFFFFFFFFFFFFFFFFFFFFF AND DUP5 PUSH20 0xFFFFFFFFFFFFFFFFFFFFFFFFFFFFFFFFFFFFFFFF AND EQ PUSH2 0x454 JUMPI PUSH2 0x453 PUSH32 0x241ECF16D79D0F8DBFB92CBC07FE17840425976CF0667F022FE9877CAA831B08 DUP6 PUSH2 0x7E6 JUMP JUMPDEST JUMPDEST DUP2 PUSH1 0x1 DUP2 SWAP1 SSTORE POP DUP1 PUSH1 0x2 DUP2 SWAP1 SSTORE POP PUSH1 0x1 PUSH1 0x4 PUSH1 0x0 PUSH2 0x100 EXP DUP2 SLOAD DUP2 PUSH1 0xFF MUL NOT AND SWAP1 DUP4 ISZERO ISZERO MUL OR SWAP1 SSTORE POP POP POP POP POP POP JUMP JUMPDEST PUSH1 0x0 DUP1 PUSH1 0x0 DUP4 DUP2 MSTORE PUSH1 0x20 ADD SWAP1 DUP2 MSTORE PUSH1 0x20 ADD PUSH1 0x0 KECCAK256 PUSH1 0x1 ADD SLOAD SWAP1 POP SWAP2 SWAP1 POP JUMP JUMPDEST PUSH2 0x4AC DUP3 PUSH2 0x484 JUMP JUMPDEST PUSH2 0x4B5 DUP2 PUSH2 0x84F JUMP JUMPDEST PUSH2 0x4BF DUP4 DUP4 PUSH2 0x863 JUMP JUMPDEST POP POP POP JUMP JUMPDEST PUSH2 0x4CC PUSH2 0x943 JUMP JUMPDEST PUSH20 0xFFFFFFFFFFFFFFFFFFFFFFFFFFFFFFFFFFFFFFFF AND DUP2 PUSH20 0xFFFFFFFFFFFFFFFFFFFFFFFFFFFFFFFFFFFFFFFF AND EQ PUSH2 0x539 JUMPI PUSH1 0x40 MLOAD PUSH32 0x8C379A000000000000000000000000000000000000000000000000000000000 DUP2 MSTORE PUSH1 0x4 ADD PUSH2 0x530 SWAP1 PUSH2 0x115F JUMP JUMPDEST PUSH1 0x40 MLOAD DUP1 SWAP2 SUB SWAP1 REVERT JUMPDEST PUSH2 0x543 DUP3 DUP3 PUSH2 0x94B JUMP JUMPDEST POP POP JUMP JUMPDEST PUSH1 0x0 DUP1 PUSH1 0x1 SLOAD SWAP2 POP PUSH1 0x2 SLOAD SWAP1 POP SWAP1 SWAP2 JUMP JUMPDEST PUSH1 0x60 PUSH32 0xAF1DAC7DEA2FD7F7738119CEC7DF099DFAD49AA9D2E7D17BA6B60F63AE7411F PUSH2 0x584 DUP2 PUSH2 0x84F JUMP JUMPDEST PUSH1 0x3 DUP1 SLOAD DUP1 PUSH1 0x20 MUL PUSH1 0x20 ADD PUSH1 0x40 MLOAD SWAP1 DUP2 ADD PUSH1 0x40 MSTORE DUP1 SWAP3 SWAP2 SWAP1 DUP2 DUP2 MSTORE PUSH1 0x20 ADD DUP3 DUP1 SLOAD DUP1 ISZERO PUSH2 0x606 JUMPI PUSH1 0x20 MUL DUP3 ADD SWAP2 SWAP1 PUSH1 0x0 MSTORE PUSH1 0x20 PUSH1 0x0 KECCAK256 SWAP1 JUMPDEST DUP2 PUSH1 0x0 SWAP1 SLOAD SWAP1 PUSH2 0x100 EXP SWAP1 DIV PUSH20 0xFFFFFFFFFFFFFFFFFFFFFFFFFFFFFFFFFFFFFFFF AND PUSH20 0xFFFFFFFFFFFFFFFFFFFFFFFFFFFFFFFFFFFFFFFF AND DUP2 MSTORE PUSH1 0x20 ADD SWAP1 PUSH1 0x1 ADD SWAP1 DUP1 DUP4 GT PUSH2 0x5BC JUMPI JUMPDEST POP POP POP POP POP SWAP2 POP POP SWAP1 JUMP JUMPDEST PUSH1 0x0 DUP1 PUSH1 0x0 DUP5 DUP2 MSTORE PUSH1 0x20 ADD SWAP1 DUP2 MSTORE PUSH1 0x20 ADD PUSH1 0x0 KECCAK256 PUSH1 0x0 ADD PUSH1 0x0 DUP4 PUSH20 0xFFFFFFFFFFFFFFFFFFFFFFFFFFFFFFFFFFFFFFFF AND PUSH20 0xFFFFFFFFFFFFFFFFFFFFFFFFFFFFFFFFFFFFFFFF AND DUP2 MSTORE PUSH1 0x20 ADD SWAP1 DUP2 MSTORE PUSH1 0x20 ADD PUSH1 0x0 KECCAK256 PUSH1 0x0 SWAP1 SLOAD SWAP1 PUSH2 0x100 EXP SWAP1 DIV PUSH1 0xFF AND SWAP1 POP SWAP3 SWAP2 POP POP JUMP JUMPDEST PUSH1 0x0 DUP1 SHL DUP2 JUMP JUMPDEST PUSH32 0x241ECF16D79D0F8DBFB92CBC07FE17840425976CF0667F022FE9877CAA831B08 PUSH2 0x6AC DUP2 PUSH2 0x84F JUMP JUMPDEST PUSH1 0x3 DUP3 SWAP1 DUP1 PUSH1 0x1 DUP2 SLOAD ADD DUP1 DUP3 SSTORE DUP1 SWAP2 POP POP PUSH1 0x1 SWAP1 SUB SWAP1 PUSH1 0x0 MSTORE PUSH1 0x20 PUSH1 0x0 KECCAK256 ADD PUSH1 0x0 SWAP1 SWAP2 SWAP1 SWAP2 SWAP1 SWAP2 PUSH2 0x100 EXP DUP2 SLOAD DUP2 PUSH20 0xFFFFFFFFFFFFFFFFFFFFFFFFFFFFFFFFFFFFFFFF MUL NOT AND SWAP1 DUP4 PUSH20 0xFFFFFFFFFFFFFFFFFFFFFFFFFFFFFFFFFFFFFFFF AND MUL OR SWAP1 SSTORE POP POP POP JUMP JUMPDEST PUSH2 0x71C DUP3 PUSH2 0x484 JUMP JUMPDEST PUSH2 0x725 DUP2 PUSH2 0x84F JUMP JUMPDEST PUSH2 0x72F DUP4 DUP4 PUSH2 0x94B JUMP JUMPDEST POP POP POP JUMP JUMPDEST PUSH32 0x241ECF16D79D0F8DBFB92CBC07FE17840425976CF0667F022FE9877CAA831B08 DUP2 JUMP JUMPDEST PUSH32 0xAF1DAC7DEA2FD7F7738119CEC7DF099DFAD49AA9D2E7D17BA6B60F63AE7411F DUP2 JUMP JUMPDEST PUSH1 0x0 PUSH32 0x1FFC9A700000000000000000000000000000000000000000000000000000000 PUSH28 0xFFFFFFFFFFFFFFFFFFFFFFFFFFFFFFFFFFFFFFFFFFFFFFFFFFFFFFFF NOT AND DUP3 PUSH28 0xFFFFFFFFFFFFFFFFFFFFFFFFFFFFFFFFFFFFFFFFFFFFFFFFFFFFFFFF NOT AND EQ SWAP1 POP SWAP2 SWAP1 POP JUMP JUMPDEST PUSH2 0x7F0 DUP3 DUP3 PUSH2 0x863 JUMP JUMPDEST POP POP JUMP JUMPDEST PUSH1 0x0 PUSH2 0x7FF DUP4 PUSH2 0x484 JUMP JUMPDEST SWAP1 POP DUP2 PUSH1 0x0 DUP1 DUP6 DUP2 MSTORE PUSH1 0x20 ADD SWAP1 DUP2 MSTORE PUSH1 0x20 ADD PUSH1 0x0 KECCAK256 PUSH1 0x1 ADD DUP2 SWAP1 SSTORE POP DUP2 DUP2 DUP5 PUSH32 0xBD79B86FFE0AB8E8776151514217CD7CACD52C909F66475C3AF44E129F0B00FF PUSH1 0x40 MLOAD PUSH1 0x40 MLOAD DUP1 SWAP2 SUB SWAP1 LOG4 POP POP POP JUMP JUMPDEST PUSH2 0x860 DUP2 PUSH2 0x85B PUSH2 0x943 JUMP JUMPDEST PUSH2 0xA2C JUMP JUMPDEST POP JUMP JUMPDEST PUSH2 0x86D DUP3 DUP3 PUSH2 0x611 JUMP JUMPDEST PUSH2 0x93F JUMPI PUSH1 0x1 PUSH1 0x0 DUP1 DUP5 DUP2 MSTORE PUSH1 0x20 ADD SWAP1 DUP2 MSTORE PUSH1 0x20 ADD PUSH1 0x0 KECCAK256 PUSH1 0x0 ADD PUSH1 0x0 DUP4 PUSH20 0xFFFFFFFFFFFFFFFFFFFFFFFFFFFFFFFFFFFFFFFF AND PUSH20 0xFFFFFFFFFFFFFFFFFFFFFFFFFFFFFFFFFFFFFFFF AND DUP2 MSTORE PUSH1 0x20 ADD SWAP1 DUP2 MSTORE PUSH1 0x20 ADD PUSH1 0x0 KECCAK256 PUSH1 0x0 PUSH2 0x100 EXP DUP2 SLOAD DUP2 PUSH1 0xFF MUL NOT AND SWAP1 DUP4 ISZERO ISZERO MUL OR SWAP1 SSTORE POP PUSH2 0x8E4 PUSH2 0x943 JUMP JUMPDEST PUSH20 0xFFFFFFFFFFFFFFFFFFFFFFFFFFFFFFFFFFFFFFFF AND DUP2 PUSH20 0xFFFFFFFFFFFFFFFFFFFFFFFFFFFFFFFFFFFFFFFF AND DUP4 PUSH32 0x2F8788117E7EFF1D82E926EC794901D17C78024A50270940304540A733656F0D PUSH1 0x40 MLOAD PUSH1 0x40 MLOAD DUP1 SWAP2 SUB SWAP1 LOG4 JUMPDEST POP POP JUMP JUMPDEST PUSH1 0x0 CALLER SWAP1 POP SWAP1 JUMP JUMPDEST PUSH2 0x955 DUP3 DUP3 PUSH2 0x611 JUMP JUMPDEST ISZERO PUSH2 0xA28 JUMPI PUSH1 0x0 DUP1 PUSH1 0x0 DUP5 DUP2 MSTORE PUSH1 0x20 ADD SWAP1 DUP2 MSTORE PUSH1 0x20 ADD PUSH1 0x0 KECCAK256 PUSH1 0x0 ADD PUSH1 0x0 DUP4 PUSH20 0xFFFFFFFFFFFFFFFFFFFFFFFFFFFFFFFFFFFFFFFF AND PUSH20 0xFFFFFFFFFFFFFFFFFFFFFFFFFFFFFFFFFFFFFFFF AND DUP2 MSTORE PUSH1 0x20 ADD SWAP1 DUP2 MSTORE PUSH1 0x20 ADD PUSH1 0x0 KECCAK256 PUSH1 0x0 PUSH2 0x100 EXP DUP2 SLOAD DUP2 PUSH1 0xFF MUL NOT AND SWAP1 DUP4 ISZERO ISZERO MUL OR SWAP1 SSTORE POP PUSH2 0x9CD PUSH2 0x943 JUMP JUMPDEST PUSH20 0xFFFFFFFFFFFFFFFFFFFFFFFFFFFFFFFFFFFFFFFF AND DUP2 PUSH20 0xFFFFFFFFFFFFFFFFFFFFFFFFFFFFFFFFFFFFFFFF AND DUP4 PUSH32 0xF6391F5C32D9C69D2A47EA670B442974B53935D1EDC7FD64EB21E047A839171B PUSH1 0x40 MLOAD PUSH1 0x40 MLOAD DUP1 SWAP2 SUB SWAP1 LOG4 JUMPDEST POP POP JUMP JUMPDEST PUSH2 0xA36 DUP3 DUP3 PUSH2 0x611 JUMP JUMPDEST PUSH2 0xAC5 JUMPI PUSH2 0xA5B DUP2 PUSH20 0xFFFFFFFFFFFFFFFFFFFFFFFFFFFFFFFFFFFFFFFF AND PUSH1 0x14 PUSH2 0xAC9 JUMP JUMPDEST PUSH2 0xA69 DUP4 PUSH1 0x0 SHR PUSH1 0x20 PUSH2 0xAC9 JUMP JUMPDEST PUSH1 0x40 MLOAD PUSH1 0x20 ADD PUSH2 0xA7A SWAP3 SWAP2 SWAP1 PUSH2 0x1042 JUMP JUMPDEST PUSH1 0x40 MLOAD PUSH1 0x20 DUP2 DUP4 SUB SUB DUP2 MSTORE SWAP1 PUSH1 0x40 MSTORE PUSH1 0x40 MLOAD PUSH32 0x8C379A000000000000000000000000000000000000000000000000000000000 DUP2 MSTORE PUSH1 0x4 ADD PUSH2 0xABC SWAP2 SWAP1 PUSH2 0x10FD JUMP JUMPDEST PUSH1 0x40 MLOAD DUP1 SWAP2 SUB SWAP1 REVERT JUMPDEST POP POP JUMP JUMPDEST PUSH1 0x60 PUSH1 0x0 PUSH1 0x2 DUP4 PUSH1 0x2 PUSH2 0xADC SWAP2 SWAP1 PUSH2 0x1235 JUMP JUMPDEST PUSH2 0xAE6 SWAP2 SWAP1 PUSH2 0x11DF JUMP JUMPDEST PUSH8 0xFFFFFFFFFFFFFFFF DUP2 GT ISZERO PUSH2 0xAFF JUMPI PUSH2 0xAFE PUSH2 0x13C8 JUMP JUMPDEST JUMPDEST PUSH1 0x40 MLOAD SWAP1 DUP1 DUP3 MSTORE DUP1 PUSH1 0x1F ADD PUSH1 0x1F NOT AND PUSH1 0x20 ADD DUP3 ADD PUSH1 0x40 MSTORE DUP1 ISZERO PUSH2 0xB31 JUMPI DUP2 PUSH1 0x20 ADD PUSH1 0x1 DUP3 MUL DUP1 CALLDATASIZE DUP4 CALLDATACOPY DUP1 DUP3 ADD SWAP2 POP POP SWAP1 POP JUMPDEST POP SWAP1 POP PUSH32 0x3000000000000000000000000000000000000000000000000000000000000000 DUP2 PUSH1 0x0 DUP2 MLOAD DUP2 LT PUSH2 0xB69 JUMPI PUSH2 0xB68 PUSH2 0x1399 JUMP JUMPDEST JUMPDEST PUSH1 0x20 ADD ADD SWAP1 PUSH31 0xFFFFFFFFFFFFFFFFFFFFFFFFFFFFFFFFFFFFFFFFFFFFFFFFFFFFFFFFFFFFFF NOT AND SWAP1 DUP2 PUSH1 0x0 BYTE SWAP1 MSTORE8 POP PUSH32 0x7800000000000000000000000000000000000000000000000000000000000000 DUP2 PUSH1 0x1 DUP2 MLOAD DUP2 LT PUSH2 0xBCD JUMPI PUSH2 0xBCC PUSH2 0x1399 JUMP JUMPDEST JUMPDEST PUSH1 0x20 ADD ADD SWAP1 PUSH31 0xFFFFFFFFFFFFFFFFFFFFFFFFFFFFFFFFFFFFFFFFFFFFFFFFFFFFFFFFFFFFFF NOT AND SWAP1 DUP2 PUSH1 0x0 BYTE SWAP1 MSTORE8 POP PUSH1 0x0 PUSH1 0x1 DUP5 PUSH1 0x2 PUSH2 0xC0D SWAP2 SWAP1 PUSH2 0x1235 JUMP JUMPDEST PUSH2 0xC17 SWAP2 SWAP1 PUSH2 0x11DF JUMP JUMPDEST SWAP1 POP JUMPDEST PUSH1 0x1 DUP2 GT ISZERO PUSH2 0xCB7 JUMPI PUSH32 0x3031323334353637383961626364656600000000000000000000000000000000 PUSH1 0xF DUP7 AND PUSH1 0x10 DUP2 LT PUSH2 0xC59 JUMPI PUSH2 0xC58 PUSH2 0x1399 JUMP JUMPDEST JUMPDEST BYTE PUSH1 0xF8 SHL DUP3 DUP3 DUP2 MLOAD DUP2 LT PUSH2 0xC70 JUMPI PUSH2 0xC6F PUSH2 0x1399 JUMP JUMPDEST JUMPDEST PUSH1 0x20 ADD ADD SWAP1 PUSH31 0xFFFFFFFFFFFFFFFFFFFFFFFFFFFFFFFFFFFFFFFFFFFFFFFFFFFFFFFFFFFFFF NOT AND SWAP1 DUP2 PUSH1 0x0 BYTE SWAP1 MSTORE8 POP PUSH1 0x4 DUP6 SWAP1 SHR SWAP5 POP DUP1 PUSH2 0xCB0 SWAP1 PUSH2 0x1340 JUMP JUMPDEST SWAP1 POP PUSH2 0xC1A JUMP JUMPDEST POP PUSH1 0x0 DUP5 EQ PUSH2 0xCFB JUMPI PUSH1 0x40 MLOAD PUSH32 0x8C379A000000000000000000000000000000000000000000000000000000000 DUP2 MSTORE PUSH1 0x4 ADD PUSH2 0xCF2 SWAP1 PUSH2 0x111F JUMP JUMPDEST PUSH1 0x40 MLOAD DUP1 SWAP2 SUB SWAP1 REVERT JUMPDEST DUP1 SWAP2 POP POP SWAP3 SWAP2 POP POP JUMP JUMPDEST PUSH1 0x0 DUP2 CALLDATALOAD SWAP1 POP PUSH2 0xD14 DUP2 PUSH2 0x1500 JUMP JUMPDEST SWAP3 SWAP2 POP POP JUMP JUMPDEST PUSH1 0x0 DUP2 CALLDATALOAD SWAP1 POP PUSH2 0xD29 DUP2 PUSH2 0x1517 JUMP JUMPDEST SWAP3 SWAP2 POP POP JUMP JUMPDEST PUSH1 0x0 DUP2 CALLDATALOAD SWAP1 POP PUSH2 0xD3E DUP2 PUSH2 0x152E JUMP JUMPDEST SWAP3 SWAP2 POP POP JUMP JUMPDEST PUSH1 0x0 PUSH1 0x20 DUP3 DUP5 SUB SLT ISZERO PUSH2 0xD5A JUMPI PUSH2 0xD59 PUSH2 0x13F7 JUMP JUMPDEST JUMPDEST PUSH1 0x0 PUSH2 0xD68 DUP5 DUP3 DUP6 ADD PUSH2 0xD05 JUMP JUMPDEST SWAP2 POP POP SWAP3 SWAP2 POP POP JUMP JUMPDEST PUSH1 0x0 DUP1 PUSH1 0x0 DUP1 PUSH1 0x0 PUSH1 0xA0 DUP7 DUP9 SUB SLT ISZERO PUSH2 0xD8D JUMPI PUSH2 0xD8C PUSH2 0x13F7 JUMP JUMPDEST JUMPDEST PUSH1 0x0 PUSH2 0xD9B DUP9 DUP3 DUP10 ADD PUSH2 0xD05 JUMP JUMPDEST SWAP6 POP POP PUSH1 0x20 PUSH2 0xDAC DUP9 DUP3 DUP10 ADD PUSH2 0xD05 JUMP JUMPDEST SWAP5 POP POP PUSH1 0x40 PUSH2 0xDBD DUP9 DUP3 DUP10 ADD PUSH2 0xD05 JUMP JUMPDEST SWAP4 POP POP PUSH1 0x60 PUSH2 0xDCE DUP9 DUP3 DUP10 ADD PUSH2 0xD1A JUMP JUMPDEST SWAP3 POP POP PUSH1 0x80 PUSH2 0xDDF DUP9 DUP3 DUP10 ADD PUSH2 0xD1A JUMP JUMPDEST SWAP2 POP POP SWAP3 SWAP6 POP SWAP3 SWAP6 SWAP1 SWAP4 POP JUMP JUMPDEST PUSH1 0x0 PUSH1 0x20 DUP3 DUP5 SUB SLT ISZERO PUSH2 0xE02 JUMPI PUSH2 0xE01 PUSH2 0x13F7 JUMP JUMPDEST JUMPDEST PUSH1 0x0 PUSH2 0xE10 DUP5 DUP3 DUP6 ADD PUSH2 0xD1A JUMP JUMPDEST SWAP2 POP POP SWAP3 SWAP2 POP POP JUMP JUMPDEST PUSH1 0x0 DUP1 PUSH1 0x40 DUP4 DUP6 SUB SLT ISZERO PUSH2 0xE30 JUMPI PUSH2 0xE2F PUSH2 0x13F7 JUMP JUMPDEST JUMPDEST PUSH1 0x0 PUSH2 0xE3E DUP6 DUP3 DUP7 ADD PUSH2 0xD1A JUMP JUMPDEST SWAP3 POP POP PUSH1 0x20 PUSH2 0xE4F DUP6 DUP3 DUP7 ADD PUSH2 0xD05 JUMP JUMPDEST SWAP2 POP POP SWAP3 POP SWAP3 SWAP1 POP JUMP JUMPDEST PUSH1 0x0 PUSH1 0x20 DUP3 DUP5 SUB SLT ISZERO PUSH2 0xE6F JUMPI PUSH2 0xE6E PUSH2 0x13F7 JUMP JUMPDEST JUMPDEST PUSH1 0x0 PUSH2 0xE7D DUP5 DUP3 DUP6 ADD PUSH2 0xD2F JUMP JUMPDEST SWAP2 POP POP SWAP3 SWAP2 POP POP JUMP JUMPDEST PUSH1 0x0 PUSH2 0xE92 DUP4 DUP4 PUSH2 0xE9E JUMP JUMPDEST PUSH1 0x20 DUP4 ADD SWAP1 POP SWAP3 SWAP2 POP POP JUMP JUMPDEST PUSH2 0xEA7 DUP2 PUSH2 0x128F JUMP JUMPDEST DUP3 MSTORE POP POP JUMP JUMPDEST PUSH1 0x0 PUSH2 0xEB8 DUP3 PUSH2 0x118F JUMP JUMPDEST PUSH2 0xEC2 DUP2 DUP6 PUSH2 0x11B2 JUMP JUMPDEST SWAP4 POP PUSH2 0xECD DUP4 PUSH2 0x117F JUMP JUMPDEST DUP1 PUSH1 0x0 JUMPDEST DUP4 DUP2 LT ISZERO PUSH2 0xEFE JUMPI DUP2 MLOAD PUSH2 0xEE5 DUP9 DUP3 PUSH2 0xE86 JUMP JUMPDEST SWAP8 POP PUSH2 0xEF0 DUP4 PUSH2 0x11A5 JUMP JUMPDEST SWAP3 POP POP PUSH1 0x1 DUP2 ADD SWAP1 POP PUSH2 0xED1 JUMP JUMPDEST POP DUP6 SWAP4 POP POP POP POP SWAP3 SWAP2 POP POP JUMP JUMPDEST PUSH2 0xF14 DUP2 PUSH2 0x12A1 JUMP JUMPDEST DUP3 MSTORE POP POP JUMP JUMPDEST PUSH2 0xF23 DUP2 PUSH2 0x12AD JUMP JUMPDEST DUP3 MSTORE POP POP JUMP JUMPDEST PUSH1 0x0 PUSH2 0xF34 DUP3 PUSH2 0x119A JUMP JUMPDEST PUSH2 0xF3E DUP2 DUP6 PUSH2 0x11C3 JUMP JUMPDEST SWAP4 POP PUSH2 0xF4E DUP2 DUP6 PUSH1 0x20 DUP7 ADD PUSH2 0x130D JUMP JUMPDEST PUSH2 0xF57 DUP2 PUSH2 0x13FC JUMP JUMPDEST DUP5 ADD SWAP2 POP POP SWAP3 SWAP2 POP POP JUMP JUMPDEST PUSH1 0x0 PUSH2 0xF6D DUP3 PUSH2 0x119A JUMP JUMPDEST PUSH2 0xF77 DUP2 DUP6 PUSH2 0x11D4 JUMP JUMPDEST SWAP4 POP PUSH2 0xF87 DUP2 DUP6 PUSH1 0x20 DUP7 ADD PUSH2 0x130D JUMP JUMPDEST DUP1 DUP5 ADD SWAP2 POP POP SWAP3 SWAP2 POP POP JUMP JUMPDEST PUSH1 0x0 PUSH2 0xFA0 PUSH1 0x20 DUP4 PUSH2 0x11C3 JUMP JUMPDEST SWAP2 POP PUSH2 0xFAB DUP3 PUSH2 0x140D JUMP JUMPDEST PUSH1 0x20 DUP3 ADD SWAP1 POP SWAP2 SWAP1 POP JUMP JUMPDEST PUSH1 0x0 PUSH2 0xFC3 PUSH1 0x13 DUP4 PUSH2 0x11C3 JUMP JUMPDEST SWAP2 POP PUSH2 0xFCE DUP3 PUSH2 0x1436 JUMP JUMPDEST PUSH1 0x20 DUP3 ADD SWAP1 POP SWAP2 SWAP1 POP JUMP JUMPDEST PUSH1 0x0 PUSH2 0xFE6 PUSH1 0x17 DUP4 PUSH2 0x11D4 JUMP JUMPDEST SWAP2 POP PUSH2 0xFF1 DUP3 PUSH2 0x145F JUMP JUMPDEST PUSH1 0x17 DUP3 ADD SWAP1 POP SWAP2 SWAP1 POP JUMP JUMPDEST PUSH1 0x0 PUSH2 0x1009 PUSH1 0x11 DUP4 PUSH2 0x11D4 JUMP JUMPDEST SWAP2 POP PUSH2 0x1014 DUP3 PUSH2 0x1488 JUMP JUMPDEST PUSH1 0x11 DUP3 ADD SWAP1 POP SWAP2 SWAP1 POP JUMP JUMPDEST PUSH1 0x0 PUSH2 0x102C PUSH1 0x2F DUP4 PUSH2 0x11C3 JUMP JUMPDEST SWAP2 POP PUSH2 0x1037 DUP3 PUSH2 0x14B1 JUMP JUMPDEST PUSH1 0x40 DUP3 ADD SWAP1 POP SWAP2 SWAP1 POP JUMP JUMPDEST PUSH1 0x0 PUSH2 0x104D DUP3 PUSH2 0xFD9 JUMP JUMPDEST SWAP2 POP PUSH2 0x1059 DUP3 DUP6 PUSH2 0xF62 JUMP JUMPDEST SWAP2 POP PUSH2 0x1064 DUP3 PUSH2 0xFFC JUMP JUMPDEST SWAP2 POP PUSH2 0x1070 DUP3 DUP5 PUSH2 0xF62 JUMP JUMPDEST SWAP2 POP DUP2 SWAP1 POP SWAP4 SWAP3 POP POP POP JUMP JUMPDEST PUSH1 0x0 PUSH1 0x20 DUP3 ADD SWAP1 POP DUP2 DUP2 SUB PUSH1 0x0 DUP4 ADD MSTORE PUSH2 0x1096 DUP2 DUP5 PUSH2 0xEAD JUMP JUMPDEST SWAP1 POP SWAP3 SWAP2 POP POP JUMP JUMPDEST PUSH1 0x0 PUSH1 0x20 DUP3 ADD SWAP1 POP PUSH2 0x10B3 PUSH1 0x0 DUP4 ADD DUP5 PUSH2 0xF0B JUMP JUMPDEST SWAP3 SWAP2 POP POP JUMP JUMPDEST PUSH1 0x0 PUSH1 0x20 DUP3 ADD SWAP1 POP PUSH2 0x10CE PUSH1 0x0 DUP4 ADD DUP5 PUSH2 0xF1A JUMP JUMPDEST SWAP3 SWAP2 POP POP JUMP JUMPDEST PUSH1 0x0 PUSH1 0x40 DUP3 ADD SWAP1 POP PUSH2 0x10E9 PUSH1 0x0 DUP4 ADD DUP6 PUSH2 0xF1A JUMP JUMPDEST PUSH2 0x10F6 PUSH1 0x20 DUP4 ADD DUP5 PUSH2 0xF1A JUMP JUMPDEST SWAP4 SWAP3 POP POP POP JUMP JUMPDEST PUSH1 0x0 PUSH1 0x20 DUP3 ADD SWAP1 POP DUP2 DUP2 SUB PUSH1 0x0 DUP4 ADD MSTORE PUSH2 0x1117 DUP2 DUP5 PUSH2 0xF29 JUMP JUMPDEST SWAP1 POP SWAP3 SWAP2 POP POP JUMP JUMPDEST PUSH1 0x0 PUSH1 0x20 DUP3 ADD SWAP1 POP DUP2 DUP2 SUB PUSH1 0x0 DUP4 ADD MSTORE PUSH2 0x1138 DUP2 PUSH2 0xF93 JUMP JUMPDEST SWAP1 POP SWAP2 SWAP1 POP JUMP JUMPDEST PUSH1 0x0 PUSH1 0x20 DUP3 ADD SWAP1 POP DUP2 DUP2 SUB PUSH1 0x0 DUP4 ADD MSTORE PUSH2 0x1158 DUP2 PUSH2 0xFB6 JUMP JUMPDEST SWAP1 POP SWAP2 SWAP1 POP JUMP JUMPDEST PUSH1 0x0 PUSH1 0x20 DUP3 ADD SWAP1 POP DUP2 DUP2 SUB PUSH1 0x0 DUP4 ADD MSTORE PUSH2 0x1178 DUP2 PUSH2 0x101F JUMP JUMPDEST SWAP1 POP SWAP2 SWAP1 POP JUMP JUMPDEST PUSH1 0x0 DUP2 SWAP1 POP PUSH1 0x20 DUP3 ADD SWAP1 POP SWAP2 SWAP1 POP JUMP JUMPDEST PUSH1 0x0 DUP2 MLOAD SWAP1 POP SWAP2 SWAP1 POP JUMP JUMPDEST PUSH1 0x0 DUP2 MLOAD SWAP1 POP SWAP2 SWAP1 POP JUMP JUMPDEST PUSH1 0x0 PUSH1 0x20 DUP3 ADD SWAP1 POP SWAP2 SWAP1 POP JUMP JUMPDEST PUSH1 0x0 DUP3 DUP3 MSTORE PUSH1 0x20 DUP3 ADD SWAP1 POP SWAP3 SWAP2 POP POP JUMP JUMPDEST PUSH1 0x0 DUP3 DUP3 MSTORE PUSH1 0x20 DUP3 ADD SWAP1 POP SWAP3 SWAP2 POP POP JUMP JUMPDEST PUSH1 0x0 DUP2 SWAP1 POP SWAP3 SWAP2 POP POP JUMP JUMPDEST PUSH1 0x0 PUSH2 0x11EA DUP3 PUSH2 0x1303 JUMP JUMPDEST SWAP2 POP PUSH2 0x11F5 DUP4 PUSH2 0x1303 JUMP JUMPDEST SWAP3 POP DUP3 PUSH32 0xFFFFFFFFFFFFFFFFFFFFFFFFFFFFFFFFFFFFFFFFFFFFFFFFFFFFFFFFFFFFFFFF SUB DUP3 GT ISZERO PUSH2 0x122A JUMPI PUSH2 0x1229 PUSH2 0x136A JUMP JUMPDEST JUMPDEST DUP3 DUP3 ADD SWAP1 POP SWAP3 SWAP2 POP POP JUMP JUMPDEST PUSH1 0x0 PUSH2 0x1240 DUP3 PUSH2 0x1303 JUMP JUMPDEST SWAP2 POP PUSH2 0x124B DUP4 PUSH2 0x1303 JUMP JUMPDEST SWAP3 POP DUP2 PUSH32 0xFFFFFFFFFFFFFFFFFFFFFFFFFFFFFFFFFFFFFFFFFFFFFFFFFFFFFFFFFFFFFFFF DIV DUP4 GT DUP3 ISZERO ISZERO AND ISZERO PUSH2 0x1284 JUMPI PUSH2 0x1283 PUSH2 0x136A JUMP JUMPDEST JUMPDEST DUP3 DUP3 MUL SWAP1 POP SWAP3 SWAP2 POP POP JUMP JUMPDEST PUSH1 0x0 PUSH2 0x129A DUP3 PUSH2 0x12E3 JUMP JUMPDEST SWAP1 POP SWAP2 SWAP1 POP JUMP JUMPDEST PUSH1 0x0 DUP2 ISZERO ISZERO SWAP1 POP SWAP2 SWAP1 POP JUMP JUMPDEST PUSH1 0x0 DUP2 SWAP1 POP SWAP2 SWAP1 POP JUMP JUMPDEST PUSH1 0x0 PUSH32 0xFFFFFFFF00000000000000000000000000000000000000000000000000000000 DUP3 AND SWAP1 POP SWAP2 SWAP1 POP JUMP JUMPDEST PUSH1 0x0 PUSH20 0xFFFFFFFFFFFFFFFFFFFFFFFFFFFFFFFFFFFFFFFF DUP3 AND SWAP1 POP SWAP2 SWAP1 POP JUMP JUMPDEST PUSH1 0x0 DUP2 SWAP1 POP SWAP2 SWAP1 POP JUMP JUMPDEST PUSH1 0x0 JUMPDEST DUP4 DUP2 LT ISZERO PUSH2 0x132B JUMPI DUP1 DUP3 ADD MLOAD DUP2 DUP5 ADD MSTORE PUSH1 0x20 DUP2 ADD SWAP1 POP PUSH2 0x1310 JUMP JUMPDEST DUP4 DUP2 GT ISZERO PUSH2 0x133A JUMPI PUSH1 0x0 DUP5 DUP5 ADD MSTORE JUMPDEST POP POP POP POP JUMP JUMPDEST PUSH1 0x0 PUSH2 0x134B DUP3 PUSH2 0x1303 JUMP JUMPDEST SWAP2 POP PUSH1 0x0 DUP3 EQ ISZERO PUSH2 0x135F JUMPI PUSH2 0x135E PUSH2 0x136A JUMP JUMPDEST JUMPDEST PUSH1 0x1 DUP3 SUB SWAP1 POP SWAP2 SWAP1 POP JUMP JUMPDEST PUSH32 0x4E487B7100000000000000000000000000000000000000000000000000000000 PUSH1 0x0 MSTORE PUSH1 0x11 PUSH1 0x4 MSTORE PUSH1 0x24 PUSH1 0x0 REVERT JUMPDEST PUSH32 0x4E487B7100000000000000000000000000000000000000000000000000000000 PUSH1 0x0 MSTORE PUSH1 0x32 PUSH1 0x4 MSTORE PUSH1 0x24 PUSH1 0x0 REVERT JUMPDEST PUSH32 0x4E487B7100000000000000000000000000000000000000000000000000000000 PUSH1 0x0 MSTORE PUSH1 0x41 PUSH1 0x4 MSTORE PUSH1 0x24 PUSH1 0x0 REVERT JUMPDEST PUSH1 0x0 DUP1 REVERT JUMPDEST PUSH1 0x0 PUSH1 0x1F NOT PUSH1 0x1F DUP4 ADD AND SWAP1 POP SWAP2 SWAP1 POP JUMP JUMPDEST PUSH32 0x537472696E67733A20686578206C656E67746820696E73756666696369656E74 PUSH1 0x0 DUP3 ADD MSTORE POP JUMP JUMPDEST PUSH32 0x416C726561647920696E697469616C697A656400000000000000000000000000 PUSH1 0x0 DUP3 ADD MSTORE POP JUMP JUMPDEST PUSH32 0x416363657373436F6E74726F6C3A206163636F756E7420000000000000000000 PUSH1 0x0 DUP3 ADD MSTORE POP JUMP JUMPDEST PUSH32 0x206973206D697373696E6720726F6C6520000000000000000000000000000000 PUSH1 0x0 DUP3 ADD MSTORE POP JUMP JUMPDEST PUSH32 0x416363657373436F6E74726F6C3A2063616E206F6E6C792072656E6F756E6365 PUSH1 0x0 DUP3 ADD MSTORE PUSH32 0x20726F6C657320666F722073656C660000000000000000000000000000000000 PUSH1 0x20 DUP3 ADD MSTORE POP JUMP JUMPDEST PUSH2 0x1509 DUP2 PUSH2 0x128F JUMP JUMPDEST DUP2 EQ PUSH2 0x1514 JUMPI PUSH1 0x0 DUP1 REVERT JUMPDEST POP JUMP JUMPDEST PUSH2 0x1520 DUP2 PUSH2 0x12AD JUMP JUMPDEST DUP2 EQ PUSH2 0x152B JUMPI PUSH1 0x0 DUP1 REVERT JUMPDEST POP JUMP JUMPDEST PUSH2 0x1537 DUP2 PUSH2 0x12B7 JUMP JUMPDEST DUP2 EQ PUSH2 0x1542 JUMPI PUSH1 0x0 DUP1 REVERT JUMPDEST POP JUMP INVALID LOG2 PUSH5 0x6970667358 0x22 SLT KECCAK256 0x49 0xE SWAP11 LOG3 GASPRICE LOG4 STATICCALL DUP13 0xE2 SWAP10 SELFDESTRUCT 0xC6 0xB5 0x4F 0x26 CREATE LOG1 AND 0xD8 MUL 0x1E PUSH21 0x21385340B059F385809664736F6C63430008060033 PUSH1 0xA0 PUSH1 0x40 MSTORE CALLVALUE DUP1 ISZERO PUSH2 0x10 JUMPI PUSH1 0x0 DUP1 REVERT JUMPDEST POP PUSH2 0x2D PUSH2 0x22 PUSH2 0x91 PUSH1 0x20 SHL PUSH1 0x20 SHR JUMP JUMPDEST PUSH2 0x99 PUSH1 0x20 SHL PUSH1 0x20 SHR JUMP JUMPDEST PUSH1 0x40 MLOAD PUSH2 0x39 SWAP1 PUSH2 0x15D JUMP JUMPDEST PUSH1 0x40 MLOAD DUP1 SWAP2 SUB SWAP1 PUSH1 0x0 CREATE DUP1 ISZERO DUP1 ISZERO PUSH2 0x55 JUMPI RETURNDATASIZE PUSH1 0x0 DUP1 RETURNDATACOPY RETURNDATASIZE PUSH1 0x0 REVERT JUMPDEST POP PUSH20 0xFFFFFFFFFFFFFFFFFFFFFFFFFFFFFFFFFFFFFFFF AND PUSH1 0x80 DUP2 PUSH20 0xFFFFFFFFFFFFFFFFFFFFFFFFFFFFFFFFFFFFFFFF AND PUSH1 0x60 SHL DUP2 MSTORE POP POP PUSH2 0x16A JUMP JUMPDEST PUSH1 0x0 CALLER SWAP1 POP SWAP1 JUMP JUMPDEST PUSH1 0x0 DUP1 PUSH1 0x0 SWAP1 SLOAD SWAP1 PUSH2 0x100 EXP SWAP1 DIV PUSH20 0xFFFFFFFFFFFFFFFFFFFFFFFFFFFFFFFFFFFFFFFF AND SWAP1 POP DUP2 PUSH1 0x0 DUP1 PUSH2 0x100 EXP DUP2 SLOAD DUP2 PUSH20 0xFFFFFFFFFFFFFFFFFFFFFFFFFFFFFFFFFFFFFFFF MUL NOT AND SWAP1 DUP4 PUSH20 0xFFFFFFFFFFFFFFFFFFFFFFFFFFFFFFFFFFFFFFFF AND MUL OR SWAP1 SSTORE POP DUP2 PUSH20 0xFFFFFFFFFFFFFFFFFFFFFFFFFFFFFFFFFFFFFFFF AND DUP2 PUSH20 0xFFFFFFFFFFFFFFFFFFFFFFFFFFFFFFFFFFFFFFFF AND PUSH32 0x8BE0079C531659141344CD1FD0A4F28419497F9722A3DAAFE3B4186F6B6457E0 PUSH1 0x40 MLOAD PUSH1 0x40 MLOAD DUP1 SWAP2 SUB SWAP1 LOG3 POP POP JUMP JUMPDEST PUSH2 0x3ADD DUP1 PUSH2 0x10C5 DUP4 CODECOPY ADD SWAP1 JUMP JUMPDEST PUSH1 0x80 MLOAD PUSH1 0x60 SHR PUSH2 0xF3D PUSH2 0x188 PUSH1 0x0 CODECOPY PUSH1 0x0 PUSH2 0x111 ADD MSTORE PUSH2 0xF3D PUSH1 0x0 RETURN INVALID PUSH1 0x80 PUSH1 0x40 MSTORE CALLVALUE DUP1 ISZERO PUSH2 0x10 JUMPI PUSH1 0x0 DUP1 REVERT JUMPDEST POP PUSH1 0x4 CALLDATASIZE LT PUSH2 0x4C JUMPI PUSH1 0x0 CALLDATALOAD PUSH1 0xE0 SHR DUP1 PUSH4 0x715018A6 EQ PUSH2 0x51 JUMPI DUP1 PUSH4 0x8DA5CB5B EQ PUSH2 0x5B JUMPI DUP1 PUSH4 0xB4A9EBF3 EQ PUSH2 0x79 JUMPI DUP1 PUSH4 0xF2FDE38B EQ PUSH2 0xA9 JUMPI JUMPDEST PUSH1 0x0 DUP1 REVERT JUMPDEST PUSH2 0x59 PUSH2 0xC5 JUMP JUMPDEST STOP JUMPDEST PUSH2 0x63 PUSH2 0xD9 JUMP JUMPDEST PUSH1 0x40 MLOAD PUSH2 0x70 SWAP2 SWAP1 PUSH2 0xAD8 JUMP JUMPDEST PUSH1 0x40 MLOAD DUP1 SWAP2 SUB SWAP1 RETURN JUMPDEST PUSH2 0x93 PUSH1 0x4 DUP1 CALLDATASIZE SUB DUP2 ADD SWAP1 PUSH2 0x8E SWAP2 SWAP1 PUSH2 0x802 JUMP JUMPDEST PUSH2 0x102 JUMP JUMPDEST PUSH1 0x40 MLOAD PUSH2 0xA0 SWAP2 SWAP1 PUSH2 0xAD8 JUMP JUMPDEST PUSH1 0x40 MLOAD DUP1 SWAP2 SUB SWAP1 RETURN JUMPDEST PUSH2 0xC3 PUSH1 0x4 DUP1 CALLDATASIZE SUB DUP2 ADD SWAP1 PUSH2 0xBE SWAP2 SWAP1 PUSH2 0x7D5 JUMP JUMPDEST PUSH2 0x249 JUMP JUMPDEST STOP JUMPDEST PUSH2 0xCD PUSH2 0x2CD JUMP JUMPDEST PUSH2 0xD7 PUSH1 0x0 PUSH2 0x34B JUMP JUMPDEST JUMP JUMPDEST PUSH1 0x0 DUP1 PUSH1 0x0 SWAP1 SLOAD SWAP1 PUSH2 0x100 EXP SWAP1 DIV PUSH20 0xFFFFFFFFFFFFFFFFFFFFFFFFFFFFFFFFFFFFFFFF AND SWAP1 POP SWAP1 JUMP JUMPDEST PUSH1 0x0 PUSH2 0x10C PUSH2 0x2CD JUMP JUMPDEST PUSH2 0x135 PUSH32 0x0 PUSH2 0x40F JUMP JUMPDEST SWAP1 POP DUP2 PUSH1 0x0 ADD MLOAD ISZERO PUSH2 0x1C3 JUMPI DUP1 PUSH20 0xFFFFFFFFFFFFFFFFFFFFFFFFFFFFFFFFFFFFFFFF AND PUSH4 0x16FAC09C CALLER DUP11 DUP6 PUSH1 0x20 ADD MLOAD DUP12 DUP12 DUP12 DUP12 DUP12 PUSH1 0x40 MLOAD DUP10 PUSH4 0xFFFFFFFF AND PUSH1 0xE0 SHL DUP2 MSTORE PUSH1 0x4 ADD PUSH2 0x18C SWAP9 SWAP8 SWAP7 SWAP6 SWAP5 SWAP4 SWAP3 SWAP2 SWAP1 PUSH2 0xAF3 JUMP JUMPDEST PUSH1 0x0 PUSH1 0x40 MLOAD DUP1 DUP4 SUB DUP2 PUSH1 0x0 DUP8 DUP1 EXTCODESIZE ISZERO DUP1 ISZERO PUSH2 0x1A6 JUMPI PUSH1 0x0 DUP1 REVERT JUMPDEST POP GAS CALL ISZERO DUP1 ISZERO PUSH2 0x1BA JUMPI RETURNDATASIZE PUSH1 0x0 DUP1 RETURNDATACOPY RETURNDATASIZE PUSH1 0x0 REVERT JUMPDEST POP POP POP POP PUSH2 0x23E JUMP JUMPDEST DUP1 PUSH20 0xFFFFFFFFFFFFFFFFFFFFFFFFFFFFFFFFFFFFFFFF AND PUSH4 0x16FAC09C CALLER DUP11 PUSH1 0x0 DUP12 DUP12 DUP12 DUP12 DUP12 PUSH1 0x40 MLOAD DUP10 PUSH4 0xFFFFFFFF AND PUSH1 0xE0 SHL DUP2 MSTORE PUSH1 0x4 ADD PUSH2 0x20B SWAP9 SWAP8 SWAP7 SWAP6 SWAP5 SWAP4 SWAP3 SWAP2 SWAP1 PUSH2 0xAF3 JUMP JUMPDEST PUSH1 0x0 PUSH1 0x40 MLOAD DUP1 DUP4 SUB DUP2 PUSH1 0x0 DUP8 DUP1 EXTCODESIZE ISZERO DUP1 ISZERO PUSH2 0x225 JUMPI PUSH1 0x0 DUP1 REVERT JUMPDEST POP GAS CALL ISZERO DUP1 ISZERO PUSH2 0x239 JUMPI RETURNDATASIZE PUSH1 0x0 DUP1 RETURNDATACOPY RETURNDATASIZE PUSH1 0x0 REVERT JUMPDEST POP POP POP POP JUMPDEST SWAP8 SWAP7 POP POP POP POP POP POP POP JUMP JUMPDEST PUSH2 0x251 PUSH2 0x2CD JUMP JUMPDEST PUSH1 0x0 PUSH20 0xFFFFFFFFFFFFFFFFFFFFFFFFFFFFFFFFFFFFFFFF AND DUP2 PUSH20 0xFFFFFFFFFFFFFFFFFFFFFFFFFFFFFFFFFFFFFFFF AND EQ ISZERO PUSH2 0x2C1 JUMPI PUSH1 0x40 MLOAD PUSH32 0x8C379A000000000000000000000000000000000000000000000000000000000 DUP2 MSTORE PUSH1 0x4 ADD PUSH2 0x2B8 SWAP1 PUSH2 0xB7A JUMP JUMPDEST PUSH1 0x40 MLOAD DUP1 SWAP2 SUB SWAP1 REVERT JUMPDEST PUSH2 0x2CA DUP2 PUSH2 0x34B JUMP JUMPDEST POP JUMP JUMPDEST PUSH2 0x2D5 PUSH2 0x4E4 JUMP JUMPDEST PUSH20 0xFFFFFFFFFFFFFFFFFFFFFFFFFFFFFFFFFFFFFFFF AND PUSH2 0x2F3 PUSH2 0xD9 JUMP JUMPDEST PUSH20 0xFFFFFFFFFFFFFFFFFFFFFFFFFFFFFFFFFFFFFFFF AND EQ PUSH2 0x349 JUMPI PUSH1 0x40 MLOAD PUSH32 0x8C379A000000000000000000000000000000000000000000000000000000000 DUP2 MSTORE PUSH1 0x4 ADD PUSH2 0x340 SWAP1 PUSH2 0xBBA JUMP JUMPDEST PUSH1 0x40 MLOAD DUP1 SWAP2 SUB SWAP1 REVERT JUMPDEST JUMP JUMPDEST PUSH1 0x0 DUP1 PUSH1 0x0 SWAP1 SLOAD SWAP1 PUSH2 0x100 EXP SWAP1 DIV PUSH20 0xFFFFFFFFFFFFFFFFFFFFFFFFFFFFFFFFFFFFFFFF AND SWAP1 POP DUP2 PUSH1 0x0 DUP1 PUSH2 0x100 EXP DUP2 SLOAD DUP2 PUSH20 0xFFFFFFFFFFFFFFFFFFFFFFFFFFFFFFFFFFFFFFFF MUL NOT AND SWAP1 DUP4 PUSH20 0xFFFFFFFFFFFFFFFFFFFFFFFFFFFFFFFFFFFFFFFF AND MUL OR SWAP1 SSTORE POP DUP2 PUSH20 0xFFFFFFFFFFFFFFFFFFFFFFFFFFFFFFFFFFFFFFFF AND DUP2 PUSH20 0xFFFFFFFFFFFFFFFFFFFFFFFFFFFFFFFFFFFFFFFF AND PUSH32 0x8BE0079C531659141344CD1FD0A4F28419497F9722A3DAAFE3B4186F6B6457E0 PUSH1 0x40 MLOAD PUSH1 0x40 MLOAD DUP1 SWAP2 SUB SWAP1 LOG3 POP POP JUMP JUMPDEST PUSH1 0x0 PUSH1 0x40 MLOAD PUSH32 0x3D602D80600A3D3981F3363D3D373D3D3D363D73000000000000000000000000 DUP2 MSTORE DUP3 PUSH1 0x60 SHL PUSH1 0x14 DUP3 ADD MSTORE PUSH32 0x5AF43D82803E903D91602B57FD5BF30000000000000000000000000000000000 PUSH1 0x28 DUP3 ADD MSTORE PUSH1 0x37 DUP2 PUSH1 0x0 CREATE SWAP2 POP POP PUSH1 0x0 PUSH20 0xFFFFFFFFFFFFFFFFFFFFFFFFFFFFFFFFFFFFFFFF AND DUP2 PUSH20 0xFFFFFFFFFFFFFFFFFFFFFFFFFFFFFFFFFFFFFFFF AND EQ ISZERO PUSH2 0x4DF JUMPI PUSH1 0x40 MLOAD PUSH32 0x8C379A000000000000000000000000000000000000000000000000000000000 DUP2 MSTORE PUSH1 0x4 ADD PUSH2 0x4D6 SWAP1 PUSH2 0xB9A JUMP JUMPDEST PUSH1 0x40 MLOAD DUP1 SWAP2 SUB SWAP1 REVERT JUMPDEST SWAP2 SWAP1 POP JUMP JUMPDEST PUSH1 0x0 CALLER SWAP1 POP SWAP1 JUMP JUMPDEST PUSH1 0x0 PUSH2 0x4FF PUSH2 0x4FA DUP5 PUSH2 0xBFF JUMP JUMPDEST PUSH2 0xBDA JUMP JUMPDEST SWAP1 POP DUP1 DUP4 DUP3 MSTORE PUSH1 0x20 DUP3 ADD SWAP1 POP DUP3 DUP6 PUSH1 0x20 DUP7 MUL DUP3 ADD GT ISZERO PUSH2 0x522 JUMPI PUSH2 0x521 PUSH2 0xDCE JUMP JUMPDEST JUMPDEST PUSH1 0x0 JUMPDEST DUP6 DUP2 LT ISZERO PUSH2 0x570 JUMPI DUP2 CALLDATALOAD PUSH8 0xFFFFFFFFFFFFFFFF DUP2 GT ISZERO PUSH2 0x548 JUMPI PUSH2 0x547 PUSH2 0xDC4 JUMP JUMPDEST JUMPDEST DUP1 DUP7 ADD PUSH2 0x555 DUP10 DUP3 PUSH2 0x629 JUMP JUMPDEST DUP6 MSTORE PUSH1 0x20 DUP6 ADD SWAP5 POP PUSH1 0x20 DUP5 ADD SWAP4 POP POP POP PUSH1 0x1 DUP2 ADD SWAP1 POP PUSH2 0x525 JUMP JUMPDEST POP POP POP SWAP4 SWAP3 POP POP POP JUMP JUMPDEST PUSH1 0x0 PUSH2 0x58D PUSH2 0x588 DUP5 PUSH2 0xC2B JUMP JUMPDEST PUSH2 0xBDA JUMP JUMPDEST SWAP1 POP DUP3 DUP2 MSTORE PUSH1 0x20 DUP2 ADD DUP5 DUP5 DUP5 ADD GT ISZERO PUSH2 0x5A9 JUMPI PUSH2 0x5A8 PUSH2 0xDD3 JUMP JUMPDEST JUMPDEST PUSH2 0x5B4 DUP5 DUP3 DUP6 PUSH2 0xD22 JUMP JUMPDEST POP SWAP4 SWAP3 POP POP POP JUMP JUMPDEST PUSH1 0x0 DUP2 CALLDATALOAD SWAP1 POP PUSH2 0x5CB DUP2 PUSH2 0xE94 JUMP JUMPDEST SWAP3 SWAP2 POP POP JUMP JUMPDEST PUSH1 0x0 DUP3 PUSH1 0x1F DUP4 ADD SLT PUSH2 0x5E6 JUMPI PUSH2 0x5E5 PUSH2 0xDC4 JUMP JUMPDEST JUMPDEST DUP2 CALLDATALOAD PUSH2 0x5F6 DUP5 DUP3 PUSH1 0x20 DUP7 ADD PUSH2 0x4EC JUMP JUMPDEST SWAP2 POP POP SWAP3 SWAP2 POP POP JUMP JUMPDEST PUSH1 0x0 DUP2 CALLDATALOAD SWAP1 POP PUSH2 0x60E DUP2 PUSH2 0xEAB JUMP JUMPDEST SWAP3 SWAP2 POP POP JUMP JUMPDEST PUSH1 0x0 DUP2 CALLDATALOAD SWAP1 POP PUSH2 0x623 DUP2 PUSH2 0xEC2 JUMP JUMPDEST SWAP3 SWAP2 POP POP JUMP JUMPDEST PUSH1 0x0 DUP3 PUSH1 0x1F DUP4 ADD SLT PUSH2 0x63E JUMPI PUSH2 0x63D PUSH2 0xDC4 JUMP JUMPDEST JUMPDEST DUP2 CALLDATALOAD PUSH2 0x64E DUP5 DUP3 PUSH1 0x20 DUP7 ADD PUSH2 0x57A JUMP JUMPDEST SWAP2 POP POP SWAP3 SWAP2 POP POP JUMP JUMPDEST PUSH1 0x0 PUSH1 0x60 DUP3 DUP5 SUB SLT ISZERO PUSH2 0x66D JUMPI PUSH2 0x66C PUSH2 0xDC9 JUMP JUMPDEST JUMPDEST PUSH2 0x677 PUSH1 0x60 PUSH2 0xBDA JUMP JUMPDEST SWAP1 POP PUSH1 0x0 PUSH2 0x687 DUP5 DUP3 DUP6 ADD PUSH2 0x5FF JUMP JUMPDEST PUSH1 0x0 DUP4 ADD MSTORE POP PUSH1 0x20 PUSH2 0x69B DUP5 DUP3 DUP6 ADD PUSH2 0x5FF JUMP JUMPDEST PUSH1 0x20 DUP4 ADD MSTORE POP PUSH1 0x40 PUSH2 0x6AF DUP5 DUP3 DUP6 ADD PUSH2 0x5FF JUMP JUMPDEST PUSH1 0x40 DUP4 ADD MSTORE POP SWAP3 SWAP2 POP POP JUMP JUMPDEST PUSH1 0x0 PUSH1 0x40 DUP3 DUP5 SUB SLT ISZERO PUSH2 0x6D1 JUMPI PUSH2 0x6D0 PUSH2 0xDC9 JUMP JUMPDEST JUMPDEST PUSH2 0x6DB PUSH1 0x40 PUSH2 0xBDA JUMP JUMPDEST SWAP1 POP PUSH1 0x0 PUSH2 0x6EB DUP5 DUP3 DUP6 ADD PUSH2 0x614 JUMP JUMPDEST PUSH1 0x0 DUP4 ADD MSTORE POP PUSH1 0x20 PUSH2 0x6FF DUP5 DUP3 DUP6 ADD PUSH2 0x614 JUMP JUMPDEST PUSH1 0x20 DUP4 ADD MSTORE POP SWAP3 SWAP2 POP POP JUMP JUMPDEST PUSH1 0x0 PUSH1 0x40 DUP3 DUP5 SUB SLT ISZERO PUSH2 0x721 JUMPI PUSH2 0x720 PUSH2 0xDC9 JUMP JUMPDEST JUMPDEST PUSH2 0x72B PUSH1 0x40 PUSH2 0xBDA JUMP JUMPDEST SWAP1 POP PUSH1 0x0 PUSH2 0x73B DUP5 DUP3 DUP6 ADD PUSH2 0x5FF JUMP JUMPDEST PUSH1 0x0 DUP4 ADD MSTORE POP PUSH1 0x20 PUSH2 0x74F DUP5 DUP3 DUP6 ADD PUSH2 0x5BC JUMP JUMPDEST PUSH1 0x20 DUP4 ADD MSTORE POP SWAP3 SWAP2 POP POP JUMP JUMPDEST PUSH1 0x0 PUSH1 0x40 DUP3 DUP5 SUB SLT ISZERO PUSH2 0x771 JUMPI PUSH2 0x770 PUSH2 0xDC9 JUMP JUMPDEST JUMPDEST PUSH2 0x77B PUSH1 0x40 PUSH2 0xBDA JUMP JUMPDEST SWAP1 POP PUSH1 0x0 PUSH2 0x78B DUP5 DUP3 DUP6 ADD PUSH2 0x7AB JUMP JUMPDEST PUSH1 0x0 DUP4 ADD MSTORE POP PUSH1 0x20 PUSH2 0x79F DUP5 DUP3 DUP6 ADD PUSH2 0x7AB JUMP JUMPDEST PUSH1 0x20 DUP4 ADD MSTORE POP SWAP3 SWAP2 POP POP JUMP JUMPDEST PUSH1 0x0 DUP2 CALLDATALOAD SWAP1 POP PUSH2 0x7BA DUP2 PUSH2 0xED9 JUMP JUMPDEST SWAP3 SWAP2 POP POP JUMP JUMPDEST PUSH1 0x0 DUP2 CALLDATALOAD SWAP1 POP PUSH2 0x7CF DUP2 PUSH2 0xEF0 JUMP JUMPDEST SWAP3 SWAP2 POP POP JUMP JUMPDEST PUSH1 0x0 PUSH1 0x20 DUP3 DUP5 SUB SLT ISZERO PUSH2 0x7EB JUMPI PUSH2 0x7EA PUSH2 0xDDD JUMP JUMPDEST JUMPDEST PUSH1 0x0 PUSH2 0x7F9 DUP5 DUP3 DUP6 ADD PUSH2 0x5BC JUMP JUMPDEST SWAP2 POP POP SWAP3 SWAP2 POP POP JUMP JUMPDEST PUSH1 0x0 DUP1 PUSH1 0x0 DUP1 PUSH1 0x0 DUP1 PUSH1 0x0 PUSH2 0x180 DUP9 DUP11 SUB SLT ISZERO PUSH2 0x822 JUMPI PUSH2 0x821 PUSH2 0xDDD JUMP JUMPDEST JUMPDEST PUSH1 0x0 PUSH2 0x830 DUP11 DUP3 DUP12 ADD PUSH2 0x5BC JUMP JUMPDEST SWAP8 POP POP PUSH1 0x20 PUSH2 0x841 DUP11 DUP3 DUP12 ADD PUSH2 0x6BB JUMP JUMPDEST SWAP7 POP POP PUSH1 0x60 PUSH2 0x852 DUP11 DUP3 DUP12 ADD PUSH2 0x7C0 JUMP JUMPDEST SWAP6 POP POP PUSH1 0x80 PUSH2 0x863 DUP11 DUP3 DUP12 ADD PUSH2 0x75B JUMP JUMPDEST SWAP5 POP POP PUSH1 0xC0 DUP9 ADD CALLDATALOAD PUSH8 0xFFFFFFFFFFFFFFFF DUP2 GT ISZERO PUSH2 0x884 JUMPI PUSH2 0x883 PUSH2 0xDD8 JUMP JUMPDEST JUMPDEST PUSH2 0x890 DUP11 DUP3 DUP12 ADD PUSH2 0x5D1 JUMP JUMPDEST SWAP4 POP POP PUSH1 0xE0 PUSH2 0x8A1 DUP11 DUP3 DUP12 ADD PUSH2 0x657 JUMP JUMPDEST SWAP3 POP POP PUSH2 0x140 PUSH2 0x8B3 DUP11 DUP3 DUP12 ADD PUSH2 0x70B JUMP JUMPDEST SWAP2 POP POP SWAP3 SWAP6 SWAP9 SWAP2 SWAP5 SWAP8 POP SWAP3 SWAP6 POP JUMP JUMPDEST PUSH1 0x0 PUSH2 0x8CE DUP4 DUP4 PUSH2 0x978 JUMP JUMPDEST SWAP1 POP SWAP3 SWAP2 POP POP JUMP JUMPDEST PUSH2 0x8DF DUP2 PUSH2 0xCC2 JUMP JUMPDEST DUP3 MSTORE POP POP JUMP JUMPDEST PUSH1 0x0 PUSH2 0x8F0 DUP3 PUSH2 0xC6C JUMP JUMPDEST PUSH2 0x8FA DUP2 DUP6 PUSH2 0xC8F JUMP JUMPDEST SWAP4 POP DUP4 PUSH1 0x20 DUP3 MUL DUP6 ADD PUSH2 0x90C DUP6 PUSH2 0xC5C JUMP JUMPDEST DUP1 PUSH1 0x0 JUMPDEST DUP6 DUP2 LT ISZERO PUSH2 0x948 JUMPI DUP5 DUP5 SUB DUP10 MSTORE DUP2 MLOAD PUSH2 0x929 DUP6 DUP3 PUSH2 0x8C2 JUMP JUMPDEST SWAP5 POP PUSH2 0x934 DUP4 PUSH2 0xC82 JUMP JUMPDEST SWAP3 POP PUSH1 0x20 DUP11 ADD SWAP10 POP POP PUSH1 0x1 DUP2 ADD SWAP1 POP PUSH2 0x910 JUMP JUMPDEST POP DUP3 SWAP8 POP DUP8 SWAP6 POP POP POP POP POP POP SWAP3 SWAP2 POP POP JUMP JUMPDEST PUSH2 0x963 DUP2 PUSH2 0xCD4 JUMP JUMPDEST DUP3 MSTORE POP POP JUMP JUMPDEST PUSH2 0x972 DUP2 PUSH2 0xCE0 JUMP JUMPDEST DUP3 MSTORE POP POP JUMP JUMPDEST PUSH1 0x0 PUSH2 0x983 DUP3 PUSH2 0xC77 JUMP JUMPDEST PUSH2 0x98D DUP2 DUP6 PUSH2 0xCA0 JUMP JUMPDEST SWAP4 POP PUSH2 0x99D DUP2 DUP6 PUSH1 0x20 DUP7 ADD PUSH2 0xD31 JUMP JUMPDEST PUSH2 0x9A6 DUP2 PUSH2 0xDE2 JUMP JUMPDEST DUP5 ADD SWAP2 POP POP SWAP3 SWAP2 POP POP JUMP JUMPDEST PUSH1 0x0 PUSH2 0x9BE PUSH1 0x26 DUP4 PUSH2 0xCB1 JUMP JUMPDEST SWAP2 POP PUSH2 0x9C9 DUP3 PUSH2 0xDF3 JUMP JUMPDEST PUSH1 0x40 DUP3 ADD SWAP1 POP SWAP2 SWAP1 POP JUMP JUMPDEST PUSH1 0x0 PUSH2 0x9E1 PUSH1 0x16 DUP4 PUSH2 0xCB1 JUMP JUMPDEST SWAP2 POP PUSH2 0x9EC DUP3 PUSH2 0xE42 JUMP JUMPDEST PUSH1 0x20 DUP3 ADD SWAP1 POP SWAP2 SWAP1 POP JUMP JUMPDEST PUSH1 0x0 PUSH2 0xA04 PUSH1 0x20 DUP4 PUSH2 0xCB1 JUMP JUMPDEST SWAP2 POP PUSH2 0xA0F DUP3 PUSH2 0xE6B JUMP JUMPDEST PUSH1 0x20 DUP3 ADD SWAP1 POP SWAP2 SWAP1 POP JUMP JUMPDEST PUSH1 0x60 DUP3 ADD PUSH1 0x0 DUP3 ADD MLOAD PUSH2 0xA30 PUSH1 0x0 DUP6 ADD DUP3 PUSH2 0x95A JUMP JUMPDEST POP PUSH1 0x20 DUP3 ADD MLOAD PUSH2 0xA43 PUSH1 0x20 DUP6 ADD DUP3 PUSH2 0x95A JUMP JUMPDEST POP PUSH1 0x40 DUP3 ADD MLOAD PUSH2 0xA56 PUSH1 0x40 DUP6 ADD DUP3 PUSH2 0x95A JUMP JUMPDEST POP POP POP POP JUMP JUMPDEST PUSH1 0x40 DUP3 ADD PUSH1 0x0 DUP3 ADD MLOAD PUSH2 0xA72 PUSH1 0x0 DUP6 ADD DUP3 PUSH2 0x969 JUMP JUMPDEST POP PUSH1 0x20 DUP3 ADD MLOAD PUSH2 0xA85 PUSH1 0x20 DUP6 ADD DUP3 PUSH2 0x969 JUMP JUMPDEST POP POP POP POP JUMP JUMPDEST PUSH1 0x40 DUP3 ADD PUSH1 0x0 DUP3 ADD MLOAD PUSH2 0xAA1 PUSH1 0x0 DUP6 ADD DUP3 PUSH2 0xABA JUMP JUMPDEST POP PUSH1 0x20 DUP3 ADD MLOAD PUSH2 0xAB4 PUSH1 0x20 DUP6 ADD DUP3 PUSH2 0xABA JUMP JUMPDEST POP POP POP POP JUMP JUMPDEST PUSH2 0xAC3 DUP2 PUSH2 0xCEA JUMP JUMPDEST DUP3 MSTORE POP POP JUMP JUMPDEST PUSH2 0xAD2 DUP2 PUSH2 0xD18 JUMP JUMPDEST DUP3 MSTORE POP POP JUMP JUMPDEST PUSH1 0x0 PUSH1 0x20 DUP3 ADD SWAP1 POP PUSH2 0xAED PUSH1 0x0 DUP4 ADD DUP5 PUSH2 0x8D6 JUMP JUMPDEST SWAP3 SWAP2 POP POP JUMP JUMPDEST PUSH1 0x0 PUSH2 0x180 DUP3 ADD SWAP1 POP PUSH2 0xB09 PUSH1 0x0 DUP4 ADD DUP12 PUSH2 0x8D6 JUMP JUMPDEST PUSH2 0xB16 PUSH1 0x20 DUP4 ADD DUP11 PUSH2 0x8D6 JUMP JUMPDEST PUSH2 0xB23 PUSH1 0x40 DUP4 ADD DUP10 PUSH2 0x8D6 JUMP JUMPDEST PUSH2 0xB30 PUSH1 0x60 DUP4 ADD DUP9 PUSH2 0xA5C JUMP JUMPDEST PUSH2 0xB3D PUSH1 0xA0 DUP4 ADD DUP8 PUSH2 0xAC9 JUMP JUMPDEST PUSH2 0xB4A PUSH1 0xC0 DUP4 ADD DUP7 PUSH2 0xA8B JUMP JUMPDEST DUP2 DUP2 SUB PUSH2 0x100 DUP4 ADD MSTORE PUSH2 0xB5D DUP2 DUP6 PUSH2 0x8E5 JUMP JUMPDEST SWAP1 POP PUSH2 0xB6D PUSH2 0x120 DUP4 ADD DUP5 PUSH2 0xA1A JUMP JUMPDEST SWAP10 SWAP9 POP POP POP POP POP POP POP POP POP JUMP JUMPDEST PUSH1 0x0 PUSH1 0x20 DUP3 ADD SWAP1 POP DUP2 DUP2 SUB PUSH1 0x0 DUP4 ADD MSTORE PUSH2 0xB93 DUP2 PUSH2 0x9B1 JUMP JUMPDEST SWAP1 POP SWAP2 SWAP1 POP JUMP JUMPDEST PUSH1 0x0 PUSH1 0x20 DUP3 ADD SWAP1 POP DUP2 DUP2 SUB PUSH1 0x0 DUP4 ADD MSTORE PUSH2 0xBB3 DUP2 PUSH2 0x9D4 JUMP JUMPDEST SWAP1 POP SWAP2 SWAP1 POP JUMP JUMPDEST PUSH1 0x0 PUSH1 0x20 DUP3 ADD SWAP1 POP DUP2 DUP2 SUB PUSH1 0x0 DUP4 ADD MSTORE PUSH2 0xBD3 DUP2 PUSH2 0x9F7 JUMP JUMPDEST SWAP1 POP SWAP2 SWAP1 POP JUMP JUMPDEST PUSH1 0x0 PUSH2 0xBE4 PUSH2 0xBF5 JUMP JUMPDEST SWAP1 POP PUSH2 0xBF0 DUP3 DUP3 PUSH2 0xD64 JUMP JUMPDEST SWAP2 SWAP1 POP JUMP JUMPDEST PUSH1 0x0 PUSH1 0x40 MLOAD SWAP1 POP SWAP1 JUMP JUMPDEST PUSH1 0x0 PUSH8 0xFFFFFFFFFFFFFFFF DUP3 GT ISZERO PUSH2 0xC1A JUMPI PUSH2 0xC19 PUSH2 0xD95 JUMP JUMPDEST JUMPDEST PUSH1 0x20 DUP3 MUL SWAP1 POP PUSH1 0x20 DUP2 ADD SWAP1 POP SWAP2 SWAP1 POP JUMP JUMPDEST PUSH1 0x0 PUSH8 0xFFFFFFFFFFFFFFFF DUP3 GT ISZERO PUSH2 0xC46 JUMPI PUSH2 0xC45 PUSH2 0xD95 JUMP JUMPDEST JUMPDEST PUSH2 0xC4F DUP3 PUSH2 0xDE2 JUMP JUMPDEST SWAP1 POP PUSH1 0x20 DUP2 ADD SWAP1 POP SWAP2 SWAP1 POP JUMP JUMPDEST PUSH1 0x0 DUP2 SWAP1 POP PUSH1 0x20 DUP3 ADD SWAP1 POP SWAP2 SWAP1 POP JUMP JUMPDEST PUSH1 0x0 DUP2 MLOAD SWAP1 POP SWAP2 SWAP1 POP JUMP JUMPDEST PUSH1 0x0 DUP2 MLOAD SWAP1 POP SWAP2 SWAP1 POP JUMP JUMPDEST PUSH1 0x0 PUSH1 0x20 DUP3 ADD SWAP1 POP SWAP2 SWAP1 POP JUMP JUMPDEST PUSH1 0x0 DUP3 DUP3 MSTORE PUSH1 0x20 DUP3 ADD SWAP1 POP SWAP3 SWAP2 POP POP JUMP JUMPDEST PUSH1 0x0 DUP3 DUP3 MSTORE PUSH1 0x20 DUP3 ADD SWAP1 POP SWAP3 SWAP2 POP POP JUMP JUMPDEST PUSH1 0x0 DUP3 DUP3 MSTORE PUSH1 0x20 DUP3 ADD SWAP1 POP SWAP3 SWAP2 POP POP JUMP JUMPDEST PUSH1 0x0 PUSH2 0xCCD DUP3 PUSH2 0xCF8 JUMP JUMPDEST SWAP1 POP SWAP2 SWAP1 POP JUMP JUMPDEST PUSH1 0x0 DUP2 ISZERO ISZERO SWAP1 POP SWAP2 SWAP1 POP JUMP JUMPDEST PUSH1 0x0 DUP2 SWAP1 POP SWAP2 SWAP1 POP JUMP JUMPDEST PUSH1 0x0 PUSH2 0xFFFF DUP3 AND SWAP1 POP SWAP2 SWAP1 POP JUMP JUMPDEST PUSH1 0x0 PUSH20 0xFFFFFFFFFFFFFFFFFFFFFFFFFFFFFFFFFFFFFFFF DUP3 AND SWAP1 POP SWAP2 SWAP1 POP JUMP JUMPDEST PUSH1 0x0 DUP2 SWAP1 POP SWAP2 SWAP1 POP JUMP JUMPDEST DUP3 DUP2 DUP4 CALLDATACOPY PUSH1 0x0 DUP4 DUP4 ADD MSTORE POP POP POP JUMP JUMPDEST PUSH1 0x0 JUMPDEST DUP4 DUP2 LT ISZERO PUSH2 0xD4F JUMPI DUP1 DUP3 ADD MLOAD DUP2 DUP5 ADD MSTORE PUSH1 0x20 DUP2 ADD SWAP1 POP PUSH2 0xD34 JUMP JUMPDEST DUP4 DUP2 GT ISZERO PUSH2 0xD5E JUMPI PUSH1 0x0 DUP5 DUP5 ADD MSTORE JUMPDEST POP POP POP POP JUMP JUMPDEST PUSH2 0xD6D DUP3 PUSH2 0xDE2 JUMP JUMPDEST DUP2 ADD DUP2 DUP2 LT PUSH8 0xFFFFFFFFFFFFFFFF DUP3 GT OR ISZERO PUSH2 0xD8C JUMPI PUSH2 0xD8B PUSH2 0xD95 JUMP JUMPDEST JUMPDEST DUP1 PUSH1 0x40 MSTORE POP POP POP JUMP JUMPDEST PUSH32 0x4E487B7100000000000000000000000000000000000000000000000000000000 PUSH1 0x0 MSTORE PUSH1 0x41 PUSH1 0x4 MSTORE PUSH1 0x24 PUSH1 0x0 REVERT JUMPDEST PUSH1 0x0 DUP1 REVERT JUMPDEST PUSH1 0x0 DUP1 REVERT JUMPDEST PUSH1 0x0 DUP1 REVERT JUMPDEST PUSH1 0x0 DUP1 REVERT JUMPDEST PUSH1 0x0 DUP1 REVERT JUMPDEST PUSH1 0x0 DUP1 REVERT JUMPDEST PUSH1 0x0 PUSH1 0x1F NOT PUSH1 0x1F DUP4 ADD AND SWAP1 POP SWAP2 SWAP1 POP JUMP JUMPDEST PUSH32 0x4F776E61626C653A206E6577206F776E657220697320746865207A65726F2061 PUSH1 0x0 DUP3 ADD MSTORE PUSH32 0x6464726573730000000000000000000000000000000000000000000000000000 PUSH1 0x20 DUP3 ADD MSTORE POP JUMP JUMPDEST PUSH32 0x455243313136373A20637265617465206661696C656400000000000000000000 PUSH1 0x0 DUP3 ADD MSTORE POP JUMP JUMPDEST PUSH32 0x4F776E61626C653A2063616C6C6572206973206E6F7420746865206F776E6572 PUSH1 0x0 DUP3 ADD MSTORE POP JUMP JUMPDEST PUSH2 0xE9D DUP2 PUSH2 0xCC2 JUMP JUMPDEST DUP2 EQ PUSH2 0xEA8 JUMPI PUSH1 0x0 DUP1 REVERT JUMPDEST POP JUMP JUMPDEST PUSH2 0xEB4 DUP2 PUSH2 0xCD4 JUMP JUMPDEST DUP2 EQ PUSH2 0xEBF JUMPI PUSH1 0x0 DUP1 REVERT JUMPDEST POP JUMP JUMPDEST PUSH2 0xECB DUP2 PUSH2 0xCE0 JUMP JUMPDEST DUP2 EQ PUSH2 0xED6 JUMPI PUSH1 0x0 DUP1 REVERT JUMPDEST POP JUMP JUMPDEST PUSH2 0xEE2 DUP2 PUSH2 0xCEA JUMP JUMPDEST DUP2 EQ PUSH2 0xEED JUMPI PUSH1 0x0 DUP1 REVERT JUMPDEST POP JUMP JUMPDEST PUSH2 0xEF9 DUP2 PUSH2 0xD18 JUMP JUMPDEST DUP2 EQ PUSH2 0xF04 JUMPI PUSH1 0x0 DUP1 REVERT JUMPDEST POP JUMP INVALID LOG2 PUSH5 0x6970667358 0x22 SLT KECCAK256 EXTCODEHASH 0xE6 0xB3 0xEB 0xCA MSTORE8 0x5F GT 0xE8 0x2C CODECOPY MSIZE EXP 0xE0 0xD9 0x4E DUP6 SGT SLOAD PUSH3 0xBF7640 EXTCODEHASH JUMPDEST SWAP9 0xE1 SWAP6 0xA9 POP PUSH15 0x9E64736F6C63430008060033608060 BLOCKHASH MSTORE CALLVALUE DUP1 ISZERO PUSH3 0x11 JUMPI PUSH1 0x0 DUP1 REVERT JUMPDEST POP PUSH3 0x47 PUSH32 0x72606200FAC42B7DC86B75901D61ECFAB2A4A1A6EDED478B97A428094891ABED PUSH1 0x0 DUP1 SHL PUSH3 0x143 PUSH1 0x20 SHL PUSH1 0x20 SHR JUMP JUMPDEST PUSH3 0x99 PUSH32 0x241ECF16D79D0F8DBFB92CBC07FE17840425976CF0667F022FE9877CAA831B08 PUSH32 0x72606200FAC42B7DC86B75901D61ECFAB2A4A1A6EDED478B97A428094891ABED PUSH3 0x143 PUSH1 0x20 SHL PUSH1 0x20 SHR JUMP JUMPDEST PUSH3 0xEB PUSH32 0xAF1DAC7DEA2FD7F7738119CEC7DF099DFAD49AA9D2E7D17BA6B60F63AE7411F PUSH32 0x72606200FAC42B7DC86B75901D61ECFAB2A4A1A6EDED478B97A428094891ABED PUSH3 0x143 PUSH1 0x20 SHL PUSH1 0x20 SHR JUMP JUMPDEST PUSH3 0x13D PUSH32 0xAF31C50B4AAB7AF0193B792816047837F36C88A23BBB4D0E3581C88CB4BF86AB PUSH32 0x72606200FAC42B7DC86B75901D61ECFAB2A4A1A6EDED478B97A428094891ABED PUSH3 0x143 PUSH1 0x20 SHL PUSH1 0x20 SHR JUMP JUMPDEST PUSH3 0x1C5 JUMP JUMPDEST PUSH1 0x0 PUSH3 0x156 DUP4 PUSH3 0x1A6 PUSH1 0x20 SHL PUSH1 0x20 SHR JUMP JUMPDEST SWAP1 POP DUP2 PUSH1 0x0 DUP1 DUP6 DUP2 MSTORE PUSH1 0x20 ADD SWAP1 DUP2 MSTORE PUSH1 0x20 ADD PUSH1 0x0 KECCAK256 PUSH1 0x1 ADD DUP2 SWAP1 SSTORE POP DUP2 DUP2 DUP5 PUSH32 0xBD79B86FFE0AB8E8776151514217CD7CACD52C909F66475C3AF44E129F0B00FF PUSH1 0x40 MLOAD PUSH1 0x40 MLOAD DUP1 SWAP2 SUB SWAP1 LOG4 POP POP POP JUMP JUMPDEST PUSH1 0x0 DUP1 PUSH1 0x0 DUP4 DUP2 MSTORE PUSH1 0x20 ADD SWAP1 DUP2 MSTORE PUSH1 0x20 ADD PUSH1 0x0 KECCAK256 PUSH1 0x1 ADD SLOAD SWAP1 POP SWAP2 SWAP1 POP JUMP JUMPDEST PUSH2 0x3908 DUP1 PUSH3 0x1D5 PUSH1 0x0 CODECOPY PUSH1 0x0 RETURN INVALID PUSH1 0x80 PUSH1 0x40 MSTORE CALLVALUE DUP1 ISZERO PUSH2 0x10 JUMPI PUSH1 0x0 DUP1 REVERT JUMPDEST POP PUSH1 0x4 CALLDATASIZE LT PUSH2 0x1E5 JUMPI PUSH1 0x0 CALLDATALOAD PUSH1 0xE0 SHR DUP1 PUSH4 0x689AA655 GT PUSH2 0x10F JUMPI DUP1 PUSH4 0xA217FDDF GT PUSH2 0xA2 JUMPI DUP1 PUSH4 0xD547741F GT PUSH2 0x71 JUMPI DUP1 PUSH4 0xD547741F EQ PUSH2 0x542 JUMPI DUP1 PUSH4 0xE3A5A4DE EQ PUSH2 0x55E JUMPI DUP1 PUSH4 0xEC87621C EQ PUSH2 0x57A JUMPI DUP1 PUSH4 0xFEC331F2 EQ PUSH2 0x598 JUMPI PUSH2 0x1E5 JUMP JUMPDEST DUP1 PUSH4 0xA217FDDF EQ PUSH2 0x4BA JUMPI DUP1 PUSH4 0xAC5CB97D EQ PUSH2 0x4D8 JUMPI DUP1 PUSH4 0xCA15C873 EQ PUSH2 0x4F6 JUMPI DUP1 PUSH4 0xD294FFE0 EQ PUSH2 0x526 JUMPI PUSH2 0x1E5 JUMP JUMPDEST DUP1 PUSH4 0x9010D07C GT PUSH2 0xDE JUMPI DUP1 PUSH4 0x9010D07C EQ PUSH2 0x420 JUMPI DUP1 PUSH4 0x91D14854 EQ PUSH2 0x450 JUMPI DUP1 PUSH4 0x9ACA66F8 EQ PUSH2 0x480 JUMPI DUP1 PUSH4 0x9F0A5C15 EQ PUSH2 0x49C JUMPI PUSH2 0x1E5 JUMP JUMPDEST DUP1 PUSH4 0x689AA655 EQ PUSH2 0x39C JUMPI DUP1 PUSH4 0x6DD902D2 EQ PUSH2 0x3B8 JUMPI DUP1 PUSH4 0x793DE5F0 EQ PUSH2 0x3D4 JUMPI DUP1 PUSH4 0x85E68531 EQ PUSH2 0x404 JUMPI PUSH2 0x1E5 JUMP JUMPDEST DUP1 PUSH4 0x2B8CC346 GT PUSH2 0x187 JUMPI DUP1 PUSH4 0x51E66EFB GT PUSH2 0x156 JUMPI DUP1 PUSH4 0x51E66EFB EQ PUSH2 0x336 JUMPI DUP1 PUSH4 0x5A9B0B89 EQ PUSH2 0x352 JUMPI DUP1 PUSH4 0x5AC801FE EQ PUSH2 0x376 JUMPI DUP1 PUSH4 0x602792B0 EQ PUSH2 0x392 JUMPI PUSH2 0x1E5 JUMP JUMPDEST DUP1 PUSH4 0x2B8CC346 EQ PUSH2 0x2C6 JUMPI DUP1 PUSH4 0x2F2FF15D EQ PUSH2 0x2E2 JUMPI DUP1 PUSH4 0x36568ABE EQ PUSH2 0x2FE JUMPI DUP1 PUSH4 0x38A6A738 EQ PUSH2 0x31A JUMPI PUSH2 0x1E5 JUMP JUMPDEST DUP1 PUSH4 0x101D6416 GT PUSH2 0x1C3 JUMPI DUP1 PUSH4 0x101D6416 EQ PUSH2 0x242 JUMPI DUP1 PUSH4 0x16FAC09C EQ PUSH2 0x25E JUMPI DUP1 PUSH4 0x23FCCEED EQ PUSH2 0x27A JUMPI DUP1 PUSH4 0x248A9CA3 EQ PUSH2 0x296 JUMPI PUSH2 0x1E5 JUMP JUMPDEST DUP1 PUSH4 0x1FFC9A7 EQ PUSH2 0x1EA JUMPI DUP1 PUSH4 0x80121DA EQ PUSH2 0x21A JUMPI DUP1 PUSH4 0xC9A8ECF EQ PUSH2 0x238 JUMPI JUMPDEST PUSH1 0x0 DUP1 REVERT JUMPDEST PUSH2 0x204 PUSH1 0x4 DUP1 CALLDATASIZE SUB DUP2 ADD SWAP1 PUSH2 0x1FF SWAP2 SWAP1 PUSH2 0x2A11 JUMP JUMPDEST PUSH2 0x5B6 JUMP JUMPDEST PUSH1 0x40 MLOAD PUSH2 0x211 SWAP2 SWAP1 PUSH2 0x2F77 JUMP JUMPDEST PUSH1 0x40 MLOAD DUP1 SWAP2 SUB SWAP1 RETURN JUMPDEST PUSH2 0x222 PUSH2 0x630 JUMP JUMPDEST PUSH1 0x40 MLOAD PUSH2 0x22F SWAP2 SWAP1 PUSH2 0x2F92 JUMP JUMPDEST PUSH1 0x40 MLOAD DUP1 SWAP2 SUB SWAP1 RETURN JUMPDEST PUSH2 0x240 PUSH2 0x654 JUMP JUMPDEST STOP JUMPDEST PUSH2 0x25C PUSH1 0x4 DUP1 CALLDATASIZE SUB DUP2 ADD SWAP1 PUSH2 0x257 SWAP2 SWAP1 PUSH2 0x2A6B JUMP JUMPDEST PUSH2 0x6F0 JUMP JUMPDEST STOP JUMPDEST PUSH2 0x278 PUSH1 0x4 DUP1 CALLDATASIZE SUB DUP2 ADD SWAP1 PUSH2 0x273 SWAP2 SWAP1 PUSH2 0x2847 JUMP JUMPDEST PUSH2 0x73D JUMP JUMPDEST STOP JUMPDEST PUSH2 0x294 PUSH1 0x4 DUP1 CALLDATASIZE SUB DUP2 ADD SWAP1 PUSH2 0x28F SWAP2 SWAP1 PUSH2 0x291B JUMP JUMPDEST PUSH2 0xA52 JUMP JUMPDEST STOP JUMPDEST PUSH2 0x2B0 PUSH1 0x4 DUP1 CALLDATASIZE SUB DUP2 ADD SWAP1 PUSH2 0x2AB SWAP2 SWAP1 PUSH2 0x2964 JUMP JUMPDEST PUSH2 0xA74 JUMP JUMPDEST PUSH1 0x40 MLOAD PUSH2 0x2BD SWAP2 SWAP1 PUSH2 0x2F92 JUMP JUMPDEST PUSH1 0x40 MLOAD DUP1 SWAP2 SUB SWAP1 RETURN JUMPDEST PUSH2 0x2E0 PUSH1 0x4 DUP1 CALLDATASIZE SUB DUP2 ADD SWAP1 PUSH2 0x2DB SWAP2 SWAP1 PUSH2 0x281A JUMP JUMPDEST PUSH2 0xA93 JUMP JUMPDEST STOP JUMPDEST PUSH2 0x2FC PUSH1 0x4 DUP1 CALLDATASIZE SUB DUP2 ADD SWAP1 PUSH2 0x2F7 SWAP2 SWAP1 PUSH2 0x2991 JUMP JUMPDEST PUSH2 0xCA9 JUMP JUMPDEST STOP JUMPDEST PUSH2 0x318 PUSH1 0x4 DUP1 CALLDATASIZE SUB DUP2 ADD SWAP1 PUSH2 0x313 SWAP2 SWAP1 PUSH2 0x2991 JUMP JUMPDEST PUSH2 0xCCA JUMP JUMPDEST STOP JUMPDEST PUSH2 0x334 PUSH1 0x4 DUP1 CALLDATASIZE SUB DUP2 ADD SWAP1 PUSH2 0x32F SWAP2 SWAP1 PUSH2 0x2A3E JUMP JUMPDEST PUSH2 0xD4D JUMP JUMPDEST STOP JUMPDEST PUSH2 0x350 PUSH1 0x4 DUP1 CALLDATASIZE SUB DUP2 ADD SWAP1 PUSH2 0x34B SWAP2 SWAP1 PUSH2 0x281A JUMP JUMPDEST PUSH2 0xDB1 JUMP JUMPDEST STOP JUMPDEST PUSH2 0x35A PUSH2 0xECA JUMP JUMPDEST PUSH1 0x40 MLOAD PUSH2 0x36D SWAP8 SWAP7 SWAP6 SWAP5 SWAP4 SWAP3 SWAP2 SWAP1 PUSH2 0x30EF JUMP JUMPDEST PUSH1 0x40 MLOAD DUP1 SWAP2 SUB SWAP1 RETURN JUMPDEST PUSH2 0x390 PUSH1 0x4 DUP1 CALLDATASIZE SUB DUP2 ADD SWAP1 PUSH2 0x38B SWAP2 SWAP1 PUSH2 0x2964 JUMP JUMPDEST PUSH2 0x120F JUMP JUMPDEST STOP JUMPDEST PUSH2 0x39A PUSH2 0x1221 JUMP JUMPDEST STOP JUMPDEST PUSH2 0x3B6 PUSH1 0x4 DUP1 CALLDATASIZE SUB DUP2 ADD SWAP1 PUSH2 0x3B1 SWAP2 SWAP1 PUSH2 0x2964 JUMP JUMPDEST PUSH2 0x131F JUMP JUMPDEST STOP JUMPDEST PUSH2 0x3D2 PUSH1 0x4 DUP1 CALLDATASIZE SUB DUP2 ADD SWAP1 PUSH2 0x3CD SWAP2 SWAP1 PUSH2 0x2A98 JUMP JUMPDEST PUSH2 0x1331 JUMP JUMPDEST STOP JUMPDEST PUSH2 0x3EE PUSH1 0x4 DUP1 CALLDATASIZE SUB DUP2 ADD SWAP1 PUSH2 0x3E9 SWAP2 SWAP1 PUSH2 0x281A JUMP JUMPDEST PUSH2 0x1343 JUMP JUMPDEST PUSH1 0x40 MLOAD PUSH2 0x3FB SWAP2 SWAP1 PUSH2 0x2F77 JUMP JUMPDEST PUSH1 0x40 MLOAD DUP1 SWAP2 SUB SWAP1 RETURN JUMPDEST PUSH2 0x41E PUSH1 0x4 DUP1 CALLDATASIZE SUB DUP2 ADD SWAP1 PUSH2 0x419 SWAP2 SWAP1 PUSH2 0x281A JUMP JUMPDEST PUSH2 0x137E JUMP JUMPDEST STOP JUMPDEST PUSH2 0x43A PUSH1 0x4 DUP1 CALLDATASIZE SUB DUP2 ADD SWAP1 PUSH2 0x435 SWAP2 SWAP1 PUSH2 0x29D1 JUMP JUMPDEST PUSH2 0x1497 JUMP JUMPDEST PUSH1 0x40 MLOAD PUSH2 0x447 SWAP2 SWAP1 PUSH2 0x2F3A JUMP JUMPDEST PUSH1 0x40 MLOAD DUP1 SWAP2 SUB SWAP1 RETURN JUMPDEST PUSH2 0x46A PUSH1 0x4 DUP1 CALLDATASIZE SUB DUP2 ADD SWAP1 PUSH2 0x465 SWAP2 SWAP1 PUSH2 0x2991 JUMP JUMPDEST PUSH2 0x14C6 JUMP JUMPDEST PUSH1 0x40 MLOAD PUSH2 0x477 SWAP2 SWAP1 PUSH2 0x2F77 JUMP JUMPDEST PUSH1 0x40 MLOAD DUP1 SWAP2 SUB SWAP1 RETURN JUMPDEST PUSH2 0x49A PUSH1 0x4 DUP1 CALLDATASIZE SUB DUP2 ADD SWAP1 PUSH2 0x495 SWAP2 SWAP1 PUSH2 0x281A JUMP JUMPDEST PUSH2 0x1530 JUMP JUMPDEST STOP JUMPDEST PUSH2 0x4A4 PUSH2 0x167B JUMP JUMPDEST PUSH1 0x40 MLOAD PUSH2 0x4B1 SWAP2 SWAP1 PUSH2 0x2F55 JUMP JUMPDEST PUSH1 0x40 MLOAD DUP1 SWAP2 SUB SWAP1 RETURN JUMPDEST PUSH2 0x4C2 PUSH2 0x1711 JUMP JUMPDEST PUSH1 0x40 MLOAD PUSH2 0x4CF SWAP2 SWAP1 PUSH2 0x2F92 JUMP JUMPDEST PUSH1 0x40 MLOAD DUP1 SWAP2 SUB SWAP1 RETURN JUMPDEST PUSH2 0x4E0 PUSH2 0x1718 JUMP JUMPDEST PUSH1 0x40 MLOAD PUSH2 0x4ED SWAP2 SWAP1 PUSH2 0x2F92 JUMP JUMPDEST PUSH1 0x40 MLOAD DUP1 SWAP2 SUB SWAP1 RETURN JUMPDEST PUSH2 0x510 PUSH1 0x4 DUP1 CALLDATASIZE SUB DUP2 ADD SWAP1 PUSH2 0x50B SWAP2 SWAP1 PUSH2 0x2964 JUMP JUMPDEST PUSH2 0x173C JUMP JUMPDEST PUSH1 0x40 MLOAD PUSH2 0x51D SWAP2 SWAP1 PUSH2 0x3176 JUMP JUMPDEST PUSH1 0x40 MLOAD DUP1 SWAP2 SUB SWAP1 RETURN JUMPDEST PUSH2 0x540 PUSH1 0x4 DUP1 CALLDATASIZE SUB DUP2 ADD SWAP1 PUSH2 0x53B SWAP2 SWAP1 PUSH2 0x281A JUMP JUMPDEST PUSH2 0x1760 JUMP JUMPDEST STOP JUMPDEST PUSH2 0x55C PUSH1 0x4 DUP1 CALLDATASIZE SUB DUP2 ADD SWAP1 PUSH2 0x557 SWAP2 SWAP1 PUSH2 0x2991 JUMP JUMPDEST PUSH2 0x17F1 JUMP JUMPDEST STOP JUMPDEST PUSH2 0x578 PUSH1 0x4 DUP1 CALLDATASIZE SUB DUP2 ADD SWAP1 PUSH2 0x573 SWAP2 SWAP1 PUSH2 0x281A JUMP JUMPDEST PUSH2 0x1812 JUMP JUMPDEST STOP JUMPDEST PUSH2 0x582 PUSH2 0x195D JUMP JUMPDEST PUSH1 0x40 MLOAD PUSH2 0x58F SWAP2 SWAP1 PUSH2 0x2F92 JUMP JUMPDEST PUSH1 0x40 MLOAD DUP1 SWAP2 SUB SWAP1 RETURN JUMPDEST PUSH2 0x5A0 PUSH2 0x1981 JUMP JUMPDEST PUSH1 0x40 MLOAD PUSH2 0x5AD SWAP2 SWAP1 PUSH2 0x2F92 JUMP JUMPDEST PUSH1 0x40 MLOAD DUP1 SWAP2 SUB SWAP1 RETURN JUMPDEST PUSH1 0x0 PUSH32 0x5A05180F00000000000000000000000000000000000000000000000000000000 PUSH28 0xFFFFFFFFFFFFFFFFFFFFFFFFFFFFFFFFFFFFFFFFFFFFFFFFFFFFFFFF NOT AND DUP3 PUSH28 0xFFFFFFFFFFFFFFFFFFFFFFFFFFFFFFFFFFFFFFFFFFFFFFFFFFFFFFFF NOT AND EQ DUP1 PUSH2 0x629 JUMPI POP PUSH2 0x628 DUP3 PUSH2 0x19A5 JUMP JUMPDEST JUMPDEST SWAP1 POP SWAP2 SWAP1 POP JUMP JUMPDEST PUSH32 0xAF31C50B4AAB7AF0193B792816047837F36C88A23BBB4D0E3581C88CB4BF86AB DUP2 JUMP JUMPDEST PUSH2 0x67E PUSH32 0xAF1DAC7DEA2FD7F7738119CEC7DF099DFAD49AA9D2E7D17BA6B60F63AE7411F CALLER PUSH2 0x14C6 JUMP JUMPDEST DUP1 PUSH2 0x6AF JUMPI POP PUSH2 0x6AE PUSH32 0x72606200FAC42B7DC86B75901D61ECFAB2A4A1A6EDED478B97A428094891ABED CALLER PUSH2 0x14C6 JUMP JUMPDEST JUMPDEST PUSH2 0x6EE JUMPI PUSH1 0x40 MLOAD PUSH32 0x8C379A000000000000000000000000000000000000000000000000000000000 DUP2 MSTORE PUSH1 0x4 ADD PUSH2 0x6E5 SWAP1 PUSH2 0x300F JUMP JUMPDEST PUSH1 0x40 MLOAD DUP1 SWAP2 SUB SWAP1 REVERT JUMPDEST JUMP JUMPDEST PUSH2 0x6F8 PUSH2 0x1221 JUMP JUMPDEST DUP1 PUSH1 0x0 ADD MLOAD PUSH1 0x5 PUSH1 0x0 PUSH2 0x100 EXP DUP2 SLOAD DUP2 PUSH2 0xFFFF MUL NOT AND SWAP1 DUP4 PUSH2 0xFFFF AND MUL OR SWAP1 SSTORE POP DUP1 PUSH1 0x20 ADD MLOAD PUSH1 0x5 PUSH1 0x2 PUSH2 0x100 EXP DUP2 SLOAD DUP2 PUSH2 0xFFFF MUL NOT AND SWAP1 DUP4 PUSH2 0xFFFF AND MUL OR SWAP1 SSTORE POP POP JUMP JUMPDEST PUSH1 0x0 ISZERO ISZERO PUSH1 0x5 PUSH1 0x7 SWAP1 SLOAD SWAP1 PUSH2 0x100 EXP SWAP1 DIV PUSH1 0xFF AND ISZERO ISZERO EQ PUSH2 0x793 JUMPI PUSH1 0x40 MLOAD PUSH32 0x8C379A000000000000000000000000000000000000000000000000000000000 DUP2 MSTORE PUSH1 0x4 ADD PUSH2 0x78A SWAP1 PUSH2 0x308F JUMP JUMPDEST PUSH1 0x40 MLOAD DUP1 SWAP2 SUB SWAP1 REVERT JUMPDEST PUSH2 0x7C0 PUSH32 0x72606200FAC42B7DC86B75901D61ECFAB2A4A1A6EDED478B97A428094891ABED PUSH1 0x0 DUP1 SHL PUSH2 0x1A1F JUMP JUMPDEST PUSH2 0x80A PUSH32 0x241ECF16D79D0F8DBFB92CBC07FE17840425976CF0667F022FE9877CAA831B08 PUSH32 0x72606200FAC42B7DC86B75901D61ECFAB2A4A1A6EDED478B97A428094891ABED PUSH2 0x1A1F JUMP JUMPDEST PUSH2 0x854 PUSH32 0xAF1DAC7DEA2FD7F7738119CEC7DF099DFAD49AA9D2E7D17BA6B60F63AE7411F PUSH32 0x72606200FAC42B7DC86B75901D61ECFAB2A4A1A6EDED478B97A428094891ABED PUSH2 0x1A1F JUMP JUMPDEST PUSH2 0x89E PUSH32 0xAF31C50B4AAB7AF0193B792816047837F36C88A23BBB4D0E3581C88CB4BF86AB PUSH32 0x72606200FAC42B7DC86B75901D61ECFAB2A4A1A6EDED478B97A428094891ABED PUSH2 0x1A1F JUMP JUMPDEST PUSH2 0x8AB PUSH1 0x0 DUP1 SHL DUP9 PUSH2 0x1A7A JUMP JUMPDEST PUSH2 0x8D5 PUSH32 0x72606200FAC42B7DC86B75901D61ECFAB2A4A1A6EDED478B97A428094891ABED DUP9 PUSH2 0x1A7A JUMP JUMPDEST PUSH2 0x8FF PUSH32 0x241ECF16D79D0F8DBFB92CBC07FE17840425976CF0667F022FE9877CAA831B08 DUP10 PUSH2 0x1A7A JUMP JUMPDEST PUSH1 0x0 PUSH20 0xFFFFFFFFFFFFFFFFFFFFFFFFFFFFFFFFFFFFFFFF AND DUP7 PUSH20 0xFFFFFFFFFFFFFFFFFFFFFFFFFFFFFFFFFFFFFFFF AND EQ PUSH2 0x95E JUMPI PUSH2 0x95D PUSH32 0xAF31C50B4AAB7AF0193B792816047837F36C88A23BBB4D0E3581C88CB4BF86AB DUP8 PUSH2 0x1A7A JUMP JUMPDEST JUMPDEST DUP5 PUSH1 0x0 ADD MLOAD PUSH1 0x2 DUP2 SWAP1 SSTORE POP DUP5 PUSH1 0x20 ADD MLOAD PUSH1 0x3 DUP2 SWAP1 SSTORE POP DUP4 PUSH1 0x4 DUP2 SWAP1 SSTORE POP DUP3 PUSH1 0x0 ADD MLOAD PUSH1 0x5 PUSH1 0x0 PUSH2 0x100 EXP DUP2 SLOAD DUP2 PUSH2 0xFFFF MUL NOT AND SWAP1 DUP4 PUSH2 0xFFFF AND MUL OR SWAP1 SSTORE POP DUP3 PUSH1 0x20 ADD MLOAD PUSH1 0x5 PUSH1 0x2 PUSH2 0x100 EXP DUP2 SLOAD DUP2 PUSH2 0xFFFF MUL NOT AND SWAP1 DUP4 PUSH2 0xFFFF AND MUL OR SWAP1 SSTORE POP DUP2 PUSH1 0x6 SWAP1 DUP1 MLOAD SWAP1 PUSH1 0x20 ADD SWAP1 PUSH2 0x9D3 SWAP3 SWAP2 SWAP1 PUSH2 0x239C JUMP JUMPDEST POP DUP1 PUSH1 0x0 ADD MLOAD PUSH1 0x5 PUSH1 0x4 PUSH2 0x100 EXP DUP2 SLOAD DUP2 PUSH1 0xFF MUL NOT AND SWAP1 DUP4 ISZERO ISZERO MUL OR SWAP1 SSTORE POP DUP1 PUSH1 0x20 ADD MLOAD PUSH1 0x5 DUP1 PUSH2 0x100 EXP DUP2 SLOAD DUP2 PUSH1 0xFF MUL NOT AND SWAP1 DUP4 ISZERO ISZERO MUL OR SWAP1 SSTORE POP DUP1 PUSH1 0x40 ADD MLOAD PUSH1 0x5 PUSH1 0x6 PUSH2 0x100 EXP DUP2 SLOAD DUP2 PUSH1 0xFF MUL NOT AND SWAP1 DUP4 ISZERO ISZERO MUL OR SWAP1 SSTORE POP PUSH1 0x1 PUSH1 0x5 PUSH1 0x7 PUSH2 0x100 EXP DUP2 SLOAD DUP2 PUSH1 0xFF MUL NOT AND SWAP1 DUP4 ISZERO ISZERO MUL OR SWAP1 SSTORE POP POP POP POP POP POP POP POP POP JUMP JUMPDEST PUSH2 0xA5A PUSH2 0x1221 JUMP JUMPDEST DUP1 PUSH1 0x6 SWAP1 DUP1 MLOAD SWAP1 PUSH1 0x20 ADD SWAP1 PUSH2 0xA70 SWAP3 SWAP2 SWAP1 PUSH2 0x239C JUMP JUMPDEST POP POP JUMP JUMPDEST PUSH1 0x0 DUP1 PUSH1 0x0 DUP4 DUP2 MSTORE PUSH1 0x20 ADD SWAP1 DUP2 MSTORE PUSH1 0x20 ADD PUSH1 0x0 KECCAK256 PUSH1 0x1 ADD SLOAD SWAP1 POP SWAP2 SWAP1 POP JUMP JUMPDEST PUSH2 0xA9B PUSH2 0x1A88 JUMP JUMPDEST PUSH1 0x0 DUP1 PUSH1 0x0 JUMPDEST PUSH1 0x8 DUP1 SLOAD SWAP1 POP DUP2 LT ISZERO PUSH2 0xB3F JUMPI DUP4 PUSH20 0xFFFFFFFFFFFFFFFFFFFFFFFFFFFFFFFFFFFFFFFF AND PUSH1 0x8 DUP3 DUP2 SLOAD DUP2 LT PUSH2 0xAD9 JUMPI PUSH2 0xAD8 PUSH2 0x35D2 JUMP JUMPDEST JUMPDEST SWAP1 PUSH1 0x0 MSTORE PUSH1 0x20 PUSH1 0x0 KECCAK256 ADD PUSH1 0x0 SWAP1 SLOAD SWAP1 PUSH2 0x100 EXP SWAP1 DIV PUSH20 0xFFFFFFFFFFFFFFFFFFFFFFFFFFFFFFFFFFFFFFFF AND PUSH20 0xFFFFFFFFFFFFFFFFFFFFFFFFFFFFFFFFFFFFFFFF AND EQ ISZERO PUSH2 0xB2C JUMPI PUSH1 0x1 SWAP3 POP DUP1 SWAP2 POP PUSH2 0xB3F JUMP JUMPDEST DUP1 DUP1 PUSH2 0xB37 SWAP1 PUSH2 0x34FC JUMP JUMPDEST SWAP2 POP POP PUSH2 0xAA1 JUMP JUMPDEST POP PUSH1 0x1 ISZERO ISZERO DUP3 ISZERO ISZERO EQ PUSH2 0xB87 JUMPI PUSH1 0x40 MLOAD PUSH32 0x8C379A000000000000000000000000000000000000000000000000000000000 DUP2 MSTORE PUSH1 0x4 ADD PUSH2 0xB7E SWAP1 PUSH2 0x30AF JUMP JUMPDEST PUSH1 0x40 MLOAD DUP1 SWAP2 SUB SWAP1 REVERT JUMPDEST PUSH2 0xBB1 PUSH32 0xAF1DAC7DEA2FD7F7738119CEC7DF099DFAD49AA9D2E7D17BA6B60F63AE7411F DUP5 PUSH2 0xCA9 JUMP JUMPDEST PUSH1 0x8 PUSH1 0x1 PUSH1 0x8 DUP1 SLOAD SWAP1 POP PUSH2 0xBC5 SWAP2 SWAP1 PUSH2 0x336D JUMP JUMPDEST DUP2 SLOAD DUP2 LT PUSH2 0xBD6 JUMPI PUSH2 0xBD5 PUSH2 0x35D2 JUMP JUMPDEST JUMPDEST SWAP1 PUSH1 0x0 MSTORE PUSH1 0x20 PUSH1 0x0 KECCAK256 ADD PUSH1 0x0 SWAP1 SLOAD SWAP1 PUSH2 0x100 EXP SWAP1 DIV PUSH20 0xFFFFFFFFFFFFFFFFFFFFFFFFFFFFFFFFFFFFFFFF AND PUSH1 0x8 DUP3 DUP2 SLOAD DUP2 LT PUSH2 0xC15 JUMPI PUSH2 0xC14 PUSH2 0x35D2 JUMP JUMPDEST JUMPDEST SWAP1 PUSH1 0x0 MSTORE PUSH1 0x20 PUSH1 0x0 KECCAK256 ADD PUSH1 0x0 PUSH2 0x100 EXP DUP2 SLOAD DUP2 PUSH20 0xFFFFFFFFFFFFFFFFFFFFFFFFFFFFFFFFFFFFFFFF MUL NOT AND SWAP1 DUP4 PUSH20 0xFFFFFFFFFFFFFFFFFFFFFFFFFFFFFFFFFFFFFFFF AND MUL OR SWAP1 SSTORE POP PUSH1 0x8 DUP1 SLOAD DUP1 PUSH2 0xC6F JUMPI PUSH2 0xC6E PUSH2 0x35A3 JUMP JUMPDEST JUMPDEST PUSH1 0x1 SWAP1 SUB DUP2 DUP2 SWAP1 PUSH1 0x0 MSTORE PUSH1 0x20 PUSH1 0x0 KECCAK256 ADD PUSH1 0x0 PUSH2 0x100 EXP DUP2 SLOAD SWAP1 PUSH20 0xFFFFFFFFFFFFFFFFFFFFFFFFFFFFFFFFFFFFFFFF MUL NOT AND SWAP1 SSTORE SWAP1 SSTORE POP POP POP JUMP JUMPDEST PUSH2 0xCB2 DUP3 PUSH2 0xA74 JUMP JUMPDEST PUSH2 0xCBB DUP2 PUSH2 0x1AF3 JUMP JUMPDEST PUSH2 0xCC5 DUP4 DUP4 PUSH2 0x1B07 JUMP JUMPDEST POP POP POP JUMP JUMPDEST PUSH2 0xCD2 PUSH2 0x1B3B JUMP JUMPDEST PUSH20 0xFFFFFFFFFFFFFFFFFFFFFFFFFFFFFFFFFFFFFFFF AND DUP2 PUSH20 0xFFFFFFFFFFFFFFFFFFFFFFFFFFFFFFFFFFFFFFFF AND EQ PUSH2 0xD3F JUMPI PUSH1 0x40 MLOAD PUSH32 0x8C379A000000000000000000000000000000000000000000000000000000000 DUP2 MSTORE PUSH1 0x4 ADD PUSH2 0xD36 SWAP1 PUSH2 0x30CF JUMP JUMPDEST PUSH1 0x40 MLOAD DUP1 SWAP2 SUB SWAP1 REVERT JUMPDEST PUSH2 0xD49 DUP3 DUP3 PUSH2 0x1B43 JUMP JUMPDEST POP POP JUMP JUMPDEST PUSH2 0xD55 PUSH2 0x1221 JUMP JUMPDEST DUP1 PUSH1 0x0 ADD MLOAD PUSH1 0x5 PUSH1 0x4 PUSH2 0x100 EXP DUP2 SLOAD DUP2 PUSH1 0xFF MUL NOT AND SWAP1 DUP4 ISZERO ISZERO MUL OR SWAP1 SSTORE POP DUP1 PUSH1 0x20 ADD MLOAD PUSH1 0x5 DUP1 PUSH2 0x100 EXP DUP2 SLOAD DUP2 PUSH1 0xFF MUL NOT AND SWAP1 DUP4 ISZERO ISZERO MUL OR SWAP1 SSTORE POP DUP1 PUSH1 0x40 ADD MLOAD PUSH1 0x5 PUSH1 0x6 PUSH2 0x100 EXP DUP2 SLOAD DUP2 PUSH1 0xFF MUL NOT AND SWAP1 DUP4 ISZERO ISZERO MUL OR SWAP1 SSTORE POP POP JUMP JUMPDEST PUSH2 0xDB9 PUSH2 0x1221 JUMP JUMPDEST PUSH1 0x0 PUSH2 0xDC4 DUP3 PUSH2 0x1B77 JUMP JUMPDEST SWAP1 POP PUSH1 0x7 DUP1 SLOAD SWAP1 POP DUP2 EQ PUSH2 0xEC6 JUMPI PUSH1 0x7 PUSH1 0x1 PUSH1 0x7 DUP1 SLOAD SWAP1 POP PUSH2 0xDE6 SWAP2 SWAP1 PUSH2 0x336D JUMP JUMPDEST DUP2 SLOAD DUP2 LT PUSH2 0xDF7 JUMPI PUSH2 0xDF6 PUSH2 0x35D2 JUMP JUMPDEST JUMPDEST SWAP1 PUSH1 0x0 MSTORE PUSH1 0x20 PUSH1 0x0 KECCAK256 ADD PUSH1 0x0 SWAP1 SLOAD SWAP1 PUSH2 0x100 EXP SWAP1 DIV PUSH20 0xFFFFFFFFFFFFFFFFFFFFFFFFFFFFFFFFFFFFFFFF AND PUSH1 0x7 DUP3 DUP2 SLOAD DUP2 LT PUSH2 0xE36 JUMPI PUSH2 0xE35 PUSH2 0x35D2 JUMP JUMPDEST JUMPDEST SWAP1 PUSH1 0x0 MSTORE PUSH1 0x20 PUSH1 0x0 KECCAK256 ADD PUSH1 0x0 PUSH2 0x100 EXP DUP2 SLOAD DUP2 PUSH20 0xFFFFFFFFFFFFFFFFFFFFFFFFFFFFFFFFFFFFFFFF MUL NOT AND SWAP1 DUP4 PUSH20 0xFFFFFFFFFFFFFFFFFFFFFFFFFFFFFFFFFFFFFFFF AND MUL OR SWAP1 SSTORE POP PUSH1 0x7 DUP1 SLOAD DUP1 PUSH2 0xE90 JUMPI PUSH2 0xE8F PUSH2 0x35A3 JUMP JUMPDEST JUMPDEST PUSH1 0x1 SWAP1 SUB DUP2 DUP2 SWAP1 PUSH1 0x0 MSTORE PUSH1 0x20 PUSH1 0x0 KECCAK256 ADD PUSH1 0x0 PUSH2 0x100 EXP DUP2 SLOAD SWAP1 PUSH20 0xFFFFFFFFFFFFFFFFFFFFFFFFFFFFFFFFFFFFFFFF MUL NOT AND SWAP1 SSTORE SWAP1 SSTORE JUMPDEST POP POP JUMP JUMPDEST PUSH2 0xED2 PUSH2 0x23FC JUMP JUMPDEST PUSH1 0x0 PUSH2 0xEDC PUSH2 0x241C JUMP JUMPDEST PUSH1 0x60 PUSH2 0xEE6 PUSH2 0x243E JUMP JUMPDEST PUSH1 0x60 DUP1 PUSH2 0xEF1 PUSH2 0x654 JUMP JUMPDEST PUSH1 0x0 PUSH1 0x6 DUP1 SLOAD DUP1 PUSH1 0x20 MUL PUSH1 0x20 ADD PUSH1 0x40 MLOAD SWAP1 DUP2 ADD PUSH1 0x40 MSTORE DUP1 SWAP3 SWAP2 SWAP1 DUP2 DUP2 MSTORE PUSH1 0x20 ADD PUSH1 0x0 SWAP1 JUMPDEST DUP3 DUP3 LT ISZERO PUSH2 0xFC1 JUMPI DUP4 DUP3 SWAP1 PUSH1 0x0 MSTORE PUSH1 0x20 PUSH1 0x0 KECCAK256 ADD DUP1 SLOAD PUSH2 0xF34 SWAP1 PUSH2 0x3499 JUMP JUMPDEST DUP1 PUSH1 0x1F ADD PUSH1 0x20 DUP1 SWAP2 DIV MUL PUSH1 0x20 ADD PUSH1 0x40 MLOAD SWAP1 DUP2 ADD PUSH1 0x40 MSTORE DUP1 SWAP3 SWAP2 SWAP1 DUP2 DUP2 MSTORE PUSH1 0x20 ADD DUP3 DUP1 SLOAD PUSH2 0xF60 SWAP1 PUSH2 0x3499 JUMP JUMPDEST DUP1 ISZERO PUSH2 0xFAD JUMPI DUP1 PUSH1 0x1F LT PUSH2 0xF82 JUMPI PUSH2 0x100 DUP1 DUP4 SLOAD DIV MUL DUP4 MSTORE SWAP2 PUSH1 0x20 ADD SWAP2 PUSH2 0xFAD JUMP JUMPDEST DUP3 ADD SWAP2 SWAP1 PUSH1 0x0 MSTORE PUSH1 0x20 PUSH1 0x0 KECCAK256 SWAP1 JUMPDEST DUP2 SLOAD DUP2 MSTORE SWAP1 PUSH1 0x1 ADD SWAP1 PUSH1 0x20 ADD DUP1 DUP4 GT PUSH2 0xF90 JUMPI DUP3 SWAP1 SUB PUSH1 0x1F AND DUP3 ADD SWAP2 JUMPDEST POP POP POP POP POP DUP2 MSTORE PUSH1 0x20 ADD SWAP1 PUSH1 0x1 ADD SWAP1 PUSH2 0xF15 JUMP JUMPDEST POP POP POP POP SWAP1 POP PUSH1 0x0 PUSH1 0x7 DUP1 SLOAD SWAP1 POP PUSH8 0xFFFFFFFFFFFFFFFF DUP2 GT ISZERO PUSH2 0xFE8 JUMPI PUSH2 0xFE7 PUSH2 0x3601 JUMP JUMPDEST JUMPDEST PUSH1 0x40 MLOAD SWAP1 DUP1 DUP3 MSTORE DUP1 PUSH1 0x20 MUL PUSH1 0x20 ADD DUP3 ADD PUSH1 0x40 MSTORE DUP1 ISZERO PUSH2 0x1016 JUMPI DUP2 PUSH1 0x20 ADD PUSH1 0x20 DUP3 MUL DUP1 CALLDATASIZE DUP4 CALLDATACOPY DUP1 DUP3 ADD SWAP2 POP POP SWAP1 POP JUMPDEST POP SWAP1 POP PUSH1 0x0 JUMPDEST DUP2 MLOAD DUP2 LT ISZERO PUSH2 0x10C4 JUMPI PUSH1 0x7 DUP2 DUP2 SLOAD DUP2 LT PUSH2 0x1039 JUMPI PUSH2 0x1038 PUSH2 0x35D2 JUMP JUMPDEST JUMPDEST SWAP1 PUSH1 0x0 MSTORE PUSH1 0x20 PUSH1 0x0 KECCAK256 ADD PUSH1 0x0 SWAP1 SLOAD SWAP1 PUSH2 0x100 EXP SWAP1 DIV PUSH20 0xFFFFFFFFFFFFFFFFFFFFFFFFFFFFFFFFFFFFFFFF AND DUP3 DUP3 DUP2 MLOAD DUP2 LT PUSH2 0x1077 JUMPI PUSH2 0x1076 PUSH2 0x35D2 JUMP JUMPDEST JUMPDEST PUSH1 0x20 MUL PUSH1 0x20 ADD ADD SWAP1 PUSH20 0xFFFFFFFFFFFFFFFFFFFFFFFFFFFFFFFFFFFFFFFF AND SWAP1 DUP2 PUSH20 0xFFFFFFFFFFFFFFFFFFFFFFFFFFFFFFFFFFFFFFFF AND DUP2 MSTORE POP POP DUP1 DUP1 PUSH2 0x10BC SWAP1 PUSH2 0x34FC JUMP JUMPDEST SWAP2 POP POP PUSH2 0x101C JUMP JUMPDEST POP PUSH1 0x40 MLOAD DUP1 PUSH1 0x40 ADD PUSH1 0x40 MSTORE DUP1 PUSH1 0x2 SLOAD DUP2 MSTORE PUSH1 0x20 ADD PUSH1 0x3 SLOAD DUP2 MSTORE POP PUSH1 0x4 SLOAD PUSH1 0x40 MLOAD DUP1 PUSH1 0x40 ADD PUSH1 0x40 MSTORE DUP1 PUSH1 0x5 PUSH1 0x0 SWAP1 SLOAD SWAP1 PUSH2 0x100 EXP SWAP1 DIV PUSH2 0xFFFF AND PUSH2 0xFFFF AND DUP2 MSTORE PUSH1 0x20 ADD PUSH1 0x5 PUSH1 0x2 SWAP1 SLOAD SWAP1 PUSH2 0x100 EXP SWAP1 DIV PUSH2 0xFFFF AND PUSH2 0xFFFF AND DUP2 MSTORE POP DUP5 PUSH1 0x40 MLOAD DUP1 PUSH1 0x60 ADD PUSH1 0x40 MSTORE DUP1 PUSH1 0x5 PUSH1 0x4 SWAP1 SLOAD SWAP1 PUSH2 0x100 EXP SWAP1 DIV PUSH1 0xFF AND ISZERO ISZERO DUP2 MSTORE PUSH1 0x20 ADD PUSH1 0x5 DUP1 SLOAD SWAP1 PUSH2 0x100 EXP SWAP1 DIV PUSH1 0xFF AND ISZERO ISZERO DUP2 MSTORE PUSH1 0x20 ADD PUSH1 0x5 PUSH1 0x6 SWAP1 SLOAD SWAP1 PUSH2 0x100 EXP SWAP1 DIV PUSH1 0xFF AND ISZERO ISZERO DUP2 MSTORE POP DUP6 PUSH1 0x8 DUP1 DUP1 SLOAD DUP1 PUSH1 0x20 MUL PUSH1 0x20 ADD PUSH1 0x40 MLOAD SWAP1 DUP2 ADD PUSH1 0x40 MSTORE DUP1 SWAP3 SWAP2 SWAP1 DUP2 DUP2 MSTORE PUSH1 0x20 ADD DUP3 DUP1 SLOAD DUP1 ISZERO PUSH2 0x11EF JUMPI PUSH1 0x20 MUL DUP3 ADD SWAP2 SWAP1 PUSH1 0x0 MSTORE PUSH1 0x20 PUSH1 0x0 KECCAK256 SWAP1 JUMPDEST DUP2 PUSH1 0x0 SWAP1 SLOAD SWAP1 PUSH2 0x100 EXP SWAP1 DIV PUSH20 0xFFFFFFFFFFFFFFFFFFFFFFFFFFFFFFFFFFFFFFFF AND PUSH20 0xFFFFFFFFFFFFFFFFFFFFFFFFFFFFFFFFFFFFFFFF AND DUP2 MSTORE PUSH1 0x20 ADD SWAP1 PUSH1 0x1 ADD SWAP1 DUP1 DUP4 GT PUSH2 0x11A5 JUMPI JUMPDEST POP POP POP POP POP SWAP1 POP SWAP9 POP SWAP9 POP SWAP9 POP SWAP9 POP SWAP9 POP SWAP9 POP SWAP9 POP POP POP SWAP1 SWAP2 SWAP3 SWAP4 SWAP5 SWAP6 SWAP7 JUMP JUMPDEST PUSH2 0x1217 PUSH2 0x1A88 JUMP JUMPDEST DUP1 PUSH1 0x2 DUP2 SWAP1 SSTORE POP POP JUMP JUMPDEST PUSH2 0x124B PUSH32 0xAF1DAC7DEA2FD7F7738119CEC7DF099DFAD49AA9D2E7D17BA6B60F63AE7411F CALLER PUSH2 0x14C6 JUMP JUMPDEST DUP1 PUSH2 0x127C JUMPI POP PUSH2 0x127B PUSH32 0x72606200FAC42B7DC86B75901D61ECFAB2A4A1A6EDED478B97A428094891ABED CALLER PUSH2 0x14C6 JUMP JUMPDEST JUMPDEST DUP1 PUSH2 0x12AD JUMPI POP PUSH2 0x12AC PUSH32 0x241ECF16D79D0F8DBFB92CBC07FE17840425976CF0667F022FE9877CAA831B08 CALLER PUSH2 0x14C6 JUMP JUMPDEST JUMPDEST DUP1 PUSH2 0x12DE JUMPI POP PUSH2 0x12DD PUSH32 0xAF31C50B4AAB7AF0193B792816047837F36C88A23BBB4D0E3581C88CB4BF86AB CALLER PUSH2 0x14C6 JUMP JUMPDEST JUMPDEST PUSH2 0x131D JUMPI PUSH1 0x40 MLOAD PUSH32 0x8C379A000000000000000000000000000000000000000000000000000000000 DUP2 MSTORE PUSH1 0x4 ADD PUSH2 0x1314 SWAP1 PUSH2 0x302F JUMP JUMPDEST PUSH1 0x40 MLOAD DUP1 SWAP2 SUB SWAP1 REVERT JUMPDEST JUMP JUMPDEST PUSH2 0x1327 PUSH2 0x1A88 JUMP JUMPDEST DUP1 PUSH1 0x3 DUP2 SWAP1 SSTORE POP POP JUMP JUMPDEST PUSH2 0x1339 PUSH2 0x1A88 JUMP JUMPDEST DUP1 PUSH1 0x4 DUP2 SWAP1 SSTORE POP POP JUMP JUMPDEST PUSH1 0x0 PUSH2 0x134D PUSH2 0x1221 JUMP JUMPDEST PUSH2 0x1377 PUSH32 0xAF1DAC7DEA2FD7F7738119CEC7DF099DFAD49AA9D2E7D17BA6B60F63AE7411F DUP4 PUSH2 0x14C6 JUMP JUMPDEST SWAP1 POP SWAP2 SWAP1 POP JUMP JUMPDEST PUSH2 0x1386 PUSH2 0x1A88 JUMP JUMPDEST PUSH1 0x9 PUSH1 0x0 DUP3 PUSH20 0xFFFFFFFFFFFFFFFFFFFFFFFFFFFFFFFFFFFFFFFF AND PUSH20 0xFFFFFFFFFFFFFFFFFFFFFFFFFFFFFFFFFFFFFFFF AND DUP2 MSTORE PUSH1 0x20 ADD SWAP1 DUP2 MSTORE PUSH1 0x20 ADD PUSH1 0x0 KECCAK256 PUSH1 0x0 SWAP1 SLOAD SWAP1 PUSH2 0x100 EXP SWAP1 DIV PUSH1 0xFF AND PUSH2 0x1412 JUMPI PUSH1 0x40 MLOAD PUSH32 0x8C379A000000000000000000000000000000000000000000000000000000000 DUP2 MSTORE PUSH1 0x4 ADD PUSH2 0x1409 SWAP1 PUSH2 0x304F JUMP JUMPDEST PUSH1 0x40 MLOAD DUP1 SWAP2 SUB SWAP1 REVERT JUMPDEST PUSH2 0x143C PUSH32 0xAF1DAC7DEA2FD7F7738119CEC7DF099DFAD49AA9D2E7D17BA6B60F63AE7411F DUP3 PUSH2 0x17F1 JUMP JUMPDEST PUSH1 0x0 PUSH1 0x9 PUSH1 0x0 DUP4 PUSH20 0xFFFFFFFFFFFFFFFFFFFFFFFFFFFFFFFFFFFFFFFF AND PUSH20 0xFFFFFFFFFFFFFFFFFFFFFFFFFFFFFFFFFFFFFFFF AND DUP2 MSTORE PUSH1 0x20 ADD SWAP1 DUP2 MSTORE PUSH1 0x20 ADD PUSH1 0x0 KECCAK256 PUSH1 0x0 PUSH2 0x100 EXP DUP2 SLOAD DUP2 PUSH1 0xFF MUL NOT AND SWAP1 DUP4 ISZERO ISZERO MUL OR SWAP1 SSTORE POP POP JUMP JUMPDEST PUSH1 0x0 PUSH2 0x14BE DUP3 PUSH1 0x1 PUSH1 0x0 DUP7 DUP2 MSTORE PUSH1 0x20 ADD SWAP1 DUP2 MSTORE PUSH1 0x20 ADD PUSH1 0x0 KECCAK256 PUSH2 0x1C26 SWAP1 SWAP2 SWAP1 PUSH4 0xFFFFFFFF AND JUMP JUMPDEST SWAP1 POP SWAP3 SWAP2 POP POP JUMP JUMPDEST PUSH1 0x0 DUP1 PUSH1 0x0 DUP5 DUP2 MSTORE PUSH1 0x20 ADD SWAP1 DUP2 MSTORE PUSH1 0x20 ADD PUSH1 0x0 KECCAK256 PUSH1 0x0 ADD PUSH1 0x0 DUP4 PUSH20 0xFFFFFFFFFFFFFFFFFFFFFFFFFFFFFFFFFFFFFFFF AND PUSH20 0xFFFFFFFFFFFFFFFFFFFFFFFFFFFFFFFFFFFFFFFF AND DUP2 MSTORE PUSH1 0x20 ADD SWAP1 DUP2 MSTORE PUSH1 0x20 ADD PUSH1 0x0 KECCAK256 PUSH1 0x0 SWAP1 SLOAD SWAP1 PUSH2 0x100 EXP SWAP1 DIV PUSH1 0xFF AND SWAP1 POP SWAP3 SWAP2 POP POP JUMP JUMPDEST PUSH1 0x9 PUSH1 0x0 DUP3 PUSH20 0xFFFFFFFFFFFFFFFFFFFFFFFFFFFFFFFFFFFFFFFF AND PUSH20 0xFFFFFFFFFFFFFFFFFFFFFFFFFFFFFFFFFFFFFFFF AND DUP2 MSTORE PUSH1 0x20 ADD SWAP1 DUP2 MSTORE PUSH1 0x20 ADD PUSH1 0x0 KECCAK256 PUSH1 0x0 SWAP1 SLOAD SWAP1 PUSH2 0x100 EXP SWAP1 DIV PUSH1 0xFF AND ISZERO PUSH2 0x15BD JUMPI PUSH1 0x40 MLOAD PUSH32 0x8C379A000000000000000000000000000000000000000000000000000000000 DUP2 MSTORE PUSH1 0x4 ADD PUSH2 0x15B4 SWAP1 PUSH2 0x2FEF JUMP JUMPDEST PUSH1 0x40 MLOAD DUP1 SWAP2 SUB SWAP1 REVERT JUMPDEST PUSH1 0x8 DUP2 SWAP1 DUP1 PUSH1 0x1 DUP2 SLOAD ADD DUP1 DUP3 SSTORE DUP1 SWAP2 POP POP PUSH1 0x1 SWAP1 SUB SWAP1 PUSH1 0x0 MSTORE PUSH1 0x20 PUSH1 0x0 KECCAK256 ADD PUSH1 0x0 SWAP1 SWAP2 SWAP1 SWAP2 SWAP1 SWAP2 PUSH2 0x100 EXP DUP2 SLOAD DUP2 PUSH20 0xFFFFFFFFFFFFFFFFFFFFFFFFFFFFFFFFFFFFFFFF MUL NOT AND SWAP1 DUP4 PUSH20 0xFFFFFFFFFFFFFFFFFFFFFFFFFFFFFFFFFFFFFFFF AND MUL OR SWAP1 SSTORE POP PUSH1 0x1 PUSH1 0x9 PUSH1 0x0 DUP4 PUSH20 0xFFFFFFFFFFFFFFFFFFFFFFFFFFFFFFFFFFFFFFFF AND PUSH20 0xFFFFFFFFFFFFFFFFFFFFFFFFFFFFFFFFFFFFFFFF AND DUP2 MSTORE PUSH1 0x20 ADD SWAP1 DUP2 MSTORE PUSH1 0x20 ADD PUSH1 0x0 KECCAK256 PUSH1 0x0 PUSH2 0x100 EXP DUP2 SLOAD DUP2 PUSH1 0xFF MUL NOT AND SWAP1 DUP4 ISZERO ISZERO MUL OR SWAP1 SSTORE POP POP JUMP JUMPDEST PUSH1 0x60 PUSH2 0x1685 PUSH2 0x1A88 JUMP JUMPDEST PUSH1 0x8 DUP1 SLOAD DUP1 PUSH1 0x20 MUL PUSH1 0x20 ADD PUSH1 0x40 MLOAD SWAP1 DUP2 ADD PUSH1 0x40 MSTORE DUP1 SWAP3 SWAP2 SWAP1 DUP2 DUP2 MSTORE PUSH1 0x20 ADD DUP3 DUP1 SLOAD DUP1 ISZERO PUSH2 0x1707 JUMPI PUSH1 0x20 MUL DUP3 ADD SWAP2 SWAP1 PUSH1 0x0 MSTORE PUSH1 0x20 PUSH1 0x0 KECCAK256 SWAP1 JUMPDEST DUP2 PUSH1 0x0 SWAP1 SLOAD SWAP1 PUSH2 0x100 EXP SWAP1 DIV PUSH20 0xFFFFFFFFFFFFFFFFFFFFFFFFFFFFFFFFFFFFFFFF AND PUSH20 0xFFFFFFFFFFFFFFFFFFFFFFFFFFFFFFFFFFFFFFFF AND DUP2 MSTORE PUSH1 0x20 ADD SWAP1 PUSH1 0x1 ADD SWAP1 DUP1 DUP4 GT PUSH2 0x16BD JUMPI JUMPDEST POP POP POP POP POP SWAP1 POP SWAP1 JUMP JUMPDEST PUSH1 0x0 DUP1 SHL DUP2 JUMP JUMPDEST PUSH32 0x72606200FAC42B7DC86B75901D61ECFAB2A4A1A6EDED478B97A428094891ABED DUP2 JUMP JUMPDEST PUSH1 0x0 PUSH2 0x1759 PUSH1 0x1 PUSH1 0x0 DUP5 DUP2 MSTORE PUSH1 0x20 ADD SWAP1 DUP2 MSTORE PUSH1 0x20 ADD PUSH1 0x0 KECCAK256 PUSH2 0x1C40 JUMP JUMPDEST SWAP1 POP SWAP2 SWAP1 POP JUMP JUMPDEST PUSH32 0xAF31C50B4AAB7AF0193B792816047837F36C88A23BBB4D0E3581C88CB4BF86AB PUSH2 0x178A DUP2 PUSH2 0x1AF3 JUMP JUMPDEST PUSH1 0x7 DUP3 SWAP1 DUP1 PUSH1 0x1 DUP2 SLOAD ADD DUP1 DUP3 SSTORE DUP1 SWAP2 POP POP PUSH1 0x1 SWAP1 SUB SWAP1 PUSH1 0x0 MSTORE PUSH1 0x20 PUSH1 0x0 KECCAK256 ADD PUSH1 0x0 SWAP1 SWAP2 SWAP1 SWAP2 SWAP1 SWAP2 PUSH2 0x100 EXP DUP2 SLOAD DUP2 PUSH20 0xFFFFFFFFFFFFFFFFFFFFFFFFFFFFFFFFFFFFFFFF MUL NOT AND SWAP1 DUP4 PUSH20 0xFFFFFFFFFFFFFFFFFFFFFFFFFFFFFFFFFFFFFFFF AND MUL OR SWAP1 SSTORE POP POP POP JUMP JUMPDEST PUSH2 0x17FA DUP3 PUSH2 0xA74 JUMP JUMPDEST PUSH2 0x1803 DUP2 PUSH2 0x1AF3 JUMP JUMPDEST PUSH2 0x180D DUP4 DUP4 PUSH2 0x1B43 JUMP JUMPDEST POP POP POP JUMP JUMPDEST PUSH1 0xA PUSH1 0x0 DUP3 PUSH20 0xFFFFFFFFFFFFFFFFFFFFFFFFFFFFFFFFFFFFFFFF AND PUSH20 0xFFFFFFFFFFFFFFFFFFFFFFFFFFFFFFFFFFFFFFFF AND DUP2 MSTORE PUSH1 0x20 ADD SWAP1 DUP2 MSTORE PUSH1 0x20 ADD PUSH1 0x0 KECCAK256 PUSH1 0x0 SWAP1 SLOAD SWAP1 PUSH2 0x100 EXP SWAP1 DIV PUSH1 0xFF AND ISZERO PUSH2 0x189F JUMPI PUSH1 0x40 MLOAD PUSH32 0x8C379A000000000000000000000000000000000000000000000000000000000 DUP2 MSTORE PUSH1 0x4 ADD PUSH2 0x1896 SWAP1 PUSH2 0x2FEF JUMP JUMPDEST PUSH1 0x40 MLOAD DUP1 SWAP2 SUB SWAP1 REVERT JUMPDEST PUSH1 0x8 DUP2 SWAP1 DUP1 PUSH1 0x1 DUP2 SLOAD ADD DUP1 DUP3 SSTORE DUP1 SWAP2 POP POP PUSH1 0x1 SWAP1 SUB SWAP1 PUSH1 0x0 MSTORE PUSH1 0x20 PUSH1 0x0 KECCAK256 ADD PUSH1 0x0 SWAP1 SWAP2 SWAP1 SWAP2 SWAP1 SWAP2 PUSH2 0x100 EXP DUP2 SLOAD DUP2 PUSH20 0xFFFFFFFFFFFFFFFFFFFFFFFFFFFFFFFFFFFFFFFF MUL NOT AND SWAP1 DUP4 PUSH20 0xFFFFFFFFFFFFFFFFFFFFFFFFFFFFFFFFFFFFFFFF AND MUL OR SWAP1 SSTORE POP PUSH1 0x1 PUSH1 0xA PUSH1 0x0 DUP4 PUSH20 0xFFFFFFFFFFFFFFFFFFFFFFFFFFFFFFFFFFFFFFFF AND PUSH20 0xFFFFFFFFFFFFFFFFFFFFFFFFFFFFFFFFFFFFFFFF AND DUP2 MSTORE PUSH1 0x20 ADD SWAP1 DUP2 MSTORE PUSH1 0x20 ADD PUSH1 0x0 KECCAK256 PUSH1 0x0 PUSH2 0x100 EXP DUP2 SLOAD DUP2 PUSH1 0xFF MUL NOT AND SWAP1 DUP4 ISZERO ISZERO MUL OR SWAP1 SSTORE POP POP JUMP JUMPDEST PUSH32 0x241ECF16D79D0F8DBFB92CBC07FE17840425976CF0667F022FE9877CAA831B08 DUP2 JUMP JUMPDEST PUSH32 0xAF1DAC7DEA2FD7F7738119CEC7DF099DFAD49AA9D2E7D17BA6B60F63AE7411F DUP2 JUMP JUMPDEST PUSH1 0x0 PUSH32 0x7965DB0B00000000000000000000000000000000000000000000000000000000 PUSH28 0xFFFFFFFFFFFFFFFFFFFFFFFFFFFFFFFFFFFFFFFFFFFFFFFFFFFFFFFF NOT AND DUP3 PUSH28 0xFFFFFFFFFFFFFFFFFFFFFFFFFFFFFFFFFFFFFFFFFFFFFFFFFFFFFFFF NOT AND EQ DUP1 PUSH2 0x1A18 JUMPI POP PUSH2 0x1A17 DUP3 PUSH2 0x1C55 JUMP JUMPDEST JUMPDEST SWAP1 POP SWAP2 SWAP1 POP JUMP JUMPDEST PUSH1 0x0 PUSH2 0x1A2A DUP4 PUSH2 0xA74 JUMP JUMPDEST SWAP1 POP DUP2 PUSH1 0x0 DUP1 DUP6 DUP2 MSTORE PUSH1 0x20 ADD SWAP1 DUP2 MSTORE PUSH1 0x20 ADD PUSH1 0x0 KECCAK256 PUSH1 0x1 ADD DUP2 SWAP1 SSTORE POP DUP2 DUP2 DUP5 PUSH32 0xBD79B86FFE0AB8E8776151514217CD7CACD52C909F66475C3AF44E129F0B00FF PUSH1 0x40 MLOAD PUSH1 0x40 MLOAD DUP1 SWAP2 SUB SWAP1 LOG4 POP POP POP JUMP JUMPDEST PUSH2 0x1A84 DUP3 DUP3 PUSH2 0x1B07 JUMP JUMPDEST POP POP JUMP JUMPDEST PUSH2 0x1AB2 PUSH32 0x72606200FAC42B7DC86B75901D61ECFAB2A4A1A6EDED478B97A428094891ABED CALLER PUSH2 0x14C6 JUMP JUMPDEST PUSH2 0x1AF1 JUMPI PUSH1 0x40 MLOAD PUSH32 0x8C379A000000000000000000000000000000000000000000000000000000000 DUP2 MSTORE PUSH1 0x4 ADD PUSH2 0x1AE8 SWAP1 PUSH2 0x306F JUMP JUMPDEST PUSH1 0x40 MLOAD DUP1 SWAP2 SUB SWAP1 REVERT JUMPDEST JUMP JUMPDEST PUSH2 0x1B04 DUP2 PUSH2 0x1AFF PUSH2 0x1B3B JUMP JUMPDEST PUSH2 0x1CBF JUMP JUMPDEST POP JUMP JUMPDEST PUSH2 0x1B11 DUP3 DUP3 PUSH2 0x1D5C JUMP JUMPDEST PUSH2 0x1B36 DUP2 PUSH1 0x1 PUSH1 0x0 DUP6 DUP2 MSTORE PUSH1 0x20 ADD SWAP1 DUP2 MSTORE PUSH1 0x20 ADD PUSH1 0x0 KECCAK256 PUSH2 0x1E3C SWAP1 SWAP2 SWAP1 PUSH4 0xFFFFFFFF AND JUMP JUMPDEST POP POP POP JUMP JUMPDEST PUSH1 0x0 CALLER SWAP1 POP SWAP1 JUMP JUMPDEST PUSH2 0x1B4D DUP3 DUP3 PUSH2 0x1E6C JUMP JUMPDEST PUSH2 0x1B72 DUP2 PUSH1 0x1 PUSH1 0x0 DUP6 DUP2 MSTORE PUSH1 0x20 ADD SWAP1 DUP2 MSTORE PUSH1 0x20 ADD PUSH1 0x0 KECCAK256 PUSH2 0x1F4D SWAP1 SWAP2 SWAP1 PUSH4 0xFFFFFFFF AND JUMP JUMPDEST POP POP POP JUMP JUMPDEST PUSH1 0x0 DUP1 PUSH1 0x7 DUP1 SLOAD SWAP1 POP SWAP1 POP PUSH1 0x0 JUMPDEST DUP2 DUP2 LT ISZERO PUSH2 0x1C16 JUMPI DUP4 PUSH20 0xFFFFFFFFFFFFFFFFFFFFFFFFFFFFFFFFFFFFFFFF AND PUSH1 0x7 DUP3 DUP2 SLOAD DUP2 LT PUSH2 0x1BB8 JUMPI PUSH2 0x1BB7 PUSH2 0x35D2 JUMP JUMPDEST JUMPDEST SWAP1 PUSH1 0x0 MSTORE PUSH1 0x20 PUSH1 0x0 KECCAK256 ADD PUSH1 0x0 SWAP1 SLOAD SWAP1 PUSH2 0x100 EXP SWAP1 DIV PUSH20 0xFFFFFFFFFFFFFFFFFFFFFFFFFFFFFFFFFFFFFFFF AND PUSH20 0xFFFFFFFFFFFFFFFFFFFFFFFFFFFFFFFFFFFFFFFF AND EQ ISZERO PUSH2 0x1C09 JUMPI DUP1 SWAP3 POP POP POP PUSH2 0x1C21 JUMP JUMPDEST DUP1 DUP1 PUSH1 0x1 ADD SWAP2 POP POP PUSH2 0x1B85 JUMP JUMPDEST POP PUSH1 0x7 DUP1 SLOAD SWAP1 POP SWAP2 POP POP JUMPDEST SWAP2 SWAP1 POP JUMP JUMPDEST PUSH1 0x0 PUSH2 0x1C35 DUP4 PUSH1 0x0 ADD DUP4 PUSH2 0x1F7D JUMP JUMPDEST PUSH1 0x0 SHR SWAP1 POP SWAP3 SWAP2 POP POP JUMP JUMPDEST PUSH1 0x0 PUSH2 0x1C4E DUP3 PUSH1 0x0 ADD PUSH2 0x1FA8 JUMP JUMPDEST SWAP1 POP SWAP2 SWAP1 POP JUMP JUMPDEST PUSH1 0x0 PUSH32 0x1FFC9A700000000000000000000000000000000000000000000000000000000 PUSH28 0xFFFFFFFFFFFFFFFFFFFFFFFFFFFFFFFFFFFFFFFFFFFFFFFFFFFFFFFF NOT AND DUP3 PUSH28 0xFFFFFFFFFFFFFFFFFFFFFFFFFFFFFFFFFFFFFFFFFFFFFFFFFFFFFFFF NOT AND EQ SWAP1 POP SWAP2 SWAP1 POP JUMP JUMPDEST PUSH2 0x1CC9 DUP3 DUP3 PUSH2 0x14C6 JUMP JUMPDEST PUSH2 0x1D58 JUMPI PUSH2 0x1CEE DUP2 PUSH20 0xFFFFFFFFFFFFFFFFFFFFFFFFFFFFFFFFFFFFFFFF AND PUSH1 0x14 PUSH2 0x1FB9 JUMP JUMPDEST PUSH2 0x1CFC DUP4 PUSH1 0x0 SHR PUSH1 0x20 PUSH2 0x1FB9 JUMP JUMPDEST PUSH1 0x40 MLOAD PUSH1 0x20 ADD PUSH2 0x1D0D SWAP3 SWAP2 SWAP1 PUSH2 0x2F00 JUMP JUMPDEST PUSH1 0x40 MLOAD PUSH1 0x20 DUP2 DUP4 SUB SUB DUP2 MSTORE SWAP1 PUSH1 0x40 MSTORE PUSH1 0x40 MLOAD PUSH32 0x8C379A000000000000000000000000000000000000000000000000000000000 DUP2 MSTORE PUSH1 0x4 ADD PUSH2 0x1D4F SWAP2 SWAP1 PUSH2 0x2FAD JUMP JUMPDEST PUSH1 0x40 MLOAD DUP1 SWAP2 SUB SWAP1 REVERT JUMPDEST POP POP JUMP JUMPDEST PUSH2 0x1D66 DUP3 DUP3 PUSH2 0x14C6 JUMP JUMPDEST PUSH2 0x1E38 JUMPI PUSH1 0x1 PUSH1 0x0 DUP1 DUP5 DUP2 MSTORE PUSH1 0x20 ADD SWAP1 DUP2 MSTORE PUSH1 0x20 ADD PUSH1 0x0 KECCAK256 PUSH1 0x0 ADD PUSH1 0x0 DUP4 PUSH20 0xFFFFFFFFFFFFFFFFFFFFFFFFFFFFFFFFFFFFFFFF AND PUSH20 0xFFFFFFFFFFFFFFFFFFFFFFFFFFFFFFFFFFFFFFFF AND DUP2 MSTORE PUSH1 0x20 ADD SWAP1 DUP2 MSTORE PUSH1 0x20 ADD PUSH1 0x0 KECCAK256 PUSH1 0x0 PUSH2 0x100 EXP DUP2 SLOAD DUP2 PUSH1 0xFF MUL NOT AND SWAP1 DUP4 ISZERO ISZERO MUL OR SWAP1 SSTORE POP PUSH2 0x1DDD PUSH2 0x1B3B JUMP JUMPDEST PUSH20 0xFFFFFFFFFFFFFFFFFFFFFFFFFFFFFFFFFFFFFFFF AND DUP2 PUSH20 0xFFFFFFFFFFFFFFFFFFFFFFFFFFFFFFFFFFFFFFFF AND DUP4 PUSH32 0x2F8788117E7EFF1D82E926EC794901D17C78024A50270940304540A733656F0D PUSH1 0x40 MLOAD PUSH1 0x40 MLOAD DUP1 SWAP2 SUB SWAP1 LOG4 JUMPDEST POP POP JUMP JUMPDEST PUSH1 0x0 PUSH2 0x1E64 DUP4 PUSH1 0x0 ADD DUP4 PUSH20 0xFFFFFFFFFFFFFFFFFFFFFFFFFFFFFFFFFFFFFFFF AND PUSH1 0x0 SHL PUSH2 0x21F5 JUMP JUMPDEST SWAP1 POP SWAP3 SWAP2 POP POP JUMP JUMPDEST PUSH2 0x1E76 DUP3 DUP3 PUSH2 0x14C6 JUMP JUMPDEST ISZERO PUSH2 0x1F49 JUMPI PUSH1 0x0 DUP1 PUSH1 0x0 DUP5 DUP2 MSTORE PUSH1 0x20 ADD SWAP1 DUP2 MSTORE PUSH1 0x20 ADD PUSH1 0x0 KECCAK256 PUSH1 0x0 ADD PUSH1 0x0 DUP4 PUSH20 0xFFFFFFFFFFFFFFFFFFFFFFFFFFFFFFFFFFFFFFFF AND PUSH20 0xFFFFFFFFFFFFFFFFFFFFFFFFFFFFFFFFFFFFFFFF AND DUP2 MSTORE PUSH1 0x20 ADD SWAP1 DUP2 MSTORE PUSH1 0x20 ADD PUSH1 0x0 KECCAK256 PUSH1 0x0 PUSH2 0x100 EXP DUP2 SLOAD DUP2 PUSH1 0xFF MUL NOT AND SWAP1 DUP4 ISZERO ISZERO MUL OR SWAP1 SSTORE POP PUSH2 0x1EEE PUSH2 0x1B3B JUMP JUMPDEST PUSH20 0xFFFFFFFFFFFFFFFFFFFFFFFFFFFFFFFFFFFFFFFF AND DUP2 PUSH20 0xFFFFFFFFFFFFFFFFFFFFFFFFFFFFFFFFFFFFFFFF AND DUP4 PUSH32 0xF6391F5C32D9C69D2A47EA670B442974B53935D1EDC7FD64EB21E047A839171B PUSH1 0x40 MLOAD PUSH1 0x40 MLOAD DUP1 SWAP2 SUB SWAP1 LOG4 JUMPDEST POP POP JUMP JUMPDEST PUSH1 0x0 PUSH2 0x1F75 DUP4 PUSH1 0x0 ADD DUP4 PUSH20 0xFFFFFFFFFFFFFFFFFFFFFFFFFFFFFFFFFFFFFFFF AND PUSH1 0x0 SHL PUSH2 0x2265 JUMP JUMPDEST SWAP1 POP SWAP3 SWAP2 POP POP JUMP JUMPDEST PUSH1 0x0 DUP3 PUSH1 0x0 ADD DUP3 DUP2 SLOAD DUP2 LT PUSH2 0x1F95 JUMPI PUSH2 0x1F94 PUSH2 0x35D2 JUMP JUMPDEST JUMPDEST SWAP1 PUSH1 0x0 MSTORE PUSH1 0x20 PUSH1 0x0 KECCAK256 ADD SLOAD SWAP1 POP SWAP3 SWAP2 POP POP JUMP JUMPDEST PUSH1 0x0 DUP2 PUSH1 0x0 ADD DUP1 SLOAD SWAP1 POP SWAP1 POP SWAP2 SWAP1 POP JUMP JUMPDEST PUSH1 0x60 PUSH1 0x0 PUSH1 0x2 DUP4 PUSH1 0x2 PUSH2 0x1FCC SWAP2 SWAP1 PUSH2 0x3313 JUMP JUMPDEST PUSH2 0x1FD6 SWAP2 SWAP1 PUSH2 0x32BD JUMP JUMPDEST PUSH8 0xFFFFFFFFFFFFFFFF DUP2 GT ISZERO PUSH2 0x1FEF JUMPI PUSH2 0x1FEE PUSH2 0x3601 JUMP JUMPDEST JUMPDEST PUSH1 0x40 MLOAD SWAP1 DUP1 DUP3 MSTORE DUP1 PUSH1 0x1F ADD PUSH1 0x1F NOT AND PUSH1 0x20 ADD DUP3 ADD PUSH1 0x40 MSTORE DUP1 ISZERO PUSH2 0x2021 JUMPI DUP2 PUSH1 0x20 ADD PUSH1 0x1 DUP3 MUL DUP1 CALLDATASIZE DUP4 CALLDATACOPY DUP1 DUP3 ADD SWAP2 POP POP SWAP1 POP JUMPDEST POP SWAP1 POP PUSH32 0x3000000000000000000000000000000000000000000000000000000000000000 DUP2 PUSH1 0x0 DUP2 MLOAD DUP2 LT PUSH2 0x2059 JUMPI PUSH2 0x2058 PUSH2 0x35D2 JUMP JUMPDEST JUMPDEST PUSH1 0x20 ADD ADD SWAP1 PUSH31 0xFFFFFFFFFFFFFFFFFFFFFFFFFFFFFFFFFFFFFFFFFFFFFFFFFFFFFFFFFFFFFF NOT AND SWAP1 DUP2 PUSH1 0x0 BYTE SWAP1 MSTORE8 POP PUSH32 0x7800000000000000000000000000000000000000000000000000000000000000 DUP2 PUSH1 0x1 DUP2 MLOAD DUP2 LT PUSH2 0x20BD JUMPI PUSH2 0x20BC PUSH2 0x35D2 JUMP JUMPDEST JUMPDEST PUSH1 0x20 ADD ADD SWAP1 PUSH31 0xFFFFFFFFFFFFFFFFFFFFFFFFFFFFFFFFFFFFFFFFFFFFFFFFFFFFFFFFFFFFFF NOT AND SWAP1 DUP2 PUSH1 0x0 BYTE SWAP1 MSTORE8 POP PUSH1 0x0 PUSH1 0x1 DUP5 PUSH1 0x2 PUSH2 0x20FD SWAP2 SWAP1 PUSH2 0x3313 JUMP JUMPDEST PUSH2 0x2107 SWAP2 SWAP1 PUSH2 0x32BD JUMP JUMPDEST SWAP1 POP JUMPDEST PUSH1 0x1 DUP2 GT ISZERO PUSH2 0x21A7 JUMPI PUSH32 0x3031323334353637383961626364656600000000000000000000000000000000 PUSH1 0xF DUP7 AND PUSH1 0x10 DUP2 LT PUSH2 0x2149 JUMPI PUSH2 0x2148 PUSH2 0x35D2 JUMP JUMPDEST JUMPDEST BYTE PUSH1 0xF8 SHL DUP3 DUP3 DUP2 MLOAD DUP2 LT PUSH2 0x2160 JUMPI PUSH2 0x215F PUSH2 0x35D2 JUMP JUMPDEST JUMPDEST PUSH1 0x20 ADD ADD SWAP1 PUSH31 0xFFFFFFFFFFFFFFFFFFFFFFFFFFFFFFFFFFFFFFFFFFFFFFFFFFFFFFFFFFFFFF NOT AND SWAP1 DUP2 PUSH1 0x0 BYTE SWAP1 MSTORE8 POP PUSH1 0x4 DUP6 SWAP1 SHR SWAP5 POP DUP1 PUSH2 0x21A0 SWAP1 PUSH2 0x346F JUMP JUMPDEST SWAP1 POP PUSH2 0x210A JUMP JUMPDEST POP PUSH1 0x0 DUP5 EQ PUSH2 0x21EB JUMPI PUSH1 0x40 MLOAD PUSH32 0x8C379A000000000000000000000000000000000000000000000000000000000 DUP2 MSTORE PUSH1 0x4 ADD PUSH2 0x21E2 SWAP1 PUSH2 0x2FCF JUMP JUMPDEST PUSH1 0x40 MLOAD DUP1 SWAP2 SUB SWAP1 REVERT JUMPDEST DUP1 SWAP2 POP POP SWAP3 SWAP2 POP POP JUMP JUMPDEST PUSH1 0x0 PUSH2 0x2201 DUP4 DUP4 PUSH2 0x2379 JUMP JUMPDEST PUSH2 0x225A JUMPI DUP3 PUSH1 0x0 ADD DUP3 SWAP1 DUP1 PUSH1 0x1 DUP2 SLOAD ADD DUP1 DUP3 SSTORE DUP1 SWAP2 POP POP PUSH1 0x1 SWAP1 SUB SWAP1 PUSH1 0x0 MSTORE PUSH1 0x20 PUSH1 0x0 KECCAK256 ADD PUSH1 0x0 SWAP1 SWAP2 SWAP1 SWAP2 SWAP1 SWAP2 POP SSTORE DUP3 PUSH1 0x0 ADD DUP1 SLOAD SWAP1 POP DUP4 PUSH1 0x1 ADD PUSH1 0x0 DUP5 DUP2 MSTORE PUSH1 0x20 ADD SWAP1 DUP2 MSTORE PUSH1 0x20 ADD PUSH1 0x0 KECCAK256 DUP2 SWAP1 SSTORE POP PUSH1 0x1 SWAP1 POP PUSH2 0x225F JUMP JUMPDEST PUSH1 0x0 SWAP1 POP JUMPDEST SWAP3 SWAP2 POP POP JUMP JUMPDEST PUSH1 0x0 DUP1 DUP4 PUSH1 0x1 ADD PUSH1 0x0 DUP5 DUP2 MSTORE PUSH1 0x20 ADD SWAP1 DUP2 MSTORE PUSH1 0x20 ADD PUSH1 0x0 KECCAK256 SLOAD SWAP1 POP PUSH1 0x0 DUP2 EQ PUSH2 0x236D JUMPI PUSH1 0x0 PUSH1 0x1 DUP3 PUSH2 0x2297 SWAP2 SWAP1 PUSH2 0x336D JUMP JUMPDEST SWAP1 POP PUSH1 0x0 PUSH1 0x1 DUP7 PUSH1 0x0 ADD DUP1 SLOAD SWAP1 POP PUSH2 0x22AF SWAP2 SWAP1 PUSH2 0x336D JUMP JUMPDEST SWAP1 POP DUP2 DUP2 EQ PUSH2 0x231E JUMPI PUSH1 0x0 DUP7 PUSH1 0x0 ADD DUP3 DUP2 SLOAD DUP2 LT PUSH2 0x22D0 JUMPI PUSH2 0x22CF PUSH2 0x35D2 JUMP JUMPDEST JUMPDEST SWAP1 PUSH1 0x0 MSTORE PUSH1 0x20 PUSH1 0x0 KECCAK256 ADD SLOAD SWAP1 POP DUP1 DUP8 PUSH1 0x0 ADD DUP5 DUP2 SLOAD DUP2 LT PUSH2 0x22F4 JUMPI PUSH2 0x22F3 PUSH2 0x35D2 JUMP JUMPDEST JUMPDEST SWAP1 PUSH1 0x0 MSTORE PUSH1 0x20 PUSH1 0x0 KECCAK256 ADD DUP2 SWAP1 SSTORE POP DUP4 DUP8 PUSH1 0x1 ADD PUSH1 0x0 DUP4 DUP2 MSTORE PUSH1 0x20 ADD SWAP1 DUP2 MSTORE PUSH1 0x20 ADD PUSH1 0x0 KECCAK256 DUP2 SWAP1 SSTORE POP POP JUMPDEST DUP6 PUSH1 0x0 ADD DUP1 SLOAD DUP1 PUSH2 0x2332 JUMPI PUSH2 0x2331 PUSH2 0x35A3 JUMP JUMPDEST JUMPDEST PUSH1 0x1 SWAP1 SUB DUP2 DUP2 SWAP1 PUSH1 0x0 MSTORE PUSH1 0x20 PUSH1 0x0 KECCAK256 ADD PUSH1 0x0 SWAP1 SSTORE SWAP1 SSTORE DUP6 PUSH1 0x1 ADD PUSH1 0x0 DUP7 DUP2 MSTORE PUSH1 0x20 ADD SWAP1 DUP2 MSTORE PUSH1 0x20 ADD PUSH1 0x0 KECCAK256 PUSH1 0x0 SWAP1 SSTORE PUSH1 0x1 SWAP4 POP POP POP POP PUSH2 0x2373 JUMP JUMPDEST PUSH1 0x0 SWAP2 POP POP JUMPDEST SWAP3 SWAP2 POP POP JUMP JUMPDEST PUSH1 0x0 DUP1 DUP4 PUSH1 0x1 ADD PUSH1 0x0 DUP5 DUP2 MSTORE PUSH1 0x20 ADD SWAP1 DUP2 MSTORE PUSH1 0x20 ADD PUSH1 0x0 KECCAK256 SLOAD EQ ISZERO SWAP1 POP SWAP3 SWAP2 POP POP JUMP JUMPDEST DUP3 DUP1 SLOAD DUP3 DUP3 SSTORE SWAP1 PUSH1 0x0 MSTORE PUSH1 0x20 PUSH1 0x0 KECCAK256 SWAP1 DUP2 ADD SWAP3 DUP3 ISZERO PUSH2 0x23EB JUMPI SWAP2 PUSH1 0x20 MUL DUP3 ADD JUMPDEST DUP3 DUP2 GT ISZERO PUSH2 0x23EA JUMPI DUP3 MLOAD DUP3 SWAP1 DUP1 MLOAD SWAP1 PUSH1 0x20 ADD SWAP1 PUSH2 0x23DA SWAP3 SWAP2 SWAP1 PUSH2 0x2465 JUMP JUMPDEST POP SWAP2 PUSH1 0x20 ADD SWAP2 SWAP1 PUSH1 0x1 ADD SWAP1 PUSH2 0x23BC JUMP JUMPDEST JUMPDEST POP SWAP1 POP PUSH2 0x23F8 SWAP2 SWAP1 PUSH2 0x24EB JUMP JUMPDEST POP SWAP1 JUMP JUMPDEST PUSH1 0x40 MLOAD DUP1 PUSH1 0x40 ADD PUSH1 0x40 MSTORE DUP1 PUSH1 0x0 DUP1 NOT AND DUP2 MSTORE PUSH1 0x20 ADD PUSH1 0x0 DUP1 NOT AND DUP2 MSTORE POP SWAP1 JUMP JUMPDEST PUSH1 0x40 MLOAD DUP1 PUSH1 0x40 ADD PUSH1 0x40 MSTORE DUP1 PUSH1 0x0 PUSH2 0xFFFF AND DUP2 MSTORE PUSH1 0x20 ADD PUSH1 0x0 PUSH2 0xFFFF AND DUP2 MSTORE POP SWAP1 JUMP JUMPDEST PUSH1 0x40 MLOAD DUP1 PUSH1 0x60 ADD PUSH1 0x40 MSTORE DUP1 PUSH1 0x0 ISZERO ISZERO DUP2 MSTORE PUSH1 0x20 ADD PUSH1 0x0 ISZERO ISZERO DUP2 MSTORE PUSH1 0x20 ADD PUSH1 0x0 ISZERO ISZERO DUP2 MSTORE POP SWAP1 JUMP JUMPDEST DUP3 DUP1 SLOAD PUSH2 0x2471 SWAP1 PUSH2 0x3499 JUMP JUMPDEST SWAP1 PUSH1 0x0 MSTORE PUSH1 0x20 PUSH1 0x0 KECCAK256 SWAP1 PUSH1 0x1F ADD PUSH1 0x20 SWAP1 DIV DUP2 ADD SWAP3 DUP3 PUSH2 0x2493 JUMPI PUSH1 0x0 DUP6 SSTORE PUSH2 0x24DA JUMP JUMPDEST DUP3 PUSH1 0x1F LT PUSH2 0x24AC JUMPI DUP1 MLOAD PUSH1 0xFF NOT AND DUP4 DUP1 ADD OR DUP6 SSTORE PUSH2 0x24DA JUMP JUMPDEST DUP3 DUP1 ADD PUSH1 0x1 ADD DUP6 SSTORE DUP3 ISZERO PUSH2 0x24DA JUMPI SWAP2 DUP3 ADD JUMPDEST DUP3 DUP2 GT ISZERO PUSH2 0x24D9 JUMPI DUP3 MLOAD DUP3 SSTORE SWAP2 PUSH1 0x20 ADD SWAP2 SWAP1 PUSH1 0x1 ADD SWAP1 PUSH2 0x24BE JUMP JUMPDEST JUMPDEST POP SWAP1 POP PUSH2 0x24E7 SWAP2 SWAP1 PUSH2 0x250F JUMP JUMPDEST POP SWAP1 JUMP JUMPDEST JUMPDEST DUP1 DUP3 GT ISZERO PUSH2 0x250B JUMPI PUSH1 0x0 DUP2 DUP2 PUSH2 0x2502 SWAP2 SWAP1 PUSH2 0x252C JUMP JUMPDEST POP PUSH1 0x1 ADD PUSH2 0x24EC JUMP JUMPDEST POP SWAP1 JUMP JUMPDEST JUMPDEST DUP1 DUP3 GT ISZERO PUSH2 0x2528 JUMPI PUSH1 0x0 DUP2 PUSH1 0x0 SWAP1 SSTORE POP PUSH1 0x1 ADD PUSH2 0x2510 JUMP JUMPDEST POP SWAP1 JUMP JUMPDEST POP DUP1 SLOAD PUSH2 0x2538 SWAP1 PUSH2 0x3499 JUMP JUMPDEST PUSH1 0x0 DUP3 SSTORE DUP1 PUSH1 0x1F LT PUSH2 0x254A JUMPI POP PUSH2 0x2569 JUMP JUMPDEST PUSH1 0x1F ADD PUSH1 0x20 SWAP1 DIV SWAP1 PUSH1 0x0 MSTORE PUSH1 0x20 PUSH1 0x0 KECCAK256 SWAP1 DUP2 ADD SWAP1 PUSH2 0x2568 SWAP2 SWAP1 PUSH2 0x250F JUMP JUMPDEST JUMPDEST POP JUMP JUMPDEST PUSH1 0x0 PUSH2 0x257F PUSH2 0x257A DUP5 PUSH2 0x31B6 JUMP JUMPDEST PUSH2 0x3191 JUMP JUMPDEST SWAP1 POP DUP1 DUP4 DUP3 MSTORE PUSH1 0x20 DUP3 ADD SWAP1 POP DUP3 DUP6 PUSH1 0x20 DUP7 MUL DUP3 ADD GT ISZERO PUSH2 0x25A2 JUMPI PUSH2 0x25A1 PUSH2 0x363A JUMP JUMPDEST JUMPDEST PUSH1 0x0 JUMPDEST DUP6 DUP2 LT ISZERO PUSH2 0x25F0 JUMPI DUP2 CALLDATALOAD PUSH8 0xFFFFFFFFFFFFFFFF DUP2 GT ISZERO PUSH2 0x25C8 JUMPI PUSH2 0x25C7 PUSH2 0x3630 JUMP JUMPDEST JUMPDEST DUP1 DUP7 ADD PUSH2 0x25D5 DUP10 DUP3 PUSH2 0x26BE JUMP JUMPDEST DUP6 MSTORE PUSH1 0x20 DUP6 ADD SWAP5 POP PUSH1 0x20 DUP5 ADD SWAP4 POP POP POP PUSH1 0x1 DUP2 ADD SWAP1 POP PUSH2 0x25A5 JUMP JUMPDEST POP POP POP SWAP4 SWAP3 POP POP POP JUMP JUMPDEST PUSH1 0x0 PUSH2 0x260D PUSH2 0x2608 DUP5 PUSH2 0x31E2 JUMP JUMPDEST PUSH2 0x3191 JUMP JUMPDEST SWAP1 POP DUP3 DUP2 MSTORE PUSH1 0x20 DUP2 ADD DUP5 DUP5 DUP5 ADD GT ISZERO PUSH2 0x2629 JUMPI PUSH2 0x2628 PUSH2 0x363F JUMP JUMPDEST JUMPDEST PUSH2 0x2634 DUP5 DUP3 DUP6 PUSH2 0x342D JUMP JUMPDEST POP SWAP4 SWAP3 POP POP POP JUMP JUMPDEST PUSH1 0x0 DUP2 CALLDATALOAD SWAP1 POP PUSH2 0x264B DUP2 PUSH2 0x3848 JUMP JUMPDEST SWAP3 SWAP2 POP POP JUMP JUMPDEST PUSH1 0x0 DUP3 PUSH1 0x1F DUP4 ADD SLT PUSH2 0x2666 JUMPI PUSH2 0x2665 PUSH2 0x3630 JUMP JUMPDEST JUMPDEST DUP2 CALLDATALOAD PUSH2 0x2676 DUP5 DUP3 PUSH1 0x20 DUP7 ADD PUSH2 0x256C JUMP JUMPDEST SWAP2 POP POP SWAP3 SWAP2 POP POP JUMP JUMPDEST PUSH1 0x0 DUP2 CALLDATALOAD SWAP1 POP PUSH2 0x268E DUP2 PUSH2 0x385F JUMP JUMPDEST SWAP3 SWAP2 POP POP JUMP JUMPDEST PUSH1 0x0 DUP2 CALLDATALOAD SWAP1 POP PUSH2 0x26A3 DUP2 PUSH2 0x3876 JUMP JUMPDEST SWAP3 SWAP2 POP POP JUMP JUMPDEST PUSH1 0x0 DUP2 CALLDATALOAD SWAP1 POP PUSH2 0x26B8 DUP2 PUSH2 0x388D JUMP JUMPDEST SWAP3 SWAP2 POP POP JUMP JUMPDEST PUSH1 0x0 DUP3 PUSH1 0x1F DUP4 ADD SLT PUSH2 0x26D3 JUMPI PUSH2 0x26D2 PUSH2 0x3630 JUMP JUMPDEST JUMPDEST DUP2 CALLDATALOAD PUSH2 0x26E3 DUP5 DUP3 PUSH1 0x20 DUP7 ADD PUSH2 0x25FA JUMP JUMPDEST SWAP2 POP POP SWAP3 SWAP2 POP POP JUMP JUMPDEST PUSH1 0x0 PUSH1 0x60 DUP3 DUP5 SUB SLT ISZERO PUSH2 0x2702 JUMPI PUSH2 0x2701 PUSH2 0x3635 JUMP JUMPDEST JUMPDEST PUSH2 0x270C PUSH1 0x60 PUSH2 0x3191 JUMP JUMPDEST SWAP1 POP PUSH1 0x0 PUSH2 0x271C DUP5 DUP3 DUP6 ADD PUSH2 0x267F JUMP JUMPDEST PUSH1 0x0 DUP4 ADD MSTORE POP PUSH1 0x20 PUSH2 0x2730 DUP5 DUP3 DUP6 ADD PUSH2 0x267F JUMP JUMPDEST PUSH1 0x20 DUP4 ADD MSTORE POP PUSH1 0x40 PUSH2 0x2744 DUP5 DUP3 DUP6 ADD PUSH2 0x267F JUMP JUMPDEST PUSH1 0x40 DUP4 ADD MSTORE POP SWAP3 SWAP2 POP POP JUMP JUMPDEST PUSH1 0x0 PUSH1 0x40 DUP3 DUP5 SUB SLT ISZERO PUSH2 0x2766 JUMPI PUSH2 0x2765 PUSH2 0x3635 JUMP JUMPDEST JUMPDEST PUSH2 0x2770 PUSH1 0x40 PUSH2 0x3191 JUMP JUMPDEST SWAP1 POP PUSH1 0x0 PUSH2 0x2780 DUP5 DUP3 DUP6 ADD PUSH2 0x2694 JUMP JUMPDEST PUSH1 0x0 DUP4 ADD MSTORE POP PUSH1 0x20 PUSH2 0x2794 DUP5 DUP3 DUP6 ADD PUSH2 0x2694 JUMP JUMPDEST PUSH1 0x20 DUP4 ADD MSTORE POP SWAP3 SWAP2 POP POP JUMP JUMPDEST PUSH1 0x0 PUSH1 0x40 DUP3 DUP5 SUB SLT ISZERO PUSH2 0x27B6 JUMPI PUSH2 0x27B5 PUSH2 0x3635 JUMP JUMPDEST JUMPDEST PUSH2 0x27C0 PUSH1 0x40 PUSH2 0x3191 JUMP JUMPDEST SWAP1 POP PUSH1 0x0 PUSH2 0x27D0 DUP5 DUP3 DUP6 ADD PUSH2 0x27F0 JUMP JUMPDEST PUSH1 0x0 DUP4 ADD MSTORE POP PUSH1 0x20 PUSH2 0x27E4 DUP5 DUP3 DUP6 ADD PUSH2 0x27F0 JUMP JUMPDEST PUSH1 0x20 DUP4 ADD MSTORE POP SWAP3 SWAP2 POP POP JUMP JUMPDEST PUSH1 0x0 DUP2 CALLDATALOAD SWAP1 POP PUSH2 0x27FF DUP2 PUSH2 0x38A4 JUMP JUMPDEST SWAP3 SWAP2 POP POP JUMP JUMPDEST PUSH1 0x0 DUP2 CALLDATALOAD SWAP1 POP PUSH2 0x2814 DUP2 PUSH2 0x38BB JUMP JUMPDEST SWAP3 SWAP2 POP POP JUMP JUMPDEST PUSH1 0x0 PUSH1 0x20 DUP3 DUP5 SUB SLT ISZERO PUSH2 0x2830 JUMPI PUSH2 0x282F PUSH2 0x3649 JUMP JUMPDEST JUMPDEST PUSH1 0x0 PUSH2 0x283E DUP5 DUP3 DUP6 ADD PUSH2 0x263C JUMP JUMPDEST SWAP2 POP POP SWAP3 SWAP2 POP POP JUMP JUMPDEST PUSH1 0x0 DUP1 PUSH1 0x0 DUP1 PUSH1 0x0 DUP1 PUSH1 0x0 DUP1 PUSH2 0x180 DUP10 DUP12 SUB SLT ISZERO PUSH2 0x2868 JUMPI PUSH2 0x2867 PUSH2 0x3649 JUMP JUMPDEST JUMPDEST PUSH1 0x0 PUSH2 0x2876 DUP12 DUP3 DUP13 ADD PUSH2 0x263C JUMP JUMPDEST SWAP9 POP POP PUSH1 0x20 PUSH2 0x2887 DUP12 DUP3 DUP13 ADD PUSH2 0x263C JUMP JUMPDEST SWAP8 POP POP PUSH1 0x40 PUSH2 0x2898 DUP12 DUP3 DUP13 ADD PUSH2 0x263C JUMP JUMPDEST SWAP7 POP POP PUSH1 0x60 PUSH2 0x28A9 DUP12 DUP3 DUP13 ADD PUSH2 0x2750 JUMP JUMPDEST SWAP6 POP POP PUSH1 0xA0 PUSH2 0x28BA DUP12 DUP3 DUP13 ADD PUSH2 0x2805 JUMP JUMPDEST SWAP5 POP POP PUSH1 0xC0 PUSH2 0x28CB DUP12 DUP3 DUP13 ADD PUSH2 0x27A0 JUMP JUMPDEST SWAP4 POP POP PUSH2 0x100 DUP10 ADD CALLDATALOAD PUSH8 0xFFFFFFFFFFFFFFFF DUP2 GT ISZERO PUSH2 0x28ED JUMPI PUSH2 0x28EC PUSH2 0x3644 JUMP JUMPDEST JUMPDEST PUSH2 0x28F9 DUP12 DUP3 DUP13 ADD PUSH2 0x2651 JUMP JUMPDEST SWAP3 POP POP PUSH2 0x120 PUSH2 0x290B DUP12 DUP3 DUP13 ADD PUSH2 0x26EC JUMP JUMPDEST SWAP2 POP POP SWAP3 SWAP6 SWAP9 POP SWAP3 SWAP6 SWAP9 SWAP1 SWAP4 SWAP7 POP JUMP JUMPDEST PUSH1 0x0 PUSH1 0x20 DUP3 DUP5 SUB SLT ISZERO PUSH2 0x2931 JUMPI PUSH2 0x2930 PUSH2 0x3649 JUMP JUMPDEST JUMPDEST PUSH1 0x0 DUP3 ADD CALLDATALOAD PUSH8 0xFFFFFFFFFFFFFFFF DUP2 GT ISZERO PUSH2 0x294F JUMPI PUSH2 0x294E PUSH2 0x3644 JUMP JUMPDEST JUMPDEST PUSH2 0x295B DUP5 DUP3 DUP6 ADD PUSH2 0x2651 JUMP JUMPDEST SWAP2 POP POP SWAP3 SWAP2 POP POP JUMP JUMPDEST PUSH1 0x0 PUSH1 0x20 DUP3 DUP5 SUB SLT ISZERO PUSH2 0x297A JUMPI PUSH2 0x2979 PUSH2 0x3649 JUMP JUMPDEST JUMPDEST PUSH1 0x0 PUSH2 0x2988 DUP5 DUP3 DUP6 ADD PUSH2 0x2694 JUMP JUMPDEST SWAP2 POP POP SWAP3 SWAP2 POP POP JUMP JUMPDEST PUSH1 0x0 DUP1 PUSH1 0x40 DUP4 DUP6 SUB SLT ISZERO PUSH2 0x29A8 JUMPI PUSH2 0x29A7 PUSH2 0x3649 JUMP JUMPDEST JUMPDEST PUSH1 0x0 PUSH2 0x29B6 DUP6 DUP3 DUP7 ADD PUSH2 0x2694 JUMP JUMPDEST SWAP3 POP POP PUSH1 0x20 PUSH2 0x29C7 DUP6 DUP3 DUP7 ADD PUSH2 0x263C JUMP JUMPDEST SWAP2 POP POP SWAP3 POP SWAP3 SWAP1 POP JUMP JUMPDEST PUSH1 0x0 DUP1 PUSH1 0x40 DUP4 DUP6 SUB SLT ISZERO PUSH2 0x29E8 JUMPI PUSH2 0x29E7 PUSH2 0x3649 JUMP JUMPDEST JUMPDEST PUSH1 0x0 PUSH2 0x29F6 DUP6 DUP3 DUP7 ADD PUSH2 0x2694 JUMP JUMPDEST SWAP3 POP POP PUSH1 0x20 PUSH2 0x2A07 DUP6 DUP3 DUP7 ADD PUSH2 0x2805 JUMP JUMPDEST SWAP2 POP POP SWAP3 POP SWAP3 SWAP1 POP JUMP JUMPDEST PUSH1 0x0 PUSH1 0x20 DUP3 DUP5 SUB SLT ISZERO PUSH2 0x2A27 JUMPI PUSH2 0x2A26 PUSH2 0x3649 JUMP JUMPDEST JUMPDEST PUSH1 0x0 PUSH2 0x2A35 DUP5 DUP3 DUP6 ADD PUSH2 0x26A9 JUMP JUMPDEST SWAP2 POP POP SWAP3 SWAP2 POP POP JUMP JUMPDEST PUSH1 0x0 PUSH1 0x60 DUP3 DUP5 SUB SLT ISZERO PUSH2 0x2A54 JUMPI PUSH2 0x2A53 PUSH2 0x3649 JUMP JUMPDEST JUMPDEST PUSH1 0x0 PUSH2 0x2A62 DUP5 DUP3 DUP6 ADD PUSH2 0x26EC JUMP JUMPDEST SWAP2 POP POP SWAP3 SWAP2 POP POP JUMP JUMPDEST PUSH1 0x0 PUSH1 0x40 DUP3 DUP5 SUB SLT ISZERO PUSH2 0x2A81 JUMPI PUSH2 0x2A80 PUSH2 0x3649 JUMP JUMPDEST JUMPDEST PUSH1 0x0 PUSH2 0x2A8F DUP5 DUP3 DUP6 ADD PUSH2 0x27A0 JUMP JUMPDEST SWAP2 POP POP SWAP3 SWAP2 POP POP JUMP JUMPDEST PUSH1 0x0 PUSH1 0x20 DUP3 DUP5 SUB SLT ISZERO PUSH2 0x2AAE JUMPI PUSH2 0x2AAD PUSH2 0x3649 JUMP JUMPDEST JUMPDEST PUSH1 0x0 PUSH2 0x2ABC DUP5 DUP3 DUP6 ADD PUSH2 0x2805 JUMP JUMPDEST SWAP2 POP POP SWAP3 SWAP2 POP POP JUMP JUMPDEST PUSH1 0x0 PUSH2 0x2AD1 DUP4 DUP4 PUSH2 0x2AF1 JUMP JUMPDEST PUSH1 0x20 DUP4 ADD SWAP1 POP SWAP3 SWAP2 POP POP JUMP JUMPDEST PUSH1 0x0 PUSH2 0x2AE9 DUP4 DUP4 PUSH2 0x2C1E JUMP JUMPDEST SWAP1 POP SWAP3 SWAP2 POP POP JUMP JUMPDEST PUSH2 0x2AFA DUP2 PUSH2 0x33A1 JUMP JUMPDEST DUP3 MSTORE POP POP JUMP JUMPDEST PUSH2 0x2B09 DUP2 PUSH2 0x33A1 JUMP JUMPDEST DUP3 MSTORE POP POP JUMP JUMPDEST PUSH1 0x0 PUSH2 0x2B1A DUP3 PUSH2 0x3233 JUMP JUMPDEST PUSH2 0x2B24 DUP2 DUP6 PUSH2 0x326E JUMP JUMPDEST SWAP4 POP PUSH2 0x2B2F DUP4 PUSH2 0x3213 JUMP JUMPDEST DUP1 PUSH1 0x0 JUMPDEST DUP4 DUP2 LT ISZERO PUSH2 0x2B60 JUMPI DUP2 MLOAD PUSH2 0x2B47 DUP9 DUP3 PUSH2 0x2AC5 JUMP JUMPDEST SWAP8 POP PUSH2 0x2B52 DUP4 PUSH2 0x3254 JUMP JUMPDEST SWAP3 POP POP PUSH1 0x1 DUP2 ADD SWAP1 POP PUSH2 0x2B33 JUMP JUMPDEST POP DUP6 SWAP4 POP POP POP POP SWAP3 SWAP2 POP POP JUMP JUMPDEST PUSH1 0x0 PUSH2 0x2B78 DUP3 PUSH2 0x323E JUMP JUMPDEST PUSH2 0x2B82 DUP2 DUP6 PUSH2 0x327F JUMP JUMPDEST SWAP4 POP DUP4 PUSH1 0x20 DUP3 MUL DUP6 ADD PUSH2 0x2B94 DUP6 PUSH2 0x3223 JUMP JUMPDEST DUP1 PUSH1 0x0 JUMPDEST DUP6 DUP2 LT ISZERO PUSH2 0x2BD0 JUMPI DUP5 DUP5 SUB DUP10 MSTORE DUP2 MLOAD PUSH2 0x2BB1 DUP6 DUP3 PUSH2 0x2ADD JUMP JUMPDEST SWAP5 POP PUSH2 0x2BBC DUP4 PUSH2 0x3261 JUMP JUMPDEST SWAP3 POP PUSH1 0x20 DUP11 ADD SWAP10 POP POP PUSH1 0x1 DUP2 ADD SWAP1 POP PUSH2 0x2B98 JUMP JUMPDEST POP DUP3 SWAP8 POP DUP8 SWAP6 POP POP POP POP POP POP SWAP3 SWAP2 POP POP JUMP JUMPDEST PUSH2 0x2BEB DUP2 PUSH2 0x33B3 JUMP JUMPDEST DUP3 MSTORE POP POP JUMP JUMPDEST PUSH2 0x2BFA DUP2 PUSH2 0x33B3 JUMP JUMPDEST DUP3 MSTORE POP POP JUMP JUMPDEST PUSH2 0x2C09 DUP2 PUSH2 0x33BF JUMP JUMPDEST DUP3 MSTORE POP POP JUMP JUMPDEST PUSH2 0x2C18 DUP2 PUSH2 0x33BF JUMP JUMPDEST DUP3 MSTORE POP POP JUMP JUMPDEST PUSH1 0x0 PUSH2 0x2C29 DUP3 PUSH2 0x3249 JUMP JUMPDEST PUSH2 0x2C33 DUP2 DUP6 PUSH2 0x3290 JUMP JUMPDEST SWAP4 POP PUSH2 0x2C43 DUP2 DUP6 PUSH1 0x20 DUP7 ADD PUSH2 0x343C JUMP JUMPDEST PUSH2 0x2C4C DUP2 PUSH2 0x364E JUMP JUMPDEST DUP5 ADD SWAP2 POP POP SWAP3 SWAP2 POP POP JUMP JUMPDEST PUSH1 0x0 PUSH2 0x2C62 DUP3 PUSH2 0x3249 JUMP JUMPDEST PUSH2 0x2C6C DUP2 DUP6 PUSH2 0x32A1 JUMP JUMPDEST SWAP4 POP PUSH2 0x2C7C DUP2 DUP6 PUSH1 0x20 DUP7 ADD PUSH2 0x343C JUMP JUMPDEST PUSH2 0x2C85 DUP2 PUSH2 0x364E JUMP JUMPDEST DUP5 ADD SWAP2 POP POP SWAP3 SWAP2 POP POP JUMP JUMPDEST PUSH1 0x0 PUSH2 0x2C9B DUP3 PUSH2 0x3249 JUMP JUMPDEST PUSH2 0x2CA5 DUP2 DUP6 PUSH2 0x32B2 JUMP JUMPDEST SWAP4 POP PUSH2 0x2CB5 DUP2 DUP6 PUSH1 0x20 DUP7 ADD PUSH2 0x343C JUMP JUMPDEST DUP1 DUP5 ADD SWAP2 POP POP SWAP3 SWAP2 POP POP JUMP JUMPDEST PUSH1 0x0 PUSH2 0x2CCE PUSH1 0x20 DUP4 PUSH2 0x32A1 JUMP JUMPDEST SWAP2 POP PUSH2 0x2CD9 DUP3 PUSH2 0x365F JUMP JUMPDEST PUSH1 0x20 DUP3 ADD SWAP1 POP SWAP2 SWAP1 POP JUMP JUMPDEST PUSH1 0x0 PUSH2 0x2CF1 PUSH1 0x1C DUP4 PUSH2 0x32A1 JUMP JUMPDEST SWAP2 POP PUSH2 0x2CFC DUP3 PUSH2 0x3688 JUMP JUMPDEST PUSH1 0x20 DUP3 ADD SWAP1 POP SWAP2 SWAP1 POP JUMP JUMPDEST PUSH1 0x0 PUSH2 0x2D14 PUSH1 0x10 DUP4 PUSH2 0x32A1 JUMP JUMPDEST SWAP2 POP PUSH2 0x2D1F DUP3 PUSH2 0x36B1 JUMP JUMPDEST PUSH1 0x20 DUP3 ADD SWAP1 POP SWAP2 SWAP1 POP JUMP JUMPDEST PUSH1 0x0 PUSH2 0x2D37 PUSH1 0x11 DUP4 PUSH2 0x32A1 JUMP JUMPDEST SWAP2 POP PUSH2 0x2D42 DUP3 PUSH2 0x36DA JUMP JUMPDEST PUSH1 0x20 DUP3 ADD SWAP1 POP SWAP2 SWAP1 POP JUMP JUMPDEST PUSH1 0x0 PUSH2 0x2D5A PUSH1 0x10 DUP4 PUSH2 0x32A1 JUMP JUMPDEST SWAP2 POP PUSH2 0x2D65 DUP3 PUSH2 0x3703 JUMP JUMPDEST PUSH1 0x20 DUP3 ADD SWAP1 POP SWAP2 SWAP1 POP JUMP JUMPDEST PUSH1 0x0 PUSH2 0x2D7D PUSH1 0xB DUP4 PUSH2 0x32A1 JUMP JUMPDEST SWAP2 POP PUSH2 0x2D88 DUP3 PUSH2 0x372C JUMP JUMPDEST PUSH1 0x20 DUP3 ADD SWAP1 POP SWAP2 SWAP1 POP JUMP JUMPDEST PUSH1 0x0 PUSH2 0x2DA0 PUSH1 0x13 DUP4 PUSH2 0x32A1 JUMP JUMPDEST SWAP2 POP PUSH2 0x2DAB DUP3 PUSH2 0x3755 JUMP JUMPDEST PUSH1 0x20 DUP3 ADD SWAP1 POP SWAP2 SWAP1 POP JUMP JUMPDEST PUSH1 0x0 PUSH2 0x2DC3 PUSH1 0x17 DUP4 PUSH2 0x32B2 JUMP JUMPDEST SWAP2 POP PUSH2 0x2DCE DUP3 PUSH2 0x377E JUMP JUMPDEST PUSH1 0x17 DUP3 ADD SWAP1 POP SWAP2 SWAP1 POP JUMP JUMPDEST PUSH1 0x0 PUSH2 0x2DE6 PUSH1 0x12 DUP4 PUSH2 0x32A1 JUMP JUMPDEST SWAP2 POP PUSH2 0x2DF1 DUP3 PUSH2 0x37A7 JUMP JUMPDEST PUSH1 0x20 DUP3 ADD SWAP1 POP SWAP2 SWAP1 POP JUMP JUMPDEST PUSH1 0x0 PUSH2 0x2E09 PUSH1 0x11 DUP4 PUSH2 0x32B2 JUMP JUMPDEST SWAP2 POP PUSH2 0x2E14 DUP3 PUSH2 0x37D0 JUMP JUMPDEST PUSH1 0x11 DUP3 ADD SWAP1 POP SWAP2 SWAP1 POP JUMP JUMPDEST PUSH1 0x0 PUSH2 0x2E2C PUSH1 0x2F DUP4 PUSH2 0x32A1 JUMP JUMPDEST SWAP2 POP PUSH2 0x2E37 DUP3 PUSH2 0x37F9 JUMP JUMPDEST PUSH1 0x40 DUP3 ADD SWAP1 POP SWAP2 SWAP1 POP JUMP JUMPDEST PUSH1 0x60 DUP3 ADD PUSH1 0x0 DUP3 ADD MLOAD PUSH2 0x2E58 PUSH1 0x0 DUP6 ADD DUP3 PUSH2 0x2BE2 JUMP JUMPDEST POP PUSH1 0x20 DUP3 ADD MLOAD PUSH2 0x2E6B PUSH1 0x20 DUP6 ADD DUP3 PUSH2 0x2BE2 JUMP JUMPDEST POP PUSH1 0x40 DUP3 ADD MLOAD PUSH2 0x2E7E PUSH1 0x40 DUP6 ADD DUP3 PUSH2 0x2BE2 JUMP JUMPDEST POP POP POP POP JUMP JUMPDEST PUSH1 0x40 DUP3 ADD PUSH1 0x0 DUP3 ADD MLOAD PUSH2 0x2E9A PUSH1 0x0 DUP6 ADD DUP3 PUSH2 0x2C00 JUMP JUMPDEST POP PUSH1 0x20 DUP3 ADD MLOAD PUSH2 0x2EAD PUSH1 0x20 DUP6 ADD DUP3 PUSH2 0x2C00 JUMP JUMPDEST POP POP POP POP JUMP JUMPDEST PUSH1 0x40 DUP3 ADD PUSH1 0x0 DUP3 ADD MLOAD PUSH2 0x2EC9 PUSH1 0x0 DUP6 ADD DUP3 PUSH2 0x2EE2 JUMP JUMPDEST POP PUSH1 0x20 DUP3 ADD MLOAD PUSH2 0x2EDC PUSH1 0x20 DUP6 ADD DUP3 PUSH2 0x2EE2 JUMP JUMPDEST POP POP POP POP JUMP JUMPDEST PUSH2 0x2EEB DUP2 PUSH2 0x33F5 JUMP JUMPDEST DUP3 MSTORE POP POP JUMP JUMPDEST PUSH2 0x2EFA DUP2 PUSH2 0x3423 JUMP JUMPDEST DUP3 MSTORE POP POP JUMP JUMPDEST PUSH1 0x0 PUSH2 0x2F0B DUP3 PUSH2 0x2DB6 JUMP JUMPDEST SWAP2 POP PUSH2 0x2F17 DUP3 DUP6 PUSH2 0x2C90 JUMP JUMPDEST SWAP2 POP PUSH2 0x2F22 DUP3 PUSH2 0x2DFC JUMP JUMPDEST SWAP2 POP PUSH2 0x2F2E DUP3 DUP5 PUSH2 0x2C90 JUMP JUMPDEST SWAP2 POP DUP2 SWAP1 POP SWAP4 SWAP3 POP POP POP JUMP JUMPDEST PUSH1 0x0 PUSH1 0x20 DUP3 ADD SWAP1 POP PUSH2 0x2F4F PUSH1 0x0 DUP4 ADD DUP5 PUSH2 0x2B00 JUMP JUMPDEST SWAP3 SWAP2 POP POP JUMP JUMPDEST PUSH1 0x0 PUSH1 0x20 DUP3 ADD SWAP1 POP DUP2 DUP2 SUB PUSH1 0x0 DUP4 ADD MSTORE PUSH2 0x2F6F DUP2 DUP5 PUSH2 0x2B0F JUMP JUMPDEST SWAP1 POP SWAP3 SWAP2 POP POP JUMP JUMPDEST PUSH1 0x0 PUSH1 0x20 DUP3 ADD SWAP1 POP PUSH2 0x2F8C PUSH1 0x0 DUP4 ADD DUP5 PUSH2 0x2BF1 JUMP JUMPDEST SWAP3 SWAP2 POP POP JUMP JUMPDEST PUSH1 0x0 PUSH1 0x20 DUP3 ADD SWAP1 POP PUSH2 0x2FA7 PUSH1 0x0 DUP4 ADD DUP5 PUSH2 0x2C0F JUMP JUMPDEST SWAP3 SWAP2 POP POP JUMP JUMPDEST PUSH1 0x0 PUSH1 0x20 DUP3 ADD SWAP1 POP DUP2 DUP2 SUB PUSH1 0x0 DUP4 ADD MSTORE PUSH2 0x2FC7 DUP2 DUP5 PUSH2 0x2C57 JUMP JUMPDEST SWAP1 POP SWAP3 SWAP2 POP POP JUMP JUMPDEST PUSH1 0x0 PUSH1 0x20 DUP3 ADD SWAP1 POP DUP2 DUP2 SUB PUSH1 0x0 DUP4 ADD MSTORE PUSH2 0x2FE8 DUP2 PUSH2 0x2CC1 JUMP JUMPDEST SWAP1 POP SWAP2 SWAP1 POP JUMP JUMPDEST PUSH1 0x0 PUSH1 0x20 DUP3 ADD SWAP1 POP DUP2 DUP2 SUB PUSH1 0x0 DUP4 ADD MSTORE PUSH2 0x3008 DUP2 PUSH2 0x2CE4 JUMP JUMPDEST SWAP1 POP SWAP2 SWAP1 POP JUMP JUMPDEST PUSH1 0x0 PUSH1 0x20 DUP3 ADD SWAP1 POP DUP2 DUP2 SUB PUSH1 0x0 DUP4 ADD MSTORE PUSH2 0x3028 DUP2 PUSH2 0x2D07 JUMP JUMPDEST SWAP1 POP SWAP2 SWAP1 POP JUMP JUMPDEST PUSH1 0x0 PUSH1 0x20 DUP3 ADD SWAP1 POP DUP2 DUP2 SUB PUSH1 0x0 DUP4 ADD MSTORE PUSH2 0x3048 DUP2 PUSH2 0x2D2A JUMP JUMPDEST SWAP1 POP SWAP2 SWAP1 POP JUMP JUMPDEST PUSH1 0x0 PUSH1 0x20 DUP3 ADD SWAP1 POP DUP2 DUP2 SUB PUSH1 0x0 DUP4 ADD MSTORE PUSH2 0x3068 DUP2 PUSH2 0x2D4D JUMP JUMPDEST SWAP1 POP SWAP2 SWAP1 POP JUMP JUMPDEST PUSH1 0x0 PUSH1 0x20 DUP3 ADD SWAP1 POP DUP2 DUP2 SUB PUSH1 0x0 DUP4 ADD MSTORE PUSH2 0x3088 DUP2 PUSH2 0x2D70 JUMP JUMPDEST SWAP1 POP SWAP2 SWAP1 POP JUMP JUMPDEST PUSH1 0x0 PUSH1 0x20 DUP3 ADD SWAP1 POP DUP2 DUP2 SUB PUSH1 0x0 DUP4 ADD MSTORE PUSH2 0x30A8 DUP2 PUSH2 0x2D93 JUMP JUMPDEST SWAP1 POP SWAP2 SWAP1 POP JUMP JUMPDEST PUSH1 0x0 PUSH1 0x20 DUP3 ADD SWAP1 POP DUP2 DUP2 SUB PUSH1 0x0 DUP4 ADD MSTORE PUSH2 0x30C8 DUP2 PUSH2 0x2DD9 JUMP JUMPDEST SWAP1 POP SWAP2 SWAP1 POP JUMP JUMPDEST PUSH1 0x0 PUSH1 0x20 DUP3 ADD SWAP1 POP DUP2 DUP2 SUB PUSH1 0x0 DUP4 ADD MSTORE PUSH2 0x30E8 DUP2 PUSH2 0x2E1F JUMP JUMPDEST SWAP1 POP SWAP2 SWAP1 POP JUMP JUMPDEST PUSH1 0x0 PUSH2 0x160 DUP3 ADD SWAP1 POP PUSH2 0x3105 PUSH1 0x0 DUP4 ADD DUP11 PUSH2 0x2E84 JUMP JUMPDEST PUSH2 0x3112 PUSH1 0x40 DUP4 ADD DUP10 PUSH2 0x2EF1 JUMP JUMPDEST PUSH2 0x311F PUSH1 0x60 DUP4 ADD DUP9 PUSH2 0x2EB3 JUMP JUMPDEST DUP2 DUP2 SUB PUSH1 0xA0 DUP4 ADD MSTORE PUSH2 0x3131 DUP2 DUP8 PUSH2 0x2B6D JUMP JUMPDEST SWAP1 POP PUSH2 0x3140 PUSH1 0xC0 DUP4 ADD DUP7 PUSH2 0x2E42 JUMP JUMPDEST DUP2 DUP2 SUB PUSH2 0x120 DUP4 ADD MSTORE PUSH2 0x3153 DUP2 DUP6 PUSH2 0x2B0F JUMP JUMPDEST SWAP1 POP DUP2 DUP2 SUB PUSH2 0x140 DUP4 ADD MSTORE PUSH2 0x3168 DUP2 DUP5 PUSH2 0x2B0F JUMP JUMPDEST SWAP1 POP SWAP9 SWAP8 POP POP POP POP POP POP POP POP JUMP JUMPDEST PUSH1 0x0 PUSH1 0x20 DUP3 ADD SWAP1 POP PUSH2 0x318B PUSH1 0x0 DUP4 ADD DUP5 PUSH2 0x2EF1 JUMP JUMPDEST SWAP3 SWAP2 POP POP JUMP JUMPDEST PUSH1 0x0 PUSH2 0x319B PUSH2 0x31AC JUMP JUMPDEST SWAP1 POP PUSH2 0x31A7 DUP3 DUP3 PUSH2 0x34CB JUMP JUMPDEST SWAP2 SWAP1 POP JUMP JUMPDEST PUSH1 0x0 PUSH1 0x40 MLOAD SWAP1 POP SWAP1 JUMP JUMPDEST PUSH1 0x0 PUSH8 0xFFFFFFFFFFFFFFFF DUP3 GT ISZERO PUSH2 0x31D1 JUMPI PUSH2 0x31D0 PUSH2 0x3601 JUMP JUMPDEST JUMPDEST PUSH1 0x20 DUP3 MUL SWAP1 POP PUSH1 0x20 DUP2 ADD SWAP1 POP SWAP2 SWAP1 POP JUMP JUMPDEST PUSH1 0x0 PUSH8 0xFFFFFFFFFFFFFFFF DUP3 GT ISZERO PUSH2 0x31FD JUMPI PUSH2 0x31FC PUSH2 0x3601 JUMP JUMPDEST JUMPDEST PUSH2 0x3206 DUP3 PUSH2 0x364E JUMP JUMPDEST SWAP1 POP PUSH1 0x20 DUP2 ADD SWAP1 POP SWAP2 SWAP1 POP JUMP JUMPDEST PUSH1 0x0 DUP2 SWAP1 POP PUSH1 0x20 DUP3 ADD SWAP1 POP SWAP2 SWAP1 POP JUMP JUMPDEST PUSH1 0x0 DUP2 SWAP1 POP PUSH1 0x20 DUP3 ADD SWAP1 POP SWAP2 SWAP1 POP JUMP JUMPDEST PUSH1 0x0 DUP2 MLOAD SWAP1 POP SWAP2 SWAP1 POP JUMP JUMPDEST PUSH1 0x0 DUP2 MLOAD SWAP1 POP SWAP2 SWAP1 POP JUMP JUMPDEST PUSH1 0x0 DUP2 MLOAD SWAP1 POP SWAP2 SWAP1 POP JUMP JUMPDEST PUSH1 0x0 PUSH1 0x20 DUP3 ADD SWAP1 POP SWAP2 SWAP1 POP JUMP JUMPDEST PUSH1 0x0 PUSH1 0x20 DUP3 ADD SWAP1 POP SWAP2 SWAP1 POP JUMP JUMPDEST PUSH1 0x0 DUP3 DUP3 MSTORE PUSH1 0x20 DUP3 ADD SWAP1 POP SWAP3 SWAP2 POP POP JUMP JUMPDEST PUSH1 0x0 DUP3 DUP3 MSTORE PUSH1 0x20 DUP3 ADD SWAP1 POP SWAP3 SWAP2 POP POP JUMP JUMPDEST PUSH1 0x0 DUP3 DUP3 MSTORE PUSH1 0x20 DUP3 ADD SWAP1 POP SWAP3 SWAP2 POP POP JUMP JUMPDEST PUSH1 0x0 DUP3 DUP3 MSTORE PUSH1 0x20 DUP3 ADD SWAP1 POP SWAP3 SWAP2 POP POP JUMP JUMPDEST PUSH1 0x0 DUP2 SWAP1 POP SWAP3 SWAP2 POP POP JUMP JUMPDEST PUSH1 0x0 PUSH2 0x32C8 DUP3 PUSH2 0x3423 JUMP JUMPDEST SWAP2 POP PUSH2 0x32D3 DUP4 PUSH2 0x3423 JUMP JUMPDEST SWAP3 POP DUP3 PUSH32 0xFFFFFFFFFFFFFFFFFFFFFFFFFFFFFFFFFFFFFFFFFFFFFFFFFFFFFFFFFFFFFFFF SUB DUP3 GT ISZERO PUSH2 0x3308 JUMPI PUSH2 0x3307 PUSH2 0x3545 JUMP JUMPDEST JUMPDEST DUP3 DUP3 ADD SWAP1 POP SWAP3 SWAP2 POP POP JUMP JUMPDEST PUSH1 0x0 PUSH2 0x331E DUP3 PUSH2 0x3423 JUMP JUMPDEST SWAP2 POP PUSH2 0x3329 DUP4 PUSH2 0x3423 JUMP JUMPDEST SWAP3 POP DUP2 PUSH32 0xFFFFFFFFFFFFFFFFFFFFFFFFFFFFFFFFFFFFFFFFFFFFFFFFFFFFFFFFFFFFFFFF DIV DUP4 GT DUP3 ISZERO ISZERO AND ISZERO PUSH2 0x3362 JUMPI PUSH2 0x3361 PUSH2 0x3545 JUMP JUMPDEST JUMPDEST DUP3 DUP3 MUL SWAP1 POP SWAP3 SWAP2 POP POP JUMP JUMPDEST PUSH1 0x0 PUSH2 0x3378 DUP3 PUSH2 0x3423 JUMP JUMPDEST SWAP2 POP PUSH2 0x3383 DUP4 PUSH2 0x3423 JUMP JUMPDEST SWAP3 POP DUP3 DUP3 LT ISZERO PUSH2 0x3396 JUMPI PUSH2 0x3395 PUSH2 0x3545 JUMP JUMPDEST JUMPDEST DUP3 DUP3 SUB SWAP1 POP SWAP3 SWAP2 POP POP JUMP JUMPDEST PUSH1 0x0 PUSH2 0x33AC DUP3 PUSH2 0x3403 JUMP JUMPDEST SWAP1 POP SWAP2 SWAP1 POP JUMP JUMPDEST PUSH1 0x0 DUP2 ISZERO ISZERO SWAP1 POP SWAP2 SWAP1 POP JUMP JUMPDEST PUSH1 0x0 DUP2 SWAP1 POP SWAP2 SWAP1 POP JUMP JUMPDEST PUSH1 0x0 PUSH32 0xFFFFFFFF00000000000000000000000000000000000000000000000000000000 DUP3 AND SWAP1 POP SWAP2 SWAP1 POP JUMP JUMPDEST PUSH1 0x0 PUSH2 0xFFFF DUP3 AND SWAP1 POP SWAP2 SWAP1 POP JUMP JUMPDEST PUSH1 0x0 PUSH20 0xFFFFFFFFFFFFFFFFFFFFFFFFFFFFFFFFFFFFFFFF DUP3 AND SWAP1 POP SWAP2 SWAP1 POP JUMP JUMPDEST PUSH1 0x0 DUP2 SWAP1 POP SWAP2 SWAP1 POP JUMP JUMPDEST DUP3 DUP2 DUP4 CALLDATACOPY PUSH1 0x0 DUP4 DUP4 ADD MSTORE POP POP POP JUMP JUMPDEST PUSH1 0x0 JUMPDEST DUP4 DUP2 LT ISZERO PUSH2 0x345A JUMPI DUP1 DUP3 ADD MLOAD DUP2 DUP5 ADD MSTORE PUSH1 0x20 DUP2 ADD SWAP1 POP PUSH2 0x343F JUMP JUMPDEST DUP4 DUP2 GT ISZERO PUSH2 0x3469 JUMPI PUSH1 0x0 DUP5 DUP5 ADD MSTORE JUMPDEST POP POP POP POP JUMP JUMPDEST PUSH1 0x0 PUSH2 0x347A DUP3 PUSH2 0x3423 JUMP JUMPDEST SWAP2 POP PUSH1 0x0 DUP3 EQ ISZERO PUSH2 0x348E JUMPI PUSH2 0x348D PUSH2 0x3545 JUMP JUMPDEST JUMPDEST PUSH1 0x1 DUP3 SUB SWAP1 POP SWAP2 SWAP1 POP JUMP JUMPDEST PUSH1 0x0 PUSH1 0x2 DUP3 DIV SWAP1 POP PUSH1 0x1 DUP3 AND DUP1 PUSH2 0x34B1 JUMPI PUSH1 0x7F DUP3 AND SWAP2 POP JUMPDEST PUSH1 0x20 DUP3 LT DUP2 EQ ISZERO PUSH2 0x34C5 JUMPI PUSH2 0x34C4 PUSH2 0x3574 JUMP JUMPDEST JUMPDEST POP SWAP2 SWAP1 POP JUMP JUMPDEST PUSH2 0x34D4 DUP3 PUSH2 0x364E JUMP JUMPDEST DUP2 ADD DUP2 DUP2 LT PUSH8 0xFFFFFFFFFFFFFFFF DUP3 GT OR ISZERO PUSH2 0x34F3 JUMPI PUSH2 0x34F2 PUSH2 0x3601 JUMP JUMPDEST JUMPDEST DUP1 PUSH1 0x40 MSTORE POP POP POP JUMP JUMPDEST PUSH1 0x0 PUSH2 0x3507 DUP3 PUSH2 0x3423 JUMP JUMPDEST SWAP2 POP PUSH32 0xFFFFFFFFFFFFFFFFFFFFFFFFFFFFFFFFFFFFFFFFFFFFFFFFFFFFFFFFFFFFFFFF DUP3 EQ ISZERO PUSH2 0x353A JUMPI PUSH2 0x3539 PUSH2 0x3545 JUMP JUMPDEST JUMPDEST PUSH1 0x1 DUP3 ADD SWAP1 POP SWAP2 SWAP1 POP JUMP JUMPDEST PUSH32 0x4E487B7100000000000000000000000000000000000000000000000000000000 PUSH1 0x0 MSTORE PUSH1 0x11 PUSH1 0x4 MSTORE PUSH1 0x24 PUSH1 0x0 REVERT JUMPDEST PUSH32 0x4E487B7100000000000000000000000000000000000000000000000000000000 PUSH1 0x0 MSTORE PUSH1 0x22 PUSH1 0x4 MSTORE PUSH1 0x24 PUSH1 0x0 REVERT JUMPDEST PUSH32 0x4E487B7100000000000000000000000000000000000000000000000000000000 PUSH1 0x0 MSTORE PUSH1 0x31 PUSH1 0x4 MSTORE PUSH1 0x24 PUSH1 0x0 REVERT JUMPDEST PUSH32 0x4E487B7100000000000000000000000000000000000000000000000000000000 PUSH1 0x0 MSTORE PUSH1 0x32 PUSH1 0x4 MSTORE PUSH1 0x24 PUSH1 0x0 REVERT JUMPDEST PUSH32 0x4E487B7100000000000000000000000000000000000000000000000000000000 PUSH1 0x0 MSTORE PUSH1 0x41 PUSH1 0x4 MSTORE PUSH1 0x24 PUSH1 0x0 REVERT JUMPDEST PUSH1 0x0 DUP1 REVERT JUMPDEST PUSH1 0x0 DUP1 REVERT JUMPDEST PUSH1 0x0 DUP1 REVERT JUMPDEST PUSH1 0x0 DUP1 REVERT JUMPDEST PUSH1 0x0 DUP1 REVERT JUMPDEST PUSH1 0x0 DUP1 REVERT JUMPDEST PUSH1 0x0 PUSH1 0x1F NOT PUSH1 0x1F DUP4 ADD AND SWAP1 POP SWAP2 SWAP1 POP JUMP JUMPDEST PUSH32 0x537472696E67733A20686578206C656E67746820696E73756666696369656E74 PUSH1 0x0 DUP3 ADD MSTORE POP JUMP JUMPDEST PUSH32 0x596F7520616C7265616479207265717565737465642061636365737300000000 PUSH1 0x0 DUP3 ADD MSTORE POP JUMP JUMPDEST PUSH32 0x4E65656420726561642061636365737300000000000000000000000000000000 PUSH1 0x0 DUP3 ADD MSTORE POP JUMP JUMPDEST PUSH32 0x4E65656420777269746520616363657373000000000000000000000000000000 PUSH1 0x0 DUP3 ADD MSTORE POP JUMP JUMPDEST PUSH32 0x416363657373206E6F7420657869737400000000000000000000000000000000 PUSH1 0x0 DUP3 ADD MSTORE POP JUMP JUMPDEST PUSH32 0x4E6F742070617469656E74000000000000000000000000000000000000000000 PUSH1 0x0 DUP3 ADD MSTORE POP JUMP JUMPDEST PUSH32 0x416C726561647920696E697469616C697A656400000000000000000000000000 PUSH1 0x0 DUP3 ADD MSTORE POP JUMP JUMPDEST PUSH32 0x416363657373436F6E74726F6C3A206163636F756E7420000000000000000000 PUSH1 0x0 DUP3 ADD MSTORE POP JUMP JUMPDEST PUSH32 0x4E6F207265717565737473207265636F72640000000000000000000000000000 PUSH1 0x0 DUP3 ADD MSTORE POP JUMP JUMPDEST PUSH32 0x206973206D697373696E6720726F6C6520000000000000000000000000000000 PUSH1 0x0 DUP3 ADD MSTORE POP JUMP JUMPDEST PUSH32 0x416363657373436F6E74726F6C3A2063616E206F6E6C792072656E6F756E6365 PUSH1 0x0 DUP3 ADD MSTORE PUSH32 0x20726F6C657320666F722073656C660000000000000000000000000000000000 PUSH1 0x20 DUP3 ADD MSTORE POP JUMP JUMPDEST PUSH2 0x3851 DUP2 PUSH2 0x33A1 JUMP JUMPDEST DUP2 EQ PUSH2 0x385C JUMPI PUSH1 0x0 DUP1 REVERT JUMPDEST POP JUMP JUMPDEST PUSH2 0x3868 DUP2 PUSH2 0x33B3 JUMP JUMPDEST DUP2 EQ PUSH2 0x3873 JUMPI PUSH1 0x0 DUP1 REVERT JUMPDEST POP JUMP JUMPDEST PUSH2 0x387F DUP2 PUSH2 0x33BF JUMP JUMPDEST DUP2 EQ PUSH2 0x388A JUMPI PUSH1 0x0 DUP1 REVERT JUMPDEST POP JUMP JUMPDEST PUSH2 0x3896 DUP2 PUSH2 0x33C9 JUMP JUMPDEST DUP2 EQ PUSH2 0x38A1 JUMPI PUSH1 0x0 DUP1 REVERT JUMPDEST POP JUMP JUMPDEST PUSH2 0x38AD DUP2 PUSH2 0x33F5 JUMP JUMPDEST DUP2 EQ PUSH2 0x38B8 JUMPI PUSH1 0x0 DUP1 REVERT JUMPDEST POP JUMP JUMPDEST PUSH2 0x38C4 DUP2 PUSH2 0x3423 JUMP JUMPDEST DUP2 EQ PUSH2 0x38CF JUMPI PUSH1 0x0 DUP1 REVERT JUMPDEST POP JUMP INVALID LOG2 PUSH5 0x6970667358 0x22 SLT KECCAK256 RETURN 0xAE 0xF7 CALLVALUE SWAP13 0xDE PUSH13 0xBE3FCCDA1697C732DC9BB77E89 STATICCALL GT CODESIZE OR ADDMOD MLOAD 0xFC PUSH7 0xFBD27DF664736F PUSH13 0x63430008060033000000000000 "
		},
		"gasEstimates": {
			"creation": {
				"codeDepositCost": "2159200",
				"executionCost": "infinite",
				"totalCost": "infinite"
			},
			"external": {
				"ADMINISTRATOR_ROLE()": "395",
				"APPLICATION_ROLE()": "375",
				"DEFAULT_ADMIN_ROLE()": "380",
				"addDoctor(address,bytes32,bytes32,bool)": "infinite",
				"addPatient((bytes32,bytes32),uint256,(uint16,uint16),string[],(bool,bool,bool),(bool,address))": "infinite",
				"applicationRequest(address)": "infinite",
				"doctorRequest(address)": "infinite",
				"getDoctor(address)": "infinite",
				"getDoctorInfo(address[])": "infinite",
				"getPatient(address)": "infinite",
				"getRoleAdmin(bytes32)": "infinite",
				"grantRole(bytes32,address)": "infinite",
				"hasRole(bytes32,address)": "3163",
				"renounceRole(bytes32,address)": "infinite",
				"revokeRole(bytes32,address)": "infinite",
				"supportsInterface(bytes4)": "751"
			}
		},
		"methodIdentifiers": {
			"ADMINISTRATOR_ROLE()": "f45edb5f",
			"APPLICATION_ROLE()": "080121da",
			"DEFAULT_ADMIN_ROLE()": "a217fddf",
			"addDoctor(address,bytes32,bytes32,bool)": "15bf3c09",
			"addPatient((bytes32,bytes32),uint256,(uint16,uint16),string[],(bool,bool,bool),(bool,address))": "b3275216",
			"applicationRequest(address)": "a4cbaf31",
			"doctorRequest(address)": "832ff210",
			"getDoctor(address)": "2f04e064",
			"getDoctorInfo(address[])": "f804d836",
			"getPatient(address)": "b5368e20",
			"getRoleAdmin(bytes32)": "248a9ca3",
			"grantRole(bytes32,address)": "2f2ff15d",
			"hasRole(bytes32,address)": "91d14854",
			"renounceRole(bytes32,address)": "36568abe",
			"revokeRole(bytes32,address)": "d547741f",
			"supportsInterface(bytes4)": "01ffc9a7"
		}
	},
	"abi": [
		{
			"inputs": [],
			"stateMutability": "nonpayable",
			"type": "constructor"
		},
		{
			"anonymous": false,
			"inputs": [
				{
					"indexed": true,
					"internalType": "bytes32",
					"name": "role",
					"type": "bytes32"
				},
				{
					"indexed": true,
					"internalType": "bytes32",
					"name": "previousAdminRole",
					"type": "bytes32"
				},
				{
					"indexed": true,
					"internalType": "bytes32",
					"name": "newAdminRole",
					"type": "bytes32"
				}
			],
			"name": "RoleAdminChanged",
			"type": "event"
		},
		{
			"anonymous": false,
			"inputs": [
				{
					"indexed": true,
					"internalType": "bytes32",
					"name": "role",
					"type": "bytes32"
				},
				{
					"indexed": true,
					"internalType": "address",
					"name": "account",
					"type": "address"
				},
				{
					"indexed": true,
					"internalType": "address",
					"name": "sender",
					"type": "address"
				}
			],
			"name": "RoleGranted",
			"type": "event"
		},
		{
			"anonymous": false,
			"inputs": [
				{
					"indexed": true,
					"internalType": "bytes32",
					"name": "role",
					"type": "bytes32"
				},
				{
					"indexed": true,
					"internalType": "address",
					"name": "account",
					"type": "address"
				},
				{
					"indexed": true,
					"internalType": "address",
					"name": "sender",
					"type": "address"
				}
			],
			"name": "RoleRevoked",
			"type": "event"
		},
		{
			"inputs": [],
			"name": "ADMINISTRATOR_ROLE",
			"outputs": [
				{
					"internalType": "bytes32",
					"name": "",
					"type": "bytes32"
				}
			],
			"stateMutability": "view",
			"type": "function"
		},
		{
			"inputs": [],
			"name": "APPLICATION_ROLE",
			"outputs": [
				{
					"internalType": "bytes32",
					"name": "",
					"type": "bytes32"
				}
			],
			"stateMutability": "view",
			"type": "function"
		},
		{
			"inputs": [],
			"name": "DEFAULT_ADMIN_ROLE",
			"outputs": [
				{
					"internalType": "bytes32",
					"name": "",
					"type": "bytes32"
				}
			],
			"stateMutability": "view",
			"type": "function"
		},
		{
			"inputs": [
				{
					"internalType": "address",
					"name": "owner_",
					"type": "address"
				},
				{
					"internalType": "bytes32",
					"name": "name_",
					"type": "bytes32"
				},
				{
					"internalType": "bytes32",
					"name": "affiliate_",
					"type": "bytes32"
				},
				{
					"internalType": "bool",
					"name": "fromApp_",
					"type": "bool"
				}
			],
			"name": "addDoctor",
			"outputs": [],
			"stateMutability": "nonpayable",
			"type": "function"
		},
		{
			"inputs": [
				{
					"components": [
						{
							"internalType": "bytes32",
							"name": "value1",
							"type": "bytes32"
						},
						{
							"internalType": "bytes32",
							"name": "value2",
							"type": "bytes32"
						}
					],
					"internalType": "struct Bytes32Pair",
					"name": "nameGender_",
					"type": "tuple"
				},
				{
					"internalType": "uint256",
					"name": "dob_",
					"type": "uint256"
				},
				{
					"components": [
						{
							"internalType": "uint16",
							"name": "value1",
							"type": "uint16"
						},
						{
							"internalType": "uint16",
							"name": "value2",
							"type": "uint16"
						}
					],
					"internalType": "struct SmallUintPair",
					"name": "physique_",
					"type": "tuple"
				},
				{
					"internalType": "string[]",
					"name": "allergy_",
					"type": "string[]"
				},
				{
					"components": [
						{
							"internalType": "bool",
							"name": "value1",
							"type": "bool"
						},
						{
							"internalType": "bool",
							"name": "value2",
							"type": "bool"
						},
						{
							"internalType": "bool",
							"name": "value3",
							"type": "bool"
						}
					],
					"internalType": "struct BoolTriple",
					"name": "habits_",
					"type": "tuple"
				},
				{
					"components": [
						{
							"internalType": "bool",
							"name": "fromApp",
							"type": "bool"
						},
						{
							"internalType": "address",
							"name": "addr",
							"type": "address"
						}
					],
					"internalType": "struct FromAppOption",
					"name": "option_",
					"type": "tuple"
				}
			],
			"name": "addPatient",
			"outputs": [],
			"stateMutability": "nonpayable",
			"type": "function"
		},
		{
			"inputs": [
				{
					"internalType": "address",
					"name": "patient_",
					"type": "address"
				}
			],
			"name": "applicationRequest",
			"outputs": [],
			"stateMutability": "nonpayable",
			"type": "function"
		},
		{
			"inputs": [
				{
					"internalType": "address",
					"name": "patient_",
					"type": "address"
				}
			],
			"name": "doctorRequest",
			"outputs": [],
			"stateMutability": "nonpayable",
			"type": "function"
		},
		{
			"inputs": [
				{
					"internalType": "address",
					"name": "owner_",
					"type": "address"
				}
			],
			"name": "getDoctor",
			"outputs": [
				{
					"internalType": "address",
					"name": "doctor",
					"type": "address"
				}
			],
			"stateMutability": "view",
			"type": "function"
		},
		{
			"inputs": [
				{
					"internalType": "address[]",
					"name": "doctors_",
					"type": "address[]"
				}
			],
			"name": "getDoctorInfo",
			"outputs": [
				{
					"components": [
						{
							"internalType": "bytes32",
							"name": "name",
							"type": "bytes32"
						},
						{
							"internalType": "bytes32",
							"name": "affiliate",
							"type": "bytes32"
						}
					],
					"internalType": "struct DoctorStruct[]",
					"name": "docInfo",
					"type": "tuple[]"
				}
			],
			"stateMutability": "view",
			"type": "function"
		},
		{
			"inputs": [
				{
					"internalType": "address",
					"name": "owner_",
					"type": "address"
				}
			],
			"name": "getPatient",
			"outputs": [
				{
					"internalType": "address",
					"name": "patient",
					"type": "address"
				}
			],
			"stateMutability": "view",
			"type": "function"
		},
		{
			"inputs": [
				{
					"internalType": "bytes32",
					"name": "role",
					"type": "bytes32"
				}
			],
			"name": "getRoleAdmin",
			"outputs": [
				{
					"internalType": "bytes32",
					"name": "",
					"type": "bytes32"
				}
			],
			"stateMutability": "view",
			"type": "function"
		},
		{
			"inputs": [
				{
					"internalType": "bytes32",
					"name": "role",
					"type": "bytes32"
				},
				{
					"internalType": "address",
					"name": "account",
					"type": "address"
				}
			],
			"name": "grantRole",
			"outputs": [],
			"stateMutability": "nonpayable",
			"type": "function"
		},
		{
			"inputs": [
				{
					"internalType": "bytes32",
					"name": "role",
					"type": "bytes32"
				},
				{
					"internalType": "address",
					"name": "account",
					"type": "address"
				}
			],
			"name": "hasRole",
			"outputs": [
				{
					"internalType": "bool",
					"name": "",
					"type": "bool"
				}
			],
			"stateMutability": "view",
			"type": "function"
		},
		{
			"inputs": [
				{
					"internalType": "bytes32",
					"name": "role",
					"type": "bytes32"
				},
				{
					"internalType": "address",
					"name": "account",
					"type": "address"
				}
			],
			"name": "renounceRole",
			"outputs": [],
			"stateMutability": "nonpayable",
			"type": "function"
		},
		{
			"inputs": [
				{
					"internalType": "bytes32",
					"name": "role",
					"type": "bytes32"
				},
				{
					"internalType": "address",
					"name": "account",
					"type": "address"
				}
			],
			"name": "revokeRole",
			"outputs": [],
			"stateMutability": "nonpayable",
			"type": "function"
		},
		{
			"inputs": [
				{
					"internalType": "bytes4",
					"name": "interfaceId",
					"type": "bytes4"
				}
			],
			"name": "supportsInterface",
			"outputs": [
				{
					"internalType": "bool",
					"name": "",
					"type": "bool"
				}
			],
			"stateMutability": "view",
			"type": "function"
		}
	]
}