{
	"data": {
		"bytecode": {
			"linkReferences": {},
			"object": "60806040526040516200001290620000f0565b604051809103906000f0801580156200002f573d6000803e3d6000fd5b50600260006101000a81548173ffffffffffffffffffffffffffffffffffffffff021916908373ffffffffffffffffffffffffffffffffffffffff1602179055506040516200007e90620000fe565b604051809103906000f0801580156200009b573d6000803e3d6000fd5b50600360006101000a81548173ffffffffffffffffffffffffffffffffffffffff021916908373ffffffffffffffffffffffffffffffffffffffff160217905550348015620000e957600080fd5b506200010c565b6128ac8062001c7383390190565b614633806200451f83390190565b611b57806200011c6000396000f3fe608060405234801561001057600080fd5b506004361061007d5760003560e01c8063a4cbaf311161005b578063a4cbaf31146100ea578063b5368e2014610106578063eb1efa7e14610136578063f804d836146101525761007d565b806315bf3c09146100825780632f04e0641461009e578063832ff210146100ce575b600080fd5b61009c6004803603810190610097919061111d565b610182565b005b6100b860048036038101906100b391906110c3565b6103b0565b6040516100c591906115a6565b60405180910390f35b6100e860048036038101906100e391906110c3565b610418565b005b61010460048036038101906100ff91906110c3565b610651565b005b610120600480360381019061011b91906110c3565b6107f3565b60405161012d91906115a6565b60405180910390f35b610150600480360381019061014b919061120d565b61085c565b005b61016c60048036038101906101679190611184565b610aa7565b604051610179919061168c565b60405180910390f35b600073ffffffffffffffffffffffffffffffffffffffff166000808673ffffffffffffffffffffffffffffffffffffffff1673ffffffffffffffffffffffffffffffffffffffff16815260200190815260200160002060009054906101000a900473ffffffffffffffffffffffffffffffffffffffff1673ffffffffffffffffffffffffffffffffffffffff161461024f576040517f08c379a0000000000000000000000000000000000000000000000000000000008152600401610246906116ee565b60405180910390fd5b600260009054906101000a900473ffffffffffffffffffffffffffffffffffffffff1673ffffffffffffffffffffffffffffffffffffffff1663f13e4869858585604051806040016040528087151581526020013373ffffffffffffffffffffffffffffffffffffffff168152506040518563ffffffff1660e01b81526004016102dc94939291906115c1565b602060405180830381600087803b1580156102f657600080fd5b505af115801561030a573d6000803e3d6000fd5b505050506040513d601f19601f8201168201806040525081019061032e91906110f0565b6000808673ffffffffffffffffffffffffffffffffffffffff1673ffffffffffffffffffffffffffffffffffffffff16815260200190815260200160002060006101000a81548173ffffffffffffffffffffffffffffffffffffffff021916908373ffffffffffffffffffffffffffffffffffffffff16021790555050505050565b60008060008373ffffffffffffffffffffffffffffffffffffffff1673ffffffffffffffffffffffffffffffffffffffff16815260200190815260200160002060009054906101000a900473ffffffffffffffffffffffffffffffffffffffff169050919050565b600073ffffffffffffffffffffffffffffffffffffffff166000803373ffffffffffffffffffffffffffffffffffffffff1673ffffffffffffffffffffffffffffffffffffffff16815260200190815260200160002060009054906101000a900473ffffffffffffffffffffffffffffffffffffffff1673ffffffffffffffffffffffffffffffffffffffff161415801561053f5750600073ffffffffffffffffffffffffffffffffffffffff16600160008373ffffffffffffffffffffffffffffffffffffffff1673ffffffffffffffffffffffffffffffffffffffff16815260200190815260200160002060009054906101000a900473ffffffffffffffffffffffffffffffffffffffff1673ffffffffffffffffffffffffffffffffffffffff1614155b61057e576040517f08c379a0000000000000000000000000000000000000000000000000000000008152600401610575906116ae565b60405180910390fd5b6000600160008373ffffffffffffffffffffffffffffffffffffffff1673ffffffffffffffffffffffffffffffffffffffff16815260200190815260200160002060009054906101000a900473ffffffffffffffffffffffffffffffffffffffff1690508073ffffffffffffffffffffffffffffffffffffffff16639aca66f8336040518263ffffffff1660e01b815260040161061b91906115a6565b600060405180830381600087803b15801561063557600080fd5b505af1158015610649573d6000803e3d6000fd5b505050505050565b600073ffffffffffffffffffffffffffffffffffffffff16600160008373ffffffffffffffffffffffffffffffffffffffff1673ffffffffffffffffffffffffffffffffffffffff16815260200190815260200160002060009054906101000a900473ffffffffffffffffffffffffffffffffffffffff1673ffffffffffffffffffffffffffffffffffffffff161415610720576040517f08c379a0000000000000000000000000000000000000000000000000000000008152600401610717906116ce565b60405180910390fd5b6000600160008373ffffffffffffffffffffffffffffffffffffffff1673ffffffffffffffffffffffffffffffffffffffff16815260200190815260200160002060009054906101000a900473ffffffffffffffffffffffffffffffffffffffff1690508073ffffffffffffffffffffffffffffffffffffffff1663e3a5a4de336040518263ffffffff1660e01b81526004016107bd91906115a6565b600060405180830381600087803b1580156107d757600080fd5b505af11580156107eb573d6000803e3d6000fd5b505050505050565b6000600160008373ffffffffffffffffffffffffffffffffffffffff1673ffffffffffffffffffffffffffffffffffffffff16815260200190815260200160002060009054906101000a900473ffffffffffffffffffffffffffffffffffffffff169050919050565b600073ffffffffffffffffffffffffffffffffffffffff1660016000836020015173ffffffffffffffffffffffffffffffffffffffff1673ffffffffffffffffffffffffffffffffffffffff16815260200190815260200160002060009054906101000a900473ffffffffffffffffffffffffffffffffffffffff1673ffffffffffffffffffffffffffffffffffffffff161461092e576040517f08c379a0000000000000000000000000000000000000000000000000000000008152600401610925906116ee565b60405180910390fd5b600360009054906101000a900473ffffffffffffffffffffffffffffffffffffffff1673ffffffffffffffffffffffffffffffffffffffff1663a402856c826020015189898989898960405180604001604052808b60000151151581526020013373ffffffffffffffffffffffffffffffffffffffff168152506040518963ffffffff1660e01b81526004016109cb989796959493929190611606565b602060405180830381600087803b1580156109e557600080fd5b505af11580156109f9573d6000803e3d6000fd5b505050506040513d601f19601f82011682018060405250810190610a1d91906110f0565b60016000836020015173ffffffffffffffffffffffffffffffffffffffff1673ffffffffffffffffffffffffffffffffffffffff16815260200190815260200160002060006101000a81548173ffffffffffffffffffffffffffffffffffffffff021916908373ffffffffffffffffffffffffffffffffffffffff16021790555050505050505050565b6060815167ffffffffffffffff811115610ac457610ac36119d5565b5b604051908082528060200260200182016040528015610afd57816020015b610aea610d42565b815260200190600190039081610ae25790505b50905060005b8251811015610d3c57600073ffffffffffffffffffffffffffffffffffffffff16600080858481518110610b3a57610b396119a6565b5b602002602001015173ffffffffffffffffffffffffffffffffffffffff1673ffffffffffffffffffffffffffffffffffffffff16815260200190815260200160002060009054906101000a900473ffffffffffffffffffffffffffffffffffffffff1673ffffffffffffffffffffffffffffffffffffffff161415610bf75760405180604001604052806000801b81526020016000801b815250828281518110610be757610be66119a6565b5b6020026020010181905250610d29565b600080600080868581518110610c1057610c0f6119a6565b5b602002602001015173ffffffffffffffffffffffffffffffffffffffff1673ffffffffffffffffffffffffffffffffffffffff16815260200190815260200160002060009054906101000a900473ffffffffffffffffffffffffffffffffffffffff1673ffffffffffffffffffffffffffffffffffffffff16635a9b0b896040518163ffffffff1660e01b8152600401604080518083038186803b158015610cb757600080fd5b505afa158015610ccb573d6000803e3d6000fd5b505050506040513d601f19601f82011682018060405250810190610cef91906111cd565b91509150604051806040016040528083815260200182815250848481518110610d1b57610d1a6119a6565b5b602002602001018190525050505b8080610d349061192e565b915050610b03565b50919050565b604051806040016040528060008019168152602001600080191681525090565b6000610d75610d7084611733565b61170e565b90508083825260208201905082856020860282011115610d9857610d97611a0e565b5b60005b85811015610dc85781610dae8882610ea2565b845260208401935060208301925050600181019050610d9b565b5050509392505050565b6000610de5610de08461175f565b61170e565b90508083825260208201905082856020860282011115610e0857610e07611a0e565b5b60005b85811015610e5657813567ffffffffffffffff811115610e2e57610e2d611a04565b5b808601610e3b8982610f67565b85526020850194506020840193505050600181019050610e0b565b5050509392505050565b6000610e73610e6e8461178b565b61170e565b905082815260208101848484011115610e8f57610e8e611a13565b5b610e9a8482856118bb565b509392505050565b600081359050610eb181611aae565b92915050565b600081519050610ec681611aae565b92915050565b600082601f830112610ee157610ee0611a04565b5b8135610ef1848260208601610d62565b91505092915050565b600082601f830112610f0f57610f0e611a04565b5b8135610f1f848260208601610dd2565b91505092915050565b600081359050610f3781611ac5565b92915050565b600081359050610f4c81611adc565b92915050565b600081519050610f6181611adc565b92915050565b600082601f830112610f7c57610f7b611a04565b5b8135610f8c848260208601610e60565b91505092915050565b600060608284031215610fab57610faa611a09565b5b610fb5606061170e565b90506000610fc584828501610f28565b6000830152506020610fd984828501610f28565b6020830152506040610fed84828501610f28565b60408301525092915050565b60006040828403121561100f5761100e611a09565b5b611019604061170e565b9050600061102984828501610f3d565b600083015250602061103d84828501610f3d565b60208301525092915050565b60006040828403121561105f5761105e611a09565b5b611069604061170e565b9050600061107984828501610f28565b600083015250602061108d84828501610ea2565b60208301525092915050565b6000813590506110a881611af3565b92915050565b6000813590506110bd81611b0a565b92915050565b6000602082840312156110d9576110d8611a1d565b5b60006110e784828501610ea2565b91505092915050565b60006020828403121561110657611105611a1d565b5b600061111484828501610eb7565b91505092915050565b6000806000806080858703121561113757611136611a1d565b5b600061114587828801610ea2565b945050602061115687828801610f3d565b935050604061116787828801610f3d565b925050606061117887828801610f28565b91505092959194509250565b60006020828403121561119a57611199611a1d565b5b600082013567ffffffffffffffff8111156111b8576111b7611a18565b5b6111c484828501610ecc565b91505092915050565b600080604083850312156111e4576111e3611a1d565b5b60006111f285828601610f52565b925050602061120385828601610f52565b9150509250929050565b6000806000806000806000610160888a03121561122d5761122c611a1d565b5b600061123b8a828b01610ff9565b975050604061124c8a828b016110ae565b965050606061125d8a828b01611099565b955050608061126e8a828b01611099565b94505060a088013567ffffffffffffffff81111561128f5761128e611a18565b5b61129b8a828b01610efa565b93505060c06112ac8a828b01610f95565b9250506101206112be8a828b01611049565b91505092959891949750929550565b60006112d98383611417565b905092915050565b60006112ed838361152a565b60408301905092915050565b6113028161185b565b82525050565b6113118161185b565b82525050565b6000611322826117dc565b61132c8185611817565b93508360208202850161133e856117bc565b8060005b8581101561137a578484038952815161135b85826112cd565b9450611366836117fd565b925060208a01995050600181019050611342565b50829750879550505050505092915050565b6000611397826117e7565b6113a18185611828565b93506113ac836117cc565b8060005b838110156113dd5781516113c488826112e1565b97506113cf8361180a565b9250506001810190506113b0565b5085935050505092915050565b6113f38161186d565b82525050565b61140281611879565b82525050565b61141181611879565b82525050565b6000611422826117f2565b61142c8185611839565b935061143c8185602086016118ca565b61144581611a22565b840191505092915050565b600061145d601f8361184a565b915061146882611a33565b602082019050919050565b600061148060158361184a565b915061148b82611a5c565b602082019050919050565b60006114a3600f8361184a565b91506114ae82611a85565b602082019050919050565b6060820160008201516114cf60008501826113ea565b5060208201516114e260208501826113ea565b5060408201516114f560408501826113ea565b50505050565b60408201600082015161151160008501826113f9565b50602082015161152460208501826113f9565b50505050565b60408201600082015161154060008501826113f9565b50602082015161155360208501826113f9565b50505050565b60408201600082015161156f60008501826113ea565b50602082015161158260208501826112f9565b50505050565b61159181611883565b82525050565b6115a0816118b1565b82525050565b60006020820190506115bb6000830184611308565b92915050565b600060a0820190506115d66000830187611308565b6115e36020830186611408565b6115f06040830185611408565b6115fd6060830184611559565b95945050505050565b60006101808201905061161c600083018b611308565b611629602083018a6114fb565b6116366060830189611597565b6116436080830188611588565b61165060a0830187611588565b81810360c08301526116628186611317565b905061167160e08301856114b9565b61167f610140830184611559565b9998505050505050505050565b600060208201905081810360008301526116a6818461138c565b905092915050565b600060208201905081810360008301526116c781611450565b9050919050565b600060208201905081810360008301526116e781611473565b9050919050565b6000602082019050818103600083015261170781611496565b9050919050565b6000611718611729565b905061172482826118fd565b919050565b6000604051905090565b600067ffffffffffffffff82111561174e5761174d6119d5565b5b602082029050602081019050919050565b600067ffffffffffffffff82111561177a576117796119d5565b5b602082029050602081019050919050565b600067ffffffffffffffff8211156117a6576117a56119d5565b5b6117af82611a22565b9050602081019050919050565b6000819050602082019050919050565b6000819050602082019050919050565b600081519050919050565b600081519050919050565b600081519050919050565b6000602082019050919050565b6000602082019050919050565b600082825260208201905092915050565b600082825260208201905092915050565b600082825260208201905092915050565b600082825260208201905092915050565b600061186682611891565b9050919050565b60008115159050919050565b6000819050919050565b600061ffff82169050919050565b600073ffffffffffffffffffffffffffffffffffffffff82169050919050565b6000819050919050565b82818337600083830152505050565b60005b838110156118e85780820151818401526020810190506118cd565b838111156118f7576000848401525b50505050565b61190682611a22565b810181811067ffffffffffffffff82111715611925576119246119d5565b5b80604052505050565b6000611939826118b1565b91507fffffffffffffffffffffffffffffffffffffffffffffffffffffffffffffffff82141561196c5761196b611977565b5b600182019050919050565b7f4e487b7100000000000000000000000000000000000000000000000000000000600052601160045260246000fd5b7f4e487b7100000000000000000000000000000000000000000000000000000000600052603260045260246000fd5b7f4e487b7100000000000000000000000000000000000000000000000000000000600052604160045260246000fd5b600080fd5b600080fd5b600080fd5b600080fd5b600080fd5b600080fd5b6000601f19601f8301169050919050565b7f446f63746f72206f722070617469656e74206973206e6f742061207573657200600082015250565b7f50617469656e74206973206e6f74206120757365720000000000000000000000600082015250565b7f50726f66696c6520657869737465640000000000000000000000000000000000600082015250565b611ab78161185b565b8114611ac257600080fd5b50565b611ace8161186d565b8114611ad957600080fd5b50565b611ae581611879565b8114611af057600080fd5b50565b611afc81611883565b8114611b0757600080fd5b50565b611b13816118b1565b8114611b1e57600080fd5b5056fea26469706673582212201fdaddb2b33036720aa1b96556b2eca7de869e872698d1d95a4573c1f1a05c5964736f6c6343000806003360a060405234801561001057600080fd5b5061002d61002261009160201b60201c565b61009960201b60201c565b6040516100399061015d565b604051809103906000f080158015610055573d6000803e3d6000fd5b5073ffffffffffffffffffffffffffffffffffffffff1660808173ffffffffffffffffffffffffffffffffffffffff1660601b8152505061016a565b600033905090565b60008060009054906101000a900473ffffffffffffffffffffffffffffffffffffffff169050816000806101000a81548173ffffffffffffffffffffffffffffffffffffffff021916908373ffffffffffffffffffffffffffffffffffffffff1602179055508173ffffffffffffffffffffffffffffffffffffffff168173ffffffffffffffffffffffffffffffffffffffff167f8be0079c531659141344cd1fd0a4f28419497f9722a3daafe3b4186f6b6457e060405160405180910390a35050565b611d7880610b3483390190565b60805160601c6109ac610188600039600061011101526109ac6000f3fe608060405234801561001057600080fd5b506004361061004c5760003560e01c8063715018a6146100515780638da5cb5b1461005b578063f13e486914610079578063f2fde38b146100a9575b600080fd5b6100596100c5565b005b6100636100d9565b6040516100709190610684565b60405180910390f35b610093600480360381019061008e9190610596565b610102565b6040516100a09190610684565b60405180910390f35b6100c360048036038101906100be9190610569565b610237565b005b6100cd6102bb565b6100d76000610339565b565b60008060009054906101000a900473ffffffffffffffffffffffffffffffffffffffff16905090565b600061010c6102bb565b6101357f00000000000000000000000000000000000000000000000000000000000000006103fd565b90508160000151156101bd578073ffffffffffffffffffffffffffffffffffffffff1663303d38b18684602001513388886040518663ffffffff1660e01b815260040161018695949392919061069f565b600060405180830381600087803b1580156101a057600080fd5b505af11580156101b4573d6000803e3d6000fd5b5050505061022f565b8073ffffffffffffffffffffffffffffffffffffffff166376cfcff6863387876040518563ffffffff1660e01b81526004016101fc94939291906106f2565b600060405180830381600087803b15801561021657600080fd5b505af115801561022a573d6000803e3d6000fd5b505050505b949350505050565b61023f6102bb565b600073ffffffffffffffffffffffffffffffffffffffff168173ffffffffffffffffffffffffffffffffffffffff1614156102af576040517f08c379a00000000000000000000000000000000000000000000000000000000081526004016102a690610737565b60405180910390fd5b6102b881610339565b50565b6102c36104d2565b73ffffffffffffffffffffffffffffffffffffffff166102e16100d9565b73ffffffffffffffffffffffffffffffffffffffff1614610337576040517f08c379a000000000000000000000000000000000000000000000000000000000815260040161032e90610777565b60405180910390fd5b565b60008060009054906101000a900473ffffffffffffffffffffffffffffffffffffffff169050816000806101000a81548173ffffffffffffffffffffffffffffffffffffffff021916908373ffffffffffffffffffffffffffffffffffffffff1602179055508173ffffffffffffffffffffffffffffffffffffffff168173ffffffffffffffffffffffffffffffffffffffff167f8be0079c531659141344cd1fd0a4f28419497f9722a3daafe3b4186f6b6457e060405160405180910390a35050565b60006040517f3d602d80600a3d3981f3363d3d373d3d3d363d7300000000000000000000000081528260601b60148201527f5af43d82803e903d91602b57fd5bf3000000000000000000000000000000000060288201526037816000f0915050600073ffffffffffffffffffffffffffffffffffffffff168173ffffffffffffffffffffffffffffffffffffffff1614156104cd576040517f08c379a00000000000000000000000000000000000000000000000000000000081526004016104c490610757565b60405180910390fd5b919050565b600033905090565b6000813590506104e981610931565b92915050565b6000813590506104fe81610948565b92915050565b6000813590506105138161095f565b92915050565b60006040828403121561052f5761052e610875565b5b6105396040610797565b90506000610549848285016104ef565b600083015250602061055d848285016104da565b60208301525092915050565b60006020828403121561057f5761057e61087a565b5b600061058d848285016104da565b91505092915050565b60008060008060a085870312156105b0576105af61087a565b5b60006105be878288016104da565b94505060206105cf87828801610504565b93505060406105e087828801610504565b92505060606105f187828801610519565b91505092959194509250565b610606816107cd565b82525050565b610615816107eb565b82525050565b60006106286026836107bc565b915061063382610890565b604082019050919050565b600061064b6016836107bc565b9150610656826108df565b602082019050919050565b600061066e6020836107bc565b915061067982610908565b602082019050919050565b600060208201905061069960008301846105fd565b92915050565b600060a0820190506106b460008301886105fd565b6106c160208301876105fd565b6106ce60408301866105fd565b6106db606083018561060c565b6106e8608083018461060c565b9695505050505050565b600060808201905061070760008301876105fd565b61071460208301866105fd565b610721604083018561060c565b61072e606083018461060c565b95945050505050565b600060208201905081810360008301526107508161061b565b9050919050565b600060208201905081810360008301526107708161063e565b9050919050565b6000602082019050818103600083015261079081610661565b9050919050565b60006107a16107b2565b90506107ad8282610815565b919050565b6000604051905090565b600082825260208201905092915050565b60006107d8826107f5565b9050919050565b60008115159050919050565b6000819050919050565b600073ffffffffffffffffffffffffffffffffffffffff82169050919050565b61081e8261087f565b810181811067ffffffffffffffff8211171561083d5761083c610846565b5b80604052505050565b7f4e487b7100000000000000000000000000000000000000000000000000000000600052604160045260246000fd5b600080fd5b600080fd5b6000601f19601f8301169050919050565b7f4f776e61626c653a206e6577206f776e657220697320746865207a65726f206160008201527f6464726573730000000000000000000000000000000000000000000000000000602082015250565b7f455243313136373a20637265617465206661696c656400000000000000000000600082015250565b7f4f776e61626c653a2063616c6c6572206973206e6f7420746865206f776e6572600082015250565b61093a816107cd565b811461094557600080fd5b50565b610951816107df565b811461095c57600080fd5b50565b610968816107eb565b811461097357600080fd5b5056fea2646970667358221220c4a32f05d8b93f9fd4fcbdb11b14b445f5e811f929d0a8e20e848d3c830e26f564736f6c63430008060033608060405234801561001057600080fd5b506100447f241ecf16d79d0f8dbfb92cbc07fe17840425976cf0667f022fe9877caa831b086000801b61004960201b60201c565b6100c9565b600061005a836100aa60201b60201c565b905081600080858152602001908152602001600020600101819055508181847fbd79b86ffe0ab8e8776151514217cd7cacd52c909f66475c3af44e129f0b00ff60405160405180910390a4505050565b6000806000838152602001908152602001600020600101549050919050565b611ca0806100d86000396000f3fe608060405234801561001057600080fd5b50600436106100f55760003560e01c806376cfcff611610097578063d294ffe011610066578063d294ffe01461025f578063d547741f1461027b578063ec87621c14610297578063fec331f2146102b5576100f5565b806376cfcff6146101d75780638bb25419146101f357806391d1485414610211578063a217fddf14610241576100f5565b8063303d38b1116100d3578063303d38b11461017657806336568abe146101925780635a9b0b89146101ae578063602792b0146101cd576100f5565b806301ffc9a7146100fa578063248a9ca31461012a5780632f2ff15d1461015a575b600080fd5b610114600480360381019061010f9190611304565b6102d3565b6040516101219190611673565b60405180910390f35b610144600480360381019061013f9190611297565b61034d565b604051610151919061168e565b60405180910390f35b610174600480360381019061016f91906112c4565b61036c565b005b610190600480360381019061018b9190611188565b61038d565b005b6101ac60048036038101906101a791906112c4565b610491565b005b6101b6610514565b6040516101c49291906116a9565b60405180910390f35b6101d5610525565b005b6101f160048036038101906101ec9190611203565b6105c1565b005b6101fb61069a565b6040516102089190611651565b60405180910390f35b61022b600480360381019061022691906112c4565b610989565b6040516102389190611673565b60405180910390f35b6102496109f3565b604051610256919061168e565b60405180910390f35b6102796004803603810190610274919061112e565b6109fa565b005b610295600480360381019061029091906112c4565b610a68565b005b61029f610a89565b6040516102ac919061168e565b60405180910390f35b6102bd610aad565b6040516102ca919061168e565b60405180910390f35b60007f7965db0b000000000000000000000000000000000000000000000000000000007bffffffffffffffffffffffffffffffffffffffffffffffffffffffff1916827bffffffffffffffffffffffffffffffffffffffffffffffffffffffff19161480610346575061034582610ad1565b5b9050919050565b6000806000838152602001908152602001600020600101549050919050565b6103758261034d565b61037e81610b3b565b6103888383610b4f565b505050565b60001515600460009054906101000a900460ff161515146103e3576040517f08c379a00000000000000000000000000000000000000000000000000000000081526004016103da90611734565b60405180910390fd5b61040d7f0af1dac7dea2fd7f7738119cec7df099dfad49aa9d2e7d17ba6b60f63ae7411f86610c2f565b6104377f241ecf16d79d0f8dbfb92cbc07fe17840425976cf0667f022fe9877caa831b0884610c2f565b6104617f241ecf16d79d0f8dbfb92cbc07fe17840425976cf0667f022fe9877caa831b0885610c2f565b81600181905550806002819055506001600460006101000a81548160ff0219169083151502179055505050505050565b610499610c3d565b73ffffffffffffffffffffffffffffffffffffffff168173ffffffffffffffffffffffffffffffffffffffff1614610506576040517f08c379a00000000000000000000000000000000000000000000000000000000081526004016104fd90611754565b60405180910390fd5b6105108282610c45565b5050565b600080600154915060025490509091565b61054f7f241ecf16d79d0f8dbfb92cbc07fe17840425976cf0667f022fe9877caa831b0833610989565b80610580575061057f7f0af1dac7dea2fd7f7738119cec7df099dfad49aa9d2e7d17ba6b60f63ae7411f33610989565b5b6105bf576040517f08c379a00000000000000000000000000000000000000000000000000000000081526004016105b690611714565b60405180910390fd5b565b60001515600460009054906101000a900460ff16151514610617576040517f08c379a000000000000000000000000000000000000000000000000000000000815260040161060e90611734565b60405180910390fd5b6106417f0af1dac7dea2fd7f7738119cec7df099dfad49aa9d2e7d17ba6b60f63ae7411f85610c2f565b61066b7f241ecf16d79d0f8dbfb92cbc07fe17840425976cf0667f022fe9877caa831b0884610c2f565b81600181905550806002819055506001600460006101000a81548160ff02191690831515021790555050505050565b606060038054905067ffffffffffffffff8111156106bb576106ba611a9e565b5b6040519080825280602002602001820160405280156106f457816020015b6106e1610fff565b8152602001906001900390816106d95790505b50905060005b6003805490508110156109855760006003828154811061071d5761071c611a6f565b5b9060005260206000200160009054906101000a900473ffffffffffffffffffffffffffffffffffffffff16905060405180608001604052806003848154811061076957610768611a6f565b5b9060005260206000200160009054906101000a900473ffffffffffffffffffffffffffffffffffffffff1673ffffffffffffffffffffffffffffffffffffffff1681526020018273ffffffffffffffffffffffffffffffffffffffff16637b0f9a366040518163ffffffff1660e01b815260040160206040518083038186803b1580156107f557600080fd5b505afa158015610809573d6000803e3d6000fd5b505050506040513d601f19601f8201168201806040525081019061082d919061115b565b73ffffffffffffffffffffffffffffffffffffffff1681526020018273ffffffffffffffffffffffffffffffffffffffff1663f595c4856040518163ffffffff1660e01b815260040160006040518083038186803b15801561088e57600080fd5b505afa1580156108a2573d6000803e3d6000fd5b505050506040513d6000823e3d601f19601f820116820180604052508101906108cb9190611331565b81526020018273ffffffffffffffffffffffffffffffffffffffff1663b2fa1c9e6040518163ffffffff1660e01b815260040160206040518083038186803b15801561091657600080fd5b505afa15801561092a573d6000803e3d6000fd5b505050506040513d601f19601f8201168201806040525081019061094e919061126a565b151581525083838151811061096657610965611a6f565b5b602002602001018190525050808061097d906119f7565b9150506106fa565b5090565b600080600084815260200190815260200160002060000160008373ffffffffffffffffffffffffffffffffffffffff1673ffffffffffffffffffffffffffffffffffffffff16815260200190815260200160002060009054906101000a900460ff16905092915050565b6000801b81565b610a02610525565b6003819080600181540180825580915050600190039060005260206000200160009091909190916101000a81548173ffffffffffffffffffffffffffffffffffffffff021916908373ffffffffffffffffffffffffffffffffffffffff16021790555050565b610a718261034d565b610a7a81610b3b565b610a848383610c45565b505050565b7f241ecf16d79d0f8dbfb92cbc07fe17840425976cf0667f022fe9877caa831b0881565b7f0af1dac7dea2fd7f7738119cec7df099dfad49aa9d2e7d17ba6b60f63ae7411f81565b60007f01ffc9a7000000000000000000000000000000000000000000000000000000007bffffffffffffffffffffffffffffffffffffffffffffffffffffffff1916827bffffffffffffffffffffffffffffffffffffffffffffffffffffffff1916149050919050565b610b4c81610b47610c3d565b610d26565b50565b610b598282610989565b610c2b57600160008084815260200190815260200160002060000160008373ffffffffffffffffffffffffffffffffffffffff1673ffffffffffffffffffffffffffffffffffffffff16815260200190815260200160002060006101000a81548160ff021916908315150217905550610bd0610c3d565b73ffffffffffffffffffffffffffffffffffffffff168173ffffffffffffffffffffffffffffffffffffffff16837f2f8788117e7eff1d82e926ec794901d17c78024a50270940304540a733656f0d60405160405180910390a45b5050565b610c398282610b4f565b5050565b600033905090565b610c4f8282610989565b15610d2257600080600084815260200190815260200160002060000160008373ffffffffffffffffffffffffffffffffffffffff1673ffffffffffffffffffffffffffffffffffffffff16815260200190815260200160002060006101000a81548160ff021916908315150217905550610cc7610c3d565b73ffffffffffffffffffffffffffffffffffffffff168173ffffffffffffffffffffffffffffffffffffffff16837ff6391f5c32d9c69d2a47ea670b442974b53935d1edc7fd64eb21e047a839171b60405160405180910390a45b5050565b610d308282610989565b610dbf57610d558173ffffffffffffffffffffffffffffffffffffffff166014610dc3565b610d638360001c6020610dc3565b604051602001610d74929190611617565b6040516020818303038152906040526040517f08c379a0000000000000000000000000000000000000000000000000000000008152600401610db691906116d2565b60405180910390fd5b5050565b606060006002836002610dd69190611891565b610de0919061183b565b67ffffffffffffffff811115610df957610df8611a9e565b5b6040519080825280601f01601f191660200182016040528015610e2b5781602001600182028036833780820191505090505b5090507f300000000000000000000000000000000000000000000000000000000000000081600081518110610e6357610e62611a6f565b5b60200101907effffffffffffffffffffffffffffffffffffffffffffffffffffffffffffff1916908160001a9053507f780000000000000000000000000000000000000000000000000000000000000081600181518110610ec757610ec6611a6f565b5b60200101907effffffffffffffffffffffffffffffffffffffffffffffffffffffffffffff1916908160001a90535060006001846002610f079190611891565b610f11919061183b565b90505b6001811115610fb1577f3031323334353637383961626364656600000000000000000000000000000000600f861660108110610f5357610f52611a6f565b5b1a60f81b828281518110610f6a57610f69611a6f565b5b60200101907effffffffffffffffffffffffffffffffffffffffffffffffffffffffffffff1916908160001a905350600485901c945080610faa9061199c565b9050610f14565b5060008414610ff5576040517f08c379a0000000000000000000000000000000000000000000000000000000008152600401610fec906116f4565b60405180910390fd5b8091505092915050565b6040518060800160405280600073ffffffffffffffffffffffffffffffffffffffff168152602001600073ffffffffffffffffffffffffffffffffffffffff168152602001606081526020016000151581525090565b600061106861106384611799565b611774565b90508281526020810184848401111561108457611083611ad2565b5b61108f848285611969565b509392505050565b6000813590506110a681611c0e565b92915050565b6000815190506110bb81611c0e565b92915050565b6000815190506110d081611c25565b92915050565b6000813590506110e581611c3c565b92915050565b6000813590506110fa81611c53565b92915050565b600082601f83011261111557611114611acd565b5b8151611125848260208601611055565b91505092915050565b60006020828403121561114457611143611adc565b5b600061115284828501611097565b91505092915050565b60006020828403121561117157611170611adc565b5b600061117f848285016110ac565b91505092915050565b600080600080600060a086880312156111a4576111a3611adc565b5b60006111b288828901611097565b95505060206111c388828901611097565b94505060406111d488828901611097565b93505060606111e5888289016110d6565b92505060806111f6888289016110d6565b9150509295509295909350565b6000806000806080858703121561121d5761121c611adc565b5b600061122b87828801611097565b945050602061123c87828801611097565b935050604061124d878288016110d6565b925050606061125e878288016110d6565b91505092959194509250565b6000602082840312156112805761127f611adc565b5b600061128e848285016110c1565b91505092915050565b6000602082840312156112ad576112ac611adc565b5b60006112bb848285016110d6565b91505092915050565b600080604083850312156112db576112da611adc565b5b60006112e9858286016110d6565b92505060206112fa85828601611097565b9150509250929050565b60006020828403121561131a57611319611adc565b5b6000611328848285016110eb565b91505092915050565b60006020828403121561134757611346611adc565b5b600082015167ffffffffffffffff81111561136557611364611ad7565b5b61137184828501611100565b91505092915050565b600061138683836115b4565b905092915050565b611397816118eb565b82525050565b60006113a8826117da565b6113b281856117fd565b9350836020820285016113c4856117ca565b8060005b8581101561140057848403895281516113e1858261137a565b94506113ec836117f0565b925060208a019950506001810190506113c8565b50829750879550505050505092915050565b61141b816118fd565b82525050565b61142a816118fd565b82525050565b61143981611909565b82525050565b600061144a826117e5565b611454818561180e565b9350611464818560208601611969565b61146d81611ae1565b840191505092915050565b6000611483826117e5565b61148d818561181f565b935061149d818560208601611969565b6114a681611ae1565b840191505092915050565b60006114bc826117e5565b6114c68185611830565b93506114d6818560208601611969565b80840191505092915050565b60006114ef60208361181f565b91506114fa82611af2565b602082019050919050565b600061151260118361181f565b915061151d82611b1b565b602082019050919050565b600061153560138361181f565b915061154082611b44565b602082019050919050565b6000611558601783611830565b915061156382611b6d565b601782019050919050565b600061157b601183611830565b915061158682611b96565b601182019050919050565b600061159e602f8361181f565b91506115a982611bbf565b604082019050919050565b60006080830160008301516115cc600086018261138e565b5060208301516115df602086018261138e565b50604083015184820360408601526115f7828261143f565b915050606083015161160c6060860182611412565b508091505092915050565b60006116228261154b565b915061162e82856114b1565b91506116398261156e565b915061164582846114b1565b91508190509392505050565b6000602082019050818103600083015261166b818461139d565b905092915050565b60006020820190506116886000830184611421565b92915050565b60006020820190506116a36000830184611430565b92915050565b60006040820190506116be6000830185611430565b6116cb6020830184611430565b9392505050565b600060208201905081810360008301526116ec8184611478565b905092915050565b6000602082019050818103600083015261170d816114e2565b9050919050565b6000602082019050818103600083015261172d81611505565b9050919050565b6000602082019050818103600083015261174d81611528565b9050919050565b6000602082019050818103600083015261176d81611591565b9050919050565b600061177e61178f565b905061178a82826119c6565b919050565b6000604051905090565b600067ffffffffffffffff8211156117b4576117b3611a9e565b5b6117bd82611ae1565b9050602081019050919050565b6000819050602082019050919050565b600081519050919050565b600081519050919050565b6000602082019050919050565b600082825260208201905092915050565b600082825260208201905092915050565b600082825260208201905092915050565b600081905092915050565b60006118468261195f565b91506118518361195f565b9250827fffffffffffffffffffffffffffffffffffffffffffffffffffffffffffffffff0382111561188657611885611a40565b5b828201905092915050565b600061189c8261195f565b91506118a78361195f565b9250817fffffffffffffffffffffffffffffffffffffffffffffffffffffffffffffffff04831182151516156118e0576118df611a40565b5b828202905092915050565b60006118f68261193f565b9050919050565b60008115159050919050565b6000819050919050565b60007fffffffff0000000000000000000000000000000000000000000000000000000082169050919050565b600073ffffffffffffffffffffffffffffffffffffffff82169050919050565b6000819050919050565b60005b8381101561198757808201518184015260208101905061196c565b83811115611996576000848401525b50505050565b60006119a78261195f565b915060008214156119bb576119ba611a40565b5b600182039050919050565b6119cf82611ae1565b810181811067ffffffffffffffff821117156119ee576119ed611a9e565b5b80604052505050565b6000611a028261195f565b91507fffffffffffffffffffffffffffffffffffffffffffffffffffffffffffffffff821415611a3557611a34611a40565b5b600182019050919050565b7f4e487b7100000000000000000000000000000000000000000000000000000000600052601160045260246000fd5b7f4e487b7100000000000000000000000000000000000000000000000000000000600052603260045260246000fd5b7f4e487b7100000000000000000000000000000000000000000000000000000000600052604160045260246000fd5b600080fd5b600080fd5b600080fd5b600080fd5b6000601f19601f8301169050919050565b7f537472696e67733a20686578206c656e67746820696e73756666696369656e74600082015250565b7f4e65656420777269746520616363657373000000000000000000000000000000600082015250565b7f416c726561647920696e697469616c697a656400000000000000000000000000600082015250565b7f416363657373436f6e74726f6c3a206163636f756e7420000000000000000000600082015250565b7f206973206d697373696e6720726f6c6520000000000000000000000000000000600082015250565b7f416363657373436f6e74726f6c3a2063616e206f6e6c792072656e6f756e636560008201527f20726f6c657320666f722073656c660000000000000000000000000000000000602082015250565b611c17816118eb565b8114611c2257600080fd5b50565b611c2e816118fd565b8114611c3957600080fd5b50565b611c4581611909565b8114611c5057600080fd5b50565b611c5c81611913565b8114611c6757600080fd5b5056fea26469706673582212200b16fdeed6a7cd0e4eec1c3fbc1d97ceaac8aeabdad7e47f63d22189069ed13964736f6c6343000806003360a060405234801561001057600080fd5b5061002d61002261009160201b60201c565b61009960201b60201c565b6040516100399061015d565b604051809103906000f080158015610055573d6000803e3d6000fd5b5073ffffffffffffffffffffffffffffffffffffffff1660808173ffffffffffffffffffffffffffffffffffffffff1660601b8152505061016a565b600033905090565b60008060009054906101000a900473ffffffffffffffffffffffffffffffffffffffff169050816000806101000a81548173ffffffffffffffffffffffffffffffffffffffff021916908373ffffffffffffffffffffffffffffffffffffffff1602179055508173ffffffffffffffffffffffffffffffffffffffff168173ffffffffffffffffffffffffffffffffffffffff167f8be0079c531659141344cd1fd0a4f28419497f9722a3daafe3b4186f6b6457e060405160405180910390a35050565b6134b48061117f83390190565b60805160601c610ff761018860003960006101110152610ff76000f3fe608060405234801561001057600080fd5b506004361061004c5760003560e01c8063715018a6146100515780638da5cb5b1461005b578063a402856c14610079578063f2fde38b146100a9575b600080fd5b6100596100c5565b005b6100636100d9565b6040516100709190610afe565b60405180910390f35b610093600480360381019061008e9190610844565b610102565b6040516100a09190610afe565b60405180910390f35b6100c360048036038101906100be9190610817565b6102db565b005b6100cd61035f565b6100d760006103dd565b565b60008060009054906101000a900473ffffffffffffffffffffffffffffffffffffffff16905090565b600061010c61035f565b6101357f00000000000000000000000000000000000000000000000000000000000000006104a1565b905081600001511561020d578073ffffffffffffffffffffffffffffffffffffffff16630444670c338b856020015160405180604001604052808e6000015181526020018e602001518152508c8c8c8c60405180606001604052808e60000151151581526020018e60200151151581526020018e6040015115158152506040518a63ffffffff1660e01b81526004016101d699989796959493929190610b19565b600060405180830381600087803b1580156101f057600080fd5b505af1158015610204573d6000803e3d6000fd5b505050506102cf565b8073ffffffffffffffffffffffffffffffffffffffff16632372f9c2338b60405180604001604052808d6000015181526020018d602001518152508b8b8b8b60405180606001604052808d60000151151581526020018d60200151151581526020018d6040015115158152506040518963ffffffff1660e01b815260040161029c989796959493929190610bae565b600060405180830381600087803b1580156102b657600080fd5b505af11580156102ca573d6000803e3d6000fd5b505050505b98975050505050505050565b6102e361035f565b600073ffffffffffffffffffffffffffffffffffffffff168173ffffffffffffffffffffffffffffffffffffffff161415610353576040517f08c379a000000000000000000000000000000000000000000000000000000000815260040161034a90610c34565b60405180910390fd5b61035c816103dd565b50565b610367610576565b73ffffffffffffffffffffffffffffffffffffffff166103856100d9565b73ffffffffffffffffffffffffffffffffffffffff16146103db576040517f08c379a00000000000000000000000000000000000000000000000000000000081526004016103d290610c74565b60405180910390fd5b565b60008060009054906101000a900473ffffffffffffffffffffffffffffffffffffffff169050816000806101000a81548173ffffffffffffffffffffffffffffffffffffffff021916908373ffffffffffffffffffffffffffffffffffffffff1602179055508173ffffffffffffffffffffffffffffffffffffffff168173ffffffffffffffffffffffffffffffffffffffff167f8be0079c531659141344cd1fd0a4f28419497f9722a3daafe3b4186f6b6457e060405160405180910390a35050565b60006040517f3d602d80600a3d3981f3363d3d373d3d3d363d7300000000000000000000000081528260601b60148201527f5af43d82803e903d91602b57fd5bf3000000000000000000000000000000000060288201526037816000f0915050600073ffffffffffffffffffffffffffffffffffffffff168173ffffffffffffffffffffffffffffffffffffffff161415610571576040517f08c379a000000000000000000000000000000000000000000000000000000000815260040161056890610c54565b60405180910390fd5b919050565b600033905090565b600061059161058c84610cb9565b610c94565b905080838252602082019050828560208602820111156105b4576105b3610e88565b5b60005b8581101561060257813567ffffffffffffffff8111156105da576105d9610e7e565b5b8086016105e789826106bb565b855260208501945060208401935050506001810190506105b7565b5050509392505050565b600061061f61061a84610ce5565b610c94565b90508281526020810184848401111561063b5761063a610e8d565b5b610646848285610ddc565b509392505050565b60008135905061065d81610f4e565b92915050565b600082601f83011261067857610677610e7e565b5b813561068884826020860161057e565b91505092915050565b6000813590506106a081610f65565b92915050565b6000813590506106b581610f7c565b92915050565b600082601f8301126106d0576106cf610e7e565b5b81356106e084826020860161060c565b91505092915050565b6000606082840312156106ff576106fe610e83565b5b6107096060610c94565b9050600061071984828501610691565b600083015250602061072d84828501610691565b602083015250604061074184828501610691565b60408301525092915050565b60006040828403121561076357610762610e83565b5b61076d6040610c94565b9050600061077d848285016106a6565b6000830152506020610791848285016106a6565b60208301525092915050565b6000604082840312156107b3576107b2610e83565b5b6107bd6040610c94565b905060006107cd84828501610691565b60008301525060206107e18482850161064e565b60208301525092915050565b6000813590506107fc81610f93565b92915050565b60008135905061081181610faa565b92915050565b60006020828403121561082d5761082c610e97565b5b600061083b8482850161064e565b91505092915050565b600080600080600080600080610180898b03121561086557610864610e97565b5b60006108738b828c0161064e565b98505060206108848b828c0161074d565b97505060606108958b828c01610802565b96505060806108a68b828c016107ed565b95505060a06108b78b828c016107ed565b94505060c089013567ffffffffffffffff8111156108d8576108d7610e92565b5b6108e48b828c01610663565b93505060e06108f58b828c016106e9565b9250506101406109078b828c0161079d565b9150509295985092959890939650565b600061092383836109cd565b905092915050565b61093481610d7c565b82525050565b600061094582610d26565b61094f8185610d49565b93508360208202850161096185610d16565b8060005b8581101561099d578484038952815161097e8582610917565b945061098983610d3c565b925060208a01995050600181019050610965565b50829750879550505050505092915050565b6109b881610d8e565b82525050565b6109c781610d9a565b82525050565b60006109d882610d31565b6109e28185610d5a565b93506109f2818560208601610deb565b6109fb81610e9c565b840191505092915050565b6000610a13602683610d6b565b9150610a1e82610ead565b604082019050919050565b6000610a36601683610d6b565b9150610a4182610efc565b602082019050919050565b6000610a59602083610d6b565b9150610a6482610f25565b602082019050919050565b606082016000820151610a8560008501826109af565b506020820151610a9860208501826109af565b506040820151610aab60408501826109af565b50505050565b604082016000820151610ac760008501826109be565b506020820151610ada60208501826109be565b50505050565b610ae981610da4565b82525050565b610af881610dd2565b82525050565b6000602082019050610b13600083018461092b565b92915050565b600061018082019050610b2f600083018c61092b565b610b3c602083018b61092b565b610b49604083018a61092b565b610b566060830189610ab1565b610b6360a0830188610aef565b610b7060c0830187610ae0565b610b7d60e0830186610ae0565b818103610100830152610b90818561093a565b9050610ba0610120830184610a6f565b9a9950505050505050505050565b600061016082019050610bc4600083018b61092b565b610bd1602083018a61092b565b610bde6040830189610ab1565b610beb6080830188610aef565b610bf860a0830187610ae0565b610c0560c0830186610ae0565b81810360e0830152610c17818561093a565b9050610c27610100830184610a6f565b9998505050505050505050565b60006020820190508181036000830152610c4d81610a06565b9050919050565b60006020820190508181036000830152610c6d81610a29565b9050919050565b60006020820190508181036000830152610c8d81610a4c565b9050919050565b6000610c9e610caf565b9050610caa8282610e1e565b919050565b6000604051905090565b600067ffffffffffffffff821115610cd457610cd3610e4f565b5b602082029050602081019050919050565b600067ffffffffffffffff821115610d0057610cff610e4f565b5b610d0982610e9c565b9050602081019050919050565b6000819050602082019050919050565b600081519050919050565b600081519050919050565b6000602082019050919050565b600082825260208201905092915050565b600082825260208201905092915050565b600082825260208201905092915050565b6000610d8782610db2565b9050919050565b60008115159050919050565b6000819050919050565b600061ffff82169050919050565b600073ffffffffffffffffffffffffffffffffffffffff82169050919050565b6000819050919050565b82818337600083830152505050565b60005b83811015610e09578082015181840152602081019050610dee565b83811115610e18576000848401525b50505050565b610e2782610e9c565b810181811067ffffffffffffffff82111715610e4657610e45610e4f565b5b80604052505050565b7f4e487b7100000000000000000000000000000000000000000000000000000000600052604160045260246000fd5b600080fd5b600080fd5b600080fd5b600080fd5b600080fd5b600080fd5b6000601f19601f8301169050919050565b7f4f776e61626c653a206e6577206f776e657220697320746865207a65726f206160008201527f6464726573730000000000000000000000000000000000000000000000000000602082015250565b7f455243313136373a20637265617465206661696c656400000000000000000000600082015250565b7f4f776e61626c653a2063616c6c6572206973206e6f7420746865206f776e6572600082015250565b610f5781610d7c565b8114610f6257600080fd5b50565b610f6e81610d8e565b8114610f7957600080fd5b50565b610f8581610d9a565b8114610f9057600080fd5b50565b610f9c81610da4565b8114610fa757600080fd5b50565b610fb381610dd2565b8114610fbe57600080fd5b5056fea2646970667358221220660544853e58a77ac8f1b3fe2fef229b01efb0bc9ffc36256f0e9193f33e08b464736f6c6343000806003360806040523480156200001157600080fd5b50620000477f72606200fac42b7dc86b75901d61ecfab2a4a1a6eded478b97a428094891abed6000801b6200014360201b60201c565b620000997f241ecf16d79d0f8dbfb92cbc07fe17840425976cf0667f022fe9877caa831b087f72606200fac42b7dc86b75901d61ecfab2a4a1a6eded478b97a428094891abed6200014360201b60201c565b620000eb7f0af1dac7dea2fd7f7738119cec7df099dfad49aa9d2e7d17ba6b60f63ae7411f7f72606200fac42b7dc86b75901d61ecfab2a4a1a6eded478b97a428094891abed6200014360201b60201c565b6200013d7faf31c50b4aab7af0193b792816047837f36c88a23bbb4d0e3581c88cb4bf86ab7f72606200fac42b7dc86b75901d61ecfab2a4a1a6eded478b97a428094891abed6200014360201b60201c565b620001c5565b60006200015683620001a660201b60201c565b905081600080858152602001908152602001600020600101819055508181847fbd79b86ffe0ab8e8776151514217cd7cacd52c909f66475c3af44e129f0b00ff60405160405180910390a4505050565b6000806000838152602001908152602001600020600101549050919050565b6132df80620001d56000396000f3fe608060405234801561001057600080fd5b50600436106101735760003560e01c8063602792b0116100de578063a217fddf11610097578063d547741f11610071578063d547741f146103f2578063e3a5a4de1461040e578063ec87621c1461042a578063fec331f21461044857610173565b8063a217fddf1461039a578063ac5cb97d146103b8578063d294ffe0146103d657610173565b8063602792b0146102da57806385e3fcab146102e457806385e685311461031457806391d14854146103305780639aca66f8146103605780639f0a5c151461037c57610173565b80632b8cc346116101305780632b8cc346146102385780632f2ff15d1461025457806336568abe1461027057806351e66efb1461028c5780635962b430146102a85780635a9b0b89146102b257610173565b806301ffc9a7146101785780630444670c146101a8578063080121da146101c45780630c9a8ecf146101e25780632372f9c2146101ec578063248a9ca314610208575b600080fd5b610192600480360381019061018d9190612539565b610466565b60405161019f9190612930565b60405180910390f35b6101c260048036038101906101bd9190612312565b6104e0565b005b6101cc6107b9565b6040516101d9919061294b565b60405180910390f35b6101ea6107dd565b005b610206600480360381019061020191906123f9565b610879565b005b610222600480360381019061021d91906124cc565b610b27565b60405161022f919061294b565b60405180910390f35b610252600480360381019061024d91906122e5565b610b46565b005b61026e600480360381019061026991906124f9565b610d5c565b005b61028a600480360381019061028591906124f9565b610d7d565b005b6102a660048036038101906102a191906122e5565b610e00565b005b6102b0610f19565b005b6102ba610f84565b6040516102d19b9a99989796959493929190612966565b60405180910390f35b6102e2611206565b005b6102fe60048036038101906102f991906122e5565b611304565b60405161030b9190612930565b60405180910390f35b61032e600480360381019061032991906122e5565b611337565b005b61034a600480360381019061034591906124f9565b611450565b6040516103579190612930565b60405180910390f35b61037a600480360381019061037591906122e5565b6114ba565b005b610384611605565b604051610391919061290e565b60405180910390f35b6103a261169b565b6040516103af919061294b565b60405180910390f35b6103c06116a2565b6040516103cd919061294b565b60405180910390f35b6103f060048036038101906103eb91906122e5565b6116c6565b005b61040c600480360381019061040791906124f9565b611734565b005b610428600480360381019061042391906122e5565b611755565b005b6104326118a0565b60405161043f919061294b565b60405180910390f35b6104506118c4565b60405161045d919061294b565b60405180910390f35b60007f7965db0b000000000000000000000000000000000000000000000000000000007bffffffffffffffffffffffffffffffffffffffffffffffffffffffff1916827bffffffffffffffffffffffffffffffffffffffffffffffffffffffff191614806104d957506104d8826118e8565b5b9050919050565b60001515600460079054906101000a900460ff16151514610536576040517f08c379a000000000000000000000000000000000000000000000000000000000815260040161052d90612b28565b60405180910390fd5b6105637f72606200fac42b7dc86b75901d61ecfab2a4a1a6eded478b97a428094891abed6000801b611952565b6105ad7f241ecf16d79d0f8dbfb92cbc07fe17840425976cf0667f022fe9877caa831b087f72606200fac42b7dc86b75901d61ecfab2a4a1a6eded478b97a428094891abed611952565b6105f77f0af1dac7dea2fd7f7738119cec7df099dfad49aa9d2e7d17ba6b60f63ae7411f7f72606200fac42b7dc86b75901d61ecfab2a4a1a6eded478b97a428094891abed611952565b6106417faf31c50b4aab7af0193b792816047837f36c88a23bbb4d0e3581c88cb4bf86ab7f72606200fac42b7dc86b75901d61ecfab2a4a1a6eded478b97a428094891abed611952565b61064e6000801b896119ad565b6106787f72606200fac42b7dc86b75901d61ecfab2a4a1a6eded478b97a428094891abed896119ad565b6106a27f241ecf16d79d0f8dbfb92cbc07fe17840425976cf0667f022fe9877caa831b088a6119ad565b6106cc7faf31c50b4aab7af0193b792816047837f36c88a23bbb4d0e3581c88cb4bf86ab886119ad565b856000015160018190555085602001516002819055508460038190555083600460006101000a81548161ffff021916908361ffff16021790555082600460026101000a81548161ffff021916908361ffff1602179055508160059080519060200190610739929190611f20565b5080600001516004806101000a81548160ff0219169083151502179055508060200151600460056101000a81548160ff0219169083151502179055508060400151600460066101000a81548160ff0219169083151502179055506001600460076101000a81548160ff021916908315150217905550505050505050505050565b7faf31c50b4aab7af0193b792816047837f36c88a23bbb4d0e3581c88cb4bf86ab81565b6108077f0af1dac7dea2fd7f7738119cec7df099dfad49aa9d2e7d17ba6b60f63ae7411f33611450565b8061083857506108377f72606200fac42b7dc86b75901d61ecfab2a4a1a6eded478b97a428094891abed33611450565b5b610877576040517f08c379a000000000000000000000000000000000000000000000000000000000815260040161086e90612aa8565b60405180910390fd5b565b60001515600460079054906101000a900460ff161515146108cf576040517f08c379a00000000000000000000000000000000000000000000000000000000081526004016108c690612b28565b60405180910390fd5b6108fc7f72606200fac42b7dc86b75901d61ecfab2a4a1a6eded478b97a428094891abed6000801b611952565b6109467f241ecf16d79d0f8dbfb92cbc07fe17840425976cf0667f022fe9877caa831b087f72606200fac42b7dc86b75901d61ecfab2a4a1a6eded478b97a428094891abed611952565b6109907f0af1dac7dea2fd7f7738119cec7df099dfad49aa9d2e7d17ba6b60f63ae7411f7f72606200fac42b7dc86b75901d61ecfab2a4a1a6eded478b97a428094891abed611952565b6109da7faf31c50b4aab7af0193b792816047837f36c88a23bbb4d0e3581c88cb4bf86ab7f72606200fac42b7dc86b75901d61ecfab2a4a1a6eded478b97a428094891abed611952565b6109e76000801b886119ad565b610a117f72606200fac42b7dc86b75901d61ecfab2a4a1a6eded478b97a428094891abed886119ad565b610a3b7f241ecf16d79d0f8dbfb92cbc07fe17840425976cf0667f022fe9877caa831b08896119ad565b856000015160018190555085602001516002819055508460038190555083600460006101000a81548161ffff021916908361ffff16021790555082600460026101000a81548161ffff021916908361ffff1602179055508160059080519060200190610aa8929190611f20565b5080600001516004806101000a81548160ff0219169083151502179055508060200151600460056101000a81548160ff0219169083151502179055508060400151600460066101000a81548160ff0219169083151502179055506001600460076101000a81548160ff0219169083151502179055505050505050505050565b6000806000838152602001908152602001600020600101549050919050565b610b4e610f19565b60008060005b600780549050811015610bf2578373ffffffffffffffffffffffffffffffffffffffff1660078281548110610b8c57610b8b612fa9565b5b9060005260206000200160009054906101000a900473ffffffffffffffffffffffffffffffffffffffff1673ffffffffffffffffffffffffffffffffffffffff161415610bdf5760019250809150610bf2565b8080610bea90612ed3565b915050610b54565b506001151582151514610c3a576040517f08c379a0000000000000000000000000000000000000000000000000000000008152600401610c3190612a68565b60405180910390fd5b610c647f0af1dac7dea2fd7f7738119cec7df099dfad49aa9d2e7d17ba6b60f63ae7411f84610d5c565b60076001600780549050610c789190612d44565b81548110610c8957610c88612fa9565b5b9060005260206000200160009054906101000a900473ffffffffffffffffffffffffffffffffffffffff1660078281548110610cc857610cc7612fa9565b5b9060005260206000200160006101000a81548173ffffffffffffffffffffffffffffffffffffffff021916908373ffffffffffffffffffffffffffffffffffffffff1602179055506007805480610d2257610d21612f7a565b5b6001900381819060005260206000200160006101000a81549073ffffffffffffffffffffffffffffffffffffffff02191690559055505050565b610d6582610b27565b610d6e816119bb565b610d7883836119cf565b505050565b610d85611aaf565b73ffffffffffffffffffffffffffffffffffffffff168173ffffffffffffffffffffffffffffffffffffffff1614610df2576040517f08c379a0000000000000000000000000000000000000000000000000000000008152600401610de990612b48565b60405180910390fd5b610dfc8282611ab7565b5050565b610e08611206565b6000610e1382611b98565b90506006805490508114610f155760066001600680549050610e359190612d44565b81548110610e4657610e45612fa9565b5b9060005260206000200160009054906101000a900473ffffffffffffffffffffffffffffffffffffffff1660068281548110610e8557610e84612fa9565b5b9060005260206000200160006101000a81548173ffffffffffffffffffffffffffffffffffffffff021916908373ffffffffffffffffffffffffffffffffffffffff1602179055506006805480610edf57610ede612f7a565b5b6001900381819060005260206000200160006101000a81549073ffffffffffffffffffffffffffffffffffffffff021916905590555b5050565b610f437f72606200fac42b7dc86b75901d61ecfab2a4a1a6eded478b97a428094891abed33611450565b610f82576040517f08c379a0000000000000000000000000000000000000000000000000000000008152600401610f7990612b08565b60405180910390fd5b565b600080600080600060606000806000606080610f9e6107dd565b60006005805480602002602001604051908101604052809291908181526020016000905b8282101561106e578382906000526020600020018054610fe190612e70565b80601f016020809104026020016040519081016040528092919081815260200182805461100d90612e70565b801561105a5780601f1061102f5761010080835404028352916020019161105a565b820191906000526020600020905b81548152906001019060200180831161103d57829003601f168201915b505050505081526020019060010190610fc2565b505050509050600154600254600354600460009054906101000a900461ffff16600460029054906101000a900461ffff168560048054906101000a900460ff16600460059054906101000a900460ff16600460069054906101000a900460ff16600660078180548060200260200160405190810160405280929190818152602001828054801561115357602002820191906000526020600020905b8160009054906101000a900473ffffffffffffffffffffffffffffffffffffffff1673ffffffffffffffffffffffffffffffffffffffff1681526020019060010190808311611109575b50505050509150808054806020026020016040519081016040528092919081815260200182805480156111db57602002820191906000526020600020905b8160009054906101000a900473ffffffffffffffffffffffffffffffffffffffff1673ffffffffffffffffffffffffffffffffffffffff1681526020019060010190808311611191575b505050505090509b509b509b509b509b509b509b509b509b509b509b5050909192939495969798999a565b6112307f0af1dac7dea2fd7f7738119cec7df099dfad49aa9d2e7d17ba6b60f63ae7411f33611450565b8061126157506112607f72606200fac42b7dc86b75901d61ecfab2a4a1a6eded478b97a428094891abed33611450565b5b8061129257506112917f241ecf16d79d0f8dbfb92cbc07fe17840425976cf0667f022fe9877caa831b0833611450565b5b806112c357506112c27faf31c50b4aab7af0193b792816047837f36c88a23bbb4d0e3581c88cb4bf86ab33611450565b5b611302576040517f08c379a00000000000000000000000000000000000000000000000000000000081526004016112f990612ac8565b60405180910390fd5b565b60006113307f0af1dac7dea2fd7f7738119cec7df099dfad49aa9d2e7d17ba6b60f63ae7411f83611450565b9050919050565b61133f610f19565b600860008273ffffffffffffffffffffffffffffffffffffffff1673ffffffffffffffffffffffffffffffffffffffff16815260200190815260200160002060009054906101000a900460ff166113cb576040517f08c379a00000000000000000000000000000000000000000000000000000000081526004016113c290612ae8565b60405180910390fd5b6113f57f0af1dac7dea2fd7f7738119cec7df099dfad49aa9d2e7d17ba6b60f63ae7411f82611734565b6000600860008373ffffffffffffffffffffffffffffffffffffffff1673ffffffffffffffffffffffffffffffffffffffff16815260200190815260200160002060006101000a81548160ff02191690831515021790555050565b600080600084815260200190815260200160002060000160008373ffffffffffffffffffffffffffffffffffffffff1673ffffffffffffffffffffffffffffffffffffffff16815260200190815260200160002060009054906101000a900460ff16905092915050565b600860008273ffffffffffffffffffffffffffffffffffffffff1673ffffffffffffffffffffffffffffffffffffffff16815260200190815260200160002060009054906101000a900460ff1615611547576040517f08c379a000000000000000000000000000000000000000000000000000000000815260040161153e90612a88565b60405180910390fd5b6007819080600181540180825580915050600190039060005260206000200160009091909190916101000a81548173ffffffffffffffffffffffffffffffffffffffff021916908373ffffffffffffffffffffffffffffffffffffffff1602179055506001600860008373ffffffffffffffffffffffffffffffffffffffff1673ffffffffffffffffffffffffffffffffffffffff16815260200190815260200160002060006101000a81548160ff02191690831515021790555050565b606061160f610f19565b600780548060200260200160405190810160405280929190818152602001828054801561169157602002820191906000526020600020905b8160009054906101000a900473ffffffffffffffffffffffffffffffffffffffff1673ffffffffffffffffffffffffffffffffffffffff1681526020019060010190808311611647575b5050505050905090565b6000801b81565b7f72606200fac42b7dc86b75901d61ecfab2a4a1a6eded478b97a428094891abed81565b6116ce611206565b6006819080600181540180825580915050600190039060005260206000200160009091909190916101000a81548173ffffffffffffffffffffffffffffffffffffffff021916908373ffffffffffffffffffffffffffffffffffffffff16021790555050565b61173d82610b27565b611746816119bb565b6117508383611ab7565b505050565b600960008273ffffffffffffffffffffffffffffffffffffffff1673ffffffffffffffffffffffffffffffffffffffff16815260200190815260200160002060009054906101000a900460ff16156117e2576040517f08c379a00000000000000000000000000000000000000000000000000000000081526004016117d990612a88565b60405180910390fd5b6007819080600181540180825580915050600190039060005260206000200160009091909190916101000a81548173ffffffffffffffffffffffffffffffffffffffff021916908373ffffffffffffffffffffffffffffffffffffffff1602179055506001600960008373ffffffffffffffffffffffffffffffffffffffff1673ffffffffffffffffffffffffffffffffffffffff16815260200190815260200160002060006101000a81548160ff02191690831515021790555050565b7f241ecf16d79d0f8dbfb92cbc07fe17840425976cf0667f022fe9877caa831b0881565b7f0af1dac7dea2fd7f7738119cec7df099dfad49aa9d2e7d17ba6b60f63ae7411f81565b60007f01ffc9a7000000000000000000000000000000000000000000000000000000007bffffffffffffffffffffffffffffffffffffffffffffffffffffffff1916827bffffffffffffffffffffffffffffffffffffffffffffffffffffffff1916149050919050565b600061195d83610b27565b905081600080858152602001908152602001600020600101819055508181847fbd79b86ffe0ab8e8776151514217cd7cacd52c909f66475c3af44e129f0b00ff60405160405180910390a4505050565b6119b782826119cf565b5050565b6119cc816119c7611aaf565b611c47565b50565b6119d98282611450565b611aab57600160008084815260200190815260200160002060000160008373ffffffffffffffffffffffffffffffffffffffff1673ffffffffffffffffffffffffffffffffffffffff16815260200190815260200160002060006101000a81548160ff021916908315150217905550611a50611aaf565b73ffffffffffffffffffffffffffffffffffffffff168173ffffffffffffffffffffffffffffffffffffffff16837f2f8788117e7eff1d82e926ec794901d17c78024a50270940304540a733656f0d60405160405180910390a45b5050565b600033905090565b611ac18282611450565b15611b9457600080600084815260200190815260200160002060000160008373ffffffffffffffffffffffffffffffffffffffff1673ffffffffffffffffffffffffffffffffffffffff16815260200190815260200160002060006101000a81548160ff021916908315150217905550611b39611aaf565b73ffffffffffffffffffffffffffffffffffffffff168173ffffffffffffffffffffffffffffffffffffffff16837ff6391f5c32d9c69d2a47ea670b442974b53935d1edc7fd64eb21e047a839171b60405160405180910390a45b5050565b600080600680549050905060005b81811015611c37578373ffffffffffffffffffffffffffffffffffffffff1660068281548110611bd957611bd8612fa9565b5b9060005260206000200160009054906101000a900473ffffffffffffffffffffffffffffffffffffffff1673ffffffffffffffffffffffffffffffffffffffff161415611c2a578092505050611c42565b8080600101915050611ba6565b506006805490509150505b919050565b611c518282611450565b611ce057611c768173ffffffffffffffffffffffffffffffffffffffff166014611ce4565b611c848360001c6020611ce4565b604051602001611c959291906128d4565b6040516020818303038152906040526040517f08c379a0000000000000000000000000000000000000000000000000000000008152600401611cd79190612a26565b60405180910390fd5b5050565b606060006002836002611cf79190612cea565b611d019190612c94565b67ffffffffffffffff811115611d1a57611d19612fd8565b5b6040519080825280601f01601f191660200182016040528015611d4c5781602001600182028036833780820191505090505b5090507f300000000000000000000000000000000000000000000000000000000000000081600081518110611d8457611d83612fa9565b5b60200101907effffffffffffffffffffffffffffffffffffffffffffffffffffffffffffff1916908160001a9053507f780000000000000000000000000000000000000000000000000000000000000081600181518110611de857611de7612fa9565b5b60200101907effffffffffffffffffffffffffffffffffffffffffffffffffffffffffffff1916908160001a90535060006001846002611e289190612cea565b611e329190612c94565b90505b6001811115611ed2577f3031323334353637383961626364656600000000000000000000000000000000600f861660108110611e7457611e73612fa9565b5b1a60f81b828281518110611e8b57611e8a612fa9565b5b60200101907effffffffffffffffffffffffffffffffffffffffffffffffffffffffffffff1916908160001a905350600485901c945080611ecb90612e46565b9050611e35565b5060008414611f16576040517f08c379a0000000000000000000000000000000000000000000000000000000008152600401611f0d90612a48565b60405180910390fd5b8091505092915050565b828054828255906000526020600020908101928215611f6f579160200282015b82811115611f6e578251829080519060200190611f5e929190611f80565b5091602001919060010190611f40565b5b509050611f7c9190612006565b5090565b828054611f8c90612e70565b90600052602060002090601f016020900481019282611fae5760008555611ff5565b82601f10611fc757805160ff1916838001178555611ff5565b82800160010185558215611ff5579182015b82811115611ff4578251825591602001919060010190611fd9565b5b509050612002919061202a565b5090565b5b80821115612026576000818161201d9190612047565b50600101612007565b5090565b5b8082111561204357600081600090555060010161202b565b5090565b50805461205390612e70565b6000825580601f106120655750612084565b601f016020900490600052602060002090810190612083919061202a565b5b50565b600061209a61209584612b8d565b612b68565b905080838252602082019050828560208602820111156120bd576120bc613011565b5b60005b8581101561210b57813567ffffffffffffffff8111156120e3576120e2613007565b5b8086016120f089826121d9565b855260208501945060208401935050506001810190506120c0565b5050509392505050565b600061212861212384612bb9565b612b68565b90508281526020810184848401111561214457612143613016565b5b61214f848285612e04565b509392505050565b6000813590506121668161321f565b92915050565b600082601f83011261218157612180613007565b5b8135612191848260208601612087565b91505092915050565b6000813590506121a981613236565b92915050565b6000813590506121be8161324d565b92915050565b6000813590506121d381613264565b92915050565b600082601f8301126121ee576121ed613007565b5b81356121fe848260208601612115565b91505092915050565b60006060828403121561221d5761221c61300c565b5b6122276060612b68565b905060006122378482850161219a565b600083015250602061224b8482850161219a565b602083015250604061225f8482850161219a565b60408301525092915050565b6000604082840312156122815761228061300c565b5b61228b6040612b68565b9050600061229b848285016121af565b60008301525060206122af848285016121af565b60208301525092915050565b6000813590506122ca8161327b565b92915050565b6000813590506122df81613292565b92915050565b6000602082840312156122fb576122fa613020565b5b600061230984828501612157565b91505092915050565b60008060008060008060008060006101808a8c03121561233557612334613020565b5b60006123438c828d01612157565b99505060206123548c828d01612157565b98505060406123658c828d01612157565b97505060606123768c828d0161226b565b96505060a06123878c828d016122d0565b95505060c06123988c828d016122bb565b94505060e06123a98c828d016122bb565b9350506101008a013567ffffffffffffffff8111156123cb576123ca61301b565b5b6123d78c828d0161216c565b9250506101206123e98c828d01612207565b9150509295985092959850929598565b600080600080600080600080610160898b03121561241a57612419613020565b5b60006124288b828c01612157565b98505060206124398b828c01612157565b975050604061244a8b828c0161226b565b965050608061245b8b828c016122d0565b95505060a061246c8b828c016122bb565b94505060c061247d8b828c016122bb565b93505060e089013567ffffffffffffffff81111561249e5761249d61301b565b5b6124aa8b828c0161216c565b9250506101006124bc8b828c01612207565b9150509295985092959890939650565b6000602082840312156124e2576124e1613020565b5b60006124f0848285016121af565b91505092915050565b600080604083850312156125105761250f613020565b5b600061251e858286016121af565b925050602061252f85828601612157565b9150509250929050565b60006020828403121561254f5761254e613020565b5b600061255d848285016121c4565b91505092915050565b60006125728383612592565b60208301905092915050565b600061258a8383612692565b905092915050565b61259b81612d78565b82525050565b60006125ac82612c0a565b6125b68185612c45565b93506125c183612bea565b8060005b838110156125f25781516125d98882612566565b97506125e483612c2b565b9250506001810190506125c5565b5085935050505092915050565b600061260a82612c15565b6126148185612c56565b93508360208202850161262685612bfa565b8060005b858110156126625784840389528151612643858261257e565b945061264e83612c38565b925060208a0199505060018101905061262a565b50829750879550505050505092915050565b61267d81612d8a565b82525050565b61268c81612d96565b82525050565b600061269d82612c20565b6126a78185612c67565b93506126b7818560208601612e13565b6126c081613025565b840191505092915050565b60006126d682612c20565b6126e08185612c78565b93506126f0818560208601612e13565b6126f981613025565b840191505092915050565b600061270f82612c20565b6127198185612c89565b9350612729818560208601612e13565b80840191505092915050565b6000612742602083612c78565b915061274d82613036565b602082019050919050565b6000612765601183612c78565b91506127708261305f565b602082019050919050565b6000612788601c83612c78565b915061279382613088565b602082019050919050565b60006127ab601083612c78565b91506127b6826130b1565b602082019050919050565b60006127ce601183612c78565b91506127d9826130da565b602082019050919050565b60006127f1601083612c78565b91506127fc82613103565b602082019050919050565b6000612814600b83612c78565b915061281f8261312c565b602082019050919050565b6000612837601383612c78565b915061284282613155565b602082019050919050565b600061285a601783612c89565b91506128658261317e565b601782019050919050565b600061287d601183612c89565b9150612888826131a7565b601182019050919050565b60006128a0602f83612c78565b91506128ab826131d0565b604082019050919050565b6128bf81612dcc565b82525050565b6128ce81612dfa565b82525050565b60006128df8261284d565b91506128eb8285612704565b91506128f682612870565b91506129028284612704565b91508190509392505050565b6000602082019050818103600083015261292881846125a1565b905092915050565b60006020820190506129456000830184612674565b92915050565b60006020820190506129606000830184612683565b92915050565b60006101608201905061297c600083018e612683565b612989602083018d612683565b612996604083018c6128c5565b6129a3606083018b6128b6565b6129b0608083018a6128b6565b81810360a08301526129c281896125ff565b90506129d160c0830188612674565b6129de60e0830187612674565b6129ec610100830186612674565b8181036101208301526129ff81856125a1565b9050818103610140830152612a1481846125a1565b90509c9b505050505050505050505050565b60006020820190508181036000830152612a4081846126cb565b905092915050565b60006020820190508181036000830152612a6181612735565b9050919050565b60006020820190508181036000830152612a8181612758565b9050919050565b60006020820190508181036000830152612aa18161277b565b9050919050565b60006020820190508181036000830152612ac18161279e565b9050919050565b60006020820190508181036000830152612ae1816127c1565b9050919050565b60006020820190508181036000830152612b01816127e4565b9050919050565b60006020820190508181036000830152612b2181612807565b9050919050565b60006020820190508181036000830152612b418161282a565b9050919050565b60006020820190508181036000830152612b6181612893565b9050919050565b6000612b72612b83565b9050612b7e8282612ea2565b919050565b6000604051905090565b600067ffffffffffffffff821115612ba857612ba7612fd8565b5b602082029050602081019050919050565b600067ffffffffffffffff821115612bd457612bd3612fd8565b5b612bdd82613025565b9050602081019050919050565b6000819050602082019050919050565b6000819050602082019050919050565b600081519050919050565b600081519050919050565b600081519050919050565b6000602082019050919050565b6000602082019050919050565b600082825260208201905092915050565b600082825260208201905092915050565b600082825260208201905092915050565b600082825260208201905092915050565b600081905092915050565b6000612c9f82612dfa565b9150612caa83612dfa565b9250827fffffffffffffffffffffffffffffffffffffffffffffffffffffffffffffffff03821115612cdf57612cde612f1c565b5b828201905092915050565b6000612cf582612dfa565b9150612d0083612dfa565b9250817fffffffffffffffffffffffffffffffffffffffffffffffffffffffffffffffff0483118215151615612d3957612d38612f1c565b5b828202905092915050565b6000612d4f82612dfa565b9150612d5a83612dfa565b925082821015612d6d57612d6c612f1c565b5b828203905092915050565b6000612d8382612dda565b9050919050565b60008115159050919050565b6000819050919050565b60007fffffffff0000000000000000000000000000000000000000000000000000000082169050919050565b600061ffff82169050919050565b600073ffffffffffffffffffffffffffffffffffffffff82169050919050565b6000819050919050565b82818337600083830152505050565b60005b83811015612e31578082015181840152602081019050612e16565b83811115612e40576000848401525b50505050565b6000612e5182612dfa565b91506000821415612e6557612e64612f1c565b5b600182039050919050565b60006002820490506001821680612e8857607f821691505b60208210811415612e9c57612e9b612f4b565b5b50919050565b612eab82613025565b810181811067ffffffffffffffff82111715612eca57612ec9612fd8565b5b80604052505050565b6000612ede82612dfa565b91507fffffffffffffffffffffffffffffffffffffffffffffffffffffffffffffffff821415612f1157612f10612f1c565b5b600182019050919050565b7f4e487b7100000000000000000000000000000000000000000000000000000000600052601160045260246000fd5b7f4e487b7100000000000000000000000000000000000000000000000000000000600052602260045260246000fd5b7f4e487b7100000000000000000000000000000000000000000000000000000000600052603160045260246000fd5b7f4e487b7100000000000000000000000000000000000000000000000000000000600052603260045260246000fd5b7f4e487b7100000000000000000000000000000000000000000000000000000000600052604160045260246000fd5b600080fd5b600080fd5b600080fd5b600080fd5b600080fd5b600080fd5b6000601f19601f8301169050919050565b7f537472696e67733a20686578206c656e67746820696e73756666696369656e74600082015250565b7f4e6f2072657175657374207265636f7264000000000000000000000000000000600082015250565b7f596f7520616c7265616479207265717565737465642061636365737300000000600082015250565b7f4e65656420726561642061636365737300000000000000000000000000000000600082015250565b7f4e65656420777269746520616363657373000000000000000000000000000000600082015250565b7f416363657373206e6f7420657869737400000000000000000000000000000000600082015250565b7f4e6f742070617469656e74000000000000000000000000000000000000000000600082015250565b7f416c726561647920696e697469616c697a656400000000000000000000000000600082015250565b7f416363657373436f6e74726f6c3a206163636f756e7420000000000000000000600082015250565b7f206973206d697373696e6720726f6c6520000000000000000000000000000000600082015250565b7f416363657373436f6e74726f6c3a2063616e206f6e6c792072656e6f756e636560008201527f20726f6c657320666f722073656c660000000000000000000000000000000000602082015250565b61322881612d78565b811461323357600080fd5b50565b61323f81612d8a565b811461324a57600080fd5b50565b61325681612d96565b811461326157600080fd5b50565b61326d81612da0565b811461327857600080fd5b50565b61328481612dcc565b811461328f57600080fd5b50565b61329b81612dfa565b81146132a657600080fd5b5056fea26469706673582212203e7a31d74ce9e3d9103522ab0c3c8a4036c120c8fb61897e613f68db7615b75d64736f6c63430008060033",
			"opcodes": "PUSH1 0x80 PUSH1 0x40 MSTORE PUSH1 0x40 MLOAD PUSH3 0x12 SWAP1 PUSH3 0xF0 JUMP JUMPDEST PUSH1 0x40 MLOAD DUP1 SWAP2 SUB SWAP1 PUSH1 0x0 CREATE DUP1 ISZERO DUP1 ISZERO PUSH3 0x2F JUMPI RETURNDATASIZE PUSH1 0x0 DUP1 RETURNDATACOPY RETURNDATASIZE PUSH1 0x0 REVERT JUMPDEST POP PUSH1 0x2 PUSH1 0x0 PUSH2 0x100 EXP DUP2 SLOAD DUP2 PUSH20 0xFFFFFFFFFFFFFFFFFFFFFFFFFFFFFFFFFFFFFFFF MUL NOT AND SWAP1 DUP4 PUSH20 0xFFFFFFFFFFFFFFFFFFFFFFFFFFFFFFFFFFFFFFFF AND MUL OR SWAP1 SSTORE POP PUSH1 0x40 MLOAD PUSH3 0x7E SWAP1 PUSH3 0xFE JUMP JUMPDEST PUSH1 0x40 MLOAD DUP1 SWAP2 SUB SWAP1 PUSH1 0x0 CREATE DUP1 ISZERO DUP1 ISZERO PUSH3 0x9B JUMPI RETURNDATASIZE PUSH1 0x0 DUP1 RETURNDATACOPY RETURNDATASIZE PUSH1 0x0 REVERT JUMPDEST POP PUSH1 0x3 PUSH1 0x0 PUSH2 0x100 EXP DUP2 SLOAD DUP2 PUSH20 0xFFFFFFFFFFFFFFFFFFFFFFFFFFFFFFFFFFFFFFFF MUL NOT AND SWAP1 DUP4 PUSH20 0xFFFFFFFFFFFFFFFFFFFFFFFFFFFFFFFFFFFFFFFF AND MUL OR SWAP1 SSTORE POP CALLVALUE DUP1 ISZERO PUSH3 0xE9 JUMPI PUSH1 0x0 DUP1 REVERT JUMPDEST POP PUSH3 0x10C JUMP JUMPDEST PUSH2 0x28AC DUP1 PUSH3 0x1C73 DUP4 CODECOPY ADD SWAP1 JUMP JUMPDEST PUSH2 0x4633 DUP1 PUSH3 0x451F DUP4 CODECOPY ADD SWAP1 JUMP JUMPDEST PUSH2 0x1B57 DUP1 PUSH3 0x11C PUSH1 0x0 CODECOPY PUSH1 0x0 RETURN INVALID PUSH1 0x80 PUSH1 0x40 MSTORE CALLVALUE DUP1 ISZERO PUSH2 0x10 JUMPI PUSH1 0x0 DUP1 REVERT JUMPDEST POP PUSH1 0x4 CALLDATASIZE LT PUSH2 0x7D JUMPI PUSH1 0x0 CALLDATALOAD PUSH1 0xE0 SHR DUP1 PUSH4 0xA4CBAF31 GT PUSH2 0x5B JUMPI DUP1 PUSH4 0xA4CBAF31 EQ PUSH2 0xEA JUMPI DUP1 PUSH4 0xB5368E20 EQ PUSH2 0x106 JUMPI DUP1 PUSH4 0xEB1EFA7E EQ PUSH2 0x136 JUMPI DUP1 PUSH4 0xF804D836 EQ PUSH2 0x152 JUMPI PUSH2 0x7D JUMP JUMPDEST DUP1 PUSH4 0x15BF3C09 EQ PUSH2 0x82 JUMPI DUP1 PUSH4 0x2F04E064 EQ PUSH2 0x9E JUMPI DUP1 PUSH4 0x832FF210 EQ PUSH2 0xCE JUMPI JUMPDEST PUSH1 0x0 DUP1 REVERT JUMPDEST PUSH2 0x9C PUSH1 0x4 DUP1 CALLDATASIZE SUB DUP2 ADD SWAP1 PUSH2 0x97 SWAP2 SWAP1 PUSH2 0x111D JUMP JUMPDEST PUSH2 0x182 JUMP JUMPDEST STOP JUMPDEST PUSH2 0xB8 PUSH1 0x4 DUP1 CALLDATASIZE SUB DUP2 ADD SWAP1 PUSH2 0xB3 SWAP2 SWAP1 PUSH2 0x10C3 JUMP JUMPDEST PUSH2 0x3B0 JUMP JUMPDEST PUSH1 0x40 MLOAD PUSH2 0xC5 SWAP2 SWAP1 PUSH2 0x15A6 JUMP JUMPDEST PUSH1 0x40 MLOAD DUP1 SWAP2 SUB SWAP1 RETURN JUMPDEST PUSH2 0xE8 PUSH1 0x4 DUP1 CALLDATASIZE SUB DUP2 ADD SWAP1 PUSH2 0xE3 SWAP2 SWAP1 PUSH2 0x10C3 JUMP JUMPDEST PUSH2 0x418 JUMP JUMPDEST STOP JUMPDEST PUSH2 0x104 PUSH1 0x4 DUP1 CALLDATASIZE SUB DUP2 ADD SWAP1 PUSH2 0xFF SWAP2 SWAP1 PUSH2 0x10C3 JUMP JUMPDEST PUSH2 0x651 JUMP JUMPDEST STOP JUMPDEST PUSH2 0x120 PUSH1 0x4 DUP1 CALLDATASIZE SUB DUP2 ADD SWAP1 PUSH2 0x11B SWAP2 SWAP1 PUSH2 0x10C3 JUMP JUMPDEST PUSH2 0x7F3 JUMP JUMPDEST PUSH1 0x40 MLOAD PUSH2 0x12D SWAP2 SWAP1 PUSH2 0x15A6 JUMP JUMPDEST PUSH1 0x40 MLOAD DUP1 SWAP2 SUB SWAP1 RETURN JUMPDEST PUSH2 0x150 PUSH1 0x4 DUP1 CALLDATASIZE SUB DUP2 ADD SWAP1 PUSH2 0x14B SWAP2 SWAP1 PUSH2 0x120D JUMP JUMPDEST PUSH2 0x85C JUMP JUMPDEST STOP JUMPDEST PUSH2 0x16C PUSH1 0x4 DUP1 CALLDATASIZE SUB DUP2 ADD SWAP1 PUSH2 0x167 SWAP2 SWAP1 PUSH2 0x1184 JUMP JUMPDEST PUSH2 0xAA7 JUMP JUMPDEST PUSH1 0x40 MLOAD PUSH2 0x179 SWAP2 SWAP1 PUSH2 0x168C JUMP JUMPDEST PUSH1 0x40 MLOAD DUP1 SWAP2 SUB SWAP1 RETURN JUMPDEST PUSH1 0x0 PUSH20 0xFFFFFFFFFFFFFFFFFFFFFFFFFFFFFFFFFFFFFFFF AND PUSH1 0x0 DUP1 DUP7 PUSH20 0xFFFFFFFFFFFFFFFFFFFFFFFFFFFFFFFFFFFFFFFF AND PUSH20 0xFFFFFFFFFFFFFFFFFFFFFFFFFFFFFFFFFFFFFFFF AND DUP2 MSTORE PUSH1 0x20 ADD SWAP1 DUP2 MSTORE PUSH1 0x20 ADD PUSH1 0x0 KECCAK256 PUSH1 0x0 SWAP1 SLOAD SWAP1 PUSH2 0x100 EXP SWAP1 DIV PUSH20 0xFFFFFFFFFFFFFFFFFFFFFFFFFFFFFFFFFFFFFFFF AND PUSH20 0xFFFFFFFFFFFFFFFFFFFFFFFFFFFFFFFFFFFFFFFF AND EQ PUSH2 0x24F JUMPI PUSH1 0x40 MLOAD PUSH32 0x8C379A000000000000000000000000000000000000000000000000000000000 DUP2 MSTORE PUSH1 0x4 ADD PUSH2 0x246 SWAP1 PUSH2 0x16EE JUMP JUMPDEST PUSH1 0x40 MLOAD DUP1 SWAP2 SUB SWAP1 REVERT JUMPDEST PUSH1 0x2 PUSH1 0x0 SWAP1 SLOAD SWAP1 PUSH2 0x100 EXP SWAP1 DIV PUSH20 0xFFFFFFFFFFFFFFFFFFFFFFFFFFFFFFFFFFFFFFFF AND PUSH20 0xFFFFFFFFFFFFFFFFFFFFFFFFFFFFFFFFFFFFFFFF AND PUSH4 0xF13E4869 DUP6 DUP6 DUP6 PUSH1 0x40 MLOAD DUP1 PUSH1 0x40 ADD PUSH1 0x40 MSTORE DUP1 DUP8 ISZERO ISZERO DUP2 MSTORE PUSH1 0x20 ADD CALLER PUSH20 0xFFFFFFFFFFFFFFFFFFFFFFFFFFFFFFFFFFFFFFFF AND DUP2 MSTORE POP PUSH1 0x40 MLOAD DUP6 PUSH4 0xFFFFFFFF AND PUSH1 0xE0 SHL DUP2 MSTORE PUSH1 0x4 ADD PUSH2 0x2DC SWAP5 SWAP4 SWAP3 SWAP2 SWAP1 PUSH2 0x15C1 JUMP JUMPDEST PUSH1 0x20 PUSH1 0x40 MLOAD DUP1 DUP4 SUB DUP2 PUSH1 0x0 DUP8 DUP1 EXTCODESIZE ISZERO DUP1 ISZERO PUSH2 0x2F6 JUMPI PUSH1 0x0 DUP1 REVERT JUMPDEST POP GAS CALL ISZERO DUP1 ISZERO PUSH2 0x30A JUMPI RETURNDATASIZE PUSH1 0x0 DUP1 RETURNDATACOPY RETURNDATASIZE PUSH1 0x0 REVERT JUMPDEST POP POP POP POP PUSH1 0x40 MLOAD RETURNDATASIZE PUSH1 0x1F NOT PUSH1 0x1F DUP3 ADD AND DUP3 ADD DUP1 PUSH1 0x40 MSTORE POP DUP2 ADD SWAP1 PUSH2 0x32E SWAP2 SWAP1 PUSH2 0x10F0 JUMP JUMPDEST PUSH1 0x0 DUP1 DUP7 PUSH20 0xFFFFFFFFFFFFFFFFFFFFFFFFFFFFFFFFFFFFFFFF AND PUSH20 0xFFFFFFFFFFFFFFFFFFFFFFFFFFFFFFFFFFFFFFFF AND DUP2 MSTORE PUSH1 0x20 ADD SWAP1 DUP2 MSTORE PUSH1 0x20 ADD PUSH1 0x0 KECCAK256 PUSH1 0x0 PUSH2 0x100 EXP DUP2 SLOAD DUP2 PUSH20 0xFFFFFFFFFFFFFFFFFFFFFFFFFFFFFFFFFFFFFFFF MUL NOT AND SWAP1 DUP4 PUSH20 0xFFFFFFFFFFFFFFFFFFFFFFFFFFFFFFFFFFFFFFFF AND MUL OR SWAP1 SSTORE POP POP POP POP POP JUMP JUMPDEST PUSH1 0x0 DUP1 PUSH1 0x0 DUP4 PUSH20 0xFFFFFFFFFFFFFFFFFFFFFFFFFFFFFFFFFFFFFFFF AND PUSH20 0xFFFFFFFFFFFFFFFFFFFFFFFFFFFFFFFFFFFFFFFF AND DUP2 MSTORE PUSH1 0x20 ADD SWAP1 DUP2 MSTORE PUSH1 0x20 ADD PUSH1 0x0 KECCAK256 PUSH1 0x0 SWAP1 SLOAD SWAP1 PUSH2 0x100 EXP SWAP1 DIV PUSH20 0xFFFFFFFFFFFFFFFFFFFFFFFFFFFFFFFFFFFFFFFF AND SWAP1 POP SWAP2 SWAP1 POP JUMP JUMPDEST PUSH1 0x0 PUSH20 0xFFFFFFFFFFFFFFFFFFFFFFFFFFFFFFFFFFFFFFFF AND PUSH1 0x0 DUP1 CALLER PUSH20 0xFFFFFFFFFFFFFFFFFFFFFFFFFFFFFFFFFFFFFFFF AND PUSH20 0xFFFFFFFFFFFFFFFFFFFFFFFFFFFFFFFFFFFFFFFF AND DUP2 MSTORE PUSH1 0x20 ADD SWAP1 DUP2 MSTORE PUSH1 0x20 ADD PUSH1 0x0 KECCAK256 PUSH1 0x0 SWAP1 SLOAD SWAP1 PUSH2 0x100 EXP SWAP1 DIV PUSH20 0xFFFFFFFFFFFFFFFFFFFFFFFFFFFFFFFFFFFFFFFF AND PUSH20 0xFFFFFFFFFFFFFFFFFFFFFFFFFFFFFFFFFFFFFFFF AND EQ ISZERO DUP1 ISZERO PUSH2 0x53F JUMPI POP PUSH1 0x0 PUSH20 0xFFFFFFFFFFFFFFFFFFFFFFFFFFFFFFFFFFFFFFFF AND PUSH1 0x1 PUSH1 0x0 DUP4 PUSH20 0xFFFFFFFFFFFFFFFFFFFFFFFFFFFFFFFFFFFFFFFF AND PUSH20 0xFFFFFFFFFFFFFFFFFFFFFFFFFFFFFFFFFFFFFFFF AND DUP2 MSTORE PUSH1 0x20 ADD SWAP1 DUP2 MSTORE PUSH1 0x20 ADD PUSH1 0x0 KECCAK256 PUSH1 0x0 SWAP1 SLOAD SWAP1 PUSH2 0x100 EXP SWAP1 DIV PUSH20 0xFFFFFFFFFFFFFFFFFFFFFFFFFFFFFFFFFFFFFFFF AND PUSH20 0xFFFFFFFFFFFFFFFFFFFFFFFFFFFFFFFFFFFFFFFF AND EQ ISZERO JUMPDEST PUSH2 0x57E JUMPI PUSH1 0x40 MLOAD PUSH32 0x8C379A000000000000000000000000000000000000000000000000000000000 DUP2 MSTORE PUSH1 0x4 ADD PUSH2 0x575 SWAP1 PUSH2 0x16AE JUMP JUMPDEST PUSH1 0x40 MLOAD DUP1 SWAP2 SUB SWAP1 REVERT JUMPDEST PUSH1 0x0 PUSH1 0x1 PUSH1 0x0 DUP4 PUSH20 0xFFFFFFFFFFFFFFFFFFFFFFFFFFFFFFFFFFFFFFFF AND PUSH20 0xFFFFFFFFFFFFFFFFFFFFFFFFFFFFFFFFFFFFFFFF AND DUP2 MSTORE PUSH1 0x20 ADD SWAP1 DUP2 MSTORE PUSH1 0x20 ADD PUSH1 0x0 KECCAK256 PUSH1 0x0 SWAP1 SLOAD SWAP1 PUSH2 0x100 EXP SWAP1 DIV PUSH20 0xFFFFFFFFFFFFFFFFFFFFFFFFFFFFFFFFFFFFFFFF AND SWAP1 POP DUP1 PUSH20 0xFFFFFFFFFFFFFFFFFFFFFFFFFFFFFFFFFFFFFFFF AND PUSH4 0x9ACA66F8 CALLER PUSH1 0x40 MLOAD DUP3 PUSH4 0xFFFFFFFF AND PUSH1 0xE0 SHL DUP2 MSTORE PUSH1 0x4 ADD PUSH2 0x61B SWAP2 SWAP1 PUSH2 0x15A6 JUMP JUMPDEST PUSH1 0x0 PUSH1 0x40 MLOAD DUP1 DUP4 SUB DUP2 PUSH1 0x0 DUP8 DUP1 EXTCODESIZE ISZERO DUP1 ISZERO PUSH2 0x635 JUMPI PUSH1 0x0 DUP1 REVERT JUMPDEST POP GAS CALL ISZERO DUP1 ISZERO PUSH2 0x649 JUMPI RETURNDATASIZE PUSH1 0x0 DUP1 RETURNDATACOPY RETURNDATASIZE PUSH1 0x0 REVERT JUMPDEST POP POP POP POP POP POP JUMP JUMPDEST PUSH1 0x0 PUSH20 0xFFFFFFFFFFFFFFFFFFFFFFFFFFFFFFFFFFFFFFFF AND PUSH1 0x1 PUSH1 0x0 DUP4 PUSH20 0xFFFFFFFFFFFFFFFFFFFFFFFFFFFFFFFFFFFFFFFF AND PUSH20 0xFFFFFFFFFFFFFFFFFFFFFFFFFFFFFFFFFFFFFFFF AND DUP2 MSTORE PUSH1 0x20 ADD SWAP1 DUP2 MSTORE PUSH1 0x20 ADD PUSH1 0x0 KECCAK256 PUSH1 0x0 SWAP1 SLOAD SWAP1 PUSH2 0x100 EXP SWAP1 DIV PUSH20 0xFFFFFFFFFFFFFFFFFFFFFFFFFFFFFFFFFFFFFFFF AND PUSH20 0xFFFFFFFFFFFFFFFFFFFFFFFFFFFFFFFFFFFFFFFF AND EQ ISZERO PUSH2 0x720 JUMPI PUSH1 0x40 MLOAD PUSH32 0x8C379A000000000000000000000000000000000000000000000000000000000 DUP2 MSTORE PUSH1 0x4 ADD PUSH2 0x717 SWAP1 PUSH2 0x16CE JUMP JUMPDEST PUSH1 0x40 MLOAD DUP1 SWAP2 SUB SWAP1 REVERT JUMPDEST PUSH1 0x0 PUSH1 0x1 PUSH1 0x0 DUP4 PUSH20 0xFFFFFFFFFFFFFFFFFFFFFFFFFFFFFFFFFFFFFFFF AND PUSH20 0xFFFFFFFFFFFFFFFFFFFFFFFFFFFFFFFFFFFFFFFF AND DUP2 MSTORE PUSH1 0x20 ADD SWAP1 DUP2 MSTORE PUSH1 0x20 ADD PUSH1 0x0 KECCAK256 PUSH1 0x0 SWAP1 SLOAD SWAP1 PUSH2 0x100 EXP SWAP1 DIV PUSH20 0xFFFFFFFFFFFFFFFFFFFFFFFFFFFFFFFFFFFFFFFF AND SWAP1 POP DUP1 PUSH20 0xFFFFFFFFFFFFFFFFFFFFFFFFFFFFFFFFFFFFFFFF AND PUSH4 0xE3A5A4DE CALLER PUSH1 0x40 MLOAD DUP3 PUSH4 0xFFFFFFFF AND PUSH1 0xE0 SHL DUP2 MSTORE PUSH1 0x4 ADD PUSH2 0x7BD SWAP2 SWAP1 PUSH2 0x15A6 JUMP JUMPDEST PUSH1 0x0 PUSH1 0x40 MLOAD DUP1 DUP4 SUB DUP2 PUSH1 0x0 DUP8 DUP1 EXTCODESIZE ISZERO DUP1 ISZERO PUSH2 0x7D7 JUMPI PUSH1 0x0 DUP1 REVERT JUMPDEST POP GAS CALL ISZERO DUP1 ISZERO PUSH2 0x7EB JUMPI RETURNDATASIZE PUSH1 0x0 DUP1 RETURNDATACOPY RETURNDATASIZE PUSH1 0x0 REVERT JUMPDEST POP POP POP POP POP POP JUMP JUMPDEST PUSH1 0x0 PUSH1 0x1 PUSH1 0x0 DUP4 PUSH20 0xFFFFFFFFFFFFFFFFFFFFFFFFFFFFFFFFFFFFFFFF AND PUSH20 0xFFFFFFFFFFFFFFFFFFFFFFFFFFFFFFFFFFFFFFFF AND DUP2 MSTORE PUSH1 0x20 ADD SWAP1 DUP2 MSTORE PUSH1 0x20 ADD PUSH1 0x0 KECCAK256 PUSH1 0x0 SWAP1 SLOAD SWAP1 PUSH2 0x100 EXP SWAP1 DIV PUSH20 0xFFFFFFFFFFFFFFFFFFFFFFFFFFFFFFFFFFFFFFFF AND SWAP1 POP SWAP2 SWAP1 POP JUMP JUMPDEST PUSH1 0x0 PUSH20 0xFFFFFFFFFFFFFFFFFFFFFFFFFFFFFFFFFFFFFFFF AND PUSH1 0x1 PUSH1 0x0 DUP4 PUSH1 0x20 ADD MLOAD PUSH20 0xFFFFFFFFFFFFFFFFFFFFFFFFFFFFFFFFFFFFFFFF AND PUSH20 0xFFFFFFFFFFFFFFFFFFFFFFFFFFFFFFFFFFFFFFFF AND DUP2 MSTORE PUSH1 0x20 ADD SWAP1 DUP2 MSTORE PUSH1 0x20 ADD PUSH1 0x0 KECCAK256 PUSH1 0x0 SWAP1 SLOAD SWAP1 PUSH2 0x100 EXP SWAP1 DIV PUSH20 0xFFFFFFFFFFFFFFFFFFFFFFFFFFFFFFFFFFFFFFFF AND PUSH20 0xFFFFFFFFFFFFFFFFFFFFFFFFFFFFFFFFFFFFFFFF AND EQ PUSH2 0x92E JUMPI PUSH1 0x40 MLOAD PUSH32 0x8C379A000000000000000000000000000000000000000000000000000000000 DUP2 MSTORE PUSH1 0x4 ADD PUSH2 0x925 SWAP1 PUSH2 0x16EE JUMP JUMPDEST PUSH1 0x40 MLOAD DUP1 SWAP2 SUB SWAP1 REVERT JUMPDEST PUSH1 0x3 PUSH1 0x0 SWAP1 SLOAD SWAP1 PUSH2 0x100 EXP SWAP1 DIV PUSH20 0xFFFFFFFFFFFFFFFFFFFFFFFFFFFFFFFFFFFFFFFF AND PUSH20 0xFFFFFFFFFFFFFFFFFFFFFFFFFFFFFFFFFFFFFFFF AND PUSH4 0xA402856C DUP3 PUSH1 0x20 ADD MLOAD DUP10 DUP10 DUP10 DUP10 DUP10 DUP10 PUSH1 0x40 MLOAD DUP1 PUSH1 0x40 ADD PUSH1 0x40 MSTORE DUP1 DUP12 PUSH1 0x0 ADD MLOAD ISZERO ISZERO DUP2 MSTORE PUSH1 0x20 ADD CALLER PUSH20 0xFFFFFFFFFFFFFFFFFFFFFFFFFFFFFFFFFFFFFFFF AND DUP2 MSTORE POP PUSH1 0x40 MLOAD DUP10 PUSH4 0xFFFFFFFF AND PUSH1 0xE0 SHL DUP2 MSTORE PUSH1 0x4 ADD PUSH2 0x9CB SWAP9 SWAP8 SWAP7 SWAP6 SWAP5 SWAP4 SWAP3 SWAP2 SWAP1 PUSH2 0x1606 JUMP JUMPDEST PUSH1 0x20 PUSH1 0x40 MLOAD DUP1 DUP4 SUB DUP2 PUSH1 0x0 DUP8 DUP1 EXTCODESIZE ISZERO DUP1 ISZERO PUSH2 0x9E5 JUMPI PUSH1 0x0 DUP1 REVERT JUMPDEST POP GAS CALL ISZERO DUP1 ISZERO PUSH2 0x9F9 JUMPI RETURNDATASIZE PUSH1 0x0 DUP1 RETURNDATACOPY RETURNDATASIZE PUSH1 0x0 REVERT JUMPDEST POP POP POP POP PUSH1 0x40 MLOAD RETURNDATASIZE PUSH1 0x1F NOT PUSH1 0x1F DUP3 ADD AND DUP3 ADD DUP1 PUSH1 0x40 MSTORE POP DUP2 ADD SWAP1 PUSH2 0xA1D SWAP2 SWAP1 PUSH2 0x10F0 JUMP JUMPDEST PUSH1 0x1 PUSH1 0x0 DUP4 PUSH1 0x20 ADD MLOAD PUSH20 0xFFFFFFFFFFFFFFFFFFFFFFFFFFFFFFFFFFFFFFFF AND PUSH20 0xFFFFFFFFFFFFFFFFFFFFFFFFFFFFFFFFFFFFFFFF AND DUP2 MSTORE PUSH1 0x20 ADD SWAP1 DUP2 MSTORE PUSH1 0x20 ADD PUSH1 0x0 KECCAK256 PUSH1 0x0 PUSH2 0x100 EXP DUP2 SLOAD DUP2 PUSH20 0xFFFFFFFFFFFFFFFFFFFFFFFFFFFFFFFFFFFFFFFF MUL NOT AND SWAP1 DUP4 PUSH20 0xFFFFFFFFFFFFFFFFFFFFFFFFFFFFFFFFFFFFFFFF AND MUL OR SWAP1 SSTORE POP POP POP POP POP POP POP POP JUMP JUMPDEST PUSH1 0x60 DUP2 MLOAD PUSH8 0xFFFFFFFFFFFFFFFF DUP2 GT ISZERO PUSH2 0xAC4 JUMPI PUSH2 0xAC3 PUSH2 0x19D5 JUMP JUMPDEST JUMPDEST PUSH1 0x40 MLOAD SWAP1 DUP1 DUP3 MSTORE DUP1 PUSH1 0x20 MUL PUSH1 0x20 ADD DUP3 ADD PUSH1 0x40 MSTORE DUP1 ISZERO PUSH2 0xAFD JUMPI DUP2 PUSH1 0x20 ADD JUMPDEST PUSH2 0xAEA PUSH2 0xD42 JUMP JUMPDEST DUP2 MSTORE PUSH1 0x20 ADD SWAP1 PUSH1 0x1 SWAP1 SUB SWAP1 DUP2 PUSH2 0xAE2 JUMPI SWAP1 POP JUMPDEST POP SWAP1 POP PUSH1 0x0 JUMPDEST DUP3 MLOAD DUP2 LT ISZERO PUSH2 0xD3C JUMPI PUSH1 0x0 PUSH20 0xFFFFFFFFFFFFFFFFFFFFFFFFFFFFFFFFFFFFFFFF AND PUSH1 0x0 DUP1 DUP6 DUP5 DUP2 MLOAD DUP2 LT PUSH2 0xB3A JUMPI PUSH2 0xB39 PUSH2 0x19A6 JUMP JUMPDEST JUMPDEST PUSH1 0x20 MUL PUSH1 0x20 ADD ADD MLOAD PUSH20 0xFFFFFFFFFFFFFFFFFFFFFFFFFFFFFFFFFFFFFFFF AND PUSH20 0xFFFFFFFFFFFFFFFFFFFFFFFFFFFFFFFFFFFFFFFF AND DUP2 MSTORE PUSH1 0x20 ADD SWAP1 DUP2 MSTORE PUSH1 0x20 ADD PUSH1 0x0 KECCAK256 PUSH1 0x0 SWAP1 SLOAD SWAP1 PUSH2 0x100 EXP SWAP1 DIV PUSH20 0xFFFFFFFFFFFFFFFFFFFFFFFFFFFFFFFFFFFFFFFF AND PUSH20 0xFFFFFFFFFFFFFFFFFFFFFFFFFFFFFFFFFFFFFFFF AND EQ ISZERO PUSH2 0xBF7 JUMPI PUSH1 0x40 MLOAD DUP1 PUSH1 0x40 ADD PUSH1 0x40 MSTORE DUP1 PUSH1 0x0 DUP1 SHL DUP2 MSTORE PUSH1 0x20 ADD PUSH1 0x0 DUP1 SHL DUP2 MSTORE POP DUP3 DUP3 DUP2 MLOAD DUP2 LT PUSH2 0xBE7 JUMPI PUSH2 0xBE6 PUSH2 0x19A6 JUMP JUMPDEST JUMPDEST PUSH1 0x20 MUL PUSH1 0x20 ADD ADD DUP2 SWAP1 MSTORE POP PUSH2 0xD29 JUMP JUMPDEST PUSH1 0x0 DUP1 PUSH1 0x0 DUP1 DUP7 DUP6 DUP2 MLOAD DUP2 LT PUSH2 0xC10 JUMPI PUSH2 0xC0F PUSH2 0x19A6 JUMP JUMPDEST JUMPDEST PUSH1 0x20 MUL PUSH1 0x20 ADD ADD MLOAD PUSH20 0xFFFFFFFFFFFFFFFFFFFFFFFFFFFFFFFFFFFFFFFF AND PUSH20 0xFFFFFFFFFFFFFFFFFFFFFFFFFFFFFFFFFFFFFFFF AND DUP2 MSTORE PUSH1 0x20 ADD SWAP1 DUP2 MSTORE PUSH1 0x20 ADD PUSH1 0x0 KECCAK256 PUSH1 0x0 SWAP1 SLOAD SWAP1 PUSH2 0x100 EXP SWAP1 DIV PUSH20 0xFFFFFFFFFFFFFFFFFFFFFFFFFFFFFFFFFFFFFFFF AND PUSH20 0xFFFFFFFFFFFFFFFFFFFFFFFFFFFFFFFFFFFFFFFF AND PUSH4 0x5A9B0B89 PUSH1 0x40 MLOAD DUP2 PUSH4 0xFFFFFFFF AND PUSH1 0xE0 SHL DUP2 MSTORE PUSH1 0x4 ADD PUSH1 0x40 DUP1 MLOAD DUP1 DUP4 SUB DUP2 DUP7 DUP1 EXTCODESIZE ISZERO DUP1 ISZERO PUSH2 0xCB7 JUMPI PUSH1 0x0 DUP1 REVERT JUMPDEST POP GAS STATICCALL ISZERO DUP1 ISZERO PUSH2 0xCCB JUMPI RETURNDATASIZE PUSH1 0x0 DUP1 RETURNDATACOPY RETURNDATASIZE PUSH1 0x0 REVERT JUMPDEST POP POP POP POP PUSH1 0x40 MLOAD RETURNDATASIZE PUSH1 0x1F NOT PUSH1 0x1F DUP3 ADD AND DUP3 ADD DUP1 PUSH1 0x40 MSTORE POP DUP2 ADD SWAP1 PUSH2 0xCEF SWAP2 SWAP1 PUSH2 0x11CD JUMP JUMPDEST SWAP2 POP SWAP2 POP PUSH1 0x40 MLOAD DUP1 PUSH1 0x40 ADD PUSH1 0x40 MSTORE DUP1 DUP4 DUP2 MSTORE PUSH1 0x20 ADD DUP3 DUP2 MSTORE POP DUP5 DUP5 DUP2 MLOAD DUP2 LT PUSH2 0xD1B JUMPI PUSH2 0xD1A PUSH2 0x19A6 JUMP JUMPDEST JUMPDEST PUSH1 0x20 MUL PUSH1 0x20 ADD ADD DUP2 SWAP1 MSTORE POP POP POP JUMPDEST DUP1 DUP1 PUSH2 0xD34 SWAP1 PUSH2 0x192E JUMP JUMPDEST SWAP2 POP POP PUSH2 0xB03 JUMP JUMPDEST POP SWAP2 SWAP1 POP JUMP JUMPDEST PUSH1 0x40 MLOAD DUP1 PUSH1 0x40 ADD PUSH1 0x40 MSTORE DUP1 PUSH1 0x0 DUP1 NOT AND DUP2 MSTORE PUSH1 0x20 ADD PUSH1 0x0 DUP1 NOT AND DUP2 MSTORE POP SWAP1 JUMP JUMPDEST PUSH1 0x0 PUSH2 0xD75 PUSH2 0xD70 DUP5 PUSH2 0x1733 JUMP JUMPDEST PUSH2 0x170E JUMP JUMPDEST SWAP1 POP DUP1 DUP4 DUP3 MSTORE PUSH1 0x20 DUP3 ADD SWAP1 POP DUP3 DUP6 PUSH1 0x20 DUP7 MUL DUP3 ADD GT ISZERO PUSH2 0xD98 JUMPI PUSH2 0xD97 PUSH2 0x1A0E JUMP JUMPDEST JUMPDEST PUSH1 0x0 JUMPDEST DUP6 DUP2 LT ISZERO PUSH2 0xDC8 JUMPI DUP2 PUSH2 0xDAE DUP9 DUP3 PUSH2 0xEA2 JUMP JUMPDEST DUP5 MSTORE PUSH1 0x20 DUP5 ADD SWAP4 POP PUSH1 0x20 DUP4 ADD SWAP3 POP POP PUSH1 0x1 DUP2 ADD SWAP1 POP PUSH2 0xD9B JUMP JUMPDEST POP POP POP SWAP4 SWAP3 POP POP POP JUMP JUMPDEST PUSH1 0x0 PUSH2 0xDE5 PUSH2 0xDE0 DUP5 PUSH2 0x175F JUMP JUMPDEST PUSH2 0x170E JUMP JUMPDEST SWAP1 POP DUP1 DUP4 DUP3 MSTORE PUSH1 0x20 DUP3 ADD SWAP1 POP DUP3 DUP6 PUSH1 0x20 DUP7 MUL DUP3 ADD GT ISZERO PUSH2 0xE08 JUMPI PUSH2 0xE07 PUSH2 0x1A0E JUMP JUMPDEST JUMPDEST PUSH1 0x0 JUMPDEST DUP6 DUP2 LT ISZERO PUSH2 0xE56 JUMPI DUP2 CALLDATALOAD PUSH8 0xFFFFFFFFFFFFFFFF DUP2 GT ISZERO PUSH2 0xE2E JUMPI PUSH2 0xE2D PUSH2 0x1A04 JUMP JUMPDEST JUMPDEST DUP1 DUP7 ADD PUSH2 0xE3B DUP10 DUP3 PUSH2 0xF67 JUMP JUMPDEST DUP6 MSTORE PUSH1 0x20 DUP6 ADD SWAP5 POP PUSH1 0x20 DUP5 ADD SWAP4 POP POP POP PUSH1 0x1 DUP2 ADD SWAP1 POP PUSH2 0xE0B JUMP JUMPDEST POP POP POP SWAP4 SWAP3 POP POP POP JUMP JUMPDEST PUSH1 0x0 PUSH2 0xE73 PUSH2 0xE6E DUP5 PUSH2 0x178B JUMP JUMPDEST PUSH2 0x170E JUMP JUMPDEST SWAP1 POP DUP3 DUP2 MSTORE PUSH1 0x20 DUP2 ADD DUP5 DUP5 DUP5 ADD GT ISZERO PUSH2 0xE8F JUMPI PUSH2 0xE8E PUSH2 0x1A13 JUMP JUMPDEST JUMPDEST PUSH2 0xE9A DUP5 DUP3 DUP6 PUSH2 0x18BB JUMP JUMPDEST POP SWAP4 SWAP3 POP POP POP JUMP JUMPDEST PUSH1 0x0 DUP2 CALLDATALOAD SWAP1 POP PUSH2 0xEB1 DUP2 PUSH2 0x1AAE JUMP JUMPDEST SWAP3 SWAP2 POP POP JUMP JUMPDEST PUSH1 0x0 DUP2 MLOAD SWAP1 POP PUSH2 0xEC6 DUP2 PUSH2 0x1AAE JUMP JUMPDEST SWAP3 SWAP2 POP POP JUMP JUMPDEST PUSH1 0x0 DUP3 PUSH1 0x1F DUP4 ADD SLT PUSH2 0xEE1 JUMPI PUSH2 0xEE0 PUSH2 0x1A04 JUMP JUMPDEST JUMPDEST DUP2 CALLDATALOAD PUSH2 0xEF1 DUP5 DUP3 PUSH1 0x20 DUP7 ADD PUSH2 0xD62 JUMP JUMPDEST SWAP2 POP POP SWAP3 SWAP2 POP POP JUMP JUMPDEST PUSH1 0x0 DUP3 PUSH1 0x1F DUP4 ADD SLT PUSH2 0xF0F JUMPI PUSH2 0xF0E PUSH2 0x1A04 JUMP JUMPDEST JUMPDEST DUP2 CALLDATALOAD PUSH2 0xF1F DUP5 DUP3 PUSH1 0x20 DUP7 ADD PUSH2 0xDD2 JUMP JUMPDEST SWAP2 POP POP SWAP3 SWAP2 POP POP JUMP JUMPDEST PUSH1 0x0 DUP2 CALLDATALOAD SWAP1 POP PUSH2 0xF37 DUP2 PUSH2 0x1AC5 JUMP JUMPDEST SWAP3 SWAP2 POP POP JUMP JUMPDEST PUSH1 0x0 DUP2 CALLDATALOAD SWAP1 POP PUSH2 0xF4C DUP2 PUSH2 0x1ADC JUMP JUMPDEST SWAP3 SWAP2 POP POP JUMP JUMPDEST PUSH1 0x0 DUP2 MLOAD SWAP1 POP PUSH2 0xF61 DUP2 PUSH2 0x1ADC JUMP JUMPDEST SWAP3 SWAP2 POP POP JUMP JUMPDEST PUSH1 0x0 DUP3 PUSH1 0x1F DUP4 ADD SLT PUSH2 0xF7C JUMPI PUSH2 0xF7B PUSH2 0x1A04 JUMP JUMPDEST JUMPDEST DUP2 CALLDATALOAD PUSH2 0xF8C DUP5 DUP3 PUSH1 0x20 DUP7 ADD PUSH2 0xE60 JUMP JUMPDEST SWAP2 POP POP SWAP3 SWAP2 POP POP JUMP JUMPDEST PUSH1 0x0 PUSH1 0x60 DUP3 DUP5 SUB SLT ISZERO PUSH2 0xFAB JUMPI PUSH2 0xFAA PUSH2 0x1A09 JUMP JUMPDEST JUMPDEST PUSH2 0xFB5 PUSH1 0x60 PUSH2 0x170E JUMP JUMPDEST SWAP1 POP PUSH1 0x0 PUSH2 0xFC5 DUP5 DUP3 DUP6 ADD PUSH2 0xF28 JUMP JUMPDEST PUSH1 0x0 DUP4 ADD MSTORE POP PUSH1 0x20 PUSH2 0xFD9 DUP5 DUP3 DUP6 ADD PUSH2 0xF28 JUMP JUMPDEST PUSH1 0x20 DUP4 ADD MSTORE POP PUSH1 0x40 PUSH2 0xFED DUP5 DUP3 DUP6 ADD PUSH2 0xF28 JUMP JUMPDEST PUSH1 0x40 DUP4 ADD MSTORE POP SWAP3 SWAP2 POP POP JUMP JUMPDEST PUSH1 0x0 PUSH1 0x40 DUP3 DUP5 SUB SLT ISZERO PUSH2 0x100F JUMPI PUSH2 0x100E PUSH2 0x1A09 JUMP JUMPDEST JUMPDEST PUSH2 0x1019 PUSH1 0x40 PUSH2 0x170E JUMP JUMPDEST SWAP1 POP PUSH1 0x0 PUSH2 0x1029 DUP5 DUP3 DUP6 ADD PUSH2 0xF3D JUMP JUMPDEST PUSH1 0x0 DUP4 ADD MSTORE POP PUSH1 0x20 PUSH2 0x103D DUP5 DUP3 DUP6 ADD PUSH2 0xF3D JUMP JUMPDEST PUSH1 0x20 DUP4 ADD MSTORE POP SWAP3 SWAP2 POP POP JUMP JUMPDEST PUSH1 0x0 PUSH1 0x40 DUP3 DUP5 SUB SLT ISZERO PUSH2 0x105F JUMPI PUSH2 0x105E PUSH2 0x1A09 JUMP JUMPDEST JUMPDEST PUSH2 0x1069 PUSH1 0x40 PUSH2 0x170E JUMP JUMPDEST SWAP1 POP PUSH1 0x0 PUSH2 0x1079 DUP5 DUP3 DUP6 ADD PUSH2 0xF28 JUMP JUMPDEST PUSH1 0x0 DUP4 ADD MSTORE POP PUSH1 0x20 PUSH2 0x108D DUP5 DUP3 DUP6 ADD PUSH2 0xEA2 JUMP JUMPDEST PUSH1 0x20 DUP4 ADD MSTORE POP SWAP3 SWAP2 POP POP JUMP JUMPDEST PUSH1 0x0 DUP2 CALLDATALOAD SWAP1 POP PUSH2 0x10A8 DUP2 PUSH2 0x1AF3 JUMP JUMPDEST SWAP3 SWAP2 POP POP JUMP JUMPDEST PUSH1 0x0 DUP2 CALLDATALOAD SWAP1 POP PUSH2 0x10BD DUP2 PUSH2 0x1B0A JUMP JUMPDEST SWAP3 SWAP2 POP POP JUMP JUMPDEST PUSH1 0x0 PUSH1 0x20 DUP3 DUP5 SUB SLT ISZERO PUSH2 0x10D9 JUMPI PUSH2 0x10D8 PUSH2 0x1A1D JUMP JUMPDEST JUMPDEST PUSH1 0x0 PUSH2 0x10E7 DUP5 DUP3 DUP6 ADD PUSH2 0xEA2 JUMP JUMPDEST SWAP2 POP POP SWAP3 SWAP2 POP POP JUMP JUMPDEST PUSH1 0x0 PUSH1 0x20 DUP3 DUP5 SUB SLT ISZERO PUSH2 0x1106 JUMPI PUSH2 0x1105 PUSH2 0x1A1D JUMP JUMPDEST JUMPDEST PUSH1 0x0 PUSH2 0x1114 DUP5 DUP3 DUP6 ADD PUSH2 0xEB7 JUMP JUMPDEST SWAP2 POP POP SWAP3 SWAP2 POP POP JUMP JUMPDEST PUSH1 0x0 DUP1 PUSH1 0x0 DUP1 PUSH1 0x80 DUP6 DUP8 SUB SLT ISZERO PUSH2 0x1137 JUMPI PUSH2 0x1136 PUSH2 0x1A1D JUMP JUMPDEST JUMPDEST PUSH1 0x0 PUSH2 0x1145 DUP8 DUP3 DUP9 ADD PUSH2 0xEA2 JUMP JUMPDEST SWAP5 POP POP PUSH1 0x20 PUSH2 0x1156 DUP8 DUP3 DUP9 ADD PUSH2 0xF3D JUMP JUMPDEST SWAP4 POP POP PUSH1 0x40 PUSH2 0x1167 DUP8 DUP3 DUP9 ADD PUSH2 0xF3D JUMP JUMPDEST SWAP3 POP POP PUSH1 0x60 PUSH2 0x1178 DUP8 DUP3 DUP9 ADD PUSH2 0xF28 JUMP JUMPDEST SWAP2 POP POP SWAP3 SWAP6 SWAP2 SWAP5 POP SWAP3 POP JUMP JUMPDEST PUSH1 0x0 PUSH1 0x20 DUP3 DUP5 SUB SLT ISZERO PUSH2 0x119A JUMPI PUSH2 0x1199 PUSH2 0x1A1D JUMP JUMPDEST JUMPDEST PUSH1 0x0 DUP3 ADD CALLDATALOAD PUSH8 0xFFFFFFFFFFFFFFFF DUP2 GT ISZERO PUSH2 0x11B8 JUMPI PUSH2 0x11B7 PUSH2 0x1A18 JUMP JUMPDEST JUMPDEST PUSH2 0x11C4 DUP5 DUP3 DUP6 ADD PUSH2 0xECC JUMP JUMPDEST SWAP2 POP POP SWAP3 SWAP2 POP POP JUMP JUMPDEST PUSH1 0x0 DUP1 PUSH1 0x40 DUP4 DUP6 SUB SLT ISZERO PUSH2 0x11E4 JUMPI PUSH2 0x11E3 PUSH2 0x1A1D JUMP JUMPDEST JUMPDEST PUSH1 0x0 PUSH2 0x11F2 DUP6 DUP3 DUP7 ADD PUSH2 0xF52 JUMP JUMPDEST SWAP3 POP POP PUSH1 0x20 PUSH2 0x1203 DUP6 DUP3 DUP7 ADD PUSH2 0xF52 JUMP JUMPDEST SWAP2 POP POP SWAP3 POP SWAP3 SWAP1 POP JUMP JUMPDEST PUSH1 0x0 DUP1 PUSH1 0x0 DUP1 PUSH1 0x0 DUP1 PUSH1 0x0 PUSH2 0x160 DUP9 DUP11 SUB SLT ISZERO PUSH2 0x122D JUMPI PUSH2 0x122C PUSH2 0x1A1D JUMP JUMPDEST JUMPDEST PUSH1 0x0 PUSH2 0x123B DUP11 DUP3 DUP12 ADD PUSH2 0xFF9 JUMP JUMPDEST SWAP8 POP POP PUSH1 0x40 PUSH2 0x124C DUP11 DUP3 DUP12 ADD PUSH2 0x10AE JUMP JUMPDEST SWAP7 POP POP PUSH1 0x60 PUSH2 0x125D DUP11 DUP3 DUP12 ADD PUSH2 0x1099 JUMP JUMPDEST SWAP6 POP POP PUSH1 0x80 PUSH2 0x126E DUP11 DUP3 DUP12 ADD PUSH2 0x1099 JUMP JUMPDEST SWAP5 POP POP PUSH1 0xA0 DUP9 ADD CALLDATALOAD PUSH8 0xFFFFFFFFFFFFFFFF DUP2 GT ISZERO PUSH2 0x128F JUMPI PUSH2 0x128E PUSH2 0x1A18 JUMP JUMPDEST JUMPDEST PUSH2 0x129B DUP11 DUP3 DUP12 ADD PUSH2 0xEFA JUMP JUMPDEST SWAP4 POP POP PUSH1 0xC0 PUSH2 0x12AC DUP11 DUP3 DUP12 ADD PUSH2 0xF95 JUMP JUMPDEST SWAP3 POP POP PUSH2 0x120 PUSH2 0x12BE DUP11 DUP3 DUP12 ADD PUSH2 0x1049 JUMP JUMPDEST SWAP2 POP POP SWAP3 SWAP6 SWAP9 SWAP2 SWAP5 SWAP8 POP SWAP3 SWAP6 POP JUMP JUMPDEST PUSH1 0x0 PUSH2 0x12D9 DUP4 DUP4 PUSH2 0x1417 JUMP JUMPDEST SWAP1 POP SWAP3 SWAP2 POP POP JUMP JUMPDEST PUSH1 0x0 PUSH2 0x12ED DUP4 DUP4 PUSH2 0x152A JUMP JUMPDEST PUSH1 0x40 DUP4 ADD SWAP1 POP SWAP3 SWAP2 POP POP JUMP JUMPDEST PUSH2 0x1302 DUP2 PUSH2 0x185B JUMP JUMPDEST DUP3 MSTORE POP POP JUMP JUMPDEST PUSH2 0x1311 DUP2 PUSH2 0x185B JUMP JUMPDEST DUP3 MSTORE POP POP JUMP JUMPDEST PUSH1 0x0 PUSH2 0x1322 DUP3 PUSH2 0x17DC JUMP JUMPDEST PUSH2 0x132C DUP2 DUP6 PUSH2 0x1817 JUMP JUMPDEST SWAP4 POP DUP4 PUSH1 0x20 DUP3 MUL DUP6 ADD PUSH2 0x133E DUP6 PUSH2 0x17BC JUMP JUMPDEST DUP1 PUSH1 0x0 JUMPDEST DUP6 DUP2 LT ISZERO PUSH2 0x137A JUMPI DUP5 DUP5 SUB DUP10 MSTORE DUP2 MLOAD PUSH2 0x135B DUP6 DUP3 PUSH2 0x12CD JUMP JUMPDEST SWAP5 POP PUSH2 0x1366 DUP4 PUSH2 0x17FD JUMP JUMPDEST SWAP3 POP PUSH1 0x20 DUP11 ADD SWAP10 POP POP PUSH1 0x1 DUP2 ADD SWAP1 POP PUSH2 0x1342 JUMP JUMPDEST POP DUP3 SWAP8 POP DUP8 SWAP6 POP POP POP POP POP POP SWAP3 SWAP2 POP POP JUMP JUMPDEST PUSH1 0x0 PUSH2 0x1397 DUP3 PUSH2 0x17E7 JUMP JUMPDEST PUSH2 0x13A1 DUP2 DUP6 PUSH2 0x1828 JUMP JUMPDEST SWAP4 POP PUSH2 0x13AC DUP4 PUSH2 0x17CC JUMP JUMPDEST DUP1 PUSH1 0x0 JUMPDEST DUP4 DUP2 LT ISZERO PUSH2 0x13DD JUMPI DUP2 MLOAD PUSH2 0x13C4 DUP9 DUP3 PUSH2 0x12E1 JUMP JUMPDEST SWAP8 POP PUSH2 0x13CF DUP4 PUSH2 0x180A JUMP JUMPDEST SWAP3 POP POP PUSH1 0x1 DUP2 ADD SWAP1 POP PUSH2 0x13B0 JUMP JUMPDEST POP DUP6 SWAP4 POP POP POP POP SWAP3 SWAP2 POP POP JUMP JUMPDEST PUSH2 0x13F3 DUP2 PUSH2 0x186D JUMP JUMPDEST DUP3 MSTORE POP POP JUMP JUMPDEST PUSH2 0x1402 DUP2 PUSH2 0x1879 JUMP JUMPDEST DUP3 MSTORE POP POP JUMP JUMPDEST PUSH2 0x1411 DUP2 PUSH2 0x1879 JUMP JUMPDEST DUP3 MSTORE POP POP JUMP JUMPDEST PUSH1 0x0 PUSH2 0x1422 DUP3 PUSH2 0x17F2 JUMP JUMPDEST PUSH2 0x142C DUP2 DUP6 PUSH2 0x1839 JUMP JUMPDEST SWAP4 POP PUSH2 0x143C DUP2 DUP6 PUSH1 0x20 DUP7 ADD PUSH2 0x18CA JUMP JUMPDEST PUSH2 0x1445 DUP2 PUSH2 0x1A22 JUMP JUMPDEST DUP5 ADD SWAP2 POP POP SWAP3 SWAP2 POP POP JUMP JUMPDEST PUSH1 0x0 PUSH2 0x145D PUSH1 0x1F DUP4 PUSH2 0x184A JUMP JUMPDEST SWAP2 POP PUSH2 0x1468 DUP3 PUSH2 0x1A33 JUMP JUMPDEST PUSH1 0x20 DUP3 ADD SWAP1 POP SWAP2 SWAP1 POP JUMP JUMPDEST PUSH1 0x0 PUSH2 0x1480 PUSH1 0x15 DUP4 PUSH2 0x184A JUMP JUMPDEST SWAP2 POP PUSH2 0x148B DUP3 PUSH2 0x1A5C JUMP JUMPDEST PUSH1 0x20 DUP3 ADD SWAP1 POP SWAP2 SWAP1 POP JUMP JUMPDEST PUSH1 0x0 PUSH2 0x14A3 PUSH1 0xF DUP4 PUSH2 0x184A JUMP JUMPDEST SWAP2 POP PUSH2 0x14AE DUP3 PUSH2 0x1A85 JUMP JUMPDEST PUSH1 0x20 DUP3 ADD SWAP1 POP SWAP2 SWAP1 POP JUMP JUMPDEST PUSH1 0x60 DUP3 ADD PUSH1 0x0 DUP3 ADD MLOAD PUSH2 0x14CF PUSH1 0x0 DUP6 ADD DUP3 PUSH2 0x13EA JUMP JUMPDEST POP PUSH1 0x20 DUP3 ADD MLOAD PUSH2 0x14E2 PUSH1 0x20 DUP6 ADD DUP3 PUSH2 0x13EA JUMP JUMPDEST POP PUSH1 0x40 DUP3 ADD MLOAD PUSH2 0x14F5 PUSH1 0x40 DUP6 ADD DUP3 PUSH2 0x13EA JUMP JUMPDEST POP POP POP POP JUMP JUMPDEST PUSH1 0x40 DUP3 ADD PUSH1 0x0 DUP3 ADD MLOAD PUSH2 0x1511 PUSH1 0x0 DUP6 ADD DUP3 PUSH2 0x13F9 JUMP JUMPDEST POP PUSH1 0x20 DUP3 ADD MLOAD PUSH2 0x1524 PUSH1 0x20 DUP6 ADD DUP3 PUSH2 0x13F9 JUMP JUMPDEST POP POP POP POP JUMP JUMPDEST PUSH1 0x40 DUP3 ADD PUSH1 0x0 DUP3 ADD MLOAD PUSH2 0x1540 PUSH1 0x0 DUP6 ADD DUP3 PUSH2 0x13F9 JUMP JUMPDEST POP PUSH1 0x20 DUP3 ADD MLOAD PUSH2 0x1553 PUSH1 0x20 DUP6 ADD DUP3 PUSH2 0x13F9 JUMP JUMPDEST POP POP POP POP JUMP JUMPDEST PUSH1 0x40 DUP3 ADD PUSH1 0x0 DUP3 ADD MLOAD PUSH2 0x156F PUSH1 0x0 DUP6 ADD DUP3 PUSH2 0x13EA JUMP JUMPDEST POP PUSH1 0x20 DUP3 ADD MLOAD PUSH2 0x1582 PUSH1 0x20 DUP6 ADD DUP3 PUSH2 0x12F9 JUMP JUMPDEST POP POP POP POP JUMP JUMPDEST PUSH2 0x1591 DUP2 PUSH2 0x1883 JUMP JUMPDEST DUP3 MSTORE POP POP JUMP JUMPDEST PUSH2 0x15A0 DUP2 PUSH2 0x18B1 JUMP JUMPDEST DUP3 MSTORE POP POP JUMP JUMPDEST PUSH1 0x0 PUSH1 0x20 DUP3 ADD SWAP1 POP PUSH2 0x15BB PUSH1 0x0 DUP4 ADD DUP5 PUSH2 0x1308 JUMP JUMPDEST SWAP3 SWAP2 POP POP JUMP JUMPDEST PUSH1 0x0 PUSH1 0xA0 DUP3 ADD SWAP1 POP PUSH2 0x15D6 PUSH1 0x0 DUP4 ADD DUP8 PUSH2 0x1308 JUMP JUMPDEST PUSH2 0x15E3 PUSH1 0x20 DUP4 ADD DUP7 PUSH2 0x1408 JUMP JUMPDEST PUSH2 0x15F0 PUSH1 0x40 DUP4 ADD DUP6 PUSH2 0x1408 JUMP JUMPDEST PUSH2 0x15FD PUSH1 0x60 DUP4 ADD DUP5 PUSH2 0x1559 JUMP JUMPDEST SWAP6 SWAP5 POP POP POP POP POP JUMP JUMPDEST PUSH1 0x0 PUSH2 0x180 DUP3 ADD SWAP1 POP PUSH2 0x161C PUSH1 0x0 DUP4 ADD DUP12 PUSH2 0x1308 JUMP JUMPDEST PUSH2 0x1629 PUSH1 0x20 DUP4 ADD DUP11 PUSH2 0x14FB JUMP JUMPDEST PUSH2 0x1636 PUSH1 0x60 DUP4 ADD DUP10 PUSH2 0x1597 JUMP JUMPDEST PUSH2 0x1643 PUSH1 0x80 DUP4 ADD DUP9 PUSH2 0x1588 JUMP JUMPDEST PUSH2 0x1650 PUSH1 0xA0 DUP4 ADD DUP8 PUSH2 0x1588 JUMP JUMPDEST DUP2 DUP2 SUB PUSH1 0xC0 DUP4 ADD MSTORE PUSH2 0x1662 DUP2 DUP7 PUSH2 0x1317 JUMP JUMPDEST SWAP1 POP PUSH2 0x1671 PUSH1 0xE0 DUP4 ADD DUP6 PUSH2 0x14B9 JUMP JUMPDEST PUSH2 0x167F PUSH2 0x140 DUP4 ADD DUP5 PUSH2 0x1559 JUMP JUMPDEST SWAP10 SWAP9 POP POP POP POP POP POP POP POP POP JUMP JUMPDEST PUSH1 0x0 PUSH1 0x20 DUP3 ADD SWAP1 POP DUP2 DUP2 SUB PUSH1 0x0 DUP4 ADD MSTORE PUSH2 0x16A6 DUP2 DUP5 PUSH2 0x138C JUMP JUMPDEST SWAP1 POP SWAP3 SWAP2 POP POP JUMP JUMPDEST PUSH1 0x0 PUSH1 0x20 DUP3 ADD SWAP1 POP DUP2 DUP2 SUB PUSH1 0x0 DUP4 ADD MSTORE PUSH2 0x16C7 DUP2 PUSH2 0x1450 JUMP JUMPDEST SWAP1 POP SWAP2 SWAP1 POP JUMP JUMPDEST PUSH1 0x0 PUSH1 0x20 DUP3 ADD SWAP1 POP DUP2 DUP2 SUB PUSH1 0x0 DUP4 ADD MSTORE PUSH2 0x16E7 DUP2 PUSH2 0x1473 JUMP JUMPDEST SWAP1 POP SWAP2 SWAP1 POP JUMP JUMPDEST PUSH1 0x0 PUSH1 0x20 DUP3 ADD SWAP1 POP DUP2 DUP2 SUB PUSH1 0x0 DUP4 ADD MSTORE PUSH2 0x1707 DUP2 PUSH2 0x1496 JUMP JUMPDEST SWAP1 POP SWAP2 SWAP1 POP JUMP JUMPDEST PUSH1 0x0 PUSH2 0x1718 PUSH2 0x1729 JUMP JUMPDEST SWAP1 POP PUSH2 0x1724 DUP3 DUP3 PUSH2 0x18FD JUMP JUMPDEST SWAP2 SWAP1 POP JUMP JUMPDEST PUSH1 0x0 PUSH1 0x40 MLOAD SWAP1 POP SWAP1 JUMP JUMPDEST PUSH1 0x0 PUSH8 0xFFFFFFFFFFFFFFFF DUP3 GT ISZERO PUSH2 0x174E JUMPI PUSH2 0x174D PUSH2 0x19D5 JUMP JUMPDEST JUMPDEST PUSH1 0x20 DUP3 MUL SWAP1 POP PUSH1 0x20 DUP2 ADD SWAP1 POP SWAP2 SWAP1 POP JUMP JUMPDEST PUSH1 0x0 PUSH8 0xFFFFFFFFFFFFFFFF DUP3 GT ISZERO PUSH2 0x177A JUMPI PUSH2 0x1779 PUSH2 0x19D5 JUMP JUMPDEST JUMPDEST PUSH1 0x20 DUP3 MUL SWAP1 POP PUSH1 0x20 DUP2 ADD SWAP1 POP SWAP2 SWAP1 POP JUMP JUMPDEST PUSH1 0x0 PUSH8 0xFFFFFFFFFFFFFFFF DUP3 GT ISZERO PUSH2 0x17A6 JUMPI PUSH2 0x17A5 PUSH2 0x19D5 JUMP JUMPDEST JUMPDEST PUSH2 0x17AF DUP3 PUSH2 0x1A22 JUMP JUMPDEST SWAP1 POP PUSH1 0x20 DUP2 ADD SWAP1 POP SWAP2 SWAP1 POP JUMP JUMPDEST PUSH1 0x0 DUP2 SWAP1 POP PUSH1 0x20 DUP3 ADD SWAP1 POP SWAP2 SWAP1 POP JUMP JUMPDEST PUSH1 0x0 DUP2 SWAP1 POP PUSH1 0x20 DUP3 ADD SWAP1 POP SWAP2 SWAP1 POP JUMP JUMPDEST PUSH1 0x0 DUP2 MLOAD SWAP1 POP SWAP2 SWAP1 POP JUMP JUMPDEST PUSH1 0x0 DUP2 MLOAD SWAP1 POP SWAP2 SWAP1 POP JUMP JUMPDEST PUSH1 0x0 DUP2 MLOAD SWAP1 POP SWAP2 SWAP1 POP JUMP JUMPDEST PUSH1 0x0 PUSH1 0x20 DUP3 ADD SWAP1 POP SWAP2 SWAP1 POP JUMP JUMPDEST PUSH1 0x0 PUSH1 0x20 DUP3 ADD SWAP1 POP SWAP2 SWAP1 POP JUMP JUMPDEST PUSH1 0x0 DUP3 DUP3 MSTORE PUSH1 0x20 DUP3 ADD SWAP1 POP SWAP3 SWAP2 POP POP JUMP JUMPDEST PUSH1 0x0 DUP3 DUP3 MSTORE PUSH1 0x20 DUP3 ADD SWAP1 POP SWAP3 SWAP2 POP POP JUMP JUMPDEST PUSH1 0x0 DUP3 DUP3 MSTORE PUSH1 0x20 DUP3 ADD SWAP1 POP SWAP3 SWAP2 POP POP JUMP JUMPDEST PUSH1 0x0 DUP3 DUP3 MSTORE PUSH1 0x20 DUP3 ADD SWAP1 POP SWAP3 SWAP2 POP POP JUMP JUMPDEST PUSH1 0x0 PUSH2 0x1866 DUP3 PUSH2 0x1891 JUMP JUMPDEST SWAP1 POP SWAP2 SWAP1 POP JUMP JUMPDEST PUSH1 0x0 DUP2 ISZERO ISZERO SWAP1 POP SWAP2 SWAP1 POP JUMP JUMPDEST PUSH1 0x0 DUP2 SWAP1 POP SWAP2 SWAP1 POP JUMP JUMPDEST PUSH1 0x0 PUSH2 0xFFFF DUP3 AND SWAP1 POP SWAP2 SWAP1 POP JUMP JUMPDEST PUSH1 0x0 PUSH20 0xFFFFFFFFFFFFFFFFFFFFFFFFFFFFFFFFFFFFFFFF DUP3 AND SWAP1 POP SWAP2 SWAP1 POP JUMP JUMPDEST PUSH1 0x0 DUP2 SWAP1 POP SWAP2 SWAP1 POP JUMP JUMPDEST DUP3 DUP2 DUP4 CALLDATACOPY PUSH1 0x0 DUP4 DUP4 ADD MSTORE POP POP POP JUMP JUMPDEST PUSH1 0x0 JUMPDEST DUP4 DUP2 LT ISZERO PUSH2 0x18E8 JUMPI DUP1 DUP3 ADD MLOAD DUP2 DUP5 ADD MSTORE PUSH1 0x20 DUP2 ADD SWAP1 POP PUSH2 0x18CD JUMP JUMPDEST DUP4 DUP2 GT ISZERO PUSH2 0x18F7 JUMPI PUSH1 0x0 DUP5 DUP5 ADD MSTORE JUMPDEST POP POP POP POP JUMP JUMPDEST PUSH2 0x1906 DUP3 PUSH2 0x1A22 JUMP JUMPDEST DUP2 ADD DUP2 DUP2 LT PUSH8 0xFFFFFFFFFFFFFFFF DUP3 GT OR ISZERO PUSH2 0x1925 JUMPI PUSH2 0x1924 PUSH2 0x19D5 JUMP JUMPDEST JUMPDEST DUP1 PUSH1 0x40 MSTORE POP POP POP JUMP JUMPDEST PUSH1 0x0 PUSH2 0x1939 DUP3 PUSH2 0x18B1 JUMP JUMPDEST SWAP2 POP PUSH32 0xFFFFFFFFFFFFFFFFFFFFFFFFFFFFFFFFFFFFFFFFFFFFFFFFFFFFFFFFFFFFFFFF DUP3 EQ ISZERO PUSH2 0x196C JUMPI PUSH2 0x196B PUSH2 0x1977 JUMP JUMPDEST JUMPDEST PUSH1 0x1 DUP3 ADD SWAP1 POP SWAP2 SWAP1 POP JUMP JUMPDEST PUSH32 0x4E487B7100000000000000000000000000000000000000000000000000000000 PUSH1 0x0 MSTORE PUSH1 0x11 PUSH1 0x4 MSTORE PUSH1 0x24 PUSH1 0x0 REVERT JUMPDEST PUSH32 0x4E487B7100000000000000000000000000000000000000000000000000000000 PUSH1 0x0 MSTORE PUSH1 0x32 PUSH1 0x4 MSTORE PUSH1 0x24 PUSH1 0x0 REVERT JUMPDEST PUSH32 0x4E487B7100000000000000000000000000000000000000000000000000000000 PUSH1 0x0 MSTORE PUSH1 0x41 PUSH1 0x4 MSTORE PUSH1 0x24 PUSH1 0x0 REVERT JUMPDEST PUSH1 0x0 DUP1 REVERT JUMPDEST PUSH1 0x0 DUP1 REVERT JUMPDEST PUSH1 0x0 DUP1 REVERT JUMPDEST PUSH1 0x0 DUP1 REVERT JUMPDEST PUSH1 0x0 DUP1 REVERT JUMPDEST PUSH1 0x0 DUP1 REVERT JUMPDEST PUSH1 0x0 PUSH1 0x1F NOT PUSH1 0x1F DUP4 ADD AND SWAP1 POP SWAP2 SWAP1 POP JUMP JUMPDEST PUSH32 0x446F63746F72206F722070617469656E74206973206E6F742061207573657200 PUSH1 0x0 DUP3 ADD MSTORE POP JUMP JUMPDEST PUSH32 0x50617469656E74206973206E6F74206120757365720000000000000000000000 PUSH1 0x0 DUP3 ADD MSTORE POP JUMP JUMPDEST PUSH32 0x50726F66696C6520657869737465640000000000000000000000000000000000 PUSH1 0x0 DUP3 ADD MSTORE POP JUMP JUMPDEST PUSH2 0x1AB7 DUP2 PUSH2 0x185B JUMP JUMPDEST DUP2 EQ PUSH2 0x1AC2 JUMPI PUSH1 0x0 DUP1 REVERT JUMPDEST POP JUMP JUMPDEST PUSH2 0x1ACE DUP2 PUSH2 0x186D JUMP JUMPDEST DUP2 EQ PUSH2 0x1AD9 JUMPI PUSH1 0x0 DUP1 REVERT JUMPDEST POP JUMP JUMPDEST PUSH2 0x1AE5 DUP2 PUSH2 0x1879 JUMP JUMPDEST DUP2 EQ PUSH2 0x1AF0 JUMPI PUSH1 0x0 DUP1 REVERT JUMPDEST POP JUMP JUMPDEST PUSH2 0x1AFC DUP2 PUSH2 0x1883 JUMP JUMPDEST DUP2 EQ PUSH2 0x1B07 JUMPI PUSH1 0x0 DUP1 REVERT JUMPDEST POP JUMP JUMPDEST PUSH2 0x1B13 DUP2 PUSH2 0x18B1 JUMP JUMPDEST DUP2 EQ PUSH2 0x1B1E JUMPI PUSH1 0x0 DUP1 REVERT JUMPDEST POP JUMP INVALID LOG2 PUSH5 0x6970667358 0x22 SLT KECCAK256 0x1F 0xDA 0xDD 0xB2 0xB3 ADDRESS CALLDATASIZE PUSH19 0xAA1B96556B2ECA7DE869E872698D1D95A4573 0xC1 CALL LOG0 0x5C MSIZE PUSH5 0x736F6C6343 STOP ADDMOD MOD STOP CALLER PUSH1 0xA0 PUSH1 0x40 MSTORE CALLVALUE DUP1 ISZERO PUSH2 0x10 JUMPI PUSH1 0x0 DUP1 REVERT JUMPDEST POP PUSH2 0x2D PUSH2 0x22 PUSH2 0x91 PUSH1 0x20 SHL PUSH1 0x20 SHR JUMP JUMPDEST PUSH2 0x99 PUSH1 0x20 SHL PUSH1 0x20 SHR JUMP JUMPDEST PUSH1 0x40 MLOAD PUSH2 0x39 SWAP1 PUSH2 0x15D JUMP JUMPDEST PUSH1 0x40 MLOAD DUP1 SWAP2 SUB SWAP1 PUSH1 0x0 CREATE DUP1 ISZERO DUP1 ISZERO PUSH2 0x55 JUMPI RETURNDATASIZE PUSH1 0x0 DUP1 RETURNDATACOPY RETURNDATASIZE PUSH1 0x0 REVERT JUMPDEST POP PUSH20 0xFFFFFFFFFFFFFFFFFFFFFFFFFFFFFFFFFFFFFFFF AND PUSH1 0x80 DUP2 PUSH20 0xFFFFFFFFFFFFFFFFFFFFFFFFFFFFFFFFFFFFFFFF AND PUSH1 0x60 SHL DUP2 MSTORE POP POP PUSH2 0x16A JUMP JUMPDEST PUSH1 0x0 CALLER SWAP1 POP SWAP1 JUMP JUMPDEST PUSH1 0x0 DUP1 PUSH1 0x0 SWAP1 SLOAD SWAP1 PUSH2 0x100 EXP SWAP1 DIV PUSH20 0xFFFFFFFFFFFFFFFFFFFFFFFFFFFFFFFFFFFFFFFF AND SWAP1 POP DUP2 PUSH1 0x0 DUP1 PUSH2 0x100 EXP DUP2 SLOAD DUP2 PUSH20 0xFFFFFFFFFFFFFFFFFFFFFFFFFFFFFFFFFFFFFFFF MUL NOT AND SWAP1 DUP4 PUSH20 0xFFFFFFFFFFFFFFFFFFFFFFFFFFFFFFFFFFFFFFFF AND MUL OR SWAP1 SSTORE POP DUP2 PUSH20 0xFFFFFFFFFFFFFFFFFFFFFFFFFFFFFFFFFFFFFFFF AND DUP2 PUSH20 0xFFFFFFFFFFFFFFFFFFFFFFFFFFFFFFFFFFFFFFFF AND PUSH32 0x8BE0079C531659141344CD1FD0A4F28419497F9722A3DAAFE3B4186F6B6457E0 PUSH1 0x40 MLOAD PUSH1 0x40 MLOAD DUP1 SWAP2 SUB SWAP1 LOG3 POP POP JUMP JUMPDEST PUSH2 0x1D78 DUP1 PUSH2 0xB34 DUP4 CODECOPY ADD SWAP1 JUMP JUMPDEST PUSH1 0x80 MLOAD PUSH1 0x60 SHR PUSH2 0x9AC PUSH2 0x188 PUSH1 0x0 CODECOPY PUSH1 0x0 PUSH2 0x111 ADD MSTORE PUSH2 0x9AC PUSH1 0x0 RETURN INVALID PUSH1 0x80 PUSH1 0x40 MSTORE CALLVALUE DUP1 ISZERO PUSH2 0x10 JUMPI PUSH1 0x0 DUP1 REVERT JUMPDEST POP PUSH1 0x4 CALLDATASIZE LT PUSH2 0x4C JUMPI PUSH1 0x0 CALLDATALOAD PUSH1 0xE0 SHR DUP1 PUSH4 0x715018A6 EQ PUSH2 0x51 JUMPI DUP1 PUSH4 0x8DA5CB5B EQ PUSH2 0x5B JUMPI DUP1 PUSH4 0xF13E4869 EQ PUSH2 0x79 JUMPI DUP1 PUSH4 0xF2FDE38B EQ PUSH2 0xA9 JUMPI JUMPDEST PUSH1 0x0 DUP1 REVERT JUMPDEST PUSH2 0x59 PUSH2 0xC5 JUMP JUMPDEST STOP JUMPDEST PUSH2 0x63 PUSH2 0xD9 JUMP JUMPDEST PUSH1 0x40 MLOAD PUSH2 0x70 SWAP2 SWAP1 PUSH2 0x684 JUMP JUMPDEST PUSH1 0x40 MLOAD DUP1 SWAP2 SUB SWAP1 RETURN JUMPDEST PUSH2 0x93 PUSH1 0x4 DUP1 CALLDATASIZE SUB DUP2 ADD SWAP1 PUSH2 0x8E SWAP2 SWAP1 PUSH2 0x596 JUMP JUMPDEST PUSH2 0x102 JUMP JUMPDEST PUSH1 0x40 MLOAD PUSH2 0xA0 SWAP2 SWAP1 PUSH2 0x684 JUMP JUMPDEST PUSH1 0x40 MLOAD DUP1 SWAP2 SUB SWAP1 RETURN JUMPDEST PUSH2 0xC3 PUSH1 0x4 DUP1 CALLDATASIZE SUB DUP2 ADD SWAP1 PUSH2 0xBE SWAP2 SWAP1 PUSH2 0x569 JUMP JUMPDEST PUSH2 0x237 JUMP JUMPDEST STOP JUMPDEST PUSH2 0xCD PUSH2 0x2BB JUMP JUMPDEST PUSH2 0xD7 PUSH1 0x0 PUSH2 0x339 JUMP JUMPDEST JUMP JUMPDEST PUSH1 0x0 DUP1 PUSH1 0x0 SWAP1 SLOAD SWAP1 PUSH2 0x100 EXP SWAP1 DIV PUSH20 0xFFFFFFFFFFFFFFFFFFFFFFFFFFFFFFFFFFFFFFFF AND SWAP1 POP SWAP1 JUMP JUMPDEST PUSH1 0x0 PUSH2 0x10C PUSH2 0x2BB JUMP JUMPDEST PUSH2 0x135 PUSH32 0x0 PUSH2 0x3FD JUMP JUMPDEST SWAP1 POP DUP2 PUSH1 0x0 ADD MLOAD ISZERO PUSH2 0x1BD JUMPI DUP1 PUSH20 0xFFFFFFFFFFFFFFFFFFFFFFFFFFFFFFFFFFFFFFFF AND PUSH4 0x303D38B1 DUP7 DUP5 PUSH1 0x20 ADD MLOAD CALLER DUP9 DUP9 PUSH1 0x40 MLOAD DUP7 PUSH4 0xFFFFFFFF AND PUSH1 0xE0 SHL DUP2 MSTORE PUSH1 0x4 ADD PUSH2 0x186 SWAP6 SWAP5 SWAP4 SWAP3 SWAP2 SWAP1 PUSH2 0x69F JUMP JUMPDEST PUSH1 0x0 PUSH1 0x40 MLOAD DUP1 DUP4 SUB DUP2 PUSH1 0x0 DUP8 DUP1 EXTCODESIZE ISZERO DUP1 ISZERO PUSH2 0x1A0 JUMPI PUSH1 0x0 DUP1 REVERT JUMPDEST POP GAS CALL ISZERO DUP1 ISZERO PUSH2 0x1B4 JUMPI RETURNDATASIZE PUSH1 0x0 DUP1 RETURNDATACOPY RETURNDATASIZE PUSH1 0x0 REVERT JUMPDEST POP POP POP POP PUSH2 0x22F JUMP JUMPDEST DUP1 PUSH20 0xFFFFFFFFFFFFFFFFFFFFFFFFFFFFFFFFFFFFFFFF AND PUSH4 0x76CFCFF6 DUP7 CALLER DUP8 DUP8 PUSH1 0x40 MLOAD DUP6 PUSH4 0xFFFFFFFF AND PUSH1 0xE0 SHL DUP2 MSTORE PUSH1 0x4 ADD PUSH2 0x1FC SWAP5 SWAP4 SWAP3 SWAP2 SWAP1 PUSH2 0x6F2 JUMP JUMPDEST PUSH1 0x0 PUSH1 0x40 MLOAD DUP1 DUP4 SUB DUP2 PUSH1 0x0 DUP8 DUP1 EXTCODESIZE ISZERO DUP1 ISZERO PUSH2 0x216 JUMPI PUSH1 0x0 DUP1 REVERT JUMPDEST POP GAS CALL ISZERO DUP1 ISZERO PUSH2 0x22A JUMPI RETURNDATASIZE PUSH1 0x0 DUP1 RETURNDATACOPY RETURNDATASIZE PUSH1 0x0 REVERT JUMPDEST POP POP POP POP JUMPDEST SWAP5 SWAP4 POP POP POP POP JUMP JUMPDEST PUSH2 0x23F PUSH2 0x2BB JUMP JUMPDEST PUSH1 0x0 PUSH20 0xFFFFFFFFFFFFFFFFFFFFFFFFFFFFFFFFFFFFFFFF AND DUP2 PUSH20 0xFFFFFFFFFFFFFFFFFFFFFFFFFFFFFFFFFFFFFFFF AND EQ ISZERO PUSH2 0x2AF JUMPI PUSH1 0x40 MLOAD PUSH32 0x8C379A000000000000000000000000000000000000000000000000000000000 DUP2 MSTORE PUSH1 0x4 ADD PUSH2 0x2A6 SWAP1 PUSH2 0x737 JUMP JUMPDEST PUSH1 0x40 MLOAD DUP1 SWAP2 SUB SWAP1 REVERT JUMPDEST PUSH2 0x2B8 DUP2 PUSH2 0x339 JUMP JUMPDEST POP JUMP JUMPDEST PUSH2 0x2C3 PUSH2 0x4D2 JUMP JUMPDEST PUSH20 0xFFFFFFFFFFFFFFFFFFFFFFFFFFFFFFFFFFFFFFFF AND PUSH2 0x2E1 PUSH2 0xD9 JUMP JUMPDEST PUSH20 0xFFFFFFFFFFFFFFFFFFFFFFFFFFFFFFFFFFFFFFFF AND EQ PUSH2 0x337 JUMPI PUSH1 0x40 MLOAD PUSH32 0x8C379A000000000000000000000000000000000000000000000000000000000 DUP2 MSTORE PUSH1 0x4 ADD PUSH2 0x32E SWAP1 PUSH2 0x777 JUMP JUMPDEST PUSH1 0x40 MLOAD DUP1 SWAP2 SUB SWAP1 REVERT JUMPDEST JUMP JUMPDEST PUSH1 0x0 DUP1 PUSH1 0x0 SWAP1 SLOAD SWAP1 PUSH2 0x100 EXP SWAP1 DIV PUSH20 0xFFFFFFFFFFFFFFFFFFFFFFFFFFFFFFFFFFFFFFFF AND SWAP1 POP DUP2 PUSH1 0x0 DUP1 PUSH2 0x100 EXP DUP2 SLOAD DUP2 PUSH20 0xFFFFFFFFFFFFFFFFFFFFFFFFFFFFFFFFFFFFFFFF MUL NOT AND SWAP1 DUP4 PUSH20 0xFFFFFFFFFFFFFFFFFFFFFFFFFFFFFFFFFFFFFFFF AND MUL OR SWAP1 SSTORE POP DUP2 PUSH20 0xFFFFFFFFFFFFFFFFFFFFFFFFFFFFFFFFFFFFFFFF AND DUP2 PUSH20 0xFFFFFFFFFFFFFFFFFFFFFFFFFFFFFFFFFFFFFFFF AND PUSH32 0x8BE0079C531659141344CD1FD0A4F28419497F9722A3DAAFE3B4186F6B6457E0 PUSH1 0x40 MLOAD PUSH1 0x40 MLOAD DUP1 SWAP2 SUB SWAP1 LOG3 POP POP JUMP JUMPDEST PUSH1 0x0 PUSH1 0x40 MLOAD PUSH32 0x3D602D80600A3D3981F3363D3D373D3D3D363D73000000000000000000000000 DUP2 MSTORE DUP3 PUSH1 0x60 SHL PUSH1 0x14 DUP3 ADD MSTORE PUSH32 0x5AF43D82803E903D91602B57FD5BF30000000000000000000000000000000000 PUSH1 0x28 DUP3 ADD MSTORE PUSH1 0x37 DUP2 PUSH1 0x0 CREATE SWAP2 POP POP PUSH1 0x0 PUSH20 0xFFFFFFFFFFFFFFFFFFFFFFFFFFFFFFFFFFFFFFFF AND DUP2 PUSH20 0xFFFFFFFFFFFFFFFFFFFFFFFFFFFFFFFFFFFFFFFF AND EQ ISZERO PUSH2 0x4CD JUMPI PUSH1 0x40 MLOAD PUSH32 0x8C379A000000000000000000000000000000000000000000000000000000000 DUP2 MSTORE PUSH1 0x4 ADD PUSH2 0x4C4 SWAP1 PUSH2 0x757 JUMP JUMPDEST PUSH1 0x40 MLOAD DUP1 SWAP2 SUB SWAP1 REVERT JUMPDEST SWAP2 SWAP1 POP JUMP JUMPDEST PUSH1 0x0 CALLER SWAP1 POP SWAP1 JUMP JUMPDEST PUSH1 0x0 DUP2 CALLDATALOAD SWAP1 POP PUSH2 0x4E9 DUP2 PUSH2 0x931 JUMP JUMPDEST SWAP3 SWAP2 POP POP JUMP JUMPDEST PUSH1 0x0 DUP2 CALLDATALOAD SWAP1 POP PUSH2 0x4FE DUP2 PUSH2 0x948 JUMP JUMPDEST SWAP3 SWAP2 POP POP JUMP JUMPDEST PUSH1 0x0 DUP2 CALLDATALOAD SWAP1 POP PUSH2 0x513 DUP2 PUSH2 0x95F JUMP JUMPDEST SWAP3 SWAP2 POP POP JUMP JUMPDEST PUSH1 0x0 PUSH1 0x40 DUP3 DUP5 SUB SLT ISZERO PUSH2 0x52F JUMPI PUSH2 0x52E PUSH2 0x875 JUMP JUMPDEST JUMPDEST PUSH2 0x539 PUSH1 0x40 PUSH2 0x797 JUMP JUMPDEST SWAP1 POP PUSH1 0x0 PUSH2 0x549 DUP5 DUP3 DUP6 ADD PUSH2 0x4EF JUMP JUMPDEST PUSH1 0x0 DUP4 ADD MSTORE POP PUSH1 0x20 PUSH2 0x55D DUP5 DUP3 DUP6 ADD PUSH2 0x4DA JUMP JUMPDEST PUSH1 0x20 DUP4 ADD MSTORE POP SWAP3 SWAP2 POP POP JUMP JUMPDEST PUSH1 0x0 PUSH1 0x20 DUP3 DUP5 SUB SLT ISZERO PUSH2 0x57F JUMPI PUSH2 0x57E PUSH2 0x87A JUMP JUMPDEST JUMPDEST PUSH1 0x0 PUSH2 0x58D DUP5 DUP3 DUP6 ADD PUSH2 0x4DA JUMP JUMPDEST SWAP2 POP POP SWAP3 SWAP2 POP POP JUMP JUMPDEST PUSH1 0x0 DUP1 PUSH1 0x0 DUP1 PUSH1 0xA0 DUP6 DUP8 SUB SLT ISZERO PUSH2 0x5B0 JUMPI PUSH2 0x5AF PUSH2 0x87A JUMP JUMPDEST JUMPDEST PUSH1 0x0 PUSH2 0x5BE DUP8 DUP3 DUP9 ADD PUSH2 0x4DA JUMP JUMPDEST SWAP5 POP POP PUSH1 0x20 PUSH2 0x5CF DUP8 DUP3 DUP9 ADD PUSH2 0x504 JUMP JUMPDEST SWAP4 POP POP PUSH1 0x40 PUSH2 0x5E0 DUP8 DUP3 DUP9 ADD PUSH2 0x504 JUMP JUMPDEST SWAP3 POP POP PUSH1 0x60 PUSH2 0x5F1 DUP8 DUP3 DUP9 ADD PUSH2 0x519 JUMP JUMPDEST SWAP2 POP POP SWAP3 SWAP6 SWAP2 SWAP5 POP SWAP3 POP JUMP JUMPDEST PUSH2 0x606 DUP2 PUSH2 0x7CD JUMP JUMPDEST DUP3 MSTORE POP POP JUMP JUMPDEST PUSH2 0x615 DUP2 PUSH2 0x7EB JUMP JUMPDEST DUP3 MSTORE POP POP JUMP JUMPDEST PUSH1 0x0 PUSH2 0x628 PUSH1 0x26 DUP4 PUSH2 0x7BC JUMP JUMPDEST SWAP2 POP PUSH2 0x633 DUP3 PUSH2 0x890 JUMP JUMPDEST PUSH1 0x40 DUP3 ADD SWAP1 POP SWAP2 SWAP1 POP JUMP JUMPDEST PUSH1 0x0 PUSH2 0x64B PUSH1 0x16 DUP4 PUSH2 0x7BC JUMP JUMPDEST SWAP2 POP PUSH2 0x656 DUP3 PUSH2 0x8DF JUMP JUMPDEST PUSH1 0x20 DUP3 ADD SWAP1 POP SWAP2 SWAP1 POP JUMP JUMPDEST PUSH1 0x0 PUSH2 0x66E PUSH1 0x20 DUP4 PUSH2 0x7BC JUMP JUMPDEST SWAP2 POP PUSH2 0x679 DUP3 PUSH2 0x908 JUMP JUMPDEST PUSH1 0x20 DUP3 ADD SWAP1 POP SWAP2 SWAP1 POP JUMP JUMPDEST PUSH1 0x0 PUSH1 0x20 DUP3 ADD SWAP1 POP PUSH2 0x699 PUSH1 0x0 DUP4 ADD DUP5 PUSH2 0x5FD JUMP JUMPDEST SWAP3 SWAP2 POP POP JUMP JUMPDEST PUSH1 0x0 PUSH1 0xA0 DUP3 ADD SWAP1 POP PUSH2 0x6B4 PUSH1 0x0 DUP4 ADD DUP9 PUSH2 0x5FD JUMP JUMPDEST PUSH2 0x6C1 PUSH1 0x20 DUP4 ADD DUP8 PUSH2 0x5FD JUMP JUMPDEST PUSH2 0x6CE PUSH1 0x40 DUP4 ADD DUP7 PUSH2 0x5FD JUMP JUMPDEST PUSH2 0x6DB PUSH1 0x60 DUP4 ADD DUP6 PUSH2 0x60C JUMP JUMPDEST PUSH2 0x6E8 PUSH1 0x80 DUP4 ADD DUP5 PUSH2 0x60C JUMP JUMPDEST SWAP7 SWAP6 POP POP POP POP POP POP JUMP JUMPDEST PUSH1 0x0 PUSH1 0x80 DUP3 ADD SWAP1 POP PUSH2 0x707 PUSH1 0x0 DUP4 ADD DUP8 PUSH2 0x5FD JUMP JUMPDEST PUSH2 0x714 PUSH1 0x20 DUP4 ADD DUP7 PUSH2 0x5FD JUMP JUMPDEST PUSH2 0x721 PUSH1 0x40 DUP4 ADD DUP6 PUSH2 0x60C JUMP JUMPDEST PUSH2 0x72E PUSH1 0x60 DUP4 ADD DUP5 PUSH2 0x60C JUMP JUMPDEST SWAP6 SWAP5 POP POP POP POP POP JUMP JUMPDEST PUSH1 0x0 PUSH1 0x20 DUP3 ADD SWAP1 POP DUP2 DUP2 SUB PUSH1 0x0 DUP4 ADD MSTORE PUSH2 0x750 DUP2 PUSH2 0x61B JUMP JUMPDEST SWAP1 POP SWAP2 SWAP1 POP JUMP JUMPDEST PUSH1 0x0 PUSH1 0x20 DUP3 ADD SWAP1 POP DUP2 DUP2 SUB PUSH1 0x0 DUP4 ADD MSTORE PUSH2 0x770 DUP2 PUSH2 0x63E JUMP JUMPDEST SWAP1 POP SWAP2 SWAP1 POP JUMP JUMPDEST PUSH1 0x0 PUSH1 0x20 DUP3 ADD SWAP1 POP DUP2 DUP2 SUB PUSH1 0x0 DUP4 ADD MSTORE PUSH2 0x790 DUP2 PUSH2 0x661 JUMP JUMPDEST SWAP1 POP SWAP2 SWAP1 POP JUMP JUMPDEST PUSH1 0x0 PUSH2 0x7A1 PUSH2 0x7B2 JUMP JUMPDEST SWAP1 POP PUSH2 0x7AD DUP3 DUP3 PUSH2 0x815 JUMP JUMPDEST SWAP2 SWAP1 POP JUMP JUMPDEST PUSH1 0x0 PUSH1 0x40 MLOAD SWAP1 POP SWAP1 JUMP JUMPDEST PUSH1 0x0 DUP3 DUP3 MSTORE PUSH1 0x20 DUP3 ADD SWAP1 POP SWAP3 SWAP2 POP POP JUMP JUMPDEST PUSH1 0x0 PUSH2 0x7D8 DUP3 PUSH2 0x7F5 JUMP JUMPDEST SWAP1 POP SWAP2 SWAP1 POP JUMP JUMPDEST PUSH1 0x0 DUP2 ISZERO ISZERO SWAP1 POP SWAP2 SWAP1 POP JUMP JUMPDEST PUSH1 0x0 DUP2 SWAP1 POP SWAP2 SWAP1 POP JUMP JUMPDEST PUSH1 0x0 PUSH20 0xFFFFFFFFFFFFFFFFFFFFFFFFFFFFFFFFFFFFFFFF DUP3 AND SWAP1 POP SWAP2 SWAP1 POP JUMP JUMPDEST PUSH2 0x81E DUP3 PUSH2 0x87F JUMP JUMPDEST DUP2 ADD DUP2 DUP2 LT PUSH8 0xFFFFFFFFFFFFFFFF DUP3 GT OR ISZERO PUSH2 0x83D JUMPI PUSH2 0x83C PUSH2 0x846 JUMP JUMPDEST JUMPDEST DUP1 PUSH1 0x40 MSTORE POP POP POP JUMP JUMPDEST PUSH32 0x4E487B7100000000000000000000000000000000000000000000000000000000 PUSH1 0x0 MSTORE PUSH1 0x41 PUSH1 0x4 MSTORE PUSH1 0x24 PUSH1 0x0 REVERT JUMPDEST PUSH1 0x0 DUP1 REVERT JUMPDEST PUSH1 0x0 DUP1 REVERT JUMPDEST PUSH1 0x0 PUSH1 0x1F NOT PUSH1 0x1F DUP4 ADD AND SWAP1 POP SWAP2 SWAP1 POP JUMP JUMPDEST PUSH32 0x4F776E61626C653A206E6577206F776E657220697320746865207A65726F2061 PUSH1 0x0 DUP3 ADD MSTORE PUSH32 0x6464726573730000000000000000000000000000000000000000000000000000 PUSH1 0x20 DUP3 ADD MSTORE POP JUMP JUMPDEST PUSH32 0x455243313136373A20637265617465206661696C656400000000000000000000 PUSH1 0x0 DUP3 ADD MSTORE POP JUMP JUMPDEST PUSH32 0x4F776E61626C653A2063616C6C6572206973206E6F7420746865206F776E6572 PUSH1 0x0 DUP3 ADD MSTORE POP JUMP JUMPDEST PUSH2 0x93A DUP2 PUSH2 0x7CD JUMP JUMPDEST DUP2 EQ PUSH2 0x945 JUMPI PUSH1 0x0 DUP1 REVERT JUMPDEST POP JUMP JUMPDEST PUSH2 0x951 DUP2 PUSH2 0x7DF JUMP JUMPDEST DUP2 EQ PUSH2 0x95C JUMPI PUSH1 0x0 DUP1 REVERT JUMPDEST POP JUMP JUMPDEST PUSH2 0x968 DUP2 PUSH2 0x7EB JUMP JUMPDEST DUP2 EQ PUSH2 0x973 JUMPI PUSH1 0x0 DUP1 REVERT JUMPDEST POP JUMP INVALID LOG2 PUSH5 0x6970667358 0x22 SLT KECCAK256 0xC4 LOG3 0x2F SDIV 0xD8 0xB9 EXTCODEHASH SWAP16 0xD4 0xFC 0xBD 0xB1 SHL EQ 0xB4 GASLIMIT CREATE2 0xE8 GT 0xF9 0x29 0xD0 0xA8 0xE2 0xE DUP5 DUP14 EXTCODECOPY DUP4 0xE 0x26 CREATE2 PUSH5 0x736F6C6343 STOP ADDMOD MOD STOP CALLER PUSH1 0x80 PUSH1 0x40 MSTORE CALLVALUE DUP1 ISZERO PUSH2 0x10 JUMPI PUSH1 0x0 DUP1 REVERT JUMPDEST POP PUSH2 0x44 PUSH32 0x241ECF16D79D0F8DBFB92CBC07FE17840425976CF0667F022FE9877CAA831B08 PUSH1 0x0 DUP1 SHL PUSH2 0x49 PUSH1 0x20 SHL PUSH1 0x20 SHR JUMP JUMPDEST PUSH2 0xC9 JUMP JUMPDEST PUSH1 0x0 PUSH2 0x5A DUP4 PUSH2 0xAA PUSH1 0x20 SHL PUSH1 0x20 SHR JUMP JUMPDEST SWAP1 POP DUP2 PUSH1 0x0 DUP1 DUP6 DUP2 MSTORE PUSH1 0x20 ADD SWAP1 DUP2 MSTORE PUSH1 0x20 ADD PUSH1 0x0 KECCAK256 PUSH1 0x1 ADD DUP2 SWAP1 SSTORE POP DUP2 DUP2 DUP5 PUSH32 0xBD79B86FFE0AB8E8776151514217CD7CACD52C909F66475C3AF44E129F0B00FF PUSH1 0x40 MLOAD PUSH1 0x40 MLOAD DUP1 SWAP2 SUB SWAP1 LOG4 POP POP POP JUMP JUMPDEST PUSH1 0x0 DUP1 PUSH1 0x0 DUP4 DUP2 MSTORE PUSH1 0x20 ADD SWAP1 DUP2 MSTORE PUSH1 0x20 ADD PUSH1 0x0 KECCAK256 PUSH1 0x1 ADD SLOAD SWAP1 POP SWAP2 SWAP1 POP JUMP JUMPDEST PUSH2 0x1CA0 DUP1 PUSH2 0xD8 PUSH1 0x0 CODECOPY PUSH1 0x0 RETURN INVALID PUSH1 0x80 PUSH1 0x40 MSTORE CALLVALUE DUP1 ISZERO PUSH2 0x10 JUMPI PUSH1 0x0 DUP1 REVERT JUMPDEST POP PUSH1 0x4 CALLDATASIZE LT PUSH2 0xF5 JUMPI PUSH1 0x0 CALLDATALOAD PUSH1 0xE0 SHR DUP1 PUSH4 0x76CFCFF6 GT PUSH2 0x97 JUMPI DUP1 PUSH4 0xD294FFE0 GT PUSH2 0x66 JUMPI DUP1 PUSH4 0xD294FFE0 EQ PUSH2 0x25F JUMPI DUP1 PUSH4 0xD547741F EQ PUSH2 0x27B JUMPI DUP1 PUSH4 0xEC87621C EQ PUSH2 0x297 JUMPI DUP1 PUSH4 0xFEC331F2 EQ PUSH2 0x2B5 JUMPI PUSH2 0xF5 JUMP JUMPDEST DUP1 PUSH4 0x76CFCFF6 EQ PUSH2 0x1D7 JUMPI DUP1 PUSH4 0x8BB25419 EQ PUSH2 0x1F3 JUMPI DUP1 PUSH4 0x91D14854 EQ PUSH2 0x211 JUMPI DUP1 PUSH4 0xA217FDDF EQ PUSH2 0x241 JUMPI PUSH2 0xF5 JUMP JUMPDEST DUP1 PUSH4 0x303D38B1 GT PUSH2 0xD3 JUMPI DUP1 PUSH4 0x303D38B1 EQ PUSH2 0x176 JUMPI DUP1 PUSH4 0x36568ABE EQ PUSH2 0x192 JUMPI DUP1 PUSH4 0x5A9B0B89 EQ PUSH2 0x1AE JUMPI DUP1 PUSH4 0x602792B0 EQ PUSH2 0x1CD JUMPI PUSH2 0xF5 JUMP JUMPDEST DUP1 PUSH4 0x1FFC9A7 EQ PUSH2 0xFA JUMPI DUP1 PUSH4 0x248A9CA3 EQ PUSH2 0x12A JUMPI DUP1 PUSH4 0x2F2FF15D EQ PUSH2 0x15A JUMPI JUMPDEST PUSH1 0x0 DUP1 REVERT JUMPDEST PUSH2 0x114 PUSH1 0x4 DUP1 CALLDATASIZE SUB DUP2 ADD SWAP1 PUSH2 0x10F SWAP2 SWAP1 PUSH2 0x1304 JUMP JUMPDEST PUSH2 0x2D3 JUMP JUMPDEST PUSH1 0x40 MLOAD PUSH2 0x121 SWAP2 SWAP1 PUSH2 0x1673 JUMP JUMPDEST PUSH1 0x40 MLOAD DUP1 SWAP2 SUB SWAP1 RETURN JUMPDEST PUSH2 0x144 PUSH1 0x4 DUP1 CALLDATASIZE SUB DUP2 ADD SWAP1 PUSH2 0x13F SWAP2 SWAP1 PUSH2 0x1297 JUMP JUMPDEST PUSH2 0x34D JUMP JUMPDEST PUSH1 0x40 MLOAD PUSH2 0x151 SWAP2 SWAP1 PUSH2 0x168E JUMP JUMPDEST PUSH1 0x40 MLOAD DUP1 SWAP2 SUB SWAP1 RETURN JUMPDEST PUSH2 0x174 PUSH1 0x4 DUP1 CALLDATASIZE SUB DUP2 ADD SWAP1 PUSH2 0x16F SWAP2 SWAP1 PUSH2 0x12C4 JUMP JUMPDEST PUSH2 0x36C JUMP JUMPDEST STOP JUMPDEST PUSH2 0x190 PUSH1 0x4 DUP1 CALLDATASIZE SUB DUP2 ADD SWAP1 PUSH2 0x18B SWAP2 SWAP1 PUSH2 0x1188 JUMP JUMPDEST PUSH2 0x38D JUMP JUMPDEST STOP JUMPDEST PUSH2 0x1AC PUSH1 0x4 DUP1 CALLDATASIZE SUB DUP2 ADD SWAP1 PUSH2 0x1A7 SWAP2 SWAP1 PUSH2 0x12C4 JUMP JUMPDEST PUSH2 0x491 JUMP JUMPDEST STOP JUMPDEST PUSH2 0x1B6 PUSH2 0x514 JUMP JUMPDEST PUSH1 0x40 MLOAD PUSH2 0x1C4 SWAP3 SWAP2 SWAP1 PUSH2 0x16A9 JUMP JUMPDEST PUSH1 0x40 MLOAD DUP1 SWAP2 SUB SWAP1 RETURN JUMPDEST PUSH2 0x1D5 PUSH2 0x525 JUMP JUMPDEST STOP JUMPDEST PUSH2 0x1F1 PUSH1 0x4 DUP1 CALLDATASIZE SUB DUP2 ADD SWAP1 PUSH2 0x1EC SWAP2 SWAP1 PUSH2 0x1203 JUMP JUMPDEST PUSH2 0x5C1 JUMP JUMPDEST STOP JUMPDEST PUSH2 0x1FB PUSH2 0x69A JUMP JUMPDEST PUSH1 0x40 MLOAD PUSH2 0x208 SWAP2 SWAP1 PUSH2 0x1651 JUMP JUMPDEST PUSH1 0x40 MLOAD DUP1 SWAP2 SUB SWAP1 RETURN JUMPDEST PUSH2 0x22B PUSH1 0x4 DUP1 CALLDATASIZE SUB DUP2 ADD SWAP1 PUSH2 0x226 SWAP2 SWAP1 PUSH2 0x12C4 JUMP JUMPDEST PUSH2 0x989 JUMP JUMPDEST PUSH1 0x40 MLOAD PUSH2 0x238 SWAP2 SWAP1 PUSH2 0x1673 JUMP JUMPDEST PUSH1 0x40 MLOAD DUP1 SWAP2 SUB SWAP1 RETURN JUMPDEST PUSH2 0x249 PUSH2 0x9F3 JUMP JUMPDEST PUSH1 0x40 MLOAD PUSH2 0x256 SWAP2 SWAP1 PUSH2 0x168E JUMP JUMPDEST PUSH1 0x40 MLOAD DUP1 SWAP2 SUB SWAP1 RETURN JUMPDEST PUSH2 0x279 PUSH1 0x4 DUP1 CALLDATASIZE SUB DUP2 ADD SWAP1 PUSH2 0x274 SWAP2 SWAP1 PUSH2 0x112E JUMP JUMPDEST PUSH2 0x9FA JUMP JUMPDEST STOP JUMPDEST PUSH2 0x295 PUSH1 0x4 DUP1 CALLDATASIZE SUB DUP2 ADD SWAP1 PUSH2 0x290 SWAP2 SWAP1 PUSH2 0x12C4 JUMP JUMPDEST PUSH2 0xA68 JUMP JUMPDEST STOP JUMPDEST PUSH2 0x29F PUSH2 0xA89 JUMP JUMPDEST PUSH1 0x40 MLOAD PUSH2 0x2AC SWAP2 SWAP1 PUSH2 0x168E JUMP JUMPDEST PUSH1 0x40 MLOAD DUP1 SWAP2 SUB SWAP1 RETURN JUMPDEST PUSH2 0x2BD PUSH2 0xAAD JUMP JUMPDEST PUSH1 0x40 MLOAD PUSH2 0x2CA SWAP2 SWAP1 PUSH2 0x168E JUMP JUMPDEST PUSH1 0x40 MLOAD DUP1 SWAP2 SUB SWAP1 RETURN JUMPDEST PUSH1 0x0 PUSH32 0x7965DB0B00000000000000000000000000000000000000000000000000000000 PUSH28 0xFFFFFFFFFFFFFFFFFFFFFFFFFFFFFFFFFFFFFFFFFFFFFFFFFFFFFFFF NOT AND DUP3 PUSH28 0xFFFFFFFFFFFFFFFFFFFFFFFFFFFFFFFFFFFFFFFFFFFFFFFFFFFFFFFF NOT AND EQ DUP1 PUSH2 0x346 JUMPI POP PUSH2 0x345 DUP3 PUSH2 0xAD1 JUMP JUMPDEST JUMPDEST SWAP1 POP SWAP2 SWAP1 POP JUMP JUMPDEST PUSH1 0x0 DUP1 PUSH1 0x0 DUP4 DUP2 MSTORE PUSH1 0x20 ADD SWAP1 DUP2 MSTORE PUSH1 0x20 ADD PUSH1 0x0 KECCAK256 PUSH1 0x1 ADD SLOAD SWAP1 POP SWAP2 SWAP1 POP JUMP JUMPDEST PUSH2 0x375 DUP3 PUSH2 0x34D JUMP JUMPDEST PUSH2 0x37E DUP2 PUSH2 0xB3B JUMP JUMPDEST PUSH2 0x388 DUP4 DUP4 PUSH2 0xB4F JUMP JUMPDEST POP POP POP JUMP JUMPDEST PUSH1 0x0 ISZERO ISZERO PUSH1 0x4 PUSH1 0x0 SWAP1 SLOAD SWAP1 PUSH2 0x100 EXP SWAP1 DIV PUSH1 0xFF AND ISZERO ISZERO EQ PUSH2 0x3E3 JUMPI PUSH1 0x40 MLOAD PUSH32 0x8C379A000000000000000000000000000000000000000000000000000000000 DUP2 MSTORE PUSH1 0x4 ADD PUSH2 0x3DA SWAP1 PUSH2 0x1734 JUMP JUMPDEST PUSH1 0x40 MLOAD DUP1 SWAP2 SUB SWAP1 REVERT JUMPDEST PUSH2 0x40D PUSH32 0xAF1DAC7DEA2FD7F7738119CEC7DF099DFAD49AA9D2E7D17BA6B60F63AE7411F DUP7 PUSH2 0xC2F JUMP JUMPDEST PUSH2 0x437 PUSH32 0x241ECF16D79D0F8DBFB92CBC07FE17840425976CF0667F022FE9877CAA831B08 DUP5 PUSH2 0xC2F JUMP JUMPDEST PUSH2 0x461 PUSH32 0x241ECF16D79D0F8DBFB92CBC07FE17840425976CF0667F022FE9877CAA831B08 DUP6 PUSH2 0xC2F JUMP JUMPDEST DUP2 PUSH1 0x1 DUP2 SWAP1 SSTORE POP DUP1 PUSH1 0x2 DUP2 SWAP1 SSTORE POP PUSH1 0x1 PUSH1 0x4 PUSH1 0x0 PUSH2 0x100 EXP DUP2 SLOAD DUP2 PUSH1 0xFF MUL NOT AND SWAP1 DUP4 ISZERO ISZERO MUL OR SWAP1 SSTORE POP POP POP POP POP POP JUMP JUMPDEST PUSH2 0x499 PUSH2 0xC3D JUMP JUMPDEST PUSH20 0xFFFFFFFFFFFFFFFFFFFFFFFFFFFFFFFFFFFFFFFF AND DUP2 PUSH20 0xFFFFFFFFFFFFFFFFFFFFFFFFFFFFFFFFFFFFFFFF AND EQ PUSH2 0x506 JUMPI PUSH1 0x40 MLOAD PUSH32 0x8C379A000000000000000000000000000000000000000000000000000000000 DUP2 MSTORE PUSH1 0x4 ADD PUSH2 0x4FD SWAP1 PUSH2 0x1754 JUMP JUMPDEST PUSH1 0x40 MLOAD DUP1 SWAP2 SUB SWAP1 REVERT JUMPDEST PUSH2 0x510 DUP3 DUP3 PUSH2 0xC45 JUMP JUMPDEST POP POP JUMP JUMPDEST PUSH1 0x0 DUP1 PUSH1 0x1 SLOAD SWAP2 POP PUSH1 0x2 SLOAD SWAP1 POP SWAP1 SWAP2 JUMP JUMPDEST PUSH2 0x54F PUSH32 0x241ECF16D79D0F8DBFB92CBC07FE17840425976CF0667F022FE9877CAA831B08 CALLER PUSH2 0x989 JUMP JUMPDEST DUP1 PUSH2 0x580 JUMPI POP PUSH2 0x57F PUSH32 0xAF1DAC7DEA2FD7F7738119CEC7DF099DFAD49AA9D2E7D17BA6B60F63AE7411F CALLER PUSH2 0x989 JUMP JUMPDEST JUMPDEST PUSH2 0x5BF JUMPI PUSH1 0x40 MLOAD PUSH32 0x8C379A000000000000000000000000000000000000000000000000000000000 DUP2 MSTORE PUSH1 0x4 ADD PUSH2 0x5B6 SWAP1 PUSH2 0x1714 JUMP JUMPDEST PUSH1 0x40 MLOAD DUP1 SWAP2 SUB SWAP1 REVERT JUMPDEST JUMP JUMPDEST PUSH1 0x0 ISZERO ISZERO PUSH1 0x4 PUSH1 0x0 SWAP1 SLOAD SWAP1 PUSH2 0x100 EXP SWAP1 DIV PUSH1 0xFF AND ISZERO ISZERO EQ PUSH2 0x617 JUMPI PUSH1 0x40 MLOAD PUSH32 0x8C379A000000000000000000000000000000000000000000000000000000000 DUP2 MSTORE PUSH1 0x4 ADD PUSH2 0x60E SWAP1 PUSH2 0x1734 JUMP JUMPDEST PUSH1 0x40 MLOAD DUP1 SWAP2 SUB SWAP1 REVERT JUMPDEST PUSH2 0x641 PUSH32 0xAF1DAC7DEA2FD7F7738119CEC7DF099DFAD49AA9D2E7D17BA6B60F63AE7411F DUP6 PUSH2 0xC2F JUMP JUMPDEST PUSH2 0x66B PUSH32 0x241ECF16D79D0F8DBFB92CBC07FE17840425976CF0667F022FE9877CAA831B08 DUP5 PUSH2 0xC2F JUMP JUMPDEST DUP2 PUSH1 0x1 DUP2 SWAP1 SSTORE POP DUP1 PUSH1 0x2 DUP2 SWAP1 SSTORE POP PUSH1 0x1 PUSH1 0x4 PUSH1 0x0 PUSH2 0x100 EXP DUP2 SLOAD DUP2 PUSH1 0xFF MUL NOT AND SWAP1 DUP4 ISZERO ISZERO MUL OR SWAP1 SSTORE POP POP POP POP POP JUMP JUMPDEST PUSH1 0x60 PUSH1 0x3 DUP1 SLOAD SWAP1 POP PUSH8 0xFFFFFFFFFFFFFFFF DUP2 GT ISZERO PUSH2 0x6BB JUMPI PUSH2 0x6BA PUSH2 0x1A9E JUMP JUMPDEST JUMPDEST PUSH1 0x40 MLOAD SWAP1 DUP1 DUP3 MSTORE DUP1 PUSH1 0x20 MUL PUSH1 0x20 ADD DUP3 ADD PUSH1 0x40 MSTORE DUP1 ISZERO PUSH2 0x6F4 JUMPI DUP2 PUSH1 0x20 ADD JUMPDEST PUSH2 0x6E1 PUSH2 0xFFF JUMP JUMPDEST DUP2 MSTORE PUSH1 0x20 ADD SWAP1 PUSH1 0x1 SWAP1 SUB SWAP1 DUP2 PUSH2 0x6D9 JUMPI SWAP1 POP JUMPDEST POP SWAP1 POP PUSH1 0x0 JUMPDEST PUSH1 0x3 DUP1 SLOAD SWAP1 POP DUP2 LT ISZERO PUSH2 0x985 JUMPI PUSH1 0x0 PUSH1 0x3 DUP3 DUP2 SLOAD DUP2 LT PUSH2 0x71D JUMPI PUSH2 0x71C PUSH2 0x1A6F JUMP JUMPDEST JUMPDEST SWAP1 PUSH1 0x0 MSTORE PUSH1 0x20 PUSH1 0x0 KECCAK256 ADD PUSH1 0x0 SWAP1 SLOAD SWAP1 PUSH2 0x100 EXP SWAP1 DIV PUSH20 0xFFFFFFFFFFFFFFFFFFFFFFFFFFFFFFFFFFFFFFFF AND SWAP1 POP PUSH1 0x40 MLOAD DUP1 PUSH1 0x80 ADD PUSH1 0x40 MSTORE DUP1 PUSH1 0x3 DUP5 DUP2 SLOAD DUP2 LT PUSH2 0x769 JUMPI PUSH2 0x768 PUSH2 0x1A6F JUMP JUMPDEST JUMPDEST SWAP1 PUSH1 0x0 MSTORE PUSH1 0x20 PUSH1 0x0 KECCAK256 ADD PUSH1 0x0 SWAP1 SLOAD SWAP1 PUSH2 0x100 EXP SWAP1 DIV PUSH20 0xFFFFFFFFFFFFFFFFFFFFFFFFFFFFFFFFFFFFFFFF AND PUSH20 0xFFFFFFFFFFFFFFFFFFFFFFFFFFFFFFFFFFFFFFFF AND DUP2 MSTORE PUSH1 0x20 ADD DUP3 PUSH20 0xFFFFFFFFFFFFFFFFFFFFFFFFFFFFFFFFFFFFFFFF AND PUSH4 0x7B0F9A36 PUSH1 0x40 MLOAD DUP2 PUSH4 0xFFFFFFFF AND PUSH1 0xE0 SHL DUP2 MSTORE PUSH1 0x4 ADD PUSH1 0x20 PUSH1 0x40 MLOAD DUP1 DUP4 SUB DUP2 DUP7 DUP1 EXTCODESIZE ISZERO DUP1 ISZERO PUSH2 0x7F5 JUMPI PUSH1 0x0 DUP1 REVERT JUMPDEST POP GAS STATICCALL ISZERO DUP1 ISZERO PUSH2 0x809 JUMPI RETURNDATASIZE PUSH1 0x0 DUP1 RETURNDATACOPY RETURNDATASIZE PUSH1 0x0 REVERT JUMPDEST POP POP POP POP PUSH1 0x40 MLOAD RETURNDATASIZE PUSH1 0x1F NOT PUSH1 0x1F DUP3 ADD AND DUP3 ADD DUP1 PUSH1 0x40 MSTORE POP DUP2 ADD SWAP1 PUSH2 0x82D SWAP2 SWAP1 PUSH2 0x115B JUMP JUMPDEST PUSH20 0xFFFFFFFFFFFFFFFFFFFFFFFFFFFFFFFFFFFFFFFF AND DUP2 MSTORE PUSH1 0x20 ADD DUP3 PUSH20 0xFFFFFFFFFFFFFFFFFFFFFFFFFFFFFFFFFFFFFFFF AND PUSH4 0xF595C485 PUSH1 0x40 MLOAD DUP2 PUSH4 0xFFFFFFFF AND PUSH1 0xE0 SHL DUP2 MSTORE PUSH1 0x4 ADD PUSH1 0x0 PUSH1 0x40 MLOAD DUP1 DUP4 SUB DUP2 DUP7 DUP1 EXTCODESIZE ISZERO DUP1 ISZERO PUSH2 0x88E JUMPI PUSH1 0x0 DUP1 REVERT JUMPDEST POP GAS STATICCALL ISZERO DUP1 ISZERO PUSH2 0x8A2 JUMPI RETURNDATASIZE PUSH1 0x0 DUP1 RETURNDATACOPY RETURNDATASIZE PUSH1 0x0 REVERT JUMPDEST POP POP POP POP PUSH1 0x40 MLOAD RETURNDATASIZE PUSH1 0x0 DUP3 RETURNDATACOPY RETURNDATASIZE PUSH1 0x1F NOT PUSH1 0x1F DUP3 ADD AND DUP3 ADD DUP1 PUSH1 0x40 MSTORE POP DUP2 ADD SWAP1 PUSH2 0x8CB SWAP2 SWAP1 PUSH2 0x1331 JUMP JUMPDEST DUP2 MSTORE PUSH1 0x20 ADD DUP3 PUSH20 0xFFFFFFFFFFFFFFFFFFFFFFFFFFFFFFFFFFFFFFFF AND PUSH4 0xB2FA1C9E PUSH1 0x40 MLOAD DUP2 PUSH4 0xFFFFFFFF AND PUSH1 0xE0 SHL DUP2 MSTORE PUSH1 0x4 ADD PUSH1 0x20 PUSH1 0x40 MLOAD DUP1 DUP4 SUB DUP2 DUP7 DUP1 EXTCODESIZE ISZERO DUP1 ISZERO PUSH2 0x916 JUMPI PUSH1 0x0 DUP1 REVERT JUMPDEST POP GAS STATICCALL ISZERO DUP1 ISZERO PUSH2 0x92A JUMPI RETURNDATASIZE PUSH1 0x0 DUP1 RETURNDATACOPY RETURNDATASIZE PUSH1 0x0 REVERT JUMPDEST POP POP POP POP PUSH1 0x40 MLOAD RETURNDATASIZE PUSH1 0x1F NOT PUSH1 0x1F DUP3 ADD AND DUP3 ADD DUP1 PUSH1 0x40 MSTORE POP DUP2 ADD SWAP1 PUSH2 0x94E SWAP2 SWAP1 PUSH2 0x126A JUMP JUMPDEST ISZERO ISZERO DUP2 MSTORE POP DUP4 DUP4 DUP2 MLOAD DUP2 LT PUSH2 0x966 JUMPI PUSH2 0x965 PUSH2 0x1A6F JUMP JUMPDEST JUMPDEST PUSH1 0x20 MUL PUSH1 0x20 ADD ADD DUP2 SWAP1 MSTORE POP POP DUP1 DUP1 PUSH2 0x97D SWAP1 PUSH2 0x19F7 JUMP JUMPDEST SWAP2 POP POP PUSH2 0x6FA JUMP JUMPDEST POP SWAP1 JUMP JUMPDEST PUSH1 0x0 DUP1 PUSH1 0x0 DUP5 DUP2 MSTORE PUSH1 0x20 ADD SWAP1 DUP2 MSTORE PUSH1 0x20 ADD PUSH1 0x0 KECCAK256 PUSH1 0x0 ADD PUSH1 0x0 DUP4 PUSH20 0xFFFFFFFFFFFFFFFFFFFFFFFFFFFFFFFFFFFFFFFF AND PUSH20 0xFFFFFFFFFFFFFFFFFFFFFFFFFFFFFFFFFFFFFFFF AND DUP2 MSTORE PUSH1 0x20 ADD SWAP1 DUP2 MSTORE PUSH1 0x20 ADD PUSH1 0x0 KECCAK256 PUSH1 0x0 SWAP1 SLOAD SWAP1 PUSH2 0x100 EXP SWAP1 DIV PUSH1 0xFF AND SWAP1 POP SWAP3 SWAP2 POP POP JUMP JUMPDEST PUSH1 0x0 DUP1 SHL DUP2 JUMP JUMPDEST PUSH2 0xA02 PUSH2 0x525 JUMP JUMPDEST PUSH1 0x3 DUP2 SWAP1 DUP1 PUSH1 0x1 DUP2 SLOAD ADD DUP1 DUP3 SSTORE DUP1 SWAP2 POP POP PUSH1 0x1 SWAP1 SUB SWAP1 PUSH1 0x0 MSTORE PUSH1 0x20 PUSH1 0x0 KECCAK256 ADD PUSH1 0x0 SWAP1 SWAP2 SWAP1 SWAP2 SWAP1 SWAP2 PUSH2 0x100 EXP DUP2 SLOAD DUP2 PUSH20 0xFFFFFFFFFFFFFFFFFFFFFFFFFFFFFFFFFFFFFFFF MUL NOT AND SWAP1 DUP4 PUSH20 0xFFFFFFFFFFFFFFFFFFFFFFFFFFFFFFFFFFFFFFFF AND MUL OR SWAP1 SSTORE POP POP JUMP JUMPDEST PUSH2 0xA71 DUP3 PUSH2 0x34D JUMP JUMPDEST PUSH2 0xA7A DUP2 PUSH2 0xB3B JUMP JUMPDEST PUSH2 0xA84 DUP4 DUP4 PUSH2 0xC45 JUMP JUMPDEST POP POP POP JUMP JUMPDEST PUSH32 0x241ECF16D79D0F8DBFB92CBC07FE17840425976CF0667F022FE9877CAA831B08 DUP2 JUMP JUMPDEST PUSH32 0xAF1DAC7DEA2FD7F7738119CEC7DF099DFAD49AA9D2E7D17BA6B60F63AE7411F DUP2 JUMP JUMPDEST PUSH1 0x0 PUSH32 0x1FFC9A700000000000000000000000000000000000000000000000000000000 PUSH28 0xFFFFFFFFFFFFFFFFFFFFFFFFFFFFFFFFFFFFFFFFFFFFFFFFFFFFFFFF NOT AND DUP3 PUSH28 0xFFFFFFFFFFFFFFFFFFFFFFFFFFFFFFFFFFFFFFFFFFFFFFFFFFFFFFFF NOT AND EQ SWAP1 POP SWAP2 SWAP1 POP JUMP JUMPDEST PUSH2 0xB4C DUP2 PUSH2 0xB47 PUSH2 0xC3D JUMP JUMPDEST PUSH2 0xD26 JUMP JUMPDEST POP JUMP JUMPDEST PUSH2 0xB59 DUP3 DUP3 PUSH2 0x989 JUMP JUMPDEST PUSH2 0xC2B JUMPI PUSH1 0x1 PUSH1 0x0 DUP1 DUP5 DUP2 MSTORE PUSH1 0x20 ADD SWAP1 DUP2 MSTORE PUSH1 0x20 ADD PUSH1 0x0 KECCAK256 PUSH1 0x0 ADD PUSH1 0x0 DUP4 PUSH20 0xFFFFFFFFFFFFFFFFFFFFFFFFFFFFFFFFFFFFFFFF AND PUSH20 0xFFFFFFFFFFFFFFFFFFFFFFFFFFFFFFFFFFFFFFFF AND DUP2 MSTORE PUSH1 0x20 ADD SWAP1 DUP2 MSTORE PUSH1 0x20 ADD PUSH1 0x0 KECCAK256 PUSH1 0x0 PUSH2 0x100 EXP DUP2 SLOAD DUP2 PUSH1 0xFF MUL NOT AND SWAP1 DUP4 ISZERO ISZERO MUL OR SWAP1 SSTORE POP PUSH2 0xBD0 PUSH2 0xC3D JUMP JUMPDEST PUSH20 0xFFFFFFFFFFFFFFFFFFFFFFFFFFFFFFFFFFFFFFFF AND DUP2 PUSH20 0xFFFFFFFFFFFFFFFFFFFFFFFFFFFFFFFFFFFFFFFF AND DUP4 PUSH32 0x2F8788117E7EFF1D82E926EC794901D17C78024A50270940304540A733656F0D PUSH1 0x40 MLOAD PUSH1 0x40 MLOAD DUP1 SWAP2 SUB SWAP1 LOG4 JUMPDEST POP POP JUMP JUMPDEST PUSH2 0xC39 DUP3 DUP3 PUSH2 0xB4F JUMP JUMPDEST POP POP JUMP JUMPDEST PUSH1 0x0 CALLER SWAP1 POP SWAP1 JUMP JUMPDEST PUSH2 0xC4F DUP3 DUP3 PUSH2 0x989 JUMP JUMPDEST ISZERO PUSH2 0xD22 JUMPI PUSH1 0x0 DUP1 PUSH1 0x0 DUP5 DUP2 MSTORE PUSH1 0x20 ADD SWAP1 DUP2 MSTORE PUSH1 0x20 ADD PUSH1 0x0 KECCAK256 PUSH1 0x0 ADD PUSH1 0x0 DUP4 PUSH20 0xFFFFFFFFFFFFFFFFFFFFFFFFFFFFFFFFFFFFFFFF AND PUSH20 0xFFFFFFFFFFFFFFFFFFFFFFFFFFFFFFFFFFFFFFFF AND DUP2 MSTORE PUSH1 0x20 ADD SWAP1 DUP2 MSTORE PUSH1 0x20 ADD PUSH1 0x0 KECCAK256 PUSH1 0x0 PUSH2 0x100 EXP DUP2 SLOAD DUP2 PUSH1 0xFF MUL NOT AND SWAP1 DUP4 ISZERO ISZERO MUL OR SWAP1 SSTORE POP PUSH2 0xCC7 PUSH2 0xC3D JUMP JUMPDEST PUSH20 0xFFFFFFFFFFFFFFFFFFFFFFFFFFFFFFFFFFFFFFFF AND DUP2 PUSH20 0xFFFFFFFFFFFFFFFFFFFFFFFFFFFFFFFFFFFFFFFF AND DUP4 PUSH32 0xF6391F5C32D9C69D2A47EA670B442974B53935D1EDC7FD64EB21E047A839171B PUSH1 0x40 MLOAD PUSH1 0x40 MLOAD DUP1 SWAP2 SUB SWAP1 LOG4 JUMPDEST POP POP JUMP JUMPDEST PUSH2 0xD30 DUP3 DUP3 PUSH2 0x989 JUMP JUMPDEST PUSH2 0xDBF JUMPI PUSH2 0xD55 DUP2 PUSH20 0xFFFFFFFFFFFFFFFFFFFFFFFFFFFFFFFFFFFFFFFF AND PUSH1 0x14 PUSH2 0xDC3 JUMP JUMPDEST PUSH2 0xD63 DUP4 PUSH1 0x0 SHR PUSH1 0x20 PUSH2 0xDC3 JUMP JUMPDEST PUSH1 0x40 MLOAD PUSH1 0x20 ADD PUSH2 0xD74 SWAP3 SWAP2 SWAP1 PUSH2 0x1617 JUMP JUMPDEST PUSH1 0x40 MLOAD PUSH1 0x20 DUP2 DUP4 SUB SUB DUP2 MSTORE SWAP1 PUSH1 0x40 MSTORE PUSH1 0x40 MLOAD PUSH32 0x8C379A000000000000000000000000000000000000000000000000000000000 DUP2 MSTORE PUSH1 0x4 ADD PUSH2 0xDB6 SWAP2 SWAP1 PUSH2 0x16D2 JUMP JUMPDEST PUSH1 0x40 MLOAD DUP1 SWAP2 SUB SWAP1 REVERT JUMPDEST POP POP JUMP JUMPDEST PUSH1 0x60 PUSH1 0x0 PUSH1 0x2 DUP4 PUSH1 0x2 PUSH2 0xDD6 SWAP2 SWAP1 PUSH2 0x1891 JUMP JUMPDEST PUSH2 0xDE0 SWAP2 SWAP1 PUSH2 0x183B JUMP JUMPDEST PUSH8 0xFFFFFFFFFFFFFFFF DUP2 GT ISZERO PUSH2 0xDF9 JUMPI PUSH2 0xDF8 PUSH2 0x1A9E JUMP JUMPDEST JUMPDEST PUSH1 0x40 MLOAD SWAP1 DUP1 DUP3 MSTORE DUP1 PUSH1 0x1F ADD PUSH1 0x1F NOT AND PUSH1 0x20 ADD DUP3 ADD PUSH1 0x40 MSTORE DUP1 ISZERO PUSH2 0xE2B JUMPI DUP2 PUSH1 0x20 ADD PUSH1 0x1 DUP3 MUL DUP1 CALLDATASIZE DUP4 CALLDATACOPY DUP1 DUP3 ADD SWAP2 POP POP SWAP1 POP JUMPDEST POP SWAP1 POP PUSH32 0x3000000000000000000000000000000000000000000000000000000000000000 DUP2 PUSH1 0x0 DUP2 MLOAD DUP2 LT PUSH2 0xE63 JUMPI PUSH2 0xE62 PUSH2 0x1A6F JUMP JUMPDEST JUMPDEST PUSH1 0x20 ADD ADD SWAP1 PUSH31 0xFFFFFFFFFFFFFFFFFFFFFFFFFFFFFFFFFFFFFFFFFFFFFFFFFFFFFFFFFFFFFF NOT AND SWAP1 DUP2 PUSH1 0x0 BYTE SWAP1 MSTORE8 POP PUSH32 0x7800000000000000000000000000000000000000000000000000000000000000 DUP2 PUSH1 0x1 DUP2 MLOAD DUP2 LT PUSH2 0xEC7 JUMPI PUSH2 0xEC6 PUSH2 0x1A6F JUMP JUMPDEST JUMPDEST PUSH1 0x20 ADD ADD SWAP1 PUSH31 0xFFFFFFFFFFFFFFFFFFFFFFFFFFFFFFFFFFFFFFFFFFFFFFFFFFFFFFFFFFFFFF NOT AND SWAP1 DUP2 PUSH1 0x0 BYTE SWAP1 MSTORE8 POP PUSH1 0x0 PUSH1 0x1 DUP5 PUSH1 0x2 PUSH2 0xF07 SWAP2 SWAP1 PUSH2 0x1891 JUMP JUMPDEST PUSH2 0xF11 SWAP2 SWAP1 PUSH2 0x183B JUMP JUMPDEST SWAP1 POP JUMPDEST PUSH1 0x1 DUP2 GT ISZERO PUSH2 0xFB1 JUMPI PUSH32 0x3031323334353637383961626364656600000000000000000000000000000000 PUSH1 0xF DUP7 AND PUSH1 0x10 DUP2 LT PUSH2 0xF53 JUMPI PUSH2 0xF52 PUSH2 0x1A6F JUMP JUMPDEST JUMPDEST BYTE PUSH1 0xF8 SHL DUP3 DUP3 DUP2 MLOAD DUP2 LT PUSH2 0xF6A JUMPI PUSH2 0xF69 PUSH2 0x1A6F JUMP JUMPDEST JUMPDEST PUSH1 0x20 ADD ADD SWAP1 PUSH31 0xFFFFFFFFFFFFFFFFFFFFFFFFFFFFFFFFFFFFFFFFFFFFFFFFFFFFFFFFFFFFFF NOT AND SWAP1 DUP2 PUSH1 0x0 BYTE SWAP1 MSTORE8 POP PUSH1 0x4 DUP6 SWAP1 SHR SWAP5 POP DUP1 PUSH2 0xFAA SWAP1 PUSH2 0x199C JUMP JUMPDEST SWAP1 POP PUSH2 0xF14 JUMP JUMPDEST POP PUSH1 0x0 DUP5 EQ PUSH2 0xFF5 JUMPI PUSH1 0x40 MLOAD PUSH32 0x8C379A000000000000000000000000000000000000000000000000000000000 DUP2 MSTORE PUSH1 0x4 ADD PUSH2 0xFEC SWAP1 PUSH2 0x16F4 JUMP JUMPDEST PUSH1 0x40 MLOAD DUP1 SWAP2 SUB SWAP1 REVERT JUMPDEST DUP1 SWAP2 POP POP SWAP3 SWAP2 POP POP JUMP JUMPDEST PUSH1 0x40 MLOAD DUP1 PUSH1 0x80 ADD PUSH1 0x40 MSTORE DUP1 PUSH1 0x0 PUSH20 0xFFFFFFFFFFFFFFFFFFFFFFFFFFFFFFFFFFFFFFFF AND DUP2 MSTORE PUSH1 0x20 ADD PUSH1 0x0 PUSH20 0xFFFFFFFFFFFFFFFFFFFFFFFFFFFFFFFFFFFFFFFF AND DUP2 MSTORE PUSH1 0x20 ADD PUSH1 0x60 DUP2 MSTORE PUSH1 0x20 ADD PUSH1 0x0 ISZERO ISZERO DUP2 MSTORE POP SWAP1 JUMP JUMPDEST PUSH1 0x0 PUSH2 0x1068 PUSH2 0x1063 DUP5 PUSH2 0x1799 JUMP JUMPDEST PUSH2 0x1774 JUMP JUMPDEST SWAP1 POP DUP3 DUP2 MSTORE PUSH1 0x20 DUP2 ADD DUP5 DUP5 DUP5 ADD GT ISZERO PUSH2 0x1084 JUMPI PUSH2 0x1083 PUSH2 0x1AD2 JUMP JUMPDEST JUMPDEST PUSH2 0x108F DUP5 DUP3 DUP6 PUSH2 0x1969 JUMP JUMPDEST POP SWAP4 SWAP3 POP POP POP JUMP JUMPDEST PUSH1 0x0 DUP2 CALLDATALOAD SWAP1 POP PUSH2 0x10A6 DUP2 PUSH2 0x1C0E JUMP JUMPDEST SWAP3 SWAP2 POP POP JUMP JUMPDEST PUSH1 0x0 DUP2 MLOAD SWAP1 POP PUSH2 0x10BB DUP2 PUSH2 0x1C0E JUMP JUMPDEST SWAP3 SWAP2 POP POP JUMP JUMPDEST PUSH1 0x0 DUP2 MLOAD SWAP1 POP PUSH2 0x10D0 DUP2 PUSH2 0x1C25 JUMP JUMPDEST SWAP3 SWAP2 POP POP JUMP JUMPDEST PUSH1 0x0 DUP2 CALLDATALOAD SWAP1 POP PUSH2 0x10E5 DUP2 PUSH2 0x1C3C JUMP JUMPDEST SWAP3 SWAP2 POP POP JUMP JUMPDEST PUSH1 0x0 DUP2 CALLDATALOAD SWAP1 POP PUSH2 0x10FA DUP2 PUSH2 0x1C53 JUMP JUMPDEST SWAP3 SWAP2 POP POP JUMP JUMPDEST PUSH1 0x0 DUP3 PUSH1 0x1F DUP4 ADD SLT PUSH2 0x1115 JUMPI PUSH2 0x1114 PUSH2 0x1ACD JUMP JUMPDEST JUMPDEST DUP2 MLOAD PUSH2 0x1125 DUP5 DUP3 PUSH1 0x20 DUP7 ADD PUSH2 0x1055 JUMP JUMPDEST SWAP2 POP POP SWAP3 SWAP2 POP POP JUMP JUMPDEST PUSH1 0x0 PUSH1 0x20 DUP3 DUP5 SUB SLT ISZERO PUSH2 0x1144 JUMPI PUSH2 0x1143 PUSH2 0x1ADC JUMP JUMPDEST JUMPDEST PUSH1 0x0 PUSH2 0x1152 DUP5 DUP3 DUP6 ADD PUSH2 0x1097 JUMP JUMPDEST SWAP2 POP POP SWAP3 SWAP2 POP POP JUMP JUMPDEST PUSH1 0x0 PUSH1 0x20 DUP3 DUP5 SUB SLT ISZERO PUSH2 0x1171 JUMPI PUSH2 0x1170 PUSH2 0x1ADC JUMP JUMPDEST JUMPDEST PUSH1 0x0 PUSH2 0x117F DUP5 DUP3 DUP6 ADD PUSH2 0x10AC JUMP JUMPDEST SWAP2 POP POP SWAP3 SWAP2 POP POP JUMP JUMPDEST PUSH1 0x0 DUP1 PUSH1 0x0 DUP1 PUSH1 0x0 PUSH1 0xA0 DUP7 DUP9 SUB SLT ISZERO PUSH2 0x11A4 JUMPI PUSH2 0x11A3 PUSH2 0x1ADC JUMP JUMPDEST JUMPDEST PUSH1 0x0 PUSH2 0x11B2 DUP9 DUP3 DUP10 ADD PUSH2 0x1097 JUMP JUMPDEST SWAP6 POP POP PUSH1 0x20 PUSH2 0x11C3 DUP9 DUP3 DUP10 ADD PUSH2 0x1097 JUMP JUMPDEST SWAP5 POP POP PUSH1 0x40 PUSH2 0x11D4 DUP9 DUP3 DUP10 ADD PUSH2 0x1097 JUMP JUMPDEST SWAP4 POP POP PUSH1 0x60 PUSH2 0x11E5 DUP9 DUP3 DUP10 ADD PUSH2 0x10D6 JUMP JUMPDEST SWAP3 POP POP PUSH1 0x80 PUSH2 0x11F6 DUP9 DUP3 DUP10 ADD PUSH2 0x10D6 JUMP JUMPDEST SWAP2 POP POP SWAP3 SWAP6 POP SWAP3 SWAP6 SWAP1 SWAP4 POP JUMP JUMPDEST PUSH1 0x0 DUP1 PUSH1 0x0 DUP1 PUSH1 0x80 DUP6 DUP8 SUB SLT ISZERO PUSH2 0x121D JUMPI PUSH2 0x121C PUSH2 0x1ADC JUMP JUMPDEST JUMPDEST PUSH1 0x0 PUSH2 0x122B DUP8 DUP3 DUP9 ADD PUSH2 0x1097 JUMP JUMPDEST SWAP5 POP POP PUSH1 0x20 PUSH2 0x123C DUP8 DUP3 DUP9 ADD PUSH2 0x1097 JUMP JUMPDEST SWAP4 POP POP PUSH1 0x40 PUSH2 0x124D DUP8 DUP3 DUP9 ADD PUSH2 0x10D6 JUMP JUMPDEST SWAP3 POP POP PUSH1 0x60 PUSH2 0x125E DUP8 DUP3 DUP9 ADD PUSH2 0x10D6 JUMP JUMPDEST SWAP2 POP POP SWAP3 SWAP6 SWAP2 SWAP5 POP SWAP3 POP JUMP JUMPDEST PUSH1 0x0 PUSH1 0x20 DUP3 DUP5 SUB SLT ISZERO PUSH2 0x1280 JUMPI PUSH2 0x127F PUSH2 0x1ADC JUMP JUMPDEST JUMPDEST PUSH1 0x0 PUSH2 0x128E DUP5 DUP3 DUP6 ADD PUSH2 0x10C1 JUMP JUMPDEST SWAP2 POP POP SWAP3 SWAP2 POP POP JUMP JUMPDEST PUSH1 0x0 PUSH1 0x20 DUP3 DUP5 SUB SLT ISZERO PUSH2 0x12AD JUMPI PUSH2 0x12AC PUSH2 0x1ADC JUMP JUMPDEST JUMPDEST PUSH1 0x0 PUSH2 0x12BB DUP5 DUP3 DUP6 ADD PUSH2 0x10D6 JUMP JUMPDEST SWAP2 POP POP SWAP3 SWAP2 POP POP JUMP JUMPDEST PUSH1 0x0 DUP1 PUSH1 0x40 DUP4 DUP6 SUB SLT ISZERO PUSH2 0x12DB JUMPI PUSH2 0x12DA PUSH2 0x1ADC JUMP JUMPDEST JUMPDEST PUSH1 0x0 PUSH2 0x12E9 DUP6 DUP3 DUP7 ADD PUSH2 0x10D6 JUMP JUMPDEST SWAP3 POP POP PUSH1 0x20 PUSH2 0x12FA DUP6 DUP3 DUP7 ADD PUSH2 0x1097 JUMP JUMPDEST SWAP2 POP POP SWAP3 POP SWAP3 SWAP1 POP JUMP JUMPDEST PUSH1 0x0 PUSH1 0x20 DUP3 DUP5 SUB SLT ISZERO PUSH2 0x131A JUMPI PUSH2 0x1319 PUSH2 0x1ADC JUMP JUMPDEST JUMPDEST PUSH1 0x0 PUSH2 0x1328 DUP5 DUP3 DUP6 ADD PUSH2 0x10EB JUMP JUMPDEST SWAP2 POP POP SWAP3 SWAP2 POP POP JUMP JUMPDEST PUSH1 0x0 PUSH1 0x20 DUP3 DUP5 SUB SLT ISZERO PUSH2 0x1347 JUMPI PUSH2 0x1346 PUSH2 0x1ADC JUMP JUMPDEST JUMPDEST PUSH1 0x0 DUP3 ADD MLOAD PUSH8 0xFFFFFFFFFFFFFFFF DUP2 GT ISZERO PUSH2 0x1365 JUMPI PUSH2 0x1364 PUSH2 0x1AD7 JUMP JUMPDEST JUMPDEST PUSH2 0x1371 DUP5 DUP3 DUP6 ADD PUSH2 0x1100 JUMP JUMPDEST SWAP2 POP POP SWAP3 SWAP2 POP POP JUMP JUMPDEST PUSH1 0x0 PUSH2 0x1386 DUP4 DUP4 PUSH2 0x15B4 JUMP JUMPDEST SWAP1 POP SWAP3 SWAP2 POP POP JUMP JUMPDEST PUSH2 0x1397 DUP2 PUSH2 0x18EB JUMP JUMPDEST DUP3 MSTORE POP POP JUMP JUMPDEST PUSH1 0x0 PUSH2 0x13A8 DUP3 PUSH2 0x17DA JUMP JUMPDEST PUSH2 0x13B2 DUP2 DUP6 PUSH2 0x17FD JUMP JUMPDEST SWAP4 POP DUP4 PUSH1 0x20 DUP3 MUL DUP6 ADD PUSH2 0x13C4 DUP6 PUSH2 0x17CA JUMP JUMPDEST DUP1 PUSH1 0x0 JUMPDEST DUP6 DUP2 LT ISZERO PUSH2 0x1400 JUMPI DUP5 DUP5 SUB DUP10 MSTORE DUP2 MLOAD PUSH2 0x13E1 DUP6 DUP3 PUSH2 0x137A JUMP JUMPDEST SWAP5 POP PUSH2 0x13EC DUP4 PUSH2 0x17F0 JUMP JUMPDEST SWAP3 POP PUSH1 0x20 DUP11 ADD SWAP10 POP POP PUSH1 0x1 DUP2 ADD SWAP1 POP PUSH2 0x13C8 JUMP JUMPDEST POP DUP3 SWAP8 POP DUP8 SWAP6 POP POP POP POP POP POP SWAP3 SWAP2 POP POP JUMP JUMPDEST PUSH2 0x141B DUP2 PUSH2 0x18FD JUMP JUMPDEST DUP3 MSTORE POP POP JUMP JUMPDEST PUSH2 0x142A DUP2 PUSH2 0x18FD JUMP JUMPDEST DUP3 MSTORE POP POP JUMP JUMPDEST PUSH2 0x1439 DUP2 PUSH2 0x1909 JUMP JUMPDEST DUP3 MSTORE POP POP JUMP JUMPDEST PUSH1 0x0 PUSH2 0x144A DUP3 PUSH2 0x17E5 JUMP JUMPDEST PUSH2 0x1454 DUP2 DUP6 PUSH2 0x180E JUMP JUMPDEST SWAP4 POP PUSH2 0x1464 DUP2 DUP6 PUSH1 0x20 DUP7 ADD PUSH2 0x1969 JUMP JUMPDEST PUSH2 0x146D DUP2 PUSH2 0x1AE1 JUMP JUMPDEST DUP5 ADD SWAP2 POP POP SWAP3 SWAP2 POP POP JUMP JUMPDEST PUSH1 0x0 PUSH2 0x1483 DUP3 PUSH2 0x17E5 JUMP JUMPDEST PUSH2 0x148D DUP2 DUP6 PUSH2 0x181F JUMP JUMPDEST SWAP4 POP PUSH2 0x149D DUP2 DUP6 PUSH1 0x20 DUP7 ADD PUSH2 0x1969 JUMP JUMPDEST PUSH2 0x14A6 DUP2 PUSH2 0x1AE1 JUMP JUMPDEST DUP5 ADD SWAP2 POP POP SWAP3 SWAP2 POP POP JUMP JUMPDEST PUSH1 0x0 PUSH2 0x14BC DUP3 PUSH2 0x17E5 JUMP JUMPDEST PUSH2 0x14C6 DUP2 DUP6 PUSH2 0x1830 JUMP JUMPDEST SWAP4 POP PUSH2 0x14D6 DUP2 DUP6 PUSH1 0x20 DUP7 ADD PUSH2 0x1969 JUMP JUMPDEST DUP1 DUP5 ADD SWAP2 POP POP SWAP3 SWAP2 POP POP JUMP JUMPDEST PUSH1 0x0 PUSH2 0x14EF PUSH1 0x20 DUP4 PUSH2 0x181F JUMP JUMPDEST SWAP2 POP PUSH2 0x14FA DUP3 PUSH2 0x1AF2 JUMP JUMPDEST PUSH1 0x20 DUP3 ADD SWAP1 POP SWAP2 SWAP1 POP JUMP JUMPDEST PUSH1 0x0 PUSH2 0x1512 PUSH1 0x11 DUP4 PUSH2 0x181F JUMP JUMPDEST SWAP2 POP PUSH2 0x151D DUP3 PUSH2 0x1B1B JUMP JUMPDEST PUSH1 0x20 DUP3 ADD SWAP1 POP SWAP2 SWAP1 POP JUMP JUMPDEST PUSH1 0x0 PUSH2 0x1535 PUSH1 0x13 DUP4 PUSH2 0x181F JUMP JUMPDEST SWAP2 POP PUSH2 0x1540 DUP3 PUSH2 0x1B44 JUMP JUMPDEST PUSH1 0x20 DUP3 ADD SWAP1 POP SWAP2 SWAP1 POP JUMP JUMPDEST PUSH1 0x0 PUSH2 0x1558 PUSH1 0x17 DUP4 PUSH2 0x1830 JUMP JUMPDEST SWAP2 POP PUSH2 0x1563 DUP3 PUSH2 0x1B6D JUMP JUMPDEST PUSH1 0x17 DUP3 ADD SWAP1 POP SWAP2 SWAP1 POP JUMP JUMPDEST PUSH1 0x0 PUSH2 0x157B PUSH1 0x11 DUP4 PUSH2 0x1830 JUMP JUMPDEST SWAP2 POP PUSH2 0x1586 DUP3 PUSH2 0x1B96 JUMP JUMPDEST PUSH1 0x11 DUP3 ADD SWAP1 POP SWAP2 SWAP1 POP JUMP JUMPDEST PUSH1 0x0 PUSH2 0x159E PUSH1 0x2F DUP4 PUSH2 0x181F JUMP JUMPDEST SWAP2 POP PUSH2 0x15A9 DUP3 PUSH2 0x1BBF JUMP JUMPDEST PUSH1 0x40 DUP3 ADD SWAP1 POP SWAP2 SWAP1 POP JUMP JUMPDEST PUSH1 0x0 PUSH1 0x80 DUP4 ADD PUSH1 0x0 DUP4 ADD MLOAD PUSH2 0x15CC PUSH1 0x0 DUP7 ADD DUP3 PUSH2 0x138E JUMP JUMPDEST POP PUSH1 0x20 DUP4 ADD MLOAD PUSH2 0x15DF PUSH1 0x20 DUP7 ADD DUP3 PUSH2 0x138E JUMP JUMPDEST POP PUSH1 0x40 DUP4 ADD MLOAD DUP5 DUP3 SUB PUSH1 0x40 DUP7 ADD MSTORE PUSH2 0x15F7 DUP3 DUP3 PUSH2 0x143F JUMP JUMPDEST SWAP2 POP POP PUSH1 0x60 DUP4 ADD MLOAD PUSH2 0x160C PUSH1 0x60 DUP7 ADD DUP3 PUSH2 0x1412 JUMP JUMPDEST POP DUP1 SWAP2 POP POP SWAP3 SWAP2 POP POP JUMP JUMPDEST PUSH1 0x0 PUSH2 0x1622 DUP3 PUSH2 0x154B JUMP JUMPDEST SWAP2 POP PUSH2 0x162E DUP3 DUP6 PUSH2 0x14B1 JUMP JUMPDEST SWAP2 POP PUSH2 0x1639 DUP3 PUSH2 0x156E JUMP JUMPDEST SWAP2 POP PUSH2 0x1645 DUP3 DUP5 PUSH2 0x14B1 JUMP JUMPDEST SWAP2 POP DUP2 SWAP1 POP SWAP4 SWAP3 POP POP POP JUMP JUMPDEST PUSH1 0x0 PUSH1 0x20 DUP3 ADD SWAP1 POP DUP2 DUP2 SUB PUSH1 0x0 DUP4 ADD MSTORE PUSH2 0x166B DUP2 DUP5 PUSH2 0x139D JUMP JUMPDEST SWAP1 POP SWAP3 SWAP2 POP POP JUMP JUMPDEST PUSH1 0x0 PUSH1 0x20 DUP3 ADD SWAP1 POP PUSH2 0x1688 PUSH1 0x0 DUP4 ADD DUP5 PUSH2 0x1421 JUMP JUMPDEST SWAP3 SWAP2 POP POP JUMP JUMPDEST PUSH1 0x0 PUSH1 0x20 DUP3 ADD SWAP1 POP PUSH2 0x16A3 PUSH1 0x0 DUP4 ADD DUP5 PUSH2 0x1430 JUMP JUMPDEST SWAP3 SWAP2 POP POP JUMP JUMPDEST PUSH1 0x0 PUSH1 0x40 DUP3 ADD SWAP1 POP PUSH2 0x16BE PUSH1 0x0 DUP4 ADD DUP6 PUSH2 0x1430 JUMP JUMPDEST PUSH2 0x16CB PUSH1 0x20 DUP4 ADD DUP5 PUSH2 0x1430 JUMP JUMPDEST SWAP4 SWAP3 POP POP POP JUMP JUMPDEST PUSH1 0x0 PUSH1 0x20 DUP3 ADD SWAP1 POP DUP2 DUP2 SUB PUSH1 0x0 DUP4 ADD MSTORE PUSH2 0x16EC DUP2 DUP5 PUSH2 0x1478 JUMP JUMPDEST SWAP1 POP SWAP3 SWAP2 POP POP JUMP JUMPDEST PUSH1 0x0 PUSH1 0x20 DUP3 ADD SWAP1 POP DUP2 DUP2 SUB PUSH1 0x0 DUP4 ADD MSTORE PUSH2 0x170D DUP2 PUSH2 0x14E2 JUMP JUMPDEST SWAP1 POP SWAP2 SWAP1 POP JUMP JUMPDEST PUSH1 0x0 PUSH1 0x20 DUP3 ADD SWAP1 POP DUP2 DUP2 SUB PUSH1 0x0 DUP4 ADD MSTORE PUSH2 0x172D DUP2 PUSH2 0x1505 JUMP JUMPDEST SWAP1 POP SWAP2 SWAP1 POP JUMP JUMPDEST PUSH1 0x0 PUSH1 0x20 DUP3 ADD SWAP1 POP DUP2 DUP2 SUB PUSH1 0x0 DUP4 ADD MSTORE PUSH2 0x174D DUP2 PUSH2 0x1528 JUMP JUMPDEST SWAP1 POP SWAP2 SWAP1 POP JUMP JUMPDEST PUSH1 0x0 PUSH1 0x20 DUP3 ADD SWAP1 POP DUP2 DUP2 SUB PUSH1 0x0 DUP4 ADD MSTORE PUSH2 0x176D DUP2 PUSH2 0x1591 JUMP JUMPDEST SWAP1 POP SWAP2 SWAP1 POP JUMP JUMPDEST PUSH1 0x0 PUSH2 0x177E PUSH2 0x178F JUMP JUMPDEST SWAP1 POP PUSH2 0x178A DUP3 DUP3 PUSH2 0x19C6 JUMP JUMPDEST SWAP2 SWAP1 POP JUMP JUMPDEST PUSH1 0x0 PUSH1 0x40 MLOAD SWAP1 POP SWAP1 JUMP JUMPDEST PUSH1 0x0 PUSH8 0xFFFFFFFFFFFFFFFF DUP3 GT ISZERO PUSH2 0x17B4 JUMPI PUSH2 0x17B3 PUSH2 0x1A9E JUMP JUMPDEST JUMPDEST PUSH2 0x17BD DUP3 PUSH2 0x1AE1 JUMP JUMPDEST SWAP1 POP PUSH1 0x20 DUP2 ADD SWAP1 POP SWAP2 SWAP1 POP JUMP JUMPDEST PUSH1 0x0 DUP2 SWAP1 POP PUSH1 0x20 DUP3 ADD SWAP1 POP SWAP2 SWAP1 POP JUMP JUMPDEST PUSH1 0x0 DUP2 MLOAD SWAP1 POP SWAP2 SWAP1 POP JUMP JUMPDEST PUSH1 0x0 DUP2 MLOAD SWAP1 POP SWAP2 SWAP1 POP JUMP JUMPDEST PUSH1 0x0 PUSH1 0x20 DUP3 ADD SWAP1 POP SWAP2 SWAP1 POP JUMP JUMPDEST PUSH1 0x0 DUP3 DUP3 MSTORE PUSH1 0x20 DUP3 ADD SWAP1 POP SWAP3 SWAP2 POP POP JUMP JUMPDEST PUSH1 0x0 DUP3 DUP3 MSTORE PUSH1 0x20 DUP3 ADD SWAP1 POP SWAP3 SWAP2 POP POP JUMP JUMPDEST PUSH1 0x0 DUP3 DUP3 MSTORE PUSH1 0x20 DUP3 ADD SWAP1 POP SWAP3 SWAP2 POP POP JUMP JUMPDEST PUSH1 0x0 DUP2 SWAP1 POP SWAP3 SWAP2 POP POP JUMP JUMPDEST PUSH1 0x0 PUSH2 0x1846 DUP3 PUSH2 0x195F JUMP JUMPDEST SWAP2 POP PUSH2 0x1851 DUP4 PUSH2 0x195F JUMP JUMPDEST SWAP3 POP DUP3 PUSH32 0xFFFFFFFFFFFFFFFFFFFFFFFFFFFFFFFFFFFFFFFFFFFFFFFFFFFFFFFFFFFFFFFF SUB DUP3 GT ISZERO PUSH2 0x1886 JUMPI PUSH2 0x1885 PUSH2 0x1A40 JUMP JUMPDEST JUMPDEST DUP3 DUP3 ADD SWAP1 POP SWAP3 SWAP2 POP POP JUMP JUMPDEST PUSH1 0x0 PUSH2 0x189C DUP3 PUSH2 0x195F JUMP JUMPDEST SWAP2 POP PUSH2 0x18A7 DUP4 PUSH2 0x195F JUMP JUMPDEST SWAP3 POP DUP2 PUSH32 0xFFFFFFFFFFFFFFFFFFFFFFFFFFFFFFFFFFFFFFFFFFFFFFFFFFFFFFFFFFFFFFFF DIV DUP4 GT DUP3 ISZERO ISZERO AND ISZERO PUSH2 0x18E0 JUMPI PUSH2 0x18DF PUSH2 0x1A40 JUMP JUMPDEST JUMPDEST DUP3 DUP3 MUL SWAP1 POP SWAP3 SWAP2 POP POP JUMP JUMPDEST PUSH1 0x0 PUSH2 0x18F6 DUP3 PUSH2 0x193F JUMP JUMPDEST SWAP1 POP SWAP2 SWAP1 POP JUMP JUMPDEST PUSH1 0x0 DUP2 ISZERO ISZERO SWAP1 POP SWAP2 SWAP1 POP JUMP JUMPDEST PUSH1 0x0 DUP2 SWAP1 POP SWAP2 SWAP1 POP JUMP JUMPDEST PUSH1 0x0 PUSH32 0xFFFFFFFF00000000000000000000000000000000000000000000000000000000 DUP3 AND SWAP1 POP SWAP2 SWAP1 POP JUMP JUMPDEST PUSH1 0x0 PUSH20 0xFFFFFFFFFFFFFFFFFFFFFFFFFFFFFFFFFFFFFFFF DUP3 AND SWAP1 POP SWAP2 SWAP1 POP JUMP JUMPDEST PUSH1 0x0 DUP2 SWAP1 POP SWAP2 SWAP1 POP JUMP JUMPDEST PUSH1 0x0 JUMPDEST DUP4 DUP2 LT ISZERO PUSH2 0x1987 JUMPI DUP1 DUP3 ADD MLOAD DUP2 DUP5 ADD MSTORE PUSH1 0x20 DUP2 ADD SWAP1 POP PUSH2 0x196C JUMP JUMPDEST DUP4 DUP2 GT ISZERO PUSH2 0x1996 JUMPI PUSH1 0x0 DUP5 DUP5 ADD MSTORE JUMPDEST POP POP POP POP JUMP JUMPDEST PUSH1 0x0 PUSH2 0x19A7 DUP3 PUSH2 0x195F JUMP JUMPDEST SWAP2 POP PUSH1 0x0 DUP3 EQ ISZERO PUSH2 0x19BB JUMPI PUSH2 0x19BA PUSH2 0x1A40 JUMP JUMPDEST JUMPDEST PUSH1 0x1 DUP3 SUB SWAP1 POP SWAP2 SWAP1 POP JUMP JUMPDEST PUSH2 0x19CF DUP3 PUSH2 0x1AE1 JUMP JUMPDEST DUP2 ADD DUP2 DUP2 LT PUSH8 0xFFFFFFFFFFFFFFFF DUP3 GT OR ISZERO PUSH2 0x19EE JUMPI PUSH2 0x19ED PUSH2 0x1A9E JUMP JUMPDEST JUMPDEST DUP1 PUSH1 0x40 MSTORE POP POP POP JUMP JUMPDEST PUSH1 0x0 PUSH2 0x1A02 DUP3 PUSH2 0x195F JUMP JUMPDEST SWAP2 POP PUSH32 0xFFFFFFFFFFFFFFFFFFFFFFFFFFFFFFFFFFFFFFFFFFFFFFFFFFFFFFFFFFFFFFFF DUP3 EQ ISZERO PUSH2 0x1A35 JUMPI PUSH2 0x1A34 PUSH2 0x1A40 JUMP JUMPDEST JUMPDEST PUSH1 0x1 DUP3 ADD SWAP1 POP SWAP2 SWAP1 POP JUMP JUMPDEST PUSH32 0x4E487B7100000000000000000000000000000000000000000000000000000000 PUSH1 0x0 MSTORE PUSH1 0x11 PUSH1 0x4 MSTORE PUSH1 0x24 PUSH1 0x0 REVERT JUMPDEST PUSH32 0x4E487B7100000000000000000000000000000000000000000000000000000000 PUSH1 0x0 MSTORE PUSH1 0x32 PUSH1 0x4 MSTORE PUSH1 0x24 PUSH1 0x0 REVERT JUMPDEST PUSH32 0x4E487B7100000000000000000000000000000000000000000000000000000000 PUSH1 0x0 MSTORE PUSH1 0x41 PUSH1 0x4 MSTORE PUSH1 0x24 PUSH1 0x0 REVERT JUMPDEST PUSH1 0x0 DUP1 REVERT JUMPDEST PUSH1 0x0 DUP1 REVERT JUMPDEST PUSH1 0x0 DUP1 REVERT JUMPDEST PUSH1 0x0 DUP1 REVERT JUMPDEST PUSH1 0x0 PUSH1 0x1F NOT PUSH1 0x1F DUP4 ADD AND SWAP1 POP SWAP2 SWAP1 POP JUMP JUMPDEST PUSH32 0x537472696E67733A20686578206C656E67746820696E73756666696369656E74 PUSH1 0x0 DUP3 ADD MSTORE POP JUMP JUMPDEST PUSH32 0x4E65656420777269746520616363657373000000000000000000000000000000 PUSH1 0x0 DUP3 ADD MSTORE POP JUMP JUMPDEST PUSH32 0x416C726561647920696E697469616C697A656400000000000000000000000000 PUSH1 0x0 DUP3 ADD MSTORE POP JUMP JUMPDEST PUSH32 0x416363657373436F6E74726F6C3A206163636F756E7420000000000000000000 PUSH1 0x0 DUP3 ADD MSTORE POP JUMP JUMPDEST PUSH32 0x206973206D697373696E6720726F6C6520000000000000000000000000000000 PUSH1 0x0 DUP3 ADD MSTORE POP JUMP JUMPDEST PUSH32 0x416363657373436F6E74726F6C3A2063616E206F6E6C792072656E6F756E6365 PUSH1 0x0 DUP3 ADD MSTORE PUSH32 0x20726F6C657320666F722073656C660000000000000000000000000000000000 PUSH1 0x20 DUP3 ADD MSTORE POP JUMP JUMPDEST PUSH2 0x1C17 DUP2 PUSH2 0x18EB JUMP JUMPDEST DUP2 EQ PUSH2 0x1C22 JUMPI PUSH1 0x0 DUP1 REVERT JUMPDEST POP JUMP JUMPDEST PUSH2 0x1C2E DUP2 PUSH2 0x18FD JUMP JUMPDEST DUP2 EQ PUSH2 0x1C39 JUMPI PUSH1 0x0 DUP1 REVERT JUMPDEST POP JUMP JUMPDEST PUSH2 0x1C45 DUP2 PUSH2 0x1909 JUMP JUMPDEST DUP2 EQ PUSH2 0x1C50 JUMPI PUSH1 0x0 DUP1 REVERT JUMPDEST POP JUMP JUMPDEST PUSH2 0x1C5C DUP2 PUSH2 0x1913 JUMP JUMPDEST DUP2 EQ PUSH2 0x1C67 JUMPI PUSH1 0x0 DUP1 REVERT JUMPDEST POP JUMP INVALID LOG2 PUSH5 0x6970667358 0x22 SLT KECCAK256 SIGNEXTEND AND REVERT 0xEE 0xD6 0xA7 0xCD 0xE 0x4E 0xEC SHR EXTCODEHASH 0xBC SAR SWAP8 0xCE 0xAA 0xC8 0xAE 0xAB 0xDA 0xD7 0xE4 PUSH32 0x63D22189069ED13964736F6C6343000806003360A06040523480156100105760 STOP DUP1 REVERT JUMPDEST POP PUSH2 0x2D PUSH2 0x22 PUSH2 0x91 PUSH1 0x20 SHL PUSH1 0x20 SHR JUMP JUMPDEST PUSH2 0x99 PUSH1 0x20 SHL PUSH1 0x20 SHR JUMP JUMPDEST PUSH1 0x40 MLOAD PUSH2 0x39 SWAP1 PUSH2 0x15D JUMP JUMPDEST PUSH1 0x40 MLOAD DUP1 SWAP2 SUB SWAP1 PUSH1 0x0 CREATE DUP1 ISZERO DUP1 ISZERO PUSH2 0x55 JUMPI RETURNDATASIZE PUSH1 0x0 DUP1 RETURNDATACOPY RETURNDATASIZE PUSH1 0x0 REVERT JUMPDEST POP PUSH20 0xFFFFFFFFFFFFFFFFFFFFFFFFFFFFFFFFFFFFFFFF AND PUSH1 0x80 DUP2 PUSH20 0xFFFFFFFFFFFFFFFFFFFFFFFFFFFFFFFFFFFFFFFF AND PUSH1 0x60 SHL DUP2 MSTORE POP POP PUSH2 0x16A JUMP JUMPDEST PUSH1 0x0 CALLER SWAP1 POP SWAP1 JUMP JUMPDEST PUSH1 0x0 DUP1 PUSH1 0x0 SWAP1 SLOAD SWAP1 PUSH2 0x100 EXP SWAP1 DIV PUSH20 0xFFFFFFFFFFFFFFFFFFFFFFFFFFFFFFFFFFFFFFFF AND SWAP1 POP DUP2 PUSH1 0x0 DUP1 PUSH2 0x100 EXP DUP2 SLOAD DUP2 PUSH20 0xFFFFFFFFFFFFFFFFFFFFFFFFFFFFFFFFFFFFFFFF MUL NOT AND SWAP1 DUP4 PUSH20 0xFFFFFFFFFFFFFFFFFFFFFFFFFFFFFFFFFFFFFFFF AND MUL OR SWAP1 SSTORE POP DUP2 PUSH20 0xFFFFFFFFFFFFFFFFFFFFFFFFFFFFFFFFFFFFFFFF AND DUP2 PUSH20 0xFFFFFFFFFFFFFFFFFFFFFFFFFFFFFFFFFFFFFFFF AND PUSH32 0x8BE0079C531659141344CD1FD0A4F28419497F9722A3DAAFE3B4186F6B6457E0 PUSH1 0x40 MLOAD PUSH1 0x40 MLOAD DUP1 SWAP2 SUB SWAP1 LOG3 POP POP JUMP JUMPDEST PUSH2 0x34B4 DUP1 PUSH2 0x117F DUP4 CODECOPY ADD SWAP1 JUMP JUMPDEST PUSH1 0x80 MLOAD PUSH1 0x60 SHR PUSH2 0xFF7 PUSH2 0x188 PUSH1 0x0 CODECOPY PUSH1 0x0 PUSH2 0x111 ADD MSTORE PUSH2 0xFF7 PUSH1 0x0 RETURN INVALID PUSH1 0x80 PUSH1 0x40 MSTORE CALLVALUE DUP1 ISZERO PUSH2 0x10 JUMPI PUSH1 0x0 DUP1 REVERT JUMPDEST POP PUSH1 0x4 CALLDATASIZE LT PUSH2 0x4C JUMPI PUSH1 0x0 CALLDATALOAD PUSH1 0xE0 SHR DUP1 PUSH4 0x715018A6 EQ PUSH2 0x51 JUMPI DUP1 PUSH4 0x8DA5CB5B EQ PUSH2 0x5B JUMPI DUP1 PUSH4 0xA402856C EQ PUSH2 0x79 JUMPI DUP1 PUSH4 0xF2FDE38B EQ PUSH2 0xA9 JUMPI JUMPDEST PUSH1 0x0 DUP1 REVERT JUMPDEST PUSH2 0x59 PUSH2 0xC5 JUMP JUMPDEST STOP JUMPDEST PUSH2 0x63 PUSH2 0xD9 JUMP JUMPDEST PUSH1 0x40 MLOAD PUSH2 0x70 SWAP2 SWAP1 PUSH2 0xAFE JUMP JUMPDEST PUSH1 0x40 MLOAD DUP1 SWAP2 SUB SWAP1 RETURN JUMPDEST PUSH2 0x93 PUSH1 0x4 DUP1 CALLDATASIZE SUB DUP2 ADD SWAP1 PUSH2 0x8E SWAP2 SWAP1 PUSH2 0x844 JUMP JUMPDEST PUSH2 0x102 JUMP JUMPDEST PUSH1 0x40 MLOAD PUSH2 0xA0 SWAP2 SWAP1 PUSH2 0xAFE JUMP JUMPDEST PUSH1 0x40 MLOAD DUP1 SWAP2 SUB SWAP1 RETURN JUMPDEST PUSH2 0xC3 PUSH1 0x4 DUP1 CALLDATASIZE SUB DUP2 ADD SWAP1 PUSH2 0xBE SWAP2 SWAP1 PUSH2 0x817 JUMP JUMPDEST PUSH2 0x2DB JUMP JUMPDEST STOP JUMPDEST PUSH2 0xCD PUSH2 0x35F JUMP JUMPDEST PUSH2 0xD7 PUSH1 0x0 PUSH2 0x3DD JUMP JUMPDEST JUMP JUMPDEST PUSH1 0x0 DUP1 PUSH1 0x0 SWAP1 SLOAD SWAP1 PUSH2 0x100 EXP SWAP1 DIV PUSH20 0xFFFFFFFFFFFFFFFFFFFFFFFFFFFFFFFFFFFFFFFF AND SWAP1 POP SWAP1 JUMP JUMPDEST PUSH1 0x0 PUSH2 0x10C PUSH2 0x35F JUMP JUMPDEST PUSH2 0x135 PUSH32 0x0 PUSH2 0x4A1 JUMP JUMPDEST SWAP1 POP DUP2 PUSH1 0x0 ADD MLOAD ISZERO PUSH2 0x20D JUMPI DUP1 PUSH20 0xFFFFFFFFFFFFFFFFFFFFFFFFFFFFFFFFFFFFFFFF AND PUSH4 0x444670C CALLER DUP12 DUP6 PUSH1 0x20 ADD MLOAD PUSH1 0x40 MLOAD DUP1 PUSH1 0x40 ADD PUSH1 0x40 MSTORE DUP1 DUP15 PUSH1 0x0 ADD MLOAD DUP2 MSTORE PUSH1 0x20 ADD DUP15 PUSH1 0x20 ADD MLOAD DUP2 MSTORE POP DUP13 DUP13 DUP13 DUP13 PUSH1 0x40 MLOAD DUP1 PUSH1 0x60 ADD PUSH1 0x40 MSTORE DUP1 DUP15 PUSH1 0x0 ADD MLOAD ISZERO ISZERO DUP2 MSTORE PUSH1 0x20 ADD DUP15 PUSH1 0x20 ADD MLOAD ISZERO ISZERO DUP2 MSTORE PUSH1 0x20 ADD DUP15 PUSH1 0x40 ADD MLOAD ISZERO ISZERO DUP2 MSTORE POP PUSH1 0x40 MLOAD DUP11 PUSH4 0xFFFFFFFF AND PUSH1 0xE0 SHL DUP2 MSTORE PUSH1 0x4 ADD PUSH2 0x1D6 SWAP10 SWAP9 SWAP8 SWAP7 SWAP6 SWAP5 SWAP4 SWAP3 SWAP2 SWAP1 PUSH2 0xB19 JUMP JUMPDEST PUSH1 0x0 PUSH1 0x40 MLOAD DUP1 DUP4 SUB DUP2 PUSH1 0x0 DUP8 DUP1 EXTCODESIZE ISZERO DUP1 ISZERO PUSH2 0x1F0 JUMPI PUSH1 0x0 DUP1 REVERT JUMPDEST POP GAS CALL ISZERO DUP1 ISZERO PUSH2 0x204 JUMPI RETURNDATASIZE PUSH1 0x0 DUP1 RETURNDATACOPY RETURNDATASIZE PUSH1 0x0 REVERT JUMPDEST POP POP POP POP PUSH2 0x2CF JUMP JUMPDEST DUP1 PUSH20 0xFFFFFFFFFFFFFFFFFFFFFFFFFFFFFFFFFFFFFFFF AND PUSH4 0x2372F9C2 CALLER DUP12 PUSH1 0x40 MLOAD DUP1 PUSH1 0x40 ADD PUSH1 0x40 MSTORE DUP1 DUP14 PUSH1 0x0 ADD MLOAD DUP2 MSTORE PUSH1 0x20 ADD DUP14 PUSH1 0x20 ADD MLOAD DUP2 MSTORE POP DUP12 DUP12 DUP12 DUP12 PUSH1 0x40 MLOAD DUP1 PUSH1 0x60 ADD PUSH1 0x40 MSTORE DUP1 DUP14 PUSH1 0x0 ADD MLOAD ISZERO ISZERO DUP2 MSTORE PUSH1 0x20 ADD DUP14 PUSH1 0x20 ADD MLOAD ISZERO ISZERO DUP2 MSTORE PUSH1 0x20 ADD DUP14 PUSH1 0x40 ADD MLOAD ISZERO ISZERO DUP2 MSTORE POP PUSH1 0x40 MLOAD DUP10 PUSH4 0xFFFFFFFF AND PUSH1 0xE0 SHL DUP2 MSTORE PUSH1 0x4 ADD PUSH2 0x29C SWAP9 SWAP8 SWAP7 SWAP6 SWAP5 SWAP4 SWAP3 SWAP2 SWAP1 PUSH2 0xBAE JUMP JUMPDEST PUSH1 0x0 PUSH1 0x40 MLOAD DUP1 DUP4 SUB DUP2 PUSH1 0x0 DUP8 DUP1 EXTCODESIZE ISZERO DUP1 ISZERO PUSH2 0x2B6 JUMPI PUSH1 0x0 DUP1 REVERT JUMPDEST POP GAS CALL ISZERO DUP1 ISZERO PUSH2 0x2CA JUMPI RETURNDATASIZE PUSH1 0x0 DUP1 RETURNDATACOPY RETURNDATASIZE PUSH1 0x0 REVERT JUMPDEST POP POP POP POP JUMPDEST SWAP9 SWAP8 POP POP POP POP POP POP POP POP JUMP JUMPDEST PUSH2 0x2E3 PUSH2 0x35F JUMP JUMPDEST PUSH1 0x0 PUSH20 0xFFFFFFFFFFFFFFFFFFFFFFFFFFFFFFFFFFFFFFFF AND DUP2 PUSH20 0xFFFFFFFFFFFFFFFFFFFFFFFFFFFFFFFFFFFFFFFF AND EQ ISZERO PUSH2 0x353 JUMPI PUSH1 0x40 MLOAD PUSH32 0x8C379A000000000000000000000000000000000000000000000000000000000 DUP2 MSTORE PUSH1 0x4 ADD PUSH2 0x34A SWAP1 PUSH2 0xC34 JUMP JUMPDEST PUSH1 0x40 MLOAD DUP1 SWAP2 SUB SWAP1 REVERT JUMPDEST PUSH2 0x35C DUP2 PUSH2 0x3DD JUMP JUMPDEST POP JUMP JUMPDEST PUSH2 0x367 PUSH2 0x576 JUMP JUMPDEST PUSH20 0xFFFFFFFFFFFFFFFFFFFFFFFFFFFFFFFFFFFFFFFF AND PUSH2 0x385 PUSH2 0xD9 JUMP JUMPDEST PUSH20 0xFFFFFFFFFFFFFFFFFFFFFFFFFFFFFFFFFFFFFFFF AND EQ PUSH2 0x3DB JUMPI PUSH1 0x40 MLOAD PUSH32 0x8C379A000000000000000000000000000000000000000000000000000000000 DUP2 MSTORE PUSH1 0x4 ADD PUSH2 0x3D2 SWAP1 PUSH2 0xC74 JUMP JUMPDEST PUSH1 0x40 MLOAD DUP1 SWAP2 SUB SWAP1 REVERT JUMPDEST JUMP JUMPDEST PUSH1 0x0 DUP1 PUSH1 0x0 SWAP1 SLOAD SWAP1 PUSH2 0x100 EXP SWAP1 DIV PUSH20 0xFFFFFFFFFFFFFFFFFFFFFFFFFFFFFFFFFFFFFFFF AND SWAP1 POP DUP2 PUSH1 0x0 DUP1 PUSH2 0x100 EXP DUP2 SLOAD DUP2 PUSH20 0xFFFFFFFFFFFFFFFFFFFFFFFFFFFFFFFFFFFFFFFF MUL NOT AND SWAP1 DUP4 PUSH20 0xFFFFFFFFFFFFFFFFFFFFFFFFFFFFFFFFFFFFFFFF AND MUL OR SWAP1 SSTORE POP DUP2 PUSH20 0xFFFFFFFFFFFFFFFFFFFFFFFFFFFFFFFFFFFFFFFF AND DUP2 PUSH20 0xFFFFFFFFFFFFFFFFFFFFFFFFFFFFFFFFFFFFFFFF AND PUSH32 0x8BE0079C531659141344CD1FD0A4F28419497F9722A3DAAFE3B4186F6B6457E0 PUSH1 0x40 MLOAD PUSH1 0x40 MLOAD DUP1 SWAP2 SUB SWAP1 LOG3 POP POP JUMP JUMPDEST PUSH1 0x0 PUSH1 0x40 MLOAD PUSH32 0x3D602D80600A3D3981F3363D3D373D3D3D363D73000000000000000000000000 DUP2 MSTORE DUP3 PUSH1 0x60 SHL PUSH1 0x14 DUP3 ADD MSTORE PUSH32 0x5AF43D82803E903D91602B57FD5BF30000000000000000000000000000000000 PUSH1 0x28 DUP3 ADD MSTORE PUSH1 0x37 DUP2 PUSH1 0x0 CREATE SWAP2 POP POP PUSH1 0x0 PUSH20 0xFFFFFFFFFFFFFFFFFFFFFFFFFFFFFFFFFFFFFFFF AND DUP2 PUSH20 0xFFFFFFFFFFFFFFFFFFFFFFFFFFFFFFFFFFFFFFFF AND EQ ISZERO PUSH2 0x571 JUMPI PUSH1 0x40 MLOAD PUSH32 0x8C379A000000000000000000000000000000000000000000000000000000000 DUP2 MSTORE PUSH1 0x4 ADD PUSH2 0x568 SWAP1 PUSH2 0xC54 JUMP JUMPDEST PUSH1 0x40 MLOAD DUP1 SWAP2 SUB SWAP1 REVERT JUMPDEST SWAP2 SWAP1 POP JUMP JUMPDEST PUSH1 0x0 CALLER SWAP1 POP SWAP1 JUMP JUMPDEST PUSH1 0x0 PUSH2 0x591 PUSH2 0x58C DUP5 PUSH2 0xCB9 JUMP JUMPDEST PUSH2 0xC94 JUMP JUMPDEST SWAP1 POP DUP1 DUP4 DUP3 MSTORE PUSH1 0x20 DUP3 ADD SWAP1 POP DUP3 DUP6 PUSH1 0x20 DUP7 MUL DUP3 ADD GT ISZERO PUSH2 0x5B4 JUMPI PUSH2 0x5B3 PUSH2 0xE88 JUMP JUMPDEST JUMPDEST PUSH1 0x0 JUMPDEST DUP6 DUP2 LT ISZERO PUSH2 0x602 JUMPI DUP2 CALLDATALOAD PUSH8 0xFFFFFFFFFFFFFFFF DUP2 GT ISZERO PUSH2 0x5DA JUMPI PUSH2 0x5D9 PUSH2 0xE7E JUMP JUMPDEST JUMPDEST DUP1 DUP7 ADD PUSH2 0x5E7 DUP10 DUP3 PUSH2 0x6BB JUMP JUMPDEST DUP6 MSTORE PUSH1 0x20 DUP6 ADD SWAP5 POP PUSH1 0x20 DUP5 ADD SWAP4 POP POP POP PUSH1 0x1 DUP2 ADD SWAP1 POP PUSH2 0x5B7 JUMP JUMPDEST POP POP POP SWAP4 SWAP3 POP POP POP JUMP JUMPDEST PUSH1 0x0 PUSH2 0x61F PUSH2 0x61A DUP5 PUSH2 0xCE5 JUMP JUMPDEST PUSH2 0xC94 JUMP JUMPDEST SWAP1 POP DUP3 DUP2 MSTORE PUSH1 0x20 DUP2 ADD DUP5 DUP5 DUP5 ADD GT ISZERO PUSH2 0x63B JUMPI PUSH2 0x63A PUSH2 0xE8D JUMP JUMPDEST JUMPDEST PUSH2 0x646 DUP5 DUP3 DUP6 PUSH2 0xDDC JUMP JUMPDEST POP SWAP4 SWAP3 POP POP POP JUMP JUMPDEST PUSH1 0x0 DUP2 CALLDATALOAD SWAP1 POP PUSH2 0x65D DUP2 PUSH2 0xF4E JUMP JUMPDEST SWAP3 SWAP2 POP POP JUMP JUMPDEST PUSH1 0x0 DUP3 PUSH1 0x1F DUP4 ADD SLT PUSH2 0x678 JUMPI PUSH2 0x677 PUSH2 0xE7E JUMP JUMPDEST JUMPDEST DUP2 CALLDATALOAD PUSH2 0x688 DUP5 DUP3 PUSH1 0x20 DUP7 ADD PUSH2 0x57E JUMP JUMPDEST SWAP2 POP POP SWAP3 SWAP2 POP POP JUMP JUMPDEST PUSH1 0x0 DUP2 CALLDATALOAD SWAP1 POP PUSH2 0x6A0 DUP2 PUSH2 0xF65 JUMP JUMPDEST SWAP3 SWAP2 POP POP JUMP JUMPDEST PUSH1 0x0 DUP2 CALLDATALOAD SWAP1 POP PUSH2 0x6B5 DUP2 PUSH2 0xF7C JUMP JUMPDEST SWAP3 SWAP2 POP POP JUMP JUMPDEST PUSH1 0x0 DUP3 PUSH1 0x1F DUP4 ADD SLT PUSH2 0x6D0 JUMPI PUSH2 0x6CF PUSH2 0xE7E JUMP JUMPDEST JUMPDEST DUP2 CALLDATALOAD PUSH2 0x6E0 DUP5 DUP3 PUSH1 0x20 DUP7 ADD PUSH2 0x60C JUMP JUMPDEST SWAP2 POP POP SWAP3 SWAP2 POP POP JUMP JUMPDEST PUSH1 0x0 PUSH1 0x60 DUP3 DUP5 SUB SLT ISZERO PUSH2 0x6FF JUMPI PUSH2 0x6FE PUSH2 0xE83 JUMP JUMPDEST JUMPDEST PUSH2 0x709 PUSH1 0x60 PUSH2 0xC94 JUMP JUMPDEST SWAP1 POP PUSH1 0x0 PUSH2 0x719 DUP5 DUP3 DUP6 ADD PUSH2 0x691 JUMP JUMPDEST PUSH1 0x0 DUP4 ADD MSTORE POP PUSH1 0x20 PUSH2 0x72D DUP5 DUP3 DUP6 ADD PUSH2 0x691 JUMP JUMPDEST PUSH1 0x20 DUP4 ADD MSTORE POP PUSH1 0x40 PUSH2 0x741 DUP5 DUP3 DUP6 ADD PUSH2 0x691 JUMP JUMPDEST PUSH1 0x40 DUP4 ADD MSTORE POP SWAP3 SWAP2 POP POP JUMP JUMPDEST PUSH1 0x0 PUSH1 0x40 DUP3 DUP5 SUB SLT ISZERO PUSH2 0x763 JUMPI PUSH2 0x762 PUSH2 0xE83 JUMP JUMPDEST JUMPDEST PUSH2 0x76D PUSH1 0x40 PUSH2 0xC94 JUMP JUMPDEST SWAP1 POP PUSH1 0x0 PUSH2 0x77D DUP5 DUP3 DUP6 ADD PUSH2 0x6A6 JUMP JUMPDEST PUSH1 0x0 DUP4 ADD MSTORE POP PUSH1 0x20 PUSH2 0x791 DUP5 DUP3 DUP6 ADD PUSH2 0x6A6 JUMP JUMPDEST PUSH1 0x20 DUP4 ADD MSTORE POP SWAP3 SWAP2 POP POP JUMP JUMPDEST PUSH1 0x0 PUSH1 0x40 DUP3 DUP5 SUB SLT ISZERO PUSH2 0x7B3 JUMPI PUSH2 0x7B2 PUSH2 0xE83 JUMP JUMPDEST JUMPDEST PUSH2 0x7BD PUSH1 0x40 PUSH2 0xC94 JUMP JUMPDEST SWAP1 POP PUSH1 0x0 PUSH2 0x7CD DUP5 DUP3 DUP6 ADD PUSH2 0x691 JUMP JUMPDEST PUSH1 0x0 DUP4 ADD MSTORE POP PUSH1 0x20 PUSH2 0x7E1 DUP5 DUP3 DUP6 ADD PUSH2 0x64E JUMP JUMPDEST PUSH1 0x20 DUP4 ADD MSTORE POP SWAP3 SWAP2 POP POP JUMP JUMPDEST PUSH1 0x0 DUP2 CALLDATALOAD SWAP1 POP PUSH2 0x7FC DUP2 PUSH2 0xF93 JUMP JUMPDEST SWAP3 SWAP2 POP POP JUMP JUMPDEST PUSH1 0x0 DUP2 CALLDATALOAD SWAP1 POP PUSH2 0x811 DUP2 PUSH2 0xFAA JUMP JUMPDEST SWAP3 SWAP2 POP POP JUMP JUMPDEST PUSH1 0x0 PUSH1 0x20 DUP3 DUP5 SUB SLT ISZERO PUSH2 0x82D JUMPI PUSH2 0x82C PUSH2 0xE97 JUMP JUMPDEST JUMPDEST PUSH1 0x0 PUSH2 0x83B DUP5 DUP3 DUP6 ADD PUSH2 0x64E JUMP JUMPDEST SWAP2 POP POP SWAP3 SWAP2 POP POP JUMP JUMPDEST PUSH1 0x0 DUP1 PUSH1 0x0 DUP1 PUSH1 0x0 DUP1 PUSH1 0x0 DUP1 PUSH2 0x180 DUP10 DUP12 SUB SLT ISZERO PUSH2 0x865 JUMPI PUSH2 0x864 PUSH2 0xE97 JUMP JUMPDEST JUMPDEST PUSH1 0x0 PUSH2 0x873 DUP12 DUP3 DUP13 ADD PUSH2 0x64E JUMP JUMPDEST SWAP9 POP POP PUSH1 0x20 PUSH2 0x884 DUP12 DUP3 DUP13 ADD PUSH2 0x74D JUMP JUMPDEST SWAP8 POP POP PUSH1 0x60 PUSH2 0x895 DUP12 DUP3 DUP13 ADD PUSH2 0x802 JUMP JUMPDEST SWAP7 POP POP PUSH1 0x80 PUSH2 0x8A6 DUP12 DUP3 DUP13 ADD PUSH2 0x7ED JUMP JUMPDEST SWAP6 POP POP PUSH1 0xA0 PUSH2 0x8B7 DUP12 DUP3 DUP13 ADD PUSH2 0x7ED JUMP JUMPDEST SWAP5 POP POP PUSH1 0xC0 DUP10 ADD CALLDATALOAD PUSH8 0xFFFFFFFFFFFFFFFF DUP2 GT ISZERO PUSH2 0x8D8 JUMPI PUSH2 0x8D7 PUSH2 0xE92 JUMP JUMPDEST JUMPDEST PUSH2 0x8E4 DUP12 DUP3 DUP13 ADD PUSH2 0x663 JUMP JUMPDEST SWAP4 POP POP PUSH1 0xE0 PUSH2 0x8F5 DUP12 DUP3 DUP13 ADD PUSH2 0x6E9 JUMP JUMPDEST SWAP3 POP POP PUSH2 0x140 PUSH2 0x907 DUP12 DUP3 DUP13 ADD PUSH2 0x79D JUMP JUMPDEST SWAP2 POP POP SWAP3 SWAP6 SWAP9 POP SWAP3 SWAP6 SWAP9 SWAP1 SWAP4 SWAP7 POP JUMP JUMPDEST PUSH1 0x0 PUSH2 0x923 DUP4 DUP4 PUSH2 0x9CD JUMP JUMPDEST SWAP1 POP SWAP3 SWAP2 POP POP JUMP JUMPDEST PUSH2 0x934 DUP2 PUSH2 0xD7C JUMP JUMPDEST DUP3 MSTORE POP POP JUMP JUMPDEST PUSH1 0x0 PUSH2 0x945 DUP3 PUSH2 0xD26 JUMP JUMPDEST PUSH2 0x94F DUP2 DUP6 PUSH2 0xD49 JUMP JUMPDEST SWAP4 POP DUP4 PUSH1 0x20 DUP3 MUL DUP6 ADD PUSH2 0x961 DUP6 PUSH2 0xD16 JUMP JUMPDEST DUP1 PUSH1 0x0 JUMPDEST DUP6 DUP2 LT ISZERO PUSH2 0x99D JUMPI DUP5 DUP5 SUB DUP10 MSTORE DUP2 MLOAD PUSH2 0x97E DUP6 DUP3 PUSH2 0x917 JUMP JUMPDEST SWAP5 POP PUSH2 0x989 DUP4 PUSH2 0xD3C JUMP JUMPDEST SWAP3 POP PUSH1 0x20 DUP11 ADD SWAP10 POP POP PUSH1 0x1 DUP2 ADD SWAP1 POP PUSH2 0x965 JUMP JUMPDEST POP DUP3 SWAP8 POP DUP8 SWAP6 POP POP POP POP POP POP SWAP3 SWAP2 POP POP JUMP JUMPDEST PUSH2 0x9B8 DUP2 PUSH2 0xD8E JUMP JUMPDEST DUP3 MSTORE POP POP JUMP JUMPDEST PUSH2 0x9C7 DUP2 PUSH2 0xD9A JUMP JUMPDEST DUP3 MSTORE POP POP JUMP JUMPDEST PUSH1 0x0 PUSH2 0x9D8 DUP3 PUSH2 0xD31 JUMP JUMPDEST PUSH2 0x9E2 DUP2 DUP6 PUSH2 0xD5A JUMP JUMPDEST SWAP4 POP PUSH2 0x9F2 DUP2 DUP6 PUSH1 0x20 DUP7 ADD PUSH2 0xDEB JUMP JUMPDEST PUSH2 0x9FB DUP2 PUSH2 0xE9C JUMP JUMPDEST DUP5 ADD SWAP2 POP POP SWAP3 SWAP2 POP POP JUMP JUMPDEST PUSH1 0x0 PUSH2 0xA13 PUSH1 0x26 DUP4 PUSH2 0xD6B JUMP JUMPDEST SWAP2 POP PUSH2 0xA1E DUP3 PUSH2 0xEAD JUMP JUMPDEST PUSH1 0x40 DUP3 ADD SWAP1 POP SWAP2 SWAP1 POP JUMP JUMPDEST PUSH1 0x0 PUSH2 0xA36 PUSH1 0x16 DUP4 PUSH2 0xD6B JUMP JUMPDEST SWAP2 POP PUSH2 0xA41 DUP3 PUSH2 0xEFC JUMP JUMPDEST PUSH1 0x20 DUP3 ADD SWAP1 POP SWAP2 SWAP1 POP JUMP JUMPDEST PUSH1 0x0 PUSH2 0xA59 PUSH1 0x20 DUP4 PUSH2 0xD6B JUMP JUMPDEST SWAP2 POP PUSH2 0xA64 DUP3 PUSH2 0xF25 JUMP JUMPDEST PUSH1 0x20 DUP3 ADD SWAP1 POP SWAP2 SWAP1 POP JUMP JUMPDEST PUSH1 0x60 DUP3 ADD PUSH1 0x0 DUP3 ADD MLOAD PUSH2 0xA85 PUSH1 0x0 DUP6 ADD DUP3 PUSH2 0x9AF JUMP JUMPDEST POP PUSH1 0x20 DUP3 ADD MLOAD PUSH2 0xA98 PUSH1 0x20 DUP6 ADD DUP3 PUSH2 0x9AF JUMP JUMPDEST POP PUSH1 0x40 DUP3 ADD MLOAD PUSH2 0xAAB PUSH1 0x40 DUP6 ADD DUP3 PUSH2 0x9AF JUMP JUMPDEST POP POP POP POP JUMP JUMPDEST PUSH1 0x40 DUP3 ADD PUSH1 0x0 DUP3 ADD MLOAD PUSH2 0xAC7 PUSH1 0x0 DUP6 ADD DUP3 PUSH2 0x9BE JUMP JUMPDEST POP PUSH1 0x20 DUP3 ADD MLOAD PUSH2 0xADA PUSH1 0x20 DUP6 ADD DUP3 PUSH2 0x9BE JUMP JUMPDEST POP POP POP POP JUMP JUMPDEST PUSH2 0xAE9 DUP2 PUSH2 0xDA4 JUMP JUMPDEST DUP3 MSTORE POP POP JUMP JUMPDEST PUSH2 0xAF8 DUP2 PUSH2 0xDD2 JUMP JUMPDEST DUP3 MSTORE POP POP JUMP JUMPDEST PUSH1 0x0 PUSH1 0x20 DUP3 ADD SWAP1 POP PUSH2 0xB13 PUSH1 0x0 DUP4 ADD DUP5 PUSH2 0x92B JUMP JUMPDEST SWAP3 SWAP2 POP POP JUMP JUMPDEST PUSH1 0x0 PUSH2 0x180 DUP3 ADD SWAP1 POP PUSH2 0xB2F PUSH1 0x0 DUP4 ADD DUP13 PUSH2 0x92B JUMP JUMPDEST PUSH2 0xB3C PUSH1 0x20 DUP4 ADD DUP12 PUSH2 0x92B JUMP JUMPDEST PUSH2 0xB49 PUSH1 0x40 DUP4 ADD DUP11 PUSH2 0x92B JUMP JUMPDEST PUSH2 0xB56 PUSH1 0x60 DUP4 ADD DUP10 PUSH2 0xAB1 JUMP JUMPDEST PUSH2 0xB63 PUSH1 0xA0 DUP4 ADD DUP9 PUSH2 0xAEF JUMP JUMPDEST PUSH2 0xB70 PUSH1 0xC0 DUP4 ADD DUP8 PUSH2 0xAE0 JUMP JUMPDEST PUSH2 0xB7D PUSH1 0xE0 DUP4 ADD DUP7 PUSH2 0xAE0 JUMP JUMPDEST DUP2 DUP2 SUB PUSH2 0x100 DUP4 ADD MSTORE PUSH2 0xB90 DUP2 DUP6 PUSH2 0x93A JUMP JUMPDEST SWAP1 POP PUSH2 0xBA0 PUSH2 0x120 DUP4 ADD DUP5 PUSH2 0xA6F JUMP JUMPDEST SWAP11 SWAP10 POP POP POP POP POP POP POP POP POP POP JUMP JUMPDEST PUSH1 0x0 PUSH2 0x160 DUP3 ADD SWAP1 POP PUSH2 0xBC4 PUSH1 0x0 DUP4 ADD DUP12 PUSH2 0x92B JUMP JUMPDEST PUSH2 0xBD1 PUSH1 0x20 DUP4 ADD DUP11 PUSH2 0x92B JUMP JUMPDEST PUSH2 0xBDE PUSH1 0x40 DUP4 ADD DUP10 PUSH2 0xAB1 JUMP JUMPDEST PUSH2 0xBEB PUSH1 0x80 DUP4 ADD DUP9 PUSH2 0xAEF JUMP JUMPDEST PUSH2 0xBF8 PUSH1 0xA0 DUP4 ADD DUP8 PUSH2 0xAE0 JUMP JUMPDEST PUSH2 0xC05 PUSH1 0xC0 DUP4 ADD DUP7 PUSH2 0xAE0 JUMP JUMPDEST DUP2 DUP2 SUB PUSH1 0xE0 DUP4 ADD MSTORE PUSH2 0xC17 DUP2 DUP6 PUSH2 0x93A JUMP JUMPDEST SWAP1 POP PUSH2 0xC27 PUSH2 0x100 DUP4 ADD DUP5 PUSH2 0xA6F JUMP JUMPDEST SWAP10 SWAP9 POP POP POP POP POP POP POP POP POP JUMP JUMPDEST PUSH1 0x0 PUSH1 0x20 DUP3 ADD SWAP1 POP DUP2 DUP2 SUB PUSH1 0x0 DUP4 ADD MSTORE PUSH2 0xC4D DUP2 PUSH2 0xA06 JUMP JUMPDEST SWAP1 POP SWAP2 SWAP1 POP JUMP JUMPDEST PUSH1 0x0 PUSH1 0x20 DUP3 ADD SWAP1 POP DUP2 DUP2 SUB PUSH1 0x0 DUP4 ADD MSTORE PUSH2 0xC6D DUP2 PUSH2 0xA29 JUMP JUMPDEST SWAP1 POP SWAP2 SWAP1 POP JUMP JUMPDEST PUSH1 0x0 PUSH1 0x20 DUP3 ADD SWAP1 POP DUP2 DUP2 SUB PUSH1 0x0 DUP4 ADD MSTORE PUSH2 0xC8D DUP2 PUSH2 0xA4C JUMP JUMPDEST SWAP1 POP SWAP2 SWAP1 POP JUMP JUMPDEST PUSH1 0x0 PUSH2 0xC9E PUSH2 0xCAF JUMP JUMPDEST SWAP1 POP PUSH2 0xCAA DUP3 DUP3 PUSH2 0xE1E JUMP JUMPDEST SWAP2 SWAP1 POP JUMP JUMPDEST PUSH1 0x0 PUSH1 0x40 MLOAD SWAP1 POP SWAP1 JUMP JUMPDEST PUSH1 0x0 PUSH8 0xFFFFFFFFFFFFFFFF DUP3 GT ISZERO PUSH2 0xCD4 JUMPI PUSH2 0xCD3 PUSH2 0xE4F JUMP JUMPDEST JUMPDEST PUSH1 0x20 DUP3 MUL SWAP1 POP PUSH1 0x20 DUP2 ADD SWAP1 POP SWAP2 SWAP1 POP JUMP JUMPDEST PUSH1 0x0 PUSH8 0xFFFFFFFFFFFFFFFF DUP3 GT ISZERO PUSH2 0xD00 JUMPI PUSH2 0xCFF PUSH2 0xE4F JUMP JUMPDEST JUMPDEST PUSH2 0xD09 DUP3 PUSH2 0xE9C JUMP JUMPDEST SWAP1 POP PUSH1 0x20 DUP2 ADD SWAP1 POP SWAP2 SWAP1 POP JUMP JUMPDEST PUSH1 0x0 DUP2 SWAP1 POP PUSH1 0x20 DUP3 ADD SWAP1 POP SWAP2 SWAP1 POP JUMP JUMPDEST PUSH1 0x0 DUP2 MLOAD SWAP1 POP SWAP2 SWAP1 POP JUMP JUMPDEST PUSH1 0x0 DUP2 MLOAD SWAP1 POP SWAP2 SWAP1 POP JUMP JUMPDEST PUSH1 0x0 PUSH1 0x20 DUP3 ADD SWAP1 POP SWAP2 SWAP1 POP JUMP JUMPDEST PUSH1 0x0 DUP3 DUP3 MSTORE PUSH1 0x20 DUP3 ADD SWAP1 POP SWAP3 SWAP2 POP POP JUMP JUMPDEST PUSH1 0x0 DUP3 DUP3 MSTORE PUSH1 0x20 DUP3 ADD SWAP1 POP SWAP3 SWAP2 POP POP JUMP JUMPDEST PUSH1 0x0 DUP3 DUP3 MSTORE PUSH1 0x20 DUP3 ADD SWAP1 POP SWAP3 SWAP2 POP POP JUMP JUMPDEST PUSH1 0x0 PUSH2 0xD87 DUP3 PUSH2 0xDB2 JUMP JUMPDEST SWAP1 POP SWAP2 SWAP1 POP JUMP JUMPDEST PUSH1 0x0 DUP2 ISZERO ISZERO SWAP1 POP SWAP2 SWAP1 POP JUMP JUMPDEST PUSH1 0x0 DUP2 SWAP1 POP SWAP2 SWAP1 POP JUMP JUMPDEST PUSH1 0x0 PUSH2 0xFFFF DUP3 AND SWAP1 POP SWAP2 SWAP1 POP JUMP JUMPDEST PUSH1 0x0 PUSH20 0xFFFFFFFFFFFFFFFFFFFFFFFFFFFFFFFFFFFFFFFF DUP3 AND SWAP1 POP SWAP2 SWAP1 POP JUMP JUMPDEST PUSH1 0x0 DUP2 SWAP1 POP SWAP2 SWAP1 POP JUMP JUMPDEST DUP3 DUP2 DUP4 CALLDATACOPY PUSH1 0x0 DUP4 DUP4 ADD MSTORE POP POP POP JUMP JUMPDEST PUSH1 0x0 JUMPDEST DUP4 DUP2 LT ISZERO PUSH2 0xE09 JUMPI DUP1 DUP3 ADD MLOAD DUP2 DUP5 ADD MSTORE PUSH1 0x20 DUP2 ADD SWAP1 POP PUSH2 0xDEE JUMP JUMPDEST DUP4 DUP2 GT ISZERO PUSH2 0xE18 JUMPI PUSH1 0x0 DUP5 DUP5 ADD MSTORE JUMPDEST POP POP POP POP JUMP JUMPDEST PUSH2 0xE27 DUP3 PUSH2 0xE9C JUMP JUMPDEST DUP2 ADD DUP2 DUP2 LT PUSH8 0xFFFFFFFFFFFFFFFF DUP3 GT OR ISZERO PUSH2 0xE46 JUMPI PUSH2 0xE45 PUSH2 0xE4F JUMP JUMPDEST JUMPDEST DUP1 PUSH1 0x40 MSTORE POP POP POP JUMP JUMPDEST PUSH32 0x4E487B7100000000000000000000000000000000000000000000000000000000 PUSH1 0x0 MSTORE PUSH1 0x41 PUSH1 0x4 MSTORE PUSH1 0x24 PUSH1 0x0 REVERT JUMPDEST PUSH1 0x0 DUP1 REVERT JUMPDEST PUSH1 0x0 DUP1 REVERT JUMPDEST PUSH1 0x0 DUP1 REVERT JUMPDEST PUSH1 0x0 DUP1 REVERT JUMPDEST PUSH1 0x0 DUP1 REVERT JUMPDEST PUSH1 0x0 DUP1 REVERT JUMPDEST PUSH1 0x0 PUSH1 0x1F NOT PUSH1 0x1F DUP4 ADD AND SWAP1 POP SWAP2 SWAP1 POP JUMP JUMPDEST PUSH32 0x4F776E61626C653A206E6577206F776E657220697320746865207A65726F2061 PUSH1 0x0 DUP3 ADD MSTORE PUSH32 0x6464726573730000000000000000000000000000000000000000000000000000 PUSH1 0x20 DUP3 ADD MSTORE POP JUMP JUMPDEST PUSH32 0x455243313136373A20637265617465206661696C656400000000000000000000 PUSH1 0x0 DUP3 ADD MSTORE POP JUMP JUMPDEST PUSH32 0x4F776E61626C653A2063616C6C6572206973206E6F7420746865206F776E6572 PUSH1 0x0 DUP3 ADD MSTORE POP JUMP JUMPDEST PUSH2 0xF57 DUP2 PUSH2 0xD7C JUMP JUMPDEST DUP2 EQ PUSH2 0xF62 JUMPI PUSH1 0x0 DUP1 REVERT JUMPDEST POP JUMP JUMPDEST PUSH2 0xF6E DUP2 PUSH2 0xD8E JUMP JUMPDEST DUP2 EQ PUSH2 0xF79 JUMPI PUSH1 0x0 DUP1 REVERT JUMPDEST POP JUMP JUMPDEST PUSH2 0xF85 DUP2 PUSH2 0xD9A JUMP JUMPDEST DUP2 EQ PUSH2 0xF90 JUMPI PUSH1 0x0 DUP1 REVERT JUMPDEST POP JUMP JUMPDEST PUSH2 0xF9C DUP2 PUSH2 0xDA4 JUMP JUMPDEST DUP2 EQ PUSH2 0xFA7 JUMPI PUSH1 0x0 DUP1 REVERT JUMPDEST POP JUMP JUMPDEST PUSH2 0xFB3 DUP2 PUSH2 0xDD2 JUMP JUMPDEST DUP2 EQ PUSH2 0xFBE JUMPI PUSH1 0x0 DUP1 REVERT JUMPDEST POP JUMP INVALID LOG2 PUSH5 0x6970667358 0x22 SLT KECCAK256 PUSH7 0x544853E58A77A 0xC8 CALL 0xB3 INVALID 0x2F 0xEF 0x22 SWAP12 ADD 0xEF 0xB0 0xBC SWAP16 0xFC CALLDATASIZE 0x25 PUSH16 0xE9193F33E08B464736F6C6343000806 STOP CALLER PUSH1 0x80 PUSH1 0x40 MSTORE CALLVALUE DUP1 ISZERO PUSH3 0x11 JUMPI PUSH1 0x0 DUP1 REVERT JUMPDEST POP PUSH3 0x47 PUSH32 0x72606200FAC42B7DC86B75901D61ECFAB2A4A1A6EDED478B97A428094891ABED PUSH1 0x0 DUP1 SHL PUSH3 0x143 PUSH1 0x20 SHL PUSH1 0x20 SHR JUMP JUMPDEST PUSH3 0x99 PUSH32 0x241ECF16D79D0F8DBFB92CBC07FE17840425976CF0667F022FE9877CAA831B08 PUSH32 0x72606200FAC42B7DC86B75901D61ECFAB2A4A1A6EDED478B97A428094891ABED PUSH3 0x143 PUSH1 0x20 SHL PUSH1 0x20 SHR JUMP JUMPDEST PUSH3 0xEB PUSH32 0xAF1DAC7DEA2FD7F7738119CEC7DF099DFAD49AA9D2E7D17BA6B60F63AE7411F PUSH32 0x72606200FAC42B7DC86B75901D61ECFAB2A4A1A6EDED478B97A428094891ABED PUSH3 0x143 PUSH1 0x20 SHL PUSH1 0x20 SHR JUMP JUMPDEST PUSH3 0x13D PUSH32 0xAF31C50B4AAB7AF0193B792816047837F36C88A23BBB4D0E3581C88CB4BF86AB PUSH32 0x72606200FAC42B7DC86B75901D61ECFAB2A4A1A6EDED478B97A428094891ABED PUSH3 0x143 PUSH1 0x20 SHL PUSH1 0x20 SHR JUMP JUMPDEST PUSH3 0x1C5 JUMP JUMPDEST PUSH1 0x0 PUSH3 0x156 DUP4 PUSH3 0x1A6 PUSH1 0x20 SHL PUSH1 0x20 SHR JUMP JUMPDEST SWAP1 POP DUP2 PUSH1 0x0 DUP1 DUP6 DUP2 MSTORE PUSH1 0x20 ADD SWAP1 DUP2 MSTORE PUSH1 0x20 ADD PUSH1 0x0 KECCAK256 PUSH1 0x1 ADD DUP2 SWAP1 SSTORE POP DUP2 DUP2 DUP5 PUSH32 0xBD79B86FFE0AB8E8776151514217CD7CACD52C909F66475C3AF44E129F0B00FF PUSH1 0x40 MLOAD PUSH1 0x40 MLOAD DUP1 SWAP2 SUB SWAP1 LOG4 POP POP POP JUMP JUMPDEST PUSH1 0x0 DUP1 PUSH1 0x0 DUP4 DUP2 MSTORE PUSH1 0x20 ADD SWAP1 DUP2 MSTORE PUSH1 0x20 ADD PUSH1 0x0 KECCAK256 PUSH1 0x1 ADD SLOAD SWAP1 POP SWAP2 SWAP1 POP JUMP JUMPDEST PUSH2 0x32DF DUP1 PUSH3 0x1D5 PUSH1 0x0 CODECOPY PUSH1 0x0 RETURN INVALID PUSH1 0x80 PUSH1 0x40 MSTORE CALLVALUE DUP1 ISZERO PUSH2 0x10 JUMPI PUSH1 0x0 DUP1 REVERT JUMPDEST POP PUSH1 0x4 CALLDATASIZE LT PUSH2 0x173 JUMPI PUSH1 0x0 CALLDATALOAD PUSH1 0xE0 SHR DUP1 PUSH4 0x602792B0 GT PUSH2 0xDE JUMPI DUP1 PUSH4 0xA217FDDF GT PUSH2 0x97 JUMPI DUP1 PUSH4 0xD547741F GT PUSH2 0x71 JUMPI DUP1 PUSH4 0xD547741F EQ PUSH2 0x3F2 JUMPI DUP1 PUSH4 0xE3A5A4DE EQ PUSH2 0x40E JUMPI DUP1 PUSH4 0xEC87621C EQ PUSH2 0x42A JUMPI DUP1 PUSH4 0xFEC331F2 EQ PUSH2 0x448 JUMPI PUSH2 0x173 JUMP JUMPDEST DUP1 PUSH4 0xA217FDDF EQ PUSH2 0x39A JUMPI DUP1 PUSH4 0xAC5CB97D EQ PUSH2 0x3B8 JUMPI DUP1 PUSH4 0xD294FFE0 EQ PUSH2 0x3D6 JUMPI PUSH2 0x173 JUMP JUMPDEST DUP1 PUSH4 0x602792B0 EQ PUSH2 0x2DA JUMPI DUP1 PUSH4 0x85E3FCAB EQ PUSH2 0x2E4 JUMPI DUP1 PUSH4 0x85E68531 EQ PUSH2 0x314 JUMPI DUP1 PUSH4 0x91D14854 EQ PUSH2 0x330 JUMPI DUP1 PUSH4 0x9ACA66F8 EQ PUSH2 0x360 JUMPI DUP1 PUSH4 0x9F0A5C15 EQ PUSH2 0x37C JUMPI PUSH2 0x173 JUMP JUMPDEST DUP1 PUSH4 0x2B8CC346 GT PUSH2 0x130 JUMPI DUP1 PUSH4 0x2B8CC346 EQ PUSH2 0x238 JUMPI DUP1 PUSH4 0x2F2FF15D EQ PUSH2 0x254 JUMPI DUP1 PUSH4 0x36568ABE EQ PUSH2 0x270 JUMPI DUP1 PUSH4 0x51E66EFB EQ PUSH2 0x28C JUMPI DUP1 PUSH4 0x5962B430 EQ PUSH2 0x2A8 JUMPI DUP1 PUSH4 0x5A9B0B89 EQ PUSH2 0x2B2 JUMPI PUSH2 0x173 JUMP JUMPDEST DUP1 PUSH4 0x1FFC9A7 EQ PUSH2 0x178 JUMPI DUP1 PUSH4 0x444670C EQ PUSH2 0x1A8 JUMPI DUP1 PUSH4 0x80121DA EQ PUSH2 0x1C4 JUMPI DUP1 PUSH4 0xC9A8ECF EQ PUSH2 0x1E2 JUMPI DUP1 PUSH4 0x2372F9C2 EQ PUSH2 0x1EC JUMPI DUP1 PUSH4 0x248A9CA3 EQ PUSH2 0x208 JUMPI JUMPDEST PUSH1 0x0 DUP1 REVERT JUMPDEST PUSH2 0x192 PUSH1 0x4 DUP1 CALLDATASIZE SUB DUP2 ADD SWAP1 PUSH2 0x18D SWAP2 SWAP1 PUSH2 0x2539 JUMP JUMPDEST PUSH2 0x466 JUMP JUMPDEST PUSH1 0x40 MLOAD PUSH2 0x19F SWAP2 SWAP1 PUSH2 0x2930 JUMP JUMPDEST PUSH1 0x40 MLOAD DUP1 SWAP2 SUB SWAP1 RETURN JUMPDEST PUSH2 0x1C2 PUSH1 0x4 DUP1 CALLDATASIZE SUB DUP2 ADD SWAP1 PUSH2 0x1BD SWAP2 SWAP1 PUSH2 0x2312 JUMP JUMPDEST PUSH2 0x4E0 JUMP JUMPDEST STOP JUMPDEST PUSH2 0x1CC PUSH2 0x7B9 JUMP JUMPDEST PUSH1 0x40 MLOAD PUSH2 0x1D9 SWAP2 SWAP1 PUSH2 0x294B JUMP JUMPDEST PUSH1 0x40 MLOAD DUP1 SWAP2 SUB SWAP1 RETURN JUMPDEST PUSH2 0x1EA PUSH2 0x7DD JUMP JUMPDEST STOP JUMPDEST PUSH2 0x206 PUSH1 0x4 DUP1 CALLDATASIZE SUB DUP2 ADD SWAP1 PUSH2 0x201 SWAP2 SWAP1 PUSH2 0x23F9 JUMP JUMPDEST PUSH2 0x879 JUMP JUMPDEST STOP JUMPDEST PUSH2 0x222 PUSH1 0x4 DUP1 CALLDATASIZE SUB DUP2 ADD SWAP1 PUSH2 0x21D SWAP2 SWAP1 PUSH2 0x24CC JUMP JUMPDEST PUSH2 0xB27 JUMP JUMPDEST PUSH1 0x40 MLOAD PUSH2 0x22F SWAP2 SWAP1 PUSH2 0x294B JUMP JUMPDEST PUSH1 0x40 MLOAD DUP1 SWAP2 SUB SWAP1 RETURN JUMPDEST PUSH2 0x252 PUSH1 0x4 DUP1 CALLDATASIZE SUB DUP2 ADD SWAP1 PUSH2 0x24D SWAP2 SWAP1 PUSH2 0x22E5 JUMP JUMPDEST PUSH2 0xB46 JUMP JUMPDEST STOP JUMPDEST PUSH2 0x26E PUSH1 0x4 DUP1 CALLDATASIZE SUB DUP2 ADD SWAP1 PUSH2 0x269 SWAP2 SWAP1 PUSH2 0x24F9 JUMP JUMPDEST PUSH2 0xD5C JUMP JUMPDEST STOP JUMPDEST PUSH2 0x28A PUSH1 0x4 DUP1 CALLDATASIZE SUB DUP2 ADD SWAP1 PUSH2 0x285 SWAP2 SWAP1 PUSH2 0x24F9 JUMP JUMPDEST PUSH2 0xD7D JUMP JUMPDEST STOP JUMPDEST PUSH2 0x2A6 PUSH1 0x4 DUP1 CALLDATASIZE SUB DUP2 ADD SWAP1 PUSH2 0x2A1 SWAP2 SWAP1 PUSH2 0x22E5 JUMP JUMPDEST PUSH2 0xE00 JUMP JUMPDEST STOP JUMPDEST PUSH2 0x2B0 PUSH2 0xF19 JUMP JUMPDEST STOP JUMPDEST PUSH2 0x2BA PUSH2 0xF84 JUMP JUMPDEST PUSH1 0x40 MLOAD PUSH2 0x2D1 SWAP12 SWAP11 SWAP10 SWAP9 SWAP8 SWAP7 SWAP6 SWAP5 SWAP4 SWAP3 SWAP2 SWAP1 PUSH2 0x2966 JUMP JUMPDEST PUSH1 0x40 MLOAD DUP1 SWAP2 SUB SWAP1 RETURN JUMPDEST PUSH2 0x2E2 PUSH2 0x1206 JUMP JUMPDEST STOP JUMPDEST PUSH2 0x2FE PUSH1 0x4 DUP1 CALLDATASIZE SUB DUP2 ADD SWAP1 PUSH2 0x2F9 SWAP2 SWAP1 PUSH2 0x22E5 JUMP JUMPDEST PUSH2 0x1304 JUMP JUMPDEST PUSH1 0x40 MLOAD PUSH2 0x30B SWAP2 SWAP1 PUSH2 0x2930 JUMP JUMPDEST PUSH1 0x40 MLOAD DUP1 SWAP2 SUB SWAP1 RETURN JUMPDEST PUSH2 0x32E PUSH1 0x4 DUP1 CALLDATASIZE SUB DUP2 ADD SWAP1 PUSH2 0x329 SWAP2 SWAP1 PUSH2 0x22E5 JUMP JUMPDEST PUSH2 0x1337 JUMP JUMPDEST STOP JUMPDEST PUSH2 0x34A PUSH1 0x4 DUP1 CALLDATASIZE SUB DUP2 ADD SWAP1 PUSH2 0x345 SWAP2 SWAP1 PUSH2 0x24F9 JUMP JUMPDEST PUSH2 0x1450 JUMP JUMPDEST PUSH1 0x40 MLOAD PUSH2 0x357 SWAP2 SWAP1 PUSH2 0x2930 JUMP JUMPDEST PUSH1 0x40 MLOAD DUP1 SWAP2 SUB SWAP1 RETURN JUMPDEST PUSH2 0x37A PUSH1 0x4 DUP1 CALLDATASIZE SUB DUP2 ADD SWAP1 PUSH2 0x375 SWAP2 SWAP1 PUSH2 0x22E5 JUMP JUMPDEST PUSH2 0x14BA JUMP JUMPDEST STOP JUMPDEST PUSH2 0x384 PUSH2 0x1605 JUMP JUMPDEST PUSH1 0x40 MLOAD PUSH2 0x391 SWAP2 SWAP1 PUSH2 0x290E JUMP JUMPDEST PUSH1 0x40 MLOAD DUP1 SWAP2 SUB SWAP1 RETURN JUMPDEST PUSH2 0x3A2 PUSH2 0x169B JUMP JUMPDEST PUSH1 0x40 MLOAD PUSH2 0x3AF SWAP2 SWAP1 PUSH2 0x294B JUMP JUMPDEST PUSH1 0x40 MLOAD DUP1 SWAP2 SUB SWAP1 RETURN JUMPDEST PUSH2 0x3C0 PUSH2 0x16A2 JUMP JUMPDEST PUSH1 0x40 MLOAD PUSH2 0x3CD SWAP2 SWAP1 PUSH2 0x294B JUMP JUMPDEST PUSH1 0x40 MLOAD DUP1 SWAP2 SUB SWAP1 RETURN JUMPDEST PUSH2 0x3F0 PUSH1 0x4 DUP1 CALLDATASIZE SUB DUP2 ADD SWAP1 PUSH2 0x3EB SWAP2 SWAP1 PUSH2 0x22E5 JUMP JUMPDEST PUSH2 0x16C6 JUMP JUMPDEST STOP JUMPDEST PUSH2 0x40C PUSH1 0x4 DUP1 CALLDATASIZE SUB DUP2 ADD SWAP1 PUSH2 0x407 SWAP2 SWAP1 PUSH2 0x24F9 JUMP JUMPDEST PUSH2 0x1734 JUMP JUMPDEST STOP JUMPDEST PUSH2 0x428 PUSH1 0x4 DUP1 CALLDATASIZE SUB DUP2 ADD SWAP1 PUSH2 0x423 SWAP2 SWAP1 PUSH2 0x22E5 JUMP JUMPDEST PUSH2 0x1755 JUMP JUMPDEST STOP JUMPDEST PUSH2 0x432 PUSH2 0x18A0 JUMP JUMPDEST PUSH1 0x40 MLOAD PUSH2 0x43F SWAP2 SWAP1 PUSH2 0x294B JUMP JUMPDEST PUSH1 0x40 MLOAD DUP1 SWAP2 SUB SWAP1 RETURN JUMPDEST PUSH2 0x450 PUSH2 0x18C4 JUMP JUMPDEST PUSH1 0x40 MLOAD PUSH2 0x45D SWAP2 SWAP1 PUSH2 0x294B JUMP JUMPDEST PUSH1 0x40 MLOAD DUP1 SWAP2 SUB SWAP1 RETURN JUMPDEST PUSH1 0x0 PUSH32 0x7965DB0B00000000000000000000000000000000000000000000000000000000 PUSH28 0xFFFFFFFFFFFFFFFFFFFFFFFFFFFFFFFFFFFFFFFFFFFFFFFFFFFFFFFF NOT AND DUP3 PUSH28 0xFFFFFFFFFFFFFFFFFFFFFFFFFFFFFFFFFFFFFFFFFFFFFFFFFFFFFFFF NOT AND EQ DUP1 PUSH2 0x4D9 JUMPI POP PUSH2 0x4D8 DUP3 PUSH2 0x18E8 JUMP JUMPDEST JUMPDEST SWAP1 POP SWAP2 SWAP1 POP JUMP JUMPDEST PUSH1 0x0 ISZERO ISZERO PUSH1 0x4 PUSH1 0x7 SWAP1 SLOAD SWAP1 PUSH2 0x100 EXP SWAP1 DIV PUSH1 0xFF AND ISZERO ISZERO EQ PUSH2 0x536 JUMPI PUSH1 0x40 MLOAD PUSH32 0x8C379A000000000000000000000000000000000000000000000000000000000 DUP2 MSTORE PUSH1 0x4 ADD PUSH2 0x52D SWAP1 PUSH2 0x2B28 JUMP JUMPDEST PUSH1 0x40 MLOAD DUP1 SWAP2 SUB SWAP1 REVERT JUMPDEST PUSH2 0x563 PUSH32 0x72606200FAC42B7DC86B75901D61ECFAB2A4A1A6EDED478B97A428094891ABED PUSH1 0x0 DUP1 SHL PUSH2 0x1952 JUMP JUMPDEST PUSH2 0x5AD PUSH32 0x241ECF16D79D0F8DBFB92CBC07FE17840425976CF0667F022FE9877CAA831B08 PUSH32 0x72606200FAC42B7DC86B75901D61ECFAB2A4A1A6EDED478B97A428094891ABED PUSH2 0x1952 JUMP JUMPDEST PUSH2 0x5F7 PUSH32 0xAF1DAC7DEA2FD7F7738119CEC7DF099DFAD49AA9D2E7D17BA6B60F63AE7411F PUSH32 0x72606200FAC42B7DC86B75901D61ECFAB2A4A1A6EDED478B97A428094891ABED PUSH2 0x1952 JUMP JUMPDEST PUSH2 0x641 PUSH32 0xAF31C50B4AAB7AF0193B792816047837F36C88A23BBB4D0E3581C88CB4BF86AB PUSH32 0x72606200FAC42B7DC86B75901D61ECFAB2A4A1A6EDED478B97A428094891ABED PUSH2 0x1952 JUMP JUMPDEST PUSH2 0x64E PUSH1 0x0 DUP1 SHL DUP10 PUSH2 0x19AD JUMP JUMPDEST PUSH2 0x678 PUSH32 0x72606200FAC42B7DC86B75901D61ECFAB2A4A1A6EDED478B97A428094891ABED DUP10 PUSH2 0x19AD JUMP JUMPDEST PUSH2 0x6A2 PUSH32 0x241ECF16D79D0F8DBFB92CBC07FE17840425976CF0667F022FE9877CAA831B08 DUP11 PUSH2 0x19AD JUMP JUMPDEST PUSH2 0x6CC PUSH32 0xAF31C50B4AAB7AF0193B792816047837F36C88A23BBB4D0E3581C88CB4BF86AB DUP9 PUSH2 0x19AD JUMP JUMPDEST DUP6 PUSH1 0x0 ADD MLOAD PUSH1 0x1 DUP2 SWAP1 SSTORE POP DUP6 PUSH1 0x20 ADD MLOAD PUSH1 0x2 DUP2 SWAP1 SSTORE POP DUP5 PUSH1 0x3 DUP2 SWAP1 SSTORE POP DUP4 PUSH1 0x4 PUSH1 0x0 PUSH2 0x100 EXP DUP2 SLOAD DUP2 PUSH2 0xFFFF MUL NOT AND SWAP1 DUP4 PUSH2 0xFFFF AND MUL OR SWAP1 SSTORE POP DUP3 PUSH1 0x4 PUSH1 0x2 PUSH2 0x100 EXP DUP2 SLOAD DUP2 PUSH2 0xFFFF MUL NOT AND SWAP1 DUP4 PUSH2 0xFFFF AND MUL OR SWAP1 SSTORE POP DUP2 PUSH1 0x5 SWAP1 DUP1 MLOAD SWAP1 PUSH1 0x20 ADD SWAP1 PUSH2 0x739 SWAP3 SWAP2 SWAP1 PUSH2 0x1F20 JUMP JUMPDEST POP DUP1 PUSH1 0x0 ADD MLOAD PUSH1 0x4 DUP1 PUSH2 0x100 EXP DUP2 SLOAD DUP2 PUSH1 0xFF MUL NOT AND SWAP1 DUP4 ISZERO ISZERO MUL OR SWAP1 SSTORE POP DUP1 PUSH1 0x20 ADD MLOAD PUSH1 0x4 PUSH1 0x5 PUSH2 0x100 EXP DUP2 SLOAD DUP2 PUSH1 0xFF MUL NOT AND SWAP1 DUP4 ISZERO ISZERO MUL OR SWAP1 SSTORE POP DUP1 PUSH1 0x40 ADD MLOAD PUSH1 0x4 PUSH1 0x6 PUSH2 0x100 EXP DUP2 SLOAD DUP2 PUSH1 0xFF MUL NOT AND SWAP1 DUP4 ISZERO ISZERO MUL OR SWAP1 SSTORE POP PUSH1 0x1 PUSH1 0x4 PUSH1 0x7 PUSH2 0x100 EXP DUP2 SLOAD DUP2 PUSH1 0xFF MUL NOT AND SWAP1 DUP4 ISZERO ISZERO MUL OR SWAP1 SSTORE POP POP POP POP POP POP POP POP POP POP JUMP JUMPDEST PUSH32 0xAF31C50B4AAB7AF0193B792816047837F36C88A23BBB4D0E3581C88CB4BF86AB DUP2 JUMP JUMPDEST PUSH2 0x807 PUSH32 0xAF1DAC7DEA2FD7F7738119CEC7DF099DFAD49AA9D2E7D17BA6B60F63AE7411F CALLER PUSH2 0x1450 JUMP JUMPDEST DUP1 PUSH2 0x838 JUMPI POP PUSH2 0x837 PUSH32 0x72606200FAC42B7DC86B75901D61ECFAB2A4A1A6EDED478B97A428094891ABED CALLER PUSH2 0x1450 JUMP JUMPDEST JUMPDEST PUSH2 0x877 JUMPI PUSH1 0x40 MLOAD PUSH32 0x8C379A000000000000000000000000000000000000000000000000000000000 DUP2 MSTORE PUSH1 0x4 ADD PUSH2 0x86E SWAP1 PUSH2 0x2AA8 JUMP JUMPDEST PUSH1 0x40 MLOAD DUP1 SWAP2 SUB SWAP1 REVERT JUMPDEST JUMP JUMPDEST PUSH1 0x0 ISZERO ISZERO PUSH1 0x4 PUSH1 0x7 SWAP1 SLOAD SWAP1 PUSH2 0x100 EXP SWAP1 DIV PUSH1 0xFF AND ISZERO ISZERO EQ PUSH2 0x8CF JUMPI PUSH1 0x40 MLOAD PUSH32 0x8C379A000000000000000000000000000000000000000000000000000000000 DUP2 MSTORE PUSH1 0x4 ADD PUSH2 0x8C6 SWAP1 PUSH2 0x2B28 JUMP JUMPDEST PUSH1 0x40 MLOAD DUP1 SWAP2 SUB SWAP1 REVERT JUMPDEST PUSH2 0x8FC PUSH32 0x72606200FAC42B7DC86B75901D61ECFAB2A4A1A6EDED478B97A428094891ABED PUSH1 0x0 DUP1 SHL PUSH2 0x1952 JUMP JUMPDEST PUSH2 0x946 PUSH32 0x241ECF16D79D0F8DBFB92CBC07FE17840425976CF0667F022FE9877CAA831B08 PUSH32 0x72606200FAC42B7DC86B75901D61ECFAB2A4A1A6EDED478B97A428094891ABED PUSH2 0x1952 JUMP JUMPDEST PUSH2 0x990 PUSH32 0xAF1DAC7DEA2FD7F7738119CEC7DF099DFAD49AA9D2E7D17BA6B60F63AE7411F PUSH32 0x72606200FAC42B7DC86B75901D61ECFAB2A4A1A6EDED478B97A428094891ABED PUSH2 0x1952 JUMP JUMPDEST PUSH2 0x9DA PUSH32 0xAF31C50B4AAB7AF0193B792816047837F36C88A23BBB4D0E3581C88CB4BF86AB PUSH32 0x72606200FAC42B7DC86B75901D61ECFAB2A4A1A6EDED478B97A428094891ABED PUSH2 0x1952 JUMP JUMPDEST PUSH2 0x9E7 PUSH1 0x0 DUP1 SHL DUP9 PUSH2 0x19AD JUMP JUMPDEST PUSH2 0xA11 PUSH32 0x72606200FAC42B7DC86B75901D61ECFAB2A4A1A6EDED478B97A428094891ABED DUP9 PUSH2 0x19AD JUMP JUMPDEST PUSH2 0xA3B PUSH32 0x241ECF16D79D0F8DBFB92CBC07FE17840425976CF0667F022FE9877CAA831B08 DUP10 PUSH2 0x19AD JUMP JUMPDEST DUP6 PUSH1 0x0 ADD MLOAD PUSH1 0x1 DUP2 SWAP1 SSTORE POP DUP6 PUSH1 0x20 ADD MLOAD PUSH1 0x2 DUP2 SWAP1 SSTORE POP DUP5 PUSH1 0x3 DUP2 SWAP1 SSTORE POP DUP4 PUSH1 0x4 PUSH1 0x0 PUSH2 0x100 EXP DUP2 SLOAD DUP2 PUSH2 0xFFFF MUL NOT AND SWAP1 DUP4 PUSH2 0xFFFF AND MUL OR SWAP1 SSTORE POP DUP3 PUSH1 0x4 PUSH1 0x2 PUSH2 0x100 EXP DUP2 SLOAD DUP2 PUSH2 0xFFFF MUL NOT AND SWAP1 DUP4 PUSH2 0xFFFF AND MUL OR SWAP1 SSTORE POP DUP2 PUSH1 0x5 SWAP1 DUP1 MLOAD SWAP1 PUSH1 0x20 ADD SWAP1 PUSH2 0xAA8 SWAP3 SWAP2 SWAP1 PUSH2 0x1F20 JUMP JUMPDEST POP DUP1 PUSH1 0x0 ADD MLOAD PUSH1 0x4 DUP1 PUSH2 0x100 EXP DUP2 SLOAD DUP2 PUSH1 0xFF MUL NOT AND SWAP1 DUP4 ISZERO ISZERO MUL OR SWAP1 SSTORE POP DUP1 PUSH1 0x20 ADD MLOAD PUSH1 0x4 PUSH1 0x5 PUSH2 0x100 EXP DUP2 SLOAD DUP2 PUSH1 0xFF MUL NOT AND SWAP1 DUP4 ISZERO ISZERO MUL OR SWAP1 SSTORE POP DUP1 PUSH1 0x40 ADD MLOAD PUSH1 0x4 PUSH1 0x6 PUSH2 0x100 EXP DUP2 SLOAD DUP2 PUSH1 0xFF MUL NOT AND SWAP1 DUP4 ISZERO ISZERO MUL OR SWAP1 SSTORE POP PUSH1 0x1 PUSH1 0x4 PUSH1 0x7 PUSH2 0x100 EXP DUP2 SLOAD DUP2 PUSH1 0xFF MUL NOT AND SWAP1 DUP4 ISZERO ISZERO MUL OR SWAP1 SSTORE POP POP POP POP POP POP POP POP POP JUMP JUMPDEST PUSH1 0x0 DUP1 PUSH1 0x0 DUP4 DUP2 MSTORE PUSH1 0x20 ADD SWAP1 DUP2 MSTORE PUSH1 0x20 ADD PUSH1 0x0 KECCAK256 PUSH1 0x1 ADD SLOAD SWAP1 POP SWAP2 SWAP1 POP JUMP JUMPDEST PUSH2 0xB4E PUSH2 0xF19 JUMP JUMPDEST PUSH1 0x0 DUP1 PUSH1 0x0 JUMPDEST PUSH1 0x7 DUP1 SLOAD SWAP1 POP DUP2 LT ISZERO PUSH2 0xBF2 JUMPI DUP4 PUSH20 0xFFFFFFFFFFFFFFFFFFFFFFFFFFFFFFFFFFFFFFFF AND PUSH1 0x7 DUP3 DUP2 SLOAD DUP2 LT PUSH2 0xB8C JUMPI PUSH2 0xB8B PUSH2 0x2FA9 JUMP JUMPDEST JUMPDEST SWAP1 PUSH1 0x0 MSTORE PUSH1 0x20 PUSH1 0x0 KECCAK256 ADD PUSH1 0x0 SWAP1 SLOAD SWAP1 PUSH2 0x100 EXP SWAP1 DIV PUSH20 0xFFFFFFFFFFFFFFFFFFFFFFFFFFFFFFFFFFFFFFFF AND PUSH20 0xFFFFFFFFFFFFFFFFFFFFFFFFFFFFFFFFFFFFFFFF AND EQ ISZERO PUSH2 0xBDF JUMPI PUSH1 0x1 SWAP3 POP DUP1 SWAP2 POP PUSH2 0xBF2 JUMP JUMPDEST DUP1 DUP1 PUSH2 0xBEA SWAP1 PUSH2 0x2ED3 JUMP JUMPDEST SWAP2 POP POP PUSH2 0xB54 JUMP JUMPDEST POP PUSH1 0x1 ISZERO ISZERO DUP3 ISZERO ISZERO EQ PUSH2 0xC3A JUMPI PUSH1 0x40 MLOAD PUSH32 0x8C379A000000000000000000000000000000000000000000000000000000000 DUP2 MSTORE PUSH1 0x4 ADD PUSH2 0xC31 SWAP1 PUSH2 0x2A68 JUMP JUMPDEST PUSH1 0x40 MLOAD DUP1 SWAP2 SUB SWAP1 REVERT JUMPDEST PUSH2 0xC64 PUSH32 0xAF1DAC7DEA2FD7F7738119CEC7DF099DFAD49AA9D2E7D17BA6B60F63AE7411F DUP5 PUSH2 0xD5C JUMP JUMPDEST PUSH1 0x7 PUSH1 0x1 PUSH1 0x7 DUP1 SLOAD SWAP1 POP PUSH2 0xC78 SWAP2 SWAP1 PUSH2 0x2D44 JUMP JUMPDEST DUP2 SLOAD DUP2 LT PUSH2 0xC89 JUMPI PUSH2 0xC88 PUSH2 0x2FA9 JUMP JUMPDEST JUMPDEST SWAP1 PUSH1 0x0 MSTORE PUSH1 0x20 PUSH1 0x0 KECCAK256 ADD PUSH1 0x0 SWAP1 SLOAD SWAP1 PUSH2 0x100 EXP SWAP1 DIV PUSH20 0xFFFFFFFFFFFFFFFFFFFFFFFFFFFFFFFFFFFFFFFF AND PUSH1 0x7 DUP3 DUP2 SLOAD DUP2 LT PUSH2 0xCC8 JUMPI PUSH2 0xCC7 PUSH2 0x2FA9 JUMP JUMPDEST JUMPDEST SWAP1 PUSH1 0x0 MSTORE PUSH1 0x20 PUSH1 0x0 KECCAK256 ADD PUSH1 0x0 PUSH2 0x100 EXP DUP2 SLOAD DUP2 PUSH20 0xFFFFFFFFFFFFFFFFFFFFFFFFFFFFFFFFFFFFFFFF MUL NOT AND SWAP1 DUP4 PUSH20 0xFFFFFFFFFFFFFFFFFFFFFFFFFFFFFFFFFFFFFFFF AND MUL OR SWAP1 SSTORE POP PUSH1 0x7 DUP1 SLOAD DUP1 PUSH2 0xD22 JUMPI PUSH2 0xD21 PUSH2 0x2F7A JUMP JUMPDEST JUMPDEST PUSH1 0x1 SWAP1 SUB DUP2 DUP2 SWAP1 PUSH1 0x0 MSTORE PUSH1 0x20 PUSH1 0x0 KECCAK256 ADD PUSH1 0x0 PUSH2 0x100 EXP DUP2 SLOAD SWAP1 PUSH20 0xFFFFFFFFFFFFFFFFFFFFFFFFFFFFFFFFFFFFFFFF MUL NOT AND SWAP1 SSTORE SWAP1 SSTORE POP POP POP JUMP JUMPDEST PUSH2 0xD65 DUP3 PUSH2 0xB27 JUMP JUMPDEST PUSH2 0xD6E DUP2 PUSH2 0x19BB JUMP JUMPDEST PUSH2 0xD78 DUP4 DUP4 PUSH2 0x19CF JUMP JUMPDEST POP POP POP JUMP JUMPDEST PUSH2 0xD85 PUSH2 0x1AAF JUMP JUMPDEST PUSH20 0xFFFFFFFFFFFFFFFFFFFFFFFFFFFFFFFFFFFFFFFF AND DUP2 PUSH20 0xFFFFFFFFFFFFFFFFFFFFFFFFFFFFFFFFFFFFFFFF AND EQ PUSH2 0xDF2 JUMPI PUSH1 0x40 MLOAD PUSH32 0x8C379A000000000000000000000000000000000000000000000000000000000 DUP2 MSTORE PUSH1 0x4 ADD PUSH2 0xDE9 SWAP1 PUSH2 0x2B48 JUMP JUMPDEST PUSH1 0x40 MLOAD DUP1 SWAP2 SUB SWAP1 REVERT JUMPDEST PUSH2 0xDFC DUP3 DUP3 PUSH2 0x1AB7 JUMP JUMPDEST POP POP JUMP JUMPDEST PUSH2 0xE08 PUSH2 0x1206 JUMP JUMPDEST PUSH1 0x0 PUSH2 0xE13 DUP3 PUSH2 0x1B98 JUMP JUMPDEST SWAP1 POP PUSH1 0x6 DUP1 SLOAD SWAP1 POP DUP2 EQ PUSH2 0xF15 JUMPI PUSH1 0x6 PUSH1 0x1 PUSH1 0x6 DUP1 SLOAD SWAP1 POP PUSH2 0xE35 SWAP2 SWAP1 PUSH2 0x2D44 JUMP JUMPDEST DUP2 SLOAD DUP2 LT PUSH2 0xE46 JUMPI PUSH2 0xE45 PUSH2 0x2FA9 JUMP JUMPDEST JUMPDEST SWAP1 PUSH1 0x0 MSTORE PUSH1 0x20 PUSH1 0x0 KECCAK256 ADD PUSH1 0x0 SWAP1 SLOAD SWAP1 PUSH2 0x100 EXP SWAP1 DIV PUSH20 0xFFFFFFFFFFFFFFFFFFFFFFFFFFFFFFFFFFFFFFFF AND PUSH1 0x6 DUP3 DUP2 SLOAD DUP2 LT PUSH2 0xE85 JUMPI PUSH2 0xE84 PUSH2 0x2FA9 JUMP JUMPDEST JUMPDEST SWAP1 PUSH1 0x0 MSTORE PUSH1 0x20 PUSH1 0x0 KECCAK256 ADD PUSH1 0x0 PUSH2 0x100 EXP DUP2 SLOAD DUP2 PUSH20 0xFFFFFFFFFFFFFFFFFFFFFFFFFFFFFFFFFFFFFFFF MUL NOT AND SWAP1 DUP4 PUSH20 0xFFFFFFFFFFFFFFFFFFFFFFFFFFFFFFFFFFFFFFFF AND MUL OR SWAP1 SSTORE POP PUSH1 0x6 DUP1 SLOAD DUP1 PUSH2 0xEDF JUMPI PUSH2 0xEDE PUSH2 0x2F7A JUMP JUMPDEST JUMPDEST PUSH1 0x1 SWAP1 SUB DUP2 DUP2 SWAP1 PUSH1 0x0 MSTORE PUSH1 0x20 PUSH1 0x0 KECCAK256 ADD PUSH1 0x0 PUSH2 0x100 EXP DUP2 SLOAD SWAP1 PUSH20 0xFFFFFFFFFFFFFFFFFFFFFFFFFFFFFFFFFFFFFFFF MUL NOT AND SWAP1 SSTORE SWAP1 SSTORE JUMPDEST POP POP JUMP JUMPDEST PUSH2 0xF43 PUSH32 0x72606200FAC42B7DC86B75901D61ECFAB2A4A1A6EDED478B97A428094891ABED CALLER PUSH2 0x1450 JUMP JUMPDEST PUSH2 0xF82 JUMPI PUSH1 0x40 MLOAD PUSH32 0x8C379A000000000000000000000000000000000000000000000000000000000 DUP2 MSTORE PUSH1 0x4 ADD PUSH2 0xF79 SWAP1 PUSH2 0x2B08 JUMP JUMPDEST PUSH1 0x40 MLOAD DUP1 SWAP2 SUB SWAP1 REVERT JUMPDEST JUMP JUMPDEST PUSH1 0x0 DUP1 PUSH1 0x0 DUP1 PUSH1 0x0 PUSH1 0x60 PUSH1 0x0 DUP1 PUSH1 0x0 PUSH1 0x60 DUP1 PUSH2 0xF9E PUSH2 0x7DD JUMP JUMPDEST PUSH1 0x0 PUSH1 0x5 DUP1 SLOAD DUP1 PUSH1 0x20 MUL PUSH1 0x20 ADD PUSH1 0x40 MLOAD SWAP1 DUP2 ADD PUSH1 0x40 MSTORE DUP1 SWAP3 SWAP2 SWAP1 DUP2 DUP2 MSTORE PUSH1 0x20 ADD PUSH1 0x0 SWAP1 JUMPDEST DUP3 DUP3 LT ISZERO PUSH2 0x106E JUMPI DUP4 DUP3 SWAP1 PUSH1 0x0 MSTORE PUSH1 0x20 PUSH1 0x0 KECCAK256 ADD DUP1 SLOAD PUSH2 0xFE1 SWAP1 PUSH2 0x2E70 JUMP JUMPDEST DUP1 PUSH1 0x1F ADD PUSH1 0x20 DUP1 SWAP2 DIV MUL PUSH1 0x20 ADD PUSH1 0x40 MLOAD SWAP1 DUP2 ADD PUSH1 0x40 MSTORE DUP1 SWAP3 SWAP2 SWAP1 DUP2 DUP2 MSTORE PUSH1 0x20 ADD DUP3 DUP1 SLOAD PUSH2 0x100D SWAP1 PUSH2 0x2E70 JUMP JUMPDEST DUP1 ISZERO PUSH2 0x105A JUMPI DUP1 PUSH1 0x1F LT PUSH2 0x102F JUMPI PUSH2 0x100 DUP1 DUP4 SLOAD DIV MUL DUP4 MSTORE SWAP2 PUSH1 0x20 ADD SWAP2 PUSH2 0x105A JUMP JUMPDEST DUP3 ADD SWAP2 SWAP1 PUSH1 0x0 MSTORE PUSH1 0x20 PUSH1 0x0 KECCAK256 SWAP1 JUMPDEST DUP2 SLOAD DUP2 MSTORE SWAP1 PUSH1 0x1 ADD SWAP1 PUSH1 0x20 ADD DUP1 DUP4 GT PUSH2 0x103D JUMPI DUP3 SWAP1 SUB PUSH1 0x1F AND DUP3 ADD SWAP2 JUMPDEST POP POP POP POP POP DUP2 MSTORE PUSH1 0x20 ADD SWAP1 PUSH1 0x1 ADD SWAP1 PUSH2 0xFC2 JUMP JUMPDEST POP POP POP POP SWAP1 POP PUSH1 0x1 SLOAD PUSH1 0x2 SLOAD PUSH1 0x3 SLOAD PUSH1 0x4 PUSH1 0x0 SWAP1 SLOAD SWAP1 PUSH2 0x100 EXP SWAP1 DIV PUSH2 0xFFFF AND PUSH1 0x4 PUSH1 0x2 SWAP1 SLOAD SWAP1 PUSH2 0x100 EXP SWAP1 DIV PUSH2 0xFFFF AND DUP6 PUSH1 0x4 DUP1 SLOAD SWAP1 PUSH2 0x100 EXP SWAP1 DIV PUSH1 0xFF AND PUSH1 0x4 PUSH1 0x5 SWAP1 SLOAD SWAP1 PUSH2 0x100 EXP SWAP1 DIV PUSH1 0xFF AND PUSH1 0x4 PUSH1 0x6 SWAP1 SLOAD SWAP1 PUSH2 0x100 EXP SWAP1 DIV PUSH1 0xFF AND PUSH1 0x6 PUSH1 0x7 DUP2 DUP1 SLOAD DUP1 PUSH1 0x20 MUL PUSH1 0x20 ADD PUSH1 0x40 MLOAD SWAP1 DUP2 ADD PUSH1 0x40 MSTORE DUP1 SWAP3 SWAP2 SWAP1 DUP2 DUP2 MSTORE PUSH1 0x20 ADD DUP3 DUP1 SLOAD DUP1 ISZERO PUSH2 0x1153 JUMPI PUSH1 0x20 MUL DUP3 ADD SWAP2 SWAP1 PUSH1 0x0 MSTORE PUSH1 0x20 PUSH1 0x0 KECCAK256 SWAP1 JUMPDEST DUP2 PUSH1 0x0 SWAP1 SLOAD SWAP1 PUSH2 0x100 EXP SWAP1 DIV PUSH20 0xFFFFFFFFFFFFFFFFFFFFFFFFFFFFFFFFFFFFFFFF AND PUSH20 0xFFFFFFFFFFFFFFFFFFFFFFFFFFFFFFFFFFFFFFFF AND DUP2 MSTORE PUSH1 0x20 ADD SWAP1 PUSH1 0x1 ADD SWAP1 DUP1 DUP4 GT PUSH2 0x1109 JUMPI JUMPDEST POP POP POP POP POP SWAP2 POP DUP1 DUP1 SLOAD DUP1 PUSH1 0x20 MUL PUSH1 0x20 ADD PUSH1 0x40 MLOAD SWAP1 DUP2 ADD PUSH1 0x40 MSTORE DUP1 SWAP3 SWAP2 SWAP1 DUP2 DUP2 MSTORE PUSH1 0x20 ADD DUP3 DUP1 SLOAD DUP1 ISZERO PUSH2 0x11DB JUMPI PUSH1 0x20 MUL DUP3 ADD SWAP2 SWAP1 PUSH1 0x0 MSTORE PUSH1 0x20 PUSH1 0x0 KECCAK256 SWAP1 JUMPDEST DUP2 PUSH1 0x0 SWAP1 SLOAD SWAP1 PUSH2 0x100 EXP SWAP1 DIV PUSH20 0xFFFFFFFFFFFFFFFFFFFFFFFFFFFFFFFFFFFFFFFF AND PUSH20 0xFFFFFFFFFFFFFFFFFFFFFFFFFFFFFFFFFFFFFFFF AND DUP2 MSTORE PUSH1 0x20 ADD SWAP1 PUSH1 0x1 ADD SWAP1 DUP1 DUP4 GT PUSH2 0x1191 JUMPI JUMPDEST POP POP POP POP POP SWAP1 POP SWAP12 POP SWAP12 POP SWAP12 POP SWAP12 POP SWAP12 POP SWAP12 POP SWAP12 POP SWAP12 POP SWAP12 POP SWAP12 POP SWAP12 POP POP SWAP1 SWAP2 SWAP3 SWAP4 SWAP5 SWAP6 SWAP7 SWAP8 SWAP9 SWAP10 SWAP11 JUMP JUMPDEST PUSH2 0x1230 PUSH32 0xAF1DAC7DEA2FD7F7738119CEC7DF099DFAD49AA9D2E7D17BA6B60F63AE7411F CALLER PUSH2 0x1450 JUMP JUMPDEST DUP1 PUSH2 0x1261 JUMPI POP PUSH2 0x1260 PUSH32 0x72606200FAC42B7DC86B75901D61ECFAB2A4A1A6EDED478B97A428094891ABED CALLER PUSH2 0x1450 JUMP JUMPDEST JUMPDEST DUP1 PUSH2 0x1292 JUMPI POP PUSH2 0x1291 PUSH32 0x241ECF16D79D0F8DBFB92CBC07FE17840425976CF0667F022FE9877CAA831B08 CALLER PUSH2 0x1450 JUMP JUMPDEST JUMPDEST DUP1 PUSH2 0x12C3 JUMPI POP PUSH2 0x12C2 PUSH32 0xAF31C50B4AAB7AF0193B792816047837F36C88A23BBB4D0E3581C88CB4BF86AB CALLER PUSH2 0x1450 JUMP JUMPDEST JUMPDEST PUSH2 0x1302 JUMPI PUSH1 0x40 MLOAD PUSH32 0x8C379A000000000000000000000000000000000000000000000000000000000 DUP2 MSTORE PUSH1 0x4 ADD PUSH2 0x12F9 SWAP1 PUSH2 0x2AC8 JUMP JUMPDEST PUSH1 0x40 MLOAD DUP1 SWAP2 SUB SWAP1 REVERT JUMPDEST JUMP JUMPDEST PUSH1 0x0 PUSH2 0x1330 PUSH32 0xAF1DAC7DEA2FD7F7738119CEC7DF099DFAD49AA9D2E7D17BA6B60F63AE7411F DUP4 PUSH2 0x1450 JUMP JUMPDEST SWAP1 POP SWAP2 SWAP1 POP JUMP JUMPDEST PUSH2 0x133F PUSH2 0xF19 JUMP JUMPDEST PUSH1 0x8 PUSH1 0x0 DUP3 PUSH20 0xFFFFFFFFFFFFFFFFFFFFFFFFFFFFFFFFFFFFFFFF AND PUSH20 0xFFFFFFFFFFFFFFFFFFFFFFFFFFFFFFFFFFFFFFFF AND DUP2 MSTORE PUSH1 0x20 ADD SWAP1 DUP2 MSTORE PUSH1 0x20 ADD PUSH1 0x0 KECCAK256 PUSH1 0x0 SWAP1 SLOAD SWAP1 PUSH2 0x100 EXP SWAP1 DIV PUSH1 0xFF AND PUSH2 0x13CB JUMPI PUSH1 0x40 MLOAD PUSH32 0x8C379A000000000000000000000000000000000000000000000000000000000 DUP2 MSTORE PUSH1 0x4 ADD PUSH2 0x13C2 SWAP1 PUSH2 0x2AE8 JUMP JUMPDEST PUSH1 0x40 MLOAD DUP1 SWAP2 SUB SWAP1 REVERT JUMPDEST PUSH2 0x13F5 PUSH32 0xAF1DAC7DEA2FD7F7738119CEC7DF099DFAD49AA9D2E7D17BA6B60F63AE7411F DUP3 PUSH2 0x1734 JUMP JUMPDEST PUSH1 0x0 PUSH1 0x8 PUSH1 0x0 DUP4 PUSH20 0xFFFFFFFFFFFFFFFFFFFFFFFFFFFFFFFFFFFFFFFF AND PUSH20 0xFFFFFFFFFFFFFFFFFFFFFFFFFFFFFFFFFFFFFFFF AND DUP2 MSTORE PUSH1 0x20 ADD SWAP1 DUP2 MSTORE PUSH1 0x20 ADD PUSH1 0x0 KECCAK256 PUSH1 0x0 PUSH2 0x100 EXP DUP2 SLOAD DUP2 PUSH1 0xFF MUL NOT AND SWAP1 DUP4 ISZERO ISZERO MUL OR SWAP1 SSTORE POP POP JUMP JUMPDEST PUSH1 0x0 DUP1 PUSH1 0x0 DUP5 DUP2 MSTORE PUSH1 0x20 ADD SWAP1 DUP2 MSTORE PUSH1 0x20 ADD PUSH1 0x0 KECCAK256 PUSH1 0x0 ADD PUSH1 0x0 DUP4 PUSH20 0xFFFFFFFFFFFFFFFFFFFFFFFFFFFFFFFFFFFFFFFF AND PUSH20 0xFFFFFFFFFFFFFFFFFFFFFFFFFFFFFFFFFFFFFFFF AND DUP2 MSTORE PUSH1 0x20 ADD SWAP1 DUP2 MSTORE PUSH1 0x20 ADD PUSH1 0x0 KECCAK256 PUSH1 0x0 SWAP1 SLOAD SWAP1 PUSH2 0x100 EXP SWAP1 DIV PUSH1 0xFF AND SWAP1 POP SWAP3 SWAP2 POP POP JUMP JUMPDEST PUSH1 0x8 PUSH1 0x0 DUP3 PUSH20 0xFFFFFFFFFFFFFFFFFFFFFFFFFFFFFFFFFFFFFFFF AND PUSH20 0xFFFFFFFFFFFFFFFFFFFFFFFFFFFFFFFFFFFFFFFF AND DUP2 MSTORE PUSH1 0x20 ADD SWAP1 DUP2 MSTORE PUSH1 0x20 ADD PUSH1 0x0 KECCAK256 PUSH1 0x0 SWAP1 SLOAD SWAP1 PUSH2 0x100 EXP SWAP1 DIV PUSH1 0xFF AND ISZERO PUSH2 0x1547 JUMPI PUSH1 0x40 MLOAD PUSH32 0x8C379A000000000000000000000000000000000000000000000000000000000 DUP2 MSTORE PUSH1 0x4 ADD PUSH2 0x153E SWAP1 PUSH2 0x2A88 JUMP JUMPDEST PUSH1 0x40 MLOAD DUP1 SWAP2 SUB SWAP1 REVERT JUMPDEST PUSH1 0x7 DUP2 SWAP1 DUP1 PUSH1 0x1 DUP2 SLOAD ADD DUP1 DUP3 SSTORE DUP1 SWAP2 POP POP PUSH1 0x1 SWAP1 SUB SWAP1 PUSH1 0x0 MSTORE PUSH1 0x20 PUSH1 0x0 KECCAK256 ADD PUSH1 0x0 SWAP1 SWAP2 SWAP1 SWAP2 SWAP1 SWAP2 PUSH2 0x100 EXP DUP2 SLOAD DUP2 PUSH20 0xFFFFFFFFFFFFFFFFFFFFFFFFFFFFFFFFFFFFFFFF MUL NOT AND SWAP1 DUP4 PUSH20 0xFFFFFFFFFFFFFFFFFFFFFFFFFFFFFFFFFFFFFFFF AND MUL OR SWAP1 SSTORE POP PUSH1 0x1 PUSH1 0x8 PUSH1 0x0 DUP4 PUSH20 0xFFFFFFFFFFFFFFFFFFFFFFFFFFFFFFFFFFFFFFFF AND PUSH20 0xFFFFFFFFFFFFFFFFFFFFFFFFFFFFFFFFFFFFFFFF AND DUP2 MSTORE PUSH1 0x20 ADD SWAP1 DUP2 MSTORE PUSH1 0x20 ADD PUSH1 0x0 KECCAK256 PUSH1 0x0 PUSH2 0x100 EXP DUP2 SLOAD DUP2 PUSH1 0xFF MUL NOT AND SWAP1 DUP4 ISZERO ISZERO MUL OR SWAP1 SSTORE POP POP JUMP JUMPDEST PUSH1 0x60 PUSH2 0x160F PUSH2 0xF19 JUMP JUMPDEST PUSH1 0x7 DUP1 SLOAD DUP1 PUSH1 0x20 MUL PUSH1 0x20 ADD PUSH1 0x40 MLOAD SWAP1 DUP2 ADD PUSH1 0x40 MSTORE DUP1 SWAP3 SWAP2 SWAP1 DUP2 DUP2 MSTORE PUSH1 0x20 ADD DUP3 DUP1 SLOAD DUP1 ISZERO PUSH2 0x1691 JUMPI PUSH1 0x20 MUL DUP3 ADD SWAP2 SWAP1 PUSH1 0x0 MSTORE PUSH1 0x20 PUSH1 0x0 KECCAK256 SWAP1 JUMPDEST DUP2 PUSH1 0x0 SWAP1 SLOAD SWAP1 PUSH2 0x100 EXP SWAP1 DIV PUSH20 0xFFFFFFFFFFFFFFFFFFFFFFFFFFFFFFFFFFFFFFFF AND PUSH20 0xFFFFFFFFFFFFFFFFFFFFFFFFFFFFFFFFFFFFFFFF AND DUP2 MSTORE PUSH1 0x20 ADD SWAP1 PUSH1 0x1 ADD SWAP1 DUP1 DUP4 GT PUSH2 0x1647 JUMPI JUMPDEST POP POP POP POP POP SWAP1 POP SWAP1 JUMP JUMPDEST PUSH1 0x0 DUP1 SHL DUP2 JUMP JUMPDEST PUSH32 0x72606200FAC42B7DC86B75901D61ECFAB2A4A1A6EDED478B97A428094891ABED DUP2 JUMP JUMPDEST PUSH2 0x16CE PUSH2 0x1206 JUMP JUMPDEST PUSH1 0x6 DUP2 SWAP1 DUP1 PUSH1 0x1 DUP2 SLOAD ADD DUP1 DUP3 SSTORE DUP1 SWAP2 POP POP PUSH1 0x1 SWAP1 SUB SWAP1 PUSH1 0x0 MSTORE PUSH1 0x20 PUSH1 0x0 KECCAK256 ADD PUSH1 0x0 SWAP1 SWAP2 SWAP1 SWAP2 SWAP1 SWAP2 PUSH2 0x100 EXP DUP2 SLOAD DUP2 PUSH20 0xFFFFFFFFFFFFFFFFFFFFFFFFFFFFFFFFFFFFFFFF MUL NOT AND SWAP1 DUP4 PUSH20 0xFFFFFFFFFFFFFFFFFFFFFFFFFFFFFFFFFFFFFFFF AND MUL OR SWAP1 SSTORE POP POP JUMP JUMPDEST PUSH2 0x173D DUP3 PUSH2 0xB27 JUMP JUMPDEST PUSH2 0x1746 DUP2 PUSH2 0x19BB JUMP JUMPDEST PUSH2 0x1750 DUP4 DUP4 PUSH2 0x1AB7 JUMP JUMPDEST POP POP POP JUMP JUMPDEST PUSH1 0x9 PUSH1 0x0 DUP3 PUSH20 0xFFFFFFFFFFFFFFFFFFFFFFFFFFFFFFFFFFFFFFFF AND PUSH20 0xFFFFFFFFFFFFFFFFFFFFFFFFFFFFFFFFFFFFFFFF AND DUP2 MSTORE PUSH1 0x20 ADD SWAP1 DUP2 MSTORE PUSH1 0x20 ADD PUSH1 0x0 KECCAK256 PUSH1 0x0 SWAP1 SLOAD SWAP1 PUSH2 0x100 EXP SWAP1 DIV PUSH1 0xFF AND ISZERO PUSH2 0x17E2 JUMPI PUSH1 0x40 MLOAD PUSH32 0x8C379A000000000000000000000000000000000000000000000000000000000 DUP2 MSTORE PUSH1 0x4 ADD PUSH2 0x17D9 SWAP1 PUSH2 0x2A88 JUMP JUMPDEST PUSH1 0x40 MLOAD DUP1 SWAP2 SUB SWAP1 REVERT JUMPDEST PUSH1 0x7 DUP2 SWAP1 DUP1 PUSH1 0x1 DUP2 SLOAD ADD DUP1 DUP3 SSTORE DUP1 SWAP2 POP POP PUSH1 0x1 SWAP1 SUB SWAP1 PUSH1 0x0 MSTORE PUSH1 0x20 PUSH1 0x0 KECCAK256 ADD PUSH1 0x0 SWAP1 SWAP2 SWAP1 SWAP2 SWAP1 SWAP2 PUSH2 0x100 EXP DUP2 SLOAD DUP2 PUSH20 0xFFFFFFFFFFFFFFFFFFFFFFFFFFFFFFFFFFFFFFFF MUL NOT AND SWAP1 DUP4 PUSH20 0xFFFFFFFFFFFFFFFFFFFFFFFFFFFFFFFFFFFFFFFF AND MUL OR SWAP1 SSTORE POP PUSH1 0x1 PUSH1 0x9 PUSH1 0x0 DUP4 PUSH20 0xFFFFFFFFFFFFFFFFFFFFFFFFFFFFFFFFFFFFFFFF AND PUSH20 0xFFFFFFFFFFFFFFFFFFFFFFFFFFFFFFFFFFFFFFFF AND DUP2 MSTORE PUSH1 0x20 ADD SWAP1 DUP2 MSTORE PUSH1 0x20 ADD PUSH1 0x0 KECCAK256 PUSH1 0x0 PUSH2 0x100 EXP DUP2 SLOAD DUP2 PUSH1 0xFF MUL NOT AND SWAP1 DUP4 ISZERO ISZERO MUL OR SWAP1 SSTORE POP POP JUMP JUMPDEST PUSH32 0x241ECF16D79D0F8DBFB92CBC07FE17840425976CF0667F022FE9877CAA831B08 DUP2 JUMP JUMPDEST PUSH32 0xAF1DAC7DEA2FD7F7738119CEC7DF099DFAD49AA9D2E7D17BA6B60F63AE7411F DUP2 JUMP JUMPDEST PUSH1 0x0 PUSH32 0x1FFC9A700000000000000000000000000000000000000000000000000000000 PUSH28 0xFFFFFFFFFFFFFFFFFFFFFFFFFFFFFFFFFFFFFFFFFFFFFFFFFFFFFFFF NOT AND DUP3 PUSH28 0xFFFFFFFFFFFFFFFFFFFFFFFFFFFFFFFFFFFFFFFFFFFFFFFFFFFFFFFF NOT AND EQ SWAP1 POP SWAP2 SWAP1 POP JUMP JUMPDEST PUSH1 0x0 PUSH2 0x195D DUP4 PUSH2 0xB27 JUMP JUMPDEST SWAP1 POP DUP2 PUSH1 0x0 DUP1 DUP6 DUP2 MSTORE PUSH1 0x20 ADD SWAP1 DUP2 MSTORE PUSH1 0x20 ADD PUSH1 0x0 KECCAK256 PUSH1 0x1 ADD DUP2 SWAP1 SSTORE POP DUP2 DUP2 DUP5 PUSH32 0xBD79B86FFE0AB8E8776151514217CD7CACD52C909F66475C3AF44E129F0B00FF PUSH1 0x40 MLOAD PUSH1 0x40 MLOAD DUP1 SWAP2 SUB SWAP1 LOG4 POP POP POP JUMP JUMPDEST PUSH2 0x19B7 DUP3 DUP3 PUSH2 0x19CF JUMP JUMPDEST POP POP JUMP JUMPDEST PUSH2 0x19CC DUP2 PUSH2 0x19C7 PUSH2 0x1AAF JUMP JUMPDEST PUSH2 0x1C47 JUMP JUMPDEST POP JUMP JUMPDEST PUSH2 0x19D9 DUP3 DUP3 PUSH2 0x1450 JUMP JUMPDEST PUSH2 0x1AAB JUMPI PUSH1 0x1 PUSH1 0x0 DUP1 DUP5 DUP2 MSTORE PUSH1 0x20 ADD SWAP1 DUP2 MSTORE PUSH1 0x20 ADD PUSH1 0x0 KECCAK256 PUSH1 0x0 ADD PUSH1 0x0 DUP4 PUSH20 0xFFFFFFFFFFFFFFFFFFFFFFFFFFFFFFFFFFFFFFFF AND PUSH20 0xFFFFFFFFFFFFFFFFFFFFFFFFFFFFFFFFFFFFFFFF AND DUP2 MSTORE PUSH1 0x20 ADD SWAP1 DUP2 MSTORE PUSH1 0x20 ADD PUSH1 0x0 KECCAK256 PUSH1 0x0 PUSH2 0x100 EXP DUP2 SLOAD DUP2 PUSH1 0xFF MUL NOT AND SWAP1 DUP4 ISZERO ISZERO MUL OR SWAP1 SSTORE POP PUSH2 0x1A50 PUSH2 0x1AAF JUMP JUMPDEST PUSH20 0xFFFFFFFFFFFFFFFFFFFFFFFFFFFFFFFFFFFFFFFF AND DUP2 PUSH20 0xFFFFFFFFFFFFFFFFFFFFFFFFFFFFFFFFFFFFFFFF AND DUP4 PUSH32 0x2F8788117E7EFF1D82E926EC794901D17C78024A50270940304540A733656F0D PUSH1 0x40 MLOAD PUSH1 0x40 MLOAD DUP1 SWAP2 SUB SWAP1 LOG4 JUMPDEST POP POP JUMP JUMPDEST PUSH1 0x0 CALLER SWAP1 POP SWAP1 JUMP JUMPDEST PUSH2 0x1AC1 DUP3 DUP3 PUSH2 0x1450 JUMP JUMPDEST ISZERO PUSH2 0x1B94 JUMPI PUSH1 0x0 DUP1 PUSH1 0x0 DUP5 DUP2 MSTORE PUSH1 0x20 ADD SWAP1 DUP2 MSTORE PUSH1 0x20 ADD PUSH1 0x0 KECCAK256 PUSH1 0x0 ADD PUSH1 0x0 DUP4 PUSH20 0xFFFFFFFFFFFFFFFFFFFFFFFFFFFFFFFFFFFFFFFF AND PUSH20 0xFFFFFFFFFFFFFFFFFFFFFFFFFFFFFFFFFFFFFFFF AND DUP2 MSTORE PUSH1 0x20 ADD SWAP1 DUP2 MSTORE PUSH1 0x20 ADD PUSH1 0x0 KECCAK256 PUSH1 0x0 PUSH2 0x100 EXP DUP2 SLOAD DUP2 PUSH1 0xFF MUL NOT AND SWAP1 DUP4 ISZERO ISZERO MUL OR SWAP1 SSTORE POP PUSH2 0x1B39 PUSH2 0x1AAF JUMP JUMPDEST PUSH20 0xFFFFFFFFFFFFFFFFFFFFFFFFFFFFFFFFFFFFFFFF AND DUP2 PUSH20 0xFFFFFFFFFFFFFFFFFFFFFFFFFFFFFFFFFFFFFFFF AND DUP4 PUSH32 0xF6391F5C32D9C69D2A47EA670B442974B53935D1EDC7FD64EB21E047A839171B PUSH1 0x40 MLOAD PUSH1 0x40 MLOAD DUP1 SWAP2 SUB SWAP1 LOG4 JUMPDEST POP POP JUMP JUMPDEST PUSH1 0x0 DUP1 PUSH1 0x6 DUP1 SLOAD SWAP1 POP SWAP1 POP PUSH1 0x0 JUMPDEST DUP2 DUP2 LT ISZERO PUSH2 0x1C37 JUMPI DUP4 PUSH20 0xFFFFFFFFFFFFFFFFFFFFFFFFFFFFFFFFFFFFFFFF AND PUSH1 0x6 DUP3 DUP2 SLOAD DUP2 LT PUSH2 0x1BD9 JUMPI PUSH2 0x1BD8 PUSH2 0x2FA9 JUMP JUMPDEST JUMPDEST SWAP1 PUSH1 0x0 MSTORE PUSH1 0x20 PUSH1 0x0 KECCAK256 ADD PUSH1 0x0 SWAP1 SLOAD SWAP1 PUSH2 0x100 EXP SWAP1 DIV PUSH20 0xFFFFFFFFFFFFFFFFFFFFFFFFFFFFFFFFFFFFFFFF AND PUSH20 0xFFFFFFFFFFFFFFFFFFFFFFFFFFFFFFFFFFFFFFFF AND EQ ISZERO PUSH2 0x1C2A JUMPI DUP1 SWAP3 POP POP POP PUSH2 0x1C42 JUMP JUMPDEST DUP1 DUP1 PUSH1 0x1 ADD SWAP2 POP POP PUSH2 0x1BA6 JUMP JUMPDEST POP PUSH1 0x6 DUP1 SLOAD SWAP1 POP SWAP2 POP POP JUMPDEST SWAP2 SWAP1 POP JUMP JUMPDEST PUSH2 0x1C51 DUP3 DUP3 PUSH2 0x1450 JUMP JUMPDEST PUSH2 0x1CE0 JUMPI PUSH2 0x1C76 DUP2 PUSH20 0xFFFFFFFFFFFFFFFFFFFFFFFFFFFFFFFFFFFFFFFF AND PUSH1 0x14 PUSH2 0x1CE4 JUMP JUMPDEST PUSH2 0x1C84 DUP4 PUSH1 0x0 SHR PUSH1 0x20 PUSH2 0x1CE4 JUMP JUMPDEST PUSH1 0x40 MLOAD PUSH1 0x20 ADD PUSH2 0x1C95 SWAP3 SWAP2 SWAP1 PUSH2 0x28D4 JUMP JUMPDEST PUSH1 0x40 MLOAD PUSH1 0x20 DUP2 DUP4 SUB SUB DUP2 MSTORE SWAP1 PUSH1 0x40 MSTORE PUSH1 0x40 MLOAD PUSH32 0x8C379A000000000000000000000000000000000000000000000000000000000 DUP2 MSTORE PUSH1 0x4 ADD PUSH2 0x1CD7 SWAP2 SWAP1 PUSH2 0x2A26 JUMP JUMPDEST PUSH1 0x40 MLOAD DUP1 SWAP2 SUB SWAP1 REVERT JUMPDEST POP POP JUMP JUMPDEST PUSH1 0x60 PUSH1 0x0 PUSH1 0x2 DUP4 PUSH1 0x2 PUSH2 0x1CF7 SWAP2 SWAP1 PUSH2 0x2CEA JUMP JUMPDEST PUSH2 0x1D01 SWAP2 SWAP1 PUSH2 0x2C94 JUMP JUMPDEST PUSH8 0xFFFFFFFFFFFFFFFF DUP2 GT ISZERO PUSH2 0x1D1A JUMPI PUSH2 0x1D19 PUSH2 0x2FD8 JUMP JUMPDEST JUMPDEST PUSH1 0x40 MLOAD SWAP1 DUP1 DUP3 MSTORE DUP1 PUSH1 0x1F ADD PUSH1 0x1F NOT AND PUSH1 0x20 ADD DUP3 ADD PUSH1 0x40 MSTORE DUP1 ISZERO PUSH2 0x1D4C JUMPI DUP2 PUSH1 0x20 ADD PUSH1 0x1 DUP3 MUL DUP1 CALLDATASIZE DUP4 CALLDATACOPY DUP1 DUP3 ADD SWAP2 POP POP SWAP1 POP JUMPDEST POP SWAP1 POP PUSH32 0x3000000000000000000000000000000000000000000000000000000000000000 DUP2 PUSH1 0x0 DUP2 MLOAD DUP2 LT PUSH2 0x1D84 JUMPI PUSH2 0x1D83 PUSH2 0x2FA9 JUMP JUMPDEST JUMPDEST PUSH1 0x20 ADD ADD SWAP1 PUSH31 0xFFFFFFFFFFFFFFFFFFFFFFFFFFFFFFFFFFFFFFFFFFFFFFFFFFFFFFFFFFFFFF NOT AND SWAP1 DUP2 PUSH1 0x0 BYTE SWAP1 MSTORE8 POP PUSH32 0x7800000000000000000000000000000000000000000000000000000000000000 DUP2 PUSH1 0x1 DUP2 MLOAD DUP2 LT PUSH2 0x1DE8 JUMPI PUSH2 0x1DE7 PUSH2 0x2FA9 JUMP JUMPDEST JUMPDEST PUSH1 0x20 ADD ADD SWAP1 PUSH31 0xFFFFFFFFFFFFFFFFFFFFFFFFFFFFFFFFFFFFFFFFFFFFFFFFFFFFFFFFFFFFFF NOT AND SWAP1 DUP2 PUSH1 0x0 BYTE SWAP1 MSTORE8 POP PUSH1 0x0 PUSH1 0x1 DUP5 PUSH1 0x2 PUSH2 0x1E28 SWAP2 SWAP1 PUSH2 0x2CEA JUMP JUMPDEST PUSH2 0x1E32 SWAP2 SWAP1 PUSH2 0x2C94 JUMP JUMPDEST SWAP1 POP JUMPDEST PUSH1 0x1 DUP2 GT ISZERO PUSH2 0x1ED2 JUMPI PUSH32 0x3031323334353637383961626364656600000000000000000000000000000000 PUSH1 0xF DUP7 AND PUSH1 0x10 DUP2 LT PUSH2 0x1E74 JUMPI PUSH2 0x1E73 PUSH2 0x2FA9 JUMP JUMPDEST JUMPDEST BYTE PUSH1 0xF8 SHL DUP3 DUP3 DUP2 MLOAD DUP2 LT PUSH2 0x1E8B JUMPI PUSH2 0x1E8A PUSH2 0x2FA9 JUMP JUMPDEST JUMPDEST PUSH1 0x20 ADD ADD SWAP1 PUSH31 0xFFFFFFFFFFFFFFFFFFFFFFFFFFFFFFFFFFFFFFFFFFFFFFFFFFFFFFFFFFFFFF NOT AND SWAP1 DUP2 PUSH1 0x0 BYTE SWAP1 MSTORE8 POP PUSH1 0x4 DUP6 SWAP1 SHR SWAP5 POP DUP1 PUSH2 0x1ECB SWAP1 PUSH2 0x2E46 JUMP JUMPDEST SWAP1 POP PUSH2 0x1E35 JUMP JUMPDEST POP PUSH1 0x0 DUP5 EQ PUSH2 0x1F16 JUMPI PUSH1 0x40 MLOAD PUSH32 0x8C379A000000000000000000000000000000000000000000000000000000000 DUP2 MSTORE PUSH1 0x4 ADD PUSH2 0x1F0D SWAP1 PUSH2 0x2A48 JUMP JUMPDEST PUSH1 0x40 MLOAD DUP1 SWAP2 SUB SWAP1 REVERT JUMPDEST DUP1 SWAP2 POP POP SWAP3 SWAP2 POP POP JUMP JUMPDEST DUP3 DUP1 SLOAD DUP3 DUP3 SSTORE SWAP1 PUSH1 0x0 MSTORE PUSH1 0x20 PUSH1 0x0 KECCAK256 SWAP1 DUP2 ADD SWAP3 DUP3 ISZERO PUSH2 0x1F6F JUMPI SWAP2 PUSH1 0x20 MUL DUP3 ADD JUMPDEST DUP3 DUP2 GT ISZERO PUSH2 0x1F6E JUMPI DUP3 MLOAD DUP3 SWAP1 DUP1 MLOAD SWAP1 PUSH1 0x20 ADD SWAP1 PUSH2 0x1F5E SWAP3 SWAP2 SWAP1 PUSH2 0x1F80 JUMP JUMPDEST POP SWAP2 PUSH1 0x20 ADD SWAP2 SWAP1 PUSH1 0x1 ADD SWAP1 PUSH2 0x1F40 JUMP JUMPDEST JUMPDEST POP SWAP1 POP PUSH2 0x1F7C SWAP2 SWAP1 PUSH2 0x2006 JUMP JUMPDEST POP SWAP1 JUMP JUMPDEST DUP3 DUP1 SLOAD PUSH2 0x1F8C SWAP1 PUSH2 0x2E70 JUMP JUMPDEST SWAP1 PUSH1 0x0 MSTORE PUSH1 0x20 PUSH1 0x0 KECCAK256 SWAP1 PUSH1 0x1F ADD PUSH1 0x20 SWAP1 DIV DUP2 ADD SWAP3 DUP3 PUSH2 0x1FAE JUMPI PUSH1 0x0 DUP6 SSTORE PUSH2 0x1FF5 JUMP JUMPDEST DUP3 PUSH1 0x1F LT PUSH2 0x1FC7 JUMPI DUP1 MLOAD PUSH1 0xFF NOT AND DUP4 DUP1 ADD OR DUP6 SSTORE PUSH2 0x1FF5 JUMP JUMPDEST DUP3 DUP1 ADD PUSH1 0x1 ADD DUP6 SSTORE DUP3 ISZERO PUSH2 0x1FF5 JUMPI SWAP2 DUP3 ADD JUMPDEST DUP3 DUP2 GT ISZERO PUSH2 0x1FF4 JUMPI DUP3 MLOAD DUP3 SSTORE SWAP2 PUSH1 0x20 ADD SWAP2 SWAP1 PUSH1 0x1 ADD SWAP1 PUSH2 0x1FD9 JUMP JUMPDEST JUMPDEST POP SWAP1 POP PUSH2 0x2002 SWAP2 SWAP1 PUSH2 0x202A JUMP JUMPDEST POP SWAP1 JUMP JUMPDEST JUMPDEST DUP1 DUP3 GT ISZERO PUSH2 0x2026 JUMPI PUSH1 0x0 DUP2 DUP2 PUSH2 0x201D SWAP2 SWAP1 PUSH2 0x2047 JUMP JUMPDEST POP PUSH1 0x1 ADD PUSH2 0x2007 JUMP JUMPDEST POP SWAP1 JUMP JUMPDEST JUMPDEST DUP1 DUP3 GT ISZERO PUSH2 0x2043 JUMPI PUSH1 0x0 DUP2 PUSH1 0x0 SWAP1 SSTORE POP PUSH1 0x1 ADD PUSH2 0x202B JUMP JUMPDEST POP SWAP1 JUMP JUMPDEST POP DUP1 SLOAD PUSH2 0x2053 SWAP1 PUSH2 0x2E70 JUMP JUMPDEST PUSH1 0x0 DUP3 SSTORE DUP1 PUSH1 0x1F LT PUSH2 0x2065 JUMPI POP PUSH2 0x2084 JUMP JUMPDEST PUSH1 0x1F ADD PUSH1 0x20 SWAP1 DIV SWAP1 PUSH1 0x0 MSTORE PUSH1 0x20 PUSH1 0x0 KECCAK256 SWAP1 DUP2 ADD SWAP1 PUSH2 0x2083 SWAP2 SWAP1 PUSH2 0x202A JUMP JUMPDEST JUMPDEST POP JUMP JUMPDEST PUSH1 0x0 PUSH2 0x209A PUSH2 0x2095 DUP5 PUSH2 0x2B8D JUMP JUMPDEST PUSH2 0x2B68 JUMP JUMPDEST SWAP1 POP DUP1 DUP4 DUP3 MSTORE PUSH1 0x20 DUP3 ADD SWAP1 POP DUP3 DUP6 PUSH1 0x20 DUP7 MUL DUP3 ADD GT ISZERO PUSH2 0x20BD JUMPI PUSH2 0x20BC PUSH2 0x3011 JUMP JUMPDEST JUMPDEST PUSH1 0x0 JUMPDEST DUP6 DUP2 LT ISZERO PUSH2 0x210B JUMPI DUP2 CALLDATALOAD PUSH8 0xFFFFFFFFFFFFFFFF DUP2 GT ISZERO PUSH2 0x20E3 JUMPI PUSH2 0x20E2 PUSH2 0x3007 JUMP JUMPDEST JUMPDEST DUP1 DUP7 ADD PUSH2 0x20F0 DUP10 DUP3 PUSH2 0x21D9 JUMP JUMPDEST DUP6 MSTORE PUSH1 0x20 DUP6 ADD SWAP5 POP PUSH1 0x20 DUP5 ADD SWAP4 POP POP POP PUSH1 0x1 DUP2 ADD SWAP1 POP PUSH2 0x20C0 JUMP JUMPDEST POP POP POP SWAP4 SWAP3 POP POP POP JUMP JUMPDEST PUSH1 0x0 PUSH2 0x2128 PUSH2 0x2123 DUP5 PUSH2 0x2BB9 JUMP JUMPDEST PUSH2 0x2B68 JUMP JUMPDEST SWAP1 POP DUP3 DUP2 MSTORE PUSH1 0x20 DUP2 ADD DUP5 DUP5 DUP5 ADD GT ISZERO PUSH2 0x2144 JUMPI PUSH2 0x2143 PUSH2 0x3016 JUMP JUMPDEST JUMPDEST PUSH2 0x214F DUP5 DUP3 DUP6 PUSH2 0x2E04 JUMP JUMPDEST POP SWAP4 SWAP3 POP POP POP JUMP JUMPDEST PUSH1 0x0 DUP2 CALLDATALOAD SWAP1 POP PUSH2 0x2166 DUP2 PUSH2 0x321F JUMP JUMPDEST SWAP3 SWAP2 POP POP JUMP JUMPDEST PUSH1 0x0 DUP3 PUSH1 0x1F DUP4 ADD SLT PUSH2 0x2181 JUMPI PUSH2 0x2180 PUSH2 0x3007 JUMP JUMPDEST JUMPDEST DUP2 CALLDATALOAD PUSH2 0x2191 DUP5 DUP3 PUSH1 0x20 DUP7 ADD PUSH2 0x2087 JUMP JUMPDEST SWAP2 POP POP SWAP3 SWAP2 POP POP JUMP JUMPDEST PUSH1 0x0 DUP2 CALLDATALOAD SWAP1 POP PUSH2 0x21A9 DUP2 PUSH2 0x3236 JUMP JUMPDEST SWAP3 SWAP2 POP POP JUMP JUMPDEST PUSH1 0x0 DUP2 CALLDATALOAD SWAP1 POP PUSH2 0x21BE DUP2 PUSH2 0x324D JUMP JUMPDEST SWAP3 SWAP2 POP POP JUMP JUMPDEST PUSH1 0x0 DUP2 CALLDATALOAD SWAP1 POP PUSH2 0x21D3 DUP2 PUSH2 0x3264 JUMP JUMPDEST SWAP3 SWAP2 POP POP JUMP JUMPDEST PUSH1 0x0 DUP3 PUSH1 0x1F DUP4 ADD SLT PUSH2 0x21EE JUMPI PUSH2 0x21ED PUSH2 0x3007 JUMP JUMPDEST JUMPDEST DUP2 CALLDATALOAD PUSH2 0x21FE DUP5 DUP3 PUSH1 0x20 DUP7 ADD PUSH2 0x2115 JUMP JUMPDEST SWAP2 POP POP SWAP3 SWAP2 POP POP JUMP JUMPDEST PUSH1 0x0 PUSH1 0x60 DUP3 DUP5 SUB SLT ISZERO PUSH2 0x221D JUMPI PUSH2 0x221C PUSH2 0x300C JUMP JUMPDEST JUMPDEST PUSH2 0x2227 PUSH1 0x60 PUSH2 0x2B68 JUMP JUMPDEST SWAP1 POP PUSH1 0x0 PUSH2 0x2237 DUP5 DUP3 DUP6 ADD PUSH2 0x219A JUMP JUMPDEST PUSH1 0x0 DUP4 ADD MSTORE POP PUSH1 0x20 PUSH2 0x224B DUP5 DUP3 DUP6 ADD PUSH2 0x219A JUMP JUMPDEST PUSH1 0x20 DUP4 ADD MSTORE POP PUSH1 0x40 PUSH2 0x225F DUP5 DUP3 DUP6 ADD PUSH2 0x219A JUMP JUMPDEST PUSH1 0x40 DUP4 ADD MSTORE POP SWAP3 SWAP2 POP POP JUMP JUMPDEST PUSH1 0x0 PUSH1 0x40 DUP3 DUP5 SUB SLT ISZERO PUSH2 0x2281 JUMPI PUSH2 0x2280 PUSH2 0x300C JUMP JUMPDEST JUMPDEST PUSH2 0x228B PUSH1 0x40 PUSH2 0x2B68 JUMP JUMPDEST SWAP1 POP PUSH1 0x0 PUSH2 0x229B DUP5 DUP3 DUP6 ADD PUSH2 0x21AF JUMP JUMPDEST PUSH1 0x0 DUP4 ADD MSTORE POP PUSH1 0x20 PUSH2 0x22AF DUP5 DUP3 DUP6 ADD PUSH2 0x21AF JUMP JUMPDEST PUSH1 0x20 DUP4 ADD MSTORE POP SWAP3 SWAP2 POP POP JUMP JUMPDEST PUSH1 0x0 DUP2 CALLDATALOAD SWAP1 POP PUSH2 0x22CA DUP2 PUSH2 0x327B JUMP JUMPDEST SWAP3 SWAP2 POP POP JUMP JUMPDEST PUSH1 0x0 DUP2 CALLDATALOAD SWAP1 POP PUSH2 0x22DF DUP2 PUSH2 0x3292 JUMP JUMPDEST SWAP3 SWAP2 POP POP JUMP JUMPDEST PUSH1 0x0 PUSH1 0x20 DUP3 DUP5 SUB SLT ISZERO PUSH2 0x22FB JUMPI PUSH2 0x22FA PUSH2 0x3020 JUMP JUMPDEST JUMPDEST PUSH1 0x0 PUSH2 0x2309 DUP5 DUP3 DUP6 ADD PUSH2 0x2157 JUMP JUMPDEST SWAP2 POP POP SWAP3 SWAP2 POP POP JUMP JUMPDEST PUSH1 0x0 DUP1 PUSH1 0x0 DUP1 PUSH1 0x0 DUP1 PUSH1 0x0 DUP1 PUSH1 0x0 PUSH2 0x180 DUP11 DUP13 SUB SLT ISZERO PUSH2 0x2335 JUMPI PUSH2 0x2334 PUSH2 0x3020 JUMP JUMPDEST JUMPDEST PUSH1 0x0 PUSH2 0x2343 DUP13 DUP3 DUP14 ADD PUSH2 0x2157 JUMP JUMPDEST SWAP10 POP POP PUSH1 0x20 PUSH2 0x2354 DUP13 DUP3 DUP14 ADD PUSH2 0x2157 JUMP JUMPDEST SWAP9 POP POP PUSH1 0x40 PUSH2 0x2365 DUP13 DUP3 DUP14 ADD PUSH2 0x2157 JUMP JUMPDEST SWAP8 POP POP PUSH1 0x60 PUSH2 0x2376 DUP13 DUP3 DUP14 ADD PUSH2 0x226B JUMP JUMPDEST SWAP7 POP POP PUSH1 0xA0 PUSH2 0x2387 DUP13 DUP3 DUP14 ADD PUSH2 0x22D0 JUMP JUMPDEST SWAP6 POP POP PUSH1 0xC0 PUSH2 0x2398 DUP13 DUP3 DUP14 ADD PUSH2 0x22BB JUMP JUMPDEST SWAP5 POP POP PUSH1 0xE0 PUSH2 0x23A9 DUP13 DUP3 DUP14 ADD PUSH2 0x22BB JUMP JUMPDEST SWAP4 POP POP PUSH2 0x100 DUP11 ADD CALLDATALOAD PUSH8 0xFFFFFFFFFFFFFFFF DUP2 GT ISZERO PUSH2 0x23CB JUMPI PUSH2 0x23CA PUSH2 0x301B JUMP JUMPDEST JUMPDEST PUSH2 0x23D7 DUP13 DUP3 DUP14 ADD PUSH2 0x216C JUMP JUMPDEST SWAP3 POP POP PUSH2 0x120 PUSH2 0x23E9 DUP13 DUP3 DUP14 ADD PUSH2 0x2207 JUMP JUMPDEST SWAP2 POP POP SWAP3 SWAP6 SWAP9 POP SWAP3 SWAP6 SWAP9 POP SWAP3 SWAP6 SWAP9 JUMP JUMPDEST PUSH1 0x0 DUP1 PUSH1 0x0 DUP1 PUSH1 0x0 DUP1 PUSH1 0x0 DUP1 PUSH2 0x160 DUP10 DUP12 SUB SLT ISZERO PUSH2 0x241A JUMPI PUSH2 0x2419 PUSH2 0x3020 JUMP JUMPDEST JUMPDEST PUSH1 0x0 PUSH2 0x2428 DUP12 DUP3 DUP13 ADD PUSH2 0x2157 JUMP JUMPDEST SWAP9 POP POP PUSH1 0x20 PUSH2 0x2439 DUP12 DUP3 DUP13 ADD PUSH2 0x2157 JUMP JUMPDEST SWAP8 POP POP PUSH1 0x40 PUSH2 0x244A DUP12 DUP3 DUP13 ADD PUSH2 0x226B JUMP JUMPDEST SWAP7 POP POP PUSH1 0x80 PUSH2 0x245B DUP12 DUP3 DUP13 ADD PUSH2 0x22D0 JUMP JUMPDEST SWAP6 POP POP PUSH1 0xA0 PUSH2 0x246C DUP12 DUP3 DUP13 ADD PUSH2 0x22BB JUMP JUMPDEST SWAP5 POP POP PUSH1 0xC0 PUSH2 0x247D DUP12 DUP3 DUP13 ADD PUSH2 0x22BB JUMP JUMPDEST SWAP4 POP POP PUSH1 0xE0 DUP10 ADD CALLDATALOAD PUSH8 0xFFFFFFFFFFFFFFFF DUP2 GT ISZERO PUSH2 0x249E JUMPI PUSH2 0x249D PUSH2 0x301B JUMP JUMPDEST JUMPDEST PUSH2 0x24AA DUP12 DUP3 DUP13 ADD PUSH2 0x216C JUMP JUMPDEST SWAP3 POP POP PUSH2 0x100 PUSH2 0x24BC DUP12 DUP3 DUP13 ADD PUSH2 0x2207 JUMP JUMPDEST SWAP2 POP POP SWAP3 SWAP6 SWAP9 POP SWAP3 SWAP6 SWAP9 SWAP1 SWAP4 SWAP7 POP JUMP JUMPDEST PUSH1 0x0 PUSH1 0x20 DUP3 DUP5 SUB SLT ISZERO PUSH2 0x24E2 JUMPI PUSH2 0x24E1 PUSH2 0x3020 JUMP JUMPDEST JUMPDEST PUSH1 0x0 PUSH2 0x24F0 DUP5 DUP3 DUP6 ADD PUSH2 0x21AF JUMP JUMPDEST SWAP2 POP POP SWAP3 SWAP2 POP POP JUMP JUMPDEST PUSH1 0x0 DUP1 PUSH1 0x40 DUP4 DUP6 SUB SLT ISZERO PUSH2 0x2510 JUMPI PUSH2 0x250F PUSH2 0x3020 JUMP JUMPDEST JUMPDEST PUSH1 0x0 PUSH2 0x251E DUP6 DUP3 DUP7 ADD PUSH2 0x21AF JUMP JUMPDEST SWAP3 POP POP PUSH1 0x20 PUSH2 0x252F DUP6 DUP3 DUP7 ADD PUSH2 0x2157 JUMP JUMPDEST SWAP2 POP POP SWAP3 POP SWAP3 SWAP1 POP JUMP JUMPDEST PUSH1 0x0 PUSH1 0x20 DUP3 DUP5 SUB SLT ISZERO PUSH2 0x254F JUMPI PUSH2 0x254E PUSH2 0x3020 JUMP JUMPDEST JUMPDEST PUSH1 0x0 PUSH2 0x255D DUP5 DUP3 DUP6 ADD PUSH2 0x21C4 JUMP JUMPDEST SWAP2 POP POP SWAP3 SWAP2 POP POP JUMP JUMPDEST PUSH1 0x0 PUSH2 0x2572 DUP4 DUP4 PUSH2 0x2592 JUMP JUMPDEST PUSH1 0x20 DUP4 ADD SWAP1 POP SWAP3 SWAP2 POP POP JUMP JUMPDEST PUSH1 0x0 PUSH2 0x258A DUP4 DUP4 PUSH2 0x2692 JUMP JUMPDEST SWAP1 POP SWAP3 SWAP2 POP POP JUMP JUMPDEST PUSH2 0x259B DUP2 PUSH2 0x2D78 JUMP JUMPDEST DUP3 MSTORE POP POP JUMP JUMPDEST PUSH1 0x0 PUSH2 0x25AC DUP3 PUSH2 0x2C0A JUMP JUMPDEST PUSH2 0x25B6 DUP2 DUP6 PUSH2 0x2C45 JUMP JUMPDEST SWAP4 POP PUSH2 0x25C1 DUP4 PUSH2 0x2BEA JUMP JUMPDEST DUP1 PUSH1 0x0 JUMPDEST DUP4 DUP2 LT ISZERO PUSH2 0x25F2 JUMPI DUP2 MLOAD PUSH2 0x25D9 DUP9 DUP3 PUSH2 0x2566 JUMP JUMPDEST SWAP8 POP PUSH2 0x25E4 DUP4 PUSH2 0x2C2B JUMP JUMPDEST SWAP3 POP POP PUSH1 0x1 DUP2 ADD SWAP1 POP PUSH2 0x25C5 JUMP JUMPDEST POP DUP6 SWAP4 POP POP POP POP SWAP3 SWAP2 POP POP JUMP JUMPDEST PUSH1 0x0 PUSH2 0x260A DUP3 PUSH2 0x2C15 JUMP JUMPDEST PUSH2 0x2614 DUP2 DUP6 PUSH2 0x2C56 JUMP JUMPDEST SWAP4 POP DUP4 PUSH1 0x20 DUP3 MUL DUP6 ADD PUSH2 0x2626 DUP6 PUSH2 0x2BFA JUMP JUMPDEST DUP1 PUSH1 0x0 JUMPDEST DUP6 DUP2 LT ISZERO PUSH2 0x2662 JUMPI DUP5 DUP5 SUB DUP10 MSTORE DUP2 MLOAD PUSH2 0x2643 DUP6 DUP3 PUSH2 0x257E JUMP JUMPDEST SWAP5 POP PUSH2 0x264E DUP4 PUSH2 0x2C38 JUMP JUMPDEST SWAP3 POP PUSH1 0x20 DUP11 ADD SWAP10 POP POP PUSH1 0x1 DUP2 ADD SWAP1 POP PUSH2 0x262A JUMP JUMPDEST POP DUP3 SWAP8 POP DUP8 SWAP6 POP POP POP POP POP POP SWAP3 SWAP2 POP POP JUMP JUMPDEST PUSH2 0x267D DUP2 PUSH2 0x2D8A JUMP JUMPDEST DUP3 MSTORE POP POP JUMP JUMPDEST PUSH2 0x268C DUP2 PUSH2 0x2D96 JUMP JUMPDEST DUP3 MSTORE POP POP JUMP JUMPDEST PUSH1 0x0 PUSH2 0x269D DUP3 PUSH2 0x2C20 JUMP JUMPDEST PUSH2 0x26A7 DUP2 DUP6 PUSH2 0x2C67 JUMP JUMPDEST SWAP4 POP PUSH2 0x26B7 DUP2 DUP6 PUSH1 0x20 DUP7 ADD PUSH2 0x2E13 JUMP JUMPDEST PUSH2 0x26C0 DUP2 PUSH2 0x3025 JUMP JUMPDEST DUP5 ADD SWAP2 POP POP SWAP3 SWAP2 POP POP JUMP JUMPDEST PUSH1 0x0 PUSH2 0x26D6 DUP3 PUSH2 0x2C20 JUMP JUMPDEST PUSH2 0x26E0 DUP2 DUP6 PUSH2 0x2C78 JUMP JUMPDEST SWAP4 POP PUSH2 0x26F0 DUP2 DUP6 PUSH1 0x20 DUP7 ADD PUSH2 0x2E13 JUMP JUMPDEST PUSH2 0x26F9 DUP2 PUSH2 0x3025 JUMP JUMPDEST DUP5 ADD SWAP2 POP POP SWAP3 SWAP2 POP POP JUMP JUMPDEST PUSH1 0x0 PUSH2 0x270F DUP3 PUSH2 0x2C20 JUMP JUMPDEST PUSH2 0x2719 DUP2 DUP6 PUSH2 0x2C89 JUMP JUMPDEST SWAP4 POP PUSH2 0x2729 DUP2 DUP6 PUSH1 0x20 DUP7 ADD PUSH2 0x2E13 JUMP JUMPDEST DUP1 DUP5 ADD SWAP2 POP POP SWAP3 SWAP2 POP POP JUMP JUMPDEST PUSH1 0x0 PUSH2 0x2742 PUSH1 0x20 DUP4 PUSH2 0x2C78 JUMP JUMPDEST SWAP2 POP PUSH2 0x274D DUP3 PUSH2 0x3036 JUMP JUMPDEST PUSH1 0x20 DUP3 ADD SWAP1 POP SWAP2 SWAP1 POP JUMP JUMPDEST PUSH1 0x0 PUSH2 0x2765 PUSH1 0x11 DUP4 PUSH2 0x2C78 JUMP JUMPDEST SWAP2 POP PUSH2 0x2770 DUP3 PUSH2 0x305F JUMP JUMPDEST PUSH1 0x20 DUP3 ADD SWAP1 POP SWAP2 SWAP1 POP JUMP JUMPDEST PUSH1 0x0 PUSH2 0x2788 PUSH1 0x1C DUP4 PUSH2 0x2C78 JUMP JUMPDEST SWAP2 POP PUSH2 0x2793 DUP3 PUSH2 0x3088 JUMP JUMPDEST PUSH1 0x20 DUP3 ADD SWAP1 POP SWAP2 SWAP1 POP JUMP JUMPDEST PUSH1 0x0 PUSH2 0x27AB PUSH1 0x10 DUP4 PUSH2 0x2C78 JUMP JUMPDEST SWAP2 POP PUSH2 0x27B6 DUP3 PUSH2 0x30B1 JUMP JUMPDEST PUSH1 0x20 DUP3 ADD SWAP1 POP SWAP2 SWAP1 POP JUMP JUMPDEST PUSH1 0x0 PUSH2 0x27CE PUSH1 0x11 DUP4 PUSH2 0x2C78 JUMP JUMPDEST SWAP2 POP PUSH2 0x27D9 DUP3 PUSH2 0x30DA JUMP JUMPDEST PUSH1 0x20 DUP3 ADD SWAP1 POP SWAP2 SWAP1 POP JUMP JUMPDEST PUSH1 0x0 PUSH2 0x27F1 PUSH1 0x10 DUP4 PUSH2 0x2C78 JUMP JUMPDEST SWAP2 POP PUSH2 0x27FC DUP3 PUSH2 0x3103 JUMP JUMPDEST PUSH1 0x20 DUP3 ADD SWAP1 POP SWAP2 SWAP1 POP JUMP JUMPDEST PUSH1 0x0 PUSH2 0x2814 PUSH1 0xB DUP4 PUSH2 0x2C78 JUMP JUMPDEST SWAP2 POP PUSH2 0x281F DUP3 PUSH2 0x312C JUMP JUMPDEST PUSH1 0x20 DUP3 ADD SWAP1 POP SWAP2 SWAP1 POP JUMP JUMPDEST PUSH1 0x0 PUSH2 0x2837 PUSH1 0x13 DUP4 PUSH2 0x2C78 JUMP JUMPDEST SWAP2 POP PUSH2 0x2842 DUP3 PUSH2 0x3155 JUMP JUMPDEST PUSH1 0x20 DUP3 ADD SWAP1 POP SWAP2 SWAP1 POP JUMP JUMPDEST PUSH1 0x0 PUSH2 0x285A PUSH1 0x17 DUP4 PUSH2 0x2C89 JUMP JUMPDEST SWAP2 POP PUSH2 0x2865 DUP3 PUSH2 0x317E JUMP JUMPDEST PUSH1 0x17 DUP3 ADD SWAP1 POP SWAP2 SWAP1 POP JUMP JUMPDEST PUSH1 0x0 PUSH2 0x287D PUSH1 0x11 DUP4 PUSH2 0x2C89 JUMP JUMPDEST SWAP2 POP PUSH2 0x2888 DUP3 PUSH2 0x31A7 JUMP JUMPDEST PUSH1 0x11 DUP3 ADD SWAP1 POP SWAP2 SWAP1 POP JUMP JUMPDEST PUSH1 0x0 PUSH2 0x28A0 PUSH1 0x2F DUP4 PUSH2 0x2C78 JUMP JUMPDEST SWAP2 POP PUSH2 0x28AB DUP3 PUSH2 0x31D0 JUMP JUMPDEST PUSH1 0x40 DUP3 ADD SWAP1 POP SWAP2 SWAP1 POP JUMP JUMPDEST PUSH2 0x28BF DUP2 PUSH2 0x2DCC JUMP JUMPDEST DUP3 MSTORE POP POP JUMP JUMPDEST PUSH2 0x28CE DUP2 PUSH2 0x2DFA JUMP JUMPDEST DUP3 MSTORE POP POP JUMP JUMPDEST PUSH1 0x0 PUSH2 0x28DF DUP3 PUSH2 0x284D JUMP JUMPDEST SWAP2 POP PUSH2 0x28EB DUP3 DUP6 PUSH2 0x2704 JUMP JUMPDEST SWAP2 POP PUSH2 0x28F6 DUP3 PUSH2 0x2870 JUMP JUMPDEST SWAP2 POP PUSH2 0x2902 DUP3 DUP5 PUSH2 0x2704 JUMP JUMPDEST SWAP2 POP DUP2 SWAP1 POP SWAP4 SWAP3 POP POP POP JUMP JUMPDEST PUSH1 0x0 PUSH1 0x20 DUP3 ADD SWAP1 POP DUP2 DUP2 SUB PUSH1 0x0 DUP4 ADD MSTORE PUSH2 0x2928 DUP2 DUP5 PUSH2 0x25A1 JUMP JUMPDEST SWAP1 POP SWAP3 SWAP2 POP POP JUMP JUMPDEST PUSH1 0x0 PUSH1 0x20 DUP3 ADD SWAP1 POP PUSH2 0x2945 PUSH1 0x0 DUP4 ADD DUP5 PUSH2 0x2674 JUMP JUMPDEST SWAP3 SWAP2 POP POP JUMP JUMPDEST PUSH1 0x0 PUSH1 0x20 DUP3 ADD SWAP1 POP PUSH2 0x2960 PUSH1 0x0 DUP4 ADD DUP5 PUSH2 0x2683 JUMP JUMPDEST SWAP3 SWAP2 POP POP JUMP JUMPDEST PUSH1 0x0 PUSH2 0x160 DUP3 ADD SWAP1 POP PUSH2 0x297C PUSH1 0x0 DUP4 ADD DUP15 PUSH2 0x2683 JUMP JUMPDEST PUSH2 0x2989 PUSH1 0x20 DUP4 ADD DUP14 PUSH2 0x2683 JUMP JUMPDEST PUSH2 0x2996 PUSH1 0x40 DUP4 ADD DUP13 PUSH2 0x28C5 JUMP JUMPDEST PUSH2 0x29A3 PUSH1 0x60 DUP4 ADD DUP12 PUSH2 0x28B6 JUMP JUMPDEST PUSH2 0x29B0 PUSH1 0x80 DUP4 ADD DUP11 PUSH2 0x28B6 JUMP JUMPDEST DUP2 DUP2 SUB PUSH1 0xA0 DUP4 ADD MSTORE PUSH2 0x29C2 DUP2 DUP10 PUSH2 0x25FF JUMP JUMPDEST SWAP1 POP PUSH2 0x29D1 PUSH1 0xC0 DUP4 ADD DUP9 PUSH2 0x2674 JUMP JUMPDEST PUSH2 0x29DE PUSH1 0xE0 DUP4 ADD DUP8 PUSH2 0x2674 JUMP JUMPDEST PUSH2 0x29EC PUSH2 0x100 DUP4 ADD DUP7 PUSH2 0x2674 JUMP JUMPDEST DUP2 DUP2 SUB PUSH2 0x120 DUP4 ADD MSTORE PUSH2 0x29FF DUP2 DUP6 PUSH2 0x25A1 JUMP JUMPDEST SWAP1 POP DUP2 DUP2 SUB PUSH2 0x140 DUP4 ADD MSTORE PUSH2 0x2A14 DUP2 DUP5 PUSH2 0x25A1 JUMP JUMPDEST SWAP1 POP SWAP13 SWAP12 POP POP POP POP POP POP POP POP POP POP POP POP JUMP JUMPDEST PUSH1 0x0 PUSH1 0x20 DUP3 ADD SWAP1 POP DUP2 DUP2 SUB PUSH1 0x0 DUP4 ADD MSTORE PUSH2 0x2A40 DUP2 DUP5 PUSH2 0x26CB JUMP JUMPDEST SWAP1 POP SWAP3 SWAP2 POP POP JUMP JUMPDEST PUSH1 0x0 PUSH1 0x20 DUP3 ADD SWAP1 POP DUP2 DUP2 SUB PUSH1 0x0 DUP4 ADD MSTORE PUSH2 0x2A61 DUP2 PUSH2 0x2735 JUMP JUMPDEST SWAP1 POP SWAP2 SWAP1 POP JUMP JUMPDEST PUSH1 0x0 PUSH1 0x20 DUP3 ADD SWAP1 POP DUP2 DUP2 SUB PUSH1 0x0 DUP4 ADD MSTORE PUSH2 0x2A81 DUP2 PUSH2 0x2758 JUMP JUMPDEST SWAP1 POP SWAP2 SWAP1 POP JUMP JUMPDEST PUSH1 0x0 PUSH1 0x20 DUP3 ADD SWAP1 POP DUP2 DUP2 SUB PUSH1 0x0 DUP4 ADD MSTORE PUSH2 0x2AA1 DUP2 PUSH2 0x277B JUMP JUMPDEST SWAP1 POP SWAP2 SWAP1 POP JUMP JUMPDEST PUSH1 0x0 PUSH1 0x20 DUP3 ADD SWAP1 POP DUP2 DUP2 SUB PUSH1 0x0 DUP4 ADD MSTORE PUSH2 0x2AC1 DUP2 PUSH2 0x279E JUMP JUMPDEST SWAP1 POP SWAP2 SWAP1 POP JUMP JUMPDEST PUSH1 0x0 PUSH1 0x20 DUP3 ADD SWAP1 POP DUP2 DUP2 SUB PUSH1 0x0 DUP4 ADD MSTORE PUSH2 0x2AE1 DUP2 PUSH2 0x27C1 JUMP JUMPDEST SWAP1 POP SWAP2 SWAP1 POP JUMP JUMPDEST PUSH1 0x0 PUSH1 0x20 DUP3 ADD SWAP1 POP DUP2 DUP2 SUB PUSH1 0x0 DUP4 ADD MSTORE PUSH2 0x2B01 DUP2 PUSH2 0x27E4 JUMP JUMPDEST SWAP1 POP SWAP2 SWAP1 POP JUMP JUMPDEST PUSH1 0x0 PUSH1 0x20 DUP3 ADD SWAP1 POP DUP2 DUP2 SUB PUSH1 0x0 DUP4 ADD MSTORE PUSH2 0x2B21 DUP2 PUSH2 0x2807 JUMP JUMPDEST SWAP1 POP SWAP2 SWAP1 POP JUMP JUMPDEST PUSH1 0x0 PUSH1 0x20 DUP3 ADD SWAP1 POP DUP2 DUP2 SUB PUSH1 0x0 DUP4 ADD MSTORE PUSH2 0x2B41 DUP2 PUSH2 0x282A JUMP JUMPDEST SWAP1 POP SWAP2 SWAP1 POP JUMP JUMPDEST PUSH1 0x0 PUSH1 0x20 DUP3 ADD SWAP1 POP DUP2 DUP2 SUB PUSH1 0x0 DUP4 ADD MSTORE PUSH2 0x2B61 DUP2 PUSH2 0x2893 JUMP JUMPDEST SWAP1 POP SWAP2 SWAP1 POP JUMP JUMPDEST PUSH1 0x0 PUSH2 0x2B72 PUSH2 0x2B83 JUMP JUMPDEST SWAP1 POP PUSH2 0x2B7E DUP3 DUP3 PUSH2 0x2EA2 JUMP JUMPDEST SWAP2 SWAP1 POP JUMP JUMPDEST PUSH1 0x0 PUSH1 0x40 MLOAD SWAP1 POP SWAP1 JUMP JUMPDEST PUSH1 0x0 PUSH8 0xFFFFFFFFFFFFFFFF DUP3 GT ISZERO PUSH2 0x2BA8 JUMPI PUSH2 0x2BA7 PUSH2 0x2FD8 JUMP JUMPDEST JUMPDEST PUSH1 0x20 DUP3 MUL SWAP1 POP PUSH1 0x20 DUP2 ADD SWAP1 POP SWAP2 SWAP1 POP JUMP JUMPDEST PUSH1 0x0 PUSH8 0xFFFFFFFFFFFFFFFF DUP3 GT ISZERO PUSH2 0x2BD4 JUMPI PUSH2 0x2BD3 PUSH2 0x2FD8 JUMP JUMPDEST JUMPDEST PUSH2 0x2BDD DUP3 PUSH2 0x3025 JUMP JUMPDEST SWAP1 POP PUSH1 0x20 DUP2 ADD SWAP1 POP SWAP2 SWAP1 POP JUMP JUMPDEST PUSH1 0x0 DUP2 SWAP1 POP PUSH1 0x20 DUP3 ADD SWAP1 POP SWAP2 SWAP1 POP JUMP JUMPDEST PUSH1 0x0 DUP2 SWAP1 POP PUSH1 0x20 DUP3 ADD SWAP1 POP SWAP2 SWAP1 POP JUMP JUMPDEST PUSH1 0x0 DUP2 MLOAD SWAP1 POP SWAP2 SWAP1 POP JUMP JUMPDEST PUSH1 0x0 DUP2 MLOAD SWAP1 POP SWAP2 SWAP1 POP JUMP JUMPDEST PUSH1 0x0 DUP2 MLOAD SWAP1 POP SWAP2 SWAP1 POP JUMP JUMPDEST PUSH1 0x0 PUSH1 0x20 DUP3 ADD SWAP1 POP SWAP2 SWAP1 POP JUMP JUMPDEST PUSH1 0x0 PUSH1 0x20 DUP3 ADD SWAP1 POP SWAP2 SWAP1 POP JUMP JUMPDEST PUSH1 0x0 DUP3 DUP3 MSTORE PUSH1 0x20 DUP3 ADD SWAP1 POP SWAP3 SWAP2 POP POP JUMP JUMPDEST PUSH1 0x0 DUP3 DUP3 MSTORE PUSH1 0x20 DUP3 ADD SWAP1 POP SWAP3 SWAP2 POP POP JUMP JUMPDEST PUSH1 0x0 DUP3 DUP3 MSTORE PUSH1 0x20 DUP3 ADD SWAP1 POP SWAP3 SWAP2 POP POP JUMP JUMPDEST PUSH1 0x0 DUP3 DUP3 MSTORE PUSH1 0x20 DUP3 ADD SWAP1 POP SWAP3 SWAP2 POP POP JUMP JUMPDEST PUSH1 0x0 DUP2 SWAP1 POP SWAP3 SWAP2 POP POP JUMP JUMPDEST PUSH1 0x0 PUSH2 0x2C9F DUP3 PUSH2 0x2DFA JUMP JUMPDEST SWAP2 POP PUSH2 0x2CAA DUP4 PUSH2 0x2DFA JUMP JUMPDEST SWAP3 POP DUP3 PUSH32 0xFFFFFFFFFFFFFFFFFFFFFFFFFFFFFFFFFFFFFFFFFFFFFFFFFFFFFFFFFFFFFFFF SUB DUP3 GT ISZERO PUSH2 0x2CDF JUMPI PUSH2 0x2CDE PUSH2 0x2F1C JUMP JUMPDEST JUMPDEST DUP3 DUP3 ADD SWAP1 POP SWAP3 SWAP2 POP POP JUMP JUMPDEST PUSH1 0x0 PUSH2 0x2CF5 DUP3 PUSH2 0x2DFA JUMP JUMPDEST SWAP2 POP PUSH2 0x2D00 DUP4 PUSH2 0x2DFA JUMP JUMPDEST SWAP3 POP DUP2 PUSH32 0xFFFFFFFFFFFFFFFFFFFFFFFFFFFFFFFFFFFFFFFFFFFFFFFFFFFFFFFFFFFFFFFF DIV DUP4 GT DUP3 ISZERO ISZERO AND ISZERO PUSH2 0x2D39 JUMPI PUSH2 0x2D38 PUSH2 0x2F1C JUMP JUMPDEST JUMPDEST DUP3 DUP3 MUL SWAP1 POP SWAP3 SWAP2 POP POP JUMP JUMPDEST PUSH1 0x0 PUSH2 0x2D4F DUP3 PUSH2 0x2DFA JUMP JUMPDEST SWAP2 POP PUSH2 0x2D5A DUP4 PUSH2 0x2DFA JUMP JUMPDEST SWAP3 POP DUP3 DUP3 LT ISZERO PUSH2 0x2D6D JUMPI PUSH2 0x2D6C PUSH2 0x2F1C JUMP JUMPDEST JUMPDEST DUP3 DUP3 SUB SWAP1 POP SWAP3 SWAP2 POP POP JUMP JUMPDEST PUSH1 0x0 PUSH2 0x2D83 DUP3 PUSH2 0x2DDA JUMP JUMPDEST SWAP1 POP SWAP2 SWAP1 POP JUMP JUMPDEST PUSH1 0x0 DUP2 ISZERO ISZERO SWAP1 POP SWAP2 SWAP1 POP JUMP JUMPDEST PUSH1 0x0 DUP2 SWAP1 POP SWAP2 SWAP1 POP JUMP JUMPDEST PUSH1 0x0 PUSH32 0xFFFFFFFF00000000000000000000000000000000000000000000000000000000 DUP3 AND SWAP1 POP SWAP2 SWAP1 POP JUMP JUMPDEST PUSH1 0x0 PUSH2 0xFFFF DUP3 AND SWAP1 POP SWAP2 SWAP1 POP JUMP JUMPDEST PUSH1 0x0 PUSH20 0xFFFFFFFFFFFFFFFFFFFFFFFFFFFFFFFFFFFFFFFF DUP3 AND SWAP1 POP SWAP2 SWAP1 POP JUMP JUMPDEST PUSH1 0x0 DUP2 SWAP1 POP SWAP2 SWAP1 POP JUMP JUMPDEST DUP3 DUP2 DUP4 CALLDATACOPY PUSH1 0x0 DUP4 DUP4 ADD MSTORE POP POP POP JUMP JUMPDEST PUSH1 0x0 JUMPDEST DUP4 DUP2 LT ISZERO PUSH2 0x2E31 JUMPI DUP1 DUP3 ADD MLOAD DUP2 DUP5 ADD MSTORE PUSH1 0x20 DUP2 ADD SWAP1 POP PUSH2 0x2E16 JUMP JUMPDEST DUP4 DUP2 GT ISZERO PUSH2 0x2E40 JUMPI PUSH1 0x0 DUP5 DUP5 ADD MSTORE JUMPDEST POP POP POP POP JUMP JUMPDEST PUSH1 0x0 PUSH2 0x2E51 DUP3 PUSH2 0x2DFA JUMP JUMPDEST SWAP2 POP PUSH1 0x0 DUP3 EQ ISZERO PUSH2 0x2E65 JUMPI PUSH2 0x2E64 PUSH2 0x2F1C JUMP JUMPDEST JUMPDEST PUSH1 0x1 DUP3 SUB SWAP1 POP SWAP2 SWAP1 POP JUMP JUMPDEST PUSH1 0x0 PUSH1 0x2 DUP3 DIV SWAP1 POP PUSH1 0x1 DUP3 AND DUP1 PUSH2 0x2E88 JUMPI PUSH1 0x7F DUP3 AND SWAP2 POP JUMPDEST PUSH1 0x20 DUP3 LT DUP2 EQ ISZERO PUSH2 0x2E9C JUMPI PUSH2 0x2E9B PUSH2 0x2F4B JUMP JUMPDEST JUMPDEST POP SWAP2 SWAP1 POP JUMP JUMPDEST PUSH2 0x2EAB DUP3 PUSH2 0x3025 JUMP JUMPDEST DUP2 ADD DUP2 DUP2 LT PUSH8 0xFFFFFFFFFFFFFFFF DUP3 GT OR ISZERO PUSH2 0x2ECA JUMPI PUSH2 0x2EC9 PUSH2 0x2FD8 JUMP JUMPDEST JUMPDEST DUP1 PUSH1 0x40 MSTORE POP POP POP JUMP JUMPDEST PUSH1 0x0 PUSH2 0x2EDE DUP3 PUSH2 0x2DFA JUMP JUMPDEST SWAP2 POP PUSH32 0xFFFFFFFFFFFFFFFFFFFFFFFFFFFFFFFFFFFFFFFFFFFFFFFFFFFFFFFFFFFFFFFF DUP3 EQ ISZERO PUSH2 0x2F11 JUMPI PUSH2 0x2F10 PUSH2 0x2F1C JUMP JUMPDEST JUMPDEST PUSH1 0x1 DUP3 ADD SWAP1 POP SWAP2 SWAP1 POP JUMP JUMPDEST PUSH32 0x4E487B7100000000000000000000000000000000000000000000000000000000 PUSH1 0x0 MSTORE PUSH1 0x11 PUSH1 0x4 MSTORE PUSH1 0x24 PUSH1 0x0 REVERT JUMPDEST PUSH32 0x4E487B7100000000000000000000000000000000000000000000000000000000 PUSH1 0x0 MSTORE PUSH1 0x22 PUSH1 0x4 MSTORE PUSH1 0x24 PUSH1 0x0 REVERT JUMPDEST PUSH32 0x4E487B7100000000000000000000000000000000000000000000000000000000 PUSH1 0x0 MSTORE PUSH1 0x31 PUSH1 0x4 MSTORE PUSH1 0x24 PUSH1 0x0 REVERT JUMPDEST PUSH32 0x4E487B7100000000000000000000000000000000000000000000000000000000 PUSH1 0x0 MSTORE PUSH1 0x32 PUSH1 0x4 MSTORE PUSH1 0x24 PUSH1 0x0 REVERT JUMPDEST PUSH32 0x4E487B7100000000000000000000000000000000000000000000000000000000 PUSH1 0x0 MSTORE PUSH1 0x41 PUSH1 0x4 MSTORE PUSH1 0x24 PUSH1 0x0 REVERT JUMPDEST PUSH1 0x0 DUP1 REVERT JUMPDEST PUSH1 0x0 DUP1 REVERT JUMPDEST PUSH1 0x0 DUP1 REVERT JUMPDEST PUSH1 0x0 DUP1 REVERT JUMPDEST PUSH1 0x0 DUP1 REVERT JUMPDEST PUSH1 0x0 DUP1 REVERT JUMPDEST PUSH1 0x0 PUSH1 0x1F NOT PUSH1 0x1F DUP4 ADD AND SWAP1 POP SWAP2 SWAP1 POP JUMP JUMPDEST PUSH32 0x537472696E67733A20686578206C656E67746820696E73756666696369656E74 PUSH1 0x0 DUP3 ADD MSTORE POP JUMP JUMPDEST PUSH32 0x4E6F2072657175657374207265636F7264000000000000000000000000000000 PUSH1 0x0 DUP3 ADD MSTORE POP JUMP JUMPDEST PUSH32 0x596F7520616C7265616479207265717565737465642061636365737300000000 PUSH1 0x0 DUP3 ADD MSTORE POP JUMP JUMPDEST PUSH32 0x4E65656420726561642061636365737300000000000000000000000000000000 PUSH1 0x0 DUP3 ADD MSTORE POP JUMP JUMPDEST PUSH32 0x4E65656420777269746520616363657373000000000000000000000000000000 PUSH1 0x0 DUP3 ADD MSTORE POP JUMP JUMPDEST PUSH32 0x416363657373206E6F7420657869737400000000000000000000000000000000 PUSH1 0x0 DUP3 ADD MSTORE POP JUMP JUMPDEST PUSH32 0x4E6F742070617469656E74000000000000000000000000000000000000000000 PUSH1 0x0 DUP3 ADD MSTORE POP JUMP JUMPDEST PUSH32 0x416C726561647920696E697469616C697A656400000000000000000000000000 PUSH1 0x0 DUP3 ADD MSTORE POP JUMP JUMPDEST PUSH32 0x416363657373436F6E74726F6C3A206163636F756E7420000000000000000000 PUSH1 0x0 DUP3 ADD MSTORE POP JUMP JUMPDEST PUSH32 0x206973206D697373696E6720726F6C6520000000000000000000000000000000 PUSH1 0x0 DUP3 ADD MSTORE POP JUMP JUMPDEST PUSH32 0x416363657373436F6E74726F6C3A2063616E206F6E6C792072656E6F756E6365 PUSH1 0x0 DUP3 ADD MSTORE PUSH32 0x20726F6C657320666F722073656C660000000000000000000000000000000000 PUSH1 0x20 DUP3 ADD MSTORE POP JUMP JUMPDEST PUSH2 0x3228 DUP2 PUSH2 0x2D78 JUMP JUMPDEST DUP2 EQ PUSH2 0x3233 JUMPI PUSH1 0x0 DUP1 REVERT JUMPDEST POP JUMP JUMPDEST PUSH2 0x323F DUP2 PUSH2 0x2D8A JUMP JUMPDEST DUP2 EQ PUSH2 0x324A JUMPI PUSH1 0x0 DUP1 REVERT JUMPDEST POP JUMP JUMPDEST PUSH2 0x3256 DUP2 PUSH2 0x2D96 JUMP JUMPDEST DUP2 EQ PUSH2 0x3261 JUMPI PUSH1 0x0 DUP1 REVERT JUMPDEST POP JUMP JUMPDEST PUSH2 0x326D DUP2 PUSH2 0x2DA0 JUMP JUMPDEST DUP2 EQ PUSH2 0x3278 JUMPI PUSH1 0x0 DUP1 REVERT JUMPDEST POP JUMP JUMPDEST PUSH2 0x3284 DUP2 PUSH2 0x2DCC JUMP JUMPDEST DUP2 EQ PUSH2 0x328F JUMPI PUSH1 0x0 DUP1 REVERT JUMPDEST POP JUMP JUMPDEST PUSH2 0x329B DUP2 PUSH2 0x2DFA JUMP JUMPDEST DUP2 EQ PUSH2 0x32A6 JUMPI PUSH1 0x0 DUP1 REVERT JUMPDEST POP JUMP INVALID LOG2 PUSH5 0x6970667358 0x22 SLT KECCAK256 RETURNDATACOPY PUSH27 0x31D74CE9E3D9103522AB0C3C8A4036C120C8FB61897E613F68DB76 ISZERO 0xB7 0x5D PUSH5 0x736F6C6343 STOP ADDMOD MOD STOP CALLER "
		},
		"gasEstimates": {
			"creation": {
				"codeDepositCost": "1399800",
				"executionCost": "infinite",
				"totalCost": "infinite"
			},
			"external": {
				"addDoctor(address,bytes32,bytes32,bool)": "infinite",
				"addPatient((bytes32,bytes32),uint256,uint16,uint16,string[],(bool,bool,bool),(bool,address))": "infinite",
				"applicationRequest(address)": "infinite",
				"doctorRequest(address)": "infinite",
				"getDoctor(address)": "infinite",
				"getDoctorInfo(address[])": "infinite",
				"getPatient(address)": "infinite"
			}
		},
		"methodIdentifiers": {
			"addDoctor(address,bytes32,bytes32,bool)": "15bf3c09",
			"addPatient((bytes32,bytes32),uint256,uint16,uint16,string[],(bool,bool,bool),(bool,address))": "eb1efa7e",
			"applicationRequest(address)": "a4cbaf31",
			"doctorRequest(address)": "832ff210",
			"getDoctor(address)": "2f04e064",
			"getDoctorInfo(address[])": "f804d836",
			"getPatient(address)": "b5368e20"
		}
	},
	"abi": [
		{
			"inputs": [
				{
					"internalType": "address",
					"name": "owner_",
					"type": "address"
				},
				{
					"internalType": "bytes32",
					"name": "name_",
					"type": "bytes32"
				},
				{
					"internalType": "bytes32",
					"name": "affiliate_",
					"type": "bytes32"
				},
				{
					"internalType": "bool",
					"name": "fromApp_",
					"type": "bool"
				}
			],
			"name": "addDoctor",
			"outputs": [],
			"stateMutability": "nonpayable",
			"type": "function"
		},
		{
			"inputs": [
				{
					"components": [
						{
							"internalType": "bytes32",
							"name": "value1",
							"type": "bytes32"
						},
						{
							"internalType": "bytes32",
							"name": "value2",
							"type": "bytes32"
						}
					],
					"internalType": "struct Bytes32Pair",
					"name": "nameGender_",
					"type": "tuple"
				},
				{
					"internalType": "uint256",
					"name": "dob_",
					"type": "uint256"
				},
				{
					"internalType": "uint16",
					"name": "height_",
					"type": "uint16"
				},
				{
					"internalType": "uint16",
					"name": "weight_",
					"type": "uint16"
				},
				{
					"internalType": "string[]",
					"name": "allergy_",
					"type": "string[]"
				},
				{
					"components": [
						{
							"internalType": "bool",
							"name": "value1",
							"type": "bool"
						},
						{
							"internalType": "bool",
							"name": "value2",
							"type": "bool"
						},
						{
							"internalType": "bool",
							"name": "value3",
							"type": "bool"
						}
					],
					"internalType": "struct BoolTriple",
					"name": "alcoholSmokeCannabis_",
					"type": "tuple"
				},
				{
					"components": [
						{
							"internalType": "bool",
							"name": "fromApp",
							"type": "bool"
						},
						{
							"internalType": "address",
							"name": "addr",
							"type": "address"
						}
					],
					"internalType": "struct FromAppOption",
					"name": "option_",
					"type": "tuple"
				}
			],
			"name": "addPatient",
			"outputs": [],
			"stateMutability": "nonpayable",
			"type": "function"
		},
		{
			"inputs": [
				{
					"internalType": "address",
					"name": "patient_",
					"type": "address"
				}
			],
			"name": "applicationRequest",
			"outputs": [],
			"stateMutability": "nonpayable",
			"type": "function"
		},
		{
			"inputs": [
				{
					"internalType": "address",
					"name": "patient_",
					"type": "address"
				}
			],
			"name": "doctorRequest",
			"outputs": [],
			"stateMutability": "nonpayable",
			"type": "function"
		},
		{
			"inputs": [
				{
					"internalType": "address",
					"name": "owner_",
					"type": "address"
				}
			],
			"name": "getDoctor",
			"outputs": [
				{
					"internalType": "address",
					"name": "doctor",
					"type": "address"
				}
			],
			"stateMutability": "view",
			"type": "function"
		},
		{
			"inputs": [
				{
					"internalType": "address[]",
					"name": "doctors_",
					"type": "address[]"
				}
			],
			"name": "getDoctorInfo",
			"outputs": [
				{
					"components": [
						{
							"internalType": "bytes32",
							"name": "name",
							"type": "bytes32"
						},
						{
							"internalType": "bytes32",
							"name": "affiliate",
							"type": "bytes32"
						}
					],
					"internalType": "struct DoctorStruct[]",
					"name": "docInfo",
					"type": "tuple[]"
				}
			],
			"stateMutability": "view",
			"type": "function"
		},
		{
			"inputs": [
				{
					"internalType": "address",
					"name": "owner_",
					"type": "address"
				}
			],
			"name": "getPatient",
			"outputs": [
				{
					"internalType": "address",
					"name": "patient",
					"type": "address"
				}
			],
			"stateMutability": "view",
			"type": "function"
		}
	]
}