{
  "contractName": "DoctorFactory",
  "abi": [
    {
      "inputs": [],
      "stateMutability": "nonpayable",
      "type": "constructor"
    },
    {
      "anonymous": false,
      "inputs": [
        {
          "indexed": true,
          "internalType": "address",
          "name": "previousOwner",
          "type": "address"
        },
        {
          "indexed": true,
          "internalType": "address",
          "name": "newOwner",
          "type": "address"
        }
      ],
      "name": "OwnershipTransferred",
      "type": "event"
    },
    {
      "inputs": [],
      "name": "owner",
      "outputs": [
        {
          "internalType": "address",
          "name": "",
          "type": "address"
        }
      ],
      "stateMutability": "view",
      "type": "function"
    },
    {
      "inputs": [],
      "name": "renounceOwnership",
      "outputs": [],
      "stateMutability": "nonpayable",
      "type": "function"
    },
    {
      "inputs": [
        {
          "internalType": "address",
          "name": "newOwner",
          "type": "address"
        }
      ],
      "name": "transferOwnership",
      "outputs": [],
      "stateMutability": "nonpayable",
      "type": "function"
    },
    {
      "inputs": [
        {
          "internalType": "address",
          "name": "doctor_",
          "type": "address"
        },
        {
          "internalType": "bytes32",
          "name": "name_",
          "type": "bytes32"
        },
        {
          "internalType": "bytes32",
          "name": "affiliate_",
          "type": "bytes32"
        },
        {
          "components": [
            {
              "internalType": "bool",
              "name": "fromApp",
              "type": "bool"
            },
            {
              "internalType": "address",
              "name": "addr",
              "type": "address"
            }
          ],
          "internalType": "struct FromAppOption",
          "name": "option_",
          "type": "tuple"
        }
      ],
      "name": "createDoctor",
      "outputs": [
        {
          "internalType": "address",
          "name": "clone",
          "type": "address"
        }
      ],
      "stateMutability": "nonpayable",
      "type": "function"
    }
  ],
  "bytecode": "0x60a060405234801561001057600080fd5b5061001a33610058565b604051610026906100a8565b604051809103906000f080158015610042573d6000803e3d6000fd5b5060601b6001600160601b0319166080526100b5565b600080546001600160a01b038381166001600160a01b0319831681178455604051919092169283917f8be0079c531659141344cd1fd0a4f28419497f9722a3daafe3b4186f6b6457e09190a35050565b6110b38061071d83390190565b60805160601c61064b6100d2600039600060e7015261064b6000f3fe608060405234801561001057600080fd5b506004361061004c5760003560e01c8063715018a6146100515780638da5cb5b1461005b578063f13e48691461009e578063f2fde38b146100b1575b600080fd5b6100596100c4565b005b60005473ffffffffffffffffffffffffffffffffffffffff165b60405173ffffffffffffffffffffffffffffffffffffffff909116815260200160405180910390f35b6100756100ac36600461053b565b6100d8565b6100596100bf36600461051a565b610262565b6100cc61031e565b6100d6600061039f565b565b60006100e261031e565b61010b7f0000000000000000000000000000000000000000000000000000000000000000610414565b8251909150156101bd5760208201516040517f0716c97000000000000000000000000000000000000000000000000000000000815273ffffffffffffffffffffffffffffffffffffffff87811660048301529182166024820152336044820152606481018690526084810185905290821690630716c9709060a401600060405180830381600087803b1580156101a057600080fd5b505af11580156101b4573d6000803e3d6000fd5b5050505061025a565b6040517f0716c97000000000000000000000000000000000000000000000000000000000815273ffffffffffffffffffffffffffffffffffffffff8681166004830152600060248301523360448301526064820186905260848201859052821690630716c9709060a401600060405180830381600087803b15801561024157600080fd5b505af1158015610255573d6000803e3d6000fd5b505050505b949350505050565b61026a61031e565b73ffffffffffffffffffffffffffffffffffffffff8116610312576040517f08c379a000000000000000000000000000000000000000000000000000000000815260206004820152602660248201527f4f776e61626c653a206e6577206f776e657220697320746865207a65726f206160448201527f646472657373000000000000000000000000000000000000000000000000000060648201526084015b60405180910390fd5b61031b8161039f565b50565b60005473ffffffffffffffffffffffffffffffffffffffff1633146100d6576040517f08c379a000000000000000000000000000000000000000000000000000000000815260206004820181905260248201527f4f776e61626c653a2063616c6c6572206973206e6f7420746865206f776e65726044820152606401610309565b6000805473ffffffffffffffffffffffffffffffffffffffff8381167fffffffffffffffffffffffff0000000000000000000000000000000000000000831681178455604051919092169283917f8be0079c531659141344cd1fd0a4f28419497f9722a3daafe3b4186f6b6457e09190a35050565b60006040517f3d602d80600a3d3981f3363d3d373d3d3d363d7300000000000000000000000081528260601b60148201527f5af43d82803e903d91602b57fd5bf3000000000000000000000000000000000060288201526037816000f091505073ffffffffffffffffffffffffffffffffffffffff81166104f1576040517f08c379a000000000000000000000000000000000000000000000000000000000815260206004820152601660248201527f455243313136373a20637265617465206661696c6564000000000000000000006044820152606401610309565b919050565b803573ffffffffffffffffffffffffffffffffffffffff811681146104f157600080fd5b60006020828403121561052b578081fd5b610534826104f6565b9392505050565b60008060008084860360a0811215610551578384fd5b61055a866104f6565b9450602086013593506040860135925060407fffffffffffffffffffffffffffffffffffffffffffffffffffffffffffffffa082011215610599578182fd5b506040516040810181811067ffffffffffffffff821117156105e2577f4e487b710000000000000000000000000000000000000000000000000000000083526041600452602483fd5b604052606086013580151581146105f7578283fd5b8152610605608087016104f6565b602082015293969295509093505056fea26469706673582212209cae713e6e71d5146b1d79db56af9ef9c14d35d825af049556910139223e676d64736f6c63430008040033608060405234801561001057600080fd5b5061003c7f241ecf16d79d0f8dbfb92cbc07fe17840425976cf0667f022fe9877caa831b086000610041565b61008c565b600082815260208190526040808220600101805490849055905190918391839186917fbd79b86ffe0ab8e8776151514217cd7cacd52c909f66475c3af44e129f0b00ff9190a4505050565b6110188061009b6000396000f3fe608060405234801561001057600080fd5b50600436106100df5760003560e01c80638bb254191161008c578063d294ffe011610066578063d294ffe0146101f4578063d547741f14610207578063ec87621c1461021a578063fec331f21461024157600080fd5b80638bb254191461019357806391d14854146101a8578063a217fddf146101ec57600080fd5b80632f2ff15d116100bd5780632f2ff15d1461015257806336568abe146101655780635a9b0b891461017857600080fd5b806301ffc9a7146100e45780630716c9701461010c578063248a9ca314610121575b600080fd5b6100f76100f2366004610d8d565b610268565b60405190151581526020015b60405180910390f35b61011f61011a366004610cf6565b610301565b005b61014461012f366004610d4a565b60009081526020819052604090206001015490565b604051908152602001610103565b61011f610160366004610d62565b61048f565b61011f610173366004610d62565b6104b9565b60015460025460408051928352602083019190915201610103565b61019b61056c565b6040516101039190610e4e565b6100f76101b6366004610d62565b60009182526020828152604080842073ffffffffffffffffffffffffffffffffffffffff93909316845291905290205460ff1690565b610144600081565b61011f610202366004610cdc565b610606565b61011f610215366004610d62565b6106a8565b6101447f241ecf16d79d0f8dbfb92cbc07fe17840425976cf0667f022fe9877caa831b0881565b6101447f0af1dac7dea2fd7f7738119cec7df099dfad49aa9d2e7d17ba6b60f63ae7411f81565b60007fffffffff0000000000000000000000000000000000000000000000000000000082167f7965db0b0000000000000000000000000000000000000000000000000000000014806102fb57507f01ffc9a7000000000000000000000000000000000000000000000000000000007fffffffff000000000000000000000000000000000000000000000000000000008316145b92915050565b60045460ff1615610373576040517f08c379a000000000000000000000000000000000000000000000000000000000815260206004820152601360248201527f416c726561647920696e697469616c697a65640000000000000000000000000060448201526064015b60405180910390fd5b61039d7f0af1dac7dea2fd7f7738119cec7df099dfad49aa9d2e7d17ba6b60f63ae7411f866106cd565b6103c77f241ecf16d79d0f8dbfb92cbc07fe17840425976cf0667f022fe9877caa831b08846106cd565b6104117f241ecf16d79d0f8dbfb92cbc07fe17840425976cf0667f022fe9877caa831b087f0af1dac7dea2fd7f7738119cec7df099dfad49aa9d2e7d17ba6b60f63ae7411f6106d7565b73ffffffffffffffffffffffffffffffffffffffff841615610457576104577f241ecf16d79d0f8dbfb92cbc07fe17840425976cf0667f022fe9877caa831b08856106cd565b6001918255600255600480547fffffffffffffffffffffffffffffffffffffffffffffffffffffffffffffff00169091179055505050565b6000828152602081905260409020600101546104aa81610722565b6104b4838361072f565b505050565b73ffffffffffffffffffffffffffffffffffffffff8116331461055e576040517f08c379a000000000000000000000000000000000000000000000000000000000815260206004820152602f60248201527f416363657373436f6e74726f6c3a2063616e206f6e6c792072656e6f756e636560448201527f20726f6c657320666f722073656c660000000000000000000000000000000000606482015260840161036a565b610568828261081f565b5050565b60607f0af1dac7dea2fd7f7738119cec7df099dfad49aa9d2e7d17ba6b60f63ae7411f61059881610722565b60038054806020026020016040519081016040528092919081815260200182805480156105fb57602002820191906000526020600020905b815473ffffffffffffffffffffffffffffffffffffffff1681526001909101906020018083116105d0575b505050505091505090565b7f241ecf16d79d0f8dbfb92cbc07fe17840425976cf0667f022fe9877caa831b0861063081610722565b50600380546001810182556000919091527fc2575a0e9e593c00f959f8c92f12db2869c3395a3b0502d05e2516446f71f85b0180547fffffffffffffffffffffffff00000000000000000000000000000000000000001673ffffffffffffffffffffffffffffffffffffffff92909216919091179055565b6000828152602081905260409020600101546106c381610722565b6104b4838361081f565b610568828261072f565b600082815260208190526040808220600101805490849055905190918391839186917fbd79b86ffe0ab8e8776151514217cd7cacd52c909f66475c3af44e129f0b00ff9190a4505050565b61072c81336108d6565b50565b60008281526020818152604080832073ffffffffffffffffffffffffffffffffffffffff8516845290915290205460ff166105685760008281526020818152604080832073ffffffffffffffffffffffffffffffffffffffff85168452909152902080547fffffffffffffffffffffffffffffffffffffffffffffffffffffffffffffff001660011790556107c13390565b73ffffffffffffffffffffffffffffffffffffffff168173ffffffffffffffffffffffffffffffffffffffff16837f2f8788117e7eff1d82e926ec794901d17c78024a50270940304540a733656f0d60405160405180910390a45050565b60008281526020818152604080832073ffffffffffffffffffffffffffffffffffffffff8516845290915290205460ff16156105685760008281526020818152604080832073ffffffffffffffffffffffffffffffffffffffff8516808552925280832080547fffffffffffffffffffffffffffffffffffffffffffffffffffffffffffffff0016905551339285917ff6391f5c32d9c69d2a47ea670b442974b53935d1edc7fd64eb21e047a839171b9190a45050565b60008281526020818152604080832073ffffffffffffffffffffffffffffffffffffffff8516845290915290205460ff166105685761092c8173ffffffffffffffffffffffffffffffffffffffff1660146109a6565b6109378360206109a6565b604051602001610948929190610dcd565b604080517fffffffffffffffffffffffffffffffffffffffffffffffffffffffffffffffe0818403018152908290527f08c379a000000000000000000000000000000000000000000000000000000000825261036a91600401610ea8565b606060006109b5836002610f11565b6109c0906002610ef9565b67ffffffffffffffff8111156109ff577f4e487b7100000000000000000000000000000000000000000000000000000000600052604160045260246000fd5b6040519080825280601f01601f191660200182016040528015610a29576020820181803683370190505b5090507f300000000000000000000000000000000000000000000000000000000000000081600081518110610a87577f4e487b7100000000000000000000000000000000000000000000000000000000600052603260045260246000fd5b60200101907effffffffffffffffffffffffffffffffffffffffffffffffffffffffffffff1916908160001a9053507f780000000000000000000000000000000000000000000000000000000000000081600181518110610b11577f4e487b7100000000000000000000000000000000000000000000000000000000600052603260045260246000fd5b60200101907effffffffffffffffffffffffffffffffffffffffffffffffffffffffffffff1916908160001a9053506000610b4d846002610f11565b610b58906001610ef9565b90505b6001811115610c43577f303132333435363738396162636465660000000000000000000000000000000085600f1660108110610bc0577f4e487b7100000000000000000000000000000000000000000000000000000000600052603260045260246000fd5b1a60f81b828281518110610bfd577f4e487b7100000000000000000000000000000000000000000000000000000000600052603260045260246000fd5b60200101907effffffffffffffffffffffffffffffffffffffffffffffffffffffffffffff1916908160001a90535060049490941c93610c3c81610f7e565b9050610b5b565b508315610cac576040517f08c379a000000000000000000000000000000000000000000000000000000000815260206004820181905260248201527f537472696e67733a20686578206c656e67746820696e73756666696369656e74604482015260640161036a565b9392505050565b803573ffffffffffffffffffffffffffffffffffffffff81168114610cd757600080fd5b919050565b600060208284031215610ced578081fd5b610cac82610cb3565b600080600080600060a08688031215610d0d578081fd5b610d1686610cb3565b9450610d2460208701610cb3565b9350610d3260408701610cb3565b94979396509394606081013594506080013592915050565b600060208284031215610d5b578081fd5b5035919050565b60008060408385031215610d74578182fd5b82359150610d8460208401610cb3565b90509250929050565b600060208284031215610d9e578081fd5b81357fffffffff0000000000000000000000000000000000000000000000000000000081168114610cac578182fd5b7f416363657373436f6e74726f6c3a206163636f756e7420000000000000000000815260008351610e05816017850160208801610f4e565b7f206973206d697373696e6720726f6c65200000000000000000000000000000006017918401918201528351610e42816028840160208801610f4e565b01602801949350505050565b6020808252825182820181905260009190848201906040850190845b81811015610e9c57835173ffffffffffffffffffffffffffffffffffffffff1683529284019291840191600101610e6a565b50909695505050505050565b6020815260008251806020840152610ec7816040850160208701610f4e565b601f017fffffffffffffffffffffffffffffffffffffffffffffffffffffffffffffffe0169190910160400192915050565b60008219821115610f0c57610f0c610fb3565b500190565b6000817fffffffffffffffffffffffffffffffffffffffffffffffffffffffffffffffff0483118215151615610f4957610f49610fb3565b500290565b60005b83811015610f69578181015183820152602001610f51565b83811115610f78576000848401525b50505050565b600081610f8d57610f8d610fb3565b507fffffffffffffffffffffffffffffffffffffffffffffffffffffffffffffffff0190565b7f4e487b7100000000000000000000000000000000000000000000000000000000600052601160045260246000fdfea264697066735822122009ec8b15e3f884316906bc7d3d7e46d4229af2b88626a3110d39246eae2a670764736f6c63430008040033",
  "immutableReferences": {
    "2051": [
      {
        "length": 32,
        "start": 231
      }
    ]
  },
  "source": "// SPDX-License-Identifier: MIT\npragma solidity ^0.8.4;\n\nimport \"@openzeppelin/contracts/proxy/Clones.sol\";\nimport \"@openzeppelin/contracts/access/Ownable.sol\";\nimport \"./Doctor.sol\";\nimport \"./Helper.sol\";\n\ncontract DoctorFactory is Ownable {\n    address immutable doctorImplementation;\n\n    constructor() {\n        doctorImplementation = address(new Doctor());\n    }\n\n    function createDoctor(\n        address doctor_,\n        bytes32 name_,\n        bytes32 affiliate_,\n        FromAppOption memory option_\n    ) external onlyOwner returns (address clone) {\n        clone = Clones.clone(doctorImplementation);\n        if (option_.fromApp) {\n            Doctor(clone).initialize(\n                doctor_,\n                option_.addr,\n                msg.sender,\n                name_,\n                affiliate_\n            );\n        } else {\n            Doctor(clone).initialize(\n                doctor_,\n                address(0),\n                msg.sender,\n                name_,\n                affiliate_\n            );\n        }\n    }\n}\n",
  "sourcePath": "/home/leslie/Documents/GitHub/svelte-blockchain-template-sveltekit/contracts/DoctorFactory.sol",
  "compiler": {
    "name": "solc",
    "version": "0.8.4+commit.c7e474f2.Emscripten.clang"
  },
  "schemaVersion": "3.4.9",
  "updatedAt": "2023-06-23T09:26:13.540Z",
  "devdoc": {
    "kind": "dev",
    "methods": {
      "owner()": {
        "details": "Returns the address of the current owner."
      },
      "renounceOwnership()": {
        "details": "Leaves the contract without owner. It will not be possible to call `onlyOwner` functions anymore. Can only be called by the current owner. NOTE: Renouncing ownership will leave the contract without an owner, thereby removing any functionality that is only available to the owner."
      },
      "transferOwnership(address)": {
        "details": "Transfers ownership of the contract to a new account (`newOwner`). Can only be called by the current owner."
      }
    },
    "version": 1
  },
  "userdoc": {
    "kind": "user",
    "methods": {},
    "version": 1
  }
}