{
  "contractName": "Patient",
  "abi": [
    {
      "inputs": [],
      "stateMutability": "nonpayable",
      "type": "constructor"
    },
    {
      "anonymous": false,
      "inputs": [
        {
          "indexed": true,
          "internalType": "bytes32",
          "name": "role",
          "type": "bytes32"
        },
        {
          "indexed": true,
          "internalType": "bytes32",
          "name": "previousAdminRole",
          "type": "bytes32"
        },
        {
          "indexed": true,
          "internalType": "bytes32",
          "name": "newAdminRole",
          "type": "bytes32"
        }
      ],
      "name": "RoleAdminChanged",
      "type": "event"
    },
    {
      "anonymous": false,
      "inputs": [
        {
          "indexed": true,
          "internalType": "bytes32",
          "name": "role",
          "type": "bytes32"
        },
        {
          "indexed": true,
          "internalType": "address",
          "name": "account",
          "type": "address"
        },
        {
          "indexed": true,
          "internalType": "address",
          "name": "sender",
          "type": "address"
        }
      ],
      "name": "RoleGranted",
      "type": "event"
    },
    {
      "anonymous": false,
      "inputs": [
        {
          "indexed": true,
          "internalType": "bytes32",
          "name": "role",
          "type": "bytes32"
        },
        {
          "indexed": true,
          "internalType": "address",
          "name": "account",
          "type": "address"
        },
        {
          "indexed": true,
          "internalType": "address",
          "name": "sender",
          "type": "address"
        }
      ],
      "name": "RoleRevoked",
      "type": "event"
    },
    {
      "inputs": [],
      "name": "APPLICATION_ROLE",
      "outputs": [
        {
          "internalType": "bytes32",
          "name": "",
          "type": "bytes32"
        }
      ],
      "stateMutability": "view",
      "type": "function"
    },
    {
      "inputs": [],
      "name": "DEFAULT_ADMIN_ROLE",
      "outputs": [
        {
          "internalType": "bytes32",
          "name": "",
          "type": "bytes32"
        }
      ],
      "stateMutability": "view",
      "type": "function"
    },
    {
      "inputs": [],
      "name": "DOCTOR_ROLE",
      "outputs": [
        {
          "internalType": "bytes32",
          "name": "",
          "type": "bytes32"
        }
      ],
      "stateMutability": "view",
      "type": "function"
    },
    {
      "inputs": [],
      "name": "MANAGER_ROLE",
      "outputs": [
        {
          "internalType": "bytes32",
          "name": "",
          "type": "bytes32"
        }
      ],
      "stateMutability": "view",
      "type": "function"
    },
    {
      "inputs": [],
      "name": "PATIENT_ROLE",
      "outputs": [
        {
          "internalType": "bytes32",
          "name": "",
          "type": "bytes32"
        }
      ],
      "stateMutability": "view",
      "type": "function"
    },
    {
      "inputs": [
        {
          "internalType": "bytes32",
          "name": "role",
          "type": "bytes32"
        }
      ],
      "name": "getRoleAdmin",
      "outputs": [
        {
          "internalType": "bytes32",
          "name": "",
          "type": "bytes32"
        }
      ],
      "stateMutability": "view",
      "type": "function"
    },
    {
      "inputs": [
        {
          "internalType": "bytes32",
          "name": "role",
          "type": "bytes32"
        },
        {
          "internalType": "uint256",
          "name": "index",
          "type": "uint256"
        }
      ],
      "name": "getRoleMember",
      "outputs": [
        {
          "internalType": "address",
          "name": "",
          "type": "address"
        }
      ],
      "stateMutability": "view",
      "type": "function"
    },
    {
      "inputs": [
        {
          "internalType": "bytes32",
          "name": "role",
          "type": "bytes32"
        }
      ],
      "name": "getRoleMemberCount",
      "outputs": [
        {
          "internalType": "uint256",
          "name": "",
          "type": "uint256"
        }
      ],
      "stateMutability": "view",
      "type": "function"
    },
    {
      "inputs": [
        {
          "internalType": "bytes32",
          "name": "role",
          "type": "bytes32"
        },
        {
          "internalType": "address",
          "name": "account",
          "type": "address"
        }
      ],
      "name": "grantRole",
      "outputs": [],
      "stateMutability": "nonpayable",
      "type": "function"
    },
    {
      "inputs": [
        {
          "internalType": "bytes32",
          "name": "role",
          "type": "bytes32"
        },
        {
          "internalType": "address",
          "name": "account",
          "type": "address"
        }
      ],
      "name": "hasRole",
      "outputs": [
        {
          "internalType": "bool",
          "name": "",
          "type": "bool"
        }
      ],
      "stateMutability": "view",
      "type": "function"
    },
    {
      "inputs": [
        {
          "internalType": "bytes32",
          "name": "role",
          "type": "bytes32"
        },
        {
          "internalType": "address",
          "name": "account",
          "type": "address"
        }
      ],
      "name": "renounceRole",
      "outputs": [],
      "stateMutability": "nonpayable",
      "type": "function"
    },
    {
      "inputs": [
        {
          "internalType": "bytes32",
          "name": "role",
          "type": "bytes32"
        },
        {
          "internalType": "address",
          "name": "account",
          "type": "address"
        }
      ],
      "name": "revokeRole",
      "outputs": [],
      "stateMutability": "nonpayable",
      "type": "function"
    },
    {
      "inputs": [
        {
          "internalType": "bytes4",
          "name": "interfaceId",
          "type": "bytes4"
        }
      ],
      "name": "supportsInterface",
      "outputs": [
        {
          "internalType": "bool",
          "name": "",
          "type": "bool"
        }
      ],
      "stateMutability": "view",
      "type": "function"
    },
    {
      "inputs": [],
      "name": "hasReadAccess",
      "outputs": [],
      "stateMutability": "view",
      "type": "function"
    },
    {
      "inputs": [],
      "name": "hasWriteAccess",
      "outputs": [],
      "stateMutability": "view",
      "type": "function"
    },
    {
      "inputs": [
        {
          "internalType": "address",
          "name": "user_",
          "type": "address"
        }
      ],
      "name": "checkDoctor",
      "outputs": [
        {
          "internalType": "bool",
          "name": "",
          "type": "bool"
        }
      ],
      "stateMutability": "view",
      "type": "function"
    },
    {
      "inputs": [
        {
          "internalType": "address",
          "name": "manager_",
          "type": "address"
        },
        {
          "internalType": "address",
          "name": "owner_",
          "type": "address"
        },
        {
          "internalType": "address",
          "name": "app_",
          "type": "address"
        },
        {
          "components": [
            {
              "internalType": "bytes32",
              "name": "value1",
              "type": "bytes32"
            },
            {
              "internalType": "bytes32",
              "name": "value2",
              "type": "bytes32"
            }
          ],
          "internalType": "struct Bytes32Pair",
          "name": "nameGender_",
          "type": "tuple"
        },
        {
          "internalType": "uint256",
          "name": "dob_",
          "type": "uint256"
        },
        {
          "components": [
            {
              "internalType": "uint16",
              "name": "value1",
              "type": "uint16"
            },
            {
              "internalType": "uint16",
              "name": "value2",
              "type": "uint16"
            }
          ],
          "internalType": "struct SmallUintPair",
          "name": "physique_",
          "type": "tuple"
        },
        {
          "internalType": "string[]",
          "name": "allergy_",
          "type": "string[]"
        },
        {
          "components": [
            {
              "internalType": "bool",
              "name": "value1",
              "type": "bool"
            },
            {
              "internalType": "bool",
              "name": "value2",
              "type": "bool"
            },
            {
              "internalType": "bool",
              "name": "value3",
              "type": "bool"
            }
          ],
          "internalType": "struct BoolTriple",
          "name": "alcoholSmokeCannabis_",
          "type": "tuple"
        }
      ],
      "name": "initialize",
      "outputs": [],
      "stateMutability": "nonpayable",
      "type": "function"
    },
    {
      "inputs": [],
      "name": "getInfo",
      "outputs": [
        {
          "components": [
            {
              "internalType": "bytes32",
              "name": "value1",
              "type": "bytes32"
            },
            {
              "internalType": "bytes32",
              "name": "value2",
              "type": "bytes32"
            }
          ],
          "internalType": "struct Bytes32Pair",
          "name": "",
          "type": "tuple"
        },
        {
          "internalType": "uint256",
          "name": "",
          "type": "uint256"
        },
        {
          "components": [
            {
              "internalType": "uint16",
              "name": "value1",
              "type": "uint16"
            },
            {
              "internalType": "uint16",
              "name": "value2",
              "type": "uint16"
            }
          ],
          "internalType": "struct SmallUintPair",
          "name": "",
          "type": "tuple"
        },
        {
          "internalType": "string[]",
          "name": "",
          "type": "string[]"
        },
        {
          "components": [
            {
              "internalType": "bool",
              "name": "value1",
              "type": "bool"
            },
            {
              "internalType": "bool",
              "name": "value2",
              "type": "bool"
            },
            {
              "internalType": "bool",
              "name": "value3",
              "type": "bool"
            }
          ],
          "internalType": "struct BoolTriple",
          "name": "",
          "type": "tuple"
        },
        {
          "internalType": "address[]",
          "name": "",
          "type": "address[]"
        },
        {
          "internalType": "address[]",
          "name": "",
          "type": "address[]"
        }
      ],
      "stateMutability": "view",
      "type": "function"
    },
    {
      "inputs": [
        {
          "internalType": "bytes32",
          "name": "name_",
          "type": "bytes32"
        }
      ],
      "name": "setName",
      "outputs": [],
      "stateMutability": "nonpayable",
      "type": "function"
    },
    {
      "inputs": [
        {
          "internalType": "bytes32",
          "name": "gender_",
          "type": "bytes32"
        }
      ],
      "name": "setGender",
      "outputs": [],
      "stateMutability": "nonpayable",
      "type": "function"
    },
    {
      "inputs": [
        {
          "internalType": "uint256",
          "name": "dob_",
          "type": "uint256"
        }
      ],
      "name": "setDob",
      "outputs": [],
      "stateMutability": "nonpayable",
      "type": "function"
    },
    {
      "inputs": [
        {
          "components": [
            {
              "internalType": "uint16",
              "name": "value1",
              "type": "uint16"
            },
            {
              "internalType": "uint16",
              "name": "value2",
              "type": "uint16"
            }
          ],
          "internalType": "struct SmallUintPair",
          "name": "physique_",
          "type": "tuple"
        }
      ],
      "name": "setPhysique",
      "outputs": [],
      "stateMutability": "nonpayable",
      "type": "function"
    },
    {
      "inputs": [
        {
          "internalType": "string[]",
          "name": "allergy_",
          "type": "string[]"
        }
      ],
      "name": "setAllergy",
      "outputs": [],
      "stateMutability": "nonpayable",
      "type": "function"
    },
    {
      "inputs": [
        {
          "components": [
            {
              "internalType": "bool",
              "name": "value1",
              "type": "bool"
            },
            {
              "internalType": "bool",
              "name": "value2",
              "type": "bool"
            },
            {
              "internalType": "bool",
              "name": "value3",
              "type": "bool"
            }
          ],
          "internalType": "struct BoolTriple",
          "name": "habits_",
          "type": "tuple"
        }
      ],
      "name": "setHabits",
      "outputs": [],
      "stateMutability": "nonpayable",
      "type": "function"
    },
    {
      "inputs": [
        {
          "internalType": "address",
          "name": "treatment_",
          "type": "address"
        }
      ],
      "name": "addTreatment",
      "outputs": [],
      "stateMutability": "nonpayable",
      "type": "function"
    },
    {
      "inputs": [
        {
          "internalType": "address",
          "name": "oldTreatment",
          "type": "address"
        }
      ],
      "name": "removeTreatment",
      "outputs": [],
      "stateMutability": "nonpayable",
      "type": "function"
    },
    {
      "inputs": [
        {
          "internalType": "address",
          "name": "doctor_",
          "type": "address"
        }
      ],
      "name": "doctorRequestAccess",
      "outputs": [],
      "stateMutability": "nonpayable",
      "type": "function"
    },
    {
      "inputs": [
        {
          "internalType": "address",
          "name": "app_",
          "type": "address"
        }
      ],
      "name": "appRequestAccess",
      "outputs": [],
      "stateMutability": "nonpayable",
      "type": "function"
    },
    {
      "inputs": [],
      "name": "getRequestQueue",
      "outputs": [
        {
          "internalType": "address[]",
          "name": "queue",
          "type": "address[]"
        }
      ],
      "stateMutability": "view",
      "type": "function"
    },
    {
      "inputs": [
        {
          "internalType": "address",
          "name": "doctor_",
          "type": "address"
        }
      ],
      "name": "acceptRequest",
      "outputs": [],
      "stateMutability": "nonpayable",
      "type": "function"
    },
    {
      "inputs": [
        {
          "internalType": "address",
          "name": "doctor_",
          "type": "address"
        }
      ],
      "name": "revokeAccess",
      "outputs": [],
      "stateMutability": "nonpayable",
      "type": "function"
    }
  ],
  "bytecode": "0x60806040523480156200001157600080fd5b506200002e60008051602062002fea8339815191526000620000e5565b620000697f241ecf16d79d0f8dbfb92cbc07fe17840425976cf0667f022fe9877caa831b0860008051602062002fea833981519152620000e5565b620000a47f0af1dac7dea2fd7f7738119cec7df099dfad49aa9d2e7d17ba6b60f63ae7411f60008051602062002fea833981519152620000e5565b620000df7faf31c50b4aab7af0193b792816047837f36c88a23bbb4d0e3581c88cb4bf86ab60008051602062002fea833981519152620000e5565b62000130565b600082815260208190526040808220600101805490849055905190918391839186917fbd79b86ffe0ab8e8776151514217cd7cacd52c909f66475c3af44e129f0b00ff9190a4505050565b612eaa80620001406000396000f3fe608060405234801561001057600080fd5b50600436106101e55760003560e01c8063689aa6551161010f578063a217fddf116100a2578063d547741f11610071578063d547741f14610487578063e3a5a4de1461049a578063ec87621c146104ad578063fec331f2146104d457600080fd5b8063a217fddf14610432578063ac5cb97d1461043a578063ca15c87314610461578063d294ffe01461047457600080fd5b80639010d07c116100de5780639010d07c1461038e57806391d14854146103c65780639aca66f81461040a5780639f0a5c151461041d57600080fd5b8063689aa655146103425780636dd902d214610355578063793de5f01461036857806385e685311461037b57600080fd5b80632b8cc3461161018757806351e66efb1161015657806351e66efb146102f95780635a9b0b891461030c5780635ac801fe14610327578063602792b01461033a57600080fd5b80632b8cc346146102ad5780632f2ff15d146102c057806336568abe146102d357806338a6a738146102e657600080fd5b8063101d6416116101c3578063101d64161461025157806316fac09c1461026457806323fcceed14610277578063248a9ca31461028a57600080fd5b806301ffc9a7146101ea578063080121da146102125780630c9a8ecf14610247575b600080fd5b6101fd6101f8366004612987565b6104fb565b60405190151581526020015b60405180910390f35b6102397faf31c50b4aab7af0193b792816047837f36c88a23bbb4d0e3581c88cb4bf86ab81565b604051908152602001610209565b61024f610557565b005b61024f61025f3660046129e2565b61062f565b61024f6102723660046127fd565b610680565b61024f6102853660046128e8565b6109f1565b610239610298366004612923565b60009081526020819052604090206001015490565b61024f6102bb3660046127e3565b610a10565b61024f6102ce36600461293b565b610cda565b61024f6102e136600461293b565b610d04565b61024f6102f43660046129c7565b610db3565b61024f6103073660046127e3565b610e67565b610314610fcf565b6040516102099796959493929190612b3e565b61024f610335366004612923565b61134e565b61024f61135b565b61024f610350366004612923565b61149e565b61024f610363366004612923565b6114ab565b6101fd6103763660046127e3565b6114b8565b61024f6103893660046127e3565b611514565b6103a161039c366004612966565b611621565b60405173ffffffffffffffffffffffffffffffffffffffff9091168152602001610209565b6101fd6103d436600461293b565b60009182526020828152604080842073ffffffffffffffffffffffffffffffffffffffff93909316845291905290205460ff1690565b61024f6104183660046127e3565b611640565b61042561177a565b6040516102099190612b18565b610239600081565b6102397f72606200fac42b7dc86b75901d61ecfab2a4a1a6eded478b97a428094891abed81565b61023961046f366004612923565b6117f1565b61024f6104823660046127e3565b611808565b61024f61049536600461293b565b6118aa565b61024f6104a83660046127e3565b6118cf565b6102397f241ecf16d79d0f8dbfb92cbc07fe17840425976cf0667f022fe9877caa831b0881565b6102397f0af1dac7dea2fd7f7738119cec7df099dfad49aa9d2e7d17ba6b60f63ae7411f81565b60007fffffffff0000000000000000000000000000000000000000000000000000000082167f5a05180f000000000000000000000000000000000000000000000000000000001480610551575061055182611a09565b92915050565b3360009081527fdf1cb6f79b8687a60e91aced08290a53cb47a179b80c0c7c836d1c923c9a5647602052604090205460ff16806105c257503360009081527f01269c68c28a67305f4a2d47532888d6c961251cfcb06c9cdb6066d32b24b320602052604090205460ff165b61062d576040517f08c379a000000000000000000000000000000000000000000000000000000000815260206004820152601060248201527f4e6565642072656164206163636573730000000000000000000000000000000060448201526064015b60405180910390fd5b565b61063761135b565b80516005805460209093015161ffff90811662010000027fffffffffffffffffffffffffffffffffffffffffffffffffffffffff00000000909416921691909117919091179055565b600554670100000000000000900460ff16156106f8576040517f08c379a000000000000000000000000000000000000000000000000000000000815260206004820152601360248201527f416c726561647920696e697469616c697a6564000000000000000000000000006044820152606401610624565b6107237f72606200fac42b7dc86b75901d61ecfab2a4a1a6eded478b97a428094891abed6000611aa0565b61076d7f241ecf16d79d0f8dbfb92cbc07fe17840425976cf0667f022fe9877caa831b087f72606200fac42b7dc86b75901d61ecfab2a4a1a6eded478b97a428094891abed611aa0565b6107b77f0af1dac7dea2fd7f7738119cec7df099dfad49aa9d2e7d17ba6b60f63ae7411f7f72606200fac42b7dc86b75901d61ecfab2a4a1a6eded478b97a428094891abed611aa0565b6108017faf31c50b4aab7af0193b792816047837f36c88a23bbb4d0e3581c88cb4bf86ab7f72606200fac42b7dc86b75901d61ecfab2a4a1a6eded478b97a428094891abed611aa0565b61080c600088611aeb565b6108367f72606200fac42b7dc86b75901d61ecfab2a4a1a6eded478b97a428094891abed88611aeb565b6108607f241ecf16d79d0f8dbfb92cbc07fe17840425976cf0667f022fe9877caa831b0889611aeb565b73ffffffffffffffffffffffffffffffffffffffff8616156108a6576108a67faf31c50b4aab7af0193b792816047837f36c88a23bbb4d0e3581c88cb4bf86ab87611aeb565b845160025560208086015160035560048590558351600580548684015161ffff90811662010000027fffffffffffffffffffffffffffffffffffffffffffffffffffffffff0000000090921693169290921791909117905582516109109160069190850190612460565b5080516005805460208401516040909401517fffffffffffffffffffffffffffffffffffffffffffffffff00ffffffffffffff901515660100000000000002167fffffffffffffffffffffffffffffffffffffffffffffffff0000ffffffffffff94151565010000000000027fffffffffffffffffffffffffffffffffffffffffffffffffffff00ffffffffff94151564010000000002949094167fffffffffffffffffffffffffffffffffffffffffffffffffffff0000ffffffff9092169190911792909217929092161767010000000000000017905550505050505050565b6109f961135b565b8051610a0c906006906020840190612460565b5050565b610a18611af5565b60008060005b600854811015610abf578373ffffffffffffffffffffffffffffffffffffffff1660088281548110610a79577f4e487b7100000000000000000000000000000000000000000000000000000000600052603260045260246000fd5b60009182526020909120015473ffffffffffffffffffffffffffffffffffffffff161415610aad5760019250809150610abf565b80610ab781612ddd565b915050610a1e565b50600182151514610b2c576040517f08c379a000000000000000000000000000000000000000000000000000000000815260206004820152601260248201527f4e6f207265717565737473207265636f726400000000000000000000000000006044820152606401610624565b610b567f0af1dac7dea2fd7f7738119cec7df099dfad49aa9d2e7d17ba6b60f63ae7411f84610cda565b60088054610b6690600190612d0d565b81548110610b9d577f4e487b7100000000000000000000000000000000000000000000000000000000600052603260045260246000fd5b6000918252602090912001546008805473ffffffffffffffffffffffffffffffffffffffff9092169183908110610bfd577f4e487b7100000000000000000000000000000000000000000000000000000000600052603260045260246000fd5b9060005260206000200160006101000a81548173ffffffffffffffffffffffffffffffffffffffff021916908373ffffffffffffffffffffffffffffffffffffffff1602179055506008805480610c7d577f4e487b7100000000000000000000000000000000000000000000000000000000600052603160045260246000fd5b60008281526020902081017fffffffffffffffffffffffffffffffffffffffffffffffffffffffffffffffff90810180547fffffffffffffffffffffffff0000000000000000000000000000000000000000169055019055505050565b600082815260208190526040902060010154610cf581611b8d565b610cff8383611b9a565b505050565b73ffffffffffffffffffffffffffffffffffffffff81163314610da9576040517f08c379a000000000000000000000000000000000000000000000000000000000815260206004820152602f60248201527f416363657373436f6e74726f6c3a2063616e206f6e6c792072656e6f756e636560448201527f20726f6c657320666f722073656c6600000000000000000000000000000000006064820152608401610624565b610a0c8282611bbc565b610dbb61135b565b805160058054602084015160409094015115156601000000000000027fffffffffffffffffffffffffffffffffffffffffffffffffff00ffffffffffff94151565010000000000027fffffffffffffffffffffffffffffffffffffffffffffffffffff00ffffffffff94151564010000000002949094167fffffffffffffffffffffffffffffffffffffffffffffffffffff0000ffffffff909216919091179290921792909216179055565b7faf31c50b4aab7af0193b792816047837f36c88a23bbb4d0e3581c88cb4bf86ab610e9181611b8d565b6000610e9c83611bde565b6007549091508114610cff5760078054610eb890600190612d0d565b81548110610eef577f4e487b7100000000000000000000000000000000000000000000000000000000600052603260045260246000fd5b6000918252602090912001546007805473ffffffffffffffffffffffffffffffffffffffff9092169183908110610f4f577f4e487b7100000000000000000000000000000000000000000000000000000000600052603260045260246000fd5b9060005260206000200160006101000a81548173ffffffffffffffffffffffffffffffffffffffff021916908373ffffffffffffffffffffffffffffffffffffffff1602179055506007805480610c7d577f4e487b7100000000000000000000000000000000000000000000000000000000600052603160045260246000fd5b60408051808201909152600080825260208201526040805180820190915260008082526020820181905290604080516060818101835260008083526020830181905292820192909252606080611023610557565b60006006805480602002602001604051908101604052809291908181526020016000905b828210156110f357838290600052602060002001805461106690612d89565b80601f016020809104026020016040519081016040528092919081815260200182805461109290612d89565b80156110df5780601f106110b4576101008083540402835291602001916110df565b820191906000526020600020905b8154815290600101906020018083116110c257829003601f168201915b505050505081526020019060010190611047565b505050509050600060078054905067ffffffffffffffff811115611140577f4e487b7100000000000000000000000000000000000000000000000000000000600052604160045260246000fd5b604051908082528060200260200182016040528015611169578160200160208202803683370190505b50905060005b815181101561124d57600781815481106111b2577f4e487b7100000000000000000000000000000000000000000000000000000000600052603260045260246000fd5b9060005260206000200160009054906101000a900473ffffffffffffffffffffffffffffffffffffffff16828281518110611216577f4e487b7100000000000000000000000000000000000000000000000000000000600052603260045260246000fd5b73ffffffffffffffffffffffffffffffffffffffff909216602092830291909101909101528061124581612ddd565b91505061116f565b5060408051808201825260025481526003546020808301919091526004548351808501855260055461ffff80821683526201000082041682850152855160608101875260ff640100000000830481161515825265010000000000830481161515828701526601000000000000909204909116151581870152600880548751818702810187019098528088529596939592948994929389939183919083018282801561132e57602002820191906000526020600020905b815473ffffffffffffffffffffffffffffffffffffffff168152600190910190602001808311611303575b505050505090509850985098509850985098509850505090919293949596565b611356611af5565b600255565b3360009081527fdf1cb6f79b8687a60e91aced08290a53cb47a179b80c0c7c836d1c923c9a5647602052604090205460ff16806113c657503360009081527f01269c68c28a67305f4a2d47532888d6c961251cfcb06c9cdb6066d32b24b320602052604090205460ff165b806113ff57503360009081527fe84508f2c7fa9c351146748b3025cb78b45df37d868e48c6a75102fecdeee645602052604090205460ff165b8061143857503360009081527f41c90bc1e97eee4405eb05513a260f423542caa5209bb2fbb701e6c3dd7921cd602052604090205460ff165b61062d576040517f08c379a000000000000000000000000000000000000000000000000000000000815260206004820152601160248201527f4e656564207772697465206163636573730000000000000000000000000000006044820152606401610624565b6114a6611af5565b600355565b6114b3611af5565b600455565b60006114c261135b565b73ffffffffffffffffffffffffffffffffffffffff821660009081527fdf1cb6f79b8687a60e91aced08290a53cb47a179b80c0c7c836d1c923c9a5647602052604090205460ff16610551565b919050565b61151c611af5565b73ffffffffffffffffffffffffffffffffffffffff811660009081526009602052604090205460ff166115ab576040517f08c379a000000000000000000000000000000000000000000000000000000000815260206004820152601060248201527f416363657373206e6f74206578697374000000000000000000000000000000006044820152606401610624565b6115d57f0af1dac7dea2fd7f7738119cec7df099dfad49aa9d2e7d17ba6b60f63ae7411f826118aa565b73ffffffffffffffffffffffffffffffffffffffff16600090815260096020526040902080547fffffffffffffffffffffffffffffffffffffffffffffffffffffffffffffff00169055565b60008281526001602052604081206116399083611c81565b9392505050565b73ffffffffffffffffffffffffffffffffffffffff811660009081526009602052604090205460ff16156116d0576040517f08c379a000000000000000000000000000000000000000000000000000000000815260206004820152601c60248201527f596f7520616c72656164792072657175657374656420616363657373000000006044820152606401610624565b6008805460018181019092557ff3f7a9fe364faab93b216da50a3214154f22a0a2b415b23a84c8169e8b636ee301805473ffffffffffffffffffffffffffffffffffffffff9093167fffffffffffffffffffffffff00000000000000000000000000000000000000009093168317905560009182526009602052604090912080547fffffffffffffffffffffffffffffffffffffffffffffffffffffffffffffff00169091179055565b6060611784611af5565b60088054806020026020016040519081016040528092919081815260200182805480156117e757602002820191906000526020600020905b815473ffffffffffffffffffffffffffffffffffffffff1681526001909101906020018083116117bc575b5050505050905090565b600081815260016020526040812061055190611c8d565b7faf31c50b4aab7af0193b792816047837f36c88a23bbb4d0e3581c88cb4bf86ab61183281611b8d565b50600780546001810182556000919091527fa66cc928b5edb82af9bd49922954155ab7b0942694bea4ce44661d9a8736c6880180547fffffffffffffffffffffffff00000000000000000000000000000000000000001673ffffffffffffffffffffffffffffffffffffffff92909216919091179055565b6000828152602081905260409020600101546118c581611b8d565b610cff8383611bbc565b73ffffffffffffffffffffffffffffffffffffffff81166000908152600a602052604090205460ff161561195f576040517f08c379a000000000000000000000000000000000000000000000000000000000815260206004820152601c60248201527f596f7520616c72656164792072657175657374656420616363657373000000006044820152606401610624565b6008805460018181019092557ff3f7a9fe364faab93b216da50a3214154f22a0a2b415b23a84c8169e8b636ee301805473ffffffffffffffffffffffffffffffffffffffff9093167fffffffffffffffffffffffff0000000000000000000000000000000000000000909316831790556000918252600a602052604090912080547fffffffffffffffffffffffffffffffffffffffffffffffffffffffffffffff00169091179055565b60007fffffffff0000000000000000000000000000000000000000000000000000000082167f7965db0b00000000000000000000000000000000000000000000000000000000148061055157507f01ffc9a7000000000000000000000000000000000000000000000000000000007fffffffff00000000000000000000000000000000000000000000000000000000831614610551565b600082815260208190526040808220600101805490849055905190918391839186917fbd79b86ffe0ab8e8776151514217cd7cacd52c909f66475c3af44e129f0b00ff9190a4505050565b610a0c8282611b9a565b3360009081527f01269c68c28a67305f4a2d47532888d6c961251cfcb06c9cdb6066d32b24b320602052604090205460ff1661062d576040517f08c379a000000000000000000000000000000000000000000000000000000000815260206004820152600b60248201527f4e6f742070617469656e740000000000000000000000000000000000000000006044820152606401610624565b611b978133611c97565b50565b611ba48282611d67565b6000828152600160205260409020610cff9082611e57565b611bc68282611e79565b6000828152600160205260409020610cff9082611f30565b600754600090815b81811015611c76578373ffffffffffffffffffffffffffffffffffffffff1660078281548110611c3f577f4e487b7100000000000000000000000000000000000000000000000000000000600052603260045260246000fd5b60009182526020909120015473ffffffffffffffffffffffffffffffffffffffff161415611c6e579392505050565b600101611be6565b505060075492915050565b60006116398383611f52565b6000610551825490565b60008281526020818152604080832073ffffffffffffffffffffffffffffffffffffffff8516845290915290205460ff16610a0c57611ced8173ffffffffffffffffffffffffffffffffffffffff166014611fa3565b611cf8836020611fa3565b604051602001611d09929190612a97565b604080517fffffffffffffffffffffffffffffffffffffffffffffffffffffffffffffffe0818403018152908290527f08c379a000000000000000000000000000000000000000000000000000000000825261062491600401612b2b565b60008281526020818152604080832073ffffffffffffffffffffffffffffffffffffffff8516845290915290205460ff16610a0c5760008281526020818152604080832073ffffffffffffffffffffffffffffffffffffffff85168452909152902080547fffffffffffffffffffffffffffffffffffffffffffffffffffffffffffffff00166001179055611df93390565b73ffffffffffffffffffffffffffffffffffffffff168173ffffffffffffffffffffffffffffffffffffffff16837f2f8788117e7eff1d82e926ec794901d17c78024a50270940304540a733656f0d60405160405180910390a45050565b60006116398373ffffffffffffffffffffffffffffffffffffffff84166122a9565b60008281526020818152604080832073ffffffffffffffffffffffffffffffffffffffff8516845290915290205460ff1615610a0c5760008281526020818152604080832073ffffffffffffffffffffffffffffffffffffffff8516808552925280832080547fffffffffffffffffffffffffffffffffffffffffffffffffffffffffffffff0016905551339285917ff6391f5c32d9c69d2a47ea670b442974b53935d1edc7fd64eb21e047a839171b9190a45050565b60006116398373ffffffffffffffffffffffffffffffffffffffff84166122f8565b6000826000018281548110611f90577f4e487b7100000000000000000000000000000000000000000000000000000000600052603260045260246000fd5b9060005260206000200154905092915050565b60606000611fb2836002612cd0565b611fbd906002612cb8565b67ffffffffffffffff811115611ffc577f4e487b7100000000000000000000000000000000000000000000000000000000600052604160045260246000fd5b6040519080825280601f01601f191660200182016040528015612026576020820181803683370190505b5090507f300000000000000000000000000000000000000000000000000000000000000081600081518110612084577f4e487b7100000000000000000000000000000000000000000000000000000000600052603260045260246000fd5b60200101907effffffffffffffffffffffffffffffffffffffffffffffffffffffffffffff1916908160001a9053507f78000000000000000000000000000000000000000000000000000000000000008160018151811061210e577f4e487b7100000000000000000000000000000000000000000000000000000000600052603260045260246000fd5b60200101907effffffffffffffffffffffffffffffffffffffffffffffffffffffffffffff1916908160001a905350600061214a846002612cd0565b612155906001612cb8565b90505b6001811115612240577f303132333435363738396162636465660000000000000000000000000000000085600f16601081106121bd577f4e487b7100000000000000000000000000000000000000000000000000000000600052603260045260246000fd5b1a60f81b8282815181106121fa577f4e487b7100000000000000000000000000000000000000000000000000000000600052603260045260246000fd5b60200101907effffffffffffffffffffffffffffffffffffffffffffffffffffffffffffff1916908160001a90535060049490941c9361223981612d54565b9050612158565b508315611639576040517f08c379a000000000000000000000000000000000000000000000000000000000815260206004820181905260248201527f537472696e67733a20686578206c656e67746820696e73756666696369656e746044820152606401610624565b60008181526001830160205260408120546122f057508154600181810184556000848152602080822090930184905584548482528286019093526040902091909155610551565b506000610551565b6000818152600183016020526040812054801561245657600061231c600183612d0d565b855490915060009061233090600190612d0d565b90508181146123e3576000866000018281548110612377577f4e487b7100000000000000000000000000000000000000000000000000000000600052603260045260246000fd5b90600052602060002001549050808760000184815481106123c1577f4e487b7100000000000000000000000000000000000000000000000000000000600052603260045260246000fd5b6000918252602080832090910192909255918252600188019052604090208390555b855486908061241b577f4e487b7100000000000000000000000000000000000000000000000000000000600052603160045260246000fd5b600190038181906000526020600020016000905590558560010160008681526020019081526020016000206000905560019350505050610551565b6000915050610551565b8280548282559060005260206000209081019282156124ad579160200282015b828111156124ad578251805161249d9184916020909101906124bd565b5091602001919060010190612480565b506124b992915061253d565b5090565b8280546124c990612d89565b90600052602060002090601f0160209004810192826124eb5760008555612531565b82601f1061250457805160ff1916838001178555612531565b82800160010185558215612531579182015b82811115612531578251825591602001919060010190612516565b506124b992915061255a565b808211156124b9576000612551828261256f565b5060010161253d565b5b808211156124b9576000815560010161255b565b50805461257b90612d89565b6000825580601f1061258b575050565b601f016020900490600052602060002090810190611b97919061255a565b803573ffffffffffffffffffffffffffffffffffffffff8116811461150f57600080fd5b600082601f8301126125dd578081fd5b8135602067ffffffffffffffff808311156125fa576125fa612e45565b8260051b612609838201612c69565b8481528381019087850183890186018a1015612623578788fd5b8793505b868410156126605780358581111561263d578889fd5b61264b8b88838d010161267d565b84525060019390930192918501918501612627565b5098975050505050505050565b8035801515811461150f57600080fd5b600082601f83011261268d578081fd5b813567ffffffffffffffff8111156126a7576126a7612e45565b6126d860207fffffffffffffffffffffffffffffffffffffffffffffffffffffffffffffffe0601f84011601612c69565b8181528460208386010111156126ec578283fd5b816020850160208301379081016020019190915292915050565b600060608284031215612717578081fd5b6040516060810181811067ffffffffffffffff8211171561273a5761273a612e45565b6040529050806127498361266d565b81526127576020840161266d565b60208201526127686040840161266d565b60408201525092915050565b600060408284031215612785578081fd5b6040516040810181811067ffffffffffffffff821117156127a8576127a8612e45565b6040529050806127b7836127d1565b81526127c5602084016127d1565b60208201525092915050565b803561ffff8116811461150f57600080fd5b6000602082840312156127f4578081fd5b611639826125a9565b600080600080600080600080888a0361018081121561281a578485fd5b6128238a6125a9565b985061283160208b016125a9565b975061283f60408b016125a9565b965060407fffffffffffffffffffffffffffffffffffffffffffffffffffffffffffffffa082011215612870578485fd5b50612879612c40565b60608a0135815260808a01356020820152945060a089013593506128a08a60c08b01612774565b925061010089013567ffffffffffffffff8111156128bc578283fd5b6128c88b828c016125cd565b9250506128d98a6101208b01612706565b90509295985092959890939650565b6000602082840312156128f9578081fd5b813567ffffffffffffffff81111561290f578182fd5b61291b848285016125cd565b949350505050565b600060208284031215612934578081fd5b5035919050565b6000806040838503121561294d578182fd5b8235915061295d602084016125a9565b90509250929050565b60008060408385031215612978578182fd5b50508035926020909101359150565b600060208284031215612998578081fd5b81357fffffffff0000000000000000000000000000000000000000000000000000000081168114611639578182fd5b6000606082840312156129d8578081fd5b6116398383612706565b6000604082840312156129f3578081fd5b6116398383612774565b6000815180845260208085019450808401835b83811015612a4257815173ffffffffffffffffffffffffffffffffffffffff1687529582019590820190600101612a10565b509495945050505050565b60008151808452612a65816020860160208601612d24565b601f017fffffffffffffffffffffffffffffffffffffffffffffffffffffffffffffffe0169290920160200192915050565b7f416363657373436f6e74726f6c3a206163636f756e7420000000000000000000815260008351612acf816017850160208801612d24565b7f206973206d697373696e6720726f6c65200000000000000000000000000000006017918401918201528351612b0c816028840160208801612d24565b01602801949350505050565b60208152600061163960208301846129fd565b6020815260006116396020830184612a4d565b875181526020808901518183015260408201889052865161ffff90811660608401528782015116608083015261016060a08301819052865190830181905260009161018080850192600581901b86019091019190898201855b82811015612be3577ffffffffffffffffffffffffffffffffffffffffffffffffffffffffffffffe80888603018652612bd1858351612a4d565b95840195945090830190600101612b97565b50508851151560c087015250506020870151151560e085015260408701511515610100850152838103610120850152612c1c81876129fd565b915050828103610140840152612c3281856129fd565b9a9950505050505050505050565b6040805190810167ffffffffffffffff81118282101715612c6357612c63612e45565b60405290565b604051601f82017fffffffffffffffffffffffffffffffffffffffffffffffffffffffffffffffe016810167ffffffffffffffff81118282101715612cb057612cb0612e45565b604052919050565b60008219821115612ccb57612ccb612e16565b500190565b6000817fffffffffffffffffffffffffffffffffffffffffffffffffffffffffffffffff0483118215151615612d0857612d08612e16565b500290565b600082821015612d1f57612d1f612e16565b500390565b60005b83811015612d3f578181015183820152602001612d27565b83811115612d4e576000848401525b50505050565b600081612d6357612d63612e16565b507fffffffffffffffffffffffffffffffffffffffffffffffffffffffffffffffff0190565b600181811c90821680612d9d57607f821691505b60208210811415612dd7577f4e487b7100000000000000000000000000000000000000000000000000000000600052602260045260246000fd5b50919050565b60007fffffffffffffffffffffffffffffffffffffffffffffffffffffffffffffffff821415612e0f57612e0f612e16565b5060010190565b7f4e487b7100000000000000000000000000000000000000000000000000000000600052601160045260246000fd5b7f4e487b7100000000000000000000000000000000000000000000000000000000600052604160045260246000fdfea26469706673582212202281abaa3dbcbc63cf8a910a489195beb60ebf354774ef69fbbb26c07482adf164736f6c6343000804003372606200fac42b7dc86b75901d61ecfab2a4a1a6eded478b97a428094891abed",
  "immutableReferences": {},
  "source": "// SPDX-License-Identifier: MIT\npragma solidity ^0.8.4;\n\nimport \"@openzeppelin/contracts/access/AccessControlEnumerable.sol\";\nimport \"./Treatment.sol\";\nimport \"./Helper.sol\";\n\ncontract Patient is AccessControlEnumerable {\n    bytes32 public constant PATIENT_ROLE = keccak256(\"PATIENT_ROLE\");\n    bytes32 public constant MANAGER_ROLE = keccak256(\"MANAGER_ROLE\");\n    bytes32 public constant APPLICATION_ROLE = keccak256(\"APPLICATION_ROLE\");\n    bytes32 public constant DOCTOR_ROLE = keccak256(\"DOCTOR_ROLE\");\n\n    bytes32 private name;\n    bytes32 private gender;\n    uint256 private dob;\n    uint16 private height;\n    uint16 private weight;\n    bool private alcohol;\n    bool private smoke;\n    bool private cannabis;\n    bool private init;\n    string[] private allergy;\n    address[] private treatments;\n    address[] private requests;\n    mapping(address => bool) private doctorQueue;\n    mapping(address => bool) private appQueue;\n\n    constructor() {\n        _setRoleAdmin(PATIENT_ROLE, DEFAULT_ADMIN_ROLE);\n        _setRoleAdmin(MANAGER_ROLE, PATIENT_ROLE);\n        _setRoleAdmin(DOCTOR_ROLE, PATIENT_ROLE);\n        _setRoleAdmin(APPLICATION_ROLE, PATIENT_ROLE);\n    }\n\n    modifier canWrite() {\n        hasWriteAccess();\n        _;\n    }\n\n    modifier canRead() {\n        hasReadAccess();\n        _;\n    }\n\n    modifier onlyPatient() {\n        isPatient();\n        _;\n    }\n\n    function hasReadAccess() public view {\n        require(\n            hasRole(DOCTOR_ROLE, msg.sender) ||\n                hasRole(PATIENT_ROLE, msg.sender),\n            \"Need read access\"\n        );\n    }\n\n    function hasWriteAccess() public view {\n        require(\n            hasRole(DOCTOR_ROLE, msg.sender) ||\n                hasRole(PATIENT_ROLE, msg.sender) ||\n                hasRole(MANAGER_ROLE, msg.sender) ||\n                hasRole(APPLICATION_ROLE, msg.sender),\n            \"Need write access\"\n        );\n    }\n\n    function isPatient() private view {\n        require(hasRole(PATIENT_ROLE, msg.sender), \"Not patient\");\n    }\n\n    function checkDoctor(address user_) external view canWrite returns (bool) {\n        return hasRole(DOCTOR_ROLE, user_);\n    }\n\n    function initialize(\n        address manager_,\n        address owner_,\n        address app_,\n        Bytes32Pair memory nameGender_,\n        uint256 dob_,\n        SmallUintPair memory physique_,\n        string[] memory allergy_,\n        BoolTriple memory alcoholSmokeCannabis_\n    ) external {\n        require(init == false, \"Already initialized\");\n        _setRoleAdmin(PATIENT_ROLE, DEFAULT_ADMIN_ROLE);\n        _setRoleAdmin(MANAGER_ROLE, PATIENT_ROLE);\n        _setRoleAdmin(DOCTOR_ROLE, PATIENT_ROLE);\n        _setRoleAdmin(APPLICATION_ROLE, PATIENT_ROLE);\n        _setupRole(DEFAULT_ADMIN_ROLE, owner_);\n        _setupRole(PATIENT_ROLE, owner_);\n        _setupRole(MANAGER_ROLE, manager_);\n        if (app_ != address(0)) _setupRole(APPLICATION_ROLE, app_);\n        name = nameGender_.value1;\n        gender = nameGender_.value2;\n        dob = dob_;\n        height = physique_.value1;\n        weight = physique_.value2;\n        allergy = allergy_;\n        alcohol = alcoholSmokeCannabis_.value1;\n        smoke = alcoholSmokeCannabis_.value2;\n        cannabis = alcoholSmokeCannabis_.value3;\n        init = true;\n    }\n\n    function getInfo()\n        external\n        view\n        canRead\n        returns (\n            Bytes32Pair memory,\n            uint256,\n            SmallUintPair memory,\n            string[] memory,\n            BoolTriple memory,\n            address[] memory,\n            address[] memory\n        )\n    {\n        string[] memory allergy_ = allergy;\n        address[] memory treatments_ = new address[](treatments.length);\n        for (uint256 index = 0; index < treatments_.length; index++) {\n            treatments_[index] = treatments[index];\n        }\n\n        return (\n            Bytes32Pair(name, gender),\n            dob,\n            SmallUintPair(height, weight),\n            allergy_,\n            BoolTriple(alcohol, smoke, cannabis),\n            treatments_,\n            requests\n        );\n    }\n\n    function setName(bytes32 name_) external onlyPatient {\n        name = name_;\n    }\n\n    function setGender(bytes32 gender_) external onlyPatient {\n        gender = gender_;\n    }\n\n    function setDob(uint256 dob_) external onlyPatient {\n        dob = dob_;\n    }\n\n    function setPhysique(SmallUintPair memory physique_) external canWrite {\n        height = physique_.value1;\n        weight = physique_.value2;\n    }\n\n    function setAllergy(string[] memory allergy_) external canWrite {\n        allergy = allergy_;\n    }\n\n    function setHabits(BoolTriple memory habits_) external canWrite {\n        alcohol = habits_.value1;\n        smoke = habits_.value2;\n        cannabis = habits_.value3;\n    }\n\n    function addTreatment(\n        address treatment_\n    ) external onlyRole(APPLICATION_ROLE) {\n        treatments.push(treatment_);\n    }\n\n    function removeTreatment(\n        address oldTreatment\n    ) external onlyRole(APPLICATION_ROLE) {\n        uint256 index = findTreatment(oldTreatment);\n\n        if (index != treatments.length) {\n            treatments[index] = treatments[treatments.length - 1];\n            treatments.pop();\n        }\n    }\n\n    function findTreatment(\n        address treatment\n    ) private view returns (uint256 index) {\n        uint256 length = treatments.length;\n        for (uint256 i = 0; i < length; ) {\n            if (treatments[i] == treatment) {\n                return i;\n            }\n            unchecked {\n                i++;\n            }\n        }\n        return treatments.length;\n    }\n\n    function doctorRequestAccess(address doctor_) external {\n        require(!doctorQueue[doctor_], \"You already requested access\");\n        requests.push(doctor_);\n        doctorQueue[doctor_] = true;\n    }\n\n    function appRequestAccess(address app_) external {\n        require(!appQueue[app_], \"You already requested access\");\n        requests.push(app_);\n        appQueue[app_] = true;\n    }\n\n    function getRequestQueue()\n        external\n        view\n        onlyPatient\n        returns (address[] memory queue)\n    {\n        queue = requests;\n    }\n\n    function acceptRequest(address doctor_) external onlyPatient {\n        bool requested = false;\n        uint256 index = 0;\n        for (uint256 i = 0; i < requests.length; i++) {\n            if (requests[i] == doctor_) {\n                requested = true;\n                index = i;\n                break;\n            }\n        }\n        require(requested == true, \"No requests record\");\n        grantRole(DOCTOR_ROLE, doctor_);\n        requests[index] = requests[requests.length - 1];\n        requests.pop();\n    }\n\n    function revokeAccess(address doctor_) external onlyPatient {\n        require(doctorQueue[doctor_], \"Access not exist\");\n        revokeRole(DOCTOR_ROLE, doctor_);\n        doctorQueue[doctor_] = false;\n    }\n}\n",
  "sourcePath": "/home/leslie/Documents/GitHub/svelte-blockchain-template-sveltekit/contracts/Patient.sol",
  "compiler": {
    "name": "solc",
    "version": "0.8.4+commit.c7e474f2.Emscripten.clang"
  },
  "schemaVersion": "3.4.9",
  "updatedAt": "2023-06-23T09:26:13.564Z",
  "devdoc": {
    "kind": "dev",
    "methods": {
      "getRoleAdmin(bytes32)": {
        "details": "Returns the admin role that controls `role`. See {grantRole} and {revokeRole}. To change a role's admin, use {_setRoleAdmin}."
      },
      "getRoleMember(bytes32,uint256)": {
        "details": "Returns one of the accounts that have `role`. `index` must be a value between 0 and {getRoleMemberCount}, non-inclusive. Role bearers are not sorted in any particular way, and their ordering may change at any point. WARNING: When using {getRoleMember} and {getRoleMemberCount}, make sure you perform all queries on the same block. See the following https://forum.openzeppelin.com/t/iterating-over-elements-on-enumerableset-in-openzeppelin-contracts/2296[forum post] for more information."
      },
      "getRoleMemberCount(bytes32)": {
        "details": "Returns the number of accounts that have `role`. Can be used together with {getRoleMember} to enumerate all bearers of a role."
      },
      "grantRole(bytes32,address)": {
        "details": "Grants `role` to `account`. If `account` had not been already granted `role`, emits a {RoleGranted} event. Requirements: - the caller must have ``role``'s admin role. May emit a {RoleGranted} event."
      },
      "hasRole(bytes32,address)": {
        "details": "Returns `true` if `account` has been granted `role`."
      },
      "renounceRole(bytes32,address)": {
        "details": "Revokes `role` from the calling account. Roles are often managed via {grantRole} and {revokeRole}: this function's purpose is to provide a mechanism for accounts to lose their privileges if they are compromised (such as when a trusted device is misplaced). If the calling account had been revoked `role`, emits a {RoleRevoked} event. Requirements: - the caller must be `account`. May emit a {RoleRevoked} event."
      },
      "revokeRole(bytes32,address)": {
        "details": "Revokes `role` from `account`. If `account` had been granted `role`, emits a {RoleRevoked} event. Requirements: - the caller must have ``role``'s admin role. May emit a {RoleRevoked} event."
      },
      "supportsInterface(bytes4)": {
        "details": "See {IERC165-supportsInterface}."
      }
    },
    "version": 1
  },
  "userdoc": {
    "kind": "user",
    "methods": {},
    "version": 1
  }
}